:02000002B0004C
:1040000000400B00E8160C00000006000D00050241
:084010000401A30F00000000F1
:0440180074F90B002C
:1040200009480A49884208B505D0094A824202D0A7
:10403000121A0BF097F90748074A0021121A0BF0E1
:10404000B9F9014808BD00BFF8DC0320C8140C0012
:10405000ECDE0320F0DE0320F4E7032070B5074E0A
:10406000074C0AF0D9FAA41BA4080025AC4200D1E1
:1040700070BD56F8043B98470135F7E750140C0023
:1040800094140C0001F0B8B908B500F045FEBDE885
:1040900008400AF079BA07F03FBA07F03DBA07F0D6
:1040A00043BA000008B5034A03490C2007F0C0F8E2
:1040B000FEE700BFD1AD0B0088F90B000078B0FA25
:1040C00080F040097047012303707047704710B5B6
:1040D00004210446FFF7E3FF204610BD0EB400B5EF
:1040E0008CB00DAA4FF0200C52F8041B0392CDE9BE
:1040F00000120023016804AA1E20CDE904C307F0C2
:10410000A7F80CB05DF804EB03B0704710B5064C8F
:10411000236833B90420FFF7BEFF08B1034B0360E7
:104120002060206810BD00BFF4DE0320CCFD0B0032
:1041300030B5314887B00D4605F0C7FB044630B9AD
:104140002E492F48FFF7CAFF204607B030BD9FED2C
:104150002D0A2D4805F0B4FE2B480022172106F049
:1041600029F88DB101F068FB002101F0FAFC02A8EA
:1041700007F032F9029A25492148FFF7AFFF02A85C
:1041800009F034FD2C46DFE701F056FB01F099FC05
:10419000F0B101F051FB01F094FC0A2818D801F0AD
:1041A0004BFB01F08EFC0146194804F0BAFE18489A
:1041B00004F09DFE019002A807F00EF9DDE901234D
:1041C00014490F48FFF78AFF02A809F00FFDBBE76B
:1041D00001F032FB0B2101F0C4FC0B210C4804F070
:1041E000A0FE0B4804F083FE019002A807F0F4F84B
:1041F000DDE901230849E4E7ACE003209DF90B0069
:1042000054E6032000C064447CDF0320A9F90B00BE
:10421000B0E00320E3F90B001AFA0B0010B5064CCE
:10422000C0B00DF1030201A9204605F0C3FD00282E
:10423000F7D140B010BD00BF7CDF0320014805F07E
:10424000A6BD00BF7CDF032037B5274C01F044FB3F
:10425000B4F8031049BA89B201F020FD01F03CFB2B
:10426000B4F8051049BA89B201F01EFD01F034FB23
:10427000E17901F08EFC01F02FFB0546207A0AF06F
:10428000ADFC41EC100B284601F062FB01F024FB71
:10429000617A01F084FC01F01FFBA17A01F085FC3A
:1042A00001F01AFBE17A01F086FC01F015FB0446EF
:1042B0000E4804F0B4FE81B2204601F0E9FC01F0A2
:1042C0000BFB01F01CFC019001F006FB01F003FC6C
:1042D000019A074903460748FFF700FF064B0422EF
:1042E00001201A7003B030BD00DF03207CDF032003
:1042F00061FA0B0054E60320F0DE03202DE9F043C1
:104300004B4D4C4C2B6887B001332B600AF00DF8F5
:104310000016A0700AF009F80014E0700AF005F821
:10432000001220710AF001F8607101F085FA01F0C5
:1043300077FC000AA07101F07FFA01F071FCE071D6
:1043400001F0CAFA01F0DBFB207201F0C5FA01F0BE
:10435000C2FB2778064609F0E8FF0246C31702A809
:1043600009F0DEFEDDF8088001F066FA01F058FC85
:10437000324631493B46CDE900803048FFF7AEFE7A
:1043800002A809F033FC2E4B1E88012130460AF0AA
:10439000DCF901F0A1FA01F09EFB04220346009231
:1043A00021462848092205F055F8274B044618688D
:1043B00004BB013018600AF021FC80462868894659
:1043C0000AF01CFC02460B46404649460AF0AAFD8C
:1043D0001E4B00220AF07CFC02460B4617481C4983
:1043E000FFF77CFE304621460AF0AFF9012007B006
:1043F000BDE8F0830AF002FC8046286889460AF08E
:10440000FDFB02460B46404649460AF08BFD0F4B2A
:1044100000220AF05DFC02460B4608480D49FFF7F2
:104420005DFE304600210AF090F90020DFE700BF72
:10443000FCDE032000DF032088FA0B0054E6032093
:10444000F4010C00ACE00320F8DE0320000059402A
:10445000D0FA0B0004FB0B0030B589B001F0ECF989
:1044600001F0D9FB354C000A207001F0E5F901F0AC
:10447000D2FB607009F059FF0016A07009F055FFDB
:104480000014E07009F051FF0012207109F04DFF97
:10449000607101F0D1F901F0C3FB000AA07101F0D5
:1044A000CBF901F0BDFBE07101F016FA01F013FB4E
:1044B000207201F011FA01F013FB054609F035FFF7
:1044C0000246C31704A809F02BFE049B039301F0D6
:1044D000B3F901F0A5FB2A46039B1949009019483E
:1044E000FFF7FCFD04A809F081FB174B1D88012193
:1044F00028460AF02AF901F0EFF901F0F1FA022258
:104500000346009221461148092204F0A3FF044605
:1045100050B90F490B48FFF7E1FD284621460AF044
:1045200014F9012009B030BD0A490648FFF7D6FD4D
:10453000284600210AF009F90020F3E700DF0320F4
:1045400033FB0B0054E60320F4010C00ACE0032025
:1045500070FB0B008FFB0B0010B501F0BDF9134B86
:10456000997801F02EFB01F0B7F9044609F0DDFE61
:10457000C3170246204601F03DFC01F0ADF90446A8
:104580000B4804F04CFD81B2204601F081FB01F0A4
:10459000A3F901F0A0FA074902460748FFF79EFD7C
:1045A000064B06221A70012010BD00BF00DF032059
:1045B0007CDF0320A9FB0B0054E60320F0DE032080
:1045C00070B588B001F038F901F025FB324C000AD3
:1045D000207001F031F901F01EFB607009F0A5FEBA
:1045E0000016A07009F0A1FE0014E07009F09DFE15
:1045F0000012207109F099FE607101F01DF901F0BF
:104600000FFB000AA07101F017F901F009FB234B21
:10461000E0711E8800250121257230460AF095F8C8
:1046200001F05AF901F057FA06220346009221469A
:104630001B48092204F00EFF044610BB01F04CF9A0
:1046400001F049FA054609F070FE0246C31704A8B6
:1046500009F066FD049B039301F0EEF801F0E0FA27
:10466000039B104900902A460F48FFF737FD04A826
:1046700009F0BCFA304621460AF067F8012008B07C
:1046800070BD0A490848FFF729FD304629460AF05F
:104690005CF82846F3E700BF00DF0320F4010C00BC
:1046A000ACE00320CEFB0B0054E603208FFB0B0095
:1046B00010B5134C134B22781349144803EB021224
:1046C000FFF70CFD2378042B0CD02378022B04D1A8
:1046D000FFF71CFDFFF7C0FE50B92378062B09D069
:1046E000002006E0FFF712FDFFF708FE0028ECD0DF
:1046F000012010BDFFF70AFDBDE81040FFF760BFC5
:10470000F0DE0320F8DC032011FC0B0054E603204C
:1047100030B585B00C4601F05DF90146684601F000
:104720007DF90099182220460AF007FF05466846E1
:1047300009F05CFAADB901F04DF901F0E5F95D4918
:1047400002465D48FFF7CAFC01F044F9044609F04F
:10475000ECFD0246C317204601F051FB012005B0D5
:1047600030BD01F037F90146684601F06DF9009956
:10477000182220460AF0E1FE0546684609F036FA9E
:10478000A5B901F027F901F0C4F94A4902464A489F
:10479000FFF7A4FC01F01EF9044609F0C6FD02462D
:1047A000C317204601F02BFB0220D8E701F012F9D5
:1047B0000146684601F05EF90099182220460AF089
:1047C000BCFE0546684609F011FAA5B901F002F9E8
:1047D00001F0A4F9374902463748FFF77FFC01F0A2
:1047E000F9F8044609F0A1FD0246C317204601F07E
:1047F00006FB0320B3E701F0EDF801F0C3FA50EA3D
:10480000010313D101F0E6F801F07EF92B490246CD
:104810002948FFF763FC01F0DDF8012101F0D7F929
:1048200001F0D8F8214601F009F98DE701F0D2F83E
:1048300001F0ADFA50EA01031DD101F0CBF801F00F
:1048400068F91E4902461C48FFF748FC01F0C2F80F
:10485000022101F0C2F901F0BDF8214601F004F98E
:1048600001F0B8F8044609F060FD0246C31720467F
:1048700001F0CAFA98E701F0ADF801F04FF90F49DD
:1048800002460D48FFF72AFC01F0A4F8032101F0CD
:10489000AAF901F09FF8214601F0FCF801F09AF81E
:1048A000044609F042FD0246C317204601F0B1FA62
:1048B0009FE700BF36FC0B0054E6032065FC0B00AD
:1048C00038B51546044601F085F801F01DF9A842F7
:1048D00007D101F07FF80146204601F09FF82046FD
:1048E00038BD01F077F801F014F9A84206D101F0C3
:1048F00071F80146204601F0A7F8F0E701F06AF8E8
:1049000001F00CF9A84206D101F064F801462046F6
:1049100001F0B0F8E3E70249204609F0B2F9DEE71A
:1049200097FC0B00F0B52E4B02221A7091B02D4B64
:1049300009AC064603F1180227461868596825464F
:1049400003C5083393422C46F7D11B782B7000F037
:10495000C3FF044600F0C0FF01F0BDF80146204649
:1049600001F011F900F0B8FF01F0B5F80A282CD9D0
:1049700000F0B2FF394604463046FFF7C9FE014653
:10498000204601F0FAF800F0A7FF01F0A9F8039023
:1049900000F0A2FF01F09FF8039B0090124913481A
:1049A0003A46FFF79BFBFFF7B1FB0122014605A842
:1049B000FFF786FF059A0E490C48FFF78FFB05A805
:1049C00009F014F9012011B0F0BD00F085FF01F0ED
:1049D00082F8084902460548FFF780FBE3E700BF7D
:1049E000F0DE032002DF03209CFC0B0054E60320D2
:1049F0000DFD0B00E3FC0B0030B589B079238DF879
:104A00001A300DF11F0303930DF11E033F4D029366
:104A10000DF11D03019307AB00933D480DF11B03FE
:104A20000DF11A02294604F049FD10B9002009B021
:104A300030BD9DF81A300024EC542D8800F0FCFEA7
:104A400001F0E9F86DBAADB2A84204D0314932485C
:104A5000FFF744FBEAE700F03FFF9DF81B102F4CE7
:104A600001F08BF89DF81E3003F00F03237000F067
:104A700033FF01F030F80590294804F0D0FA9DF892
:104A80001F1002919DF81A100191034625492078C4
:104A9000059A01EB001100911F482349FFF71EFB07
:104AA0002378032B2AD02378012B05D1FFF72EFB87
:104AB000FFF738FF0028B9D02378052B05D1FFF781
:104AC00025FBFFF749FD0028B0D0184B1A7882B1BA
:104AD00000221A7000F0B0FE154B198801F0D2F8D0
:104AE00000F0AAFE01F09CF8124902460A48FFF7BE
:104AF000F5FAFFF70BFBFFF7DBFD98E7FFF706FB87
:104B0000FFF7A2FB0028CED190E700BF00DF032013
:104B1000ACE003201CFD0B0054E60320F0DE032074
:104B20007CDF0320F8DC03204EFD0B0005E40320AE
:104B300004DE03208FFD0B0010B5084A084C09491C
:104B400012780978084B204605F07AF92146074883
:104B5000BDE81040002204F073BC00BFFA010C0055
:104B60007CDF0320F8010C0058E40320ACE00320B4
:104B7000014B1A60704700BF70DD0320014B01221A
:104B80001A707047DAE3032030B585B00446089800
:104B900060B1406850B1856845B1CDE90241CDE9C9
:104BA0000023C46801AB6A4602A9A04705B030BD26
:104BB00030B585B0006813680193D1E9004583687A
:104BC000CDE902450BB909F0C3FEC36801AA02A9E9
:104BD000984705B030BD012A02D10160002070471E
:104BE000022A04BF0B680360F8E703681268D1E982
:104BF0000001184710B58368044613B1032201462B
:104C00009847204610BD10B5044638B1FFF7F2FFB3
:104C100020461021BDE81040FFF741BA10BD012326
:104C20001A46102102F049B838B500F005FE00F030
:104C3000F7FF044609F05CFBF0B1104B1B78DBB9C1
:104C400009F073FB3C256543B0FBF5F404FB15004C
:104C50002C1A092C0ED9AC4228BF2C4600F0ECFDD2
:104C600000F0DEFF0649024623460648FFF736FA03
:104C7000204638BD0A24F1E70A24F9E7D9E30320E6
:104C8000D4FD0B0054E6032070B51C4E1C4C32784A
:104C90001C4D022AC4B028D109F02AFB32782B78A7
:104CA00058B904EB02120092174A04EB03134FF4B5
:104CB000807104A806F058FC0FE004EB0313039383
:104CC00004EB0214FFF7B0FF039B104ACDE900404C
:104CD0004FF4807104A806F047FC33780C482B7021
:104CE00004A9FFF7FBF944B070BD2B7804EB021266
:104CF000009204EB0313074AD9E700BFD8E303206F
:104D000074DD0320A1E3032008FE0B0028FE0B0046
:104D100054E6032045FE0B002DE9F04F9C4D2DED90
:104D2000028B2B78013BD1B0062B17D8DFE813F0AC
:104D3000080207003500F500BE01EB015001954B5C
:104D40001B78022B01D0FFF79FFF934B1A781AB103
:104D500000221A70042300E003232B708F4802F016
:104D6000D7FA03F037FC03F027FB00F0B5FD00F0A5
:104D7000C3FD00F061FD00F087FD00F02BFE00F0A8
:104D800044FE874B1B68002BC0F20E8251B0BDEC75
:104D9000028BBDE8F04F09F0DCB87E4B1B78032B8B
:104DA00001D0FFF771FF00217C487E4C01F004FF29
:104DB000FFF73AFF074609F0B8FAC219D31710A84F
:104DC00009F0AEF9109B0B9309F026F90B9B76497D
:104DD00000903A467548FFF781F910A808F006FFE1
:104DE0004FF4FA6006F018FC237D002B50D002230C
:104DF00023726F4BB3F800802368DB68F3B19A88A5
:104E0000012A06D09B68F9E79B68BBB19A88012A02
:104E1000FAD19A894245F7D100229A73237D002B5B
:104E200036D023684FF47A78DB6808FB07F8DBB1EB
:104E30009A88042A00F0B3819B68F8E75D49102046
:104E400009F07CFD0646002800F0AC81102200210C
:104E50000AF0B0FA584B33600123B3802369B36082
:104E6000A6F80C802661D9E75249102009F066FDAA
:104E70000646002800F09681102200210AF09AFAD6
:104E80004D4B33600423B38023692661C6E90238A1
:104E900044490CA809F060F84FF0FF313F4801F099
:104EA0008BFE002005F0ACFF42F210760446002095
:104EB00005F0A6FF001B61F10001B04271F1000393
:104EC00007D209F019FB09F00CFB10B906F06CFAD7
:104ED000EDE709F011FB09F004FB02232B702E4BC8
:104EE00001221A7009F021FAC219D31710A809F08B
:104EF00017F9109A0B9209F08FF80B9A2F49034675
:104F00002A48FFF7EBF810A808F070FE0C9800286C
:104F10003FF424AF06F008FB20E71E4B1B78042B60
:104F20000FD0072B03D005F05BFF254B1860FFF770
:104F3000ABFEFFF7EBF8FFF771F922491B48FFF7CB
:104F4000CDF8FFF7E3F8FFF757FD08B107232B7003
:104F50001D4B1B78002B7FF401AF05F041FF184B70
:104F60001B68C01A194B98427FF6F8AEFFF7CEF8CF
:104F7000FFF764F909F0EAF9044600F05DFC00F07F
:104F8000FCFE09F0B1F8844200F0D8800523E4E685
:104F9000D8E30320A1E30320A0E3032074E203206D
:104FA00070DD032094E2032053FE0B0054E603203F
:104FB000F6010C002C120C001000030093FE0B00F5
:104FC00068E20320B4FE0B00D9E30320F04902009D
:104FD000784B1B78072B01D0FFF756FE00F07CFCC6
:104FE00000F079FD0B90FFF791F80B9A01460CA8A1
:104FF000FFF766FC0C9B0B9300F06EFC00F01AFEB2
:10500000044600F069FC00F01AFE064600F064FC5D
:1050100000F07EFCB0EE408AF0EE608A00F05CFCAE
:1050200000F068FD644A52F820B000F055FC00F032
:105030005CFD074600F000FC00F048FD804600F0F3
:105040004BFC00F0F2FD814600F046FC00F057FDFD
:10505000824609F06AF90B9B584ACDE908A0CDE9D0
:1050600000464FF48071CDE90689CDE904B78DED96
:10507000028B10A806F078FA0CA808F0B7FD10A96A
:105080004F48FFF72BF803F0A5FA4E4B4E4A1B781A
:1050900012780021134302688DF804108DF8003057
:1050A00014684A493C2310AAA04753E6414B1B7899
:1050B000052B0AD0FFF7E8FD06F086F908B906F0DF
:1050C0007BF905F08DFE424B186006F07DF988B142
:1050D00000F0B2FB044609F028F90246C317204647
:1050E00000F07EFE06F070F910B1002006F084F9A1
:1050F000062332E605F074FE354B1B68C01A354BAB
:105100009842E5D82AE62B4B334C1B78062B04D06B
:10511000FFF7BAFD05F064FE206005F061FE23682C
:10512000C01A2E4B98427FF619AE03F053FA90F84E
:10513000B330002B3FF412AE01F05AFA02230CE612
:10514000274C284E2378BFF35B8F13F0010F09D152
:105150002046FEF7B3FF28B105F042FE306020463E
:10516000FEF7B1FF134B2A781B789A4201D0FFF764
:105170008BFD05F035FE3368C01A47F23053984274
:105180007FF6ECAD18490E48FEF7A8FF4FF4FA6021
:1051900006F042FA1E21154801F068FEDEE5C3F86C
:1051A0000C8075E6267573E651B0BDEC028BBDE848
:1051B000F08F00BFA1E3032008DE0320DBFE0B001D
:1051C00054E6032061E2032060E2032060FF0B004D
:1051D0006CE20320E093040070E20320905F010082
:1051E0005CE2032064E2032075FF0B0074E20320FD
:1051F00038B5002383608B6804460D462BB102222C
:105200009847EB68E360AB68A360204638BD0000B8
:105210002DE9F04395B005461C9904A890461F4619
:105220000CAEFFF7E5FF04A908A8FFF7E1FF08A906
:105230003046FFF7DDFF4FF000091020CDF8489011
:10524000FEF729FF0446A0B196E8030001AB83E80E
:10525000030094E8030086E8030093E803000E9B34
:10526000E268A36084E803000F9BCDF838900F92AA
:10527000E360244B1393244B1293002200234FF03E
:105280000009C5E90023214BC5F8089010201094AF
:10529000CDE90139CDF80C90FEF7FDFE0446D8B1FA
:1052A000129BC0F8089033B1022210A99847139BB3
:1052B000E360129BA360164B0393164A029401AB62
:1052C0004046394605F0FEFFB0B12046FFF792FC9C
:1052D00010212046FEF7E3FE10A8FFF78BFC3046B6
:1052E000FFF788FC08A8FFF785FC04A8FFF782FCFD
:1052F000284615B0BDE8F083029BAB60C5E9008786
:10530000EAE700BFB14B0B0019530B0002000C0081
:10531000074C0B00894B0B00012A37B5044604D11A
:105320000B680360002003B030BD022A0CD0032AB2
:10533000F8D10468002CF5D02046FFF75BFC102163
:105340002046FEF7ACFEEDE7096801911020FEF75C
:10535000A2FE054610B10199FFF74AFF2560E1E77B
:1053600038B51D4B01251D701C4B08221A7009F021
:1053700085F900231A46194609F090F909F07EF9DB
:1053800000231A460D2109F081F9154B1A1D00243E
:105390001A60144A5A60C3E902441C611D7509F081
:1053A00045FA114D01466922104801F007FB2846D5
:1053B0000F4908F066FC00230E482C610022C5E965
:1053C0000623C5E90844062340F8043BAC62BDE867
:1053D000384002F0E7BB00BF60E2032061E2032037
:1053E00094E2032010000300A8E3032074E20320EA
:1053F000A4100C00B0E203202DE9F0410020A0B081
:1054000005F0FEFC42F210750446002005F0F8FCA1
:10541000001B61F10001A84271F1000307D209F0FD
:105420006BF809F05EF810B905F0BEFFEDE709F082
:1054300063F809F056F800F073FD00F09DFD00F0F0
:105440004BFA03688D4E1B68DFF888828C4F9847B3
:1054500000F0F2F903681B68984700F0BBFA036894
:105460001B68984700F030FE00F0D8FC08230121AB
:105470003046738101F09EFF7C21304601F09CFB99
:1054800008F053FF0AACC3170246204608F048FE56
:105490000A9A03923046FFF7C2FB7A49039A002822
:1054A00014BF43463B467848FEF718FE204608F0F6
:1054B0009DFB764B0A93764B0D93764B0C934FF4F2
:1054C0008022002306A80094FFF7A2FE2046FFF7E3
:1054D00091FB03F07FF803F083FAFEF717FE01213A
:1054E000FEF726FE02F00EFD6B490546204602F04F
:1054F0000BFC0BA905F1080008F0FFFB109BEB610A
:1055000011A905F1200008F0F8FB169B6B63189BAE
:10551000EB631A9B6B641C9BEB641E9B6B659DF895
:105520007C3085F85830204602F0BCF908F0FDFECA
:105530005A4BC217C3E91802184602F05BFD08F087
:10554000D7FE00287ED008F0F0FEC31702462046A2
:1055500008F0E6FD0A9A03923046FFF760FB039AD3
:105560004F49002814BF43463B464748FEF7B6FD67
:10557000204608F03BFB4B4B48491A68204602F096
:1055800023FC002205A903200A9E059205F078FE5F
:1055900000286AD1059D0DB12B6923B9424A4349C0
:1055A0000A2005F045FE0C23069304AB0793042361
:1055B00008932B6906AA012128469847002854D150
:1055C000BDF8103007EE903AFBEECC7A17EE900A59
:1055D00009F026FB3246CDE9000135492A48354D10
:1055E000FEF77CFD204608F001FB334B1E88304659
:1055F00009F0C4F8044600283AD130492248FEF7A1
:105600006DFD2F4B012119702E4B1F88384609F074
:105610009CF84FF4FA6005F0FFFF2146384609F088
:1056200094F804232B7000224FF0FF332649009298
:10563000304606F067FD2B780BB902232B7020B0A3
:10564000BDE8F08108F071FEC3170246204608F05D
:1056500067FD0A9A03923046FFF7E1FA039A1B4965
:10566000002814BF43463B467FE7FFEE007AADE7D4
:1056700017490548FEF732FDD5E700BF74E2032065
:105680008FFF0B0096FF0B0054E60320714B0B00BD
:10569000EB4B0B00D74B0B00C1FF0B00B0E203201C
:1056A000E8FF0B0080DE0320D1AD0B004E000C00A4
:1056B00074000C00D8E30320F6010C00A6000C00D7
:1056C000D9E30320F4010C007D4B0B0019000C0002
:1056D000C5000C008CFF0B0010B5034B03600446A3
:1056E00002F036FD204610BD28010C0010B504461E
:1056F000FFF7F2FF20461021FEF7D1FC204610BD37
:1057000010B5036804460BB905F01AFB2068BDE824
:10571000104005F025BB38B504460430FFF7F0FF14
:10572000206A616A0368DD68D4E90223A8476068DB
:10573000BDE8384005F01CBB38B504460430FFF71F
:10574000DFFF206A616A03689D68D4E90223A847E5
:10575000A2682368D1885B692046984718B92368F6
:1057600020469B699847606805F002FB012038BD20
:1057700010B5044B03600446406808B105F0E8FA30
:10578000204610BDFC0E0C0010B5034B0360044610
:10579000FFF7EEFF204610BD70010C0010B5044667
:1057A000FFF7F2FF20466821FEF779FC204610BD86
:1057B00010B5034B03600446FFF7DAFF204610BD27
:1057C0009C010C0010B50446FFF7F2FF204678213B
:1057D000FEF765FC204610BD10B5034B0360044680
:1057E000FFF7C6FF204610BD44010C0010B504466B
:1057F000FFF7F2FF2046B021FEF751FC204610BD16
:1058000000F12801816009494FF0400CC0E903C153
:10581000012181824FF47A71C16105490022C0E9FA
:10582000081242608261034A02607047749EA92098
:10583000E8E3032070010C0010B5064C23683BB967
:105840006820FEF728FC034608B1FFF7D9FF236064
:10585000206810BDE0E3032008B5006A02F08EFC6A
:10586000FFF7EAFF03685B689847BDE8084005F06A
:1058700011BA10B5006A02F081FCFFF7DDFF036882
:10588000BDE810405B68184710B5FFF7D5FF036807
:10589000BDE81040DB68002118470000002200F13D
:1058A0002801426082614FF47A728160C2610749C7
:1058B000074A02624FF0500C3222C0E903C1426233
:1058C0000121044A81820260704700BF749EA920B2
:1058D000E8E303209C010C0010B5064C23683BB99B
:1058E0007820FEF7D8FB034608B1FFF7D7FF236007
:1058F000206810BDE4E3032010B5FFF79DFF0368A7
:10590000BDE81040DB6800211847000000000000DF
:1059100010B504462DED028B0430FFF7F1FEE3686D
:10592000083B172B0CD9A36893ED068B606805F034
:105930001FFAB0EE480AF0EE680ABDEC028B10BD0B
:105940009FED018BF2E700BF0000000000000000A7
:10595000F8B50446043057EC106BFFF7D1FEE3684E
:10596000083B172B12D9A5683046D5E906233946DE
:1059700009F016FC50B9C5E906672046A56805F090
:10598000D9F8A860236820461B6998476068BDE87D
:10599000F84005F0EDB90000002200F12801426056
:1059A00082614FF47A728160C2610749074A0262DC
:1059B0004FF0880C9622C0E903C142620121044ADB
:1059C00081820260704700BF749EA920E8E3032033
:1059D00044010C0010B5064C23683BB9B020FEF71B
:1059E0005AFB034608B1FFF7D7FF2360206810BDBC
:1059F000DCE3032010B5006A02F0C0FBFFF7EAFF0A
:105A00000368BDE810405B68184710B5FFF7E2FF78
:105A10000368BDE81040DB680021184738B504462C
:105A20000D46054908F02DF9234619221021284674
:105A300005F027F8204638BDA4100C000B461922AB
:105A4000102105F08FB8000038B504460D46054911
:105A500008F017F9234619223821284605F011F8D5
:105A6000204638BDA4100C000B461922382105F041
:105A700079B8000038B504460D46054908F001F92B
:105A8000234619226021284604F0FBFF204638BD3A
:105A9000A4100C000B461922602105F063B838B53C
:105AA000044604300D46FFF72BFEE3686068013BB7
:105AB000AB4226BFA3685D5D002505F059F9284675
:105AC00038BD08B51021FFF7EAFF08BD08B517215A
:105AD000FFF7E5FF08BD08B51021FFF7E0FF08BD9F
:105AE00008B51121FFF7DBFF08BD08B51221FFF74C
:105AF000D6FF08BD08B52021FFF7D1FF08BD08B5C6
:105B00003421FFF7CCFF08BD08B52921FFF7C7FFF7
:105B100008BD08B55121FFF7C2FF08BD08B57921BE
:105B2000FFF7BDFF08BD70B5044604300D461646AC
:105B3000FFF7E6FDE368013BAB420DD3A3685A5D76
:105B4000B24209D05E552046A56804F0F3FFA86074
:105B5000236820461B6998476068BDE8704005F0DF
:105B600007B908B50A461021FFF7DDFF08BD08B5E3
:105B70000A461721FFF7D7FF08BD08B50A461021CE
:105B8000FFF7D1FF08BD08B50A461121FFF7CBFF8B
:105B900008BD08B50A461221FFF7C5FF08BD08B5C4
:105BA0000A462021FFF7BFFF08BD08B50A4630218D
:105BB000FFF7B9FF08BD08B50A463421FFF7B3FF68
:105BC00008BD08B50A464421FFF7ADFF08BD08B57A
:105BD0000A462921FFF7A7FF08BD08B50A4651214B
:105BE000FFF7A1FF08BD08B50A467921FFF79BFF23
:105BF00008BD38B5044604300D46FFF781FDE36863
:105C00006068023BAB4226BFA3685D5B002505F0E0
:105C1000AFF8284638BD08B51221FFF7EAFF08BDE6
:105C200008B52A21FFF7E5FF08BD08B53221FFF7C7
:105C3000E0FF08BD08B54021FFF7DBFF08BD08B550
:105C40004221FFF7D6FF08BD70B5044604300D466B
:105C50001646FFF755FDE368023BAB420DD3A36840
:105C60005A5BB24209D05E532046A56804F062FF39
:105C7000A860236820461B6998476068BDE87040AB
:105C800005F076B808B50A462A21FFF7DDFF08BD02
:105C900008B50A463221FFF7D7FF08BD08B50A4606
:105CA0004021FFF7D1FF08BD08B50A464221FFF7A2
:105CB000CBFF08BD38B5044604300D46FFF720FD84
:105CC000E3686068013BAB4226BFA3685D5D0025C9
:105CD00005F04EF8284638BD08B51621FFF7EAFF53
:105CE00008BD08B53B21FFF7E5FF08BD70B50446C8
:105CF00004300D461646FFF703FDE368013BAB4257
:105D00000DD3A3685A5DB24209D05E552046A568FE
:105D100004F010FFA860236820461B69984760685C
:105D2000BDE8704005F024B808B50A461621FFF713
:105D3000DDFF08BD08B50A463821FFF7D7FF08BDCB
:105D400008B50A463B21FFF7D1FF08BDF8B5044668
:105D500004300D46FFF7D4FCE3686068083BAB42B3
:105D600023BFA1684919D1E90067002638BF002781
:105D700004F0FEFF30463946F8BD08B52021FFF794
:105D8000E5FF08BD08B53021FFF7E0FF08BD08B505
:105D90005821FFF7DBFF08BDF8B5044604300D4677
:105DA0001E461746FFF7ACFCE368083BAB4212D334
:105DB000A3685A1958595168B14208BFB8420AD06D
:105DC0005F5120465660A56804F0B4FEA8602368C1
:105DD00020461B6998476068BDE8F84004F0C8BFDA
:105DE00008B52021FFF7D8FF08BD08B53821FFF717
:105DF000D3FF08BD08B54821FFF7CEFF08BD08B5A1
:105E00003021FFF7C9FF08BD08B55821FFF7C4FFCF
:105E100008BD08B58021FFF7BFFF08BD70B5314D43
:105E200031492846FEF75AF9FFF756FD0021FFF7E2
:105E30003BFFFFF751FD0021FFF730FFFFF74CFD5F
:105E4000044608F072FA0246C3172046FFF7CDFF5A
:105E5000FFF742FD0021FFF7B4FEFFF73DFD0446CA
:105E600008F063FA0246C3172046FFF7C3FFFFF7A7
:105E7000E3FC0021FFF77BFE1C492846FEF72EF9C4
:105E8000FFF7A8FD0121FFF7A2FEFFF7A3FD002108
:105E9000FFF7D4FDFFF79EFD00220023FFF7AFFFC1
:105EA000FFF798FD0221FFF798FEFFF793FD002111
:105EB000FFF7DAFDFFF78EFD00220023FFF7A4FFB6
:105EC000FFF788FD0321FFF78EFEFFF783FD00211A
:105ED000FFF7E0FDFFF77EFDBDE8704000220023E4
:105EE000FFF797BF54E60320E3000C0004010C0009
:105EF000084B012210B51A7008F098FC064C0146B8
:105F000000234FF40052204602F02EF9034B236089
:105F100010BD00BFDBE30320E8E3032028010C00F1
:105F200008B513491348FEF7D9F80221042008F0F8
:105F3000FBFB0021082008F0F7FB0121072008F0F7
:105F4000F3FB0021122008F0EFFB0121112008F0E3
:105F5000EBFB0121102008F0E7FB0021102008F0E6
:105F6000F4FB0021112008F0F0FB012008BD00BF68
:105F7000C0010C0054E6032010B51849184890B031
:105F80002024FEF7ABF822460021684609F012FAF9
:105F9000224600210DEB04008DF8054009F00AFAB5
:105FA00000210DEB04008DF8254005F0CFF941F2FA
:105FB000D833ADF806300B4B029341F27003ADF8C5
:105FC0000C30009B002143F400736846009305F0F9
:105FD000BDF9003818BF012010B010BDD9010C0068
:105FE00054E60320840384037047006A0368DB6877
:105FF000184700001FB50446FFF71EFCFFF710FE10
:10600000064A03461021684605F0AEFA6946204666
:1060100007F037FE204604B010BD00BFFE010C00A3
:1060200030B585B00346144668460D469847029839
:10603000206005F071FA286050B12268009909F0DB
:1060400091F90024684607F0D1FD204605B030BD27
:10605000004CF7E7FCFEFFFF0023042205F094B993
:106060000A4B10B50446036006F034FC214606F0E6
:1060700038FE08F041FA08F031FA2046044B40F8A7
:10608000043B06F0C9FC204610BD00BFC4040C0050
:10609000AC040C0010B50446FFF7E2FF20462421B3
:1060A000FDF7FDFF204610BD07B501230822CDE90D
:1060B00000234FF47A71002341436A46184605F0E5
:1060C000B3F903B05DF804FB10B58CB0364B049304
:1060D000364B0593364B0693364B0793364B089356
:1060E000364B374909930024364B37480A930B94B3
:1060F000FDF7F4FFFFF7A0FBFFF7EEFD334A34494D
:10610000A04218BF11463348FFF7A6FF3249334873
:10611000FFF7A2FF32493348FFF79EFFFFF7DCFB92
:10612000FFF7F6FB2346092269462F488DED000B49
:1061300005F02AF9FFF7D0FBFFF7DCFC0CAB03EB13
:10614000800050F8201C2948FFF786FF0C23CDE97A
:106150000044ADF80030264B2649029304226B46DA
:10616000254805F011F9FFF767FBFFF7BAFD234A51
:106170002349A04218BF11462248FFF76DFF224A6B
:106180002249234805F005FC224A2349204805F00E
:1061900000FC1C4A21491E4805F0FBFB0CB0BDE881
:1061A000104000F0A3BB00BF18020C0020020C003E
:1061B00024020C002D020C0035020C0041020C00E0
:1061C00053020C0047020C0054E6032009020C00A5
:1061D0000D020C0081020C0068DD032090020C000F
:1061E00034DE032098020C009F020C00AA020C006F
:1061F00021600B00F55F0B00B9020C0010020C00CF
:106200001E040C00CD020C00D6020C00E5620B004F
:1062100067B90B00E4020C004D620B00B9630B0080
:1062200038B5046805467CB16368013B63605BB9BF
:10623000236820469B689847A368013BA3601BB96D
:1062400023682046DB689847284638BD30B5C7B07C
:1062500000680A2203A909F059FA782831D81A4DA2
:106260000B2828800DDCFFF7E7FAFFF735FD40B17A
:1062700016491748FDF732FFFFF7DEFA0021FFF756
:1062800053FD144B144A01241C704FF480712B8869
:1062900006A805F069F90E4806A9FDF71FFF05F0ED
:1062A00093F860B10D4B0E491B788DF8003004A8AF
:1062B0003C2306AA05F07EFC05A8FFF7B1FF2046A7
:1062C00000E0002047B030BD04DE0320F2020C00E5
:1062D00054E6032005E4032021030C0004E403201A
:1062E00061030C0010B52A4994B0044607F082FD02
:1062F00058B12046264907F07DFD044668B9FFF7EE
:106300009BFA2146FFF710FD1EE02249204607F0C8
:1063100071FD0028EDD114B010BDFFF78DFA0121F9
:10632000FFF702FDFFF788FAFFF77AFC0B280BD87E
:1063300019491A48FDF7D2FEFFF77EFA0C21FFF744
:10634000A1FC174B01221A70FFF776FAFFF7C4FC85
:106350001449154B154A002818BF0B46402104A8C4
:1063600005F002F90D4804A9FDF7B8FE05F02CF878
:1063700060B10F4B0F491B788DF8003002A83C2309
:1063800004AA05F017FC03A8FFF74AFF0120C2E7A3
:1063900010050C00EC070C006D030C0054E6032004
:1063A00005E4032066030C006A030C009A030C004A
:1063B00004E403208B020C0030B51E4985B005466D
:1063C00007F018FD0446D8B1FFF736FA0121FFF7B0
:1063D000B7FC3C20FFF768FE04F0F6FF10B901207F
:1063E00005B030BD144B154A1B788DF800303C23A6
:1063F00002A8134905F0DEFB03A8FFF711FFEEE743
:106400001049284607F0F6FC0028E9D0FFF714FAF7
:106410002146FFF795FC40F26450FFF745FE04F07B
:10642000D3FF0028DBD0044B074A1B788DF80030DF
:106430003C23DDE710050C0004E40320B4030C004A
:106440008B020C00EC070C00C7030C0070B5D0E900
:1064500000531426044606FB0356AE4204D02846D9
:1064600007F0C4FB1435F8E7206805F05DF8204616
:1064700070BD8842F8B504460D46164616D99042BE
:1064800015D2A2F11406751AA1F114072C44B742D3
:106490001CD02CB13146204607F024FC337C2374F9
:1064A000304607F0A3FB143E143CF0E70ED0B54293
:1064B0000CD02CB12946204607F014FC2B7C237409
:1064C000284607F093FB14351434F0E7F8BD2DE9A6
:1064D000F0410023C0E9003383604F689F420446C7
:1064E0000E4623DD4FF0140808FB07F005F014F802
:1064F0000546D8B1D4E9001208FB0212FFF7B9FF34
:10650000206805F011F82560A760D6E9007308FB44
:106510000378B84508D03946284607F0FDFB3B7C98
:106520002B7414371435F4E7736863602046BDE8B4
:10653000F081000070B5274B274A01251D70274BBD
:1065400000248CB09A60C3E90044022004F0AAFE43
:106550002146284604F0BEFE2946042004F020FC13
:10656000CDE90044029407F0C7FF1D4C054669467B
:1065700003A8FFF7ACFF264603A906A8FFF7A7FF6D
:10658000184B46F8043B06A909A8FFF7A0FF09AA83
:106590001E21304606F088FC09A8FFF757FF06A821
:1065A000FFF754FF104B2360256203A8FFF74EFF4F
:1065B0000E4B236007F0A0FF4FF4165107F08AFF3F
:1065C00006F088F9214606F045FB6846FFF73EFFD6
:1065D0000CB070BD04E403200000FFFFF8E30320CB
:1065E00008E40320AC040C00D8100C00C4040C0018
:1065F0002DE9F04385B007F098FE4349054643482E
:10660000FDF76CFD424B188805F0A6FD002401A89B
:10661000CDE90144ADF80C4005F0CCF9204604F07A
:10662000EFFB43F698260446002004F0E9FB031B29
:1066300061F10001B34271F1000305D204F0C4FE20
:1066400010B104F0B1FEEFE704F0BEFE04F0C8FBA9
:10665000304F386004F0A8FE04F0B6FE044640B1A6
:106660002D492A48FDF73AFD0024204605B0BDE833
:10667000F08307F05AFE2949DFF8A480421B234823
:10668000FDF72CFD07F051FE224602210646D8F800
:10669000040004F0F1FED8F8040023462246214607
:1066A00004F002FF204604F0ABFB47F230590546E8
:1066B000002004F0A5FB431B61F100014B4571F183
:1066C000000306D2404606F00DFF10B904F06CFE40
:1066D000EEE7134806F006FF04F082FB386004F092
:1066E00063FE0F4806F0FAFE20B10E490748FDF799
:1066F000F5FCBAE707F019FE0B49821B0348FDF7CA
:10670000EDFC0124B1E700BFDB030C0054E60320DD
:10671000F6010C0010E7032004040C0027040C0011
:1067200080E5032050040C0076040C0007EE900A6C
:106730009FED097AF8EEE77A67EE877A9FED077AA0
:1067400087EE870ADFED067A70EE677AB2EE040A0A
:1067500087EE800A704700BF00404E4500F07F453D
:106760000000FA4313B5012101A806F050FFFFF71E
:10677000B3F8FFF7BAF9FFF7AFF8FFF7B6F9252836
:1067800001A80DD906F0D6FFFFF7A6F80121FFF703
:1067900006FA002401A806F049FF204602B010BD09
:1067A00006F0ADFF0124F5E730B5194D0FCD97B0D8
:1067B0000CAC0FC40FCD0FC495E8030084E80300B0
:1067C000144904A804F0A2FF04A804F0E2FF044660
:1067D00004A805F017F804A810EE105A05F042F8C6
:1067E00016AB10EE100A03EB840408F019FACDE999
:1067F0000201284608F014FACDE90001064A54F8CF
:10680000283C0648402104F0AFFE17B030BD00BF61
:1068100030050C0080E5032012050C0034DE032057
:1068200030B585B00D4600226946009204F028FD7F
:1068300090B9009C0CB1236923B9084A08490A2081
:1068400004F0F6FC0C23CDE901350423039301AADF
:10685000236901212046984705B030BDD1AD0B001A
:106860004E000C0013B5FFF737F801A904460720C6
:10687000FFF7D6FF011EA8BF01992046C9B2FFF756
:106880008EF9184805F090FB4FF4FA7004F0C4FE3E
:10689000FFF722F801A904460320FFF7C1FFE8B97A
:1068A000BDF8043007EE903AFBEECC7A17EE900A72
:1068B00008F0B6F941EC100B2046FFF749F8FFF756
:1068C0000BF8FFF725F8084B51EC100B002208F0ED
:1068D0008FFC003818BF012002B010BDFFEE007A17
:1068E000E4E700BF2CE4032000004E4013B5FEF7A0
:1068F000F3FF114B0446188807F053FFFFF716FF0C
:10690000FDEEC07A2046CDED017A9DF80410FFF728
:1069100040F9FEF7E1FFFFF7E8F8084A03461021C7
:10692000074804F021FEFFF79DFFFFF71BFFFFF76D
:106930003BFF012002B010BDFC010C002B050C0038
:1069400024DE03200148002105F0EABA2CE40320EC
:10695000704710B520210446FDF7A1FB204610BD6D
:1069600010B504468AB008464FF0200C0021CDE94E
:106970000023CDE902C10B4602AA216804F068FC9D
:106980000AB010BD0EB403B503AB322153F8042B8B
:106990000193FFF7E5FF02B05DF804EB03B0704729
:1069A0000EB403B503AB012153F8042B0193FFF799
:1069B000D7FF02B05DF804EB03B0704710B5027268
:1069C000FF2242810022C0E9032242610276C261B5
:1069D000024A034C1060C0E9004110BD38E40320B6
:1069E000A8070C002DE9F8439DF82080044689464D
:1069F00016461F46B8F1000F02D0406805F06EFB46
:106A0000217A606805F047FB6068036849469B6827
:106A100098476068002105F05DFB054600BB012337
:106A2000217A60683A4605F024FB8742034609D183
:106A30003744BE421CD0606803685B69984706F81B
:106A4000010BF6E70B490C484A46FFF79BFFB8F1EC
:106A5000000F02D0606805F04AFB2846BDE8F883C5
:106A60000346064904484A46FFF78CFF0025EEE737
:106A70000125ECE758050C0034E403207D050C00EB
:106A800007B500930123FFF7ADFF03B05DF804FBEA
:106A900073B54389FF2B044610D0194E194D04F0ED
:106AA0009FF9B0F57A7F09D2608907F067FE012867
:106AB00004D031462846FDF711FBF0E701230DF124
:106AC000070228212046FFF7DBFF30B90D480E49A9
:106AD000FDF704FB002002B070BD9DF80730182BB5
:106AE000F4D101230DF1070229212046FFF7C8FF49
:106AF0000028EBD09DF80730052BE7D1EBE700BF6E
:106B0000A1050C0034E40320B6050C0007B51346BC
:106B100000228DF807200DF10702FFF7B1FF9DF865
:106B2000070003B05DF804FB2DE9F0419DF81880E3
:106B300004460F4615461E46B8F1000F02D04068C5
:106B400005F0CCFA217A606805F0A5FA6068036860
:106B500039469B6898472E44B542606805D0036863
:106B600015F8011B9B689847F6E7012105F0B2FA7A
:106B7000034670B1084909483A46FFF703FF00256C
:106B8000B8F1000F02D0606805F0B1FA2846BDE800
:106B9000F0810125F4E700BFC3050C0034E40320B5
:106BA0001FB58DF80F2000930DF10F020123FFF7A1
:106BB000BBFF05B05DF804FBF8B50A460C46054678
:106BC0001A491B48FDF78AFA002CB8BFEC687CB95B
:106BD000012322461B212846FFF7E2FF1549024602
:106BE00006461348FFF7DCFEEC606C613046F8BDEA
:106BF000032C19DDA7101F2FA8BF1F27BA0062F0B2
:106C00007C020123D2B21B212846FFF7C9FF3A4676
:106C10000346094906460648FFF7C2FE4FF4FA63E9
:106C20005F43EC606F61E1E70127E7E7E8050C00EF
:106C300034E40320F2050C000E060C00064B1A6823
:106C40004AB1A0F500630B4305D1D3681BB1002105
:106C50001046FFF7B1BF704738E403202DE9FF412C
:106C60009DF82880054616461F46B8F1000F04D04F
:106C70004068019105F032FA0199019100230DF16C
:106C80000F022846FFF7FCFE044660B19DF80F3066
:106C900003EA06023A43934205D0019900232846AD
:106CA000FFF77EFF0446B8F1000F02D0686805F0D8
:106CB0001EFA204604B0BDE8F08113B514460DF16C
:106CC0000702FFF7DDFE28B19DF807301C420CBF1C
:106CD0000120002002B010BD13B514460DF10702CB
:106CE000FFF7CEFE28B19DF807301C4214BF0120EB
:106CF000002002B010BD07B5D2430093D2B20023EA
:106D0000FFF7ACFF03B05DF804FB000037B50123CB
:106D10000DF107020F210446FFF7B2FE054638B910
:106D20001E491F48AD22FFF72DFE284603B030BD97
:106D30009DF8073013F0200F4FF001030BD02022F5
:106D4000E3610F212046FFF7D6FF164A1649144883
:106D5000FDF7C4F9E9E7082217212046FFF7BCFF39
:106D600018B10223114AE361F0E79DF807301A07D2
:106D700009D50323E361082201230F212046FFF7F1
:106D8000BAFF0B4AE2E75B07CFD50422E261012399
:106D90000F212046FFF7AFFF064AD7E761060C0038
:106DA00034E4032032060C0080060C003B060C0085
:106DB0004B060C005B060C0007B500931346FF2240
:106DC000FFF74CFF03B05DF804FB0000F8B50F4679
:106DD0001646012300220F210546FFF7E1FE044677
:106DE00038B94FF425721F491F48FFF7CBFD2046E5
:106DF000F8BD0123232218212846FFF7D1FE0446BF
:106E000010B940F29B22EEE7FF2FA8BFFF27012F0A
:106E1000B8BF01270123FAB219212846FFF7C0FEA7
:106E2000044610B94FF42A72DDE70123082212212B
:106E30002846FFF7C1FF044610B940F2AF22D2E75F
:106E4000002E14BF03220222012342F080021821E7
:106E50002846FFF7A5FE04460028C8D140F2B92213
:106E6000C1E700BF91060C0034E403202DE9F7438D
:106E70000A4605460F464F484F49FDF72FF90021B6
:106E80002846FFF799FE044648B940F2F7124B49ED
:106E90004848FFF777FD204603B0BDE8F0830123A3
:106EA0001A4630212846FFF787FF044610B940F202
:106EB0000522ECE71022012311462846FFF71BFFAD
:106EC000044610B94FF40372E1E70123262213218F
:106ED0002846FFF765FE044610B940F21322D6E7B4
:106EE000012600963346FC2211212846FFF7B6FE04
:106EF000044610B940F21B22C9E700223946284651
:106F0000FFF764FF044610B940F22222BFE7009663
:106F10000223772210212846FFF7A0FE044610B96D
:106F200040F22B22B3E7334604221C212846FFF708
:106F300043FF044610B940F23222A8E70096182316
:106F4000E32211212846FFF789FE044610B940F2DA
:106F500039229CE73346C02217212846FFF720FE3E
:106F6000044610B94FF4107291E703F039FFDFF8CF
:106F70005490DFF840804FF47A7106464F4303F097
:106F80002FFF801BB8420ED2012217212846FFF79F
:106F9000BDFD494602464046FDF7A0F84FF47A7021
:106FA00004F03AFBEBE706490248FFF7EBFC06F07A
:106FB000D0FF70E734E40320BC060C00B1060C00DF
:106FC000E2060C00CD060C002DE9F3479DF828A041
:106FD00005460C4691461F46BAF1000F02D04068A4
:106FE00005F07CF807B3202F3E4628BF20267F2CD3
:106FF00026D83319802B01D9C4F18006012304223D
:107000003F212846FFF777FE002364F07F010093BD
:107010004A463346C9B22846FFF7E4FC804628B109
:107020003444BF1BB144DDE74FF00108BAF1000F53
:1070300002D0686805F05BF8404602B0BDE8F08712
:10704000012304223F212846FFF7B6FEDCE72DE9A5
:10705000F3479DF828A005460C4691461F46BAF115
:10706000000F02D0406805F039F807B31F2F3E46E5
:1070700028BF1F267F2C26D83319802B01D9C4F1B5
:107080008006012304223F212846FFF734FE002317
:1070900064F07F0100934A463346C9B22846FFF7A1
:1070A00043FD804628B13444BF1BB144DDE74FF0B7
:1070B0000108BAF1000F02D0686805F018F84046E0
:1070C00002B0BDE8F087012304223F212846FFF7E4
:1070D00073FEDCE730B585B00D68D1E90432039565
:1070E0004D6802958D680195C96800910133044986
:1070F00002F26C72044606F0C5FE204605B030BDB3
:10710000F4060C0003090A2200F00F0002FB030042
:10711000704738B5044600781546FFF7F3FF08605E
:107120006078FFF7EFFF4860A078FFF7EBFF88601B
:10713000E078FFF7E7FFC8602079FFF7E3FF013849
:1071400008612DB9651D2878FFF7DCFF886138BD1F
:107150006079FFF7D7FF6430A51D4861F3E70000B1
:1071600070B5012388B00D461A4610210446FFF77A
:10717000A4FDF0B108230126204600960DEB030282
:107180000021FFF72FFC044698B1324629460DF145
:107190000900FFF7BEFF04A8FFF79CFF0848049A08
:1071A0000849FCF79BFF04A806F020FD204608B024
:1071B00070BD24220021284608F0FCF80024F5E7E1
:1071C00034E4032012070C0030B58BB00D4601A942
:1071D000FFF7C6FF044620B101A804F015FAC5E97F
:1071E000000120460BB030BD0A2390FBF3F103FBF6
:1071F000110091FBF3F203FB121240EA0210C0B23D
:10720000704770B5054600680C461646FFF7ECFF60
:1072100020706868FFF7E8FF6070A868FFF7E4FF78
:10722000A070E868FFF7E0FFE07028690130FFF721
:10723000DBFF20712EB9661DA869FFF7D5FF3070FE
:1072400070BD6A69642392FBF3F003FB1020FFF723
:10725000CBFFA61D6071EFE7F0B587B0054602A829
:1072600016460C46FFF736FF1E48029A1E49FCF7E9
:1072700035FF02A806F0BAFC16B1686804F02EFFCC
:10728000204601220DF1090100278DF80870FFF753
:10729000B8FF01231A4610212846FFF78DFD04464A
:1072A000E8B1082300970DEB030239462846FFF7A3
:1072B0003BFC044660B101231A4610212846FFF723
:1072C0001AFD16B1686804F012FF204607B0F0BD41
:1072D0004FF48D7205490348FFF754FBF1E74FF473
:1072E0008F72F7E734E4032020070C002E070C0010
:1072F00013B504466846CDE9002308F00DF89DF863
:10730000102001462046FFF7A7FF02B010BD000085
:10731000F0B5057E89B0044675BB06F0E9FF58B3A9
:107320000026002704A92846CDE9046704F074F874
:1073300010B30125257606F0F8FFC317CDE9020347
:10734000024600952046FFF7D3FF02A92046CDE96B
:107350000267FFF739FF134B13491B68009304A81A
:10736000DDE9022306F082FF1048049A1049FCF779
:10737000B5FE04A806F03AFC63698BB103F030FD5A
:107380002369C01A636998420AD303F029FD4FF0BC
:10739000FF312061204609B0BDE8F040FFF70CBC8A
:1073A00009B0F0BD7CDE0320A8E6032034E403200E
:1073B00049070C0030B504468BB011B1406804F0A9
:1073C0003BFE2046FFF764FB06AD002837D0204681
:1073D000FFF79CFC01231A4610212046FFF76DFCA5
:1073E000D8B106F085FFC0B902A92046FFF7ECFE30
:1073F000DDE9020106F080FE134B14491B6800937F
:107400002846DDE9022306F031FF1148069A1149AA
:10741000FCF764FE284606F0E9FB0F4B06930F4B82
:1074200009930F4B08934FF40062002302A80095C4
:10743000FDF7EEFE2846FDF7DDFB0BB030BD094938
:107440000348FFF79FFAE8E77CDE0320A8E6032065
:1074500034E403205F070C003D6C0B00EB4B0B008A
:10746000D74B0B007C070C00014B024A1A60704797
:1074700034E4032094070C0010B5012303748368DF
:10748000044643B1C0689847012363740020BDE8F7
:10749000104003F075BC00680028F5D083680BB974
:1074A00007F056FAC368EEE7012A02D10160002016
:1074B0007047022A04BF0B680360F8E738B5056817
:1074C000044635B12846FDF795FB10212846FCF708
:1074D000E6FD20461421BDE83840FCF7E0BD10B5BC
:1074E00003680446ABB1586803F0FAFB88B9236817
:1074F0005A7C12B9586803F0FBFB2368586803F004
:10750000FFFB20680023236018B1BDE81040FFF79F
:10751000D5BF10BD054A026000224260027380F8A8
:107520004F24C0F85824C0F860247047D4070C00DA
:1075300010B5074C236843B940F26440FCF7ABFD3B
:10754000034608B1FFF7E6FF2360206810BD00BFC7
:107550003CE4032038B50446406890B1022323730D
:10756000FFF7BDFF656855B12846FFF7B8FF2868EB
:1075700008B1FFF7A3FF04212846FCF790FD002384
:10758000636038BD10B5054B03600446FFF7E2FFAA
:1075900004F58A60FDF72EFB204610BDD4070C00D1
:1075A00010B50446FFF7EEFF204640F26441FCF7B9
:1075B00076FD204610BDF0B5044689B000F10D06F9
:1075C00000F14E07237B1BB9012004F025F8F9E7F1
:1075D000237B022B64D0A06803F0A2FBA06803F019
:1075E000A7FB94F84F348DF800303A463C233146DF
:1075F00006A804F0DFFA069D6B7833B9237B022BD3
:1076000003D0012004F008F8F5E7D4F858341BB390
:10761000002003F067FE20B16B7813B903F0C4FEBD
:10762000FAE72B78D4F860240592591E4B424B415F
:107630008DF80B30D4F85834CDE903670BB907F057
:1076400087F905AB0093D4F85C5404AB03AA0DF1A1
:107650000B0104F58A60A847A06803F061FB237B57
:10766000022B17D0D4F858340025C4F8605443B125
:1076700004F58A61032208469847C4F85854C4F8B0
:107680005C540023A068237303F052FB07A8FEF7A5
:10769000C7FD97E7A06803F04BFB07A8FEF7C0FD06
:1076A00009B0F0BD0068FFF786BF13B50B46024670
:1076B000D0E900016C4684E8030093E8030082E807
:1076C000030094E8030083E8030002B010BD00004B
:1076D0002DE9F74306468846142026491746994661
:1076E00007F02CF9044630B10020C4E90000C4E9D9
:1076F0000200207460743460002C31D01D491020C9
:1077000007F01CF9054668B100238360014638463E
:10771000FFF7CBFFBB68AA68BA60AB60EA68FB689A
:10772000EB60FA602768256037B13846FDF762FAEA
:1077300010213846FCF7B3FC3068036883B10A9B1C
:107740004A46CDE9000341460B4B043003F0C0FA32
:1077500030B933681B7C4BB9012003F031FBF8E7EB
:1077600030680023336008B1FFF7A8FE304603B04D
:10777000BDE8F0832C120C0079740B0030B543681F
:1077800087B00446C3B9083003F0C2FA0B4B059327
:1077900004200B4B02940493FCF77DFC054638B1A2
:1077A0004FF4406300930749022302AAFFF790FFBA
:1077B000656002A8FDF71EFA07B030BDA5760B0084
:1077C000A9740B00B8070C002DE9F043044685B0FE
:1077D00080680C9F98460D46164603F0A1FA636830
:1077E0001BB1237B03F0FF0933B1A06803F0A0FABB
:1077F000002005B0BDE8F083A06803F099FA002DE1
:107800003DD04022294604F10D0007F0AAFE84F87D
:107810004D908EB340F20142314604F14E0007F024
:10782000A0FE84F84E9400230293BB6804F58A6599
:107830003BB10222394668469847FB680393BB6810
:10784000029329466846FFF730FF029BD4F858247C
:10785000C4F85834039B02926846D4F85C24C4F8F8
:107860005C340392FDF7C6F90D9BC4F86034012027
:1078700084F84F842073BCE784F84E60D3E7284631
:10788000B7E77047704710B508210446FCF707FCBE
:10789000204610BD10B510210446FCF700FC204620
:1078A00010BD000010B5054B044640F81C3B06F027
:1078B0009DF9201D06F09AF9204610BD48080C00DD
:1078C00010B50446FFF7EEFF20465821FCF7E7FB12
:1078D000204610BD10B5044B044640F8043BFFF7AA
:1078E000E1FF204610BD00BF18080C0010B504468B
:1078F000FFF7F0FF20466021FCF7D1FB204610BDCA
:1079000020F00203012B03D0431F58425841704717
:107910001846704791F90430037191F905304371AD
:1079200091F90630837191F90730C371704738B50A
:1079300004460D460430043106F0DFF905F1140168
:1079400004F11400FFF7E6FF05F11C0104F11C002F
:1079500006F0D3F905F12C0104F12C00FFF7DAFF52
:1079600095F9383084F8383095F9393084F8393061
:1079700095F93A3084F83A3095F93B3084F83B3049
:1079800005F13C0104F13C00FFF7C4FF95F94830D4
:1079900084F8483095F9493084F8493095F94A30EF
:1079A00084F84A3095F94B3084F84B3005F14C019E
:1079B00004F14C00FFF7AEFF95F8543084F85430D2
:1079C00038BD0B6803604B68436013B15A680132DD
:1079D0005A607047024A02604A684260704700BFBE
:1079E00028080C00024A026000224260704700BF73
:1079F00028080C0030B5002387B0838083710D46C2
:107A000005AB00931349044604AB03AA284603F0D0
:107A1000A3FD032807D1039B2371049B6371059B7E
:107A2000A37107B030BD0C4904AB03AA284603F08C
:107A300093FD022804D1039B2371049B6371F0E73B
:107A4000064903AA284603F087FD012804BF039BCB
:107A50002371E6E7DC070C00DF070C00EF050C00E4
:107A600090F9042090F9053090F90610002AB8BF6B
:107A70000848C3EB03134FEA8303BDBF00FB02308A
:107A8000401840424FF46160A4BF00FB0230401830
:107A9000704700BFF0F1FFFF08B590F854304BB1CC
:107AA00090F93B3043B92C30FFF7DAFFB0FA80F0A1
:107AB000400908BD0120FCE70020FAE790F90730F3
:107AC00043B990F904308B6090F905304B6090F920
:107AD00006300B60704790F9073030B5B3B990F9B4
:107AE00004508C682C44D1E900328C6090F9054038
:107AF000002DB5BF121B12194A604A60B5BF90F93C
:107B0000062090F906209B1A9B180B6030BD0000E0
:107B100008B5054A02600022034642600830FFF7BC
:107B200061FF184608BD00BF38080C000023436001
:107B3000838183737047000030B5044687B00D46DB
:107B400011B10B784D2B05D0204607B0BDE8304071
:107B5000FFF7ECBF05AB0093114904AB03AA28461D
:107B600003F0FAFC032816D1039B2371049B637175
:107B7000059BA3712F21284607F090FC40B1411CC2
:107B800004F10800FFF736FF0123E37107B030BDB1
:107B9000A081A073F8E72046FFF7C8FFF6E700BF13
:107BA000F7070C00104B114910B5044640F8043B90
:107BB00006F067F804F11400FFF714FF0B4904F115
:107BC0001C0006F05EF804F12C00FFF70BFF04F137
:107BD0003400FFF79DFF04F14400FFF799FF0023F5
:107BE00084F85430204610BD48080C00A4100C0046
:107BF0002DE9F74F0446084607F07AFC00250646B3
:107C0000019004F134083F49019801AA07F0F8FCFB
:107C10000146002862D0012D05F1010353D0022D49
:107C200056D0002D46D1024692F80090B9F1400F8F
:107C30001546174602F10102F6D800222A7004F117
:107C40001C0006F07CF8012285F8009084F854208E
:107C50002A786AB397F800A00AF1FF323F2AB946A2
:107C6000BB4607F10107F5D9002304F12C0789F879
:107C7000003029463846FFF7BDFE89F800A0BAF16A
:107C8000000F15D05D461BF801ABBAF1400FF9D8D3
:107C900000222A704946201D06F051F885F800A000
:107CA00004F11400BAF1000F06D02946FFF7A2FE36
:107CB0000125A8E71D46A6E73946FFF72BFE237EE0
:107CC000013B2376F4E74046FFF736FF02259AE7AB
:107CD00004F14400FFF730FF032594E794F93B30AB
:107CE00043B194F94B202AB904F13400FFF71EFF89
:107CF00084F85420304603F017FC94F8540003B085
:107D0000BDE8F08F01080C0038B5134B04460D4652
:107D100040F8043B114905F0B4FF04F11400FFF7EB
:107D200061FE0E4904F11C0005F0ABFF04F12C00CC
:107D3000FFF758FE04F13400FFF7EAFE04F14400B7
:107D4000FFF7E6FE002384F8543029462046FFF76B
:107D50004FFF204638BD00BF48080C00A4100C009F
:107D600010B5044688B00846683001A907F0A8FAA3
:107D700001A807F0DAFB08AB1844002300F81D3C0B
:107D800001A9204605F07DFF204608B010BD000087
:107D900038B50446081D0D46FFF77EFE28B1094997
:107DA000204605F06EFF204638BD2868FFF7A8FD85
:107DB00028B105F10801204605F0AEFFF3E705F113
:107DC0002001F8E703080C002DE9F0478046A8B031
:107DD0000C4615462AB1474B1046196807F075FB4B
:107DE00038B921464046FFF7BBFF404628B0BDE802
:107DF000F08729463F2218A807F0B3FB002318A8F4
:107E00008DF89F3007F091FB2146054603A8FFF748
:107E1000BFFF201DFFF740FE48B3374907A807F012
:107E20005EFB18AE002705F1FF3ABA454CD933780E
:107E3000252B07F1010917D173787A2B36D107A8C2
:107E400007F073FB18AB05463818AAEB0702B11C04
:107E5000184407F087FA2A4607A9304607F082FA45
:107E600018A807F062FB054601364F46DBE720689D
:107E7000FFF746FDB8B104F11800FFF7F1FD3C2211
:107E800090FBF2F3002BB8BF5B42B3FBF2F102FBB5
:107E900011330093194A1A4B90FBF3F3102107A8F2
:107EA00003F062FBBDE704F13000E6E75A2BDBD1BB
:107EB000059D18AB7819AAEB0702B11C184407F00E
:107EC00051FA03992A46C8E700212E220CA80B91EB
:107ED00007F070FA04F1680318AA32210BA803F026
:107EE0007BFB0BA9404605F0CCFE03A805F07EFE07
:107EF0007BE700BF7CDE032003080C0005080C00B4
:107F0000F0F1FFFF38B5094D2B6863B96020FCF72D
:107F1000C2F8044630B1064B40F8043BFFF742FE7E
:107F20006423E3652C60286838BD00BF40E403206B
:107F300018080C0003F068BB01390B2915D8DFE8DD
:107F400001F01608160616061616061606161E2048
:107F5000704783070DD1642390FBF3F203FB1200FB
:107F600000280CBF1C201D207047002070471F20D8
:107F700070471C207047F8B50123CB6090F904309E
:107F8000013B0B610023C1E9003306460C4617464E
:107F90008B602046FFF7CEFF96F90630A2699A4221
:107FA00003D0E3680133E360F3E796F90550012D50
:107FB00013D0E3686069013DC5EBC5051D44E5606C
:107FC00096F9041000F26C70FFF7B6FF8542C4BF4B
:107FD000073DE5602046FFF7ADFF214606F10800AA
:107FE000FFF76CFD3846FFF776FD2046BDE8F84008
:107FF00003F00ABBF0B590F8583085B004462BB9B1
:10800000FFF780FF011D201DFFF791FC94F93F3021
:10801000002B65D0D4E9182304F19807394602A84B
:108020003E46CDE9022303F0DFFA0FCE04F1C80586
:108030000FC50FCE0FC533682B6004F1300102A8C5
:10804000FFF7C8FC02AA394604F13800FFF793FF96
:10805000C4E9240104F1180102A8FFF7BBFC02AA3D
:1080600004F1C80104F14800FFF785FFD4E9246555
:10807000864275EB0103C4E93001D4E9182323DA01
:10808000B24273EB050519DA002323602068FFF77D
:1080900037FC04F16801D4E91856019110BB04F1D2
:1080A0003000FFF7DDFC2D1A66EBE070CDE90250E1
:1080B000019902A803F098FA05B0F0BD82428B4105
:1080C000B4BF01230223E0E7824273EB010101DA2E
:1080D0000323DAE7B242AB41B4BF04230523D4E75C
:1080E0000623D2E704F11800DBE737B58D680446B4
:1080F0006846FFF766FC6A462946204604F0A6F962
:1081000001A8FEF78DF8204603B030BD37B5CD6825
:1081100004466846FFF755FC6A462946204604F0A7
:1081200071F901A8FEF77CF8204603B030BD37B5E1
:108130000D6904466846FFF744FC6A462946204616
:1081400004F009F901A8FEF76BF8204603B030BD32
:10815000704710B510210446FBF7A1FF204610BD63
:108160000368C9B29B68184730B5034DC0E90223C4
:10817000C0E9005130BD00BF58080C00406803F052
:108180005BBF10B50446006803F0B1FF204610BD88
:108190002DE9F7430446406801900D4616461F46F8
:1081A00003F09CFFA7B1E168606841F0500103F063
:1081B00076FF290A6068FFF7D3FF29466068FFF75A
:1081C000CFFF6068002103F085FF48B1002400E084
:1081D000012401A8FFF7D5FF204603B0BDE8F083D6
:1081E000202F217B6068B84628BF4FF0200801236C
:1081F000424641F0500103F03CFF06F017FB0368D4
:108200001B6998474045E1DB06EB080906F00EFBC9
:1082100003685B69984706F8010B4E45F6D1454463
:10822000A7EB0807BEE72DE9F74F04464068019029
:108230000E4690461D4603F051FF4FF00109B9F17B
:10824000000F2AD04DB3E168606841F0500103F09F
:1082500026FF310A6068FFF783FF60683146FFF749
:108260007FFFA5F11E0A4746A6EB080B606817F8CA
:10827000011B0368013D9B68984755450BEB0706BA
:10828000B84601D0002DF1D16068012103F022FF32
:108290000028D7D04FF00009D1E701A8FFF771FF00
:1082A000484603B0BDE8F08F2DE9F0438BB00E4691
:1082B00015468046406801901C4603F00FFFAE4211
:1082C00029D2264425448CB11E2C2746D8F80030EC
:1082D00028BF1E27F61BD3F8089002AA3B4631465A
:1082E0004046ED1BC84748B9002400E0012401A81E
:1082F000FFF747FF20460BB0BDE8F083D8F8003009
:1083000002AAD3F80C9029463B464046C8470028AD
:10831000EAD0E41BD7E7E9D9002CE7D0D8F8003041
:108320001E2C274628BF1E27D3F8089002AA3B46DA
:1083300031464046C8470028D6D0D8F8003002AAB7
:10834000D3F80C9029463B464046C8470028CBD07E
:108350003E443D44E41BDFE703680A7883F8B1201C
:10836000012183F8B010704710B4426803465410DE
:1083700001EB6200D20748BF0A591B685DF8044B45
:1083800048BFD3581847012A02D101600020704726
:10839000022A04BFD1E90023C0E90023F6E7012A3D
:1083A00002D1016000207047022A04BF0B680360FD
:1083B000F8E7406F02F0D4BCD0F8C83001461BB1DA
:1083C000D0F8CC30C030184770470000F8B5124DD7
:1083D0000846002A18BF15460E461F4607F0A5F8A6
:1083E000402816D8284607F0A0F8B0F5806F10D8BE
:1083F0004330FBF752FE044648B1314600F8017B9A
:1084000007F06DF8294604F1420007F068F82046AD
:10841000F8BD0024FBE700BFA4100C00F0B59FB02E
:108420000A4600230E46011D08A802F083F80898AA
:10843000002107F08FF9054608A805F0D7FB002DAD
:1084400060D008A9284607F073F90C9B2E492F48E5
:108450003246FEF7A5FA00221146284607F070F9C9
:10846000082206A9284607F089F90C9F4A2F39DD12
:10847000274B069A9A4235D1264B079A9A4231D118
:10848000A7F1080210460592FBF707FE0446C0B1AB
:1084900027440146059A284607F070F917F8093C69
:1084A000ABB9631C1846059307F03FF83F28059BBE
:1084B0000DD804F142020092174914483246FEF7E3
:1084C0006FFA284607F02CF920461FB0F0BD13497B
:1084D0000E483246FEF764FA43212046FBF7DFFDE3
:1084E0000024EEE7BDF81E3002939DF81D30019385
:1084F0009DF81C3000930A49069B04483246FEF75B
:108500004FFAEDE72C46DFE76C080C0044E403204B
:108510006376B6310108410080080C00A2080C0007
:10852000D0080C002DE9F8438046284B48F8043B5E
:108530000446404601F016FF022264230025C4E9E8
:108540001B230823E367C4E92055C4E92255C4E985
:108550002455C4E92655A5672020FBF79CFDE66F4E
:10856000A067013E760800EB860907464FF40070CD
:10857000FBF791FD00F50073C4E92503C4F88830CA
:108580004FF4FA614FF47A73C4E92D1347F2305374
:1085900047F82600C4F88400C4F88000C4F89000AE
:1085A000C4E92855C4E92A550949C4F88C90C4F88F
:1085B0009C90C4F8B050C4F8BC30C4F8C8504046D1
:1085C00001F016FF2046BDE8F88300BFEC0A0C005E
:1085D00015090C0038B5064D2B683BB9D020FBF7C8
:1085E0005AFD044608B1FFF79DFF2C60286838BD8E
:1085F00048E403204269436A9B1A9B105A1ED0E943
:1086000006315B1A9B1003EBC21302698068101AD3
:1086100003EBA000704738B50546FFF7CAFE05F129
:108620007800FFF7E7FF044650B9281D02F0D6F99D
:10863000D5F8A03004461BB1D5F8A43003B90134F5
:10864000686F02F095FB204638BD10B5026983685B
:10865000043A9342044602D00433A36010BDC068BC
:108660004FF40071FBF71BFD63691A1D62615B68C3
:10867000E36003F500722261EFE700002DE9F04F9F
:1086800085B00446FFF795FEDFF8A490DFF8A4A0BC
:10869000DFF8A4B0D4F88030D4F89020934205D10C
:1086A000606F05B0BDE8F04F02F062BB04F17800E6
:1086B00004F104081F68FFF7C8FF404602F032F9D2
:1086C0000023024641460646684601F033FF009803
:1086D00040F2022107F03EF80546684605F086FAAA
:1086E000C5B1082269462846CDE9009A07F058F836
:1086F00007F1420006F019FF394600F1430228460F
:1087000007F04EF8284607F00BF80848324659465D
:10871000FEF746F93146404602F046F9002FB9D03F
:1087200043213846FBF7BBFCB2E700BF44E403201B
:108730006376B6310108410023090C002DE9F041B0
:108740000446FFF736FE04F17800FFF753FFE36EAF
:10875000984202D92046FFF791FFDFF844800F4F7F
:10876000261D304602F03AF9236F984204DC606F10
:10877000BDE8F04102F0FCBA0121304602F0DEF81B
:1087800005460028EDD001460022304601F00EFFDC
:108790002A4641463846FBF7A1FCE2E744E40320C1
:1087A00040090C0008B5A0F500630B4305D0403824
:1087B00050EA01030BD1092A09D105490548FEF702
:1087C000EFF8FFF707FFBDE80840FFF757BF08BD08
:1087D00053090C0044E4032070B50368044683B1D8
:1087E000436A45691E1DAE4206D955F8040B4FF485
:1087F0000071FBF754FCF6E7616820688900FBF71D
:108800004EFC204670BD00001FB5D1E900230021B9
:10881000044602910AB9D90705D5CDE900230A4BD0
:1088200003930A4B029321466846FEF73EFF029BE4
:10883000A268A360039B02926846E268E360039229
:10884000FCF7D8F904B010BD69830B0087830B00D7
:1088500070B586B0044602F0B7FD48B9434B02A993
:10886000CDE9023004F1C000FFF7CEFF06B070BDC5
:1088700094F8B2501DB1012384F8B330F6E702F04A
:10888000AFFAD4F8A830C01AD4F8AC309842EDD37F
:10889000261D2946304602F051F80146C4F8A400CE
:1088A000002852D02046FFF7B9FD0546C4F8A000C5
:1088B000002835D002F094FA02AE00252C4BC4F803
:1088C000A800314604F1C00002930395FFF79CFF16
:1088D000D4E9283003F1420200922649264AA4F83E
:1088E000B050A84208BF0A4601332449244884F8FE
:1088F000B350FEF755F8FEF71BFED4F8A020214B2D
:108900000593CDE9006511461F4B0294049311F8BD
:10891000013B4232FEF758FF3046FCF76BF9A5E702
:10892000D4F8A42019491648FBF7D8FB012130469A
:1089300002F004F8D4F8A4102A46304601F036FEBE
:10894000D4F8A030002BB5D195E7D4F88030D4F816
:1089500090209A4207D01B68C4F8A03004F1780038
:10896000FFF773FEECE7C4F8A00084E791890B00E1
:10897000118D0B0082090C00740E0C00A3090C0071
:1089800044E4032059830B009F830B0086090C00ED
:1089900013B5044602F018FD90B102F021FAD4F8A4
:1089A000B430C4F8AC300D4BC4F8A800009369464D
:1089B000002304F1C0000193FFF726FF02B010BDB1
:1089C00094F8B2301BB1012384F8B330F6E72046A7
:1089D000FFF721FE0028F6D0F0E700BF51880B001A
:1089E00070B5054698B0002002F08CFC012805D037
:1089F0003E493F48FDF7C6FF18B070BD05F1740051
:108A000002F09EF93B4B04933B4B079304A93B4B6D
:108A1000069308A8FCF7ECFB08A90CA8FCF7E8FBF8
:108A20000CA910A8FCF7E4FB002610201696FBF713
:108A300032FB044660B18660014610A8FEF735FEA1
:108A4000129BA2681292A360E268139BE3601392E8
:108A50002B4B17932B4B16932B4B14940026102063
:108A6000CDE901360396FBF716FB0446D8B1169BF9
:108A7000866033B1022214A99847179BE360169BC6
:108A8000A360224B0393224A029401AB4FF404608B
:108A9000002102F017FC30B12046FCF7ABF81021A2
:108AA0002046FBF7FCFA14A8FCF7A4F810A8FCF782
:108AB000A1F80CA8FCF79EF808A8FCF79BF804A8FE
:108AC000FCF798F8FEF734FDFEF758FE281D01F07C
:108AD000B1FE2846FFF732FE0E4B149314A9002373
:108AE00005F1C0001593FFF78FFE85E7C2090C0062
:108AF00044E40320A5870B00EB4B0B00D74B0B0086
:108B0000B14B0B0019530B0002000C00074C0B007B
:108B1000894B0B0091890B002DE9F04706468946E9
:108B2000406A71697368471A09EBA7050135B3EB11
:108B3000450F144627D95D1B6D083268AD000CB196
:108B40004FEA89042C441444031DA142A3EB010203
:108B500013D9994202D0204606F012FC74612368B2
:108B6000F36003F500733361E3197362E359F36152
:108B700003F500733362BDE8F0879942EED0381DEB
:108B8000801A2044E8E703F102084B452CBF9844C3
:108B9000C844B8F1005F01D305F0D4FE4FEA880065
:108BA000FBF779FAA8EB05056D088246AD000CB11C
:108BB0004FEA8904726A716904322C449142544428
:108BC00003D0521A204606F0DBFB7168306889003A
:108BD000FBF765FAC6E900A8C0E70000F0B585B06C
:108BE00004469DF828509DF82C302B430F4616461E
:108BF000FFF7ECFB054600283CD03F4B3F4940487F
:108C0000002E18BF33463A46FDF7CAFE2046FFF74E
:108C1000D0FBD4F89820D4F89030043A934204F171
:108C2000780629D003B11D60D4F890300433251D97
:108C3000C4F89030284601F0D1FE03903046FFF78B
:108C4000D9FC029002F0C0FBDDE9023200902D4910
:108C50002B48FDF7A5FE284601F0C0FE00283BD0BA
:108C60002046FFF70BFD2046FFF768FD606F02F01E
:108C70007FF8012005B0F0BD3046FFF7BBFC6FF078
:108C80006043984202D1204805F05FFED4F89C3042
:108C9000A26F9A1AE36FA3EBA203012B04D8002260
:108CA00001213046FFF738FF4FF40070D4F89C7074
:108CB000FBF7F1F97860D4F8903003B11D60D4F877
:108CC0009C301A1DC4F89C205B68C4F8943003F5EE
:108CD0000072C4F89820AAE73046FFF78BFCE36ED9
:108CE0009842BDD802F070FB0028B9D0074904486B
:108CF000FDF756FEB7E700BFA4100C00E5090C0015
:108D000044E403203D0A0C000D0A0C00690A0C0023
:108D100073B590F8B0300446002B41D090F8B130D4
:108D2000D0F8A420002B3DD050495148FDF738FE23
:108D3000D4F8A430D3B1261D0021304601F0FEFD49
:108D4000D4F8A430984205460DD10121304601F0F7
:108D5000F5FD00222946304601F028FC45494448EB
:108D60002A46FDF71DFE0023C4F8A430D4F8A00065
:108D700010B14321FBF793F90023C4F8A030D4F8D5
:108D8000B830C4F8AC303C4B00936946002304F182
:108D9000C0000193FFF738FD02F022F8C4F8A800E4
:108DA00002B070BD35493248FDF7FAFDD4F8BC3049
:108DB000C4F8AC30D4F8A4304BB1D4F8A00010B152
:108DC0004321FBF76CF90023C4F8A030DBE7204611
:108DD000FFF7EFFAD4E92032934213D0D4F8A02061
:108DE00043F8042CD4F88030043BC4F88030606F22
:108DF00001F0BEFF22491E48FDF7D2FD2046FFF7D5
:108E00003DFCC0E704F178052846FFF7F3FB6FF05F
:108E10006043984202D11B4805F097FDD4F88C209E
:108E2000A36F9A4204D1012211462846FFF774FE2F
:108E30004FF40070D4F88C50FBF72DF945F8040C72
:108E4000D4F88C301A1FC4F88C2053F8043CC4F8B2
:108E5000843003F50072C4F8882003F5FE72C4F86C
:108E60008020D4F8A020C3F8FC21C0E77C0A0C00C5
:108E700044E403208F0A0C0051880B009F0A0C0069
:108E8000B10A0C000D0A0C00014B024A1A6070472F
:108E900044E40320D80A0C0010B5074B044640F800
:108EA000C03BFBF7A7FE04F17800FFF795FC201DFF
:108EB00001F000FC204610BDEC0A0C0010B5044681
:108EC000FFF7EAFF2046D021FBF7E9F8204610BD66
:108ED00001600271704700680368DB68184700682A
:108EE00003681B6A1847006803689B6A1847007983
:108EF0007047006803689B6B184737B505460C46FA
:108F000019460192FFF7F5FF2868019A03685B692B
:108F1000214603B0BDE83040184700680368DB6BAA
:108F2000184738B50446006803680D465B6B9847E0
:108F300029462046FFF7F1FF257138BD38B50446B4
:108F4000006803689B689847054618B12179204658
:108F5000FFF7E7FF284638BD006803681B6C184719
:108F6000006803685B6C184700680368DB6C18478F
:108F7000006803681B6D1847006803685B6D18473D
:108F8000006803689B6D18472DE9F84304460068A4
:108F90000A9F1E4603681B69DDE908989847054645
:108FA000C8B11EB12046FFF7E3FF3070B9F1000FE2
:108FB00004D02046FFF7D8FF89F80000B8F1000F71
:108FC00004D02046FFF7D8FF88F800001FB12046E4
:108FD000FFF7D6FF38702846BDE8F88301207047B8
:108FE0000379032BFCD0012070470020704781716A
:108FF000704741717047C172704701737047417388
:109000007047837B23EA0202114381737047C07962
:109010007047007A7047407A7047807A7047008ABC
:1090200000B270470079704701717047408A80B282
:109030007047808A80B27047C08A80B2704738B566
:1090400005460C462B682846DB68984728B9002C53
:10905000F8D0204602F0E0FAF4E738BDF8B505464E
:109060000F46144601F0BCFE064601F0B9FE801B17
:10907000B8420AD22B682846DB68984730B9002CE2
:10908000F3D0204602F0C8FAEFE70020F8BD70B533
:1090900004460E4601F0A4FE054601F0A1FE401B69
:1090A000B04204D22379032BF7D0012070BD0020F9
:1090B000FCE770B5C3690446B3B101F091FE6426C4
:1090C0000546236820461B6B984768B101F088FE6F
:1090D000E369401B984209D80A21012004F0AFFC43
:1090E000704302F099FAECE7012070BD0020FCE724
:1090F000064A0260FF210022027141714282C17260
:10910000828281818273C282C2617047000B0C002F
:109110007047704770477047704741717047817161
:10912000704701717047000030B5034D0560017153
:109130004271837130BD00BF800B0C00704710B5C9
:1091400010210446FAF7ABFF204610BD0EB403B55C
:1091500003AB002153F8042B019304F034FC02B05C
:109160005DF804EB03B0704773B5044608462279F6
:10917000A36832B1A3B90B4902B0BDE8704004F056
:1091800019BB094A267B094D0949647B012E18BF8A
:109190002946CDE900140749FFF7D8FF02B070BD9A
:1091A000054AEFE7BD0B0C00A4100C00B90B0C0036
:1091B000B50B0C00D30B0C00AC0B0C0010B5044627
:1091C000FFF7B2FF054B2360054BA3600123237318
:1091D00000232361A382204610BD00BF0C0C0C00AD
:1091E000F80B0C0013B50B4C2178BFF35B8F11F01B
:1091F00001010BD120460191FAF760FF019928B1D6
:10920000054804F033FC2046FAF75DFF024802B03F
:1092100010BD00BF4CE4032050E4032007B50191CA
:10922000FFF7E0FF019903B05DF804EB04F0D6BC52
:1092300008B5FFF7D7FFBDE8084004F0D5BC08B576
:10924000FFF7D0FFBDE8084004F0CFBC10B50379AC
:10925000042B20D0032B20D0022B20D0114A1249FE
:10926000012B18BF0A4641798379013918BF0121C2
:1092700033B1012B04D0022B02D0032B18BF0023E3
:1092800000240473026101754375FFF7ABFFBDE86D
:10929000104004F0F5BB054AE5E7054AE3E7054A57
:1092A000E1E700BF80841E0040420F000024F4006C
:1092B00000127A0000093D0008B5FFF793FFBDE8F2
:1092C000084004F0F1BB10B50446FFF78BFF04F132
:1092D0000801BDE8104004F013BC08B5FFF782FF99
:1092E000BDE8084004F0F2BB08B5FFF77BFF08BDFE
:1092F000002302481A461946FFF760BF58E40320CE
:10930000012A05D1007A0B781B1A58425841704740
:10931000002070472DE9F047254C012386B02370CB
:10932000637000230F46A17000930322FF232146A0
:10933000064600F0B7FB20B10025284606B0BDE880
:10934000F0877A238DF8173001F04AFD06F1040901
:10935000804608F57A6501F043FD291A0029EBDD06
:10936000002289B24846FFF7BEFD0028F3D0002353
:10937000CDE90233CDE900330DF117022146304625
:1093800000F09AFB05460028E3D09DF81730012B2A
:10939000DFD994F800A0BAF1020FDAD14846FFF7FE
:1093A000E7FD534602463946304600F0F3FAC4E77B
:1093B00070E40320012A2DE9F34107460E461446C6
:1093C0003BD94D79022D30D100F10408C9790191C2
:1093D0004046FFF7CDFD083C2B4602460199384632
:1093E00000F0D8FAE5B206F10803002422469542BF
:1093F00004F10104E4B204D913F8012B397A914243
:10940000F4D104F108010E44A54216D916F8011B47
:1094100001914046FFF7ACFD013402460199022359
:109420003846E4B200F0B6FAEEE7032D05D18979AB
:1094300002B0BDE8F04100F096BA02B0BDE8F0819C
:1094400010B5044600F0E6FA014B2360204610BD3B
:10945000400C0C002DE9F047792A9DF82090064633
:109460000F4614461D4625D8FF2B14D1DFF848803F
:10947000404600232246394600F8013B05F072FFC2
:10948000621CCDF820902B4641463046D2B2BDE852
:10949000F04700F007BB194600F021FA0028E5D19B
:1094A000336829469B68304698470028DED1022061
:1094B000BDE8F0870120FBE770E403202DE9F04FC1
:1094C00089B098467A238DF81A300DF11F03039363
:1094D0000DF11E0302935D4E0DF11D03019307ABC9
:1094E0000093894617460DF11B030DF11A02314610
:1094F000DDE912BA054600F0DFFA044620B900247F
:10950000204609B0BDE8F08F9DF81A3073B3327869
:1095100062BBB8F1000F03D09DF81B2088F8002033
:10952000BBF1000F03D09DF81C208BF80020BAF18E
:10953000000F03D09DF81D208AF80020149A1AB15C
:1095400014999DF81E200A70159A1AB115999DF864
:109550001F200A703A783E49013BDBB29A4288BF2D
:109560003B703A78484605F0FDFEC9E79DF81C209F
:10957000FF2AC4D1012BC2D93278012ABFD12A7A5D
:109580009DF81B40A242BAD0DF1E3249FFB2002331
:109590005FFA83F8474506D911F8010B824203F1BF
:1095A0000103F5D1ABE705F104094846FFF7E0FCFC
:1095B000022302462146284600F0ECF995F81731BF
:1095C00093B1224CA31BDBB29F420CD9E1780591E9
:1095D0004846FFF7CDFC059902460223284600F0D5
:1095E000D9F90134EEE7B8462B687278DB681A497E
:1095F00028469847044660B10223002433709DF842
:109600001A209DF81B3011490094284600F04AFAB0
:1096100076E795F8163143457FF671AF95F8173127
:10962000002B3FF46CAF9DF81A202B7A07493E447B
:109630000132F3709DF81B300190D2B2009328469E
:10964000FF238DF81A2000F0F7F959E770E40320A2
:1096500071E4032073E4032072E40320F0B585B0C5
:10966000054604300E460392FFF782FC039A074634
:109670003146284600F04AF90228044601D0052860
:109680001BD13178284600F06EF972782B7A9A4215
:1096900013D00B4C0323237033786370717802234B
:1096A0003A46284600F076F9002300932146737865
:1096B0000222284600F0F6F90446204605B0F0BD27
:1096C00070E4032010B50446FFF702FCC823002114
:1096D000E3810323A160217323744FF4807204F1AA
:1096E000110005F067FE204610BD1FB5044601922B
:1096F000FFF732FC204600228021FFF731FC2122B7
:10970000019B8DF80F200DF10F0101222046FFF77C
:10971000F4FB2046FFF7E3FB04B010BD2DE9F04F4A
:10972000057B0135EDB287B00446894692469846DE
:1097300005730027227C3B469A4207F10107FFB2DE
:109740006BD329462046FFF707FC012F0DBFC0222F
:109750008022402100212046FFF702FC434652466A
:1097600049462046FFF7C9FB2046FFF7B8FBB8F192
:10977000FF0F54D0012F82BFA3680133A36001F013
:109780002FFB4FF4807183460020E68904F057F9DF
:10979000704348BFFF3006EB20261BFA86F601F027
:1097A0001FFB301A0028C5DD81B200222046FFF7DA
:1097B0009AFB0028F3D00DF1170302930DF1160365
:1097C000019300220DF115030093114605AB2046CD
:1097D000FFF7DAFB0028E2D09DF814209DF917303E
:1097E00042450ED194F804C09DF815108C4508D15F
:1097F000002B08DA9DF81630AB42D0D107B0BDE897
:10980000F08F002BCBDBA1189DF81630497C9942D4
:10981000C5D12046FFF769FFC1E70020EEE7012030
:10982000ECE72DE9F04389B0CDE90421DDE910989A
:10983000129F04461E46FFF74EFBDDE9042120B9C6
:109840000025284609B0BDE8F0830DF11F030293FF
:109850000DF11E0301930DF11D030093204607AB8C
:10986000FFF792FB05460028EAD09DF91F30002B38
:10987000E6DB22799DF81D309A4206D19DF81C2026
:109880009DF81E102046FFF730FF9DF81F209DF821
:109890001C109DF81E3012F0400F0C4402D0607C6A
:1098A0009842CDD006B13170B9F1000F03D09DF8C8
:1098B0001D1089F80010B8F1000F01D088F80030B1
:1098C00007B13A706374BCE7704710B504460430C2
:1098D000FFF734FB10B11E2384F8163110BD10B50C
:1098E0000246002392F818418C4208D192F81A419E
:1098F0002CB103EB430303F58C73184410BD013303
:10990000322B02F10302EDD10020F7E737B50B78D7
:10991000FF2B05460C4606D019460192FFF7DFFFE4
:1099200058B14378019A2146281DFFF7F7FE002819
:1099300014BF0020052003B030BD0220FBE710B5A6
:1099400001EB41030446C1F1310203F58C7003F2CF
:109950001B1102EB42022144204405F003FD0023C9
:1099600084F8AD3110BD38B50A46002300F58C747B
:1099700003EB4305D9B2655D954203D1FFF7DFFFE5
:10998000012038BD0133322BF2D10020F9E700214C
:10999000FFF7D5BFF8B516461F4604460D4600230F
:1099A00000F58C7203EB4300115CA94205D1204401
:1099B00080F8196180F81A71F8BD0133322BF1D1AA
:1099C000002304F58D7203EB4300115C19B92044A8
:1099D00080F81851ECE70133322BF4D12046FFF721
:1099E000D6FF204604F1960390F81A212AB980F890
:1099F000185180F8196180F81A7103309842F3D138
:109A0000DAE700F19603002280F81A210330984229
:109A1000FAD1704710B504460430FFF753FE054BEA
:109A200023604FF48F732046A4F81631FFF7E9FF47
:109A3000204610BD580C0C002DE9F3470446406841
:109A400001911F4603689DF828A09B699DF82C9002
:109A50001646984706F1050880451CD8104D019917
:109A600085F801A00023AB7094F81531EB705A1CF7
:109A700084F81521681D32462F7085F8049005F092
:109A800071FC23685B685FFA88F22946204602B0C1
:109A9000BDE8F0471847012002B0BDE8F08700BFDD
:109AA000EAE4032013B59DF810400194047A009471
:109AB000FFF7C2FF02B010BD2DE9F04F87B01F467F
:109AC0007F238DF813300DF117030293DFF8D09048
:109AD0000DF1160301930DF115030093044688461A
