:02000002B0004C
:1040000000400B00C41B0C00000006000D00050260
:084010000401A30F00000000F1
:0440180088FD0B0014
:1040200009480A49884208B505D0094A824202D0A7
:10403000121A0BF0A1FB0748074A0021121A0BF0D5
:10404000C3FB014808BD00BF24DD032098190C0004
:1040500024DF032028DF0320F4E7032070B5074E98
:10406000074C0AF0E3FCA41BA4080025AC4200D1D5
:1040700070BD56F8043B98470135F7E724190C004A
:1040800068190C0001F0DCB808B501F0D9F9BDE8F9
:1040900008400AF083BC07F041BC07F03FBC07F0C2
:1040A00045BC000008B5034A03490C2007F0C2FADA
:1040B000FEE700BFD5B10B009CFD0B000078B0FA05
:1040C00080F040097047012303707047704710B5B6
:1040D00004210446FFF7E3FF204610BD0EB400B5EF
:1040E0008CB00DAA4FF0200C52F8041B0392CDE9BE
:1040F00000120023016804AA1E20CDE904C307F0C2
:10410000A9FA0CB05DF804EB03B0704710B5064C8B
:10411000236833B90420FFF7BEFF08B1034B0360E7
:104120002060206810BD00BF2CDF0320D0020C00EF
:1041300030B5314887B00D4605F0E1FD044630B991
:104140002E492F48FFF7CAFF204607B030BD9FED2C
:104150002D0A2D4806F0CCF82B480022172106F036
:1041600041FA8DB101F0D6FC002101F098FE02A8C1
:1041700007F034FB029A25492148FFF7AFFF02A858
:1041800009F036FF2C46DFE701F0C4FC01F005FE24
:10419000F0B101F0BFFC01F000FE0A2818D801F0D0
:1041A000B9FC01F0FAFD0146194805F0D4F81848A9
:1041B00005F0B7F8019002A807F010FBDDE9012334
:1041C00014490F48FFF78AFF02A809F011FFBBE767
:1041D00001F0A0FC0B2101F062FE0B210C4805F060
:1041E000BAF80B4805F09DF8019002A807F0F6FA1E
:1041F000DDE901230849E4E7E4E00320B1FD0B0019
:1042000058E6032000C06444B4DF0320BDFD0B006A
:10421000E8E00320F7FD0B002EFE0B0010B5064C66
:10422000C0B00DF1030201A9204605F0DDFF002812
:10423000F7D140B010BD00BFB4DF0320014805F046
:10424000C0BF00BFB4DF032037B52A4C01F0B2FC79
:10425000B4F8031049BA89B201F0F9FE01F0AAFCE2
:10426000B4F8051049BA89B201F0F7FE01F0A2FCDA
:10427000E17901F05CFE01F09DFC217A01F039FE4C
:1042800001F098FC0546607A0AF0B2FE41EC100B92
:10429000284601F0C9FC01F08DFCA17A01F02FFE47
:1042A00001F088FCE17A01F030FE01F083FC217B13
:1042B00001F031FE01F07EFC04460F4805F0C9F81C
:1042C00081B2204601F0BDFE01F074FC01F09CFDBE
:1042D000019001F06FFC01F07EFD019A0749034651
:1042E0000748FFF7FBFE074B042201201A7003B0BA
:1042F00030BD00BF38DF0320B4DF032075FE0B00A4
:1043000058E6032028DF03202DE9F0437D4E7E4C44
:10431000336889B0013333600AF011FA0016A070D7
:104320000AF00DFA0014E0700AF009FA0012207188
:104330000AF005FA607101F0EDFB01F039FE000AA8
:10434000A07101F0E7FB01F033FEE07101F032FCF7
:1043500001F033FF00236372207201F02BFC01F0A7
:104360003AFD0228054600F08E80032800F0A48064
:10437000012840F0A88001F099FC014604A801F052
:10438000B9FC6249049818220BF0E1FA074604A828
:1043900009F02EFE27B95E495E48FFF79FFE657261
:1043A00001F008FC617A01F0BCFD637A4BB101F0C9
:1043B00001FC05460AF0C3F90246C317284601F07E
:1043C000D1FE01F0F7FB01F01FFD534D627A534B14
:1043D000A072002A08BF1D4601F0ECFB01F0FBFCB7
:1043E000A47A07460AF0ABF90246C31704A80AF0FC
:1043F000A1F8DDF8108001F08DFB01F0D9FD2A460F
:10440000474900943B46CDE901804248FFF766FEEC
:1044100004A809F0EDFD434B1D88012128460AF050
:104420009EFB01F0C7FB01F0D6FC0422034600927C
:1044300035493D480B2205F027FA3C4B04461868E5
:10444000002C42D1013018600AF0E2FD804630684D
:1044500089460AF0DDFD02460B46404649460AF011
:104460006BFF334B00220AF03DFE02460B46294803
:104470003049FFF733FE284621460AF070FB012041
:1044800009B0BDE8F08301F011FC014604A801F079
:1044900047FC1E49049818220BF059FA054604A857
:1044A00009F0A6FD002D7FF47BAF23491948FFF7E3
:1044B00015FE0123637273E701F0F8FB014604A8BF
:1044C00001F044FCE5E71D49F0E70AF0A1FD804654
:1044D000306889460AF09CFD02460B464046494634
:1044E0000AF02AFF124B00220AF0FCFD02460B469E
:1044F00008481349FFF7F2FD284600210AF02FFB78
:104500000020BDE734DF032038DF0320ABFE0B00C3
:10451000C4FE0B0058E603209CFE0B0079150C002E
:104520003FFF0B00E4060C00E4E0032030DF032033
:104530000000594089FF0B00ECFE0B0014FF0B003C
:10454000BDFF0B0070B586B001F0E4FA01F02BFD61
:10455000484C000A207001F0DDFA01F024FD607083
:104560000AF0EDF80016A0700AF0E9F80014E07007
:104570000AF0E5F8001220710AF0E1F8607101F02C
:10458000C9FA01F015FD000AA07101F0C3FA01F0AB
:104590000FFDE07101F00EFB01F01DFC207201F037
:1045A00009FB01F018FC02284FD0032852D0012843
:1045B00004D101F07BFB01F03BFC6072657A01F0F5
:1045C000F9FA01F00DFC04460AF0B9F80246C317E7
:1045D00002A809F0AFFF029E01F09CFA01F0E8FC8E
:1045E0002A4623462449CDE900602448FFF776FD9A
:1045F00002A809F0FDFC224B1D88012128460AF083
:10460000AEFA01F0D7FA01F0EBFB0222034600926A
:1046100018491C480A2205F037F90446F8B91A4926
:104620001648FFF75BFD01F0C5FA064601F0C2FA35
:1046300001F0D1FB0146304601F055FC28462146E9
:104640000AF08DFA012006B070BD01F02FFB01F0D9
:10465000F9FBB2E701F02AFB01F0FEFBADE70B49E5
:104660000648FFF73BFD284600210AF078FA0020B3
:10467000E9E700BF38DF0320ECFF0B0058E603201A
:10468000E4060C00E4E0032037000C0056000C00A8
:1046900010B501F08FFA134B997801F042FC01F04C
:1046A00089FA04460AF04BF8C3170246204601F087
:1046B00059FD01F07FFA04460B4804F0CAFE81B2AE
:1046C000204601F0BEFC01F075FA01F084FB0749B9
:1046D00002460748FFF702FD064B06221A7001202A
:1046E00010BD00BF38DF0320B4DF032070000C00D2
:1046F00058E6032028DF032070B588B001F00AFADD
:1047000001F051FC324C000A207001F003FA01F074
:104710004AFC60700AF013F80016A0700AF00FF857
:104720000014E0700AF00BF8001220710AF007F88C
:10473000607101F0EFF901F03BFC000AA07101F09B
:10474000E9F901F035FC234BE0711E8800250121B9
:10475000257230460AF003FA01F02CFA01F03BFB17
:1047600006220346009221461B48092205F08CF8D8
:10477000044610BB01F01EFA01F02DFB054609F0BE
:10478000DEFF0246C31704A809F0D4FE049B03937E
:1047900001F0C0F901F00CFC039B104900902A467F
:1047A0000F48FFF79BFC04A809F022FC3046214685
:1047B0000AF0D5F9012008B070BD0A490848FFF792
:1047C0008DFC304629460AF0CAF92846F3E700BFB7
:1047D00038DF0320E4060C00E4E0032095000C0021
:1047E00058E6032056000C0010B5134C134B2278EA
:1047F0001349144803EB0212FFF770FC2378042BD3
:104800000CD02378022B04D1FFF780FCFFF79AFE2F
:1048100050B92378062B09D0002006E0FFF776FC7C
:10482000FFF772FD0028ECD0012010BDFFF76EFCF1
:10483000BDE81040FFF760BF28DF032024DD032020
:10484000D8000C0058E6032030B585B00C4601F0C6
:104850002DFA0146684601F04DFA009918222046CB
:104860000BF075F80546684609F0C2FBADB901F0DA
:104870001DFA01F0D8FA5D4902465D48FFF72EFCAB
:1048800001F014FA044609F05AFF0246C317204605
:1048900001F06DFC012005B030BD01F007FA0146C2
:1048A000684601F03DFA0099182220460BF04FF8B7
:1048B0000546684609F09CFBA5B901F0F7F901F03F
:1048C000BCFA4A4902464A48FFF708FC01F0EEF9F3
:1048D000044609F034FF0246C317204601F047FCA6
:1048E0000220D8E701F0E2F90146684601F02EFA0D
:1048F0000099182220460BF02AF80546684609F070
:1049000077FBA5B901F0D2F901F0A1FA37490246C7
:104910003748FFF7E3FB01F0C9F9044609F00FFF40
:104920000246C317204601F022FC0320B3E701F042
:10493000BDF901F0B4FB50EA010313D101F0B6F95F
:1049400001F071FA2B4902462948FFF7C7FB01F035
:10495000ADF9012101F0F1FA01F0A8F9214601F0C9
:10496000D9F98DE701F0A2F901F09EFB50EA0103AD
:104970001DD101F09BF901F060FA1E4902461C4866
:10498000FFF7ACFB01F092F9022101F0E2FA01F02D
:104990008DF9214601F0D4F901F088F9044609F0B7
:1049A000CEFE0246C317204601F0E6FB98E701F071
:1049B0007DF901F04CFA0F4902460D48FFF78EFBD6
:1049C00001F074F9032101F0D0FA01F06FF92146EA
:1049D00001F0CCF901F06AF9044609F0B0FE024694
:1049E000C317204601F0CDFB9FE700BFFD000C0080
:1049F00058E603202C010C0038B51546044601F09A
:104A000055F901F010FAA84207D101F04FF901461B
:104A1000204601F06FF9204638BD01F047F901F05A
:104A20000CFAA84206D101F041F90146204601F0F6
:104A300077F9F0E701F03AF901F009FAA84206D156
:104A400001F034F90146204601F080F9E3E702491C
:104A5000204609F018FBDEE75E010C00F0B53C4B88
:104A600002221A7091B03B4B09AC064603F11802C2
:104A7000274618685968254603C5083393422C46D3
:104A8000F7D11B782B7001F095F8044601F092F8ED
:104A900001F0A1F90146204601F025FA01F08AF85B
:104AA00001F099F90A281DD901F084F83946044625
:104AB0003046FFF7C9FE0146204601F00EFA01F02C
:104AC00079F801F08DF9039001F074F801F083F9A1
:104AD000039B0090204921483A46FFF7FFFA012046
:104AE00011B0F0BD01F066F801F075F902281C4C18
:104AF00021D0032825D0012804D101F0D7F8E17E88
:104B000001F021FAFFF702FB0122014605A8FFF799
:104B100073FF059A039201F04DF801F05CF9E17E14
:104B200000910346039A0F490C48FFF7D7FA05A8EE
:104B300009F05EFAD3E701F0B9F8E17E01F00FFA6F
:104B4000E0E701F0B3F8E17E01F015FADAE700BF23
:104B500028DF03203ADF032063010C0058E603201E
:104B600038DF0320A6010C0070B588B079238DF8DA
:104B70001A300DF11F0303930DF11E03444E0293EF
:104B80000DF11D03019307AB009342480DF11B0388
:104B90000DF11A02314604F0ABFE10B9002008B046
:104BA00070BD9DF81A300024F454358800F0B2FF2F
:104BB00001F0F9F96DBAADB2A8420ED0328852BAFE
:104BC00092B2059200F0A6FF01F0EDF9059A324984
:104BD00003463248FFF782FAE0E700F0EBFF9DF86A
:104BE0001B102F4C01F079F99DF81E3003F00F03D4
:104BF000237000F0DFFF01F0EEF80590294804F083
:104C000028FC9DF81F1002919DF81A10019103468F
:104C100025492078059A01EB001100911F4823498E
:104C2000FFF75CFA2378032B2AD02378012B05D1D8
:104C3000FFF76CFAFFF712FF0028AFD02378052B9F
:104C400005D1FFF763FAFFF723FD0028A6D0184B24
:104C50001A7882B100221A7000F05CFF154B198897
:104C600001F0E3F900F056FF01F0A2F91249024603
:104C70000A48FFF733FAFFF749FAFFF7B5FD8EE769
:104C8000FFF744FAFFF7E0FA0028CED186E700BF2D
:104C900038DF0320E4E00320FE010C0058E6032087
:104CA00028DF0320B4DF032024DD032050020C00A2
:104CB00009E4032040DE032091020C0010B5084AED
:104CC000084C094912780978084B204605F0D2FAB9
:104CD00021460748BDE81040002204F0CBBD00BFCC
:104CE000EA060C00B4DF0320E8060C005CE40320B5
:104CF000E4E00320014B1A60704700BF9CDD0320F5
:104D0000014B01221A707047DCE3032030B585B0F7
:104D10000446089860B1406850B1856845B1CDE956
:104D20000241CDE90023C46801AB6A4602A9A0474D
:104D300005B030BD30B585B0006813680193D1E986
:104D400000458368CDE902450BB90AF00BF8C3684A
:104D500001AA02A9984705B030BD012A02D101601D
:104D600000207047022A04BF0B680360F8E703685D
:104D70001268D1E90001184708B5002006F046FD89
:104D800028B106F023FD80F00100C0B208BD01206B
:104D9000FCE710B58368044613B103220146984727
:104DA000204610BD10B5044638B1FFF7F2FF20468B
:104DB0001021BDE81040FFF772B910BD38B500F002
:104DC000A9FE01F0F5F8044609F09CFCF0B1104B87
:104DD0001B78DBB909F0B3FC3C256543B0FBF5F467
:104DE00004FB15002C1A092C0ED9AC4228BF2C4606
:104DF00000F090FE01F0DCF8064902462346064822
:104E0000FFF76CF9204638BD0A24F1E70A24F9E7D8
:104E1000DBE30320D8020C0058E6032070B51C4EDB
:104E20001C4C32781C4D022AC4B028D109F06AFC0F
:104E300032782B7858B904EB02120092174A04EB2F
:104E400003134FF4807104A806F090FD0FE004EB0B
:104E50000313039304EB0214FFF7B0FF039B104A04
:104E6000CDE900404FF4807104A806F07FFD33784F
:104E70000C482B7004A9FFF731F944B070BD2B78B2
:104E800004EB0212009204EB0313074AD9E700BFB8
:104E9000DAE30320A0DD0320D9E303200C030C0098
:104EA0002C030C0058E6032049030C002DE9F04FB9
:104EB0002DED028B0446D3B000286CD0FFF726F905
:104EC000224601460EA8FFF797FD0E9B0D9300F0BA
:104ED00071FE01F07CF8044600F06CFE01F07CF8F5
:104EE000054600F067FE00F099FF064600F062FEFE
:104EF00000F07AFEB0EE408AF0EE608A00F05AFED2
:104F000000F078FF4E4A52F820B000F053FE00F057
:104F10006CFF074600F04EFE00F071FF804600F087
:104F200049FE01F04FF8814600F044FE00F06CFFAE
:104F3000824609F004FC0D9B424A00944FF48071B4
:104F4000CDE90AA0CDE90889CDE906B78DED048B3E
:104F5000CDE9015612A806F009FD0EA809F048F89F
:104F600003F052FD384B394A1B7812780021134365
:104F700002688DF804108DF80030354914683C2320
:104F800012AAA047334812A9FFF7A8F853B0BDEC06
:104F9000028BBDE8F08F0EA806F020FC0E9B0D934F
:104FA00000F0B8FD00F012FF054600F003FE00F02F
:104FB0001BFEB0EE408AF0EE608A00F0FBFD00F0D0
:104FC00019FF1F4A52F820A000F0F4FD00F00DFF79
:104FD000064600F09FFD00F0E5FE074600F09AFD52
:104FE00000F0EBFF804600F095FD00F0E0FE81460A
:104FF00009F0A5FB0D9B134A00944FF48071CDE995
:105000000A90CDE90145CDE90878CDE906A68DEDF8
:10501000048B12A806F0AAFC0EA808F0E9FF03F022
:10502000F3FC094B094A1B7812780B4913430268B9
:105030008DF800308DF8044014683C2312AAA0E7D4
:1050400044DE032057030C0098E2032099E203207A
:10505000EE030C0058E6032003040C0038B50023CF
:1050600083608B6804460D462BB102229847EB689B
:10507000E360AB68A360204638BD00002DE9F04333
:1050800095B005461C9904A890461F460CAEFFF744
:10509000E5FF04A908A8FFF7E1FF08A93046FFF7DC
:1050A000DDFF4FF000091020CDF84890FEF7F3FF28
:1050B0000446A0B196E8030001AB83E8030094E83E
:1050C000030086E8030093E803000E9BE268A360F8
:1050D00084E803000F9BCDF838900F92E360244BD7
:1050E0001393244B1293002200234FF00009C5E9CB
:1050F0000023214BC5F8089010201094CDE9013908
:10510000CDF80C90FEF7C7FF0446D8B1129BC0F84B
:10511000089033B1022210A99847139BE360129BB9
:10512000A360164B0393164A029401AB40463946DE
:1051300006F0CAFAB0B12046FFF72BFE1021204638
:10514000FEF7ADFF10A8FFF724FE3046FFF721FE63
:1051500008A8FFF71EFE04A8FFF71BFE284615B09F
:10516000BDE8F083029BAB60C5E90087EAE700BFBA
:10517000354D0B0085510B0002000C00A54D0B00B6
:105180000D4D0B00012A37B5044604D10B680360AE
:10519000002003B030BD022A0CD0032AF8D10468E5
:1051A000002CF5D02046FFF7F4FD10212046FEF735
:1051B00076FFEDE7096801911020FEF76CFF0546C8
:1051C00010B10199FFF74AFF2560E1E7164B10B5D2
:1051D00001241C70154B08221A7009F059FC002399
:1051E0001A46194609F064FC09F052FC00231A46DD
:1051F0000D2109F055FC0E4B1A1D1A600D4A5A601C
:105200000022C3E902221A611C7509F019FD692206
:105210000146094801F0AAFD0848062340F8043B6E
:10522000BDE8104002F0A8BE98E2032099E20320F6
:10523000CCE2032010000300ACE20320E8E20320EC
:10524000F0B500209DB005F0DDFF42F21075044678
:10525000002005F0D7FF001B61F10001A84271F1A9
:10526000000307D209F052FB09F045FB10B906F024
:105270009DFAEDE709F04AFB09F03DFB00F0E4FF81
:1052800001F00EF800F096FC03685A4E1B685A4F66
:10529000984700F03FFC03681B68984700F006FD44
:1052A00003681B68984701F0E7F80823012130469E
:1052B000738102F057FA7C21304601F055FE4F4BC6
:1052C00006934F4B099306AD4E4B08934FF4802243
:1052D000002302A80095FFF7D1FE2846FFF759FDED
:1052E00003F092FB03F096FDFEF710FF0121FEF79D
:1052F0001FFF03F021F844490446284602F0EEFE61
:1053000007A904F1080008F0FAFE0C9BE3610DA95F
:1053100004F1200008F0F3FE129B6363149BE36327
:10532000169B6364189BE3641A9B63659DF86C305D
:1053300084F85830284602F08DFC09F000FAC317B3
:10534000C7E91803384603F06FF809F0DBF92F4C72
:10535000002843D039462E4A284602F04FFF012349
:105360001A4610213046069F01F07FFE29492A4B3C
:105370003A46002818BF0B4628482949FEF7AEFEDA
:10538000284608F035FE274B1E88304609F000FC01
:10539000054650BB24492148FEF7A0FE234B0121BE
:1053A0001970234B1F88384609F0D9FB4FF4FA6077
:1053B00006F034FB2946384609F0D1FB042323705C
:1053C00000224FF0FF331B490092304607F09CF853
:1053D00023780BB9022323701DB0F0BD16490F4886
:1053E000FEF77CFE05232370CDE714490B48FEF73A
:1053F00075FEE5E7ACE20320E8E20320F54C0B0084
:105400006F4D0B005B4D0B0025040C00DAE303200D
:105410004C040C001B040C001E040C0058E6032076
:1054200057040C00E6060C00C6040C00DBE3032066
:10543000E4060C00014D0B0088040C00E5040C0090
:105440002DE9F0417D4D2B78013B90B0062B17D80C
:10545000DFE813F05002070033000C01BF013302F4
:10546000A601774B1B78022B01D0FFF7D7FC754BB9
:105470001A781AB100221A70042300E003232B705B
:10548000714802F01DF903F0BFFA03F0AFF900F024
:1054900091FB00F09FFB00F03DFB00F063FB00F090
:1054A00005FC00F01EFC694B1B68002BC0F2568205
:1054B00010B0BDE8F04108F04EBF614B1B78032BE4
:1054C00001D0FFF7ABFC00215F48614C01F04CFDBF
:1054D000FFF774FC074609F032F9C219D31708A880
:1054E00009F028F8089B029308F098FF029B59499D
:1054F00000903A465848FEF7F1FD08A808F078FDFC
:105500004FF4FA6006F08AFA237D002B50D0022374
:105510002372524BB3F800802368DB68F3B19A889A
:10552000012A06D09B68F9E79B68BBB19A88012ADB
:10553000FAD19A894245F7D100229A73237D002B34
:1055400036D023684FF47A78DB6808FB07F8DBB1C4
:105550009A88042A00F0FD819B68F8E740491020F2
:1055600009F0F6FB0646002800F0F6811022002123
:105570000AF02AF93B4B33600123B3802369B360FF
:10558000A6F80C802661D9E73549102009F0E0FB28
:105590000646002800F0E081102200210AF014F9EC
:1055A000304B33600423B38023692661C6E9023897
:1055B000274905A808F0D2FE4FF0FF31224801F03C
:1055C000D3FC002005F01EFE42F2107604460020B7
:1055D00005F018FE001B61F10001B04271F10003FB
:1055E00007D209F093F909F086F910B906F0DEF850
:1055F000EDE709F08BF909F07EF902232B70114BCE
:1056000001221A7009F09BF8C219D31708A808F0F4
:1056100091FF089A029208F001FF029A124903468C
:105620000D48FEF75BFD08A808F0E2FC059800288D
:105630003FF426AF06F07AF922E700BFDAE3032051
:10564000D9E30320D8E30320ACE203209CDD032050
:10565000CCE203200F050C0058E60320E6060C0000
:1056600000170C00100003004F050C00BD4B1B7809
:10567000042B62D0072B03D005F0B4FDBA4B1860A1
:10568000FFF7CCFBFEF742FDFEF7C8FD09F057F827
:10569000B64CC317C4E91803204602F0C5FE04F156
:1056A000680105A802F052FD9DF9186000F032FA79
:1056B00000F082FB86426DDB04F1680108A802F06D
:1056C00045FD9DF9246000F025FA00F07AFB864242
:1056D00008A8ACBF0026012602F0ABFA05A802F02C
:1056E000A8FA002E58D000F065FA012100F08EFDD6
:1056F00000F060FA00F061FD9D4B9E4A9E49002833
:1057000008BF1A4608A8039202F020FD9DF9243034
:10571000029300F0FFF900F04FFB044600F0FAF9A5
:1057200000F04FFBDDE90232CDE900409349944897
:10573000FEF7D4FC08A802F07CFAFEF7E7FCFFF7BE
:1057400013FA38B100F036FA00F063FB01281CBFF1
:1057500007232B708B4B1B78002B7FF491AE05F049
:1057600041FD814B1B68C01A874B98427FF688AE7B
:10577000FEF7CCFCFEF762FD08F0F2FF044600F0F5
:10578000C9F900F087FC08F0B1FE844200F0B08057
:10579000052374E60026A1E700F00CFA3146A5E7E0
:1057A000704B1B78072B01D0FFF738FB00F002FA93
:1057B00000F011FBFFF77AFB00F0ACF9044600F0B3
:1057C000A9F900F0F4FA0130C1B2204600F073FBF1
:1057D00052E6644B6D4C1B78052B25D0FFF71EFB62
:1057E00000F098F900F056FC08F088FE6249064681
:1057F00008A802F0C8FC9DF82330B6EBD30F05D003
:1058000000F086FC62495E48FEF768FC00F082F911
:1058100000F0C3FAFFF74AFB05F0D8FF08B905F01E
:10582000CDFF05F0DFFC206005F0D0FF38B300F0BD
:1058300071F9064608F083FF0246C317304600F0B0
:105840005CFC00F067F9064605F0CCFC2168411AC3
:105850004FF47A70B1FBF0F1304689B200F0DFFB13
:1058600005F0B4FF38B305F0B1FF10B1002005F02A
:10587000C5FFFFF781FA50B905F098FFF9E705F089
:10588000B1FC2368C01A434B9842D0D8F8E5FFF723
:1058900073FA414908A806F03BF900F03BF90446C9
:1058A00008A806F0B1F9BCEEC00A204610EE103A86
:1058B00099B200F0C0FB0623E1E52A4B374C1B7878
:1058C000062B04D0FFF7AAFA05F08CFC206005F047
:1058D00089FC2368C01A324B98427FF6D1AD03F0A1
:1058E00093F890F8B330002B3FF4CAAD01F058F8AC
:1058F0000223C4E52B4C2C4E2378BFF35B8F13F0AF
:10590000010F09D12046FEF7D9FB28B105F06AFC4A
:1059100030602046FEF7D7FB124B2A781B789A425C
:1059200001D0FFF77BFA05F05DFC3368C01A47F23F
:10593000305398427FF6A4AD1C491148FEF7CEFBC8
:105940004FF4FA6006F06AF81E21194801F066FC6F
:1059500096E5C3F80C802BE6267529E610B0BDE865
:10596000F08100BFD9E30320A0E20320E8E2032096
:1059700008050C0003050C0050E3032070050C0023
:1059800058E60320DBE30320F0490200A4E20320F1
:10599000B9050C00C027090084E50320A8E2032014
:1059A000905F010094E203209CE20320D8050C00E4
:1059B000ACE2032010B5034B0360044602F0E2FDA5
:1059C000204610BD18060C0010B50446FFF7F2FF84
:1059D00020461021FEF763FB204610BD10B503687A
:1059E00004460BB905F0AEFB2068BDE8104005F099
:1059F000B9BB38B504460430FFF7F0FF206A616A8E
:105A00000368DD68D4E90223A8476068BDE8384030
:105A100005F0B0BB38B504460430FFF7DFFF206A5D
:105A2000616A03689D68D4E90223A847A2682368D5
:105A3000D1885B692046984718B9236820469B693E
:105A40009847606805F096FB012038BD10B5044BFF
:105A500003600446406808B105F07CFB204610BD99
:105A6000F4130C0010B5034B03600446FFF7EEFF80
:105A7000204610BD60060C0010B50446FFF7F2FF8B
:105A800020466821FEF70BFB204610BD10B5034BE6
:105A900003600446FFF7DAFF204610BD8C060C00B9
:105AA00010B50446FFF7F2FF20467021FEF7F7FA23
:105AB000204610BD10B5034B03600446FFF7C6FF38
:105AC000204610BD34060C0010B50446FFF7F2FF67
:105AD0002046B021FEF7E3FA204610BD00F1280170
:105AE000816009494FF0400CC0E903C10121818266
:105AF0004FF47A71C16105490022C0E90812426081
:105B00008261034A02607047759EA920ECE303207E
:105B100060060C0010B5064C23683BB96820FEF700
:105B2000BAFA034608B1FFF7D9FF2360206810BD19
:105B3000E4E3032008B5006A02F03AFDFFF7EAFF4C
:105B400003685B689847BDE8084000F0E1BB10B50A
:105B5000006A02F02DFDFFF7DDFF0368BDE810408D
:105B60005B68184710B5FFF7D5FF0368BDE8104024
:105B7000DB68002118470000002200F12801426084
:105B800082614FF47A728160C2610749074A0262FA
:105B90004FF0480C3222C0E903C142620121044A9D
:105BA00081820260704700BF749EA920ECE303204D
:105BB0008C060C0010B5064C23683BB97020FEF72C
:105BC0006AFA034608B1FFF7D7FF2360206810BDCB
:105BD000E8E3032010B5FFF79DFF0368BDE8104020
:105BE000DB6800211847000010B504462DED028B3C
:105BF0000430FFF7F3FEE368083B172B0CD9A368CA
:105C000093ED068B606805F0B5FAB0EE480AF0EE49
:105C1000680ABDEC028B10BD9FED018BF2E700BF5F
:105C20000000000000000000F8B50446043057EC06
:105C3000106BFFF7D3FEE368083B172B12D9A5685A
:105C40003046D5E90623394609F0B4FC50B9C5E918
:105C500006672046A56805F085F9A86023682046F8
:105C60001B6998476068BDE8F84005F083BA0000FA
:105C7000002200F12801426082614FF47A72816053
:105C8000C2610749074A02624FF0880C9622C0E9B8
:105C900003C142620121044A81820260704700BF51
:105CA000749EA920ECE3032034060C0010B5064CCA
:105CB00023683BB9B020FEF7EEF9034608B1FFF7C1
:105CC000D7FF2360206810BDE0E3032010B5006A11
:105CD00002F06EFCFFF7EAFF0368BDE810405B6866
:105CE000184710B5FFF7E2FF0368BDE81040DB6816
:105CF0000021184738B504460D46054908F0C3F998
:105D0000234619221021284605F0D3F8204638BD35
:105D100079150C000B461922102105F03BB9000043
:105D200038B504460D46054908F0ADF92346192259
:105D30003821284605F0BDF8204638BD79150C00FD
:105D40000B461922382105F025B9000038B5044664
:105D50000D46054908F097F9234619226021284687
:105D600005F0A7F8204638BD79150C000B4619221E
:105D7000602105F00FB938B5044604300D46FFF731
:105D80002DFEE3686068013BAB4226BFA3685D5D02
:105D9000002505F0EFF9284638BD08B51021FFF7BA
:105DA000EAFF08BD08B51521FFF7E5FF08BD08B5F6
:105DB0001621FFF7E0FF08BD08B53821FFF7DBFF2C
:105DC00008BD08B53921FFF7D6FF08BD08B53B214E
:105DD000FFF7D1FF08BD08B51021FFF7CCFF08BDC4
:105DE00008B51121FFF7C7FF08BD08B51221FFF75D
:105DF000C2FF08BD08B52021FFF7BDFF08BD08B5EB
:105E00002121FFF7B8FF08BD08B52421FFF7B3FF34
:105E100008BD08B53421FFF7AEFF08BD08B5412124
:105E2000FFF7A9FF08BD08B52921FFF7A4FF08BDAA
:105E300008B52A21FFF79FFF08BD08B55121FFF7DC
:105E40009AFF08BD08B55221FFF795FF08BD08B5B8
:105E50007921FFF790FF08BD08B57A21FFF78BFF86
:105E600008BD70B5044604300D461646FFF7B6FD72
:105E7000E368013BAB420DD3A3685A5DB24209D03F
:105E80005E552046A56805F06DF8A8602368204699
:105E90001B6998476068BDE8704005F06BB908B5AC
:105EA0000A461021FFF7DDFF08BD08B50A46152197
:105EB000FFF7D7FF08BD08B50A461621FFF7D1FF47
:105EC00008BD08B50A463821FFF7CBFF08BD08B565
:105ED0000A463921FFF7C5FF08BD08B50A4610215B
:105EE000FFF7BFFF08BD08B50A461121FFF7B9FF4C
:105EF00008BD08B50A461221FFF7B3FF08BD08B573
:105F00000A462021FFF7ADFF08BD08B50A4621214A
:105F1000FFF7A7FF08BD08B50A462421FFF7A1FF38
:105F200008BD08B50A463421FFF79BFF08BD08B538
:105F30000A464121FFF795FF08BD08B50A46292109
:105F4000FFF78FFF08BD08B50A462A21FFF789FF32
:105F500008BD08B50A465121FFF783FF08BD08B503
:105F60000A465221FFF77DFF08BD08B50A46792190
:105F7000FFF777FF08BD08B50A467A21FFF771FFE2
:105F800008BD38B5044604300D46FFF727FDE36829
:105F90006068023BAB4226BFA3685D5B002505F04D
:105FA000E9F8284638BD08B51221FFF7EAFF08BD19
:105FB00008B52A21FFF7E5FF08BD08B53C21FFF72A
:105FC000E0FF08BD08B52221FFF7DBFF08BD08B5DB
:105FD0003021FFF7D6FF08BD08B53221FFF7D1FF0A
:105FE00008BD70B5044604300D461646FFF7F6FCB2
:105FF000E368023BAB420DD3A3685A5BB24209D0BF
:106000005E532046A56804F0ADFFA86023682046D3
:106010001B6998476068BDE8704005F0ABB808B5EB
:106020000A462821FFF7DDFF08BD08B50A462A21E8
:10603000FFF7D7FF08BD08B50A463C21FFF7D1FF9F
:1060400008BD08B50A462221FFF7CBFF08BD08B5F9
:106050000A463021FFF7C5FF08BD08B50A463221C0
:10606000FFF7BFFF08BDF8B5044604300D46FFF743
:10607000B5FCE3686068083BAB4223BFA1684919DF
:10608000D1E90067002638BF002705F073F83046D5
:106090003946F8BD08B52021FFF7E5FF08BD08B572
:1060A0003021FFF7E0FF08BD08B55821FFF7DBFFFF
:1060B00008BDF8B5044604300D461E461746FFF7E6
:1060C0008DFCE368083BAB4212D3A3685A195859B8
:1060D0005168B14208BFB8420AD05F5120465660AD
:1060E000A56804F03FFFA860236820461B69984715
:1060F0006068BDE8F84005F03DB808B52021FFF71D
:10610000D8FF08BD08B52821FFF7D3FF08BD000060
:1061100010B512491248FDF7E1FFFFF74BFD0021D2
:10612000FFF79BFFFFF746FD0021FFF790FFFFF70A
:1061300041FD044608F003FB0246C3172046FFF763
:10614000E1FFFFF7E7FC0021FFF7AFFEFFF7E2FCFE
:10615000BDE810400021FFF7AEBE00BFEF050C0008
:1061600058E6032008B53821FFF7A3FF08BD08B59E
:106170003021FFF79EFF08BD08B55821FFF799FFB2
:1061800008BD08B58021FFF794FF08BD38B5044667
:1061900004300D46FFF722FCE3686068013BAB4228
:1061A00026BFA3685D5D002504F0E4FF284638BDE6
:1061B00008B53A21FFF7EAFF08BD08B54021FFF70F
:1061C000E5FF08BD70B5044604300D461646FFF7DE
:1061D00005FCE368013BAB420DD3A3685A5DB242B4
:1061E00009D05E552046A56804F0BCFEA86023686F
:1061F00020461B6998476068BDE8704004F0BABF4C
:1062000008B50A463A21FFF7DDFF08BD08B50A4682
:106210004021FFF7D7FF08BD084B012210B51A70C7
:1062200008F00EFD064C014600234FF400522046B4
:1062300002F0B4F9034B236010BD00BFDDE303207F
:10624000ECE3032018060C0008B513491348FDF7CA
:1062500045FF0221042008F071FC0021082008F00D
:106260006DFC0121072008F069FC0021122008F0D4
:1062700065FC0121112008F061FC0121102008F0CB
:106280005DFC0021102008F06AFC0021112008F0BC
:1062900066FC012008BD00BFB0060C0058E60320D4
:1062A00010B51849184890B02024FDF717FF224672
:1062B0000021684609F088FA224600210DEB04000F
:1062C0008DF8054009F080FA00210DEB04008DF8EF
:1062D000254005F03DFA41F2D833ADF806300B4BBE
:1062E000029341F27003ADF80C30009B002143F49F
:1062F00000736846009305F02BFA003818BF0120A0
:1063000010B010BDC9060C0058E6032084038403B6
:1063100008B505490548FDF7E1FEFFF7FBFBBDE8C1
:1063200008400A21FFF781BEEE060C0058E6032064
:106330007047006A0368DB68184700001FB5044611
:10634000FFF7E8FBFFF734FE064A034610216846D4
:1063500005F00CFB6946204607F095FE204604B088
:1063600010BD00BF0D070C0030B585B003461446C4
:1063700068460D4698470298206005F0CFFA2860DD
:1063800050B12268009909F0F7F90024684607F037
:106390002FFE204605B030BD004CF7E7FCFEFFFFA6
:1063A0000023042205F0F2B90A4B10B5044603603D
:1063B00006F092FC214606F096FE08F0A7FA08F0D7
:1063C00097FA2046044B40F8043B06F027FD204690
:1063D00010BD00BF94090C007C090C0010B50446E8
:1063E000FFF7E2FF20462421FDF759FE204610BDAD
:1063F00007B501230822CDE900234FF47A71002369
:1064000041436A46184605F011FA03B05DF804FBF3
:1064100010B5FFF77FFBFFF7CFFC78B9FFF77AFBEA
:10642000FFF7CFFC182809D10F49104809F061FA8D
:10643000BDE810400C490E4809F05BBAFFF76AFB53
:10644000FFF7BAFC0B4A03460821084805F08EFA0C
:10645000FFF760FBFFF7B5FCBDE810400346054AB7
:106460000348082105F082BA18070C0038DE032023
:1064700030DE03201B070C0010B58CB0374B0493A3
:10648000374B0593374B0693374B0793374B08939E
:10649000374B09930024374B374938480A930B94FC
:1064A000FDF71CFE36493748FFF77AFF3649374873
:1064B000FFF776FFFFF77EFBFFF796FB23460922E7
:1064C000694633488DED000B05F060F9FFF772FB6C
:1064D000FFF790FC0CAB03EB800050F8201C2D481C
:1064E000FFF75EFF0C23CDE90044ADF800302A4BE6
:1064F0002A49029304226B46294805F047F9FFF721
:1065000009FBFFF755FE274A2749A04218BF11464D
:106510002648FFF745FF26492648FFF741FF264951
:106520002648FFF73DFF264A2649274805F033FC59
:10653000264A2749244805F02EFC264A26492248A7
:1065400005F029FC194A25491F4805F024FC00F0F4
:10655000A5FB0CB0BDE81040FFF75ABF29070C009F
:1065600031070C0035070C003E070C0046070C00F5
:1065700052070C0058070C0064070C0058E6032073
:1065800094DD032092070C0070DE03209A070C00B4
:10659000A1070C00AC070C0069630B003D630B0006
:1065A000BB070C0021070C00F0080C00CF070C0003
:1065B00038DE0320D8070C0030DE0320E2070C0091
:1065C000ED070C000D660B006BBD0B00FB070C000C
:1065D00081660B0009080C00F5660B0069670B006B
:1065E00038B5046805467CB16368013B63605BB9FC
:1065F000236820469B689847A368013BA3601BB9AA
:1066000023682046DB689847284638BD10B5C6B0D9
:1066100000680A2203A909F083FA782821D8124BCE
:10662000124A1880124B01241C704FF480710346EB
:1066300006A805F09BF90F4806A9FDF74FFD05F0E8
:10664000C5F860B10C4B0D491B788DF8003004A8DB
:106650003C2306AA05F0B0FC05A8FFF7C1FF2046C1
:1066600000E0002046B010BD40DE032018080C00FA
:1066700009E4032058E6032008E4032004080C0082
:1066800010B596B000680A2203A909F049FA172844
:10669000044624D8FFF73EFAE1B2FFF712FCFFF7F9
:1066A00039FAFFF789FB0F4A0346402106A805F097
:1066B0005DF90D4806A9FDF711FD05F087F860B1F9
:1066C0000A4B0B491B788DF8003004A83C2306AA1E
:1066D00005F072FC05A8FFF783FF012000E0002011
:1066E00016B010BD58080C0058E6032008E403203B
:1066F00004080C0010B596B000680A2203A909F03E
:106700000FFA1828044624D8FFF704FAE1B2FFF77D
:10671000DEFBFFF7FFF9FFF754FB0F4A034640216A
:1067200006A805F023F90D4806A9FDF7D7FC05F0EA
:106730004DF860B10A4B0B491B788DF8003004A866
:106740003C2306AA05F038FC05A8FFF749FF012005
:1067500000E0002016B010BD6C080C0058E60320C5
:1067600008E4032004080C0030B51E4985B0054636
:1067700007F042FD0446D8B1FFF7CCF90121FFF73D
:106780003FFD3C20FFF734FE05F020F810B9012052
:1067900005B030BD144B154A1B788DF800303C23F2
:1067A00002A8134905F008FC03A8FFF719FFEEE75C
:1067B0001049284607F020FD0028E9D0FFF7AAF984
:1067C0002146FFF71DFD40F26450FFF711FE04F073
:1067D000FDFF0028DBD0044B074A1B788DF8003002
:1067E0003C23DDE7E0090C0008E4032081080C00ED
:1067F00094080C00C2FE0B0099080C0070B5D0E99B
:1068000000531426044606FB0356AE4204D0284625
:1068100007F0EEFB1435F8E7206805F087F820460E
:1068200070BD8842F8B504460D46164616D990420A
:1068300015D2A2F11406751AA1F114072C44B7421F
:106840001CD02CB13146204607F04EFC337C23741B
:10685000304607F0CDFB143E143CF0E70ED0B542B5
:106860000CD02CB12946204607F03EFC2B7C23742B
:10687000284607F0BDFB14351434F0E7F8BD2DE9C8
:10688000F0410023C0E9003383604F689F42044613
:106890000E4623DD4FF0140808FB07F005F03EF824
:1068A0000546D8B1D4E9001208FB0212FFF7B9FF80
:1068B000206805F03BF82560A760D6E9007308FB67
:1068C0000378B84508D03946284607F027FC3B7CBA
:1068D0002B7414371435F4E7736863602046BDE801
:1068E000F081000070B5274B274A01251D70274B0A
:1068F00000248CB09A60C3E90044022004F0D4FE66
:106900002146284604F0E8FE2946042004F04AFC0B
:10691000CDE90044029407F0F9FF1D4C0546694695
:1069200003A8FFF7ACFF264603A906A8FFF7A7FFB9
:10693000184B46F8043B06A909A8FFF7A0FF09AACF
:106940001E21304606F0B2FC09A8FFF757FF06A843
:10695000FFF754FF104B2360256203A8FFF74EFF9B
:106960000E4B236007F0D2FF4FF4165107F0BCFF27
:1069700006F0B2F9214606F06FFB6846FFF73EFFCE
:106980000CB070BD08E403200000FFFFFCE303200F
:106990000CE403207C090C00AC150C0094090C00DD
:1069A0002DE9F04385B007F0CAFE43490546434848
:1069B000FDF794FB424B188805F0D0FD002401A898
:1069C000CDE90144ADF80C4005F0F6F9204604F09D
:1069D00019FC43F698260446002004F013FC031B20
:1069E00061F10001B34271F1000305D204F0EEFE43
:1069F00010B104F0DBFEEFE704F0E8FE04F0F2FB78
:106A0000304F386004F0D2FE04F0E0FE044640B19E
:106A10002D492A48FDF762FB0024204605B0BDE859
:106A2000F08307F08CFE2949DFF8A480421B23483D
:106A3000FDF754FB07F083FE224602210646D8F8F4
:106A4000040004F01BFFD8F8040023462246214628
:106A500004F02CFF204604F0D5FB47F230590546E0
:106A6000002004F0CFFB431B61F100014B4571F1A5
:106A7000000306D2404606F037FF10B904F096FE38
:106A8000EEE7134806F030FF04F0ACFB386004F08A
:106A90008DFE0F4806F024FF20B10E490748FDF790
:106AA0001DFBBAE707F04BFE0B49821B0348FDF7BD
:106AB00015FB0124B1E700BFAD080C0058E6032028
:106AC000E6060C0010E70320D6080C00F9080C00BD
:106AD00084E5032022090C0048090C0007EE900A07
:106AE0009FED097AF8EEE77A67EE877A9FED077AED
:106AF00087EE870ADFED067A70EE677AB2EE040A57
:106B000087EE800A704700BF00404E4500F07F4589
:106B10000000FA4313B5012101A806F07AFFFFF740
:106B200049F8FFF762F9FFF745F8FFF75EF9252806
:106B300001A80DD907F000F8FFF73CF80121FFF795
:106B4000DEF9002401A806F073FF204602B010BD54
:106B500006F0D7FF0124F5E730B5194D0FCD97B0FA
:106B60000CAC0FC40FCD0FC495E8030084E80300FC
:106B7000144904A804F0CCFF04A805F00CF804465E
:106B800004A805F041F804A810EE105A05F06CF8BE
:106B900016AB10EE100A03EB840408F04BFACDE9B3
:106BA0000201284608F046FACDE90001064A54F8E9
:106BB000283C0648402104F0D9FE17B030BD00BF84
:106BC000280A0C0084E50320E2090C0070DE032093
:106BD00030B585B00D4600226946009204F052FDA2
:106BE00090B9009C0CB1236923B9084A08490A20CE
:106BF00004F020FD0C23CDE901350423039301AA01
:106C0000236901212046984705B030BDD5B10B005E
:106C1000FB090C0013B5FEF7CDFF01A904460720C0
:106C2000FFF7D6FF011EA8BF01992046C9B2FFF7A2
:106C300066F9184805F0BAFB4FF4FA7004F0EEFE5E
:106C4000FEF7B8FF01A904460320FFF7C1FFE8B92A
:106C5000BDF8043007EE903AFBEECC7A17EE900ABE
:106C600008F0E8F941EC100B2046FEF7DDFFFEF7D7
:106C7000A1FFFEF7B9FF084B51EC100B002208F002
:106C8000C1FC003818BF012002B010BDFFEE007A31
:106C9000E4E700BF30E4032000004E4013B5FEF7E8
:106CA00089FF114B0446188807F085FFFFF716FF90
:106CB000FDEEC07A2046CDED017A9DF80410FFF775
:106CC00018F9FEF777FFFFF790F8084A03461021FE
:106CD000074804F04BFEFFF79DFFFFF71BFFFFF790
:106CE0003BFF012002B010BDEC060C00210A0C0095
:106CF00060DE03200148002105F014BB30E40320CE
:106D0000704710B520210446FDF7C9F9204610BD93
:106D100010B504468AB008464FF0200C0021CDE99A
:106D20000023CDE902C10B4602AA216804F092FCBF
:106D30000AB010BD0EB403B503AB322153F8042BD7
:106D40000193FFF7E5FF02B05DF804EB03B0704775
:106D50000EB403B503AB012153F8042B0193FFF7E5
:106D6000D7FF02B05DF804EB03B0704710B50272B4
:106D7000FF2242810022C0E9032242610276C26101
:106D8000024A034C1060C0E9004110BD3CE40320FE
:106D9000A00C0C002DE9F8439DF82080044689469C
:106DA00016461F46B8F1000F02D0406805F098FB68
:106DB000217A606805F071FB6068036849469B684A
:106DC00098476068002105F087FB054600BB01235A
:106DD000217A60683A4605F04EFB8742034609D1A6
:106DE0003744BE421CD0606803685B69984706F868
:106DF000010BF6E70B490C484A46FFF79BFFB8F139
:106E0000000F02D0606805F074FB2846BDE8F883E7
:106E10000346064904484A46FFF78CFF0025EEE783
:106E20000125ECE7500A0C0038E40320750A0C0039
:106E300007B500930123FFF7ADFF03B05DF804FB36
:106E400073B54389FF2B044610D0194E194D04F039
:106E5000C9F9B0F57A7F09D2608907F099FE012857
:106E600004D031462846FDF739F9F0E701230DF14A
:106E7000070228212046FFF7DBFF30B90D480E49F5
:106E8000FDF72CF9002002B070BD9DF80730182BDB
:106E9000F4D101230DF1070229212046FFF7C8FF95
:106EA0000028EBD09DF80730052BE7D1EBE700BFBA
:106EB000990A0C0038E40320AE0A0C0007B513460B
:106EC00000228DF807200DF10702FFF7B1FF9DF8B2
:106ED000070003B05DF804FB2DE9F0419DF8188030
:106EE00004460F4615461E46B8F1000F02D0406812
:106EF00005F0F6FA217A606805F0CFFA6068036859
:106F000039469B6898472E44B542606805D00368AF
:106F100015F8011B9B689847F6E7012105F0DCFA9C
:106F2000034670B1084909483A46FFF703FF0025B8
:106F3000B8F1000F02D0606805F0DBFA2846BDE822
:106F4000F0810125F4E700BFBB0A0C0038E4032000
:106F50001FB58DF80F2000930DF10F020123FFF7ED
:106F6000BBFF05B05DF804FBF8B50A460C460546C4
:106F70001A491B48FDF7B2F8002CB8BFEC687CB981
:106F8000012322461B212846FFF7E2FF154902464E
:106F900006461348FFF7DCFEEC606C613046F8BD36
:106FA000032C19DDA7101F2FA8BF1F27BA0062F0FE
:106FB0007C020123D2B21B212846FFF7C9FF3A46C3
:106FC0000346094906460648FFF7C2FE4FF4FA6336
:106FD0005F43EC606F61E1E70127E7E7E00A0C003F
:106FE00038E40320EA0A0C00060B0C00064B1A6872
:106FF0004AB1A0F500630B4305D1D3681BB1002152
:107000001046FFF7B1BF70473CE403202DE9FF4174
:107010009DF82880054616461F46B8F1000F04D09B
:107020004068019105F05CFA0199019100230DF18E
:107030000F022846FFF7FCFE044660B19DF80F30B2
:1070400003EA06023A43934205D0019900232846F9
:10705000FFF77EFF0446B8F1000F02D0686805F024
:1070600048FA204604B0BDE8F08113B514460DF18E
:107070000702FFF7DDFE28B19DF807301C420CBF68
:107080000120002002B010BD13B514460DF1070217
:10709000FFF7CEFE28B19DF807301C4214BF012037
:1070A000002002B010BD07B5D2430093D2B2002336
:1070B000FFF7ACFF03B05DF804FB000037B5012318
:1070C0000DF107020F210446FFF7B2FE054638B95D
:1070D0001E491F48AD22FFF72DFE284603B030BDE4
:1070E0009DF8073013F0200F4FF001030BD0202242
:1070F000E3610F212046FFF7D6FF164A16491448D0
:10710000FCF7ECFFE9E7082217212046FFF7BCFF58
:1071100018B10223114AE361F0E79DF807301A071E
:1071200009D50323E361082201230F212046FFF73D
:10713000BAFF0B4AE2E75B07CFD50422E2610123E5
:107140000F212046FFF7AFFF064AD7E7590B0C0087
:1071500038E403202A0B0C00780B0C00330B0C00D6
:10716000430B0C00530B0C0007B500931346FF2292
:10717000FFF74CFF03B05DF804FB0000F8B50F46C5
:107180001646012300220F210546FFF7E1FE0446C3
:1071900038B94FF425721F491F48FFF7CBFD204631
:1071A000F8BD0123232218212846FFF7D1FE04460B
:1071B00010B940F29B22EEE7FF2FA8BFFF27012F57
:1071C000B8BF01270123FAB219212846FFF7C0FEF4
:1071D000044610B94FF42A72DDE701230822122178
:1071E0002846FFF7C1FF044610B940F2AF22D2E7AC
:1071F000002E14BF03220222012342F08002182134
:107200002846FFF7A5FE04460028C8D140F2B9225F
:10721000C1E700BF890B0C0038E403202DE9F743D8
:107220000A4605460F464F484F49FCF757FF0021D5
:107230002846FFF799FE044648B940F2F7124B4939
:107240004848FFF777FD204603B0BDE8F0830123EF
:107250001A4630212846FFF787FF044610B940F24E
:107260000522ECE71022012311462846FFF71BFFF9
:10727000044610B94FF40372E1E7012326221321DB
:107280002846FFF765FE044610B940F21322D6E700
:10729000012600963346FC2211212846FFF7B6FE50
:1072A000044610B940F21B22C9E70022394628469D
:1072B000FFF764FF044610B940F22222BFE70096B0
:1072C0000223772210212846FFF7A0FE044610B9BA
:1072D00040F22B22B3E7334604221C212846FFF755
:1072E00043FF044610B940F23222A8E70096182363
:1072F000E32211212846FFF789FE044610B940F227
:1073000039229CE73346C02217212846FFF720FE8A
:10731000044610B94FF4107291E703F063FFDFF8F1
:107320005490DFF840804FF47A7106464F4303F0E3
:1073300059FF801BB8420ED2012217212846FFF7C1
:10734000BDFD494602464046FCF7C8FE4FF47A7040
:1073500004F064FBEBE706490248FFF7EBFC06F09C
:10736000FAFF70E738E40320B40B0C00A90B0C0003
:10737000DA0B0C00C50B0C002DE9F3479DF828A093
:1073800005460C4691461F46BAF1000F02D04068F0
:1073900005F0A6F807B3202F3E4628BF20267F2CF5
:1073A00026D83319802B01D9C4F180060123042289
:1073B0003F212846FFF777FE002364F07F0100930A
:1073C0004A463346C9B22846FFF7E4FC804628B156
:1073D0003444BF1BB144DDE74FF00108BAF1000FA0
:1073E00002D0686805F085F8404602B0BDE8F08735
:1073F000012304223F212846FFF7B6FEDCE72DE9F2
:10740000F3479DF828A005460C4691461F46BAF161
:10741000000F02D0406805F063F807B31F2F3E4607
:1074200028BF1F267F2C26D83319802B01D9C4F101
:107430008006012304223F212846FFF734FE002363
:1074400064F07F0100934A463346C9B22846FFF7ED
:1074500043FD804628B13444BF1BB144DDE74FF003
:107460000108BAF1000F02D0686805F042F8404602
:1074700002B0BDE8F087012304223F212846FFF730
:1074800073FEDCE730B585B00D68D1E904320395B1
:107490004D6802958D680195C968009101330449D2
:1074A00002F26C72044606F0EFFE204605B030BDD5
:1074B000EC0B0C0003090A2200F00F0002FB030092
:1074C000704738B5044600781546FFF7F3FF0860AB
:1074D0006078FFF7EFFF4860A078FFF7EBFF886068
:1074E000E078FFF7E7FFC8602079FFF7E3FF013896
:1074F00008612DB9651D2878FFF7DCFF886138BD6C
:107500006079FFF7D7FF6430A51D4861F3E70000FD
:1075100070B5012388B00D461A4610210446FFF7C6
:10752000A4FDF0B108230126204600960DEB0302CE
:107530000021FFF72FFC044698B1324629460DF191
:107540000900FFF7BEFF04A8FFF79CFF0848049A54
:107550000849FCF7C3FD04A806F04AFD204608B020
:1075600070BD24220021284608F02EF90024F5E7FA
:1075700038E403200A0C0C0030B58BB00D4601A98D
:10758000FFF7C6FF044620B101A804F03FFAC5E9A1
:10759000000120460BB030BD0A2390FBF3F103FB42
:1075A000110091FBF3F203FB121240EA0210C0B289
:1075B000704770B5054600680C461646FFF7ECFFAD
:1075C00020706868FFF7E8FF6070A868FFF7E4FFC5
:1075D000A070E868FFF7E0FFE07028690130FFF76E
:1075E000DBFF20712EB9661DA869FFF7D5FF30704B
:1075F00070BD6A69642392FBF3F003FB1020FFF770
:10760000CBFFA61D6071EFE7F0B587B0054602A875
:1076100016460C46FFF736FF1E48029A1E49FCF735
:107620005DFD02A806F0E4FC16B1686804F058FF9E
:10763000204601220DF1090100278DF80870FFF79F
:10764000B8FF01231A4610212846FFF78DFD044696
:10765000E8B1082300970DEB030239462846FFF7EF
:107660003BFC044660B101231A4610212846FFF76F
:107670001AFD16B1686804F03CFF204607B0F0BD63
:107680004FF48D7205490348FFF754FBF1E74FF4BF
:107690008F72F7E738E40320180C0C00260C0C005E
:1076A00013B504466846CDE9002308F03FF89DF87D
:1076B000102001462046FFF7A7FF02B010BD0000D2
:1076C000F0B5057E89B0044675BB07F01BF858B3CA
:1076D0000026002704A92846CDE9046704F09EF897
:1076E00010B30125257607F02AF8C317CDE9020368
:1076F000024600952046FFF7D3FF02A92046CDE9B8
:107700000267FFF739FF134B13491B68009304A866
:10771000DDE9022306F0B4FF1048049A1049FCF793
:10772000DDFC04A806F064FC63698BB103F05AFD2C
:107730002369C01A636998420AD303F053FD4FF0DE
:10774000FF312061204609B0BDE8F040FFF70CBCD6
:1077500009B0F0BDB8DE0320ACE6032038E4032016
:10776000410C0C0030B504468BB011B1406804F0F8
:1077700065FE2046FFF764FB06AD002837D02046A3
:10778000FFF79CFC01231A4610212046FFF76DFCF1
:10779000D8B106F0B7FFC0B902A92046FFF7ECFE4A
:1077A000DDE9020106F0B2FE134B14491B68009399
:1077B0002846DDE9022306F063FF1148069A1149C5
:1077C000FCF78CFC284606F013FC0F4B06930F4B7E
:1077D00009930F4B08934FF40062002302A8009511
:1077E000FDF74CFC2846FDF7D4FA0BB030BD094933
:1077F0000348FFF79FFAE8E7B8DE0320ACE6032072
:1078000038E40320570C0C00ED6F0B006F4D0B009C
:107810005B4D0B00740C0C00014B024A1A60704760
:1078200038E403208C0C0C0010B50123037483682A
:10783000044643B1C0689847012363740020BDE843
:10784000104003F09FBC00680028F5D083680BB996
:1078500007F088FAC368EEE7012A02D10160002030
:107860007047022A04BF0B680360F8E738B5056863
:10787000044635B12846FDF78CFA10212846FCF75E
:107880000EFC20461421BDE83840FCF708BC10B5BA
:1078900003680446ABB1586803F024FC88B9236838
:1078A0005A7C12B9586803F025FC2368586803F025
:1078B00029FC20680023236018B1BDE81040FFF7C1
:1078C000D5BF10BD054A026000224260027380F8F5
:1078D0004F24C0F85824C0F860247047CC0C0C002A
:1078E00010B5074C236843B940F26440FCF7D3FB62
:1078F000034608B1FFF7E6FF2360206810BD00BF14
:1079000040E4032038B50446406890B10223237355
:10791000FFF7BDFF656855B12846FFF7B8FF286837
:1079200008B1FFF7A3FF04212846FCF7B8FB0023AA
:10793000636038BD10B5054B03600446FFF7E2FFF6
:1079400004F58A60FDF725FA204610BDCC0C0C002A
:1079500010B50446FFF7EEFF204640F26441FCF705
:107960009EFB204610BDF0B5044689B000F10D061F
:1079700000F14E07237B1BB9012004F04FF8F9E713
:10798000237B022B64D0A06803F0CCFBA06803F03B
:10799000D1FB94F84F348DF800303A463C23314601
:1079A00006A804F009FB069D6B7833B9237B022BF4
:1079B00003D0012004F032F8F5E7D4F858341BB3B3
:1079C000002003F091FE20B16B7813B903F0EEFEB6
:1079D000FAE72B78D4F860240592591E4B424B41AC
:1079E0008DF80B30D4F85834CDE903670BB907F0A4
:1079F000B9F905AB0093D4F85C5404AB03AA0DF1BC
:107A00000B0104F58A60A847A06803F08BFB237B79
:107A1000022B17D0D4F858340025C4F8605443B171
:107A200004F58A61032208469847C4F85854C4F8FC
:107A30005C540023A068237303F07CFB07A8FEF7C7
:107A4000CFFD97E7A06803F075FB07A8FEF7C8FD18
:107A500009B0F0BD0068FFF786BF13B50B460246BC
:107A6000D0E900016C4684E8030093E8030082E853
:107A7000030094E8030083E8030002B010BD000097
:107A80002DE9F743064688461420264917469946AD
:107A900007F05EF9044630B10020C4E90000C4E9F3
:107AA0000200207460743460002C31D01D49102015
:107AB00007F04EF9054668B1002383600146384659
:107AC000FFF7CBFFBB68AA68BA60AB60EA68FB68E7
:107AD000EB60FA602768256037B13846FDF759F941
:107AE00010213846FCF7DBFA3068036883B10A9B43
:107AF0004A46CDE9000341460B4B043003F0EAFA55
:107B000030B933681B7C4BB9012003F05BFBF8E70D
:107B100030680023336008B1FFF7A8FE304603B099
:107B2000BDE8F08300170C0029780B0030B54368DE
:107B300087B00446C3B9083003F0ECFA0B4B059349
:107B400004200B4B02940493FCF7A5FA054638B1C8
:107B50004FF4406300930749022302AAFFF790FF06
:107B6000656002A8FDF715F907B030BD557A0B0026
:107B700059780B00B00C0C002DE9F043044685B099
:107B800080680C9F98460D46164603F0CBFA636852
:107B90001BB1237B03F0FF0933B1A06803F0CAFADD
:107BA000002005B0BDE8F083A06803F0C3FA002D03
:107BB0003DD04022294604F10D0007F0DCFE84F898
:107BC0004D908EB340F20142314604F14E0007F071
:107BD000D2FE84F84E9400230293BB6804F58A65B4
:107BE0003BB10222394668469847FB680393BB685D
:107BF000029329466846FFF730FF029BD4F85824C9
:107C0000C4F85834039B02926846D4F85C24C4F844
:107C10005C340392FDF7BDF80D9BC4F8603401207D
:107C200084F84F842073BCE784F84E60D3E728467D
:107C3000B7E77047704710B508210446FCF72FFAE4
:107C4000204610BD10B510210446FCF728FA204646
:107C500010BD000010B5054B044640F81C3B06F073
:107C6000C7F9201D06F0C4F9204610BD400D0C00D8
:107C700010B50446FFF7EEFF20465821FCF70FFA37
:107C8000204610BD10B5044B044640F8043BFFF7F6
:107C9000E1FF204610BD00BF100D0C0010B50446DA
:107CA000FFF7F0FF20466021FCF7F9F9204610BDF0
:107CB00020F00203012B03D0431F58425841704764
:107CC0001846704791F90430037191F905304371FA
:107CD00091F90630837191F90730C371704738B557
:107CE00004460D460430043106F009FA05F114018A
:107CF00004F11400FFF7E6FF05F11C0104F11C007C
:107D000006F0FDF905F12C0104F12C00FFF7DAFF74
:107D100095F9383084F8383095F9393084F83930AD
:107D200095F93A3084F83A3095F93B3084F83B3095
:107D300005F13C0104F13C00FFF7C4FF95F9483020
:107D400084F8483095F9493084F8493095F94A303B
:107D500084F84A3095F94B3084F84B3005F14C01EA
:107D600004F14C00FFF7AEFF95F8543084F854301E
:107D700038BD0B6803604B68436013B15A68013229
:107D80005A607047024A02604A684260704700BF0A
:107D9000200D0C004A69036862F3160303600B6947
:107DA0005A1C438862F3CA134380CA68C3F307238B
:107DB00062F3C703C3707047024A02600022426048
:107DC000704700BF200D0C0030B5002387B08380C2
:107DD00083710D4605AB00931349044604AB03AA17
:107DE000284603F0BBFD032807D1039B2371049BA6
:107DF0006371059BA37107B030BD0C4904AB03AAA6
:107E0000284603F0ABFD022804D1039B2371049B99
:107E10006371F0E7064903AA284603F09FFD012895
:107E200004BF039B2371E6E7D40C0C00D70C0C00B5
:107E3000E70A0C0090F9042090F9053090F906103B
:107E4000002AB8BF0848C3EB03134FEA8303BDBF42
:107E500000FB0230401840424FF46160A4BF00FBB9
:107E600002304018704700BFF0F1FFFF08B590F8EE
:107E700054304BB190F93B3043B92C30FFF7DAFF67
:107E8000B0FA80F0400908BD0120FCE70020FAE7C5
:107E900090F9073043B990F904308B6090F90530C0
:107EA0004B6090F906300B60704790F9073030B5A1
:107EB000B3B990F904508C682C44D1E900328C603D
:107EC00090F90540002DB5BF121B12194A604A6097
:107ED000B5BF90F9062090F906209B1A9B180B60FD
:107EE00030BD000008B5054A02600022034642602A
:107EF0000830FFF761FF184608BD00BF300D0C00C9
:107F000000234360838183737047000030B50446CB
:107F100087B00D4611B10B784D2B05D0204607B028
:107F2000BDE83040FFF7ECBF05AB0093114904AB4F
:107F300003AA284603F012FD032816D1039B2371E0
:107F4000049B6371059BA3712F21284607F0B0FCA9
:107F500040B1411C04F10800FFF736FF0123E37133
:107F600007B030BDA081A073F8E72046FFF7C8FF37
:107F7000F6E700BFEF0C0C00104B114910B504469A
:107F800040F8043B06F07FF804F11400FFF714FFFB
:107F90000B4904F11C0006F076F804F12C00FFF701
:107FA0000BFF04F13400FFF79DFF04F14400FFF7DD
:107FB00099FF002384F85430204610BD400D0C007A
:107FC00079150C002DE9F74F0446084607F09AFC96
:107FD00000250646019004F134083F49019801AAA2
:107FE00007F018FD0146002862D0012D05F10103BC
:107FF00053D0022D56D0002D46D1024692F8009063
:10800000B9F1400F1546174602F10102F6D80022D9
:108010002A7004F11C0006F094F8012285F8009003
:1080200084F854202A786AB397F800A00AF1FF3246
:108030003F2AB946BB4607F10107F5D9002304F1F1
:108040002C0789F8003029463846FFF7BDFE89F82D
:1080500000A0BAF1000F15D05D461BF801ABBAF1D4
:10806000400FF9D800222A704946201D06F069F811
:1080700085F800A004F11400BAF1000F06D02946DB
:10808000FFF7A2FE0125A8E71D46A6E73946FFF740
:1080900019FE237E013B2376F4E74046FFF736FFC7
:1080A00002259AE704F14400FFF730FF032594E727
:1080B00094F93B3043B194F94B202AB904F13400D0
:1080C000FFF71EFF84F85420304603F02FFC94F88D
:1080D000540003B0BDE8F08FF90C0C0038B5134B19
:1080E00004460D4640F8043B114905F0CCFF04F16D
:1080F0001400FFF761FE0E4904F11C0005F0C3FFF8
:1081000004F12C00FFF758FE04F13400FFF7EAFEFB
:1081100004F14400FFF7E6FE002384F854302946BA
:108120002046FFF74FFF204638BD00BF400D0C0032
:1081300079150C0008B50346FFF73EFE8A681A71F0
:108140004A685A710A689A71184608BD13B5074BF8
:1081500003600023436004466846FFF7EBFF2046B8
:108160006946FFF7AFFD02B010BD00BF200D0C0047
:1081700007B50023014601A80193FFF70BFE019804
:1081800003B05DF804FB10B504460846FFF7F0FFA6
:10819000206010BD10B5044688B00846683001A9BB
:1081A00007F098FA01A807F0CAFB08AB18440023AF
:1081B00000F81D3C01A9204605F065FF204608B0E7
:1081C00010BD000038B50446081D0D46FFF74EFEF1
:1081D00028B10949204605F056FF204638BD2868D9
:1081E000FFF766FD28B105F10801204605F096FF6E
:1081F000F3E705F12001F8E7FB0C0C002DE9F0474F
:108200008046A8B00C4615462AB1474B104619685F
:1082100007F065FB38B921464046FFF7BBFF4046F3
:1082200028B0BDE8F08729463F2218A807F0A3FB35
:10823000002318A88DF89F3007F081FB21460546E2
:1082400003A8FFF7BFFF201DFFF710FE48B3374913
:1082500007A807F04EFB18AE002705F1FF3ABA4514
:108260004CD93378252B07F1010917D173787A2B74
:1082700036D107A807F063FB18AB05463818AAEB00
:108280000702B11C184407F077FA2A4607A93046BE
:1082900007F072FA18A807F052FB054601364F4660
:1082A000DBE72068FFF704FDB8B104F11800FFF721
:1082B000C1FD3C2290FBF2F3002BB8BF5B42B3FB45
:1082C000F2F102FB11330093194A1A4B90FBF3F3BE
:1082D000102107A803F04AFBBDE704F13000E6E7F0
:1082E0005A2BDBD1059D18AB7819AAEB0702B11CFC
:1082F000184407F041FA03992A46C8E700212E22C4
:108300000CA80B9107F060FA04F1680318AA322157
:108310000BA803F063FB0BA9404605F0B4FE03A8CD
:1083200005F066FE7BE700BFB8DE0320FB0C0C0007
:10833000FD0C0C00F0F1FFFF38B5094D2B6863B957
:108340006020FBF7A8FE044630B1064B40F8043B22
:10835000FFF712FE6423E3652C60286838BD00BF78
:1083600044E40320100D0C0003F050BB01390B292D
:1083700015D8DFE801F016081606160616160616BA
:1083800006161E20704783070DD1642390FBF3F27D
:1083900003FB120000280CBF1C201D20704700208A
:1083A00070471F2070471C207047F8B50123CB6031
:1083B00090F90430013B0B610023C1E9003306460C
:1083C0000C4617468B602046FFF7CEFF96F9063025
:1083D000A2699A4203D0E3680133E360F3E796F9B8
:1083E0000550012D13D0E3686069013DC5EBC5055B
:1083F0001D44E56096F9041000F26C70FFF7B6FFBB
:108400008542C4BF073DE5602046FFF7ADFF21462A
:1084100006F10800FFF73CFD3846FFF746FD204611
:10842000BDE8F84003F0F2BAF0B590F8583085B0E6
:1084300004462BB9FFF780FF011D201DFFF74FFCFD
:1084400094F93F30002B65D0D4E9182304F1980744
:10845000394602A83E46CDE9022303F0C7FA0FCE03
:1084600004F1C8050FC50FCE0FC533682B6004F1AA
:10847000300102A8FFF786FC02AA394604F1380051
:10848000FFF793FFC4E9240104F1180102A8FFF7E4
:1084900079FC02AA04F1C80104F14800FFF785FF46
:1084A000D4E92465864275EB0103C4E93001D4E9BF
:1084B000182323DAB24273EB050519DA002323608F
:1084C0002068FFF7F5FB04F16801D4E91856019123
:1084D00010BB04F13000FFF7ADFC2D1A66EBE07025
:1084E000CDE90250019902A803F080FA05B0F0BD71
:1084F00082428B41B4BF01230223E0E7824273EB47
:10850000010101DA0323DAE7B242AB41B4BF04232D
:108510000523D4E70623D2E704F11800DBE737B5DB
:108520008D6804466846FFF724FC6A4629462046C3
:1085300004F08EF901A8FEF753F8204603B030BDD1
:1085400037B5CD6804466846FFF713FC6A462946EE
:10855000204604F059F901A8FEF742F8204603B07E
:1085600030BD37B50D6904466846FFF702FC6A4620
:108570002946204604F0F1F801A8FEF731F820461C
:1085800003B030BD704710B510210446FBF787FDDE
:10859000204610BD0368C9B29B68184730B5034D2B
:1085A000C0E90223C0E9005130BD00BF500D0C00EE
:1085B000406803F043BF10B50446006803F099FF1C
:1085C000204610BD2DE9F7430446406801900D4652
:1085D00016461F4603F084FFA7B1E168606841F0CA
:1085E000500103F05EFF290A6068FFF7D3FF2946B8
:1085F0006068FFF7CFFF6068002103F06DFF48B1AE
:10860000002400E0012401A8FFF7D5FF204603B0B5
:10861000BDE8F083202F217B6068B84628BF4FF06B
:1086200020080123424641F0500103F024FF06F0E8
:1086300007FB03681B6998474045E1DB06EB080927
:1086400006F0FEFA03685B69984706F8010B4E4591
:10865000F6D14544A7EB0807BEE72DE9F74F0446DE
:10866000406801900E4690461D4603F039FF4FF0DA
:108670000109B9F1000F2AD04DB3E168606841F0FB
:10868000500103F00EFF310A6068FFF783FF606856
:108690003146FFF77FFFA5F11E0A4746A6EB080B00
:1086A000606817F8011B0368013D9B6898475545B2
:1086B0000BEB0706B84601D0002DF1D1606801210F
:1086C00003F00AFF0028D7D04FF00009D1E701A836
:1086D000FFF771FF484603B0BDE8F08F2DE9F04386
:1086E0008BB00E4615468046406801901C4603F04C
:1086F000F7FEAE4229D2264425448CB11E2C2746D3
:10870000D8F8003028BF1E27F61BD3F8089002AA1D
:108710003B4631464046ED1BC84748B9002400E0BF
:10872000012401A8FFF747FF20460BB0BDE8F08306
:10873000D8F8003002AAD3F80C9029463B464046B0
:10874000C8470028EAD0E41BD7E7E9D9002CE7D0D6
:10875000D8F800301E2C274628BF1E27D3F80890D3
:1087600002AA3B4631464046C8470028D6D0D8F832
:10877000003002AAD3F80C9029463B464046C84731
:108780000028CBD03E443D44E41BDFE703680A7871
:1087900083F8B120012183F8B010704710B442680B
:1087A0000346541001EB6200D20748BF0A591B6808
:1087B0005DF8044B48BFD3581847012A02D1016025
:1087C00000207047022A04BFD1E90023C0E900233A
:1087D000F6E7012A02D1016000207047022A04BF97
:1087E0000B680360F8E7406F02F0BCBCD0F8C830FB
:1087F00001461BB1D0F8CC30C0301847704700009C
:10880000F8B5124D0846002A18BF15460E461F46F9
:1088100007F095F8402816D8284607F090F8B0F5EC
:10882000806F10D84330FBF738FC044648B131461E
:1088300000F8017B07F05DF8294604F1420007F0DB
:1088400058F82046F8BD0024FBE700BF79150C005E
:10885000F0B59FB00A4600230E46011D08A802F09D
:1088600081F80898002107F07FF9054608A805F06F
:10887000BFFB002D60D008A9284607F063F90C9BC8
:108880002E492F483246FEF763FA00221146284649
:1088900007F060F9082206A9284607F079F90C9F2D
:1088A0004A2F39DD274B069A9A4235D1264B079A33
:1088B0009A4231D1A7F1080210460592FBF7EDFB71
:1088C0000446C0B127440146059A284607F060F9DE
:1088D00017F8093CABB9631C1846059307F02FF84D
:1088E0003F28059B0DD804F1420200921749144815
:1088F0003246FEF72DFA284607F01CF920461FB035
:10890000F0BD13490E483246FEF722FA43212046B5
:10891000FBF7C5FB0024EEE7BDF81E3002939DF87F
:108920001D3001939DF81C3000930A49069B0448B2
:108930003246FEF70DFAEDE72C46DFE7640D0C003A
:1089400048E403206376B63101084100780D0C003D
:108950009A0D0C00C80D0C002DE9F8438046284BF9
:1089600048F8043B0446404601F014FF0222642309
:108970000025C4E91B230823E367C4E92055C4E9A3
:108980002255C4E92455C4E92655A5672020FBF7E4
:1089900082FBE66FA067013E760800EB860907467A
:1089A0004FF40070FBF777FB00F50073C4E9250373
:1089B000C4F888304FF4FA614FF47A73C4E92D1388
:1089C00047F2305347F82600C4F88400C4F880000A
:1089D000C4F89000C4E92855C4E92A550949C4F8E7
:1089E0008C90C4F89C90C4F8B050C4F8BC30C4F863
:1089F000C850404601F014FF2046BDE8F88300BF90
:108A0000E40F0C000D0E0C0038B5064D2B683BB979
:108A1000D020FBF740FB044608B1FFF79DFF2C6018
:108A2000286838BD4CE403204269436A9B1A9B10B6
:108A30005A1ED0E906315B1A9B1003EBC213026980
:108A40008068101A03EBA000704738B50546FFF7A1
:108A5000CAFE05F17800FFF7E7FF044650B9281D6C
:108A600002F0D4F9D5F8A03004461BB1D5F8A430F3
:108A700003B90134686F02F07DFB204638BD10B5A4
:108A800002698368043A9342044602D00433A36027
:108A900010BDC0684FF40071FBF701FB63691A1D3C
:108AA00062615B68E36003F500722261EFE700003A
:108AB0002DE9F04F85B00446FFF795FEDFF8A4904E
:108AC000DFF8A4A0DFF8A4B0D4F88030D4F8902068
:108AD000934205D1606F05B0BDE8F04F02F04ABB8C
:108AE00004F1780004F104081F68FFF7C8FF40464E
:108AF00002F030F90023024641460646684601F07E
:108B000031FF009840F2022107F02EF80546684632
:108B100005F06EFAC5B1082269462846CDE9009AEB
:108B200007F048F807F1420006F009FF394600F166
:108B30004302284607F03EF8284606F0FBFF0848A7
:108B400032465946FEF704F93146404602F044F9F0
:108B5000002FB9D043213846FBF7A1FAB2E700BF96
:108B600048E403206376B631010841001B0E0C0077
:108B70002DE9F0410446FFF736FE04F17800FFF7D7
:108B800053FFE36E984202D92046FFF791FFDFF8CA
:108B900044800F4F261D304602F038F9236F98426B
:108BA00004DC606FBDE8F04102F0E4BA0121304618
:108BB00002F0DCF805460028EDD0014600223046E0
:108BC00001F00CFF2A4641463846FBF787FAE2E7F8
:108BD00048E40320380E0C0008B5A0F500630B43F1
:108BE00005D0403850EA01030BD1092A09D10549C3
:108BF0000548FEF7ADF8FFF707FFBDE80840FFF7AF
:108C000057BF08BD4B0E0C0048E4032070B5036845
:108C1000044683B1436A45691E1DAE4206D955F824
:108C2000040B4FF40071FBF73AFAF6E7616820682D
:108C30008900FBF734FA204670BD00001FB5D1E96A
:108C400000230021044602910AB9D90705D5CDE9D0
:108C500000230A4B03930A4B029321466846FEF712
:108C6000FCFE029BA268A360039B02926846E26836
:108C7000E3600392FCF78DF804B010BD9D870B00F4
:108C8000BB870B0070B586B0044602F09FFD48B963
:108C9000434B02A9CDE9023004F1C000FFF7CEFF3B
:108CA00006B070BD94F8B2501DB1012384F8B33002
:108CB000F6E702F097FAD4F8A830C01AD4F8AC302E
:108CC0009842EDD3261D2946304602F04FF8014662
:108CD000C4F8A400002852D02046FFF7B9FD05468D
:108CE000C4F8A000002835D002F07CFA02AE0025BE
:108CF0002C4BC4F8A800314604F1C0000293039540
:108D0000FFF79CFFD4E9283003F142020092264984
:108D1000264AA4F8B050A84208BF0A4601332449A5
:108D2000244884F8B350FEF713F8FEF7D9FDD4F8C1
:108D3000A020214B0593CDE9006511461F4B0294FD
:108D4000049311F8013B4232FEF716FF3046FCF760
:108D500020F8A5E7D4F8A42019491648FBF7BEF976
:108D60000121304602F002F8D4F8A4102A46304619
:108D700001F034FED4F8A030002BB5D195E7D4F83B
:108D80008030D4F890209A4207D01B68C4F8A030F5
:108D900004F17800FFF773FEECE7C4F8A00084E765
:108DA000C58D0B0045910B007A0E0C006C130C0066
:108DB0009B0E0C0048E403208D870B00D3870B002B
:108DC0007E0E0C0013B5044602F000FD90B102F0D7
:108DD00009FAD4F8B430C4F8AC300D4BC4F8A8008C
:108DE00000936946002304F1C0000193FFF726FFBA
:108DF00002B010BD94F8B2301BB1012384F8B33037
:108E0000F6E72046FFF721FE0028F6D0F0E700BF86
:108E1000858C0B0070B5054698B0002002F074FCFC
:108E2000012805D03E493F48FDF784FF18B070BDCA
:108E300005F1740002F086F93B4B04933B4B07931A
:108E400004A93B4B069308A8FCF708F908A90CA84D
:108E5000FCF704F90CA910A8FCF700F90026102073
:108E60001696FBF718F9044660B18660014610A813
:108E7000FEF7F3FD129BA2681292A360E268139BB7
:108E8000E36013922B4B17932B4B16932B4B14949D
:108E900000261020CDE901360396FBF7FCF80446C6
:108EA000D8B1169B866033B1022214A99847179B4C
:108EB000E360169BA360224B0393224A029401AB0A
:108EC0004FF40460002102F0FFFB30B12046FBF7B5
:108ED00060FF10212046FBF7E2F814A8FBF759FFCA
:108EE00010A8FBF756FF0CA8FBF753FF08A8FBF7E9
:108EF00050FF04A8FBF74DFFFEF7F2FCFEF716FE4D
:108F0000281D01F0AFFE2846FFF732FE0E4B1493EA
:108F100014A9002305F1C0001593FFF78FFE85E724
:108F2000BA0E0C0048E40320D98B0B006F4D0B00E8
:108F30005B4D0B00354D0B0085510B0002000C0002
:108F4000A54D0B000D4D0B00C58D0B002DE9F04715
:108F500006468946406A71697368471A09EBA70596
:108F60000135B3EB450F144627D95D1B6D083268F8
:108F7000AD000CB14FEA89042C441444031DA142F6
:108F8000A3EB010213D9994202D0204606F002FC5D
:108F900074612368F36003F500733361E31973624E
:108FA000E359F36103F500733362BDE8F08799423A
:108FB000EED0381D801A2044E8E703F102084B4543
:108FC0002CBF9844C844B8F1005F01D305F0C4FE3B
:108FD0004FEA8800FBF75FF8A8EB05056D088246AD
:108FE000AD000CB14FEA8904726A716904322C44F5
:108FF0009142544403D0521A204606F0CBFB7168CC
:1090000030688900FBF74BF8C6E900A8C0E700000C
:10901000F0B585B004469DF828509DF82C302B43C0
:109020000F461646FFF7ECFB054600283CD03F4BA9
:109030003F494048002E18BF33463A46FDF788FEA8
:109040002046FFF7D0FBD4F89820D4F89030043AAB
:10905000934204F1780629D003B11D60D4F8903012
:109060000433251DC4F89030284601F0CFFE03904C
:109070003046FFF7D9FC029002F0A8FBDDE902328E
:1090800000902D492B48FDF763FE284601F0BEFEF7
:1090900000283BD02046FFF70BFD2046FFF768FD78
:1090A000606F02F067F8012005B0F0BD3046FFF7B1
:1090B000BBFC6FF06043984202D1204805F04FFEA0
:1090C000D4F89C30A26F9A1AE36FA3EBA203012B92
:1090D00004D8002201213046FFF738FF4FF400701A
:1090E000D4F89C70FAF7D7FF7860D4F8903003B1C9
:1090F0001D60D4F89C301A1DC4F89C205B68C4F82D
:10910000943003F50072C4F89820AAE73046FFF7C0
:109110008BFCE36E9842BDD802F058FB0028B9D012
:1091200007490448FDF714FEB7E700BF79150C00A6
:10913000DD0E0C0048E40320350F0C00050F0C0079
:10914000610F0C0073B590F8B0300446002B41D08D
:1091500090F8B130D0F8A420002B3DD050495148B0
:10916000FDF7F6FDD4F8A430D3B1261D002130461A
:1091700001F0FCFDD4F8A430984205460DD1012140
:10918000304601F0F3FD00222946304601F026FC6E
:10919000454944482A46FDF7DBFD0023C4F8A430C6
:1091A000D4F8A00010B14321FAF779FF0023C4F8E6
:1091B000A030D4F8B830C4F8AC303C4B00936946CA
:1091C000002304F1C0000193FFF738FD02F00AF814
:1091D000C4F8A80002B070BD35493248FDF7B8FDAB
:1091E000D4F8BC30C4F8AC30D4F8A4304BB1D4F8C7
:1091F000A00010B14321FAF752FF0023C4F8A030B9
:10920000DBE72046FFF7EFFAD4E92032934213D090
:10921000D4F8A02043F8042CD4F88030043BC4F8E0
:109220008030606F01F0A6FF22491E48FDF790FDD7
:109230002046FFF73DFCC0E704F178052846FFF71C
:10924000F3FB6FF06043984202D11B4805F087FDA5
:10925000D4F88C20A36F9A4204D1012211462846EB
:10926000FFF774FE4FF40070D4F88C50FAF713FF38
:1092700045F8040CD4F88C301A1FC4F88C2053F82D
:10928000043CC4F8843003F50072C4F8882003F568
:10929000FE72C4F88020D4F8A020C3F8FC21C0E7F7
:1092A000740F0C0048E40320870F0C00858C0B0022
:1092B000970F0C00A90F0C00050F0C00014B024A80
:1092C0001A60704748E40320D00F0C0010B5074B1C
:1092D000044640F8C03BFBF75CFD04F17800FFF763
:1092E00095FC201D01F0FEFB204610BDE40F0C0094
:1092F00010B50446FFF7EAFF2046D021FAF7CFFE6B
:10930000204610BD01600271704700680368DB6889
:109310001847006803681B6A1847006803689B6A5F
:10932000184700797047006803689B6B184737B58A
:1093300005460C4619460192FFF7F5FF2868019A89
:1093400003685B69214603B0BDE8304018470068F8
:109350000368DB6B184738B50446006803680D46A0
:109360005B6B984729462046FFF7F1FF257138BD12
:1093700038B50446006803689B689847054618B1ED
:1093800021792046FFF7E7FF284638BD00680368CB
:109390001B6C1847006803685B6C1847006803681B
:1093A000DB6C1847006803681B6D1847006803688A
:1093B0005B6D1847006803689B6D18472DE9F843FB
:1093C000044600680A9F1E4603681B69DDE9089889
:1093D00098470546C8B11EB12046FFF7E3FF30703D
:1093E000B9F1000F04D02046FFF7D8FF89F800003C
:1093F000B8F1000F04D02046FFF7D8FF88F800002E
:109400001FB12046FFF7D6FF38702846BDE8F88325
:10941000012070470379032BFCD001207047002006
:1094200070478171704741717047C1727047017315
:10943000704741737047837B23EA020211438173B3
:109440007047C0797047007A7047407A7047807AD9
:109450007047008A00B27047007970470171704709
:10946000408A80B27047808A80B27047C08A80B2DA
:10947000704738B505460C462B682846DB68984788
:1094800028B9002CF8D0204602F0C8FAF4E738BD1D
:10949000F8B505460F46144601F0A4FE064601F055
:1094A000A1FE801BB8420AD22B682846DB68984789
:1094B00030B9002CF3D0204602F0B0FAEFE70020DC
:1094C000F8BD70B504460E4601F08CFE054601F06D
:1094D00089FE401BB04204D22379032BF7D0012030
:1094E00070BD0020FCE770B5C3690446B3B101F05C
:1094F00079FE64260546236820461B6B984768B1B1
:1095000001F070FEE369401B984209D80A2101204E
:1095100004F097FC704302F081FAECE7012070BD83
:109520000020FCE7064A0260FF210022027141711F
:109530004282C172828281818273C282C26170471B
:10954000F80F0C00704770477047704770474171C3
:1095500070478171704701717047000030B5034D4D
:10956000056001714271837130BD00BF78100C003D
:10957000704710B510210446FAF791FD204610BD42
:109580000EB403B503AB002153F8042B019304F090
:109590001CFC02B05DF804EB03B0704773B50446E1
:1095A00008462279A36832B1A3B90B4902B0BDE8DD
:1095B000704004F001BB094A267B094D0949647BD0
:1095C000012E18BF2946CDE900140749FFF7D8FF3F
:1095D00002B070BD054AEFE7B5100C0079150C001C
:1095E000B1100C00AD100C00CB100C00A4100C003E
:1095F00010B50446FFF7B2FF054B2360054BA3608F
:109600000123237300232361A382204610BD00BFE2
:1096100004110C00F0100C0013B50B4C2178BFF3B3
:109620005B8F11F001010BD120460191FAF746FD45
:10963000019928B1054804F01BFC2046FAF743FDC8
:10964000024802B010BD00BF50E4032054E40320E0
:1096500007B50191FFF7E0FF019903B05DF804EB56
:1096600004F0BEBC08B5FFF7D7FFBDE8084004F022
:10967000BDBC08B5FFF7D0FFBDE8084004F0B7BC9B
:1096800010B50379042B20D0032B20D0022B20D03F
:10969000114A1249012B18BF0A46417983790139D1
:1096A00018BF012133B1012B04D0022B02D0032BB0
:1096B00018BF002300240473026101754375FFF78E
:1096C000ABFFBDE8104004F0DDBB054AE5E7054A05
:1096D000E3E7054AE1E700BF80841E0040420F0037
:1096E0000024F40000127A0000093D0008B5FFF7DD
:1096F00093FFBDE8084004F0D9BB10B50446FFF75E
:109700008BFF04F10801BDE8104004F0FBBB08B575
:10971000FFF782FFBDE8084004F0DABB08B5FFF7A9
:109720007BFF08BD002302481A461946FFF760BFB9
:109730005CE40320012A05D1007A0B781B1A5842F9
:1097400058417047002070472DE9F047254C012310
:1097500086B02370637000230F46A170009303222C
:10976000FF232146064600F0B7FB20B1002528461E
:1097700006B0BDE8F0877A238DF8173001F032FD8E
:1097800006F10409804608F57A6501F02BFD291AD7
:109790000029EBDD002289B24846FFF7BEFD002814
:1097A000F3D00023CDE90233CDE900330DF11702E8
:1097B0002146304600F09AFB05460028E3D09DF88C
:1097C0001730012BDFD994F800A0BAF1020FDAD1DB
:1097D0004846FFF7E7FD534602463946304600F05B
:1097E000F3FAC4E774E40320012A2DE9F3410746A4
:1097F0000E4614463BD94D79022D30D100F10408B4
:10980000C97901914046FFF7CDFD083C2B46024641
:109810000199384600F0D8FAE5B206F108030024B1
:109820002246954204F10104E4B204D913F8012B55
:10983000397A9142F4D104F108010E44A54216D9B7
:1098400016F8011B01914046FFF7ACFD01340246BA
:10985000019902233846E4B200F0B6FAEEE7032D90
:1098600005D1897902B0BDE8F04100F096BA02B0A6
:10987000BDE8F08110B5044600F0E6FA014B236024
:10988000204610BD38110C002DE9F047792A9DF8CB
:10989000209006460F4614461D4625D8FF2B14D1AE
:1098A000DFF84880404600232246394600F8013B55
:1098B00005F062FF621CCDF820902B4641463046F1
:1098C000D2B2BDE8F04700F007BB194600F021FA1C
:1098D0000028E5D1336829469B6830469847002820
:1098E000DED10220BDE8F0870120FBE774E403200D
:1098F0002DE9F04F89B098467A238DF81A300DF192
:109900001F0303930DF11E0302935D4E0DF11D0322
:10991000019307AB0093894617460DF11B030DF128
:109920001A023146DDE912BA054600F0DFFA0446B4
:1099300020B90024204609B0BDE8F08F9DF81A3008
:1099400073B3327862BBB8F1000F03D09DF81B20CF
:1099500088F80020BBF1000F03D09DF81C208BF885
:109960000020BAF1000F03D09DF81D208AF80020D6
:10997000149A1AB114999DF81E200A70159A1AB1FA
:1099800015999DF81F200A703A783E49013BDBB2D9
:109990009A4288BF3B703A78484605F0EDFEC9E729
:1099A0009DF81C20FF2AC4D1012BC2D93278012A8C
:1099B000BFD12A7A9DF81B40A242BAD0DF1E32499D
:1099C000FFB200235FFA83F8474506D911F8010B6F
:1099D000824203F10103F5D1ABE705F104094846E2
:1099E000FFF7E0FC022302462146284600F0ECF98E
:1099F00095F8173193B1224CA31BDBB29F420CD9CF
:109A0000E17805914846FFF7CDFC0599024602230F
:109A1000284600F0D9F90134EEE7B8462B68727891
:109A2000DB681A4928469847044660B1022300249F
:109A300033709DF81A209DF81B3011490094284678
:109A400000F04AFA76E795F8163143457FF671AF94
:109A500095F81731002B3FF46CAF9DF81A202B7A44
:109A600007493E440132F3709DF81B300190D2B299
:109A700000932846FF238DF81A2000F0F7F959E7E4
:109A800074E4032075E4032077E4032076E40320E4
:109A9000F0B585B0054604300E460392FFF782FC10
:109AA000039A07463146284600F04AF90228044640
:109AB00001D005281BD13178284600F06EF9727864
:109AC0002B7A9A4213D00B4C0323237033786370A4
:109AD000717802233A46284600F076F90023009375
