:02000002B0004C
:1040000000400B00D4250C00000006000D00050246
:084010000401A30F00000000F1
:0440180004070C008D
:1040200009480A49884208B505D0094A824202D0A7
:10403000121A0CF05FF80748074A0021121A0CF018
:1040400081F8014808BD00BF6CD90320A8230C00EB
:104050006CDB032070DB0320F4E7032070B5074E10
:10406000074C0BF0A1F9A41BA4080025AC4200D119
:1040700070BD56F8043B98470135F7E738230C002C
:104080007C230C0001F070B808B501F06FF9BDE8B1
:1040900008400BF041B908F0F3B808F0F1B808F0A7
:1040A000F7B8000008B5034A03490C2007F074FF75
:1040B000FEE700BF39BB0B0018070C000078B0FA10
:1040C00080F040097047012303707047704710B5B6
:1040D00004210446FFF7E3FF204610BD10B5034B53
:1040E0000360044603F006FD204610BD1C0C0C00C6
:1040F00010B50446FFF7F2FF20464FF46F71FFF74B
:10410000CEFF204610BD0EB400B58CB00DAA4FF006
:10411000200C52F8041B0392CDE900120023016821
:1041200004AA1E20CDE904C307F046FF0CB05DF8D9
:1041300004EB03B07047000010B5064C236833B998
:104140000420FFF7A8FF08B1034B0360206020683C
:1041500010BD00BF74DB03202C0C0C0030B53148BF
:1041600087B00D4606F097FA044630B92E492F481D
:10417000FFF7C9FF204607B030BD9FED2D0A2D483F
:1041800006F082FD2B480022172106F0F7FE8DB1C4
:1041900001F058FC002101F0DFFD02A807F0D0FF7C
:1041A000029A25492148FFF7AEFF02A80AF0D2FB88
:1041B0002C46DFE701F046FC01F06AFDF0B101F0AA
:1041C00041FC01F065FD0A2818D801F03BFC01F024
:1041D0005FFD0146194805F08AFD184805F06DFDA0
:1041E000019002A807F0ACFFDDE9012314490F4854
:1041F000FFF789FF02A80AF0ADFBBBE701F022FC44
:104200000B2101F0A9FD0B210C4805F070FD0B48B6
:1042100005F053FD019002A807F092FFDDE90123AC
:104220000849E4E7E8E003202D070C0058E60320E6
:1042300000C06444FCDB032039070C00ECE00320E1
:1042400073070C00AA070C0010B5064CC0B00DF1A6
:10425000030201A9204606F093FC0028F7D140B0E4
:1042600010BD00BFFCDB0320014806F076BC00BF98
:10427000FCDB032037B52A4C01F034FCB4F8031002
:1042800049BA89B201F01CFE01F02CFCB4F805100B
:1042900049BA89B201F01AFE01F024FCE17901F07B
:1042A000A3FD01F01FFC217A01F080FD01F01AFC52
:1042B0000546607A0BF05AFB41EC100B284601F0E2
:1042C0004BFC01F00FFCA17A01F076FD01F00AFC35
:1042D000E17A01F077FD01F005FC217B01F078FD2A
:1042E00001F000FC04460F4805F07FFD81B2204636
:1042F00001F0E0FD01F0F6FB01F001FD019001F09D
:10430000F1FB01F0E3FC019A074903460748FFF778
:10431000FAFE074B042201201A7003B030BD00BF23
:1043200080DB0320FCDB0320F1070C0058E60320B0
:1043300070DB03202DE9F047534E544C3368544F43
:1043400088B0013333600AF0B8FE0016A0700AF09E
:10435000B4FE0014E0700AF0B0FE001220710AF002
:10436000ACFE607101F06EFB01F05BFD000AA07114
:1043700001F068FB01F055FDE07101F0B3FB01F0C5
:104380003BFE00252072657201F0ACFB01F0B7FC2A
:10439000627A404BA072AA4208BF1F4601F0A2FBFE
:1043A00001F094FC94F80A9080460AF086FE0246DA
:1043B000C31704A80AF07CFDDDF810A001F042FB51
:1043C00001F02FFD3A463449CDF800904346CDE93F
:1043D00001A03248FFF797FE04A80AF0BBFA304B61
:1043E0001F88012138460BF078F801F07BFB01F0C3
:1043F0006DFC04220346009221462A480B2205F058
:104400000FFF294B0446186804BB013018600BF0FD
:10441000BDFA8046306889460BF0B8FA02460B4672
:10442000404649460BF046FC204B00220BF018FB9F
:1044300002460B4619481E49FFF765FE38462146DD
:104440000BF04BF8012008B0BDE8F0870BF09EFAA6
:104450008046306889460BF099FA02460B46404682
:1044600049460BF027FC114B00220BF0F9FA0246EB
:104470000B460A480F49FFF746FE384629460BF01F
:104480002CF82846DFE700BF7CDB032080DB03201D
:1044900018080C008D1F0C0027080C0058E603209C
:1044A000B0100C00E8E0032078DB03200000594046
:1044B00071080C00A5080C00F0B587B001F0C2FA35
:1044C00001F0AAFC404C000A207001F0BBFA01F098
:1044D000A3FC60700AF0F1FD0016A0700AF0EDFD7B
:1044E0000014E0700AF0E9FD001220710AF0E5FD09
:1044F000607101F0A7FA01F094FC000AA07101F0CC
:10450000A1FA01F08EFCE07101F0ECFA01F0DEFBA3
:10451000207201F0E7FA002501F0D8FB657201F086
:10452000E1FA01F0D8FB06460AF0C7FD0246C317C0
:1045300002A80AF0BDFC029F01F084FA01F071FCB0
:1045400033462A462149CDE900702148FFF7DBFDBB
:1045500002A80AF0FFF91F4B1E88012130460AF01D
:10456000BCFF22461C491A48FFF7CDFD01F0BAFAFC
:1045700001F0B1FB022203460092214617480A22AD
:1045800005F04EFE0446A8B915491148FFF7BBFDDA
:1045900001F0A8FA054601F0A5FA01F097FB0146E3
:1045A000284601F0FDFB304621460AF096FF012027
:1045B00007B0F0BD0B490648FFF7A5FD3046294678
:1045C0000AF08BFF2846F3E780DB0320D4080C00B9
:1045D00058E60320B0100C001F090C00E8E003208F
:1045E0002B090C004A090C0010B501F07BFA134BA3
:1045F000997801F0F3FB01F075FA04460AF05DFDCD
:10460000C3170246204601F0DBFC01F06BFA0446BA
:104610000B4805F0EAFB81B2204601F04BFC01F0AB
:1046200061FA01F053FB074902460748FFF76BFDAB
:10463000064B06221A70012010BD00BF80DB03204C
:10464000FCDB032064090C0058E6032070DB032028
:1046500070B588B001F0F6F901F0DEFB324C000ACB
:10466000207001F0EFF901F0D7FB60700AF025FD32
:104670000016A0700AF021FD0014E0700AF01DFD84
:10468000001220710AF019FD607101F0DBF901F0F0
:10469000C8FB000AA07101F0D5F901F0C2FB234B61
:1046A000E0711E8800250121257230460AF015FFB1
:1046B00001F018FA01F00AFB062203460092214697
:1046C0001B48092205F0ACFD044610BB01F00AFAB4
:1046D00001F0FCFA05460AF0F0FC0246C31704A8F4
:1046E0000AF0E6FB049B039301F0ACF901F099FB9F
:1046F000039B104900902A460F48FFF704FD04A8C9
:104700000AF028F9304621460AF0E7FE012008B0F9
:1047100070BD0A490848FFF7F6FC304629460AF002
:10472000DCFE2846F3E700BF80DB0320B0100C005E
:10473000E8E0032089090C0058E603204A090C0030
:1047400010B5134C134B22781349144803EB021293
:10475000FFF7D9FC2378042B0CD02378022B04D14B
:10476000FFF7EAFCFFF7A8FE50B92378062B09D023
:10477000002006E0FFF7E0FCFFF7DCFD0028ECD0AE
:10478000012010BDFFF7D8FCBDE81040FFF760BF67
:1047900070DB03206CD90320CC090C0058E6032001
:1047A00010B5034904460AF020F9204610BD00BFA9
:1047B000F1090C0037B504461546019103F056FC8B
:1047C00001990122204603F0BFFB20463A2103F065
:1047D0006FFB04492A46204603B0BDE8304003F091
:1047E000A6BB00BFB3140C0013B50F4C19230093E4
:1047F00004F12C0104F50B734FF40072204603F012
:104800009FF90A4B23600A4A0A4C0B490B4B12785A
:104810000978204606F0FAF909480022214602B03C
:10482000BDE8104005F0F2BC2CDD03201C0C0C0090
:10483000B6100C00FCDB0320B4100C005CE4032079
:10484000E8E003202DE9F04196B00E4602A8554954
:10485000554DDFF86C810AF0C8F8534803F08BF926
:10486000524A014601AB504803F0DCFA0124019999
:10487000621E284603F0A1F90746002866D14C497C
:104880004C48FFF740FC69684A48FFF73CFC464942
:1048900006A803F00FFC3346224647494548FFF778
:1048A00032FC414803F05CF9014606A803F014FC11
:1048B0007D227B2106A803F0E4FB22463F4906A89F
:1048C000FFF778FF06A803F0D1FB012206A83C49B8
:1048D00003F03AFB06A83A2103F0EAFA3146012236
:1048E00006A803F031FB0AF0E8FB064606A803F031
:1048F000BDFB012206A8334903F026FB06A83A2196
:1049000003F0D6FA324606A82F4903F010FB2F49D0
:10491000032206A8FFF74EFF06A803F0D7FA06A861
:1049200003F035FE6A682A492248FFF7ECFB01F0E4
:1049300055F9696801F078F9224626491D48FFF7C4
:10494000E2FB06A8E4B203F0C1F81EE0014606ABA4
:104950004246284603F066FA20B1069902AA284684
:1049600003F042FA314602A80AF005F9A0B1134A51
:104970000D4806AB394603F055FA20B106990A48AE
:104980006A4603F073F99DF8004002A809F0E2FFBF
:10499000204616B0BDE8F08101340B2C7FF467AFE0
:1049A00071E700BF8D1F0C002CDD03200A0A0C00EC
:1049B000100A0C0058E603202C0A0C00270A0C00F1
:1049C000230A0C006E0A0C0088170C00EC090C007E
:1049D000730A0C007F0A0C00F0B5314B02221A70EA
:1049E00091B0304B09AC064603F11802274618680F
:1049F0005968254603C5083393422C46F7D11B78E6
:104A00002B7001F06FF8044601F06CF801F05EF9CC
:104A10000146204601F0C4F901F064F801F056F9AE
:104A20000A281DD901F05EF8394604463046FFF7E2
:104A300009FF0146204601F0ADF901F053F801F0FD
:104A40004AF9039001F04EF801F040F9039B009001
:104A5000154916483A46FFF756FB012011B0F0BD44
:104A600001F040F8124C01F031F90023E376FFF732
:104A700063FB104905A809F0B8FF059A039201F0FD
:104A800031F801F023F9E17E00910346039A0A49C7
:104A90000648FFF738FB05A809F05CFFDDE700BF1B
:104AA00070DB032082DB0320920A0C0058E603200F
:104AB00080DB0320F1090C00D50A0C0070B588B02A
:104AC00079238DF81A300DF11F0303930DF11E03A6
:104AD000464E02930DF11D03019307AB009344482A
:104AE0000DF11B030DF11A02314605F0CDFB10B993
:104AF000002008B070BD9DF81A300024F4543588A9
:104B000000F0A0FF01F088F96DBAADB2A8420ED056
:104B1000328852BA92B2059200F094FF01F07CF90B
:104B2000059A344903463448FFF7EDFAE0E700F010
:104B3000D9FF9DF81B10314C01F02CF99DF81E3067
:104B400003F00F03237000F0CDFF01F0BFF80590D4
:104B50002B4805F04AF99DF81F1002919DF81A1094
:104B60000191034627492078059A01EB0011009135
:104B700021482549FFF7C7FA2378032B2ED0237845
:104B8000012B05D1FFF7D8FAFFF726FF0028AFD099
:104B90002378052B05D1FFF7CFFAFFF725FD002875
:104BA000A6D01A4B1A7882B100221A7000F04AFF80
:104BB000174B198801F072F900F044FF01F031F948
:104BC000144902460C48FFF79EFA13490A48FFF7BA
:104BD0009AFAFFF7B1FAFFF7B3FD8AE7FFF7ACFAED
:104BE000FFF748FB0028CAD182E700BF80DB032023
:104BF000E8E003202D0B0C0058E6032070DB0320B7
:104C0000FCDB03206CD903207F0B0C0009E403209C
:104C100088DA0320C00B0C00F40B0C00014B1A6067
:104C2000704700BFE4D90320014B01221A7070477E
:104C3000DCE3032030B585B00446089860B14068D5
:104C400050B1856845B1CDE90241CDE90023C46882
:104C500001AB6A4602A9A04705B030BD30B585B0AA
:104C6000006813680193D1E900458368CDE90245E6
:104C70000BB90AF035FDC36801AA02A9984705B02F
:104C800030BD012A02D1016000207047022A04BF12
:104C90000B680360F8E703681268D1E90001184760
:104CA00008B5002007F064FA28B107F041FA80F057
:104CB0000100C0B208BD0120FCE710B583680446BE
:104CC00013B1032201469847204610BD10B5044693
:104CD00038B1FFF7F2FF20461021BDE81040FFF782
:104CE000DEB910BD38B500F0ADFE01F09AF804460B
:104CF0000AF0C6F9F0B1104B1B78DBB90AF0DDF908
:104D00003C256543B0FBF5F404FB15002C1A092C77
:104D10000ED9AC4228BF2C4600F094FE01F081F879
:104D20000649024623460648FFF7EDF9204638BDFE
:104D30000A24F1E70A24F9E7DBE30320340C0C0032
:104D400058E6032070B51C4E1C4C32781C4D022ACC
:104D5000C4B028D10AF094F932782B7858B904EB12
:104D600002120092174A04EB03134FF4807104A857
:104D700007F0AEFA0FE004EB0313039304EB021405
:104D8000FFF7B0FF039B104ACDE900404FF480715C
:104D900004A807F09DFA33780C482B7004A9FFF79C
:104DA000B2F944B070BD2B7804EB0212009204EB10
:104DB0000313074AD9E700BFDAE30320E8D9032049
:104DC000D9E30320680C0C00880C0C0058E6032083
:104DD000A50C0C002DE9F04F2DED028B0446D3B04D
:104DE00000286CD0FFF7A8F9224601460EA8FFF76D
:104DF000D7FC0E9B0D9300F075FE01F021F80446E0
:104E000000F070FE01F021F8054600F06BFE00F0A6
:104E100080FF064600F066FE00F07EFEB0EE408A9F
:104E2000F0EE608A00F05EFE00F05FFF4E4A52F83E
:104E300020B000F057FE00F053FF074600F052FE8E
:104E400000F058FF804600F04DFE00F0F4FF814670
:104E500000F048FE00F053FF82460AF02EF90D9B49
:104E6000424A00944FF48071CDE90AA0CDE9088947
:104E7000CDE906B78DED048BCDE9015612A807F0F8
:104E800027FA0EA809F066FD04F08AFA384B394A71
:104E90001B7812780021134302688DF804108DF8F6
:104EA0000030354914683C2312AAA047334812A9A0
:104EB000FFF729F953B0BDEC028BBDE8F08F0EA8C7
:104EC00007F03EF90E9B0D9300F0BCFD00F0F9FEDB
:104ED000054600F007FE00F01FFEB0EE408AF0EE3F
:104EE000608A00F0FFFD00F000FF1F4A52F820A08A
:104EF00000F0F8FD00F0F4FE064600F0A3FD00F01F
:104F0000CCFE074600F09EFD00F090FF804600F0CA
:104F100099FD00F0C7FE81460AF0CFF80D9B134AB9
:104F200000944FF48071CDE90A90CDE90145CDE9B7
:104F30000878CDE906A68DED048B12A807F0C8F914
:104F40000EA809F007FD04F02BFA094B094A1B785B
:104F500012780B49134302688DF800308DF8044035
:104F600014683C2312AAA0E78CDA0320B30C0C00CF
:104F70009CE203209DE203204A0D0C0058E603202A
:104F80005F0D0C0038B5002383608B6804460D4626
:104F90002BB102229847EB68E360AB68A360204620
:104FA00038BD00002DE9F04395B005461C9904A8D2
:104FB00090461F460CAEFFF7E5FF04A908A8FFF7CF
:104FC000E1FF08A93046FFF7DDFF4FF00009102090
:104FD000CDF84890FFF75FF80446A0B196E80300CB
:104FE00001AB83E8030094E8030086E8030093E83C
:104FF00003000E9BE268A36084E803000F9BCDF8DA
:1050000038900F92E360244B1393244B12930022A9
:1050100000234FF00009C5E90023214BC5F8089093
:1050200010201094CDE90139CDF80C90FFF733F83A
:105030000446D8B1129BC0F8089033B1022210A9DF
:105040009847139BE360129BA360164B0393164A89
:10505000029401AB4046394606F0E8FFB0B1204665
:10506000FFF72BFE10212046FFF719F810A8FFF7D5
:1050700024FE3046FFF721FE08A8FFF71EFE04A815
:10508000FFF71BFE284615B0BDE8F083029BAB601E
:10509000C5E90087EAE700BF5D4C0B00AD500B008F
:1050A00002000C00CD4C0B00354C0B00012A37B52B
:1050B000044604D10B680360002003B030BD022A0F
:1050C0000CD0032AF8D10468002CF5D02046FFF755
:1050D000F4FD10212046FEF7E2FFEDE7096801919B
:1050E0001020FEF7D8FF054610B10199FFF74AFFDF
:1050F0002560E1E7164B10B501241C70154B082202
:105100001A700AF083F900231A4619460AF08EF93C
:105110000AF07CF900231A460D210AF07FF90E4BA4
:105120001A1D1A600D4A5A600022C3E902221A6150
:105130001C750AF043FA69220146094801F036FD60
:105140000848062340F8043BBDE8104003F0E0BBEC
:105150009CE203209DE20320D0E203201000030024
:10516000B0E20320E8E20320F0B500209DB006F095
:10517000FBFC42F210750446002006F0F5FC001B13
:1051800061F10001A84271F1000307D20AF07CF836
:105190000AF06FF810B906F0BBFFEDE70AF074F8FB
:1051A0000AF067F800F070FF00F09AFF00F09AFC38
:1051B00003685B4E1B685B4F984700F043FC036835
:1051C0001B68984700F00AFD03681B68984700F0C9
:1051D00031FD01F071F8082301213046738102F09E
:1051E000E1F97C21304601F0DFFD4F4B06934F4B38
:1051F000099306AD4E4B08934FF48022002302A87A
:105200000095FFF7CFFE2846FFF757FD04F0C8F8DA
:1052100004F0CCFAFEF790FF0121FEF79FFF03F0A8
:1052200057FD44490446284603F024FC07A904F12D
:10523000080009F016FC0C9BE3610DA904F12000A5
:1052400009F00FFC129B6363149BE363169B63647A
:10525000189BE3641A9B63659DF86C3084F85830A2
:10526000284603F0C3F909F028FFC317C7E918035C
:10527000384603F0A5FD09F003FF2F4C002843D06A
:1052800039462E4A284603F085FC01231A46102190
:105290003046069F01F009FE29492A4B3A4600286C
:1052A00018BF0B4628482949FEF72DFF284609F06C
:1052B00051FB274B1E8830460AF028F9054650BBA3
:1052C00024492148FEF71FFF234B01211970234B6E
:1052D0001F8838460AF001F94FF4FA6007F050F8D9
:1052E000294638460AF0F9F80423237000224FF0CB
:1052F000FF331B490092304607F0B8FD23780BB905
:10530000022323701DB0F0BD16490F48FEF7FBFEC7
:1053100005232370CDE714490B48FEF7F4FEE5E7BB
:10532000B0E20320E8E203201D4C0B00974C0B0079
:10533000834C0B00810D0C00DAE30320A80D0C0058
:10534000770D0C007A0D0C0058E60320B30D0C000D
:10535000B2100C00220E0C00DBE30320B0100C0096
:10536000294C0B00E40D0C00410E0C002DE9F0411E
:105370007D4D2B78013B90B0062B17D8DFE813F05A
:105380005002070033000C01BF013302A601774B26
:105390001B78022B01D0FFF7D5FC754B1A781AB198
:1053A00000221A70042300E003232B70714802F0DE
:1053B000A7F803F0F5FF03F0E5FE00F093FB00F023
:1053C000A1FB00F03FFB00F065FB00F007FC00F0E4
:1053D00022FC694B1B68002BC0F2568210B0BDE85E
:1053E000F04109F076BC614B1B78032B01D0FFF72D
:1053F000A9FC00215F48614C01F0D6FCFFF772FC6C
:10540000074609F05AFEC219D31708A809F050FD43
:10541000089B029309F0C0FC029B594900903A4650
:105420005848FEF770FE08A809F094FA4FF4FA60A5
:1054300006F0A6FF237D002B50D002232372524B8F
:10544000B3F800802368DB68F3B19A88012A06D09C
:105450009B68F9E79B68BBB19A88012AFAD19A89BF
:105460004245F7D100229A73237D002B36D0236862
:105470004FF47A78DB6808FB07F8DBB19A88042AD6
:1054800000F0FD819B68F8E7404910200AF01EF902
:105490000646002800F0F681102200210AF052FE94
:1054A0003B4B33600123B3802369B360A6F80C80C3
:1054B0002661D9E7354910200AF008F90646002888
:1054C00000F0E081102200210AF03CFE304B3360F6
:1054D0000423B38023692661C6E90238274905A859
:1054E00009F0FAFB4FF0FF31224801F05DFC00208B
:1054F00006F03AFB42F210760446002006F034FB38
:10550000001B61F10001B04271F1000307D209F004
:10551000BBFE09F0AEFE10B906F0FAFDEDE709F0AA
:10552000B3FE09F0A6FE02232B70114B01221A7064
:1055300009F0C3FDC219D31708A809F0B9FC089AED
:10554000029209F029FC029A124903460D48FEF71F
:10555000DAFD08A809F0FEF9059800283FF426AF07
:1055600006F096FE22E700BFDAE30320D9E303202A
:10557000D8E30320B0E20320E4D90320D0E20320E3
:105580006B0E0C0058E60320B2100C0014210C0026
:1055900010000300AB0E0C00BD4B1B78042B62D037
:1055A000072B03D006F0D0FABA4B1860FFF7CAFBFE
:1055B000FEF7C2FDFEF748FE09F07FFDB64CC317AB
:1055C000C4E91803204603F0FBFB04F1680105A8B9
:1055D00003F088FA9DF9186000F034FA00F067FBD8
:1055E00086426DDB04F1680108A803F07BFA9DF99F
:1055F000246000F027FA00F05FFB864208A8ACBFE9
:105600000026012602F0E2FF05A802F0DFFF002ECF
:1056100058D000F067FA012100F017FD00F062FA9F
:1056200000F0EAFC9D4B9E4A9E49002808BF1A469E
:1056300008A8039203F056FA9DF92430029300F073
:1056400001FA00F034FB044600F0FCF900F034FBF2
:10565000DDE90232CDE9004093499448FEF753FD5D
:1056600008A802F0B3FFFEF767FDFFF727FA38B18D
:1056700000F038FA00F048FB01281CBF07232B700C
:105680008B4B1B78002B7FF491AE06F05DFA814BBB
:105690001B68C01A874B98427FF688AEFEF74CFD18
:1056A000FEF7E2FD09F01AFD044600F0CBF900F028
:1056B0002AFC09F0D9FB844200F0B080052374E68F
:1056C0000026A1E700F00EFA3146A5E7704B1B78E3
:1056D000072B01D0FFF736FB00F004FA00F0F6FAD2
:1056E000FFF778FB00F0AEF9044600F0ABF900F0EC
:1056F000D9FA0130C1B2204600F03AFB52E6644BC1
:105700006D4C1B78052B25D0FFF71CFB00F09AF998
:1057100000F0F9FB09F0B0FB6249064608A803F067
:10572000FEF99DF82330B6EBD30F05D000F01EFC38
:1057300062495E48FEF7E7FC00F084F900F0A8FA41
:10574000FFF748FB06F0F4FC08B906F0E9FC06F0A8
:10575000FBF9206006F0ECFC38B300F073F9064664
:1057600009F0ABFC0246C317304600F0F5FB00F031
:1057700069F9064606F0E8F92168411A4FF47A7093
:10578000B1FBF0F1304689B200F082FB06F0D0FCAC
:1057900038B306F0CDFC10B1002006F0E1FCFFF7B5
:1057A0007FFA50B906F0B4FCF9E706F0CDF92368AA
:1057B000C01A434B9842D0D8F8E5FFF771FA414937
:1057C00008A806F057FE00F03DF9044608A806F0C8
:1057D000CDFEBCEEC00A204610EE103A99B200F0A1
:1057E00063FB0623E1E52A4B374C1B78062B04D0DC
:1057F000FFF7A8FA06F0A8F9206006F0A5F92368DB
:10580000C01A324B98427FF6D1AD03F0C9FD90F833
:10581000B330002B3FF4CAAD00F0E2FF0223C4E531
:105820002B4C2C4E2378BFF35B8F13F0010F09D163
:105830002046FEF743FC28B106F086F9306020468A
:10584000FEF741FC124B2A781B789A4201D0FFF7F1
:1058500079FA06F079F93368C01A47F23053984262
:105860007FF6A4AD1C491148FEF74DFC4FF4FA60D9
:1058700006F086FD1E21194801F0F0FB96E5C3F8FD
:105880000C802BE6267529E610B0BDE8F08100BF3C
:10589000D9E30320A4E20320E8E20320640E0C0015
:1058A0005F0E0C0050E30320CC0E0C0058E60320E2
:1058B000DBE30320F0490200A8E20320150F0C00EF
:1058C000C027090084E50320ACE20320905F0100BB
:1058D00098E20320A0E20320340F0C00B0E2032082
:1058E00010B5034B0360044603F018FB204610BDBF
:1058F000E40F0C0010B50446FFF7F2FF204610211C
:10590000FEF7CDFB204610BD10B5036804460BB969
:1059100006F0CAF82068BDE8104006F0D5B838B5E2
:1059200004460430FFF7F0FF206A616A0368DD680F
:10593000D4E90223A8476068BDE8384006F0CCB837
:1059400038B504460430FFF7DFFF206A616A036858
:105950009D68D4E90223A847A2682368D1885B69BF
:105960002046984718B9236820469B699847606885
:1059700006F0B2F8012038BD10B5044B03600446B0
:10598000406808B106F098F8204610BD081E0C00CB
:1059900010B5034B03600446FFF7EEFF204610BD31
:1059A0002C100C0010B50446FFF7F2FF20466821CA
:1059B000FEF775FB204610BD10B5034B036004468F
:1059C000FFF7DAFF204610BD58100C0010B5044652
:1059D000FFF7F2FF20467021FEF761FB204610BD65
:1059E00010B5034B03600446FFF7C6FF204610BD09
:1059F00000100C0010B50446FFF7F2FF20464FF4EC
:105A00008761FEF74CFB204610BD000000F1280125
:105A1000816009494FF0400CC0E903C10121818236
:105A20004FF47A71C16105490022C0E90812426051
:105A30008261034A02607047759EA920ECE303204F
:105A40002C100C0010B5064C23683BB96820FEF7FB
:105A500022FB034608B1FFF7D9FF2360206810BD81
:105A6000E4E3032008B5006A03F06EFAFFF7EAFFEB
:105A700003685B689847BDE8084000F069BB10B553
:105A8000006A03F061FAFFF7DDFF0368BDE810402C
:105A90005B68184710B5FFF7D5FF0368BDE81040F5
:105AA000DB68002118470000002200F12801426055
:105AB00082614FF47A728160C2610749074A0262CB
:105AC0004FF0480C3222C0E903C142620121044A6E
:105AD00081820260704700BF749EA920ECE303201E
:105AE00058100C0010B5064C23683BB97020FEF727
:105AF000D2FA034608B1FFF7D7FF2360206810BD34
:105B0000E8E3032010B5FFF79DFF0368BDE81040F0
:105B1000DB6800211847000010B504462DED028B0C
:105B20000430FFF7F1FEE368083B172B0CD9A3689C
:105B300093ED068B606805F0CFFFB0EE480AF0EEFB
:105B4000680ABDEC028B10BD9FED018BF2E700BF30
:105B50000000000000000000F8B50446043057ECD7
:105B6000106BFFF7D1FEE368083B172B12D9A5682D
:105B70003046D5E9062339460AF0DAF950B9C5E9C5
:105B800006672046A56805F09FFEA86023682046AA
:105B90001B6998476068BDE8F84005F09DBF0000AC
:105BA000002200F12801426082614FF47A72816024
:105BB000C2610749074A02624FF4826C9622C0E92B
:105BC00003C142620221044A81820260704700BF21
:105BD000609EA920ECE3032000100C0010B5074CD8
:105BE000236843B94FF48760FEF755FA034608B1BE
:105BF000FFF7D6FF2360206810BD00BFE0E303205D
:105C000010B5006A03F0A0F9FFF7E8FF0368BDE8EC
:105C100010405B68184710B5FFF7E0FF0368BDE868
:105C20001040DB68002118470B464FF480621021BA
:105C300005F062BE1FB50A49684608F0D6FEFFF7B8
:105C4000CDFF0099FFF7F0FF009A06490648FEF7DE
:105C50005AFA684608F07EFE05B05DF804FB00BF06
:105C60004B0F0C009C0F0C0058E6032038B504467F
:105C700004300D46FFF748FEE3686068013BAB4225
:105C800026BFA3685D5D002505F026FF284638BDC8
:105C900008B51021FFF7EAFF08BD08B51521FFF789
:105CA000E5FF08BD08B51621FFF7E0FF08BD08B500
:105CB0003821FFF7DBFF08BD08B53921FFF7D6FF14
:105CC00008BD08B53B21FFF7D1FF08BD08B510217D
:105CD000FFF7CCFF08BD08B51121FFF7C7FF08BDCE
:105CE00008B51221FFF7C2FF08BD08B52021FFF754
:105CF000BDFF08BD08B52121FFF7B8FF08BD08B5F5
:105D00002421FFF7B3FF08BD08B53421FFF7AEFF2C
:105D100008BD08B54121FFF7A9FF08BD70B50446CD
:105D200004300D461646FFF7EFFDE368013BAB423A
:105D30000DD3A3685A5DB24209D05E552046A568CE
:105D400005F0C2FDA860236820461B69984760687B
:105D5000BDE8704005F0C0BE08B50A461021FFF747
:105D6000DDFF08BD08B50A461521FFF7D7FF08BDBE
:105D700008B50A461621FFF7D1FF08BD08B50A4647
:105D80003821FFF7CBFF08BD08B50A463921FFF7D8
:105D9000C5FF08BD08B50A461021FFF7BFFF08BDC3
:105DA00008B50A461121FFF7B9FF08BD08B50A4634
:105DB0001221FFF7B3FF08BD08B50A462021FFF7FF
:105DC000ADFF08BD08B50A462121FFF7A7FF08BDB2
:105DD00008B50A462421FFF7A1FF08BD08B50A4609
:105DE0003421FFF79BFF08BD08B50A464121FFF7A4
:105DF00095FF08BD38B5044604300D46FFF784FD15
:105E0000E3686068023BAB4226BFA3685D5B002588
:105E100005F062FE284638BD08B51221FFF7EAFFFB
:105E200008BD08B52A21FFF7E5FF08BD08B53C21EC
:105E3000FFF7E0FF08BD08B52221FFF7DBFF08BD33
:105E400008B53021FFF7D6FF08BD08B53221FFF7AE
:105E5000D1FF08BD70B5044604300D461646FFF765
:105E600053FDE368023BAB420DD3A3685A5BB242D9
:105E700009D05E532046A56805F026FDA86023687A
:105E800020461B6998476068BDE8704005F024BE55
:105E900008B50A462821FFF7DDFF08BD08B50A4608
:105EA0002A21FFF7D7FF08BD08B50A463C21FFF7B6
:105EB000D1FF08BD08B50A462221FFF7CBFF08BD78
:105EC00008B50A463021FFF7C5FF08BD08B50A46E8
:105ED0003221FFF7BFFF08BDF8B5044604300D4678
:105EE000FFF712FDE3686068083BAB4223BFA1687F
:105EF0004919D1E90067002638BF002705F0ECFDFD
:105F000030463946F8BD08B52021FFF7E5FF08BD4A
:105F1000F8B5044604300D461E461746FFF7F4FC5C
:105F2000E368083BAB4212D3A3685A195859516829
:105F3000B14208BFB8420AD05F5120465660A568FA
:105F400005F0C2FCA860236820461B69984760687A
:105F5000BDE8F84005F0C0BD08B52021FFF7D8FF27
:105F600008BD08B52821FFF7D3FF08BD10B51249B9
:105F70001248FEF7C8F8FFF7B5FD0021FFF7A6FFAE
:105F8000FFF7B0FD0021FFF79BFFFFF7ABFD0446D5
:105F900009F093F80246C3172046FFF7E2FFFFF728
:105FA00051FD0021FFF7DEFEFFF74CFDBDE810407C
:105FB0000021FFF7DDBE00BFBA0F0C0058E603203A
:105FC00008B53821FFF7A4FF08BD38B504460430F2
:105FD0000D46FFF799FCE3686068013BAB4226BFC2
:105FE000A3685D5D002505F077FD284638BD08B53E
:105FF0003A21FFF7EAFF08BD08B54021FFF7E5FFAA
:1060000008BD70B5044604300D461646FFF77CFC0B
:10601000E368013BAB420DD3A3685A5DB24209D09D
:106020005E552046A56805F04FFCA8602368204611
:106030001B6998476068BDE8704005F04DBD08B524
:106040000A463A21FFF7DDFF08BD08B50A464021A0
:10605000FFF7D7FF08BD0000084B012210B51A70EA
:1060600009F0ACFA064C014600234FF400522046DA
:1060700002F060FF034B236010BD00BFDDE303208F
:10608000ECE30320E40F0C0008B513491348FEF7B6
:106090003AF80221042009F00FFA0021082009F043
:1060A0000BFA0121072009F007FA0021122009F05C
:1060B00003FA0121112009F0FFF90121102009F054
:1060C000FBF90021102009F008FA0021112009F045
:1060D00004FA012008BD00BF7C100C0058E6032024
:1060E00010B51849184890B02024FEF70CF8224645
:1060F000002168460AF026F8224600210DEB040034
:106100008DF805400AF01EF800210DEB04008DF813
:10611000254005F0CFFF41F2D833ADF806300B4BE8
:10612000029341F27003ADF80C30009B002143F460
:1061300000736846009305F0BDFF003818BF0120CA
:1061400010B010BD95100C0058E6032084038403A2
:1061500008B505490548FDF7D6FFFFF773FCBDE814
:1061600008400A21FFF79ABEBA100C0058E6032037
:106170007047006A0368DB68184700001FB50446D3
:10618000FFF760FCFFF74DFE064A03461021684604
:1061900006F09EF86946204608F027FC204604B029
:1061A00010BD00BFD9100C0030B585B003461446B1
:1061B00068460D4698470298206006F061F828600E
:1061C00050B12268009909F095FF0024684608F054
:1061D000C1FB204605B030BD004CF7E7FCFEFFFFD9
:1061E0000023042205F084BF0A4B10B50446036067
:1061F00007F024FA214607F028FC09F045F809F0D9
:1062000035F82046044B40F8043B07F0B9FA204625
:1062100010BD00BF60130C0048130C0010B50446FD
:10622000FFF7E2FF20462421FDF739FF204610BD8D
:1062300007B501230822CDE900234FF47A7100232A
:1062400041436A46184605F0A3FF03B05DF804FB1E
:1062500010B5FFF7F7FBFFF72AFD78B9FFF7F2FB60
:10626000FFF72AFD182809D10F49104809F0FFFF50
:10627000BDE810400C490E4809F0F9BFFFF7E2FBFA
:10628000FFF715FD0B4A03460821084806F020F8E1
:10629000FFF7D8FBFFF710FDBDE810400346054AA5
:1062A0000348082106F014B8E4100C0080DA03203B
:1062B00078DA0320E7100C0010B58CB0374B04934C
:1062C000374B0593374B0693374B0793374B089360
:1062D000374B09930024374B374938480A930B94BE
:1062E000FDF711FF36493748FFF77AFF364937483F
:1062F000FFF776FFFFF7F6FBFFF70EFC23460922B8
:10630000694633488DED000B05F0F2FEFFF7EAFB1E
:10631000FFF7EBFC0CAB03EB800050F8201C2D4882
:10632000FFF75EFF0C23CDE90044ADF800302A4BA7
:106330002A49029304226B46294805F0D9FEFFF74B
:1063400081FBFFF754FE274A2749A04218BF114698
:106350002648FFF745FF26492648FFF741FF264913
:106360002648FFF73DFF264A2649274806F0C5F98B
:10637000264A2749244806F0C0F9264A26492248D9
:1063800006F0BBF9194A25491F4806F0B6F900F096
:10639000A5FB0CB0BDE81040FFF75ABFF5100C008C
:1063A000FD100C0001110C000A110C0012110C0060
:1063B0001E110C0024110C0030110C0058E60320B3
:1063C000DCD903205E110C00B8DA032066110C0042
:1063D0006D110C0078110C00A9610B007D610B00A0
:1063E00087110C00ED100C00BC120C009B110C006E
:1063F00080DA0320A4110C0078DA0320AE110C001F
:10640000B9110C004D640B00CFC60B00C7110C0076
:10641000C1640B00D5110C0035650B00A9650B009C
:1064200038B5046805467CB16368013B63605BB9BD
:10643000236820469B689847A368013BA3601BB96B
:1064400023682046DB689847284638BD10B5C6B09B
:1064500000680A2203A90AF021F8782821D8124BF3
:10646000124A1880124B01241C704FF480710346AD
:1064700006A805F02DFF0F4806A9FDF744FE05F01C
:1064800057FE60B10C4B0D491B788DF8003004A805
:106490003C2306AA06F042FA05A8FFF7C1FF2046F2
:1064A00000E0002046B010BD88DA0320E4110C00A3
:1064B00009E4032058E6032008E40320D0110C006F
:1064C00010B596B000680A2203A909F0E7FF172863
:1064D000044624D8FFF7B6FAE1B2FFF74FFCFFF706
:1064E000B1FAFFF7E4FB0F4A0346402106A805F086
:1064F000EFFE0D4806A9FDF706FE05F019FE60B196
:106500000A4B0B491B788DF8003004A83C2306AADF
:1065100006F004FA05A8FFF783FF012000E0002041
:1065200016B010BD24120C0058E6032008E4032026
:10653000D0110C0010B596B000680A2203A909F02A
:10654000ADFF1828044624D8FFF77CFAE1B2FFF724
:106550001BFCFFF777FAFFF7AFFB0F4A034640211A
:1065600006A805F0B5FE0D4806A9FDF7CCFD05F01F
:10657000DFFD60B10A4B0B491B788DF8003004A891
:106580003C2306AA06F0CAF905A8FFF749FF012037
:1065900000E0002016B010BD38120C0058E60320B1
:1065A00008E40320D0110C0030B51E4985B0054623
:1065B00008F0E1FA0446D8B1FFF744FA0121FFF7E9
:1065C0003EFD3C20FFF734FE05F0B2FD10B901207E
:1065D00005B030BD144B154A1B788DF800303C23B4
:1065E00002A8134906F09AF903A8FFF719FFEEE78E
:1065F0001049284608F0BFFA0028E9D0FFF722FA30
:106600002146FFF71CFD40F26450FFF711FE05F034
:106610008FFD0028DBD0044B074A1B788DF8003033
:106620003C23DDE7AC130C0008E403204D120C0002
:1066300060120C00080A0C0065120C0070B5D0E95D
:1066400000531426044606FB0356AE4204D02846E7
:1066500008F080F91435F8E7206805F019FE2046A7
:1066600070BD8842F8B504460D46164616D99042CC
:1066700015D2A2F11406751AA1F114072C44B742E1
:106680001CD02CB13146204608F0E0F9337C23744D
:10669000304608F05FF9143E143CF0E70ED0B542E6
:1066A0000CD02CB12946204608F0D0F92B7C23745D
:1066B000284608F04FF914351434F0E7F8BD2DE9F9
:1066C000F0410023C0E9003383604F689F420446D5
:1066D0000E4623DD4FF0140808FB07F005F0D0FD4F
:1066E0000546D8B1D4E9001208FB0212FFF7B9FF42
:1066F000206805F0CDFD2560A760D6E9007308FB92
:106700000378B84508D03946284608F0B9F93B7CEB
:106710002B7414371435F4E7736863602046BDE8C2
:10672000F081000070B5274B274A01251D70274BCB
:1067300000248CB09A60C3E90044022005F066FC96
:106740002146284605F07AFC2946042005F0DCF9AC
:10675000CDE90044029408F097FD1D4C05466946BA
:1067600003A8FFF7ACFF264603A906A8FFF7A7FF7B
:10677000184B46F8043B06A909A8FFF7A0FF09AA91
:106780001E21304607F044FA09A8FFF757FF06A874
:10679000FFF754FF104B2360256203A8FFF74EFF5D
:1067A0000E4B236008F070FD4FF4165108F05AFDAF
:1067B00006F044FF214607F001F96846FFF73EFF67
:1067C0000CB070BD08E403200000FFFFFCE30320D1
:1067D0000CE4032048130C00C01F0C0060130C00D5
:1067E0002DE9F04385B008F068FC4349054643486D
:1067F000FDF789FC424B188806F062FB002401A8D3
:10680000CDE90144ADF80C4005F088FF204605F0C5
:10681000ABF943F698260446002005F0A5F9031BC2
:1068200061F10001B34271F1000305D205F080FC73
:1068300010B105F06DFCEFE705F07AFC05F084F986
:10684000304F386005F064FC05F072FC044640B13E
:106850002D492A48FDF757FC0024204605B0BDE825
:10686000F08308F02AFC2949DFF8A480421B234862
:10687000FDF749FC08F021FC224602210646D8F823
:10688000040005F0ADFCD8F804002346224621465A
:1068900005F0BEFC204605F067F947F23059054681
:1068A000002005F061F9431B61F100014B4571F1D6
:1068B000000306D2404607F0C9FC10B905F028FCD9
:1068C000EEE7134807F0C2FC05F03EF9386005F02A
:1068D0001FFC0F4807F0B6FC20B10E490748FDF732
:1068E00012FCBAE708F0E9FB0B49821B0348FDF7ED
:1068F0000AFC0124B1E700BF79120C0058E603201E
:10690000B2100C0010E70320A2120C00C5120C00FC
:1069100084E50320EE120C0014130C0007EE900A1D
:106920009FED097AF8EEE77A67EE877A9FED077AAE
:1069300087EE870ADFED067A70EE677AB2EE040A18
:1069400087EE800A704700BF00404E4500F07F454B
:106950000000FA4313B5012101A807F00CFDFFF771
:10696000C1F8FFF7BDF9FFF7BDF8FFF7B9F9252822
:1069700001A80DD907F092FDFFF7B4F80121FFF748
:106980001BFA002401A807F005FD204602B010BD47
:1069900007F069FD0124F5E730B5194D0FCD97B02B
:1069A0000CAC0FC40FCD0FC495E8030084E80300BE
:1069B000144904A805F05EFD04A805F09EFD0446F8
:1069C00004A805F0D3FD04A810EE105A05F0FEFD52
:1069D00016AB10EE100A03EB840408F0E9FFCDE9D2
:1069E0000201284608F0E4FFCDE90001064A54F808
:1069F000283C0648402105F06BFC17B030BD00BFB5
:106A0000F4130C0084E50320AE130C00B8DA032065
:106A100030B585B00D4600226946009205F0E4FAD3
:106A200090B9009C0CB1236923B9084A08490A208F
:106A300005F0B2FA0C23CDE901350423039301AA32
:106A4000236901212046984705B030BD39BB0B00B2
:106A5000C7130C0013B5FFF745F801A9044607203A
:106A6000FFF7D6FF011EA8BF01992046C9B2FFF764
:106A7000A3F9184806F04CF94FF4FA7005F080FCC1
:106A8000FFF730F801A904460320FFF7C1FFE8B97A
:106A9000BDF8043007EE903AFBEECC7A17EE900A80
:106AA00008F086FF41EC100B2046FFF755F8FFF782
:106AB00019F8FFF731F8084B51EC100B002209F0E0
:106AC0005FFA003818BF012002B010BDFFEE007A57
:106AD000E4E700BF30E4032000004E4013B5FFF7A9
:106AE00001F8114B0446188808F023FDFFF716FF44
:106AF000FDEEC07A2046CDED017A9DF80410FFF737
:106B000055F9FEF7EFFFFFF7EBF8084A03461021AF
:106B1000074805F0DDFBFFF79DFFFFF71BFFFFF7C1
:106B20003BFF012002B010BDB8100C00ED130C00AB
:106B3000A8DA03200148002106F0A6B830E40320BB
:106B4000704710B520210446FDF7A9FA204610BD74
:106B500010B504468AB008464FF0200C0021CDE95C
:106B60000023CDE902C10B4602AA216805F024FAF0
:106B70000AB010BD0EB403B503AB322153F8042B99
:106B80000193FFF7E5FF02B05DF804EB03B0704737
:106B90000EB403B503AB012153F8042B0193FFF7A7
:106BA000D7FF02B05DF804EB03B0704710B5027276
:106BB000FF2242810022C0E9032242610276C261C3
:106BC000024A034C1060C0E9004110BD3CE40320C0
:106BD0006C160C002DE9F8439DF820800446894688
:106BE00016461F46B8F1000F02D0406806F02AF999
:106BF000217A606806F003F96068036849469B687B
:106C000098476068002106F019F9054600BB01238A
:106C1000217A60683A4606F0E0F88742034609D1D7
:106C20003744BE421CD0606803685B69984706F829
:106C3000010BF6E70B490C484A46FFF79BFFB8F1FA
:106C4000000F02D0606806F006F92846BDE8F88318
:106C50000346064904484A46FFF78CFF0025EEE745
:106C60000125ECE71C140C0038E4032041140C004F
:106C700007B500930123FFF7ADFF03B05DF804FBF8
:106C800073B54389FF2B044610D0194E194D04F0FB
:106C90005BFFB0F57A7F09D2608908F037FC0128E4
:106CA00004D031462846FDF72EFAF0E701230DF116
:106CB000070228212046FFF7DBFF30B90D480E49B7
:106CC000FDF721FA002002B070BD9DF80730182BA7
:106CD000F4D101230DF1070229212046FFF7C8FF57
:106CE0000028EBD09DF80730052BE7D1EBE700BF7C
:106CF00065140C0038E403207A140C0007B5134621
:106D000000228DF807200DF10702FFF7B1FF9DF873
:106D1000070003B05DF804FB2DE9F0419DF81880F1
:106D200004460F4615461E46B8F1000F02D04068D3
:106D300006F088F8217A606806F061F860680368F8
:106D400039469B6898472E44B542606805D0036871
:106D500015F8011B9B689847F6E7012106F06EF8CD
:106D6000034670B1084909483A46FFF703FF00257A
:106D7000B8F1000F02D0606806F06DF82846BDE853
:106D8000F0810125F4E700BF87140C0038E40320EC
:106D90001FB58DF80F2000930DF10F020123FFF7AF
:106DA000BBFF05B05DF804FBF8B50A460C46054686
:106DB0001A491B48FDF7A7F9002CB8BFEC687CB94D
:106DC000012322461B212846FFF7E2FF1549024610
:106DD00006461348FFF7DCFEEC606C613046F8BDF8
:106DE000032C19DDA7101F2FA8BF1F27BA0062F0C0
:106DF0007C020123D2B21B212846FFF7C9FF3A4685
:106E00000346094906460648FFF7C2FE4FF4FA63F7
:106E10005F43EC606F61E1E70127E7E7AC140C002A
:106E200038E40320B6140C00D2140C00064B1A6888
:106E30004AB1A0F500630B4305D1D3681BB1002113
:106E40001046FFF7B1BF70473CE403202DE9FF4136
:106E50009DF82880054616461F46B8F1000F04D05D
:106E60004068019105F0EEFF0199019100230DF1B9
:106E70000F022846FFF7FCFE044660B19DF80F3074
:106E800003EA06023A43934205D0019900232846BB
:106E9000FFF77EFF0446B8F1000F02D0686805F0E6
:106EA000DAFF204604B0BDE8F08113B514460DF1B9
:106EB0000702FFF7DDFE28B19DF807301C420CBF2A
:106EC0000120002002B010BD13B514460DF10702D9
:106ED000FFF7CEFE28B19DF807301C4214BF0120F9
:106EE000002002B010BD07B5D2430093D2B20023F8
:106EF000FFF7ACFF03B05DF804FB000037B50123DA
:106F00000DF107020F210446FFF7B2FE054638B91E
:106F10001E491F48AD22FFF72DFE284603B030BDA5
:106F20009DF8073013F0200F4FF001030BD0202203
:106F3000E3610F212046FFF7D6FF164A1649144891
:106F4000FDF7E1F8E9E7082217212046FFF7BCFF2B
:106F500018B10223114AE361F0E79DF807301A07E0
:106F600009D50323E361082201230F212046FFF7FF
:106F7000BAFF0B4AE2E75B07CFD50422E2610123A7
:106F80000F212046FFF7AFFF064AD7E725150C0073
:106F900038E40320F6140C0044150C00FF140C0018
:106FA0000F150C001F150C0007B500931346FF22A8
:106FB000FFF74CFF03B05DF804FB0000F8B50F4687
:106FC0001646012300220F210546FFF7E1FE044685
:106FD00038B94FF425721F491F48FFF7CBFD2046F3
:106FE000F8BD0123232218212846FFF7D1FE0446CD
:106FF00010B940F29B22EEE7FF2FA8BFFF27012F19
:10700000B8BF01270123FAB219212846FFF7C0FEB5
:10701000044610B94FF42A72DDE701230822122139
:107020002846FFF7C1FF044610B940F2AF22D2E76D
:10703000002E14BF03220222012342F080021821F5
:107040002846FFF7A5FE04460028C8D140F2B92221
:10705000C1E700BF55150C0038E403202DE9F743C4
:107060000A4605460F464F484F49FDF74CF80021A8
:107070002846FFF799FE044648B940F2F7124B49FB
:107080004848FFF777FD204603B0BDE8F0830123B1
:107090001A4630212846FFF787FF044610B940F210
:1070A0000522ECE71022012311462846FFF71BFFBB
:1070B000044610B94FF40372E1E70123262213219D
:1070C0002846FFF765FE044610B940F21322D6E7C2
:1070D000012600963346FC2211212846FFF7B6FE12
:1070E000044610B940F21B22C9E70022394628465F
:1070F000FFF764FF044610B940F22222BFE7009672
:107100000223772210212846FFF7A0FE044610B97B
:1071100040F22B22B3E7334604221C212846FFF716
:1071200043FF044610B940F23222A8E70096182324
:10713000E32211212846FFF789FE044610B940F2E8
:1071400039229CE73346C02217212846FFF720FE4C
:10715000044610B94FF4107291E704F0F5FCDFF823
:107160005490DFF840804FF47A7106464F4304F0A4
:10717000EBFC801BB8420ED2012217212846FFF7F4
:10718000BDFD494602464046FCF7BDFF4FF47A700C
:1071900005F0F6F8EBE706490248FFF7EBFC07F0CD
:1071A00098FD70E738E4032080150C0075150C007D
:1071B000A6150C0091150C002DE9F3479DF828A0A9
:1071C00005460C4691461F46BAF1000F02D04068B2
:1071D00005F038FE07B3202F3E4628BF20267F2C1F
:1071E00026D83319802B01D9C4F18006012304224B
:1071F0003F212846FFF777FE002364F07F010093CC
:107200004A463346C9B22846FFF7E4FC804628B117
:107210003444BF1BB144DDE74FF00108BAF1000F61
:1072200002D0686805F017FE404602B0BDE8F0875E
:10723000012304223F212846FFF7B6FEDCE72DE9B3
:10724000F3479DF828A005460C4691461F46BAF123
:10725000000F02D0406805F0F5FD07B31F2F3E4632
:1072600028BF1F267F2C26D83319802B01D9C4F1C3
:107270008006012304223F212846FFF734FE002325
:1072800064F07F0100934A463346C9B22846FFF7AF
:1072900043FD804628B13444BF1BB144DDE74FF0C5
:1072A0000108BAF1000F02D0686805F0D4FD40462D
:1072B00002B0BDE8F087012304223F212846FFF7F2
:1072C00073FEDCE730B585B00D68D1E90432039573
:1072D0004D6802958D680195C96800910133044994
:1072E00002F26C72044607F08DFC204605B030BDFA
:1072F000B8150C0003090A2200F00F0002FB03007E
:10730000704738B5044600781546FFF7F3FF08606C
:107310006078FFF7EFFF4860A078FFF7EBFF886029
:10732000E078FFF7E7FFC8602079FFF7E3FF013857
:1073300008612DB9651D2878FFF7DCFF886138BD2D
:107340006079FFF7D7FF6430A51D4861F3E70000BF
:1073500070B5012388B00D461A4610210446FFF788
:10736000A4FDF0B108230126204600960DEB030290
:107370000021FFF72FFC044698B1324629460DF153
:107380000900FFF7BEFF04A8FFF79CFF0848049A16
:107390000849FCF7B8FE04A807F0DCFA204608B05C
:1073A00070BD24220021284608F0CCFE0024F5E719
:1073B00038E40320D6150C0030B58BB00D4601A97A
:1073C000FFF7C6FF044620B101A804F0D1FFC5E9CC
:1073D000000120460BB030BD0A2390FBF3F103FB04
:1073E000110091FBF3F203FB121240EA0210C0B24B
:1073F000704770B5054600680C461646FFF7ECFF6F
:1074000020706868FFF7E8FF6070A868FFF7E4FF86
:10741000A070E868FFF7E0FFE07028690130FFF72F
:10742000DBFF20712EB9661DA869FFF7D5FF30700C
:1074300070BD6A69642392FBF3F003FB1020FFF731
:10744000CBFFA61D6071EFE7F0B587B0054602A837
:1074500016460C46FFF736FF1E48029A1E49FCF7F7
:1074600052FE02A807F076FA16B1686805F0EAFC49
:10747000204601220DF1090100278DF80870FFF761
:10748000B8FF01231A4610212846FFF78DFD044658
:10749000E8B1082300970DEB030239462846FFF7B1
:1074A0003BFC044660B101231A4610212846FFF731
:1074B0001AFD16B1686805F0CEFC204607B0F0BD95
:1074C0004FF48D7205490348FFF754FBF1E74FF481
:1074D0008F72F7E738E40320E4150C00F2150C0076
:1074E00013B504466846CDE9002308F0DDFD9DF89C
:1074F000102001462046FFF7A7FF02B010BD000094
:10750000F0B5057E89B0044675BB07F0B9FD58B3E8
:107510000026002704A92846CDE9046704F030FEC0
:1075200010B30125257607F0C8FDC317CDE9020386
:10753000024600952046FFF7D3FF02A92046CDE979
:107540000267FFF739FF134B13491B68009304A828
:10755000DDE9022307F052FD1048049A1049FCF7B8
:10756000D2FD04A807F0F6F963698BB104F0ECFAD8
:107570002369C01A636998420AD304F0E5FA4FF010
:10758000FF312061204609B0BDE8F040FFF70CBC98
:1075900009B0F0BD00DB0320ACE6032038E4032093
:1075A0000D160C0030B504468BB011B1406805F0E3
:1075B000F7FB2046FFF764FB06AD002837D02046D6
:1075C000FFF79CFC01231A4610212046FFF76DFCB3
:1075D000D8B107F055FDC0B902A92046FFF7ECFE6F
:1075E000DDE9020107F050FC134B14491B680093BE
:1075F0002846DDE9022307F001FD1148069A1149EA
:10760000FCF781FD284607F0A5F90F4B06930F4BB9
:1076100009930F4B08934FF40062002302A80095D2
:10762000FDF7C0FC2846FDF748FB0BB030BD09490B
:107630000348FFF79FFAE8E700DB0320ACE60320EE
:1076400038E4032023160C002D6E0B00974C0B0022
:10765000834C0B0040160C00014B024A1A60704725
:1076600038E4032058160C0010B501230374836816
:10767000044643B1C0689847012363740020BDE805
:10768000104004F031BA00680028F5D083680BB9C7
:1076900008F026F8C368EEE7012A02D10160002055
:1076A0007047022A04BF0B680360F8E738B5056825
:1076B000044635B12846FDF700FB10212846FCF7AB
:1076C000EEFC20461421BDE83840FCF7E8BC10B5BC
:1076D00003680446ABB1586804F0B6F988B923686A
:1076E0005A7C12B9586804F0B7F92368586804F056
:1076F000BBF920680023236018B1BDE81040FFF7F4
:10770000D5BF10BD054A026000224260027380F8B6
:107710004F24C0F85824C0F86024704798160C0015
:1077200010B5074C236843B940F26440FCF7B3FC42
:10773000034608B1FFF7E6FF2360206810BD00BFD5
:1077400040E4032038B50446406890B10223237317
:10775000FFF7BDFF656855B12846FFF7B8FF2868F9
:1077600008B1FFF7A3FF04212846FCF798FC00238B
:10777000636038BD10B5054B03600446FFF7E2FFB8
:1077800004F58A60FDF799FA204610BD98160C00A2
:1077900010B50446FFF7EEFF204640F26441FCF7C7
:1077A0007EFC204610BDF0B5044689B000F10D0600
:1077B00000F14E07237B1BB9012004F0E1FDF9E73E
:1077C000237B022B64D0A06804F05EF9A06804F06B
:1077D00063F994F84F348DF800303A463C23314633
:1077E00006A805F09BF8069D6B7833B9237B022B26
:1077F00003D0012004F0C4FDF5E7D4F858341BB3DE
:10780000002004F023FC20B16B7813B904F080FC55
:10781000FAE72B78D4F860240592591E4B424B416D
:107820008DF80B30D4F85834CDE903670BB907F065
:1078300057FF05AB0093D4F85C5404AB03AA0DF1D9
:107840000B0104F58A60A847A06804F01DF9237BAA
:10785000022B17D0D4F858340025C4F8605443B133
:1078600004F58A61032208469847C4F85854C4F8BE
:107870005C540023A068237304F00EF907A8FEF7F8
:10788000CFFD97E7A06804F007F907A8FEF7C8FD49
:1078900009B0F0BD0068FFF786BF13B50B4602467E
:1078A000D0E900016C4684E8030093E8030082E815
:1078B000030094E8030083E8030002B010BD000059
:1078C0002DE9F7430646884614202649174699466F
:1078D00007F0FCFE044630B10020C4E90000C4E912
:1078E0000200207460743460002C31D01D491020D7
:1078F00007F0ECFE054668B1002383600146384678
:10790000FFF7CBFFBB68AA68BA60AB60EA68FB68A8
:10791000EB60FA602768256037B13846FDF7CDF98E
:1079200010213846FCF7BBFB3068036883B10A9B23
:107930004A46CDE9000341460B4B043004F07CF885
:1079400030B933681B7C4BB9012004F0EDF8F8E73F
:1079500030680023336008B1FFF7A8FE304603B05B
:10796000BDE8F08314210C0069760B0030B5436844
:1079700087B00446C3B9083004F07EF80B4B05937A
:1079800004200B4B02940493FCF785FB054638B1A9
:107990004FF4406300930749022302AAFFF790FFC8
:1079A000656002A8FDF789F907B030BD95780B0036
:1079B00099760B007C160C002DE9F043044685B047
:1079C00080680C9F98460D46164604F05DF8636883
:1079D0001BB1237B03F0FF0933B1A06804F05CF80E
:1079E000002005B0BDE8F083A06804F055F8002D34
:1079F0003DD04022294604F10D0008F07AFC84F8BD
:107A00004D908EB340F20142314604F14E0008F031
:107A100070FC84F84E9400230293BB6804F58A65D9
:107A20003BB10222394668469847FB680393BB681E
:107A3000029329466846FFF730FF029BD4F858248A
:107A4000C4F85834039B02926846D4F85C24C4F806
:107A50005C340392FDF731F90D9BC4F860340120CA
:107A600084F84F842073BCE784F84E60D3E728463F
:107A7000B7E7000010B5054B0360037C04461BB953
:107A8000406808B104F004FC204610BDB0160C009C
:107A900010B50446FFF7EEFF20461421FCF7FFFA6D
:107AA000204610BD10B5034B03600446FFF7E2FF0C
:107AB000204610BDD0160C0010B50446FFF7F2FFAB
:107AC00020463021FCF7EBFA204610BD10B5034BE1
:107AD00003600446FFF7E6FF204610BDE0160C00E9
:107AE00010B50446FFF7F2FF20464021FCF7D7FA15
:107AF000204610BD10B5074B0360037C04461BB93C
:107B0000406908B104F0C4FB2046FFF7B3FF2046EC
:107B100010BD00BFC0160C0010B50446FFF7EAFF09
:107B200020462C21FCF7BBFA204610BD034A026018
:107B30000022C0E90122C26002747047B0160C0036
:107B400010B5C0E901120022C26001220274436133
:107B5000024A029B0260C36110BD00BFC0160C0048
:107B6000D0E90503834204D90278022A02D01030FA
:107B7000F8E700207047D0E90503984204D2037863
:107B8000012B18BF002070470020704770B51368A4
:107B90009D68136803F1100414608669B4420AD228
:107BA0009B698C68A34201DAAB42F2DDA342CCBFF1
:107BB0000020012000E0002070BD73B501F110032A
:107BC00004461646019300250198A36983420BD908
:107BD00082688B689A4207DAB54206D001AA20462D
:107BE0000135FFF7D3FFEFE7002002B070BD2DE9AC
:107BF000F341089D984601F110030446174601938E
:107C000000260198A36983421AD982688B689A4238
:107C100016DAAE420BD1386001AA2046FFF7B6FF54
:107C200028B1019BC8F8003002B0BDE8F08101AA7C
:107C30002046FFF7ABFF20460136FFF7A7FFE0E73E
:107C40000020F1E7F0B5013B0024D1E90176F61BF5
:107C5000A64208DDA34206DD45683D442D5D02F8DD
:107C6000015B0134F1E700231370F0BD1FB514462A
:107C700010236A46FFF7E6FF04492246684604F0EF
:107C80001FFB431E5842584104B010BDB3140C00F2
:107C900010B5044600680B4628B106F03EFFE368C5
:107CA0000133E36010BD60680028F8D0D4E90221F8
:107CB000013A8A4288BF4354F1E703467F2B37B528
:107CC0000846D9B204D803B0BDE83040FFF7E0BFA2
:107CD00001F03F01B3F5006FC3F3871541F0800455
:107CE00007D245F0C0010190FFF7D2FF019821466D
:107CF000E9E71B0B43F0E0010190FFF7C9FF05F036
:107D00003F01019841F08001EEE700002DE9FF47B7
:107D100000244E68DFF8CCA080460F461546A146E9
:107D2000B868B0425ADDD8F80430995D9A19002C31
:107D30004BD0752905D86D2907D862291ED0662930
:107D40001ED02846FFF7A4FF3DE0A1F16E04072CEA
:107D5000F7D80FF2080C5CF824F000BF857D0B000B
:107D6000437D0B00437D0B00437D0B00897D0B00A1
:107D7000437D0B008D7D0B00917D0B000821E0E71A
:107D80000C21DEE70A21DCE70D21DAE70921D8E73B
:107D9000311D884217DD02A904333344084612F826
:107DA000014F01F8014B9A42F9D101AA51468DF8D1
:107DB0000C9004F085FA012805D1BDF8040029468D
:107DC000FFF77BFF0536002404E05C2904D0284639
:107DD000FFF75EFF0136A3E70124FBE7012004B0B3
:107DE000BDE8F087311F0C007FB50C4606460C49F4
:107DF0001046154606F057FED4E90131C91A013183
:107E0000284606F0C5FD00236A4621463046CDE9E6
:107E1000013300950393FFF779FF04B070BD00BFF5
:107E20008D1F0C002DE9F04389B00546884604A853
:107E300012491646994606F0D8FD002700974B4692
:107E400003AA41462846FFF7D2FE044670B10399C3
:107E500004AA2846FFF7C8FF044608B90137EDE732
:107E6000314604A806F087FE0028F7D004A806F0E3
:107E700071FD204609B0BDE8F08300BF8D1F0C00E6
:107E800000230122C3604361028380F82A307047D7
:107E900008B50346FFF74AFE044A1A604FF0FF3266
:107EA0001846DA62FFF7ECFF08BD00BFD0160C00E1
:107EB000D0E9022310B593423FBF42685C1CC46006
:107EC000D15424BF012380F82A3010BD10B5436976
:107ED000044643B100EB4303597E09B1FFF7E8FFC5
:107EE0006369013B6361D4E90210636888424FF023
:107EF00000022ABF5B181A5403F8012C10BD70B59C
:107F00000446D0E9025066682D1A134630440A46EA
:107F1000294604F0E5F985422DBFE368A368E360D4
:107F2000C01836BF0123E06084F82A3070BD0EB45B
:107F300003B503AA52F8041B0192FFF7E0FF02B059
:107F40005DF804EB03B070472DE9F84304460E4694
:107F5000174612B12221FFF7ABFFDFF80C81002595
:107F6000715D06EB0509002974D0D4E902329A420A
:107F700070D20B0634D501F0F003E02B05F10109B6
:107F80001DD116F8092002F0C003802B39D105F16C
:107F9000020916F8093003F0C000802831D103F03F
:107FA0003F03920143EA013302F47C621A4392B226
:107FB00041462046FFF7BBFF4D460135D0E701F0B3
:107FC000E003C02B1DD116F8093003F0C002802A4F
:107FD00017D1890101F4F86203F03F031A43E7E780
:107FE0000D290AD807290CD9A1F10803052B08D8B7
:107FF000DFE803F009231707111D222923D05C298C
:1080000021D0204604E05C212046FFF751FF622189
:10801000FFF74EFFD1E75C212046FFF749FF6621BD
:10802000F6E75C212046FFF743FF6E21F0E75C2175
:108030002046FFF73DFF7221EAE75C212046FFF76B
:1080400037FF7421E4E75C212046FFF731FF99F800
:108050000010DDE72FB120462221BDE8F843FFF7ED
:1080600027BFBDE8F88300BFA0160C00426900EBF3
:1080700042031A7E12B100221A7670472C21FFF7B4
:1080800017BF73B5436901910133082B16460FD80A
:10809000FFF7ECFF4369019900EB43045A1C0125EB
:1080A0004261A576E676FFF703FF284602B070BD71
:1080B0000020FBE710B50446FFF7EAFE054B2360FE
:1080C0004FF0FF320023C4E90D232163E363204610
:1080D00010BD00BFE0160C0070B5436B01330446C1
:1080E0000E4629D18D68016B013D4563CB685A1B53
:1080F000826388682844C31A002AE36304DD486861
:108100004119184408F004F8226B616B5268E36B64
:108110000A445B1A0125C4E9012320462574FFF7B0
:10812000AFFE636903F10C02F368B3FA83F35B09F2
:1081300004F81230284670BD0020FCE72DE9F04F0E
:1081400044684FF0010C4FF0FF36D0F800E0964540
:1081500080F0B98111F80E80B8F1000F00F0B38102
:10816000B8F13A0F00F0988033D8B8F1220F00F040
:10817000A68010D8A8F109085FFA88F8B8F1170F9F
:108180000DD89F4D0CFA08F818EA050F07D00568BE
:1081900001350560D9E7B8F12C0F00F03381D0F834
:1081A000008042450ED911F808505DB13A2D00F219
:1081B00069811F2D00F251810A2D00F26081082D86
:1081C00040F25681002B40F0628108F1FF350560D6
:1081D000A5E0B8F17B0F37D02ED8B8F15B0F33D0C4
:1081E000B8F15D0FDBD1002BD1D04FF0020945680B
:1081F000013D03EB0518002D55DBD8F8047001375D
:108200004DD0D8F808A0BAF1FF3F48D198F800B097
:10821000CB454BD10EF1010EC0F808A0C8F808E01C
:1082200003EB051EDEF80470013742D0DEF808705B
:1082300001373ED18560AAE7B8F17D0FAFD1002BA1
:10824000A5D04FF00109D2E70134002B9FD045683B
:10825000099FAF424AD905F1010EC0F804E003EBD3
:10826000051ECEE901664FEA051A0025CEF80C502E
:1082700085686F1C1FBF03EB0519D9F80C50013539
:10828000C9F80C50B8F17B0F0CBF0125022503F88B
:108290000A500568CEF804504568013DCAE7013D23
:1082A000A8F11008A7E701357FF471AF6FF0010462
:1082B0001EE0013D6F1CAEF1100EB3D167E70EF169
:1082C0000109C0F80090D0F80080424540F2938048
:1082D00011F80850002D00F08E80222D30D1F3B11E
:1082E0004568099FAF4206D8C0F800E04FF0FF3460
:1082F0002046BDE8F08F05F1010E4FEA051803EBAB
:108300000515C0F804E0C5E901660027EF60D0F864
:1083100000E04FF0030A03F808A0C5E9019E856854
:108320006F1C04F101043FF432AF002B3FF42FAF78
:1083300003EB051EDEF80C500135CEF80C5026E795
:108340005C2D11D108F10105AA420DD905604D5DE2
:10835000752D2BD86D2D0BD8662D27D85B2D1DD8EC
:10836000222D01D02F2D21D1056801350560AAE706
:108370006E3D072D1AD801A757F825F069830B0029
:10838000AD830B00AD830B00AD830B0069830B0045
:10839000AD830B0069830B00B3830B005C3DEDB232
:1083A0000CFA05F540F241473D42DDD1C0F800E04E
:1083B0007CE708F1020505604FF0040AD0F8008060
:1083C000424503D80568013D0560CDE711F8085026
:1083D000002DF7D0A5F1300BBBF1090F04D925F022
:1083E0002005413D052DE1D808F10105BAF1010A4A
:1083F0000560E3D1E6E7C0F800E06FF0020477E73C
:1084000013008000002B3FF4C2AE85686F1C3FF460
:10841000BEAE2D015D5D013D012D7FF6B8AE456814
:1084200005F1FF3803EB051EB8F1000FFFF6AFAE04
:108430001EF8105C013D012D0AD85EF80C5C013578
:1084400006D05EF8085C013502D1C0F808809EE6CF
:1084500008F1FF38AEF1100EE6E7A5F12009244F30
:108460005FFA89F90CFA09F919EA070F7FF4AAAE45
:10847000203D5E2D9AD808F1010505608FE60D2D8F
:10848000F6D19FE605F0DF09B9F15D0FF8E7456821
:10849000099FAF427FF628AF05F101084FEA0519A1
:1084A00003EB0515C0F80480C5E901660027EF60FD
:1084B000D0F800804FF0040A03F809A0C5E901E8EC
:1084C0000568013D83E6002B3FF412AF4268511E60
:1084D00003EB02130029FFF60BAF53F80C2C01320B
:1084E00003D053F8082C013287D00139103BF1E753
:1084F00001100004F7B5C268044612B9002003B0A9
:10850000F0BD436900F12006ABB10021C0E90811BC
:108510004FF0FF318162C169009141683046FFF739
:108520000DFE431C28D1257C002DE7D1606903F0A6
:10853000AFFE6561E56100254FF0FF37C4E90855DE
:10854000E2686168A76200952B463046FFF7F6FDAA
:108550000028D3DBE06117D0000103F091FEE2694F
:10856000606103460092C4E90855E2686168A76249
:108570003046FFF7E3FD01E00028BFDB636903EB52
:108580000010A0610120BAE76369A361FAE738B57A
:10859000436B5A1C044618D0826B002A08DD016B1D
:1085A000E5684868E16B2B440144184407F0B0FDCE
:1085B000D4E90C23A16B0B44E1680B44D360206B1E
:1085C000FFF798FF4FF0FF33636338BD7047704784
:1085D00010B508210446FBF762FD204610BD10B51A
:1085E00010210446FBF75BFD204610BD10B5054B7E
:1085F000044640F81C3B06F0ADF9201D06F0AAF930
:10860000204610BD54170C0010B50446FFF7EEFFCE
:1086100020465821FBF743FD204610BD10B5044B02
:10862000044640F8043BFFF7E1FF204610BD00BFC1
:1086300024170C0010B50446FFF7F0FF2046602118
:10864000FBF72DFD204610BD20F00203012B03D0C7
:10865000431F5842584170471846704791F90430FB
:10866000037191F90530437191F90630837191F9E5
:108670000730C371704738B504460D4604300431E5
:1086800006F0EFF905F1140104F11400FFF7E6FF1D
:1086900005F11C0104F11C0006F0E3F905F12C01C1
:1086A00004F12C00FFF7DAFF95F9383084F8383000
:1086B00095F9393084F8393095F93A3084F83A3000
:1086C00095F93B3084F83B3005F13C0104F13C0066
:1086D000FFF7C4FF95F9483084F8483095F94930E0
:1086E00084F8493095F94A3084F84A3095F94B308E
:1086F00084F84B3005F14C0104F14C00FFF7AEFF5C
:1087000095F8543084F8543038BD0B6803604B68DA
:10871000436013B15A6801325A607047024A0260DE
:108720004A684260704700BF34170C004A6903680A
:1087300062F3160303600B695A1C438862F3CA1381
:108740004380CA68C3F3072362F3C703C37070474B
:10875000024A026000224260704700BF34170C00DA
:1087600030B5002387B0838083710D4605AB00933D
:108770001349044604AB03AA284603F0A1FD0328CD
:1087800007D1039B2371049B6371059BA37107B001
:1087900030BD0C4904AB03AA284603F091FD022822
:1087A00004D1039B2371049B6371F0E7064903AA7C
:1087B000284603F085FD012804BF039B2371E6E7EB
:1087C000E8160C00EB160C00B3140C0090F9042012
:1087D00090F9053090F90610002AB8BF0848C3EB9D
:1087E00003134FEA8303BDBF00FB02304018404231
:1087F0004FF46160A4BF00FB02304018704700BF17
:10880000F0F1FFFF08B590F854304BB190F93B30D0
:1088100043B92C30FFF7DAFFB0FA80F0400908BD09
:108820000120FCE70020FAE790F9073043B990F9FE
:1088300004308B6090F905304B6090F906300B6086
:10884000704790F9073030B5B3B990F904508C688F
:108850002C44D1E900328C6090F90540002DB5BF61
:10886000121B12194A604A60B5BF90F9062090F9B0
:1088700006209B1A9B180B6030BD000008B5054A06
:1088800002600022034642600830FFF761FF18468D
:1088900008BD00BF44170C0000234360838183732D
:1088A0007047000030B5044687B00D4611B10B7813
:1088B0004D2B05D0204607B0BDE83040FFF7ECBF98
:1088C00005AB0093114904AB03AA284603F0F8FC5A
:1088D000032816D1039B2371049B6371059BA3712D
:1088E0002F21284607F0A2FC40B1411C04F10800EA
:1088F000FFF736FF0123E37107B030BDA081A073FD
:10890000F8E72046FFF7C8FFF6E700BF03170C00A3
:10891000104B114910B5044640F8043B06F065F8C9
:1089200004F11400FFF714FF0B4904F11C0006F0DA
:108930005CF804F12C00FFF70BFF04F13400FFF7A3
:108940009DFF04F14400FFF799FF002384F85430A1
:10895000204610BD54170C008D1F0C002DE9F74F59
:108960000446084607F08CFC00250646019004F1F9
:1089700034083F49019801AA07F00AFD0146002882
:1089800062D0012D05F1010353D0022D56D0002DE8
:1089900046D1024692F80090B9F1400F15461746AD
:1089A00002F10102F6D800222A7004F11C0006F040
:1089B0007AF8012285F8009084F854202A786AB366
:1089C00097F800A00AF1FF323F2AB946BB4607F1EB
:1089D0000107F5D9002304F12C0789F80030294656
:1089E0003846FFF7BDFE89F800A0BAF1000F15D098
:1089F0005D461BF801ABBAF1400FF9D800222A708E
:108A00004946201D06F04FF885F800A004F1140037
:108A1000BAF1000F06D02946FFF7A2FE0125A8E70C
:108A20001D46A6E73946FFF719FE237E013B237654
:108A3000F4E74046FFF736FF02259AE704F14400C9
:108A4000FFF730FF032594E794F93B3043B194F9E5
:108A50004B202AB904F13400FFF71EFF84F854209C
:108A6000304603F015FC94F8540003B0BDE8F08FD5
:108A70000D170C0038B5134B04460D4640F8043B67
:108A8000114905F0B2FF04F11400FFF761FE0E4931
:108A900004F11C0005F0A9FF04F12C00FFF758FEBB
:108AA00004F13400FFF7EAFE04F14400FFF7E6FEAC
:108AB000002384F8543029462046FFF74FFF204614
:108AC00038BD00BF54170C008D1F0C0008B50346BD
:108AD000FFF73EFE8A681A714A685A710A689A71ED
:108AE000184608BD13B5074B0360002343600446D6
:108AF0006846FFF7EBFF20466946FFF7AFFD02B07F
:108B000010BD00BF34170C0007B50023014601A8B3
:108B10000193FFF70BFE019803B05DF804FB10B55D
:108B200004460846FFF7F0FF206010BD10B504466C
:108B300088B00846683001A907F08AFA01A807F052
:108B4000BCFB08AB1844002300F81D3C01A92046DB
:108B500005F04BFF204608B010BD000038B50446B4
:108B6000081D0D46FFF74EFE28B10949204605F0C5
:108B70003CFF204638BD2868FFF766FD28B105F1A7
:108B80000801204605F07CFFF3E705F12001F8E736
:108B90000F170C002DE9F0478046A8B00C4615468B
:108BA0002AB1474B1046196807F057FB38B92146E0
:108BB0004046FFF7BBFF404628B0BDE8F087294696
:108BC0003F2218A807F095FB002318A88DF89F30C6
:108BD00007F073FB2146054603A8FFF7BFFF201DE2
:108BE000FFF710FE48B3374907A807F040FB18AE5F
:108BF000002705F1FF3ABA454CD93378252B07F108
:108C0000010917D173787A2B36D107A807F055FBE5
:108C100018AB05463818AAEB0702B11C184407F038
:108C200069FA2A4607A9304607F064FA18A807F03F
:108C300044FB054601364F46DBE72068FFF704FD9D
:108C4000B8B104F11800FFF7C1FD3C2290FBF2F32C
:108C5000002BB8BF5B42B3FBF2F102FB1133009370
:108C6000194A1A4B90FBF3F3102107A803F030FBCD
:108C7000BDE704F13000E6E75A2BDBD1059D18ABC8
:108C80007819AAEB0702B11C184407F033FA0399CC
:108C90002A46C8E700212E220CA80B9107F052FAB1
:108CA00004F1680318AA32210BA803F049FB0BA9B1
:108CB000404605F09AFE03A805F04CFE7BE700BF96
:108CC00000DB03200F170C0011170C00F0F1FFFF61
:108CD00038B5094D2B6863B96020FBF7DCF9044611
:108CE00030B1064B40F8043BFFF712FE6423E36506
:108CF0002C60286838BD00BF44E4032024170C0012
:108D000003F036BB01390B2915D8DFE801F016084E
:108D1000160616061616061606161E207047830738
:108D20000DD1642390FBF3F203FB120000280CBF6B
:108D30001C201D207047002070471F2070471C20FA
:108D40007047F8B50123CB6090F90430013B0B610B
:108D50000023C1E9003306460C4617468B602046C7
:108D6000FFF7CEFF96F90630A2699A4203D0E36876
:108D70000133E360F3E796F90550012D13D0E36862
:108D80006069013DC5EBC5051D44E56096F9041019
:108D900000F26C70FFF7B6FF8542C4BF073DE56087
:108DA0002046FFF7ADFF214606F10800FFF73CFD26
:108DB0003846FFF746FD2046BDE8F84003F0D8BA34
:108DC000F0B590F8583085B004462BB9FFF780FF16
:108DD000011D201DFFF74FFC94F93F30002B65D09B
:108DE000D4E9182304F19807394602A83E46CDE994
:108DF000022303F0ADFA0FCE04F1C8050FC50FCE64
:108E00000FC533682B6004F1300102A8FFF786FC20
:108E100002AA394604F13800FFF793FFC4E92401A0
:108E200004F1180102A8FFF779FC02AA04F1C801B5
:108E300004F14800FFF785FFD4E92465864275EB0D
:108E40000103C4E93001D4E9182323DAB24273EBF9
:108E5000050519DA002323602068FFF7F5FB04F10C
:108E60006801D4E91856019110BB04F13000FFF7F6
:108E7000ADFC2D1A66EBE070CDE90250019902A815
:108E800003F066FA05B0F0BD82428B41B4BF012306
:108E90000223E0E7824273EB010101DA0323DAE700
:108EA000B242AB41B4BF04230523D4E70623D2E783
:108EB00004F11800DBE737B58D6804466846FFF714
:108EC00024FC6A462946204604F074F901A8FDF7FF
:108ED000A7FA204603B030BD37B5CD6804466846D2
:108EE000FFF713FC6A462946204604F03FF901A823
:108EF000FDF796FA204603B030BD37B50D6904463C
:108F00006846FFF702FC6A462946204604F0D7F877
:108F100001A8FDF785FA204603B030BD704710B5B3
:108F200010210446FBF7BBF8204610BD0368C9B208
:108F30009B68184730B5034DC0E90223C0E90051D2
:108F400030BD00BF64170C00406803F029BF10B5A6
:108F50000446006803F07FFF204610BD2DE9F7436B
:108F60000446406801900D4616461F4603F06AFF0E
:108F7000A7B1E168606841F0500103F044FF290A9D
:108F80006068FFF7D3FF29466068FFF7CFFF60688E
:108F9000002103F053FF48B1002400E0012401A8A0
:108FA000FFF7D5FF204603B0BDE8F083202F217BDB
:108FB0006068B84628BF4FF020080123424641F0C0
:108FC000500103F00AFF06F0F9FA03681B6998479D
:108FD0004045E1DB06EB080906F0F0FA03685B693F
:108FE000984706F8010B4E45F6D14544A7EB080714
:108FF000BEE72DE9F74F0446406801900E469046C3
:109000001D4603F01FFF4FF00109B9F1000F2AD0F0
:109010004DB3E168606841F0500103F0F4FE310A9D
:109020006068FFF783FF60683146FFF77FFFA5F1B7
:109030001E0A4746A6EB080B606817F8011B036879
:10904000013D9B68984755450BEB0706B84601D094
:10905000002DF1D16068012103F0F0FE0028D7D087
:109060004FF00009D1E701A8FFF771FF484603B0B0
:10907000BDE8F08F2DE9F0438BB00E4615468046D3
:10908000406801901C4603F0DDFEAE4229D2264422
:1090900025448CB11E2C2746D8F8003028BF1E2747
:1090A000F61BD3F8089002AA3B4631464046ED1B1A
:1090B000C84748B9002400E0012401A8FFF747FF92
:1090C00020460BB0BDE8F083D8F8003002AAD3F8F0
:1090D0000C9029463B464046C8470028EAD0E41B8E
:1090E000D7E7E9D9002CE7D0D8F800301E2C274666
:1090F00028BF1E27D3F8089002AA3B4631464046B7
:10910000C8470028D6D0D8F8003002AAD3F80C906F
:1091100029463B464046C8470028CBD03E443D4404
:10912000E41BDFE703680A7883F8B120012183F8A4
:10913000B010704710B442680346541001EB62004F
:10914000D20748BF0A591B685DF8044B48BFD35883
:109150001847012A02D1016000207047022A04BF8B
:10916000D1E90023C0E90023F6E7012A02D101601A
:1091700000207047022A04BF0B680360F8E7406FC5
:1091800002F0A2BCD0F8C83001461BB1D0F8CC30F8
:10919000C030184770470000F8B5124D0846002A45
:1091A00018BF15460E461F4607F087F8402816D808
:1091B000284607F082F8B0F5806F10D84330FAF7F0
:1091C0006CFF044648B1314600F8017B07F04FF8C8
:1091D000294604F1420007F04AF82046F8BD002471
:1091E000FBE700BF8D1F0C00F0B59FB00A460023BF
:1091F0000E46011D08A802F081F80898002107F02A
:1092000071F9054608A805F0A5FB002D60D008A956
:10921000284607F055F90C9B2E492F483246FDF79A
:10922000B7FC00221146284607F052F9082206A989
:10923000284607F06BF90C9F4A2F39DD274B069A19
:109240009A4235D1264B079A9A4231D1A7F10802AA
:1092500010460592FAF721FF0446C0B127440146A3
:10926000059A284607F052F917F8093CABB9631C78
:109270001846059307F021F83F28059B0DD804F107
:1092800042020092174914483246FDF781FC2846F5
:1092900007F00EF920461FB0F0BD13490E483246C4
:1092A000FDF776FC43212046FAF7F9FE0024EEE7AD
:1092B000BDF81E3002939DF81D3001939DF81C30BF
:1092C00000930A49069B04483246FDF761FCEDE72E
:1092D0002C46DFE778170C0048E403206376B631AC
:1092E000010841008C170C00AE170C00DC170C00B5
:1092F0002DE9F8438046284B48F8043B0446404695
:1093000001F014FF022264230025C4E91B23082373
:10931000E367C4E92055C4E92255C4E92455C4E9EA
:109320002655A5672020FAF7B6FEE66FA067013E36
:10933000760800EB860907464FF40070FAF7ABFE9B
:1093400000F50073C4E92503C4F888304FF4FA61CE
:109350004FF47A73C4E92D1347F2305347F82600CF
:10936000C4F88400C4F88000C4F89000C4E928550B
:10937000C4E92A550949C4F88C90C4F89C90C4F8F3
:10938000B050C4F8BC30C4F8C850404601F014FFD7
:109390002046BDE8F88300BFF8190C0021180C0026
:1093A00038B5064D2B683BB9D020FAF774FE044659
:1093B00008B1FFF79DFF2C60286838BD4CE40320FE
:1093C0004269436A9B1A9B105A1ED0E906315B1A08
:1093D0009B1003EBC21302698068101A03EBA00014
:1093E000704738B50546FFF7CAFE05F17800FFF76C
:1093F000E7FF044650B9281D02F0D4F9D5F8A03093
:1094000004461BB1D5F8A43003B90134686F02F0EB
:1094100063FB204638BD10B502698368043A934265
:10942000044602D00433A36010BDC0684FF400713D
:10943000FAF735FE63691A1D62615B68E36003F544
:1094400000722261EFE700002DE9F04F85B004467D
:10945000FFF795FEDFF8A490DFF8A4A0DFF8A4B032
:10946000D4F88030D4F89020934205D1606F05B0D5
:10947000BDE8F04F02F030BB04F1780004F10408BD
:109480001F68FFF7C8FF404602F030F9002302468C
:1094900041460646684601F031FF009840F202213D
:1094A00007F020F80546684605F054FAC5B10822D1
:1094B00069462846CDE9009A07F03AF807F14200DC
:1094C00006F0FBFE394600F14302284607F030F86B
:1094D000284606F0EDFF084832465946FDF758FB8E
:1094E0003146404602F044F9002FB9D043213846B6
:1094F000FAF7D5FDB2E700BF48E403206376B63142
:10950000010841002F180C002DE9F0410446FFF737
:1095100036FE04F17800FFF753FFE36E984202D95C
:109520002046FFF791FFDFF844800F4F261D30469D
:1095300002F038F9236F984204DC606FBDE8F04117
:1095400002F0CABA0121304602F0DCF805460028D4
:10955000EDD001460022304601F00CFF2A4641467C
:109560003846FAF7D0FDE2E748E403204C180C0037
:1095700008B5A0F500630B4305D0403850EA01035D
:109580000BD1092A09D105490548FDF701FBFFF771
:1095900007FFBDE80840FFF757BF08BD5F180C0084
:1095A00048E4032070B50368044683B1436A456903
:1095B0001E1DAE4206D955F8040B4FF40071FAF7A0
:1095C0006EFDF6E7616820688900FAF768FD2046BD
:1095D00070BD00001FB5D1E90023002104460291AF
:1095E0000AB9D90705D5CDE900230A4B03930A4BE5
:1095F000029321466846FEF750F9029BA268A360D9
:10960000039B02926846E268E3600392FBF755FB16
:1096100004B010BD35910B0053910B0070B586B0AE
:10962000044602F085FD48B9434B02A9CDE902305A
:1096300004F1C000FFF7CEFF06B070BD94F8B25041
:109640001DB1012384F8B330F6E702F07DFAD4F8B7
:10965000A830C01AD4F8AC309842EDD3261D294664
:10966000304602F04FF80146C4F8A400002852D05A
:109670002046FFF7B9FD0546C4F8A000002835D004
:1096800002F062FA02AE00252C4BC4F8A800314665
:1096900004F1C00002930395FFF79CFFD4E9283042
:1096A00003F1420200922649264AA4F8B050A8428B
:1096B00008BF0A4601332449244884F8B350FDF713
:1096C00067FAFEF72DF8D4F8A020214B0593CDE9D9
:1096D000006511461F4B0294049311F8013B42327E
:1096E000FEF76AF93046FBF7E8FAA5E7D4F8A420BC
:1096F00019491648FAF707FD0121304602F002F831
:10970000D4F8A4102A46304601F034FED4F8A03034
:10971000002BB5D195E7D4F88030D4F890209A4248
:1097200007D01B68C4F8A03004F17800FFF773FE7F
:10973000ECE7C4F8A00084E75D970B00DD9A0B000E
:109740008E180C00801D0C00AF180C0048E403209C
:1097500025910B006B910B0092180C0013B5044679
:1097600002F0E6FC90B102F0EFF9D4F8B430C4F89E
:10977000AC300D4BC4F8A80000936946002304F1F7
:10978000C0000193FFF726FF02B010BD94F8B2307D
:109790001BB1012384F8B330F6E72046FFF721FE22
:1097A0000028F6D0F0E700BF1D960B0070B5054607
:1097B00098B0002002F05AFC012805D03E493F48ED
:1097C000FDF7D8F918B070BD05F1740002F06CF91E
:1097D0003B4B04933B4B079304A93B4B069308A8D0
:1097E000FBF7D0FB08A90CA8FBF7CCFB0CA910A831
:1097F000FBF7C8FB002610201696FAF74CFC04462F
:1098000060B18660014610A8FEF747F8129BA26877
:109810001292A360E268139BE36013922B4B1793A1
:109820002B4B16932B4B149400261020CDE90136B8
:109830000396FAF730FC0446D8B1169B866033B124
:10984000022214A99847179BE360169BA360224B42
:109850000393224A029401AB4FF40460002102F00A
:10986000E5FB30B12046FBF728FA10212046FAF735
:1098700016FC14A8FBF721FA10A8FBF71EFA0CA897
:10988000FBF71BFA08A8FBF718FA04A8FBF715FA70
:10989000FDF746FFFEF76AF8281D01F0AFFE2846E7
:1098A000FFF732FE0E4B149314A9002305F1C000FC
:1098B0001593FFF78FFE85E7CE180C0048E40320D0
:1098C00071950B00974C0B00834C0B005D4C0B000B
:1098D000AD500B0002000C00CD4C0B00354C0B00C2
:1098E0005D970B002DE9F04706468946406A71698D
:1098F0007368471A09EBA7050135B3EB450F14460A
:1099000027D95D1B6D083268AD000CB14FEA8904A0
:109910002C441444031DA142A3EB010213D9994224
:1099200002D0204606F0F4FB74612368F36003F56F
:1099300000733361E3197362E359F36103F5007354
:109940003362BDE8F0879942EED0381D801A20447A
:10995000E8E703F102084B452CBF9844C844B8F12E
:10996000005F01D305F0B6FE4FEA8800FAF793FBDB
:10997000A8EB05056D088246AD000CB14FEA8904DD
:10998000726A716904322C449142544403D0521AD1
:10999000204606F0BDFB716830688900FAF77FFB4E
:1099A000C6E900A8C0E70000F0B585B004469DF800
:1099B00028509DF82C302B430F461646FFF7ECFB42
:1099C000054600283CD03F4B3F494048002E18BF79
:1099D00033463A46FDF7DCF82046FFF7D0FBD4F8D3
:1099E0009820D4F89030043A934204F1780629D0B4
:1099F00003B11D60D4F890300433251DC4F89030B5
:109A0000284601F0CFFE03903046FFF7D9FC0290C4
:109A100002F08EFBDDE9023200902D492B48FDF764
:109A2000B7F8284601F0BEFE00283BD02046FFF7DD
:109A30000BFD2046FFF768FD606F02F04DF8012036
:109A400005B0F0BD3046FFF7BBFC6FF060439842B5
:109A500002D1204805F041FED4F89C30A26F9A1A3A
:109A6000E36FA3EBA203012B04D8002201213046AF
:109A7000FFF738FF4FF40070D4F89C70FAF70BFB37
:109A80007860D4F8903003B11D60D4F89C301A1D72
:109A9000C4F89C205B68C4F8943003F50072C4F8E5
:109AA0009820AAE73046FFF78BFCE36E9842BDD8BA
:109AB00002F03EFB0028B9D007490448FDF768F8DA
:109AC000B7E700BF8D1F0C00F1180C0048E403201D
:109AD00049190C0019190C0075190C0073B590F890
