:02000002B0004C
:1040000000400B0098150C00000006000D00050292
:084010000401A30F00000000F1
:04401800A4F80B00FD
:1040200009480A49884208B505D0094A824202D0A7
:10403000121A0BF02FF90748074A0021121A0BF049
:1040400051F9014808BD00BFF8DC032078130C00CB
:10405000ECDE0320F0DE0320F4E7032070B5074E0A
:10406000074C0AF071FAA41BA4080025AC4200D149
:1040700070BD56F8043B98470135F7E704130C0070
:1040800048130C0001F076B908B500F011FEBDE848
:1040900008400AF011BA07F0D7B907F0D5B907F010
:1040A000DBB9000008B5034A03490C2007F060F8AB
:1040B000FEE700BF11AD0B00B8F80B000078B0FAB6
:1040C00080F040097047012303707047704710B5B6
:1040D00004210446FFF7E3FF204610BD0EB400B5EF
:1040E0008CB00DAA4FF0200C52F8041B0392CDE9BE
:1040F00000120023016804AA1E20CDE904C307F0C2
:1041000047F80CB05DF804EB03B0704710B5064CEF
:10411000236833B90420FFF7BEFF08B1034B0360E7
:104120002060206810BD00BFF4DE0320B8FC0B0047
:1041300010B51A4886B005F06AFB044630B9184934
:104140001848FFF7CBFF204606B010BD9FED160ABA
:10415000164805F055FE15480022172105F0CAFF44
:10416000134804F066FE80B1114804F062FE01902D
:1041700002A807F0D1F8DDE901230E490948FFF74D
:10418000ADFF02A809F0CAFCDDE702A807F0C4F8F9
:10419000029A09490348FFF7A1FFF2E7ACE00320C8
:1041A000CDF80B0054E6032000C064447CDF0320FC
:1041B000B0E00320D9F80B0015F90B0010B5064C40
:1041C000C0B00DF1030201A9204605F095FD0028BD
:1041D000F7D140B010BD00BF7CDF0320014805F0DF
:1041E00078BD00BF7CDF032037B5274C01F01CFBF6
:1041F000B4F8031049BA89B201F0F2FC01F014FBE3
:10420000B4F8051049BA89B201F0F0FC01F00CFBDA
:10421000E17901F060FC01F007FB0546207A0AF025
:1042200075FC41EC100B284601F03AFB01F0FCFA5A
:10423000617A01F056FC01F0F7FAA17A01F057FC1F
:1042400001F0F2FAE17A01F058FC01F0EDFA0446CF
:104250000E4804F086FE81B2204601F0BBFC01F05E
:10426000E3FA01F0F4FB019001F0DEFA01F0DBFB70
:10427000019A074903460748FFF730FF064B04221F
:1042800001201A7003B030BD00DF03207CDF032063
:104290004FF90B0054E60320F0DE03202DE9F04334
:1042A0004B4D4C4C2B6887B001332B6009F0D5FF88
:1042B0000016A07009F0D1FF0014E07009F0CDFFE6
:1042C0000012207109F0C9FF607101F05DFA01F080
:1042D00049FC000AA07101F057FA01F043FCE071BB
:1042E00001F0A2FA01F0B3FB207201F09DFA01F097
:1042F0009AFB2778064609F0B0FF0246C31702A8CA
:1043000009F0A6FEDDF8088001F03EFA01F02AFC73
:10431000324631493B46CDE900803048FFF7DEFEAA
:1043200002A809F0FBFB2E4B1E88012130460AF043
:10433000A4F901F079FA01F076FB04220346009219
:1043400021462848092205F027F8274B044618681B
:1043500004BB013018600AF0E9FB804628688946F2
:104360000AF0E4FB02460B46404649460AF072FD5D
:104370001E4B00220AF044FC02460B4617481C491B
:10438000FFF7ACFE304621460AF077F9012007B06E
:10439000BDE8F0830AF0CAFB8046286889460AF027
:1043A000C5FB02460B46404649460AF053FD0F4BFB
:1043B00000220AF025FC02460B4608480D49FFF78B
:1043C0008DFE304600210AF058F90020DFE700BFDB
:1043D000FCDE032000DF032076F90B0054E6032007
:1043E000A8000C00ACE00320F8DE032000005940D8
:1043F000BEF90B00F2F90B0030B589B001F0C4F939
:1044000001F0ABFB354C000A207001F0BDF901F062
:10441000A4FB607009F021FF0016A07009F01DFFD9
:104420000014E07009F019FF0012207109F015FF67
:10443000607101F0A9F901F095FB000AA07101F08B
:10444000A3F901F08FFBE07101F0EEF901F0EBFA56
:10445000207201F0E9F901F0EBFA054609F0FDFEE2
:104460000246C31704A809F0F3FD049B039301F06F
:104470008BF901F077FB2A46039B194900901948F4
:10448000FFF72CFE04A809F049FB174B1D880121FA
:1044900028460AF0F2F801F0C7F901F0C9FA022241
:1044A0000346009221461148092204F075FF044694
:1044B00050B90F490B48FFF711FE284621460AF074
:1044C000DCF8012009B030BD0A490648FFF706FEB6
:1044D000284600210AF0D1F80020F3E700DF03208E
:1044E00021FA0B0054E60320A8000C00ACE00320E6
:1044F0005EFA0B007DFA0B0010B501F095F9134B35
:10450000997801F000FB01F08FF9044609F0A5FE4F
:10451000C3170246204601F00FFC01F085F904465E
:104520000B4804F01EFD81B2204601F053FB01F060
:104530007BF901F078FA074902460748FFF7CEFDFC
:10454000064B06221A70012010BD00BF00DF0320B9
:104550007CDF032097FA0B0054E60320F0DE0320F3
:1045600070B588B001F010F901F0F7FA324C000A8A
:10457000207001F009F901F0F0FA607009F06DFEA9
:104580000016A07009F069FE0014E07009F065FEE5
:104590000012207109F061FE607101F0F5F801F080
:1045A000E1FA000AA07101F0EFF801F0DBFA234B09
:1045B000E0711E8800250121257230460AF05DF861
:1045C00001F032F901F02FFA06220346009221464B
:1045D0001B48092204F0E0FE044610BB01F024F958
:1045E00001F021FA054609F038FE0246C31704A877
:1045F00009F02EFD049B039301F0C6F801F0B2FA16
:10460000039B104900902A460F48FFF767FD04A856
:1046100009F084FA304621460AF02FF8012008B04C
:1046200070BD0A490848FFF759FD304629460AF08F
:1046300024F82846F3E700BF00DF0320A8000C00A1
:10464000ACE00320BCFA0B0054E603207DFA0B001B
:1046500010B5134C134B22781349144803EB021284
:10466000FFF73CFD2378042B0CD02378022B04D1D8
:10467000FFF74CFDFFF7C0FE50B92378062B09D099
:10468000002006E0FFF742FDFFF708FE0028ECD00F
:10469000012010BDFFF73AFDBDE81040FFF760BFF5
:1046A000F0DE0320F8DC0320FFFA0B0054E60320C1
:1046B00030B585B00C4601F035F90146684601F089
:1046C00055F90099182220460AF0CFFE05466846A3
:1046D00009F024FAADB901F025F901F0BDF95B4903
:1046E00002465B48FFF7FAFC01F01CF9044609F0AA
:1046F000B4FD0246C317204601F023FB012005B09C
:1047000030BD01F00FF90146684601F045F9009906
:10471000182220460AF0A9FE0546684609F0FEF96F
:10472000A5B901F0FFF801F09CF948490246484854
:10473000FFF7D4FC01F0F6F8044609F08EFD0246BE
:10474000C317204601F0FDFA0220D8E701F0EAF88D
:104750000146684601F036F90099182220460AF011
:1047600084FE0546684609F0D9F9A5B901F0DAF8E2
:1047700001F07CF9354902463548FFF7AFFC01F0FE
:10478000D1F8044609F069FD0246C317204601F03E
:10479000D8FA0320B3E701F0C5F801F095FA50EA22
:1047A000010313D101F0BEF801F056F92949024680
:1047B0002748FFF793FC01F0B5F8012101F0A9F9B2
:1047C00001F0B0F8214601F0E1F88DE701F0AAF818
:1047D00001F07FFA50EA01031DD101F0A3F801F0C6
:1047E00045F91C4902461A48FFF778FC01F09AF88F
:1047F000022101F094F901F095F8214601F0DCF86E
:1048000001F090F8044609F028FD0246C31720463F
:1048100001F09CFA98E703220E490D48FFF75EFC71
:1048200001F080F8032101F080F901F07BF82146C6
:1048300001F0D8F801F076F8044609F00EFD0246C2
:10484000C317204601F087FAA3E700BF24FB0B0043
:1048500054E6032053FB0B0038B51546044601F01F
:1048600061F801F0F9F8A84207D101F05BF80146C0
:10487000204601F07BF8204638BD01F053F801F0E6
:10488000F0F8A84206D101F04DF80146204601F0AB
:1048900083F8F0E701F046F801F0E8F8A84206D105
:1048A00001F040F80146204601F08CF8E3E70249A8
:1048B000204609F07EF9DEE784FB0B00F0B52E4BB5
:1048C00002221A7091B02D4B09AC064603F1180272
:1048D000274618685968254603C5083393422C4675
:1048E000F7D11B782B7000F09FFF044600F09CFF6F
:1048F00001F099F80146204601F0E7F800F094FF36
:1049000001F091F80A282CD900F08EFF39460446B0
:104910003046FFF7CDFE0146204601F0D0F800F00A
:1049200083FF01F085F8039000F07EFF01F07BF833
:10493000039B0090124913483A46FFF7CFFBFFF75D
:10494000E5FB0122014605A8FFF786FF059A0E49FF
:104950000C48FFF7C3FB05A809F0E0F8012011B0EF
:10496000F0BD00F061FF01F05EF80849024605481D
:10497000FFF7B4FBE3E700BFF0DE032002DF032014
:1049800089FB0B0054E60320FAFB0B00D0FB0B0065
:1049900030B589B079238DF81A300DF11F030393D8
:1049A0000DF11E033F4D02930DF11D03019307AB63
:1049B00000933D480DF11B030DF11A02294604F046
:1049C0001FFD10B9002009B030BD9DF81A30002439
:1049D000EC542D8800F0D8FE01F0BFF86DBAADB2EE
:1049E000A84204D031493248FFF778FBEAE700F0EB
:1049F0001BFF9DF81B102F4C01F061F89DF81E3035
:104A000003F00F03237000F00FFF01F00CF8059086
:104A1000294804F0A6FA9DF81F1002919DF81A107B
:104A20000191034625492078059A01EB0011009178
:104A30001F482349FFF752FB2378032B2AD0237802
:104A4000012B05D1FFF762FBFFF738FF0028B9D033
:104A50002378052B05D1FFF759FBFFF74DFD002803
:104A6000B0D0184B1A7882B100221A7000F08CFE78
:104A7000154B198801F0A8F800F086FE01F072F8D5
:104A8000124902460A48FFF729FBFFF73FFBFFF7F1
:104A9000DFFD98E7FFF73AFBFFF7A6FB0028CED132
:104AA00090E700BF00DF0320ACE0032009FC0B000F
:104AB00054E60320F0DE03207CDF0320F8DC032033
:104AC0003BFC0B0005E4032004DE03207CFC0B0010
:104AD00010B50A4A0A4C0B49127809780A4B20464D
:104AE00005F050F900F050FE00F093FF2146024619
:104AF000BDE81040054804F045BC00BFAE000C0006
:104B00007CDF0320AC000C0058E40320ACE0032061
:104B1000014B1A60704700BF70DD0320014B01227A
:104B20001A707047DAE3032030B585B00446089860
:104B300060B1406850B1856845B1CDE90241CDE929
:104B40000023C46801AB6A4602A9A04705B030BD86
:104B500030B585B0006813680193D1E900458368DA
:104B6000CDE902450BB909F08BFEC36801AA02A981
:104B7000984705B030BD012A02D10160002070477E
:104B8000022A04BF0B680360F8E703681268D1E9E2
:104B90000001184710B58368044613B1032201468B
:104BA0009847204610BD10B5044638B1FFF7F2FF14
:104BB00020461021BDE81040FFF771BA10BD00007B
:104BC00038B500F0E1FD00F0CDFF044609F028FB08
:104BD000F0B1104B1B78DBB909F03FFB3C25654376
:104BE000B0FBF5F404FB15002C1A092C0ED9AC42CD
:104BF00028BF2C4600F0C8FD00F0B4FF064902466D
:104C000023460648FFF76AFA204638BD0A24F1E732
:104C10000A24F9E7D9E30320C0FC0B0054E6032083
:104C200070B51C4E1C4C32781C4D022AC4B028D1E1
:104C300009F0F6FA32782B7858B904EB0212009298
:104C4000174A04EB03134FF4807104A806F024FC08
:104C50000FE004EB0313039304EB0214FFF7B0FF20
:104C6000039B104ACDE900404FF4807104A806F080
:104C700013FC33780C482B7004A9FFF72FFA44B0CB
:104C800070BD2B7804EB0212009204EB0313074A69
:104C9000D9E700BFD8E3032074DD0320A1E303209C
:104CA000F4FC0B0014FD0B0054E6032031FD0B0057
:104CB0002DE9F04F9C4D2DED028B2B78013BD1B0AF
:104CC000062B17D8DFE813F0FB0107003500F500CD
:104CD000BE01E5015001954B1B78022B01D0FFF777
:104CE0009FFF934B1A781AB100221A70042300E038
:104CF00003232B708F4802F0ADFA03F00DFC03F094
:104D0000FDFA00F091FD00F09FFD00F03DFD00F088
:104D100063FD00F007FE00F020FE874B1B68002BB0
:104D2000C0F2018251B0BDEC028BBDE8F04F09F03A
:104D3000A8B87E4B1B78032B01D0FFF771FF002131
:104D40007C487E4C01F0DAFEFFF73AFF074609F097
:104D500084FAC219D31710A809F07AF9109B0B93A3
:104D600009F0F2F80B9B764900903A467548FFF738
:104D7000B5F910A808F0D2FE4FF4FA6006F0E4FB93
:104D8000237D002B50D0022323726F4BB3F8008099
:104D90002368DB68F3B19A88012A06D09B68F9E79B
:104DA0009B68BBB19A88012AFAD19A894245F7D10A
:104DB00000229A73237D002B36D023684FF47A7833
:104DC000DB6808FB07F8DBB19A88042A00F0A681AB
:104DD0009B68F8E75D49102009F048FD0646002869
:104DE00000F09F81102200210AF07CFA584B3360BA
:104DF0000123B3802369B360A6F80C802661D9E74C
:104E00005249102009F032FD0646002800F0898141
:104E1000102200210AF066FA4D4B33600423B38060
:104E200023692661C6E9023844490CA809F02CF828
:104E30004FF0FF313F4801F061FE002005F080FF98
:104E400042F210760446002005F07AFF001B61F163
:104E50000001B04271F1000307D209F0E5FA09F050
:104E6000D8FA10B906F040FAEDE709F0DDFA09F0DA
:104E7000D0FA02232B702E4B01221A7009F0EDF9A3
:104E8000C219D31710A809F0E3F8109A0B9209F091
:104E90005BF80B9A2F4903462A48FFF71FF910A821
:104EA00008F03CFE0C9800283FF424AF06F0D4FA3A
:104EB00020E71E4B1B78042B0FD0072B03D005F0E7
:104EC0002FFF254B1860FFF7ABFEFFF71FF9FFF729
:104ED00075F922491B48FFF701F9FFF717F9FFF7AA
:104EE00057FD08B107232B701D4B1B78002B7FF457
:104EF00001AF05F015FF184B1B68C01A194B9842FB
:104F00007FF6F8AEFFF702F9FFF768F909F0B6F996
:104F1000044600F039FC00F0D2FE09F07DF884422E
:104F200000F0CB800523E4E6D8E30320A1E30320CF
:104F3000A0E3032074E2032070DD032094E2032049
:104F40003FFD0B0054E60320AA000C00E0100C000B
:104F5000100003007FFD0B0068E20320A0FD0B00A2
:104F6000D9E30320F0490200714B1B78072B01D0D5
:104F7000FFF756FE00F058FC00F055FD0B90FFF7D0
:104F8000C5F80B9A01460CA8FFF766FC0C9B0B9327
:104F900000F04AFC00F0F0FD044600F045FC00F093
:104FA000F0FD064600F040FC00F05AFCB0EE408AEE
:104FB000F0EE608A00F038FC00F044FD5D4A52F8E3
:104FC00020B000F031FC00F038FD074600F0DCFBBB
:104FD00000F024FD804600F027FC00F0C8FD81466B
:104FE00000F022FC00F033FD824609F036F90B9BFD
:104FF000514ACDE908A0CDE900464FF48071CDE9D2
:105000000689CDE904B78DED028B10A806F044FAAD
:105010000CA808F083FD10A94848FFF75FF803F0DB
:105020007BFA474B474A1B781278002113430268EA
:105030008DF804108DF80030146843493C2310AA01
:10504000A04753E63A4B1B78052B0AD0FFF7E8FD43
:1050500006F05AF908B906F04FF905F061FE3B4B2E
:10506000186006F051F958B100F08EFB044609F0C3
:10507000F4F8C3170246204600F054FE062338E633
:1050800005F04EFE314B1B68C01A314B9842EBD8ED
:1050900030E6274B2F4C1B78062B04D0FFF7C0FDC2
:1050A00005F03EFE206005F03BFE2368C01A2A4B47
:1050B00098427FF61FAE01F03DFA022319E6274C15
:1050C000274E2378BFF35B8F13F0010F09D12046E1
:1050D000FEF7F4FF28B105F023FE30602046FEF70E
:1050E000F2FF134B2A781B789A4201D0FFF798FD04
:1050F00005F016FE3368C01A47F2305398427FF627
:10510000F9AD18490D48FEF7E9FF4FF4FA6006F0D3
:105110001BFA1E21144801F04BFEEBE5C3F80C808E
:1051200082E6267580E651B0BDEC028BBDE8F08FBB
:10513000A1E3032008DE0320C7FD0B0054E6032093
:1051400061E2032060E203204CFE0B006CE20320CE
:10515000E093040070E20320905F01005CE2032012
:1051600064E2032061FE0B0074E2032038B50023E3
:1051700083608B6804460D462BB102229847EB688A
:10518000E360AB68A360204638BD00002DE9F04322
:1051900095B005461C9904A890461F460CAEFFF733
:1051A000E5FF04A908A8FFF7E1FF08A93046FFF7CB
:1051B000DDFF4FF000091020CDF84890FEF76BFF9F
:1051C0000446A0B196E8030001AB83E8030094E82D
:1051D000030086E8030093E803000E9BE268A360E7
:1051E00084E803000F9BCDF838900F92E360244BC6
:1051F0001393244B1293002200234FF00009C5E9BA
:105200000023214BC5F8089010201094CDE90139F6
:10521000CDF80C90FEF73FFF0446D8B1129BC0F8C2
:10522000089033B1022210A99847139BE360129BA8
:10523000A360164B0393164A029401AB40463946CD
:1052400005F0E0FFB0B12046FFF7A4FC1021204696
:10525000FEF725FF10A8FFF79DFC3046FFF79AFCEC
:1052600008A8FFF797FC04A8FFF794FC284615B0A0
:10527000BDE8F083029BAB60C5E90087EAE700BFA9
:10528000514B0B0095520B0002000C00A74B0B007A
:10529000294B0B00012A37B5044604D10B68036083
:1052A000002003B030BD022A0CD0032AF8D10468D4
:1052B000002CF5D02046FFF76DFC10212046FEF7AC
:1052C000EEFEEDE7096801911020FEF7E4FE0546C9
:1052D00010B10199FFF74AFF2560E1E738B51D4B92
:1052E00001251D701C4B08221A7009F05FF900237C
:1052F0001A46194609F06AF909F058F900231A46C6
:105300000D2109F05BF9154B1A1D00241A60144A8F
:105310005A60C3E902441C611D7509F01FFA114D62
:1053200001466922104801F0EBFA28460F4908F0BF
:1053300040FC00230E482C610022C5E90623C5E984
:105340000844062340F8043BAC62BDE8384002F054
:10535000CBBB00BF60E2032061E2032094E20320A4
:1053600010000300A8E3032074E20320580F0C0090
:10537000B0E203202DE9F04300209FB005F0E0FCEF
:1053800042F210750446002005F0DAFC001B61F1C2
:105390000001A84271F1000307D209F045F809F0B5
:1053A00038F810B905F0A0FFEDE709F03DF809F075
:1053B00030F800F057FD00F081FD00F035FA036889
:1053C000834E1B68DFF85C82824F984700F0DCF95F
:1053D00003681B68984700F0A5FA03681B689847A4
:1053E00000F014FE00F0BCFC08233046012173815C
:1053F00001F082FF7C21304601F080FB08F02DFF98
:1054000008AD0246C317284608F022FE01231A46BB
:1054100010213046089C01F0F2FB6F49002814BFB0
:1054200043463B4622466D48FEF758FE284608F0A4
:1054300075FB6B4B08936B4B0B936B4B0A934FF4C1
:105440008022002304A80095FFF7A0FE2846FFF75E
:10545000A1FB03F061F803F065FAFEF757FE0121A6
:10546000FEF766FE02F0F0FC60490446284602F0B2
:10547000EDFB09A904F1080008F0D7FB0E9BE361DE
:105480000FA904F1200008F0D0FB149B6363169B66
:10549000E363189B63641A9BE3641C9B63659DF83C
:1054A000743084F85830284602F09EF908F0D5FE92
:1054B0004F4CC317C4E91803204602F03DFD08F025
:1054C000CCFE0246C317284608F0C2FD01231A4647
:1054D00010213046DDF8209001F091FB454900286D
:1054E00014BF43463B464A463C48FEF7F7FD284674
:1054F00008F014FB404B21461A68284602F006FCCF
:10550000002203A90320089E039205F059FE0028FB
:1055100056D1039C0CB1236923B9384A38490A2073
:1055200005F026FE0C23049302AB05930423069397
:10553000236904AA012120469847002840D1BDF8DC
:10554000083007EE903AFBEECC7A17EE900A09F09D
:10555000FFFA3246CDE900012A492048FEF7BEFD98
:10556000284608F0DBFA284B284D1E88304609F003
:105570009DF8044638BB26491848FEF7AFFD254B79
:1055800001211970244B1F88384609F076F84FF432
:10559000FA6005F0D9FF2146384609F06EF8042379
:1055A0002B7000224FF0FF331C490092304606F06A
:1055B00041FD2B780BB902232B701FB0BDE8F0839F
:1055C000FFEE007AC1E716490448FEF787FDE8E7D9
:1055D00074E203207BFE0B0082FE0B0054E60320E6
:1055E000114B0B008B4B0B00774B0B00ADFE0B00F0
:1055F000B0E20320D4FE0B0080DE032011AD0B00CF
:1056000005FF0B002BFF0B00AA000C00D8E30320C2
:105610005DFF0B00D9E30320A8000C001D4B0B001D
:105620007CFF0B0078FE0B0010B5034B03600446B3
:1056300002F030FD204610BDDCFF0B0010B5044623
:10564000FFF7F2FF20461021FEF729FD204610BD8E
:1056500010B5036804460BB905F012FB2068BDE8DD
:10566000104005F01DBB38B504460430FFF7F0FFCD
:10567000206A616A0368DD68D4E90223A84760688C
:10568000BDE8384005F014BB38B504460430FFF7D8
:10569000DFFF206A616A03689D68D4E90223A84796
:1056A000A2682368D1885B692046984718B92368A7
:1056B00020469B699847606805F0FAFA012038BDDA
:1056C00010B5044B03600446406808B105F0E0FAE9
:1056D000204610BDB00D0C0010B5034B036004460E
:1056E000FFF7EEFF204610BD24000C0010B5044665
:1056F000FFF7F2FF20466821FEF7D1FC204610BDDF
:1057000010B5034B03600446FFF7DAFF204610BDD7
:1057100050000C0010B50446FFF7F2FF2046782138
:10572000FEF7BDFC204610BD10B5034B03600446D8
:10573000FFF7C6FF204610BDF8FF0B0010B504466A
:10574000FFF7F2FF2046B021FEF7A9FC204610BD6E
:1057500000F12801816009494FF0400CC0E903C104
:10576000012181824FF47A71C16105490022C0E9AB
:10577000081242608261034A02607047749EA92049
:10578000E8E3032024000C0010B5064C23683BB965
:105790006820FEF780FC034608B1FFF7D9FF2360BD
:1057A000206810BDE0E3032008B5006A02F088FC21
:1057B000FFF7EAFF03685B689847BDE8084005F01B
:1057C00009BA10B5006A02F07BFCFFF7DDFF036841
:1057D000BDE810405B68184710B5FFF7D5FF0368B8
:1057E000BDE81040DB68002118470000002200F1EE
:1057F0002801426082614FF47A728160C261074978
:10580000074A02624FF0500C3222C0E903C14262E3
:105810000121044A81820260704700BF749EA92062
:10582000E8E3032050000C0010B5064C23683BB998
:105830007820FEF730FC034608B1FFF7D7FF23605E
:10584000206810BDE4E3032010B5FFF79DFF036857
:10585000BDE81040DB680021184700000000000090
:1058600010B504462DED028B0430FFF7F1FEE3681E
:10587000083B172B0CD9A36893ED068B606805F0E5
:1058800017FAB0EE480AF0EE680ABDEC028B10BDC4
:105890009FED018BF2E700BF000000000000000058
:1058A000F8B50446043057EC106BFFF7D1FEE368FF
:1058B000083B172B12D9A5683046D5E9062339468F
:1058C00009F006FC50B9C5E906672046A56805F051
:1058D000D1F8A860236820461B6998476068BDE836
:1058E000F84005F0E5B90000002200F1280142600F
:1058F00082614FF47A728160C2610749074A02628D
:105900004FF0880C9622C0E903C142620121044A8B
:1059100081820260704700BF749EA920E8E30320E3
:10592000F8FF0B0010B5064C23683BB9B020FEF71A
:10593000B2FB034608B1FFF7D7FF2360206810BD14
:10594000DCE3032010B5006A02F0BAFBFFF7EAFFC0
:105950000368BDE810405B68184710B5FFF7E2FF29
:105960000368BDE81040DB680021184738B50446DD
:105970000D46054908F01DF9234619221021284635
:1059800005F01FF8204638BD580F0C000B461922B1
:10599000102105F087B8000038B504460D460549CA
:1059A00008F007F9234619223821284605F009F89E
:1059B000204638BD580F0C000B461922382105F03F
:1059C00071B8000038B504460D46054908F0F1F8F5
:1059D000234619226021284604F0F3FF204638BDF3
:1059E000580F0C000B461922602105F05BB838B542
:1059F000044604300D46FFF72BFEE3686068013B68
:105A0000AB4226BFA3685D5D002505F051F928462D
:105A100038BD08B51021FFF7EAFF08BD08B517210A
:105A2000FFF7E5FF08BD08B51021FFF7E0FF08BD4F
:105A300008B51121FFF7DBFF08BD08B51221FFF7FC
:105A4000D6FF08BD08B52021FFF7D1FF08BD08B576
:105A50003421FFF7CCFF08BD08B52921FFF7C7FFA8
:105A600008BD08B55121FFF7C2FF08BD08B579216F
:105A7000FFF7BDFF08BD70B5044604300D4616465D
:105A8000FFF7E6FDE368013BAB420DD3A3685A5D27
:105A9000B24209D05E552046A56804F0EBFFA8602D
:105AA000236820461B6998476068BDE8704005F090
:105AB000FFB808B50A461721FFF7DDFF08BD08B596
:105AC0000A461021FFF7D7FF08BD08B50A46112185
:105AD000FFF7D1FF08BD08B50A461221FFF7CBFF3B
:105AE00008BD08B50A462021FFF7C5FF08BD08B567
:105AF0000A463021FFF7BFFF08BD08B50A4634212A
:105B0000FFF7B9FF08BD08B50A464421FFF7B3FF08
:105B100008BD08B50A462921FFF7ADFF08BD08B545
:105B20000A465121FFF7A7FF08BD08B50A467921AB
:105B3000FFF7A1FF08BD38B5044604300D46FFF756
:105B400087FDE3686068023BAB4226BFA3685D5BEC
:105B5000002505F0ADF8284638BD08B51221FFF73D
:105B6000EAFF08BD08B52A21FFF7E5FF08BD08B523
:105B70003221FFF7E0FF08BD08B54021FFF7DBFF4A
:105B800008BD08B54221FFF7D6FF08BD70B5044631
:105B900004300D461646FFF75BFDE368023BAB425F
:105BA0000DD3A3685A5BB24209D05E532046A56864
:105BB00004F060FFA860236820461B69984760686E
:105BC000BDE8704005F074B808B50A462A21FFF711
:105BD000DDFF08BD08B50A463221FFF7D7FF08BD33
:105BE00008B50A464021FFF7D1FF08BD08B50A46AF
:105BF0004221FFF7CBFF08BD38B5044604300D46FF
:105C0000FFF726FDE3686068013BAB4226BFA3684F
:105C10005D5D002505F04CF8284638BD08B5162115
:105C2000FFF7EAFF08BD08B53B21FFF7E5FF08BD18
:105C300070B5044604300D461646FFF709FDE368CB
:105C4000013BAB420DD3A3685A5DB24209D05E5509
:105C50002046A56804F00EFFA860236820461B6953
:105C600098476068BDE8704005F022B808B50A465C
:105C70001621FFF7DDFF08BD08B50A463821FFF7FA
:105C8000D7FF08BD08B50A463B21FFF7D1FF08BD85
:105C9000F8B5044604300D46FFF7DAFCE3686068A7
:105CA000083BAB4223BFA1684919D1E90067002630
:105CB00038BF002704F0FCFF30463946F8BD08B570
:105CC0002021FFF7E5FF08BD08B53021FFF7E0FF11
:105CD00008BD08B55821FFF7DBFF08BDF8B504463D
:105CE00004300D461E461746FFF7B2FCE368083B3A
:105CF000AB4212D3A3685A1958595168B14208BF30
:105D0000B8420AD05F5120465660A56804F0B2FE42
:105D1000A860236820461B6998476068BDE8F84082
:105D200004F0C6BF08B52021FFF7D8FF08BD08B5AD
:105D30003821FFF7D3FF08BD08B54821FFF7CEFF94
:105D400008BD08B53021FFF7C9FF08BD08B55821C7
:105D5000FFF7C4FF08BD08B58021FFF7BFFF08BDEE
:105D600070B5314D31492846FEF7B8F9FFF75CFDB3
:105D70000021FFF73BFFFFF757FD0021FFF730FF42
:105D8000FFF752FD044608F068FA0246C3172046A2
:105D9000FFF7CDFFFFF748FD0021FFF7B4FEFFF747
:105DA00043FD044608F059FA0246C3172046FFF7A0
:105DB000C3FFFFF7E9FC0021FFF77BFE1C492846E3
:105DC000FEF78CF9FFF7AEFD0121FFF7A2FEFFF70A
:105DD000A9FD0021FFF7DAFDFFF7A4FD0022002353
:105DE000FFF7AFFFFFF79EFD0221FFF798FEFFF7D9
:105DF00099FD0021FFF7E0FDFFF794FD002200234D
:105E0000FFF7A4FFFFF78EFD0321FFF78EFEFFF7DC
:105E100089FD0021FFF7E6FDFFF784FDBDE8704036
:105E200000220023FFF797BF54E603209AFF0B00E0
:105E3000BBFF0B00084B012210B51A7008F08EFC56
:105E4000064C014600234FF40052204602F02EF982
:105E5000034B236010BD00BFDBE30320E8E3032016
:105E6000DCFF0B0008B513491348FEF737F9022190
:105E7000042008F0F1FB0021082008F0EDFB0121CF
:105E8000072008F0E9FB0021122008F0E5FB0121C2
:105E9000112008F0E1FB0121102008F0DDFB0021BA
:105EA000102008F0EAFB0021112008F0E6FB012099
:105EB00008BD00BF74000C0054E6032010B518495B
:105EC000184890B02024FEF709F9224600216846C0
:105ED00009F008FA224600210DEB04008DF8054078
:105EE00009F000FA00210DEB04008DF8254005F0C3
:105EF000CDF941F2D833ADF806300B4B029341F2A5
:105F00007003ADF80C30009B002143F40073684629
:105F1000009305F0BBF9003818BF012010B010BD88
:105F20008D000C0054E60320840384037047006A4C
:105F30000368DB68184700001FB50446FFF724FC20
:105F4000FFF710FE064A03461021684605F0A4FA42
:105F50006946204607F02DFE204604B010BD00BF64
:105F6000B2000C0030B585B00346144668460D46B5
:105F700098470298206005F067FA286050B12268BF
:105F8000009909F087F90024684607F0C7FD20460C
:105F900005B030BD004CF7E7FCFEFFFF00230422F4
:105FA00005F092B90A4B10B50446036006F02AFCCE
:105FB000214606F02EFE08F037FA08F027FA2046B0
:105FC000044B40F8043B06F0BFFC204610BD00BF68
:105FD00078030C0060030C0010B50446FFF7E2FFE5
:105FE00020462421FEF75BF8204610BD07B50123AB
:105FF0000822CDE900234FF47A71002341436A4619
:10600000184605F0A9F903B05DF804FB10B58CB093
:10601000364B0493364B0593364B0693364B07931A
:10602000364B0893364B374909930024364B374893
:106030000A930B94FEF752F8FFF7A6FBFFF7EEFD6D
:10604000334A3449A04218BF11463348FFF7A6FF30
:1060500032493348FFF7A2FF32493348FFF79EFF2A
:10606000FFF7E2FBFFF7FCFB2346092269462F48B6
:106070008DED000B05F028F9FFF7D6FBFFF7E2FCEA
:106080000CAB03EB800050F8201C2948FFF786FF7B
:106090000C23CDE90044ADF80030264B264902938D
:1060A00004226B46254805F00FF9FFF76DFBFFF75B
:1060B000BAFD234A2349A04218BF11462248FFF7E0
:1060C0006DFF224A2249234805F0FBFB224A23495F
:1060D000204805F0F6FB1C4A21491E4805F0F1FB5B
:1060E0000CB0BDE8104000F0A3BB00BFCC000C001A
:1060F000D4000C00D8000C00E1000C00E9000C00FA
:10610000F5000C0007010C00FB000C0054E6032016
:10611000BD000C00C1000C0035010C0068DD03203F
:1061200044010C0034DE03204C010C0053010C0030
:106130005E010C00655F0B00395F0B006D010C0008
:10614000C4000C00D2020C0081010C008A010C007A
:1061500029620B0097B80B0098010C0091610B00AD
:10616000FD620B0038B5046805467CB16368013BED
:1061700063605BB9236820469B689847A368013B2E
:10618000A3601BB923682046DB689847284638BDC2
:1061900030B5C7B000680A2203A909F04FFA782881
:1061A00031D81A4D0B2828800DDCFFF7EDFAFFF7E8
:1061B00035FD40B116491748FDF790FFFFF7E4FAA7
:1061C0000021FFF753FD144B144A01241C704FF4B7
:1061D00080712B8806A805F05FF90E4806A9FDF727
:1061E0007DFF05F091F860B10D4B0E491B788DF8DD
:1061F000003004A83C2306AA05F074FC05A8FFF7AC
:10620000B1FF204600E0002047B030BD04DE03208F
:10621000A6010C0054E6032005E40320D5010C0080
:1062200004E4032015020C0010B52A4994B004467A
:1062300007F078FD58B12046264907F073FD044663
:1062400068B9FFF7A1FA2146FFF710FD1EE02249C9
:10625000204607F067FD0028EDD114B010BDFFF710
:1062600093FA0121FFF702FDFFF78EFAFFF77AFCA0
:106270000B280BD819491A48FDF730FFFFF784FAAD
:106280000C21FFF7A1FC174B01221A70FFF77CFAD3
:10629000FFF7C4FC1449154B154A002818BF0B46DC
:1062A000402104A805F0F8F80D4804A9FDF716FFF1
:1062B00005F02AF860B10F4B0F491B788DF80030BC
:1062C00002A83C2304AA05F00DFC03A8FFF74AFF2F
:1062D0000120C2E7C4030C00A0060C0021020C0040
:1062E00054E6032005E403201A020C001E020C00F1
:1062F0004E020C0004E403203F010C0030B51E499F
:1063000085B0054607F00EFD0446D8B1FFF73CFA0C
:106310000121FFF7B7FC3C20FFF768FE04F0F4FF13
:1063200010B9012005B030BD144B154A1B788DF80B
:1063300000303C2302A8134905F0D4FB03A8FFF763
:1063400011FFEEE71049284607F0ECFC0028E9D0E1
:10635000FFF71AFA2146FFF795FC40F26450FFF769
:1063600045FE04F0D1FF0028DBD0044B074A1B7820
:106370008DF800303C23DDE7C4030C0004E4032067
:1063800068020C003F010C00A0060C007B020C0010
:1063900070B5D0E900531426044606FB0356AE42FE
:1063A00004D0284607F0BAFB1435F8E7206805F05A
:1063B00053F8204670BD8842F8B504460D4616468F
:1063C00016D9904215D2A2F11406751AA1F114073C
:1063D0002C44B7421CD02CB13146204607F01AFCA1
:1063E000337C2374304607F099FB143E143CF0E7ED
:1063F0000ED0B5420CD02CB12946204607F00AFC3D
:106400002B7C2374284607F089FB14351434F0E7FD
:10641000F8BD2DE9F0410023C0E9003383604F68E7
:106420009F4204460E4623DD4FF0140808FB07F098
:1064300005F00AF80546D8B1D4E9001208FB0212AB
:10644000FFF7B9FF206805F007F82560A760D6E9D7
:10645000007308FB0378B84508D03946284607F092
:10646000F3FB3B7C2B7414371435F4E773686360DB
:106470002046BDE8F081000070B5274B274A012572
:106480001D70274B00248CB09A60C3E900440220A1
:1064900004F0A8FE2146284604F0BCFE294604204C
:1064A00004F01EFCCDE90044029407F0BDFF1D4C32
:1064B0000546694603A8FFF7ACFF264603A906A8D0
:1064C000FFF7A7FF184B46F8043B06A909A8FFF7FA
:1064D000A0FF09AA1E21304606F07EFC09A8FFF79E
:1064E00057FF06A8FFF754FF104B2360256203A84F
:1064F000FFF74EFF0E4B236007F096FF4FF4165147
:1065000007F080FF06F07EF9214606F03BFB684667
:10651000FFF73EFF0CB070BD04E403200000FFFF56
:10652000F8E3032008E4032060030C008C0F0C0048
:1065300078030C002DE9F04385B007F08EFE434947
:1065400005464348FDF7CAFD424B188805F09CFDFF
:10655000002401A8CDE90144ADF80C4005F0C2F9D2
:10656000204604F0EDFB43F698260446002004F094
:10657000E7FB031B61F10001B34271F1000305D297
:1065800004F0C2FE10B104F0AFFEEFE704F0BCFE71
:1065900004F0C6FB304F386004F0A6FE04F0B4FEF1
:1065A000044640B12D492A48FDF798FD00242046B5
:1065B00005B0BDE8F08307F050FE2949DFF8A4805C
:1065C000421B2348FDF78AFD07F047FE22460221C1
:1065D0000646D8F8040004F0E7FED8F80400234685
:1065E0002246214604F0F8FE204604F0A9FB47F2BB
:1065F00030590546002004F0A3FB431B61F1000164
:106600004B4571F1000306D2404606F003FF10B976
:1066100004F06AFEEEE7134806F0FCFE04F080FB8F
:10662000386004F061FE0F4806F0F0FE20B10E491C
:106630000748FDF753FDBAE707F00FFE0B49821B31
:106640000348FDF74BFD0124B1E700BF8F020C00AA
:1066500054E60320AA000C0010E70320B8020C0047
:10666000DB020C0080E5032004030C002A030C006D
:1066700007EE900A9FED097AF8EEE77A67EE877ADF
:106680009FED077A87EE870ADFED067A70EE677A6C
:10669000B2EE040A87EE800A704700BF00404E4504
:1066A00000F07F450000FA4313B5012101A806F070
:1066B00046FFFFF7B9F8FFF7C0F9FFF7B5F8FFF7A6
:1066C000BCF9252801A80DD906F0CCFFFFF7ACF8DE
:1066D0000121FFF706FA002401A806F03FFF20463B
:1066E00002B010BD06F0A3FF0124F5E730B5194D47
:1066F0000FCD97B00CAC0FC40FCD0FC495E80300BD
:1067000084E80300144904A804F098FF04A804F0E6
:10671000D8FF044604A805F00DF804A810EE105A9E
:1067200005F038F816AB10EE100A03EB840408F0FD
:106730000FFACDE90201284608F00AFACDE9000176
:10674000064A54F8283C0648402104F0A5FE17B03C
:1067500030BD00BFE4030C0080E50320C6030C003D
:1067600034DE032030B585B00D4600226946009224
:1067700004F026FD90B9009C0CB1236923B9084AA6
:1067800008490A2004F0F4FC0C23CDE90135042368
:10679000039301AA236901212046984705B030BD23
:1067A00011AD0B0005FF0B0013B5FFF73DF801A974
:1067B00004460720FFF7D6FF011EA8BF0199204617
:1067C000C9B2FFF78EF9184805F086FB4FF4FA704E
:1067D00004F0BAFEFFF728F801A904460320FFF7EA
:1067E000C1FFE8B9BDF8043007EE903AFBEECC7A71
:1067F00017EE900A08F0ACF941EC100B2046FFF7B9
:106800004FF8FFF711F8FFF72BF8084B51EC100B7E
:10681000002208F085FC003818BF012002B010BD2E
:10682000FFEE007AE4E700BF2CE4032000004E40B6
:1068300013B5FEF7F9FF114B0446188807F049FF1E
:10684000FFF716FFFDEEC07A2046CDED017A9DF8E8
:106850000410FFF740F9FEF7E7FFFFF7EEF8084AEC
:1068600003461021074804F017FEFFF79DFFFFF7CE
:106870001BFFFFF73BFF012002B010BDB0000C0072
:10688000DF030C0024DE03200148002105F0E0BAFC
:106890002CE40320704710B520210446FDF7FFFBD0
:1068A000204610BD10B504468AB008464FF0200CB3
:1068B0000021CDE90023CDE902C10B4602AA2168DF
:1068C00004F066FC0AB010BD0EB403B503AB322170
:1068D00053F8042B0193FFF7E5FF02B05DF804EBDA
:1068E00003B070470EB403B503AB012153F8042B7A
:1068F0000193FFF7D7FF02B05DF804EB03B07047D8
:1069000010B50272FF2242810022C0E903224261D7
:106910000276C261024A034C1060C0E9004110BD1A
:1069200038E403205C060C002DE9F8439DF8208034
:106930000446894616461F46B8F1000F02D040684B
:1069400005F064FB217A606805F03DFB6068036830
:1069500049469B6898476068002105F053FB05464F
:1069600000BB0123217A60683A4605F01AFB874292
:10697000034609D13744BE421CD0606803685B6996
:10698000984706F8010BF6E70B490C484A46FFF713
:106990009BFFB8F1000F02D0606805F040FB28466D
:1069A000BDE8F8830346064904484A46FFF78CFFD2
:1069B0000025EEE70125ECE70C040C0034E403208D
:1069C00031040C0007B500930123FFF7ADFF03B0BE
:1069D0005DF804FB73B54389FF2B044610D0194EB4
:1069E000194D04F09DF9B0F57A7F09D2608907F05E
:1069F0005DFE012804D031462846FDF76FFBF0E725
:106A000001230DF1070228212046FFF7DBFF30B9F3
:106A10000D480E49FDF762FB002002B070BD9DF8E5
:106A20000730182BF4D101230DF10702292120464C
:106A3000FFF7C8FF0028EBD09DF80730052BE7D102
:106A4000EBE700BF55040C0034E403206A040C009B
:106A500007B5134600228DF807200DF10702FFF756
:106A6000B1FF9DF8070003B05DF804FB2DE9F0418C
:106A70009DF8188004460F4615461E46B8F1000FD3
:106A800002D0406805F0C2FA217A606805F09BFAEE
:106A90006068036839469B6898472E44B542606831
:106AA00005D0036815F8011B9B689847F6E701219C
:106AB00005F0A8FA034670B1084909483A46FFF7BD
:106AC00003FF0025B8F1000F02D0606805F0A7FAB7
:106AD0002846BDE8F0810125F4E700BF77040C00EB
:106AE00034E403201FB58DF80F2000930DF10F0241
:106AF0000123FFF7BBFF05B05DF804FBF8B50A46BC
:106B00000C4605461A491B48FDF7E8FA002CB8BFA9
:106B1000EC687CB9012322461B212846FFF7E2FFDF
:106B20001549024606461348FFF7DCFEEC606C612F
:106B30003046F8BD032C19DDA7101F2FA8BF1F2753
:106B4000BA0062F07C020123D2B21B212846FFF773
:106B5000C9FF3A460346094906460648FFF7C2FE02
:106B60004FF4FA635F43EC606F61E1E70127E7E709
:106B70009C040C0034E40320A6040C00C2040C00A6
:106B8000064B1A684AB1A0F500630B4305D1D368E0
:106B90001BB100211046FFF7B1BF704738E4032056
:106BA0002DE9FF419DF82880054616461F46B8F19D
:106BB000000F04D04068019105F028FA0199019175
:106BC00000230DF10F022846FFF7FCFE044660B1DA
:106BD0009DF80F3003EA06023A43934205D001992B
:106BE00000232846FFF77EFF0446B8F1000F02D0CD
:106BF000686805F014FA204604B0BDE8F08113B5CA
:106C000014460DF10702FFF7DDFE28B19DF80730AD
:106C10001C420CBF0120002002B010BD13B5144669
:106C20000DF10702FFF7CEFE28B19DF807301C4298
:106C300014BF0120002002B010BD07B5D24300935D
:106C4000D2B20023FFF7ACFF03B05DF804FB0000F5
:106C500037B501230DF107020F210446FFF7B2FEFD
:106C6000054638B91E491F48AD22FFF72DFE2846BC
:106C700003B030BD9DF8073013F0200F4FF0010333
:106C80000BD02022E3610F212046FFF7D6FF164AE2
:106C900016491448FDF722FAE9E708221721204691
:106CA000FFF7BCFF18B10223114AE361F0E79DF83A
:106CB00007301A0709D50323E361082201230F21B6
:106CC0002046FFF7BAFF0B4AE2E75B07CFD5042265
:106CD000E26101230F212046FFF7AFFF064AD7E705
:106CE00015050C0034E40320E6040C0034050C0008
:106CF000EF040C00FF040C000F050C0007B5009317
:106D00001346FF22FFF74CFF03B05DF804FB0000C1
:106D1000F8B50F461646012300220F210546FFF75E
:106D2000E1FE044638B94FF425721F491F48FFF7AA
:106D3000CBFD2046F8BD0123232218212846FFF76A
:106D4000D1FE044610B940F29B22EEE7FF2FA8BF08
:106D5000FF27012FB8BF01270123FAB219212846C6
:106D6000FFF7C0FE044610B94FF42A72DDE7012395
:106D7000082212212846FFF7C1FF044610B940F24D
:106D8000AF22D2E7002E14BF03220222012342F0D9
:106D9000800218212846FFF7A5FE04460028C8D126
:106DA00040F2B922C1E700BF45050C0034E40320DE
:106DB0002DE9F7430A4605460F464F484F49FDF770
:106DC0008DF900212846FFF799FE044648B940F2A4
:106DD000F7124B494848FFF777FD204603B0BDE85E
:106DE000F08301231A4630212846FFF787FF044627
:106DF00010B940F20522ECE7102201231146284683
:106E0000FFF71BFF044610B94FF40372E1E70123BB
:106E1000262213212846FFF765FE044610B940F2EA
:106E20001322D6E7012600963346FC22112128467C
:106E3000FFF7B6FE044610B940F21B22C9E7002254
:106E400039462846FFF764FF044610B940F2222273
:106E5000BFE700960223772210212846FFF7A0FE05
:106E6000044610B940F22B22B3E7334604221C211A
:106E70002846FFF743FF044610B940F23222A8E744
:106E800000961823E32211212846FFF789FE0446C5
:106E900010B940F239229CE73346C0221721284618
:106EA000FFF720FE044610B94FF4107291E703F08B
:106EB00037FFDFF85490DFF840804FF47A710646D0
:106EC0004F4303F02DFF801BB8420ED20122172141
:106ED0002846FFF7BDFD494602464046FDF7FEF84D
:106EE0004FF47A7004F030FBEBE706490248FFF7F5
:106EF000EBFC06F0C6FF70E734E4032070050C00DD
:106F000065050C0096050C0081050C002DE9F34782
:106F10009DF828A005460C4691461F46BAF1000F81
:106F200002D0406805F072F807B3202F3E4628BF14
:106F300020267F2C26D83319802B01D9C4F1800656
:106F4000012304223F212846FFF777FE002364F047
:106F50007F0100934A463346C9B22846FFF7E4FC56
:106F6000804628B13444BF1BB144DDE74FF001082F
:106F7000BAF1000F02D0686805F051F8404602B03F
:106F8000BDE8F087012304223F212846FFF7B6FE23
:106F9000DCE72DE9F3479DF828A005460C4691460D
:106FA0001F46BAF1000F02D0406805F02FF807B372
:106FB0001F2F3E4628BF1F267F2C26D83319802B33
:106FC00001D9C4F18006012304223F212846FFF79E
:106FD00034FE002364F07F0100934A463346C9B271
:106FE0002846FFF743FD804628B13444BF1BB14417
:106FF000DDE74FF00108BAF1000F02D0686805F034
:107000000EF8404602B0BDE8F087012304223F217C
:107010002846FFF773FEDCE730B585B00D68D1E98F
:10702000043203954D6802958D680195C9680091F9
:107030000133044902F26C72044606F0BBFE20469E
:1070400005B030BDA8050C0003090A2200F00F00AE
:1070500002FB0300704738B5044600781546FFF779
:10706000F3FF08606078FFF7EFFF4860A078FFF754
:10707000EBFF8860E078FFF7E7FFC8602079FFF753
:10708000E3FF013808612DB9651D2878FFF7DCFFA3
:10709000886138BD6079FFF7D7FF6430A51D48616E
:1070A000F3E7000070B5012388B00D461A461021A1
:1070B0000446FFF7A4FDF0B1082301262046009600
:1070C0000DEB03020021FFF72FFC044698B1324676
:1070D00029460DF10900FFF7BEFF04A8FFF79CFF4A
:1070E0000848049A0849FCF7F9FF04A806F016FDC1
:1070F000204608B070BD24220021284608F0F2F88E
:107100000024F5E734E40320C6050C0030B58BB04D
:107110000D4601A9FFF7C6FF044620B101A804F0FF
:107120000BFAC5E9000120460BB030BD0A2390FBE5
:10713000F3F103FB110091FBF3F203FB121240EA9F
:107140000210C0B2704770B5054600680C4616467E
:10715000FFF7ECFF20706868FFF7E8FF6070A86831
:10716000FFF7E4FFA070E868FFF7E0FFE070286930
:107170000130FFF7DBFF20712EB9661DA869FFF70C
:10718000D5FF307070BD6A69642392FBF3F003FB96
:107190001020FFF7CBFFA61D6071EFE7F0B587B0B9
:1071A000054602A816460C46FFF736FF1E48029A0F
:1071B0001E49FCF793FF02A806F0B0FC16B1686800
:1071C00004F024FF204601220DF1090100278DF86B
:1071D0000870FFF7B8FF01231A4610212846FFF771
:1071E0008DFD0446E8B1082300970DEB03023946F4
:1071F0002846FFF73BFC044660B101231A461021E4
:107200002846FFF71AFD16B1686804F008FF20460B
:1072100007B0F0BD4FF48D7205490348FFF754FBEA
:10722000F1E74FF48F72F7E734E40320D4050C0044
:10723000E2050C0013B504466846CDE9002308F0CA
:1072400003F89DF8102001462046FFF7A7FF02B083
:1072500010BD0000F0B5057E89B0044675BB06F090
:10726000DFFF58B30026002704A92846CDE90467AC
:1072700004F06AF810B30125257606F0EEFFC31777
:10728000CDE90203024600952046FFF7D3FF02A98D
:107290002046CDE90267FFF739FF134B13491B68FE
:1072A000009304A8DDE9022306F078FF1048049A51
:1072B0001049FCF713FF04A806F030FC63698BB19A
:1072C00003F02EFD2369C01A636998420AD303F0C4
:1072D00027FD4FF0FF312061204609B0BDE8F040A6
:1072E000FFF70CBC09B0F0BD7CDE0320A8E603204C
:1072F00034E40320FD050C0030B504468BB011B119
:10730000406804F031FE2046FFF764FB06AD00281C
:1073100037D02046FFF79CFC01231A461021204657
:10732000FFF76DFCD8B106F07BFFC0B902A920467B
:10733000FFF7ECFEDDE9020106F076FE134B14497F
:107340001B6800932846DDE9022306F027FF114859
:10735000069A1149FCF7C2FE284606F0DFFB0F4BE8
:1073600006930F4B09930F4B08934FF400620023D1
:1073700002A80095FDF70AFF2846FDF70BFC0BB0AD
:1073800030BD09490348FFF79FFAE8E77CDE032098
:10739000A8E6032034E4032013060C00816B0B00E5
:1073A0008B4B0B00774B0B0030060C00014B024A55
:1073B0001A60704734E4032048060C0010B501231E
:1073C00003748368044643B1C0689847012363741B
:1073D0000020BDE8104003F073BC00680028F5D021
:1073E00083680BB907F04CFAC368EEE7012A02D1B3
:1073F000016000207047022A04BF0B680360F8E7B1
:1074000038B50568044635B12846FDF7C3FB1021A1
:107410002846FCF744FE20461421BDE83840FCF71E
:107420003EBE10B503680446ABB1586803F0F8FBE4
:1074300088B923685A7C12B9586803F0F9FB2368AD
:10744000586803F0FDFB20680023236018B1BDE8F5
:107450001040FFF7D5BF10BD054A02600022426010
:10746000027380F84F24C0F85824C0F86024704795
:1074700088060C0010B5074C236843B940F26440FD
:10748000FCF709FE034608B1FFF7E6FF236020681A
:1074900010BD00BF3CE4032038B50446406890B1FD
:1074A00002232373FFF7BDFF656855B12846FFF738
:1074B000B8FF286808B1FFF7A3FF04212846FCF7AE
:1074C000EEFD0023636038BD10B5054B0360044634
:1074D000FFF7E2FF04F58A60FDF75CFB204610BD74
:1074E00088060C0010B50446FFF7EEFF204640F278
:1074F0006441FCF7D4FD204610BDF0B5044689B0C8
:1075000000F10D0600F14E07237B1BB9012004F0AA
:107510001BF8F9E7237B022B64D0A06803F0A0FBE3
:10752000A06803F0A5FB94F84F348DF800303A467C
:107530003C23314606A804F0D5FA069D6B7833B992
:10754000237B022B03D0012003F0FEFFF5E7D4F8E4
:1075500058341BB3002003F065FE20B16B7813B9DB
:1075600003F0C2FEFAE72B78D4F860240592591E86
:107570004B424B418DF80B30D4F85834CDE90367BA
:107580000BB907F07DF905AB0093D4F85C5404AB5C
:1075900003AA0DF10B0104F58A60A847A06803F067
:1075A0005FFB237B022B17D0D4F858340025C4F896
:1075B000605443B104F58A61032208469847C4F831
:1075C0005854C4F85C540023A068237303F050FBA4
:1075D00007A8FEF7C7FD97E7A06803F049FB07A8D7
:1075E000FEF7C0FD09B0F0BD0068FFF786BF13B518
:1075F0000B460246D0E900016C4684E8030093E89C
:10760000030082E8030094E8030083E8030002B06B
:1076100010BD00002DE9F743064688461420264990
:107620001746994607F022F9044630B10020C4E914
:107630000000C4E90200207460743460002C31D072
:107640001D49102007F012F9054668B10023836038
:1076500001463846FFF7CBFFBB68AA68BA60AB604B
:10766000EA68FB68EB60FA602768256037B1384646
:10767000FDF790FA10213846FCF711FD30680368D9
:1076800083B10A9B4A46CDE9000341460B4B0430C7
:1076900003F0BEFA30B933681B7C4BB9012003F00C
:1076A0002FFBF8E730680023336008B1FFF7A8FE2E
:1076B000304603B0BDE8F083E0100C00BD730B0052
:1076C00030B5436887B00446C3B9083003F0C0FA48
:1076D0000B4B059304200B4B02940493FCF7DBFC4B
:1076E000054638B14FF4406300930749022302AACC
:1076F000FFF790FF656002A8FDF74CFA07B030BDB8
:10770000E9750B00ED730B006C060C002DE9F043DE
:10771000044685B080680C9F98460D46164603F0D7
:107720009FFA63681BB1237B03F0FF0933B1A068A4
:1077300003F09EFA002005B0BDE8F083A06803F0D6
:1077400097FA002D3DD04022294604F10D0007F0A4
:10775000A0FE84F84D908EB340F20142314604F110
:107760004E0007F096FE84F84E9400230293BB6807
:1077700004F58A653BB10222394668469847FB68A2
:107780000393BB68029329466846FFF730FF029BCC
:10779000D4F85824C4F85834039B02926846D4F8AD
:1077A0005C24C4F85C340392FDF7F4F90D9BC4F833
:1077B0006034012084F84F842073BCE784F84E6065
:1077C000D3E72846B7E77047704710B5082104464D
:1077D000FCF765FC204610BD10B510210446FCF7EF
:1077E0005EFC204610BD000010B5054B044640F875
:1077F0001C3B06F093F9201D06F090F9204610BDC1
:10780000FC060C0010B50446FFF7EEFF2046582199
:10781000FCF745FC204610BD10B5044B044640F86B
:10782000043BFFF7E1FF204610BD00BFCC060C0073
:1078300010B50446FFF7F0FF20466021FCF72FFC4F
:10784000204610BD20F00203012B03D0431F5842F5
:10785000584170471846704791F90430037191F907
:107860000530437191F90630837191F90730C37186
:10787000704738B504460D460430043106F0D5F99A
:1078800005F1140104F11400FFF7E6FF05F11C01F6
:1078900004F11C0006F0C9F905F12C0104F12C00DB
:1078A000FFF7DAFF95F9383084F8383095F9393038
:1078B00084F8393095F93A3084F83A3095F93B300C
:1078C00084F83B3005F13C0104F13C00FFF7C4FFB4
:1078D00095F9483084F8483095F9493084F84930B2
:1078E00095F94A3084F84A3095F94B3084F84B309A
:1078F00005F14C0104F14C00FFF7AEFF95F8543050
:1079000084F8543038BD0B6803604B68436013B192
:107910005A6801325A607047024A02604A684260FF
:10792000704700BFDC060C00024A02600022426081
:10793000704700BFDC060C0030B5002387B08380A1
:1079400083710D4605AB00931349044604AB03AAAB
:10795000284603F099FD032807D1039B2371049B5C
:107960006371059BA37107B030BD0C4904AB03AA3A
:10797000284603F089FD022804D1039B2371049B50
:107980006371F0E7064903AA284603F07DFD01284C
:1079900004BF039B2371E6E790060C0093060C00DE
:1079A000A3040C0090F9042090F9053090F906101A
:1079B000002AB8BF0848C3EB03134FEA8303BDBFD7
:1079C00000FB0230401840424FF46160A4BF00FB4E
:1079D00002304018704700BFF0F1FFFF08B590F883
:1079E00054304BB190F93B3043B92C30FFF7DAFFFC
:1079F000B0FA80F0400908BD0120FCE70020FAE75A
:107A000090F9073043B990F904308B6090F9053054
:107A10004B6090F906300B60704790F9073030B535
:107A2000B3B990F904508C682C44D1E900328C60D1
:107A300090F90540002DB5BF121B12194A604A602B
:107A4000B5BF90F9062090F906209B1A9B180B6091
:107A500030BD000008B5054A0260002203464260BE
:107A60000830FFF761FF184608BD00BFEC060C00A8
:107A700000234360838183737047000030B5044660
:107A800087B00D4611B10B784D2B05D0204607B0BD
:107A9000BDE83040FFF7ECBF05AB0093114904ABE4
:107AA00003AA284603F0F0FC032816D1039B237198
:107AB000049B6371059BA3712F21284607F086FC68
:107AC00040B1411C04F10800FFF736FF0123E371C8
:107AD00007B030BDA081A073F8E72046FFF7C8FFCC
:107AE000F6E700BFAB060C00104B114910B5044679
:107AF00040F8043B06F05DF804F11400FFF714FFB2
:107B00000B4904F11C0006F054F804F12C00FFF7B7
:107B10000BFF04F13400FFF79DFF04F14400FFF771
:107B200099FF002384F85430204610BDFC060C0059
:107B3000580F0C002DE9F74F0446084607F070FC7B
:107B400000250646019004F134083F49019801AA36
:107B500007F0EEFC0146002862D0012D05F101037B
:107B600053D0022D56D0002D46D1024692F80090F7
:107B7000B9F1400F1546174602F10102F6D800226E
:107B80002A7004F11C0006F072F8012285F80090BA
:107B900084F854202A786AB397F800A00AF1FF32DB
:107BA0003F2AB946BB4607F10107F5D9002304F186
:107BB0002C0789F8003029463846FFF7BDFE89F8C2
:107BC00000A0BAF1000F15D05D461BF801ABBAF169
:107BD000400FF9D800222A704946201D06F047F8C8
:107BE00085F800A004F11400BAF1000F06D0294670
:107BF000FFF7A2FE0125A8E71D46A6E73946FFF7D5
:107C00002BFE237E013B2376F4E74046FFF736FF49
:107C100002259AE704F14400FFF730FF032594E7BB
:107C200094F93B3043B194F94B202AB904F1340064
:107C3000FFF71EFF84F85420304603F00DFC94F843
:107C4000540003B0BDE8F08FB5060C0038B5134BF7
:107C500004460D4640F8043B114905F0AAFF04F123
:107C60001400FFF761FE0E4904F11C0005F0A1FFAE
:107C700004F12C00FFF758FE04F13400FFF7EAFE90
:107C800004F14400FFF7E6FE002384F8543029464F
:107C90002046FFF74FFF204638BD00BFFC060C0012
:107CA000580F0C0010B5044688B00846683001A98A
:107CB00007F09EFA01A807F0D0FB08AB1844002398
:107CC00000F81D3C01A9204605F073FF204608B0CE
:107CD00010BD000038B50446081D0D46FFF77EFEB6
:107CE00028B10949204605F064FF204638BD2868C0
:107CF000FFF7A8FD28B105F10801204605F0A4FF13
:107D0000F3E705F12001F8E7B7060C002DE9F0478D
:107D10008046A8B00C4615462AB1474B1046196854
:107D200007F06BFB38B921464046FFF7BBFF4046E2
:107D300028B0BDE8F08729463F2218A807F0A9FB24
:107D4000002318A88DF89F3007F087FB21460546D1
:107D500003A8FFF7BFFF201DFFF740FE48B33749D8
:107D600007A807F054FB18AE002705F1FF3ABA4503
:107D70004CD93378252B07F1010917D173787A2B69
:107D800036D107A807F069FB18AB05463818AAEBEF
:107D90000702B11C184407F07DFA2A4607A93046AD
:107DA00007F078FA18A807F058FB054601364F4649
:107DB000DBE72068FFF746FDB8B104F11800FFF7D4
:107DC000F1FD3C2290FBF2F3002BB8BF5B42B3FB0A
:107DD000F2F102FB11330093194A1A4B90FBF3F3B3
:107DE000102107A803F058FBBDE704F13000E6E7D7
:107DF0005A2BDBD1059D18AB7819AAEB0702B11CF1
:107E0000184407F047FA03992A46C8E700212E22B2
:107E10000CA80B9107F066FA04F1680318AA322146
:107E20000BA803F071FB0BA9404605F0C2FE03A8A6
:107E300005F074FE7BE700BF7CDE0320B7060C0074
:107E4000B9060C00F0F1FFFF38B5094D2B6863B996
:107E50006020FCF720F9044630B1064B40F8043BA3
:107E6000FFF742FE6423E3652C60286838BD00BF3D
:107E700040E40320CC060C0003F05EBB01390B2963
:107E800015D8DFE801F016081606160616160616AF
:107E900006161E20704783070DD1642390FBF3F272
:107EA00003FB120000280CBF1C201D20704700207F
:107EB00070471F2070471C207047F8B50123CB6026
:107EC00090F90430013B0B610023C1E90033064601
:107ED0000C4617468B602046FFF7CEFF96F906301A
:107EE000A2699A4203D0E3680133E360F3E796F9AD
:107EF0000550012D13D0E3686069013DC5EBC50550
:107F00001D44E56096F9041000F26C70FFF7B6FFAF
:107F10008542C4BF073DE5602046FFF7ADFF21461F
:107F200006F10800FFF76CFD3846FFF776FD2046A6
:107F3000BDE8F84003F000BBF0B590F8583085B0CC
:107F400004462BB9FFF780FF011D201DFFF791FCB0
:107F500094F93F30002B65D0D4E9182304F1980739
:107F6000394602A83E46CDE9022303F0D5FA0FCEEA
:107F700004F1C8050FC50FCE0FC533682B6004F19F
:107F8000300102A8FFF7C8FC02AA394604F1380004
:107F9000FFF793FFC4E9240104F1180102A8FFF7D9
:107FA000BBFC02AA04F1C80104F14800FFF785FFF9
:107FB000D4E92465864275EB0103C4E93001D4E9B4
:107FC000182323DAB24273EB050519DA0023236084
:107FD0002068FFF737FC04F16801D4E918560191D5
:107FE00010BB04F13000FFF7DDFC2D1A66EBE070EA
:107FF000CDE90250019902A803F08EFA05B0F0BD58
:1080000082428B41B4BF01230223E0E7824273EB3B
:10801000010101DA0323DAE7B242AB41B4BF042322
:108020000523D4E70623D2E704F11800DBE737B5D0
:108030008D6804466846FFF766FC6A462946204676
:1080400004F09CF901A8FEF78DF8204603B030BD7E
:1080500037B5CD6804466846FFF755FC6A462946A1
:10806000204604F067F901A8FEF77CF8204603B02B
:1080700030BD37B50D6904466846FFF744FC6A46D3
:108080002946204604F0FFF801A8FEF76BF82046C9
:1080900003B030BD704710B510210446FBF7FFFF59
:1080A000204610BD0368C9B29B68184730B5034D20
:1080B000C0E90223C0E9005130BD00BF0C070C002D
:1080C000406803F051BF10B50446006803F0A7FFF5
:1080D000204610BD2DE9F7430446406801900D4647
:1080E00016461F4603F092FFA7B1E168606841F0B1
:1080F000500103F06CFF290A6068FFF7D3FF29469F
:108100006068FFF7CFFF6068002103F07BFF48B194
:10811000002400E0012401A8FFF7D5FF204603B0AA
:10812000BDE8F083202F217B6068B84628BF4FF060
:1081300020080123424641F0500103F032FF06F0CF
:108140000DFB03681B6998474045E1DB06EB080916
:1081500006F004FB03685B69984706F8010B4E457F
:10816000F6D14544A7EB0807BEE72DE9F74F0446D3
:10817000406801900E4690461D4603F047FF4FF0C1
:108180000109B9F1000F2AD04DB3E168606841F0F0
:10819000500103F01CFF310A6068FFF783FF60683D
:1081A0003146FFF77FFFA5F11E0A4746A6EB080BF5
:1081B000606817F8011B0368013D9B6898475545A7
:1081C0000BEB0706B84601D0002DF1D16068012104
:1081D00003F018FF0028D7D04FF00009D1E701A81D
:1081E000FFF771FF484603B0BDE8F08F2DE9F0437B
:1081F0008BB00E4615468046406801901C4603F041
:1082000005FFAE4229D2264425448CB11E2C2746B8
:10821000D8F8003028BF1E27F61BD3F8089002AA12
:108220003B4631464046ED1BC84748B9002400E0B4
:10823000012401A8FFF747FF20460BB0BDE8F083FB
:10824000D8F8003002AAD3F80C9029463B464046A5
:10825000C8470028EAD0E41BD7E7E9D9002CE7D0CB
:10826000D8F800301E2C274628BF1E27D3F80890C8
:1082700002AA3B4631464046C8470028D6D0D8F827
:10828000003002AAD3F80C9029463B464046C84726
:108290000028CBD03E443D44E41BDFE703680A7866
:1082A00083F8B120012183F8B010704710B4426800
:1082B0000346541001EB6200D20748BF0A591B68FD
:1082C0005DF8044B48BFD3581847012A02D101601A
:1082D00000207047022A04BFD1E90023C0E900232F
:1082E000F6E7012A02D1016000207047022A04BF8C
:1082F0000B680360F8E7406F02F0D2BCD0F8C830DA
:1083000001461BB1D0F8CC30C03018477047000090
:10831000F8B5124D0846002A18BF15460E461F46EE
:1083200007F09BF8402816D8284607F096F8B0F5D5
:10833000806F10D84330FBF7B0FE044648B1314699
:1083400000F8017B07F063F8294604F1420007F0CA
:108350005EF82046F8BD0024FBE700BF580F0C0074
:10836000F0B59FB00A4600230E46011D08A802F092
:1083700081F80898002107F085F9054608A805F05E
:10838000CDFB002D60D008A9284607F069F90C9BA9
:108390002E492F483246FEF7A5FA002211462846FC
:1083A00007F066F9082206A9284607F07FF90C9F16
:1083B0004A2F39DD274B069A9A4235D1264B079A28
:1083C0009A4231D1A7F1080210460592FBF765FEEB
:1083D0000446C0B127440146059A284607F066F9CD
:1083E00017F8093CABB9631C1846059307F035F83C
:1083F0003F28059B0DD804F142020092174914480A
:108400003246FEF76FFA284607F022F920461FB0E1
:10841000F0BD13490E483246FEF764FA4321204668
:10842000FBF73DFE0024EEE7BDF81E3002939DF8F9
:108430001D3001939DF81C3000930A49069B0448A7
:108440003246FEF74FFAEDE72C46DFE720070C0037
:1084500044E403206376B6310108410034070C0080
:1084600056070C0084070C002DE9F8438046284B82
:1084700048F8043B0446404601F014FF02226423FE
:108480000025C4E91B230823E367C4E92055C4E998
:108490002255C4E92455C4E92655A5672020FBF7D9
:1084A000FAFDE66FA067013E760800EB86090746F5
:1084B0004FF40070FBF7EFFD00F50073C4E92503EE
:1084C000C4F888304FF4FA614FF47A73C4E92D137D
:1084D00047F2305347F82600C4F88400C4F88000FF
:1084E000C4F89000C4E92855C4E92A550949C4F8DC
:1084F0008C90C4F89C90C4F8B050C4F8BC30C4F858
:10850000C850404601F014FF2046BDE8F88300BF84
:10851000A0090C00C9070C0038B5064D2B683BB903
:10852000D020FBF7B8FD044608B1FFF79DFF2C6093
:10853000286838BD48E403204269436A9B1A9B10AF
:108540005A1ED0E906315B1A9B1003EBC213026975
:108550008068101A03EBA000704738B50546FFF796
:10856000CAFE05F17800FFF7E7FF044650B9281D61
:1085700002F0D4F9D5F8A03004461BB1D5F8A430E8
:1085800003B90134686F02F093FB204638BD10B583
:1085900002698368043A9342044602D00433A3601C
:1085A00010BDC0684FF40071FBF779FD63691A1DB7
:1085B00062615B68E36003F500722261EFE700002F
:1085C0002DE9F04F85B00446FFF795FEDFF8A49043
:1085D000DFF8A4A0DFF8A4B0D4F88030D4F890205D
:1085E000934205D1606F05B0BDE8F04F02F060BB6B
:1085F00004F1780004F104081F68FFF7C8FF404643
:1086000002F030F90023024641460646684601F072
:1086100031FF009840F2022107F034F80546684621
:1086200005F07CFAC5B1082269462846CDE9009AD2
:1086300007F04EF807F1420006F00FFF394600F14F
:108640004302284607F044F8284607F001F8084896
:1086500032465946FEF746F93146404602F044F9A3
:10866000002FB9D043213846FBF719FDB2E700BF10
:1086700044E403206376B63101084100D7070C00BB
:108680002DE9F0410446FFF736FE04F17800FFF7CC
:1086900053FFE36E984202D92046FFF791FFDFF8BF
:1086A00044800F4F261D304602F038F9236F984260
:1086B00004DC606FBDE8F04102F0FABA01213046F7
:1086C00002F0DCF805460028EDD0014600223046D5
:1086D00001F00CFF2A4641463846FBF7FFFCE2E773
:1086E00044E40320F4070C0008B5A0F500630B4335
:1086F00005D0403850EA01030BD1092A09D10549B8
:108700000548FEF7EFF8FFF707FFBDE80840FFF761
:1087100057BF08BD07080C0044E4032070B5036888
:10872000044683B1436A45691E1DAE4206D955F819
:10873000040B4FF40071FBF7B2FCF6E761682068A8
:108740008900FBF7ACFC204670BD00001FB5D1E9E5
:1087500000230021044602910AB9D90705D5CDE9C5
:1087600000230A4B03930A4B029321466846FEF707
:108770003EFF029BA268A360039B02926846E268E8
:10878000E3600392FCF706FA04B010BDAD820B0063
:10879000CB820B0070B586B0044602F0B5FD48B937
:1087A000434B02A9CDE9023004F1C000FFF7CEFF30
:1087B00006B070BD94F8B2501DB1012384F8B330F7
:1087C000F6E702F0ADFAD4F8A830C01AD4F8AC300D
:1087D0009842EDD3261D2946304602F04FF8014657
:1087E000C4F8A400002852D02046FFF7B9FD054682
:1087F000C4F8A000002835D002F092FA02AE00259D
:108800002C4BC4F8A800314604F1C0000293039534
:10881000FFF79CFFD4E9283003F142020092264979
:10882000264AA4F8B050A84208BF0A46013324499A
:10883000244884F8B350FEF755F8FEF71BFED4F831
:10884000A020214B0593CDE9006511461F4B0294F2
:10885000049311F8013B4232FEF758FF3046FCF713
:1088600099F9A5E7D4F8A42019491648FBF736FC76
:108870000121304602F002F8D4F8A4102A4630460E
:1088800001F034FED4F8A030002BB5D195E7D4F830
:108890008030D4F890209A4207D01B68C4F8A030EA
:1088A00004F17800FFF773FEECE7C4F8A00084E75A
:1088B000D5880B00558C0B0036080C00280D0C00D9
:1088C00057080C0044E403209D820B00E3820B0058
:1088D0003A080C0013B5044602F016FD90B102F000
:1088E0001FFAD4F8B430C4F8AC300D4BC4F8A8006B
:1088F00000936946002304F1C0000193FFF726FFAF
:1089000002B010BD94F8B2301BB1012384F8B3302B
:10891000F6E72046FFF721FE0028F6D0F0E700BF7B
:1089200095870B0070B5054698B0002002F08AFCD0
:10893000012805D03E493F48FDF7C6FF18B070BD7D
:1089400005F1740002F09CF93B4B04933B4B0793F9
:1089500004A93B4B069308A8FCF708FC08A90CA83F
:10896000FCF704FC0CA910A8FCF700FC0026102062
:108970001696FBF790FB044660B18660014610A88E
:10898000FEF735FE129BA2681292A360E268139B69
:10899000E36013922B4B17932B4B16932B4B149492
:1089A00000261020CDE901360396FBF774FB044640
:1089B000D8B1169B866033B1022214A99847179B41
:1089C000E360169BA360224B0393224A029401ABFF
:1089D0004FF40460002102F015FC30B12046FCF792
:1089E000D9F810212046FBF75AFB14A8FCF7D2F85F
:1089F00010A8FCF7CFF80CA8FCF7CCF808A8FCF7F7
:108A0000C9F804A8FCF7C6F8FEF734FDFEF758FED7
:108A1000281D01F0AFFE2846FFF732FE0E4B1493DF
:108A200014A9002305F1C0001593FFF78FFE85E719
:108A300076080C0044E40320E9860B008B4B0B0006
:108A4000774B0B00514B0B0095520B0002000C00B2
:108A5000A74B0B00294B0B00D5880B002DE9F047E5
:108A600006468946406A71697368471A09EBA7058B
:108A70000135B3EB450F144627D95D1B6D083268ED
:108A8000AD000CB14FEA89042C441444031DA142EB
:108A9000A3EB010213D9994202D0204606F008FC4C
:108AA00074612368F36003F500733361E319736243
:108AB000E359F36103F500733362BDE8F08799422F
:108AC000EED0381D801A2044E8E703F102084B4538
:108AD0002CBF9844C844B8F1005F01D305F0CAFE2A
:108AE0004FEA8800FBF7D7FAA8EB05056D08824628
:108AF000AD000CB14FEA8904726A716904322C44EA
:108B00009142544403D0521A204606F0D1FB7168BA
:108B100030688900FBF7C3FAC6E900A8C0E7000087
:108B2000F0B585B004469DF828509DF82C302B43B5
:108B30000F461646FFF7ECFB054600283CD03F4B9E
:108B40003F494048002E18BF33463A46FDF7CAFE5B
:108B50002046FFF7D0FBD4F89820D4F89030043AA0
:108B6000934204F1780629D003B11D60D4F8903007
:108B70000433251DC4F89030284601F0CFFE039041
:108B80003046FFF7D9FC029002F0BEFBDDE902326D
:108B900000902D492B48FDF7A5FE284601F0BEFEAA
:108BA00000283BD02046FFF70BFD2046FFF768FD6D
:108BB000606F02F07DF8012005B0F0BD3046FFF790
:108BC000BBFC6FF06043984202D1204805F055FE8F
:108BD000D4F89C30A26F9A1AE36FA3EBA203012B87
:108BE00004D8002201213046FFF738FF4FF400700F
:108BF000D4F89C70FBF74FFA7860D4F8903003B14A
:108C00001D60D4F89C301A1DC4F89C205B68C4F821
:108C1000943003F50072C4F89820AAE73046FFF7B5
:108C20008BFCE36E9842BDD802F06EFB0028B9D0F1
:108C300007490448FDF756FEB7E700BF580F0C0080
:108C400099080C0044E40320F1080C00C1080C0052
:108C50001D090C0073B590F8B0300446002B41D0CC
:108C600090F8B130D0F8A420002B3DD050495148A5
:108C7000FDF738FED4F8A430D3B1261D00213046CC
:108C800001F0FCFDD4F8A430984205460DD1012135
:108C9000304601F0F3FD00222946304601F026FC63
:108CA000454944482A46FDF71DFE0023C4F8A43078
:108CB000D4F8A00010B14321FBF7F1F90023C4F868
:108CC000A030D4F8B830C4F8AC303C4B00936946BF
:108CD000002304F1C0000193FFF738FD02F020F8F3
:108CE000C4F8A80002B070BD35493248FDF7FAFD5E
:108CF000D4F8BC30C4F8AC30D4F8A4304BB1D4F8BC
:108D0000A00010B14321FBF7CAF90023C4F8A0303A
:108D1000DBE72046FFF7EFFAD4E92032934213D085
:108D2000D4F8A02043F8042CD4F88030043BC4F8D5
:108D30008030606F01F0BCFF22491E48FDF7D2FD74
:108D40002046FFF73DFCC0E704F178052846FFF711
:108D5000F3FB6FF06043984202D11B4805F08DFD94
:108D6000D4F88C20A36F9A4204D1012211462846E0
:108D7000FFF774FE4FF40070D4F88C50FBF78BF9BA
:108D800045F8040CD4F88C301A1FC4F88C2053F822
:108D9000043CC4F8843003F50072C4F8882003F55D
:108DA000FE72C4F88020D4F8A020C3F8FC21C0E7EC
:108DB00030090C0044E4032043090C0095870B00A4
:108DC00053090C0065090C00C1080C00014B024A54
:108DD0001A60704744E403208C090C0010B5074B5F
:108DE000044640F8C03BFBF7D5FE04F17800FFF7DE
:108DF00095FC201D01F0FEFB204610BDA0090C00D3
:108E000010B50446FFF7EAFF2046D021FBF747F9EB
:108E1000204610BD01600271704700680368DB687E
:108E20001847006803681B6A1847006803689B6A54
:108E3000184700797047006803689B6B184737B57F
:108E400005460C4619460192FFF7F5FF2868019A7E
:108E500003685B69214603B0BDE8304018470068ED
:108E60000368DB6B184738B50446006803680D4695
:108E70005B6B984729462046FFF7F1FF257138BD07
:108E800038B50446006803689B689847054618B1E2
:108E900021792046FFF7E7FF284638BD00680368C0
:108EA0001B6C1847006803685B6C18470068036810
:108EB000DB6C1847006803681B6D1847006803687F
:108EC0005B6D1847006803689B6D18472DE9F843F0
:108ED000044600680A9F1E4603681B69DDE908987E
:108EE00098470546C8B11EB12046FFF7E3FF307032
:108EF000B9F1000F04D02046FFF7D8FF89F8000031
:108F0000B8F1000F04D02046FFF7D8FF88F8000022
:108F10001FB12046FFF7D6FF38702846BDE8F8831A
:108F2000012070470379032BFCD0012070470020FB
:108F300070478171704741717047C172704701730A
:108F4000704741737047837B23EA020211438173A8
:108F50007047C0797047007A7047407A7047807ACE
:108F60007047008A00B270470079704701717047FE
:108F7000408A80B27047808A80B27047C08A80B2CF
:108F8000704738B505460C462B682846DB6898477D
:108F900028B9002CF8D0204602F0D6FAF4E738BD04
:108FA000F8B505460F46144601F0BAFE064601F034
:108FB000B7FE801BB8420AD22B682846DB68984768
:108FC00030B9002CF3D0204602F0BEFAEFE70020C3
:108FD000F8BD70B504460E4601F0A2FE054601F04C
:108FE0009FFE401BB04204D22379032BF7D001200F
:108FF00070BD0020FCE770B5C3690446B3B101F051
:109000008FFE64260546236820461B6B984768B18F
:1090100001F086FEE369401B984209D80A2101202D
:1090200004F0A5FC704302F08FFAECE7012070BD5C
:109030000020FCE7064A0260FF2100220271417114
:109040004282C172828281818273C282C261704710
:10905000B4090C0070477047704770477047417102
:1090600070478171704701717047000030B5034D42
:10907000056001714271837130BD00BF340A0C007C
:10908000704710B510210446FBF709F8204610BDC3
:109090000EB403B503AB002153F8042B019304F085
:1090A0002AFC02B05DF804EB03B0704773B50446C8
:1090B00008462279A36832B1A3B90B4902B0BDE8D2
:1090C000704004F00FBB094A267B094D0949647BB7
:1090D000012E18BF2946CDE900140749FFF7D8FF34
:1090E00002B070BD054AEFE7710A0C00580F0C0082
:1090F0006D0A0C00690A0C00870A0C00600A0C005B
:1091000010B50446FFF7B2FF054B2360054BA36083
:109110000123237300232361A382204610BD00BFD7
:10912000C00A0C00AC0A0C0013B50B4C2178BFF33D
:109130005B8F11F001010BD120460191FAF7BEFFC0
:10914000019928B1054804F029FC2046FAF7BBFF35
:10915000024802B010BD00BF4CE4032050E40320DD
:1091600007B50191FFF7E0FF019903B05DF804EB4B
:1091700004F0CCBC08B5FFF7D7FFBDE8084004F009
:10918000CBBC08B5FFF7D0FFBDE8084004F0C5BC74
:1091900010B50379042B20D0032B20D0022B20D034
:1091A000114A1249012B18BF0A46417983790139C6
:1091B00018BF012133B1012B04D0022B02D0032BA5
:1091C00018BF002300240473026101754375FFF783
:1091D000ABFFBDE8104004F0EBBB054AE5E7054AEC
:1091E000E3E7054AE1E700BF80841E0040420F002C
:1091F0000024F40000127A0000093D0008B5FFF7D2
:1092000093FFBDE8084004F0E7BB10B50446FFF744
:109210008BFF04F10801BDE8104004F009BC08B55B
:10922000FFF782FFBDE8084004F0E8BB08B5FFF790
:109230007BFF08BD002302481A461946FFF760BFAE
:1092400058E40320012A05D1007A0B781B1A5842F2
:1092500058417047002070472DE9F047254C012305
:1092600086B02370637000230F46A1700093032221
:10927000FF232146064600F0B7FB20B10025284613
:1092800006B0BDE8F0877A238DF8173001F048FD6D
:1092900006F10409804608F57A6501F041FD291AB6
:1092A0000029EBDD002289B24846FFF7BEFD002809
:1092B000F3D00023CDE90233CDE900330DF11702DD
:1092C0002146304600F09AFB05460028E3D09DF881
:1092D0001730012BDFD994F800A0BAF1020FDAD1D0
:1092E0004846FFF7E7FD534602463946304600F050
:1092F000F3FAC4E770E40320012A2DE9F34107469D
:109300000E4614463BD94D79022D30D100F10408A8
:10931000C97901914046FFF7CDFD083C2B46024636
:109320000199384600F0D8FAE5B206F108030024A6
:109330002246954204F10104E4B204D913F8012B4A
:10934000397A9142F4D104F108010E44A54216D9AC
:1093500016F8011B01914046FFF7ACFD01340246AF
:10936000019902233846E4B200F0B6FAEEE7032D85
:1093700005D1897902B0BDE8F04100F096BA02B09B
:10938000BDE8F08110B5044600F0E6FA014B236019
:10939000204610BDF40A0C002DE9F047792A9DF80B
:1093A000209006460F4614461D4625D8FF2B14D1A3
:1093B000DFF84880404600232246394600F8013B4A
:1093C00005F068FF621CCDF820902B4641463046E0
:1093D000D2B2BDE8F04700F007BB194600F021FA11
:1093E0000028E5D1336829469B6830469847002815
:1093F000DED10220BDE8F0870120FBE770E4032006
:109400002DE9F04F89B098467A238DF81A300DF186
:109410001F0303930DF11E0302935D4E0DF11D0317
:10942000019307AB0093894617460DF11B030DF11D
:109430001A023146DDE912BA054600F0DFFA0446A9
:1094400020B90024204609B0BDE8F08F9DF81A30FD
:1094500073B3327862BBB8F1000F03D09DF81B20C4
:1094600088F80020BBF1000F03D09DF81C208BF87A
:109470000020BAF1000F03D09DF81D208AF80020CB
:10948000149A1AB114999DF81E200A70159A1AB1EF
:1094900015999DF81F200A703A783E49013BDBB2CE
:1094A0009A4288BF3B703A78484605F0F3FEC9E718
:1094B0009DF81C20FF2AC4D1012BC2D93278012A81
:1094C000BFD12A7A9DF81B40A242BAD0DF1E324992
:1094D000FFB200235FFA83F8474506D911F8010B64
:1094E000824203F10103F5D1ABE705F104094846D7
:1094F000FFF7E0FC022302462146284600F0ECF983
:1095000095F8173193B1224CA31BDBB29F420CD9C3
:10951000E17805914846FFF7CDFC05990246022304
:10952000284600F0D9F90134EEE7B8462B68727886
:10953000DB681A4928469847044660B10223002494
:1095400033709DF81A209DF81B301149009428466D
:1095500000F04AFA76E795F8163143457FF671AF89
:1095600095F81731002B3FF46CAF9DF81A202B7A39
:1095700007493E440132F3709DF81B300190D2B28E
:1095800000932846FF238DF81A2000F0F7F959E7D9
:1095900070E4032071E4032073E4032072E40320E9
:1095A000F0B585B0054604300E460392FFF782FC05
:1095B000039A07463146284600F04AF90228044635
:1095C00001D005281BD13178284600F06EF9727859
:1095D0002B7A9A4213D00B4C032323703378637099
:1095E000717802233A46284600F076F9002300936A
:1095F000214673780222284600F0F6F904462046F8
:1096000005B0F0BD70E4032010B50446FFF702FC7E
:10961000C8230021E3810323A160217323744FF445
:10962000807204F1110005F05DFE204610BD1FB5EB
:1096300004460192FFF732FC204600228021FFF70A
:1096400031FC2122019B8DF80F200DF10F01012229
:109650002046FFF7F4FB2046FFF7E3FB04B010BD04
:109660002DE9F04F057B0135EDB287B00446894600
:109670009246984605730027227C3B469A4207F1A2
:109680000107FFB26BD329462046FFF707FC012FE5
:109690000DBFC0228022402100212046FFF702FC9E
:1096A0004346524649462046FFF7C9FB2046FFF78E
:1096B000B8FBB8F1FF0F54D0012F82BFA36801336C
:1096C000A36001F02DFB4FF4807183460020E689F2
:1096D00004F04DF9704348BFFF3006EB20261BFA1B
:1096E00086F601F01DFB301A0028C5DD81B200228C
:1096F0002046FFF79AFB0028F3D00DF117030293E1
:109700000DF11603019300220DF11503009311468C
:1097100005AB2046FFF7DAFB0028E2D09DF81420C5
:109720009DF9173042450ED194F804C09DF81510EC
:109730008C4508D1002B08DA9DF81630AB42D0D109
:1097400007B0BDE8F08F002BCBDBA1189DF81630D9
:10975000497C9942C5D12046FFF769FFC1E7002047
:10976000EEE70120ECE72DE9F04389B0CDE90421D3
:10977000DDE91098129F04461E46FFF74EFBDDE917
:10978000042120B90025284609B0BDE8F0830DF179
:109790001F0302930DF11E0301930DF11D030093AE
:1097A000204607ABFFF792FB05460028EAD09DF95B
:1097B0001F30002BE6DB22799DF81D309A4206D13E
:1097C0009DF81C209DF81E102046FFF730FF9DF8E5
:1097D0001F209DF81C109DF81E3012F0400F0C4405
:1097E00002D0607C9842CDD006B13170B9F1000F43
:1097F00003D09DF81D1089F80010B8F1000F01D0BA
:1098000088F8003007B13A706374BCE7704710B550
:1098100004460430FFF734FB10B11E2384F81631E0
:1098200010BD10B50246002392F818418C4208D1B1
:1098300092F81A412CB103EB430303F58C731844DF
:1098400010BD0133322B02F10302EDD10020F7E706
:1098500037B50B78FF2B05460C4606D0194601920A
:10986000FFF7DFFF58B14378019A2146281DFFF723
:10987000F7FE002814BF0020052003B030BD0220F1
:10988000FBE710B501EB41030446C1F1310203F5DA
:109890008C7003F21B1102EB42022144204405F0BC
:1098A000F9FC002384F8AD3110BD38B50A46002319
:1098B00000F58C7403EB4305D9B2655D954203D185
:1098C000FFF7DFFF012038BD0133322BF2D100203A
:1098D000F9E70021FFF7D5BFF8B516461F46044645
:1098E0000D46002300F58C7203EB4300115CA94286
:1098F00005D1204480F8196180F81A71F8BD013350
:10990000322BF1D1002304F58D7203EB4300115C7F
:1099100019B9204480F81851ECE70133322BF4D107
:109920002046FFF7D6FF204604F1960390F81A214F
:109930002AB980F8185180F8196180F81A7103303B
:109940009842F3D1DAE700F19603002280F81A2159
:1099500003309842FAD1704710B504460430FFF73F
:1099600053FE054B23604FF48F732046A4F8163145
:10997000FFF7E9FF204610BD0C0B0C002DE9F34763
:109980000446406801911F4603689DF828A09B6922
:109990009DF82C901646984706F1050880451CD87E
:1099A000104D019985F801A00023AB7094F8153192
:1099B000EB705A1C84F81521681D32462F7085F80B
:1099C000049005F067FC23685B685FFA88F229461B
:1099D000204602B0BDE8F0471847012002B0BDE8BC
:1099E000F08700BFEAE4032013B59DF8104001940E
:1099F000047A0094FFF7C2FF02B010BD2DE9F04FCA
:109A000087B01F467F238DF813300DF117030293A3
:109A1000DFF8D0900DF1160301930DF115030093BB
:109A200004468846164605AB0DF11302494604303C
:109A3000DDE910BAFFF797FE054608B9002538E0C2
:109A400023689DF813201B6849462046984799F8DB
:109A50000030227A9A4201D0FF2B2ED117B1214B30
:109A60005B783B70BBF1000F03D01E4B1B788BF86B
:109A70000030BAF1000F03D01A4BDB788AF80030BF
:109A8000129B1BB1174B129A1B791370139B1BB1BE
:109A9000144B139A9B7813709DF813303278124947
:109AA000053BDBB29A4288BF33703278404605F0FE
:109AB000F1FB284607B0BDE8F08F99F802305A1C38
:109AC00089F8022094F816219A42B7D994F81731F0
:109AD000002BB3D023689DF813205B6849462046CD
