:02000002B0004C
:1040000000400B00380C0C00000006000D000502FB
:084010000401A30F00000000F1
:044018005CF10B004C
:1040200009480A49884208B505D0094A824202D0A7
:10403000121A0AF08BFD0748074A0021121A0AF0EB
:10404000ADFD014808BD00BF50DD0320180A0C007B
:1040500044DF032048DF0320F4E7032070B5074E58
:10406000074C09F0CDFEA41BA4080025AC4200D1EA
:1040700070BD56F8043B98470135F7E7A8090C00D6
:10408000EC090C0000F08EBF08B500F035FCBDE86F
:10409000084009F06DBE06F031BE06F02FBE06F0F6
:1040A00035BE000008B5034A03490C2006F0C2FCE7
:1040B000FEE700BFD5A50B0070F10B000078B0FA49
:1040C00080F040097047012303707047704710B5B6
:1040D00004210446FFF7E3FF204610BD0EB400B5EF
:1040E0008CB00DAA4FF0200C52F8041B0392CDE9BE
:1040F00000120023016804AA1E20CDE904C306F0C3
:10410000A9FC0CB05DF804EB03B0704710B5064C89
:10411000236833B90420FFF7BEFF08B1034B0360E7
:104120002060206810BD00BF4CDF0320C0F30B00EF
:104130007FB532480D4605F030F8044630B93049B5
:104140003048FFF7CBFF204604B070BD9FED2E0A2C
:104150002E4805F01DFB002217212C4805F092FC8B
:1041600001F09AF801F0E1F9802820D001F094F8EC
:1041700001F098FA09F05FF801F08EF84FF6FF7140
:104180000646012009F04DF881B2304601F08BF966
:1041900055B31F491B48FFF7A1FF01F07DF800212F
:1041A00001F087F901F078F8802101F0F5F901F0CC
:1041B00073F801F037F9C1B2164804F0ECFA15486B
:1041C00004F0CFFA039001F067F801F026F90290AD
:1041D00001F062F801F0A9F9DDE9023200900E4920
:1041E0000848FFF77BFFAEE701F056F8FF210546D0
:1041F0000A2009F016F881B22846D1E7B4E003207E
:1042000085F10B0058E6032000C0644484DF0320DE
:1042100091F10B00B8E00320B0F10B0037B5244C4E
:1042200001F08AF8B4F8051049BA89B201F05FF9D3
:1042300001F082F8B4F8071049BA89B201F05DF9CB
:1042400001F07AF80546A07A0AF0BCF841EC100BB0
:10425000284601F0ADF801F06FF8E17A01F0A8F915
:1042600001F06AF8617A01F09DF901F065F8E189E1
:1042700049BA013189B201F034F901F05DF8217CCD
:1042800001F09CF901F058F801F063F9019001F098
:1042900053F801F0D6F8019A064903460648FFF79D
:1042A0001DFF064B042201201A7003B030BD00BF71
:1042B00050DF032007F20B0058E6032048DF0320FD
:1042C00070B586B00D4601F037F801F042F92E4C7A
:1042D000207009F01EFC0016607009F01AFC001432
:1042E000A07009F016FC0012E07009F012FC2071B9
:1042F00000F0D2FF01F09BF8000A607100F0CCFFE3
:1043000001F095F8C5F30723E3712572A0712678B3
:1043100009F0FFFBADB20246C31702A809F0F4FA98
:104320003246029B19491A480095FFF7D7FE02A8AA
:1043300009F050F8174B1D880121284609F0F9FDB6
:1043400000F0FAFF01F07DF8042300932146C3B288
:104350000922114804F0B8FC044650B90F490C4832
:10436000FFF7BCFE2846214609F0E3FD012006B018
:1043700070BD0B490648FFF7B1FE2846002109F041
:10438000D8FD0020F3E700BF50DF03202EF20B0022
:1043900058E6032038F70B00B4E0032076F20B0058
:1043A00095F20B00F0B587B00D468FB200F0C4FF58
:1043B00001F047F8092853D800F06EFF01F06DF9BD
:1043C00008F039FFFF210A2008F02BFF86B22A4CA3
:1043D0008023237009F09DFB0016607009F099FBA3
:1043E0000014A07009F095FB0012E07009F091FB39
:1043F0003F0A330A637125722071A671E77109F0D3
:1044000088FBADB20246C31702A809F07DFA324616
:10441000029B1A491A480095FFF760FE02A808F0AF
:10442000D9FF184B1D880121284609F082FD00F0B4
:1044300083FF01F006F8022300932146C3B209224C
:10444000114804F041FC044660B910490C48FFF7DC
:1044500045FE2846214609F06CFD012007B0F0BD5D
:104460000026B4E70A490648FFF738FE284600212F
:1044700009F05FFD0020F1E750DF0320AFF20B00F1
:1044800058E6032038F70B00B4E0032076F20B0067
:1044900095F20B0010B5124C00F04EFF217801F0A0
:1044A00093F800F049FFD4F8012012BAD31701F0B5
:1044B00027F900F041FFB4F8051049BA013189B27B
:1044C00001F00FF800F038FF00F0BBFF054902468D
:1044D0000548FFF703FE054B06221A70012010BDA8
:1044E00050DF0320EDF20B0058E6032048DF0320E5
:1044F00070B58AB0322300258DF825302F4C304816
:1045000004950DF12703CDE902530DF12603009325
:1045100001954FF47A730DF12502214604F0D8FC81
:10452000064610B900200AB070BD9DF82530E5544C
:1045300000F002FF218849BA89B200F0C6FF00F0FE
:10454000FBFE61881F4C49BA89B200F0C4FF9DF898
:10455000273003F00F03237000F0EEFE00F071FF30
:104560000790194804F095F99DF8251001910295DE
:10457000034616492078079A01EB00110091144870
:104580001449FFF7ABFD2378032B08D02378012BC8
:104590000CD1FFF7BBFD022323703046C3E7FFF7C2
:1045A000B5FDFFF73BFE0028F0D0BCE7052BB9D1E5
:1045B000FFF7ACFDFFF76EFFB5E700BF50DF03204C
:1045C000B4E0032048DF032084DF032050DD032014
:1045D00058E6032012F30B00F0B52E4C2E488FB294
:1045E00087B03A460E4600252C49FFF777FD257027
:1045F00009F08FFA0016607009F08BFA0014A070B1
:1046000009F087FA0012E07009F083FAC6F3072375
:104610006371A671207100F08FFE00F012FF064654
:1046200009F077FA0246C31702A809F06DF932467D
:10463000029B1B4918480097FFF750FD02A808F09D
:10464000C9FE184B1E880121304609F072FC00F0AB
:1046500073FE00F0F6FE062300932146C3B2072244
:10466000114804F031FB044650B910490A48FFF7DD
:1046700035FD3046214609F05CFC012007B0F0BD55
:104680000B490548FFF72AFD3046294609F051FC41
:104690002846F3E750DF032058E6032069F30B00B8
:1046A000AFF20B0038F70B00B4E0032076F20B00FA
:1046B00095F20B0038B5154D154B2A78154803EBCC
:1046C00002120C461449FFF709FD2B78042B0DD07C
:1046D0002B78022B05D1FFF719FD2146FFF762FE6B
:1046E00058B92B78062B0AD0002007E0FFF70EFD03
:1046F0002146FFF7E5FD0028EAD0012038BDFFF78D
:1047000005FD2146BDE83840FFF766BF48DF0320BE
:1047100050DD032058E6032093F30B0010B5084A40
:10472000084C094912780978084B204604F0F0FF3C
:1047300021460748BDE81040002204F0BBBA00BF84
:104740003EF70B0084DF03203CF70B005CE4032002
:10475000B4E00320014B1A60704700BFC8DD03209E
:10476000014B01221A707047E1E3032030B585B098
:104770000446089860B1406850B1856845B1CDE9FC
:104780000241CDE90023C46801AB6A4602A9A047F3
:1047900005B030BD30B585B0006813680193D1E92C
:1047A00000458368CDE902450BB909F0C5FCC36833
:1047B00001AA02A9984705B030BD012A02D10160C3
:1047C00000207047022A04BF0B680360F8E7036803
:1047D0001268D1E90001184710B58368044613B187
:1047E000032201469847204610BD10B5044638B153
:1047F000FFF7F2FF20461021BDE81040FFF74FBC45
:1048000010BD000030B585B000F046FD00F00FFE91
:10481000054609F061F90446D0B109F07AF93C2463
:104820006543B0FBF5F404FB15002C1A0A4B0B4949
:104830001A68AC4228BF2C46684602F0FFFE0848C2
:10484000009A08492346FFF749FC684608F0C2FD74
:10485000204605B030BD00BFD4DE0320B8E20320FF
:1048600058E60320C8F30B0070B51C4E1C4C327880
:104870001C4D022AC4B028D109F02EF932782B78C9
:1048800058B904EB02120092174A04EB03134FF4D9
:10489000807104A806F05AFA0FE004EB03130393A7
:1048A00004EB0214FFF7AEFF039B104ACDE9004072
:1048B0004FF4807104A806F049FA33780C482B7045
:1048C00004A9FFF70BFC44B070BD2B7804EB021277
:1048D000009204EB0313074AD9E700BFE0E303208B
:1048E000CCDD0320A9E30320FAF30B001AF40B003C
:1048F00058E6032037F40B002DE9F04F984D2DEDCD
:10490000028B2B78013BD1B0062B17D8DFE813F0D0
:10491000ED0107003100D900AC01D3014E01914BEC
:104920001B78022B01D0FFF79FFF8F4B1A781AB12B
:1049300000221A70042300E003232B708B4802F03E
:1049400021F903F081FA03F071F900F0F5FC00F0B1
:1049500003FD00F0A1FC00F0C7FC854B1B68002B99
:10496000C0F2F78151B0BDEC028BBDE8F04F08F00A
:10497000E4BE7C4B1B78032B01D0FFF775FF0021B1
:104980007A487C4C01F052FDFFF73CFF074609F0E6
:10499000C0F8C219D31710A808F0B6FF109B0B93EC
:1049A00008F02EFF0B9B744900903A467348FFF7BE
:1049B00095FB10A808F00EFD4FF4FA6006F01EFA01
:1049C000237D002B50D0022323726D4BB3F800805F
:1049D0002368DB68F3B19A88012A06D09B68F9E75F
:1049E0009B68BBB19A88012AFAD19A894245F7D1CE
:1049F00000229A73237D002B36D023684FF47A78F7
:104A0000DB6808FB07F8DBB19A88042A00F09C8178
:104A10009B68F8E75B49102009F084FB06460028F4
:104A200000F09581102200210AF0B8F8564B33604F
:104A30000123B3802369B360A6F80C802661D9E70F
:104A40005049102009F06EFB0646002800F07F81D7
:104A5000102200210AF0A2F84B4B33600423B380EC
:104A600023692661C6E9023842490DA808F068FEAC
:104A70004FF0FF313D4801F0D9FC02232B703A4B37
:104A8000012241F288301A7006F0B8F909F041F8B5
:104A9000C219D31710A808F037FF109A0B9208F02C
:104AA000AFFE0B9A394903463448FFF717FB10A8AD
:104AB00008F090FC0D9800283FF440AF06F026F96E
:104AC0003CE7284B324E1B78042B0AD0072B02D030
:104AD00005F088FD3060FFF7C7FE2E492748FFF735
:104AE000FDFAFFF713FBFFF703FD10B32A4B1A780B
:104AF00082B100221A7000F0CFFB284B198800F019
:104B0000DEFC00F0C9FB00F092FC254902461B4880
:104B1000FFF7E4FAFFF776FE84B2224917482246EF
:104B2000FFF7DCFAFFF7F2FA2146FFF7C3FD072390
:104B30002B7005F057FD3368C01A1B4B98427FF667
:104B4000FDAE08F0F7FF044600F0A6FB00F0AAFD5A
:104B500008F0BEFE844214BF05230223EDE600BF29
:104B6000E0E30320A9E30320A8E303207CE2032081
:104B7000C8DD03209CE2032045F40B0058E6032027
:104B80003AF70B0084070C001000030085F40B00BB
:104B900070E20320A6F40B0009E403205CDE03208E
:104BA000CDF40B0001F50B00905F01006B4B1B78FF
:104BB000072B01D0FFF758FE00F0BEFB00F03CFCD5
:104BC0000B9000F0B9FB00F046FC044600F0B4FB8B
:104BD00000F046FC064600F0AFFB00F0C9FBB0EE6B
:104BE000408AF0EE608A00F0A7FB00F0ADFC5C4A62
:104BF00052F820B000F0A0FB00F0A1FC074600F046
:104C00004BFB00F097FC804600F096FB00F01EFC8A
:104C1000814600F091FB00F09CFC824608F079FF91
:104C20000B9B504ACDE908A0CDE900464FF48071B6
:104C3000CDE90689CDE904B78DED028B10A806F009
:104C400085F803F001F9484B484A1B781278002197
:104C5000134302688DF804108DF80030146844493D
:104C60003C2310AAA04765E63C4B1B78052B0AD0D5
:104C7000FFF7FAFD05F0AAFF08B905F09FFF05F060
:104C8000B1FC3C4B186005F0A1FF58B100F004FBEB
:104C9000044608F03EFFC3170246204600F02BFDF5
:104CA00006234AE605F09EFC324B1B68C01A324BC5
:104CB0009842EBD842E6294B304C1B78062B04D0A7
:104CC000FFF7D2FD05F08EFC206005F08BFC236819
:104CD000C01A2B4B98427FF631AE01F0B5F8294946
:104CE0002948FFF7FBF9012327E6284C284E2378B3
:104CF000BFF35B8F13F0010F09D12046FFF7DEF9F8
:104D000028B105F06FFC30602046FFF7DCF9134B4B
:104D10002A781B789A4201D0FFF7A6FD05F062FCC5
:104D20003368C01A47F2305398427FF607AE1949EC
:104D30001548FFF7D3F94FF4FA6006F05FF81E212B
:104D4000154801F0CDFCF9E5C3F80C808CE626751A
:104D50008AE651B0BDEC028BBDE8F08FA9E30320D9
:104D600060DE03202FF50B0069E2032068E20320D8
:104D7000B0F50B0074E20320E093040078E2032016
:104D8000905F0100C5F50B0058E6032064E20320A4
:104D90006CE20320F7F50B007CE2032038B500231A
:104DA00083608B6804460D462BB102229847EB685E
:104DB000E360AB68A360204638BD00002DE9F043F6
:104DC00095B005461C9904A890461F460CAEFFF707
:104DD000E5FF04A908A8FFF7E1FF08A93046FFF79F
:104DE000DDFF4FF000091020CDF84890FFF753F990
:104DF0000446A0B196E8030001AB83E8030094E801
:104E0000030086E8030093E803000E9BE268A360BA
:104E100084E803000F9BCDF838900F92E360244B99
:104E20001393244B1293002200234FF00009C5E98D
:104E30000023214BC5F8089010201094CDE90139CA
:104E4000CDF80C90FFF727F90446D8B1129BC0F8B3
:104E5000089033B1022210A99847139BE360129B7C
:104E6000A360164B0393164A029401AB40463946A1
:104E700005F02AFEB0B12046FFF7AEFC1021204617
:104E8000FFF70DF910A8FFF7A7FC3046FFF7A4FCC9
:104E900008A8FFF7A1FC04A8FFF79EFC284615B060
:104EA000BDE8F083029BAB60C5E90087EAE700BF7D
:104EB00095470B00C54E0B0002000C00EB470B00A2
:104EC0006D470B00012A37B5044604D10B68036017
:104ED000002003B030BD022A0CD0032AF8D10468A8
:104EE000002CF5D02046FFF777FC10212046FFF775
:104EF000D6F8EDE7096801911020FFF7CCF80546D8
:104F000010B10199FFF74AFF2560E1E738B51D4B65
:104F100001251D701C4B08221A7008F0A3FF002306
:104F20001A46194608F0AEFF08F09CFF00231A4607
:104F30000D2108F09FFF154B1A1D00241A60144A1A
:104F40005A60C3E902441C611D7509F063F8114DF4
:104F500001466922104801F06BF928460F4908F014
:104F600084FA00230E482C610022C5E90623C5E916
:104F70000844062340F8043BAC62BDE8384002F028
:104F80004BBA00BF68E2032069E203209CE20320E1
:104F900010000300B0E303207CE20320FD050C00B9
:104FA000B8E2032070B500209EB005F02BFB42F262
:104FB00010750446002005F025FB001B61F100017F
:104FC000A84271F1000307D208F08AFE08F07DFEC6
:104FD00010B905F0EBFDEDE708F082FE08F075FE74
:104FE00000F0ACFB00F0D6FB00F0A6F903681B68EC
:104FF000984700F051F903681B68984700F082FC5D
:105000004D4808230121438101F00EFE7C214A48CE
:1050100001F00CFA494B0893494B0B9308AD494BEF
:105020000A934FF48022002304A80095FFF7C6FEE0
:105030002846FFF7D1FB02F007FF03F00BF9FFF75B
:1050400065F80121FFF774F802F096FB3E4904462B
:10505000284602F093FA09A904F1080008F041FA81
:105060000E9BE3610FA904F1200008F03AFA149BAB
:105070006363169BE363189B63641A9BE3641C9B46
:1050800063659DF8743084F85830284602F044F87F
:1050900008F03FFD2D4CC317C4E91803204602F069
:1050A000E3FB2B4B21461A68284602F0C7FA002280
:1050B00003A90320089E039205F0E4FC002838D1E0
:1050C000039C0CB1236923B9224A23490A2005F025
:1050D000B1FC0C23049302AB0593042306932369CC
:1050E00004AA01212046984718BBBDF8083007EEF6
:1050F000903AFBEECC7A17EE900A09F085F9324629
:10510000CDE9000115491648FEF7E8FF284608F0EA
:1051100061F9144814490088002200924FF0FF33CF
:1051200006F0E2FB114B1A780AB902221A701EB07F
:1051300070BDFFEE007ADEE77CE2032055470B00EE
:10514000CF470B00BB470B000EF60B00B8E2032065
:10515000D8DE0320D5A50B0035F60B005BF60B005F
:1051600058E603203AF70B0061470B00E0E3032009
:1051700010B5044B03600446406808B105F0EAF935
:10518000204610BD78040C0010B50446FFF7F0FF70
:1051900020467821FEF783FF204610BD10B5034B53
:1051A0000360044602F00EFC204610BD98F60B008A
:1051B00010B50446FFF7F2FF20461021FEF76FFFFF
:1051C000204610BD10B5044B03600446406808B18A
:1051D00005F0C0F9204610BD78040C0010B5044657
:1051E000FFF7F0FF20467021FEF759FF204610BD63
:1051F00010B5036804460BB905F0A4F92068BDE8B2
:10520000104005F0AFB938B504460430FFF7F0FFA1
:10521000206A616A0368DD68D4E90223A8476068F0
:10522000BDE8384005F0A6B938B504460430FFF7AC
:10523000DFFF206A616A03689D68D4E90223A847FA
:10524000A2682368D1885B692046984718B923680B
:1052500020469B699847606805F08CF9012038BDAD
:1052600000F12801816009494FF0480CC0E903C1F1
:10527000012181824FF47A71C16105490022C0E9A0
:10528000081242608261034A02607047739EA9203F
:10529000ECE30320B4F60B0010B5064C23683BB9D1
:1052A0007020FEF7F8FE034608B1FFF7D9FF236030
:1052B000206810BDE4E3032008B5006A02F098FB03
:1052C000FFF7EAFF03685B689847BDE8084000F015
:1052D00099BA10B5006A02F08BFBFFF7DDFF036897
:1052E000BDE810405B68184710B5FFF7D5FF0368AD
:1052F000BDE81040DB68002118470000002200F1E3
:105300002801426082614FF47A728160C26107496C
:10531000074A02624FF0500C3222C0E903C14262D8
:105320000121044A81820260704700BF739EA92058
:10533000ECE30320E0F60B0010B5064C23683BB904
:105340007820FEF7A8FE034608B1FFF7D7FF2360D9
:10535000206810BDE8E3032010B5FFF79DFF036848
:10536000BDE81040DB680021184700000000000085
:1053700010B504462DED028B0430FFF739FFE368CA
:10538000083B172B0CD9A36893ED068B606805F0DA
:10539000F1F8B0EE480AF0EE680ABDEC028B10BDE1
:1053A0009FED018BF2E700BF00000000000000004D
:1053B000F8B50446043057EC106BFFF719FFE368AB
:1053C000083B172B12D9A5683046D5E90623394684
:1053D00009F0DAFA50B9C5E906672046A56804F075
:1053E000F7FFA860236820461B6998476068BDE8FE
:1053F000F84005F0BFB838B5044604300D46FFF755
:10540000F7FEE3686068023BAB4226BFA3685D5BC2
:10541000002505F0AFF8284638BD08B51021FFF784
:10542000EAFF08BD08B51221FFF7E5FF08BD08B582
:105430003421FFF7E0FF08BD08B51021FFF7DBFFBF
:1054400008BD08B51221FFF7D6FF08BD08B5302109
:10545000FFF7D1FF08BD08B54021FFF7CCFF08BD1D
:1054600008B54221FFF7C7FF08BD70B504460430F8
:105470000D461646FFF7BCFEE368023BAB420DD378
:10548000A3685A5BB24209D05E532046A56804F077
:105490009FFFA860236820461B6998476068BDE8A5
:1054A000704005F067B808B50A461021FFF7DDFF28
:1054B00008BD08B50A461221FFF7D7FF08BD08B599
:1054C0000A463421FFF7D1FF08BD08B50A4610216E
:1054D000FFF7CBFF08BD08B50A461221FFF7C5FF4D
:1054E00008BD08B50A463021FFF7BFFF08BD08B563
:1054F0000A464021FFF7B9FF08BD08B50A46422118
:10550000FFF7B3FF08BD38B5044604300D46FFF77A
:105510006FFEE3686068013BAB4226BFA3685D5D38
:10552000002505F027F8284638BD08B51421FFF7F7
:10553000EAFF08BD08B51821FFF7E5FF08BD08B56B
:105540001421FFF7E0FF08BD08B52021FFF7DBFFBE
:1055500008BD08B53221FFF7D6FF08BD70B5044677
:1055600004300D461646FFF743FEE368013BAB42AD
:105570000DD3A3685A5DB24209D05E552046A56896
:1055800004F026FFA860236820461B6998476068DE
:10559000BDE8704004F0EEBF08B50A461421FFF7DD
:1055A000DDFF08BD08B50A461421FFF7D7FF08BD87
:1055B00008B50A462021FFF7D1FF08BD08B50A4605
:1055C0003221FFF7CBFF08BD08B50A464421FFF79B
:1055D000C5FF08BD38B5044604300D46FFF708FE88
:1055E000E3686068013BAB4226BFA3685D5D0025B0
:1055F00004F0C0FF284638BD08B51721FFF7EAFFC1
:1056000008BD08B54321FFF7E5FF08BD70B50446A6
:1056100004300D461646FFF7EBFDE368013BAB4255
:105620000DD3A3685A5DB24209D05E552046A568E5
:1056300004F0CEFEA860236820461B699847606886
:10564000BDE8704004F096BF08B50A461721FFF781
:10565000DDFF08BD08B50A464021FFF7D7FF08BDAA
:1056600008B50A464321FFF7D1FF08BDF8B5044647
:1056700004300D46FFF7BCFDE3686068083BAB42B1
:1056800023BFA1684919D1E90067002638BF002768
:1056900004F070FF30463946F8BD08B52021FFF709
:1056A000E5FF08BD08B52821FFF7E0FF08BDF8B504
:1056B000044604300D461E461746FFF799FDE36881
:1056C000083BAB4212D3A3685A1958595168B142EA
:1056D00008BFB8420AD05F5120465660A56804F062
:1056E00077FEA860236820461B6998476068BDE87C
:1056F000F84004F03FBF08B52821FFF7D8FF08BDE8
:1057000008B54821FFF7D3FF08BD0000084B012270
:1057100010B51A7008F07EFC064C014600234FF4C9
:105720000052204602F05AF9034B236010BD00BF1F
:10573000E2E30320ECE3032098F60B0008B51349DD
:105740001348FEF7CBFC0221042008F0E1FB002106
:10575000082008F0DDFB0121072008F0D9FB00211B
:10576000122008F0D5FB0121112008F0D1FB012106
:10577000102008F0CDFB0021102008F0DAFB0021FA
:10578000112008F0D6FB012008BD00BF04F70B0074
:1057900058E6032010B51849184890B02024FEF7A9
:1057A0009DFC22460021684609F0F8F922460021B6
:1057B0000DEB04008DF8054009F0F0F900210DEB28
:1057C00004008DF8254005F0C3F941F2D833ADF857
:1057D00006300B4B029341F27003ADF80C30009B86
:1057E000002143F400736846009305F0B1F90038D6
:1057F00018BF012010B010BD1DF70B0058E60320A4
:105800008403840308B505490548FEF767FCFFF7E4
:1058100043FDBDE808400121FFF71CBF42F70B0024
:1058200058E603207047006A0368DB6818470000E9
:105830001FB50446FFF730FDFFF7F9FD064A0346A2
:105840001021684605F082FA6946204607F00DFEF1
:10585000204604B010BD00BF5EF70B0030B585B028
:105860000346144668460D4698470298206005F0A6
:1058700045FA286050B12268009909F067F90024C0
:10588000684607F0A7FD204605B030BD004CF7E79D
:10589000FCFEFFFF0023042205F078B90A4B10B587
:1058A0000446036006F008FC214606F00CFE08F0F2
:1058B00017FA08F007FA2046044B40F8043B06F0BC
:1058C0009DFC204610BD00BF24FA0B000CFA0B0013
:1058D00010B50446FFF7E2FF20462421FEF7DFFB68
:1058E000204610BD07B501230822CDE900234FF45F
:1058F0007A71002341436A46184605F087F903B0E0
:105900005DF804FB10B58CB03C4B04933C4B059305
:105910003C4B06933C4B07933C4B08933C4B3D4917
:105920003D48099300243D4B0A930B94FEF7D6FBA8
:10593000FFF7B2FCFFF760FE394A3A49A04218BFB0
:1059400011463948FFF7A6FF38493948FFF7A2FF4B
:1059500038493948FFF79EFFFFF7EEFCFFF708FDD7
:1059600023460922694635488DED000B05F00EF9F6
:10597000FFF7E2FCFFF7E8FD0CAB03EB800050F80B
:10598000201C2F48FFF786FF0C23CDE90044ADF81B
:1059900000302C4B2C49029304226B462B4805F017
:1059A000F5F8FFF779FCFFF72CFE294A2949A042B8
:1059B00018BF11462848FFF76DFF284A2849294893
:1059C00005F0D9FB284A2949264805F0D4FB224A8C
:1059D0002749244805F0CFFB264B188808F0C2FA67
:1059E000044630B9FFF758FC2146FFF72DFE05F0BD
:1059F000E5F80CB0BDE8104000F0A8BB78F70B004C
:105A000080F70B0084F70B008DF70B0095F70B0068
:105A1000A1F70B00B3F70B0058E60320A7F70B0024
:105A200069F70B006DF70B00E1F70B00C0DD0320F9
:105A3000F0F70B008CDE0320F8F70B00FFF70B00EC
:105A40000AF80B005D580B0031580B0019F80B00D9
:105A500070F70B007EF90B002DF80B0036F80B00E9
:105A60003D5B0B004BB10B0044F80B00A55A0B003B
:105A7000115C0B003AF70B0038B5046805467CB1A1
:105A80006368013B63605BB9236820469B68984765
:105A9000A368013BA3601BB923682046DB689847D5
:105AA000284638BD30B5C7B000680A2203A909F0FE
:105AB00021FA782831D81A4D0B2828800DDCFFF701
:105AC000EBFBFFF799FD40B116491748FEF706FBBF
:105AD000FFF7E2FB0021FFF7B7FD144B144A012446
:105AE0001C704FF480712B8806A805F02FF90E4822
:105AF00006A9FEF7F3FA05F069F860B10D4B0E49FF
:105B00001B788DF8003004A83C2306AA05F044FC5D
:105B100005A8FFF7B1FF204600E0002047B030BDE8
:105B20005CDE032052F80B0058E6032009E4032052
:105B300081F80B0008E40320C1F80B0010B52A49D6
:105B400094B0044607F04AFD58B12046264907F0B4
:105B500045FD044668B9FFF79FFB2146FFF774FD3A
:105B60001EE02249204607F039FD0028EDD114B08F
:105B700010BDFFF791FB0121FFF766FDFFF78CFBDE
:105B8000FFF755FC0B280BD819491A48FEF7A6FA5F
:105B9000FFF782FB0C21FFF792FC174B01221A70D2
:105BA000FFF77AFBFFF728FD1449154B154A00282B
:105BB00018BF0B46402104A805F0C8F80D4804A9F9
:105BC000FEF78CFA05F002F860B10F4B0F491B7815
:105BD0008DF8003002A83C2304AA05F0DDFB03A8E1
:105BE000FFF74AFF0120C2E770FA0B0068FD0B00C7
:105BF000CDF80B0058E6032009E40320C6F80B009B
:105C0000CAF80B00FAF80B0008E40320EBF70B00CE
:105C100030B51E4985B0054607F0E0FC0446D8B112
:105C2000FFF73AFB0121FFF71BFD3C20FFF75AFE6F
:105C300004F0CCFF10B9012005B030BD144B154A5B
:105C40001B788DF800303C2302A8134905F0A4FB13
:105C500003A8FFF711FFEEE71049284607F0BEFC46
:105C60000028E9D0FFF718FB2146FFF7F9FC40F2C6
:105C70006450FFF737FE04F0A9FF0028DBD0044B87
:105C8000074A1B788DF800303C23DDE770FA0B00E3
:105C900008E4032014F90B00EBF70B0068FD0B0080
:105CA00027F90B0070B5D0E900531426044606FB13
:105CB0000356AE4204D0284607F08CFB1435F8E7B3
:105CC000206805F023F8204670BD8842F8B50446E8
:105CD0000D46164616D9904215D2A2F11406751A31
:105CE000A1F114072C44B7421CD02CB131462046F8
:105CF00007F0ECFB337C2374304607F06BFB143E5B
:105D0000143CF0E70ED0B5420CD02CB12946204609
:105D100007F0DCFB2B7C2374284607F05BFB143573
:105D20001434F0E7F8BD2DE9F0410023C0E9003359
:105D300083604F689F4204460E4623DD4FF01408EF
:105D400008FB07F004F0DAFF0546D8B1D4E90012E9
:105D500008FB0212FFF7B9FF206804F0D7FF2560A7
:105D6000A760D6E9007308FB0378B84508D0394628
:105D7000284607F0C5FB3B7C2B7414371435F4E739
:105D8000736863602046BDE8F081000070B5274B62
:105D9000274A01251D70274B00248CB09A60C3E967
:105DA0000044022004F080FE2146284604F094FEC0
:105DB0002946042004F0F6FBCDE90044029407F0E4
:105DC0008FFF1D4C0546694603A8FFF7ACFF26462A
:105DD00003A906A8FFF7A7FF184B46F8043B06A93E
:105DE00009A8FFF7A0FF09AA1E21304606F04EFCC5
:105DF00009A8FFF757FF06A8FFF754FF104B2360D1
:105E0000256203A8FFF74EFF0E4B236007F068FFE3
:105E10004FF4165107F052FF06F04EF9214606F0F6
:105E20000BFB6846FFF73EFF0CB070BD08E4032093
:105E30000000FFFFFCE303200CE403200CFA0B003E
:105E400030060C0024FA0B002DE9F04385B007F072
:105E500060FE434905464348FEF740F9424B188827
:105E600005F06CFD002401A8CDE90144ADF80C401B
:105E700005F092F9204604F0C5FB43F69826044647
:105E8000002004F0BFFB031B61F10001B34271F17C
:105E9000000305D204F09AFE10B104F087FEEFE78C
:105EA00004F094FE04F09EFB304F386004F07EFE58
:105EB00004F08CFE044640B12D492A48FEF70EF945
:105EC0000024204605B0BDE8F08307F022FE2949F2
:105ED000DFF8A480421B2348FEF700F907F019FE03
:105EE000224602210646D8F8040004F0B7FED8F88E
:105EF000040023462246214604F0C8FE204604F052
:105F000081FB47F230590546002004F07BFB431B20
:105F100061F100014B4571F1000306D2404606F0E5
:105F2000D3FE10B904F042FEEEE7134806F0CCFEB3
:105F300004F058FB386004F039FE0F4806F0C0FE4C
:105F400020B10E490748FEF7C9F8BAE707F0E1FDAE
:105F50000B49821B0348FEF7C1F80124B1E700BFDB
:105F60003BF90B0058E603203AF70B0010E703203B
:105F700064F90B0087F90B0084E50320B0F90B00EE
:105F8000D6F90B0007EE900A9FED097AF8EEE77A52
:105F900067EE877A9FED077A87EE870ADFED067A4C
:105FA00070EE677AB2EE040A87EE800A704700BF8F
:105FB00000404E4500F07F450000FA4313B5012133
:105FC00001A806F016FFFFF7B7F9FFF7B8FAFFF7D9
:105FD000B3F9FFF7B4FA252801A80DD906F09CFF04
:105FE000FFF7AAF90121FFF7E3FA002401A806F060
:105FF0000FFF204602B010BD06F073FF0124F5E745
:1060000030B5194D0FCD97B00CAC0FC40FCD0FC4E8
:1060100095E8030084E80300144904A804F068FF2D
:1060200004A804F0A8FF044604A804F0DDFF04A8B7
:1060300010EE105A05F008F816AB10EE100A03EB3C
:10604000840408F0E1F9CDE90201284608F0DCF902
:10605000CDE90001064A54F8283C0648402104F0E6
:1060600075FE17B030BD00BFACFA0B0084E503200D
:1060700072FA0B008CDE032030B585B00D4600228D
:106080006946009204F0FEFC90B9009C0CB12369B3
:1060900023B9084A08490A2004F0CCFC0C23CDE9B6
:1060A00001350423039301AA23690121204698475F
:1060B00005B030BDD5A50B0035F60B0013B5FFF7C5
:1060C0003BF901A904460720FFF7D6FF011EA8BF30
:1060D00001992046C9B2FFF76BFAFFF7DDF8FFF729
:1060E0008BFA30B1174805F051FB4FF4FA7004F009
:1060F00085FEFFF721F901A904460320FFF7BCFF45
:10610000E8B9BDF8043007EE903AFBEECC7A17EE12
:10611000900A08F079F941EC100B2046FFF748F996
:10612000FFF70AF9FFF724F9074B51EC100B002297
:1061300008F052FC003818BF012002B010BDFFEE7D
:10614000007AE4E730E4032000004E4013B5FFF787
:10615000F3F8144B0446188807F017FFFFF712FFF7
:10616000FDEEC07A2046CDED017A9DF804100E4C6C
:10617000FFF718FAFFF7E0F8FFF7E1F90B4A0346DB
:106180001021204604F0E2FD09490A482246FDF7A5
:10619000A5FFFFF793FFFFF711FFFFF731FF012086
:1061A00002B010BD40F70B007CDE03208BFA0B0021
:1061B00090FA0B0058E603200148002105F0A2BA2E
:1061C00030E40320704710B520210446FDF767FF37
:1061D000204610BD10B504468AB008464FF0200C8A
:1061E0000021CDE90023CDE902C10B4602AA2168B6
:1061F00004F030FC0AB010BD0EB403B503AB32217D
:1062000053F8042B0193FFF7E5FF02B05DF804EBB0
:1062100003B070470EB403B503AB012153F8042B50
:106220000193FFF7D7FF02B05DF804EB03B07047AE
:1062300010B50272FF2242810022C0E903224261AE
:106240000276C261024A034C1060C0E9004110BDF1
:106250003CE4032024FD0B002DE9F8439DF8208049
:106260000446894616461F46B8F1000F02D0406822
:1062700005F026FB217A606805F0FFFA6068036884
:1062800049469B6898476068002105F015FB054664
:1062900000BB0123217A60683A4605F0DCFA8742A8
:1062A000034609D13744BE421CD0606803685B696D
:1062B000984706F8010BF6E70B490C484A46FFF7EA
:1062C0009BFFB8F1000F02D0606805F002FB284682
:1062D000BDE8F8830346064904484A46FFF78CFFA9
:1062E0000025EEE70125ECE7D4FA0B0038E40320A3
:1062F000F9FA0B0007B500930123FFF7ADFF03B0D8
:106300005DF804FB73B54389FF2B044610D0194E8A
:10631000194D04F067F9B0F57A7F09D2608907F06A
:1063200021FE012804D031462846FDF7D7FEF0E7CC
:1063300001230DF1070228212046FFF7DBFF30B9CA
:106340000D480E49FDF7CAFE002002B070BD9DF851
:106350000730182BF4D101230DF107022921204623
:10636000FFF7C8FF0028EBD09DF80730052BE7D1D9
:10637000EBE700BF1DFB0B0038E4032032FB0B00F2
:1063800007B5134600228DF807200DF10702FFF72D
:10639000B1FF9DF8070003B05DF804FB2DE9F04163
:1063A0009DF8188004460F4615461E46B8F1000FAA
:1063B00002D0406805F084FA217A606805F05DFA41
:1063C0006068036839469B6898472E44B542606808
:1063D00005D0036815F8011B9B689847F6E7012173
:1063E00005F06AFA034670B1084909483A46FFF7D2
:1063F00003FF0025B8F1000F02D0606805F069FACC
:106400002846BDE8F0810125F4E700BF3FFB0B0003
:1064100038E403201FB58DF80F2000930DF10F0213
:106420000123FFF7BBFF05B05DF804FBF8B50A4692
:106430000C4605461A491B48FDF750FE002CB8BF14
:10644000EC687CB9012322461B212846FFF7E2FFB6
:106450001549024606461348FFF7DCFEEC606C6106
:106460003046F8BD032C19DDA7101F2FA8BF1F272A
:10647000BA0062F07C020123D2B21B212846FFF74A
:10648000C9FF3A460346094906460648FFF7C2FED9
:106490004FF4FA635F43EC606F61E1E70127E7E7E0
:1064A00064FB0B0038E403206EFB0B008AFB0B003F
:1064B000064B1A684AB1A0F500630B4305D1D368B7
:1064C0001BB100211046FFF7B1BF70473CE4032029
:1064D0002DE9FF419DF82880054616461F46B8F174
:1064E000000F04D04068019105F0EAF9019901918B
:1064F00000230DF10F022846FFF7FCFE044660B1B1
:106500009DF80F3003EA06023A43934205D0019901
:1065100000232846FFF77EFF0446B8F1000F02D0A3
:10652000686805F0D6F9204604B0BDE8F08113B5DF
:1065300014460DF10702FFF7DDFE28B19DF8073084
:106540001C420CBF0120002002B010BD13B5144640
:106550000DF10702FFF7CEFE28B19DF807301C426F
:1065600014BF0120002002B010BD07B5D243009334
:10657000D2B20023FFF7ACFF03B05DF804FB0000CC
:1065800037B501230DF107020F210446FFF7B2FED4
:10659000054638B91E491F48AD22FFF72DFE284693
:1065A00003B030BD9DF8073013F0200F4FF001030A
:1065B0000BD02022E3610F212046FFF7D6FF164AB9
:1065C00016491448FDF78AFDE9E7082217212046FD
:1065D000FFF7BCFF18B10223114AE361F0E79DF811
:1065E00007301A0709D50323E361082201230F218D
:1065F0002046FFF7BAFF0B4AE2E75B07CFD504223C
:10660000E26101230F212046FFF7AFFF064AD7E7DB
:10661000DDFB0B0038E40320AEFB0B00FCFB0B00A2
:10662000B7FB0B00C7FB0B00D7FB0B0007B50093B4
:106630001346FF22FFF74CFF03B05DF804FB000098
:10664000F8B50F461646012300220F210546FFF735
:10665000E1FE044638B94FF425721F491F48FFF781
:10666000CBFD2046F8BD0123232218212846FFF741
:10667000D1FE044610B940F29B22EEE7FF2FA8BFDF
:10668000FF27012FB8BF01270123FAB2192128469D
:10669000FFF7C0FE044610B94FF42A72DDE701236C
:1066A000082212212846FFF7C1FF044610B940F224
:1066B000AF22D2E7002E14BF03220222012342F0B0
:1066C000800218212846FFF7A5FE04460028C8D1FD
:1066D00040F2B922C1E700BF0DFC0B0038E40320F3
:1066E0002DE9F7430A4605460F464F484F49FDF747
:1066F000F5FC00212846FFF799FE044648B940F210
:10670000F7124B494848FFF777FD204603B0BDE834
:10671000F08301231A4630212846FFF787FF0446FD
:1067200010B940F20522ECE7102201231146284659
:10673000FFF71BFF044610B94FF40372E1E7012392
:10674000262213212846FFF765FE044610B940F2C1
:106750001322D6E7012600963346FC221121284653
:10676000FFF7B6FE044610B940F21B22C9E700222B
:1067700039462846FFF764FF044610B940F222224A
:10678000BFE700960223772210212846FFF7A0FEDC
:10679000044610B940F22B22B3E7334604221C21F1
:1067A0002846FFF743FF044610B940F23222A8E71B
:1067B00000961823E32211212846FFF789FE04469C
:1067C00010B940F239229CE73346C02217212846EF
:1067D000FFF720FE044610B94FF4107291E703F062
:1067E00001FFDFF85490DFF840804FF47A710646DD
:1067F0004F4303F0F7FE801BB8420ED2012217214F
:106800002846FFF7BDFD494602464046FDF766FCB7
:106810004FF47A7004F0F2FAEBE706490248FFF70A
:10682000EBFC06F08AFF70E738E4032038FC0B002D
:106830002DFC0B005EFC0B0049FC0B002DE9F3471F
:106840009DF828A005460C4691461F46BAF1000F58
:1068500002D0406805F034F807B3202F3E4628BF29
:1068600020267F2C26D83319802B01D9C4F180062D
:10687000012304223F212846FFF777FE002364F01E
:106880007F0100934A463346C9B22846FFF7E4FC2D
:10689000804628B13444BF1BB144DDE74FF0010806
:1068A000BAF1000F02D0686805F013F8404602B054
:1068B000BDE8F087012304223F212846FFF7B6FEFA
:1068C000DCE72DE9F3479DF828A005460C469146E4
:1068D0001F46BAF1000F02D0406804F0F1FF07B381
:1068E0001F2F3E4628BF1F267F2C26D83319802B0A
:1068F00001D9C4F18006012304223F212846FFF775
:1069000034FE002364F07F0100934A463346C9B247
:106910002846FFF743FD804628B13444BF1BB144ED
:10692000DDE74FF00108BAF1000F02D0686804F00B
:10693000D0FF404602B0BDE8F087012304223F218A
:106940002846FFF773FEDCE730B585B00D68D1E966
:10695000043203954D6802958D680195C9680091D0
:106960000133044902F26C72044606F07FFE2046B1
:1069700005B030BD70FC0B0003090A2200F00F00C7
:1069800002FB0300704738B5044600781546FFF750
:10699000F3FF08606078FFF7EFFF4860A078FFF72B
:1069A000EBFF8860E078FFF7E7FFC8602079FFF72A
:1069B000E3FF013808612DB9651D2878FFF7DCFF7A
:1069C000886138BD6079FFF7D7FF6430A51D486145
:1069D000F3E7000070B5012388B00D461A46102178
:1069E0000446FFF7A4FDF0B10823012620460096D7
:1069F0000DEB03020021FFF72FFC044698B132464D
:106A000029460DF10900FFF7BEFF04A8FFF79CFF20
:106A10000848049A0849FDF761FB04A806F0DAFC6F
:106A2000204608B070BD24220021284608F0B6F8A0
:106A30000024F5E738E403208EFC0B0030B58BB062
:106A40000D4601A9FFF7C6FF044620B101A804F0D6
:106A5000CDF9C5E9000120460BB030BD0A2390FBFB
:106A6000F3F103FB110091FBF3F203FB121240EA76
:106A70000210C0B2704770B5054600680C46164655
:106A8000FFF7ECFF20706868FFF7E8FF6070A86808
:106A9000FFF7E4FFA070E868FFF7E0FFE070286907
:106AA0000130FFF7DBFF20712EB9661DA869FFF7E3
:106AB000D5FF307070BD6A69642392FBF3F003FB6D
:106AC0001020FFF7CBFFA61D6071EFE7F0B587B090
:106AD000054602A816460C46FFF736FF1E48029AE6
:106AE0001E49FDF7FBFA02A806F074FC16B16868AF
:106AF00004F0E6FE204601220DF1090100278DF881
:106B00000870FFF7B8FF01231A4610212846FFF747
:106B10008DFD0446E8B1082300970DEB03023946CA
:106B20002846FFF73BFC044660B101231A461021BA
:106B30002846FFF71AFD16B1686804F0CAFE204621
:106B400007B0F0BD4FF48D7205490348FFF754FBC1
:106B5000F1E74FF48F72F7E738E403209CFC0B0059
:106B6000AAFC0B0013B504466846CDE9002307F0E4
:106B7000C7FF9DF8102001462046FFF7A7FF02B08F
:106B800010BD0000F0B5057E89B0044675BB06F067
:106B9000A3FF58B30026002704A92846CDE90467BF
:106BA00004F02CF810B30125257606F0B2FFC317C8
:106BB000CDE90203024600952046FFF7D3FF02A964
:106BC0002046CDE90267FFF739FF134B13491B68D5
:106BD000009304A8DDE9022306F03CFF1048049A64
:106BE0001049FDF77BFA04A806F0F4FB63698BB14A
:106BF00003F0F8FC2369C01A636998420AD303F0D2
:106C0000F1FC4FF0FF312061204609B0BDE8F040B3
:106C1000FFF70CBC09B0F0BDD4DE0320ACE60320C6
:106C200038E40320C5FC0B0030B504468BB011B12D
:106C3000406804F0F3FD2046FFF764FB06AD002832
:106C400037D02046FFF79CFC01231A46102120462E
:106C5000FFF76DFCD8B106F03FFFC0B902A920468E
:106C6000FFF7ECFEDDE9020106F03AFE134B144992
:106C70001B6800932846DDE9022306F0EBFE11486D
:106C8000069A1149FDF72AFA284606F0A3FB0F4B96
:106C900006930F4B09930F4B08934FF400620023A8
:106CA00002A80095FEF78AF82846FDF795FD0BB07F
:106CB00030BD09490348FFF79FFAE8E7D4DE032017
:106CC000ACE6032038E40320DBFC0B00B1640B00CE
:106CD000CF470B00BB470B00F8FC0B00014B024AEF
:106CE0001A60704738E4032010FD0B0010B5012333
:106CF00003748368044643B1C068984701236374F2
:106D00000020BDE8104003F03DBC00680028F5D02D
:106D100083680BB907F010FAC368EEE7012A02D1C5
:106D2000016000207047022A04BF0B680360F8E787
:106D300038B50568044635B12846FDF74DFD1021EC
:106D40002846FDF7ACF920461421BDE83840FDF790
:106D5000A6B910B503680446ABB1586803F0C2FB8E
:106D600088B923685A7C12B9586803F0C3FB2368BA
:106D7000586803F0C7FB20680023236018B1BDE802
:106D80001040FFF7D5BF10BD054A026000224260E7
:106D9000027380F84F24C0F85824C0F8602470476C
:106DA00050FD0B0010B5074C236843B940F2644016
:106DB000FDF771F9034608B1FFF7E6FF236020688D
:106DC00010BD00BF40E4032038B50446406890B1D0
:106DD00002232373FFF7BDFF656855B12846FFF70F
:106DE000B8FF286808B1FFF7A3FF04212846FDF784
:106DF00056F90023636038BD10B5054B03600446A7
:106E0000FFF7E2FF04F58A60FDF7E6FC204610BDBF
:106E100050FD0B0010B50446FFF7EEFF204640F290
:106E20006441FDF73CF9204610BDF0B5044689B039
:106E300000F10D0600F14E07237B1BB9012003F082
:106E4000DDFFF9E7237B022B64D0A06803F06AFB27
:106E5000A06803F06FFB94F84F348DF800303A4689
:106E60003C23314606A804F097FA069D6B7833B9A7
:106E7000237B022B03D0012003F0C0FFF5E7D4F8F9
:106E800058341BB3002003F02FFE20B16B7813B9E8
:106E900003F08CFEFAE72B78D4F860240592591E93
:106EA0004B424B418DF80B30D4F85834CDE9036791
:106EB0000BB907F041F905AB0093D4F85C5404AB6F
:106EC00003AA0DF10B0104F58A60A847A06803F03E
:106ED00029FB237B022B17D0D4F858340025C4F8A3
:106EE000605443B104F58A61032208469847C4F808
:106EF0005854C4F85C540023A068237303F01AFBB1
:106F000007A8FEF7B9FD97E7A06803F013FB07A8F1
:106F1000FEF7B2FD09B0F0BD0068FFF786BF13B5FC
:106F20000B460246D0E900016C4684E8030093E872
:106F3000030082E8030094E8030083E8030002B042
:106F400010BD00002DE9F743064688461420264967
:106F50001746994607F0E6F8044630B10020C4E928
:106F60000000C4E90200207460743460002C31D049
:106F70001D49102007F0D6F8054668B1002383604C
:106F800001463846FFF7CBFFBB68AA68BA60AB6022
:106F9000EA68FB68EB60FA602768256037B138461D
:106FA000FDF71AFC10213846FDF779F830680368C0
:106FB00083B10A9B4A46CDE9000341460B4B04309E
:106FC00003F088FA30B933681B7C4BB9012003F019
:106FD000F9FAF8E730680023336008B1FFF7A8FE3C
:106FE000304603B0BDE8F08384070C00ED6C0B0065
:106FF00030B5436887B00446C3B9083003F08AFA55
:107000000B4B059304200B4B02940493FDF743F8BC
:10701000054638B14FF4406300930749022302AAA2
:10702000FFF790FF656002A8FDF7D6FB07B030BD03
:10703000196F0B001D6D0B0034FD0B002DE9F043A3
:10704000044685B080680C9F98460D46164603F0AE
:1070500069FA63681BB1237B03F0FF0933B1A068B1
:1070600003F068FA002005B0BDE8F083A06803F0E3
:1070700061FA002D3DD04022294604F10D0007F0B1
:1070800064FE84F84D908EB340F20142314604F123
:107090004E0007F05AFE84F84E9400230293BB681A
:1070A00004F58A653BB10222394668469847FB6879
:1070B0000393BB68029329466846FFF730FF029BA3
:1070C000D4F85824C4F85834039B02926846D4F884
:1070D0005C24C4F85C340392FDF77EFB0D9BC4F87E
:1070E0006034012084F84F842073BCE784F84E603C
:1070F000D3E72846B7E77047704710B50821044624
:10710000FCF7CDFF204610BD10B510210446FCF75A
:10711000C6FF204610BD000010B5054B044640F8E0
:107120001C3B06F057F9201D06F054F9204610BD0F
:10713000C4FD0B0010B50446FFF7EEFF20465821B2
:10714000FCF7ADFF204610BD10B5044B044640F8D7
:10715000043BFFF7E1FF204610BD00BF94FD0B008C
:1071600010B50446FFF7F0FF20466021FCF797FFBB
:10717000204610BD20F00203012B03D0431F5842CC
:10718000584170471846704791F90430037191F9DE
:107190000530437191F90630837191F90730C3715D
:1071A000704738B504460D460430043106F099F9AD
:1071B00005F1140104F11400FFF7E6FF05F11C01CD
:1071C00004F11C0006F08DF905F12C0104F12C00EE
:1071D000FFF7DAFF95F9383084F8383095F939300F
:1071E00084F8393095F93A3084F83A3095F93B30E3
:1071F00084F83B3005F13C0104F13C00FFF7C4FF8B
:1072000095F9483084F8483095F9493084F8493088
:1072100095F94A3084F84A3095F94B3084F84B3070
:1072200005F14C0104F14C00FFF7AEFF95F8543026
:1072300084F8543038BD0B6803604B68436013B169
:107240005A6801325A607047024A02604A684260D6
:10725000704700BFA4FD0B00024A0260002242609A
:10726000704700BFA4FD0B0030B5002387B08380BA
:1072700083710D4605AB00931349044604AB03AA82
:10728000284603F05BFD032807D1039B2371049B71
:107290006371059BA37107B030BD0C4904AB03AA11
:1072A000284603F04BFD022804D1039B2371049B65
:1072B0006371F0E7064903AA284603F03FFD012861
:1072C00004BF039B2371E6E758FD0B005BFD0B0039
:1072D0006BFB0B0090F9042090F9053090F9061033
:1072E000002AB8BF0848C3EB03134FEA8303BDBFAE
:1072F00000FB0230401840424FF46160A4BF00FB25
:1073000002304018704700BFF0F1FFFF08B590F859
:1073100054304BB190F93B3043B92C30FFF7DAFFD2
:10732000B0FA80F0400908BD0120FCE70020FAE730
:1073300090F9073043B990F904308B6090F905302B
:107340004B6090F906300B60704790F9073030B50C
:10735000B3B990F904508C682C44D1E900328C60A8
:1073600090F90540002DB5BF121B12194A604A6002
:10737000B5BF90F9062090F906209B1A9B180B6068
:1073800030BD000008B5054A026000220346426095
:107390000830FFF761FF184608BD00BFB4FD0B00C1
:1073A00000234360838183737047000030B5044637
:1073B00087B00D4611B10B784D2B05D0204607B094
:1073C000BDE83040FFF7ECBF05AB0093114904ABBB
:1073D00003AA284603F0B2FC032816D1039B2371AD
:1073E000049B6371059BA3712F21284607F04AFC7B
:1073F00040B1411C04F10800FFF736FF0123E3719F
:1074000007B030BDA081A073F8E72046FFF7C8FFA2
:10741000F6E700BF73FD0B00104B114910B5044691
:1074200040F8043B06F021F804F11400FFF714FFC4
:107430000B4904F11C0006F018F804F12C00FFF7CA
:107440000BFF04F13400FFF79DFF04F14400FFF748
:1074500099FF002384F85430204610BDC4FD0B0072
:10746000FD050C002DE9F74F0446084607F034FCF3
:1074700000250646019004F134083F49019801AA0D
:1074800007F0B2FC0146002862D0012D05F101038E
:1074900053D0022D56D0002D46D1024692F80090CE
:1074A000B9F1400F1546174602F10102F6D8002245
:1074B0002A7004F11C0006F036F8012285F80090CD
:1074C00084F854202A786AB397F800A00AF1FF32B2
:1074D0003F2AB946BB4607F10107F5D9002304F15D
:1074E0002C0789F8003029463846FFF7BDFE89F899
:1074F00000A0BAF1000F15D05D461BF801ABBAF140
:10750000400FF9D800222A704946201D06F00BF8DA
:1075100085F800A004F11400BAF1000F06D0294646
:10752000FFF7A2FE0125A8E71D46A6E73946FFF7AB
:107530002BFE237E013B2376F4E74046FFF736FF20
:1075400002259AE704F14400FFF730FF032594E792
:1075500094F93B3043B194F94B202AB904F134003B
:10756000FFF71EFF84F85420304603F0CFFB94F859
:10757000540003B0BDE8F08F7DFD0B0038B5134B10
:1075800004460D4640F8043B114905F06EFF04F136
:107590001400FFF761FE0E4904F11C0005F065FFC1
:1075A00004F12C00FFF758FE04F13400FFF7EAFE67
:1075B00004F14400FFF7E6FE002384F85430294626
:1075C0002046FFF74FFF204638BD00BFC4FD0B002B
:1075D000FD050C0010B5044688B00846683001A9C6
:1075E00007F062FA01A807F094FB08AB18440023E7
:1075F00000F81D3C01A9204605F037FF204608B0E1
:1076000010BD000038B50446081D0D46FFF77EFE8C
:1076100028B10949204605F028FF204638BD2868D2
:10762000FFF7A8FD28B105F10801204605F068FF25
:10763000F3E705F12001F8E77FFD0B002DE9F047A6
:107640008046A8B00C4615462AB1474B104619682B
:1076500007F02FFB38B921464046FFF7BBFF4046F5
:1076600028B0BDE8F08729463F2218A807F06DFB37
:10767000002318A88DF89F3007F04BFB21460546E4
:1076800003A8FFF7BFFF201DFFF740FE48B33749AF
:1076900007A807F018FB18AE002705F1FF3ABA4516
:1076A0004CD93378252B07F1010917D173787A2B40
:1076B00036D107A807F02DFB18AB05463818AAEB02
:1076C0000702B11C184407F041FA2A4607A93046C0
:1076D00007F03CFA18A807F01CFB054601364F4698
:1076E000DBE72068FFF746FDB8B104F11800FFF7AB
:1076F000F1FD3C2290FBF2F3002BB8BF5B42B3FBE1
:10770000F2F102FB11330093194A1A4B90FBF3F389
:10771000102107A803F01AFBBDE704F13000E6E7EB
:107720005A2BDBD1059D18AB7819AAEB0702B11CC7
:10773000184407F00BFA03992A46C8E700212E22C5
:107740000CA80B9107F02AFA04F1680318AA322159
:107750000BA803F033FB0BA9404605F086FE03A8F7
:1077600005F038FE7BE700BFD4DE03207FFD0B0071
:1077700081FD0B00F0F1FFFF38B5094D2B6863B9AF
:107780006020FCF788FC044630B1064B40F8043B0F
:10779000FFF742FE6423E3652C60286838BD00BF14
:1077A00044E4032094FD0B0003F020BB01390B29B6
:1077B00015D8DFE801F01608160616061616061686
:1077C00006161E20704783070DD1642390FBF3F249
:1077D00003FB120000280CBF1C201D207047002056
:1077E00070471F2070471C207047F8B50123CB60FD
:1077F00090F90430013B0B610023C1E900330646D8
:107800000C4617468B602046FFF7CEFF96F90630F0
:10781000A2699A4203D0E3680133E360F3E796F983
:107820000550012D13D0E3686069013DC5EBC50526
:107830001D44E56096F9041000F26C70FFF7B6FF86
:107840008542C4BF073DE5602046FFF7ADFF2146F6
:1078500006F10800FFF76CFD3846FFF776FD20467D
:10786000BDE8F84003F0C2BAF0B590F8583085B0E2
:1078700004462BB9FFF780FF011D201DFFF791FC87
:1078800094F93F30002B65D0D4E9182304F1980710
:10789000394602A83E46CDE9022303F097FA0FCEFF
:1078A00004F1C8050FC50FCE0FC533682B6004F176
:1078B000300102A8FFF7C8FC02AA394604F13800DB
:1078C000FFF793FFC4E9240104F1180102A8FFF7B0
:1078D000BBFC02AA04F1C80104F14800FFF785FFD0
:1078E000D4E92465864275EB0103C4E93001D4E98B
:1078F000182323DAB24273EB050519DA002323605B
:107900002068FFF737FC04F16801D4E918560191AB
:1079100010BB04F13000FFF7DDFC2D1A66EBE070C0
:10792000CDE90250019902A803F050FA05B0F0BD6C
:1079300082428B41B4BF01230223E0E7824273EB12
:10794000010101DA0323DAE7B242AB41B4BF0423F9
:107950000523D4E70623D2E704F11800DBE737B5A7
:107960008D6804466846FFF766FC6A46294620464D
:1079700004F05EF901A8FEF77FF8204603B030BDA1
:1079800037B5CD6804466846FFF755FC6A46294678
:10799000204604F029F901A8FEF76EF8204603B04E
:1079A00030BD37B50D6904466846FFF744FC6A46AA
:1079B0002946204604F0C1F801A8FEF75DF82046EC
:1079C00003B030BD704710B510210446FCF767FBCB
:1079D000204610BD0368C9B29B68184730B5034DF7
:1079E000C0E90223C0E9005130BD00BFD4FD0B0047
:1079F000406803F013BF10B50446006803F069FF48
:107A0000204610BD2DE9F7430446406801900D461D
:107A100016461F4603F054FFA7B1E168606841F0C5
:107A2000500103F02EFF290A6068FFF7D3FF2946B3
:107A30006068FFF7CFFF6068002103F03DFF48B1A9
:107A4000002400E0012401A8FFF7D5FF204603B081
:107A5000BDE8F083202F217B6068B84628BF4FF037
:107A600020080123424641F0500103F0F4FE06F0E5
:107A7000D1FA03681B6998474045E1DB06EB08092A
:107A800006F0C8FA03685B69984706F8010B4E4593
:107A9000F6D14544A7EB0807BEE72DE9F74F0446AA
:107AA000406801900E4690461D4603F009FF4FF0D6
:107AB0000109B9F1000F2AD04DB3E168606841F0C7
:107AC000500103F0DEFE310A6068FFF783FF606853
:107AD0003146FFF77FFFA5F11E0A4746A6EB080BCC
:107AE000606817F8011B0368013D9B68984755457E
:107AF0000BEB0706B84601D0002DF1D160680121DB
:107B000003F0DAFE0028D7D04FF00009D1E701A832
:107B1000FFF771FF484603B0BDE8F08F2DE9F04351
:107B20008BB00E4615468046406801901C4603F017
:107B3000C7FEAE4229D2264425448CB11E2C2746CE
:107B4000D8F8003028BF1E27F61BD3F8089002AAE9
:107B50003B4631464046ED1BC84748B9002400E08B
:107B6000012401A8FFF747FF20460BB0BDE8F083D2
:107B7000D8F8003002AAD3F80C9029463B4640467C
:107B8000C8470028EAD0E41BD7E7E9D9002CE7D0A2
:107B9000D8F800301E2C274628BF1E27D3F808909F
:107BA00002AA3B4631464046C8470028D6D0D8F8FE
:107BB000003002AAD3F80C9029463B464046C847FD
:107BC0000028CBD03E443D44E41BDFE703680A783D
:107BD00083F8B120012183F8B010704710B44268D7
:107BE0000346541001EB6200D20748BF0A591B68D4
:107BF0005DF8044B48BFD3581847012A02D10160F1
:107C000000207047022A04BFD1E90023C0E9002305
:107C1000F6E7012A02D1016000207047022A04BF62
:107C20000B680360F8E7406F02F09CBCD0F8C830E6
:107C300001461BB1D0F8CC30C03018477047000067
:107C4000F8B5124D0846002A18BF15460E461F46C5
:107C500007F05FF8402816D8284607F05AF8B0F524
:107C6000806F10D84330FCF718FA044648B131460B
:107C700000F8017B07F027F8294604F1420007F0DD
:107C800022F82046F8BD0024FBE700BFFD050C00EC
:107C9000F0B59FB00A4600230E46011D08A802F069
:107CA000B1F80898002107F049F9054608A805F041
:107CB00091FB002D60D008A9284607F02DF90C9BF8
:107CC0002E492F483246FEF7A5FA002211462846D3
:107CD00007F02AF9082206A9284607F043F90C9F65
:107CE0004A2F39DD274B069A9A4235D1264B079AFF
:107CF0009A4231D1A7F1080210460592FCF7CDF95E
:107D00000446C0B127440146059A284607F02AF9DF
:107D100017F8093CABB9631C1846059306F0F9FF48
:107D20003F28059B0DD804F14202009217491448E0
:107D30003246FEF76FFA284607F0E6F820461FB0F5
:107D4000F0BD13490E483246FEF764FA432120463F
:107D5000FCF7A5F90024EEE7BDF81E3002939DF86C
:107D60001D3001939DF81C3000930A49069B04487E
:107D70003246FEF74FFAEDE72C46DFE7E8FD0B0051
:107D800048E403206376B63101084100FCFD0B0096
:107D90001EFE0B004CFE0B002DE9F8438046284BDD
:107DA00048F8043B0446404601F044FF02226423A5
:107DB0000025C4E91B230823E367C4E92055C4E96F
:107DC0002255C4E92455C4E92655A5672020FCF7AF
:107DD00062F9E66FA067013E760800EB8609074668
:107DE0004FF40070FCF757F900F50073C4E9250360
:107DF000C4F888304FF4FA614FF47A73C4E92D1354
:107E000047F2305347F82600C4F88400C4F88000D5
:107E1000C4F89000C4E92855C4E92A550949C4F8B2
:107E20008C90C4F89C90C4F8B050C4F8BC30C4F82E
:107E3000C850404601F044FF2046BDE8F88300BF2B
:107E400068000C0091FE0B0038B5064D2B683BB95D
:107E5000D020FCF720F9044608B1FFF79DFF2C6005
:107E6000286838BD4CE403204269436A9B1A9B1082
:107E70005A1ED0E906315B1A9B1003EBC21302694C
:107E80008068101A03EBA000704738B50546FFF76D
:107E9000CAFE05F17800FFF7E7FF044650B9281D38
:107EA00002F004FAD5F8A03004461BB1D5F8A4308E
:107EB00003B90134686F02F05DFB204638BD10B590
:107EC00002698368043A9342044602D00433A360F3
:107ED00010BDC0684FF40071FCF7E1F863691A1D2A
:107EE00062615B68E36003F500722261EFE7000006
:107EF0002DE9F04F85B00446FFF795FEDFF8A4901A
:107F0000DFF8A4A0DFF8A4B0D4F88030D4F8902033
:107F1000934205D1606F05B0BDE8F04F02F02ABB77
:107F200004F1780004F104081F68FFF7C8FF404619
:107F300002F060F90023024641460646684601F019
:107F400061FF009840F2022106F0F8FF05466846FE
:107F500005F040FAC5B1082269462846CDE9009AE5
:107F600007F012F807F1420006F0D3FE394600F19F
:107F70004302284607F008F8284606F0C5FF0848DF
:107F800032465946FEF746F93146404602F074F94A
:107F9000002FB9D043213846FCF781F8B2E700BF83
:107FA00048E403206376B631010841009FFE0B00D0
:107FB0002DE9F0410446FFF736FE04F17800FFF7A3
:107FC00053FFE36E984202D92046FFF791FFDFF896
:107FD00044800F4F261D304602F068F9236F984207
:107FE00004DC606FBDE8F04102F0C4BA0121304604
:107FF00002F00CF905460028EDD00146002230467B
:1080000001F03CFF2A4641463846FCF767F8E2E7B4
:1080100048E40320BCFE0B0008B5A0F500630B4349
:1080200005D0403850EA01030BD1092A09D105498E
:108030000548FEF7EFF8FFF707FFBDE80840FFF738
:1080400057BF08BDCFFE0B0048E4032070B503689E
:10805000044683B1436A45691E1DAE4206D955F8F0
:10806000040B4FF40071FCF71AF8F6E7616820681A
:108070008900FCF714F8204670BD00001FB5D1E957
:1080800000230021044602910AB9D90705D5CDE99C
:1080900000230A4B03930A4B029321466846FEF7DE
:1080A0003EFF029BA268A360039B02926846E268BF
:1080B000E3600392FCF790FB04B010BDDD7B0B0086
:1080C000FB7B0B0070B586B0044602F07FFD48B91B
:1080D000434B02A9CDE9023004F1C000FFF7CEFF07
:1080E00006B070BD94F8B2501DB1012384F8B330CE
:1080F000F6E702F077FAD4F8A830C01AD4F8AC301A
:108100009842EDD3261D2946304602F07FF80146FD
:10811000C4F8A400002852D02046FFF7B9FD054658
:10812000C4F8A000002835D002F05CFA02AE0025A9
:108130002C4BC4F8A800314604F1C000029303950B
:10814000FFF79CFFD4E9283003F142020092264950
:10815000264AA4F8B050A84208BF0A460133244971
:10816000244884F8B350FEF755F8FEF71BFED4F808
:10817000A020214B0593CDE9006511461F4B0294C9
:10818000049311F8013B4232FEF758FF3046FCF7EA
:1081900023FBA5E7D4F8A42019491648FBF79EFF56
:1081A0000121304602F032F8D4F8A4102A463046B5
:1081B00001F064FED4F8A030002BB5D195E7D4F8D7
:1081C0008030D4F890209A4207D01B68C4F8A030C1
:1081D00004F17800FFF773FEECE7C4F8A00084E731
:1081E00005820B0085850B00FEFE0B00F0030C00E2
:1081F0001FFF0B0048E40320CD7B0B00137C0B001A
:1082000002FF0B0013B5044602F0E0FC90B102F04F
:10821000E9F9D4F8B430C4F8AC300D4BC4F8A80078
:1082200000936946002304F1C0000193FFF726FF85
:1082300002B010BD94F8B2301BB1012384F8B33002
:10824000F6E72046FFF721FE0028F6D0F0E700BF52
:10825000C5800B0070B5054698B0002002F054FCB4
:10826000012805D03E493F48FDF7C6FF18B070BD54
:1082700005F1740002F066F93B4B04933B4B079306
:1082800004A93B4B069308A8FCF788FD08A90CA895
:10829000FCF784FD0CA910A8FCF780FD0026102037
:1082A0001696FBF7F8FE044660B18660014610A8FA
:1082B000FEF735FE129BA2681292A360E268139B40
:1082C000E36013922B4B17932B4B16932B4B149469
:1082D00000261020CDE901360396FBF7DCFE0446AC
:1082E000D8B1169B866033B1022214A99847179B18
:1082F000E360169BA360224B0393224A029401ABD6
:108300004FF40460002102F0DFFB30B12046FCF79F
:1083100063FA10212046FBF7C2FE14A8FCF75CFAB2
:1083200010A8FCF759FA0CA8FCF756FA08A8FCF7B5
:1083300053FA04A8FCF750FAFEF734FDFEF758FE96
:10834000281D01F0DFFE2846FFF732FE0E4B149386
:1083500014A9002305F1C0001593FFF78FFE85E7F0
:108360003EFF0B0048E4032019800B00CF470B00B1
:10837000BB470B0095470B00C54E0B0002000C00DD
:10838000EB470B006D470B0005820B002DE9F04712
:1083900006468946406A71697368471A09EBA70562
:1083A0000135B3EB450F144627D95D1B6D083268C4
:1083B000AD000CB14FEA89042C441444031DA142C2
:1083C000A3EB010213D9994202D0204606F0CCFB60
:1083D00074612368F36003F500733361E31973621A
:1083E000E359F36103F500733362BDE8F087994206
:1083F000EED0381D801A2044E8E703F102084B450F
:108400002CBF9844C844B8F1005F01D305F08EFE3C
:108410004FEA8800FBF73FFEA8EB05056D08824692
:10842000AD000CB14FEA8904726A716904322C44C0
:108430009142544403D0521A204606F095FB7168CD
:1084400030688900FBF72BFEC6E900A8C0E70000F2
:10845000F0B585B004469DF828509DF82C302B438C
:108460000F461646FFF7ECFB054600283CD03F4B75
:108470003F494048002E18BF33463A46FDF7CAFE32
:108480002046FFF7D0FBD4F89820D4F89030043A77
:10849000934204F1780629D003B11D60D4F89030DE
:1084A0000433251DC4F89030284601F0FFFE0390E8
:1084B0003046FFF7D9FC029002F088FBDDE902327A
:1084C00000902D492B48FDF7A5FE284601F0EEFE51
:1084D00000283BD02046FFF70BFD2046FFF768FD44
:1084E000606F02F047F8012005B0F0BD3046FFF79D
:1084F000BBFC6FF06043984202D1204805F019FEA2
:10850000D4F89C30A26F9A1AE36FA3EBA203012B5D
:1085100004D8002201213046FFF738FF4FF40070E5
:10852000D4F89C70FBF7B7FD7860D4F8903003B1B5
:108530001D60D4F89C301A1DC4F89C205B68C4F8F8
:10854000943003F50072C4F89820AAE73046FFF78C
:108550008BFCE36E9842BDD802F038FB0028B9D0FE
:1085600007490448FDF756FEB7E700BFFD050C00BC
:1085700061FF0B0048E40320B9FF0B0089FF0B00EB
:10858000E5FF0B0073B590F8B0300446002B41D0E6
:1085900090F8B130D0F8A420002B3DD0504951487C
:1085A000FDF738FED4F8A430D3B1261D00213046A3
:1085B00001F02CFED4F8A430984205460DD10121DB
:1085C000304601F023FE00222946304601F056FCD9
:1085D000454944482A46FDF71DFE0023C4F8A4304F
:1085E000D4F8A00010B14321FBF759FD0023C4F8D3
:1085F000A030D4F8B830C4F8AC303C4B0093694696
:10860000002304F1C0000193FFF738FD01F0EAFFF9
:10861000C4F8A80002B070BD35493248FDF7FAFD34
:10862000D4F8BC30C4F8AC30D4F8A4304BB1D4F892
:10863000A00010B14321FBF732FD0023C4F8A030A5
:10864000DBE72046FFF7EFFAD4E92032934213D05C
:10865000D4F8A02043F8042CD4F88030043BC4F8AC
:108660008030606F01F086FF22491E48FDF7D2FD81
:108670002046FFF73DFCC0E704F178052846FFF7E8
:10868000F3FB6FF06043984202D11B4805F051FDA7
:10869000D4F88C20A36F9A4204D1012211462846B7
:1086A000FFF774FE4FF40070D4F88C50FBF7F3FC26
:1086B00045F8040CD4F88C301A1FC4F88C2053F8F9
:1086C000043CC4F8843003F50072C4F8882003F534
:1086D000FE72C4F88020D4F8A020C3F8FC21C0E7C3
:1086E000F8FF0B0048E403200B000C00C5800B00D2
:1086F0001B000C002D000C0089FF0B00014B024AEF
:108700001A60704748E4032054000C0010B5074B72
:10871000044640F8C03BFCF75FF804F17800FFF72F
:1087200095FC201D01F02EFC204610BD68000C00B9
:1087300010B50446FFF7EAFF2046D021FBF7AFFC57
:10874000204610BD01600271704700680368DB6855
:108750001847006803681B6A1847006803689B6A2B
:10876000184700797047006803689B6B184737B556
:1087700005460C4619460192FFF7F5FF2868019A55
:1087800003685B69214603B0BDE8304018470068C4
:108790000368DB6B184738B50446006803680D466C
:1087A0005B6B984729462046FFF7F1FF257138BDDE
:1087B00038B50446006803689B689847054618B1B9
:1087C00021792046FFF7E7FF284638BD0068036897
:1087D0001B6C1847006803685B6C184700680368E7
:1087E000DB6C1847006803681B6D18470068036856
:1087F0005B6D1847006803689B6D18472DE9F843C7
:10880000044600680A9F1E4603681B69DDE9089854
:1088100098470546C8B11EB12046FFF7E3FF307008
:10882000B9F1000F04D02046FFF7D8FF89F8000007
:10883000B8F1000F04D02046FFF7D8FF88F80000F9
:108840001FB12046FFF7D6FF38702846BDE8F883F1
:10885000012070470379032BFCD0012070470020D2
:1088600070478171704741717047C17270470173E1
:10887000704741737047837B23EA0202114381737F
:108880007047C0797047007A7047407A7047807AA5
:108890007047008A00B270470079704701717047D5
:1088A000408A80B27047808A80B27047C08A80B2A6
:1088B000704738B505460C462B682846DB68984754
:1088C00028B9002CF8D0204602F098FAF4E738BD19
:1088D000F8B505460F46144601F084FE064601F041
:1088E00081FE801BB8420AD22B682846DB68984775
:1088F00030B9002CF3D0204602F080FAEFE70020D8
:10890000F8BD70B504460E4601F06CFE054601F058
:1089100069FE401BB04204D22379032BF7D001201B
:1089200070BD0020FCE770B5C3690446B3B101F027
:1089300059FE64260546236820461B6B984768B19C
:1089400001F050FEE369401B984209D80A2101203A
:1089500004F067FC704302F051FAECE7012070BDAF
:108960000020FCE7064A0260FF21002202714171EB
:108970004282C172828281818273C282C2617047E7
:108980007C000C007047704770477047704741711A
:1089900070478171704701717047000030B5034D19
:1089A000056001714271837130BD00BFFC000C0095
:1089B000704710B510210446FBF771FB204610BD2F
:1089C0000EB403B503AB002153F8042B019304F05C
:1089D000ECFB02B05DF804EB03B0704773B50446DE
:1089E00008462279A36832B1A3B90B4902B0BDE8A9
:1089F000704004F0D1BA094A267B094D0949647BCD
:108A0000012E18BF2946CDE900140749FFF7D8FF0A
:108A100002B070BD054AEFE739010C00FD050C00FE
:108A200035010C0031010C004F010C0028010C0035
:108A300010B50446FFF7B2FF054B2360054BA3605A
:108A40000123237300232361A382204610BD00BFAE
:108A500088010C0074010C0013B50B4C2178BFF396
:108A60005B8F11F001010BD120460191FBF726FB32
:108A7000019928B1054804F0EDFB2046FBF723FBE4
:108A8000024802B010BD00BF50E4032054E40320AC
:108A900007B50191FFF7E0FF019903B05DF804EB22
:108AA00004F090BC08B5FFF7D7FFBDE8084004F01C
:108AB0008FBC08B5FFF7D0FFBDE8084004F089BCC3
:108AC00010B50379042B20D0032B20D0022B20D00B
:108AD000114A1249012B18BF0A464179837901399D
:108AE00018BF012133B1012B04D0022B02D0032B7C
:108AF00018BF002300240473026101754375FFF75A
:108B0000ABFFBDE8104004F0AFBB054AE5E7054AFE
:108B1000E3E7054AE1E700BF80841E0040420F0002
:108B20000024F40000127A0000093D0008B5FFF7A8
:108B300093FFBDE8084004F0ABBB10B50446FFF757
:108B40008BFF04F10801BDE8104004F0CDBB08B56F
:108B5000FFF782FFBDE8084004F0ACBB08B5FFF7A3
:108B60007BFF08BD002302481A461946FFF760BF85
:108B70005CE40320012A05D1007A0B781B1A5842C5
:108B800058417047002070472DE9F047254C0123DC
:108B900086B02370637000230F46A17000930322F8
:108BA000FF232146064600F0E5FB20B100252846BC
:108BB00006B0BDE8F0877A238DF8173001F012FD7A
:108BC00006F10409804608F57A6501F00BFD291AC3
:108BD0000029EBDD002289B24846FFF7BEFD0028E0
:108BE000F3D00023CDE90233CDE900330DF11702B4
:108BF0002146304600F0C8FB05460028E3D09DF82A
:108C00001730012BDFD994F800A0BAF1020FDAD1A6
:108C10004846FFF7E7FD534602463946304600F026
:108C200021FBC4E774E40320012A2DE9F341074640
:108C30000E4614463BD94D79022D30D100F104087F
:108C4000C97901914046FFF7CDFD083C2B4602460D
:108C50000199384600F006FBE5B206F1080300244E
:108C60002246954204F10104E4B204D913F8012B21
:108C7000397A9142F4D104F108010E44A54216D983
:108C800016F8011B01914046FFF7ACFD0134024686
:108C9000019902233846E4B200F0E4FAEEE7032D2E
:108CA00005D1897902B0BDE8F04100F0C4BA02B044
:108CB000BDE8F08110B5044600F014FB014B2360C1
:108CC000204610BDBC010C002DE9F047792A9DF823
:108CD000209006460F4614461D4625D8FF2B14D17A
:108CE000DFF84880404600232246394600F8013B21
:108CF00005F02CFF621CCDF820902B4641463046F3
:108D0000D2B2BDE8F04700F035BB194600F04FFA8B
:108D10000028E5D1336829469B68304698470028EB
:108D2000DED10220BDE8F0870120FBE774E40320D8
:108D30002DE9F04F89B098467A238DF81A300DF15D
:108D40001F0303930DF11E0302935D4E0DF11D03EE
:108D5000019307AB0093894617460DF11B030DF1F4
:108D60001A023146DDE912BA054600F00DFB044651
:108D700020B90024204609B0BDE8F08F9DF81A30D4
:108D800073B3327862BBB8F1000F03D09DF81B209B
:108D900088F80020BBF1000F03D09DF81C208BF851
:108DA0000020BAF1000F03D09DF81D208AF80020A2
:108DB000149A1AB114999DF81E200A70159A1AB1C6
:108DC00015999DF81F200A703A783E49013BDBB2A5
:108DD0009A4288BF3B703A78484605F0B7FEC9E72B
:108DE0009DF81C20FF2AC4D1012BC2D93278012A58
:108DF000BFD12A7A9DF81B40A242BAD0DF1E324969
:108E0000FFB200235FFA83F8474506D911F8010B3A
:108E1000824203F10103F5D1ABE705F104094846AD
:108E2000FFF7E0FC022302462146284600F01AFA2A
:108E300095F8173193B1224CA31BDBB29F420CD99A
:108E4000E17805914846FFF7CDFC059902460223DB
:108E5000284600F007FA0134EEE7B8462B6872782E
:108E6000DB681A4928469847044660B1022300246B
:108E700033709DF81A209DF81B3011490094284644
:108E800000F078FA76E795F8163143457FF671AF32
:108E900095F81731002B3FF46CAF9DF81A202B7A10
:108EA00007493E440132F3709DF81B300190D2B265
:108EB00000932846FF238DF81A2000F025FA59E781
:108EC00074E4032075E4032077E4032076E40320B0
:108ED0002DE9F04F85B080461C46DDE91056129F03
:108EE0008946924601F07EFB08F1040B044401F030
:108EF00079FB201A002816DD81B200225846FFF7C0
:108F00002CFC0028F3D00F9B0093CDE902670E9B49
:108F10000195524649464046FFF70AFF0028E6D031
:108F200005B0BDE8F08F0020FAE70000F0B585B08D
:108F3000054604300E460392FFF754FC039A074699
:108F40003146284600F04AF90228044601D0052897
:108F50001BD13178284600F06EF972782B7A9A424C
:108F600013D00B4C03232370337863707178022382
:108F70003A46284600F076F900230093214673789C
:108F80000222284600F0F6F90446204605B0F0BD5E
:108F900074E4032010B50446FFF7D4FBC823002176
:108FA000E3810323A160217323744FF4807204F1E1
:108FB000110005F0F3FD204610BD1FB504460192D7
:108FC000FFF704FC204600228021FFF703FC21224A
:108FD000019B8DF80F200DF10F0101222046FFF7B4
:108FE000C6FB2046FFF7B5FB04B010BD2DE9F04FDE
:108FF000057B0135EDB287B0044689469246984616
:1090000005730027227C3B469A4207F10107FFB215
:109010006BD329462046FFF7D9FB012F0DBFC02295
:109020008022402100212046FFF7D4FB43465246D0
:1090300049462046FFF79BFB2046FFF78AFBB8F125
:10904000FF0F54D0012F82BFA3680133A36001F04A
:10905000C9FA4FF4807183460020E68904F0E1F8F4
:10906000704348BFFF3006EB20261BFA86F601F05E
:10907000B9FA301A0028C5DD81B200222046FFF778
:109080006CFB0028F3D00DF1170302930DF11603CA
:10909000019300220DF115030093114605AB204604
:1090A000FFF7ACFB0028E2D09DF814209DF91730A3
:1090B00042450ED194F804C09DF815108C4508D196
:1090C000002B08DA9DF81630AB42D0D107B0BDE8CE
:1090D000F08F002BCBDBA1189DF81630497C99420C
:1090E000C5D12046FFF769FFC1E70020EEE7012068
:1090F000ECE72DE9F04389B0CDE90421DDE91098D2
:10910000129F04461E46FFF720FBDDE9042120B92B
:109110000025284609B0BDE8F0830DF11F03029336
:109120000DF11E0301930DF11D030093204607ABC3
:10913000FFF764FB05460028EAD09DF91F30002B9D
:10914000E6DB22799DF81D309A4206D19DF81C205D
:109150009DF81E102046FFF730FF9DF81F209DF858
:109160001C109DF81E3012F0400F0C4402D0607CA1
:109170009842CDD006B13170B9F1000F03D09DF8FF
:109180001D1089F80010B8F1000F01D088F80030E8
:1091900007B13A706374BCE7704710B504460430F9
:1091A000FFF706FB10B11E2384F8163110BD10B571
:1091B0000246002392F818418C4208D192F81A41D5
:1091C0002CB103EB430303F58C73184410BD01333A
:1091D000322B02F10302EDD10020F7E737B50B780F
:1091E000FF2B05460C4606D019460192FFF7DFFF1C
:1091F00058B14378019A2146281DFFF7F7FE002851
:1092000014BF0020052003B030BD0220FBE710B5DD
:1092100001EB41030446C1F1310203F58C7003F206
:109220001B1102EB42022144204405F08FFC002375
:1092300084F8AD3110BD38B50A46002300F58C74B2
:1092400003EB4305D9B2655D954203D1FFF7DFFF1C
:10925000012038BD0133322BF2D10020F9E7002183
:10926000FFF7D5BFF8B516461F4604460D46002346
:1092700000F58C7203EB4300115CA94205D1204438
:1092800080F8196180F81A71F8BD0133322BF1D1E1
:10929000002304F58D7203EB4300115C19B92044DF
:1092A00080F81851ECE70133322BF4D12046FFF758
:1092B000D6FF204604F1960390F81A212AB980F8C7
:1092C000185180F8196180F81A7103309842F3D16F
:1092D000DAE700F19603002280F81A210330984261
:1092E000FAD1704710B504460430FFF753FE054B22
:1092F00023604FF48F732046A4F81631FFF7E9FF7F
:10930000204610BDD4010C002DE9F3470446406807
:1093100001911F4603689DF828A09B699DF82C9039
:109320001646984706F1050880451CD8104D01994E
:1093300085F801A00023AB7094F81531EB705A1C2E
:1093400084F81521681D32462F7085F8049005F0C9
:10935000FDFB23685B685FFA88F22946204602B06D
:10936000BDE8F0471847012002B0BDE8F08700BF14
:10937000EEE4032013B59DF810400194047A0094A4
:10938000FFF7C2FF02B010BD2DE9F04F87B01F46B6
:109390007F238DF813300DF117030293DFF8D0907F
:1093A0000DF1160301930DF1150300930446884651
:1093B000164605AB0DF1130249460430DDE910BA3B
:1093C000FFF797FE054608B9002538E023689DF8A9
:1093D00013201B6849462046984799F80030227AA6
:1093E0009A4201D0FF2B2ED117B1214B5B783B70F5
:1093F000BBF1000F03D01E4B1B788BF80030BAF185
:10940000000F03D01A4BDB788AF80030129B1BB197
:10941000174B129A1B791370139B1BB1144B139AA1
:109420009B7813709DF8133032781249053BDBB2FC
:109430009A4288BF33703278404605F087FB284651
:1094400007B0BDE8F08F99F802305A1C89F8022065
:1094500094F816219A42B7D994F81731002BB3D05B
:1094600023689DF813205B68494620469847ABE780
:10947000EEE40320F3E4032010B50446006A036819
:10948000DB68984794F82400FF2802D0012104F0FB
:109490003FFD23682046DB6F9847642001F0AEFC57
:1094A000012010BD90F82400002104F042BD90F886
:1094B0002400012104F03DBD70B504460D4616465A
:1094C000FFF750FA034B2360266284F824502046AD
:1094D00070BD00BFE4010C0038B50446006A0368A3
:1094E0001B6A0D469847236820469B6F9847206A61
:1094F000036805F07F011B689847206A0368002114
:109500001B68984723680546DB6F20469847206A0A
:1095100003685B6A9847284638BD70B50446006A00
:1095200003681B6A16460D469847236820469B6FC2
:109530009847206A036845F080011B6898470546F4
:10954000206A036831461B689847012001F042F801
:1095500023682046DB6F9847206A03685B6A984758
:10956000284670BDF8B50446006A1E4603681B6AAB
:109570000F4615469847236820469B6F9847206AF8
:10958000036807F07F011B6898472E440746B542E1
:1095900007D0206A036800211B68984705F8010B73
:1095A000F5E723682046DB6F9847206A03685B6A0B
:1095B00098473846F8BDF8B50446006A1E46036869
:1095C0001B6A0F4615469847236820469B6F9847AD
:1095D000206A036847F080011B6898472E440746BD
:1095E000B54206D0206A15F8011B03681B6898472E
:1095F000F6E723682046DB6F9847206A03685B6ABA
:1096000098473846F8BD006A03689B6A18470120EE
:109610007047FB207047704710B50379052B04464F
:1096200010D003680521D3F8803098470722012124
:109630002046FFF772FF802240212046FFF76DFF92
:10964000052323712379052BFCD0207E10BD10B596
:109650004FF498710446FAF722FD204610BD10B56C
:109660000379012B04460BD003680121D3F8803025
:109670009847002201212046FFF74FFF0123237165
:10968000012010BDF8B50368DB6804460F46154697
:1096900098470646B0B187B17DB194F828302A7852
:1096A000033B9342DEBF94F82830043B2B702A78AA
:1096B00004F12D01384605F049FA002384F82831D9
:1096C00084F828303046F8BD142938B505460C46D4
:1096D00014DC012914DD112913DD07224D21284650
:1096E000FFF71BFF033C64B2A21E62F07F02284614
:1096F000D2B2BDE838400921FFF70FBF1424ECE7D0
:10970000022404224D212846FFF707FFECE7000062
:1097100038B5044615461A46FFF7CEFE094B2360BE
:10972000FF22002384F82720012284F8283184F8BE
:109730002C3184F8265084F82B2184F825302046DB
:1097400038BD00BF7C020C0090F82830032B1BD9D9
:1097500090F82930C37190F82A30037290F82B30BA
:10976000437290F82C308372837933B9C37942798C
:109770009A4202D0C379FF2B06D1838A01339BB270
:109780008382012380F82831704700000000000028
:1097900038B504462DED028B10EE100AB0EE408A6B
:1097A00004F032FE17A3D3E9002304F085FE17A3CB
:1097B000D3E9002304F0AAFF05F056F90621054677
:1097C000C0F307422046FFF7A8FEC5F30722072192
:1097D0002046FFF7A2FEEAB208212046FFF79DFED1
:1097E000DFED077AB4EEE78ABDEC028BF1EE10FAFA
:1097F000ACBF01230023012084F8293138BD00BF0C
:1098000000C042440000000080842E41000000009F
:1098100080844E4010B50379022B04460BD00368B8
:109820000221D3F880309847012211462046FFF7E5
:1098300074FE0223237110BD70B512210446FFF798
:109840004BFE1C2105462046FFF746FEFF2206463A
:1098500012212046FFF761FE2379042B07D115F072
:10986000A00F17D194F82B310BB1700612D52379C4
:10987000042B01D1690622D42379032B01D12A07B5
:1098800068D42379052B0ED16B070CD505F00105A3
:10989000257663E0638A01339BB26382002384F8F8
:1098A000283184F82830FF2212212046FFF735FEA8
:1098B0002046FF22BDE870401221FFF72EBE132183
:1098C0002046FFF709FE102105462046FFF704FE5B
:1098D0000D2102462046FFF720FE04F129022B4607
:1098E00000212046FFF73EFE192184F8285020462B
:1098F000FFF7F2FD40B20028B8BF0330801084F8B3
:109900002A011A212046FFF7E7FD94F92A3100B217
:10991000002B2082A9BF238A228A1BB21B01B2BF5F
:109920009B180F2293FBF2F31BB2238294F8293188
:109930006BB1238A9D3B1BB223822046FFF704FFB5
:1099400094F82831002BAED0FFF764FFABE7238AF1
:10995000A43BF0E7E38A01339BB2E3822046F3E7BE
:10996000024B186808B1FFF767BF704770E5032026
:10997000024B586808B1FFF75FBF704770E50320DE
:10998000024B986808B1FFF757BF704770E5032096
:1099900010B50379042B044610D003680421D3F8D2
:1099A00080309847052201212046FFF7B6FD0022AE
:1099B00040212046FFF7B1FD0423237110BD10B5EF
:1099C0000379032B044605D0FFF7E2FF94F8280142
:1099D000C0B210BD0020FCE710B50379032B04468C
:1099E00010D003680321D3F8803098470322012167
:1099F0002046FFF792FD402211462046FFF78DFDDD
:109A00000323237110BDFB2AF8B504460F46154603
:109A100002D900263046F8BD03681B6A98472046E5
:109A2000FFF7F8FE23682046DB6A984706460028C1
:109A3000EFD000220D212046FFF76FFDE27A0021D2
:109A40002046FFF76AFD227B00212046FFF765FDD7
:109A5000627B00212046FFF760FDA27B00212046AB
:109A6000FFF75BFD2B463A4600212046FFF7A3FD9A
:109A70002A1DD2B222212046FFF74FFD2046FFF7D4
:109A8000ABFFC7E710B5044680F8252072B181F31B
:109A9000040242F07002D2B20921FFF73EFD2046D7
:109AA0000422BDE810404D21FFF737BDBDE810404E
:109AB000FFF70ABE38B50C4605460A781D21FFF7A8
:109AC0002CFD62781E212846FFF727FDA278284644
:109AD0002621BDE83840FFF720BD0000052913B559
