:02000002B0004C
:1040000000400B00DC5C0C00000006000D00050207
:084010000401A60F00000000EE
:0440180070350C00F3
:1040200009480A49884208B505D0094A824202D0A7
:10403000121A0DF095F80748074A0021121A0DF0E0
:10404000B7F8014808BD00BF8CD50320C8590C0043
:1040500074D8032078D80320F4E7032070B5074E06
:10406000074C0CF057F9A41BA4080025AC4200D162
:1040700070BD56F8043B98470135F7E754590C00DA
:1040800098590C0001F0D4BC08B501F0D9FDBDE889
:1040900008400CF0F7B809F0B9B809F0B7B809F062
:1040A000BDB8000008B5034A03490C2008F03AFFE8
:1040B000FEE700BFC5CA0B0084350C000078B0FADB
:1040C00080F040097047012303707047704710B5B6
:1040D00004210446FFF7E3FF204610BD10B5034B53
:1040E0000360044604F0CEFB204610BD103C0C00DB
:1040F00010B50446FFF7F2FF204640F24C71FFF77F
:10410000CEFF204610BD37B51D4601AB044604F076
:104110009BFD20B101992A46204604F0ABFC03B078
:1041200030BD37B51D4601AB044604F08DFD20B10E
:1041300001992A46204604F069FD03B030BD0EB453
:1041400000B58CB00DAA4FF0200C52F8041B03925E
:10415000CDE900120023016804AA1E20CDE904C3A2
:1041600008F0F0FE0CB05DF804EB03B070470000FF
:1041700010B5064C236833B90420FFF78CFF08B153
:10418000034B03602060206810BD00BF7CD8032073
:10419000203C0C007047000010B5064CC0B00DF17B
:1041A000030201A9204607F047FC0028F7D140B0E0
:1041B00010BD00BFFCD80320014807F02ABC00BF97
:1041C000FCD80320134B10B51C88002120460CF0AE
:1041D0003AF90A2009F09AF8012120460CF033F947
:1041E0000A2009F093F80C4807F0B1F9044628B901
:1041F0000A490B48FFF7A3FF204610BD9FED090AAF
:10420000094807F09DFC08480022172107F012FE1C
:10421000F2E700BF1C470C0078E1032099350C0041
:1042200058E6032000C06444FCD8032010B50C46B7
:1042300086B0FFF7C7FF74B302F0D4F8002102F094
:10424000C1FA02A808F04AFF029A30493048FFF745
:1042500076FF02A80BF034FB02F0B8F9014602A881
:1042600002F0ECF90299019108460DF06CF8019901
:104270000246284804F041FB02A80BF021FB254828
:1042800005F094F800283BD023492148FFF757FF59
:10429000012006B010BD02F0A5F802F02BFAD8B14B
:1042A00002F0A0F802F026FA0A2815D802F09AF8CF
:1042B00002F020FA0146194806F075FC174806F08E
:1042C00058FC019002A808F009FFDDE90123144918
:1042D0000F48FFF734FFBCE702F084F80B2102F02F
:1042E00071FA0B210D4806F05EFC0C4806F041FC0B
:1042F000019002A808F0F2FEDDE901230949E7E791
:1043000002F064F902F0B2F90749BEE7A5350C00E6
:1043100058E603202CDA03205D360C007CE10320F4
:10432000DF350C0016360C0071360C0038B5244C05
:1043300002F0B6F8B4F8031049BA89B202F097FB5C
:1043400002F0AEF8B4F8051049BA89B202F095FB54
:1043500002F0A6F8E17902F095FA02F0A1F8217ACC
:1043600002F06CFA02F09CF80546607A0CF0C6FA8E
:1043700041EC100B284602F0EBF802F091F8A17A1C
:1043800002F062FA02F08CF8E17A02F063FA02F0CD
:1043900087F8217B02F064FA02F082F8617B02F078
:1043A00065FA02F07DF80446064806F07AFC81B210
:1043B000204602F056FB044B04221A70012038BD3F
:1043C00080D80320FCD8032078D8032010B502F051
:1043D00067F80E4B997802F04FFA02F061F8044644
:1043E0000BF021FE0246C317204602F09AFB02F0B2
:1043F00057F80446064806F054FC81B2204602F005
:1044000030FB044B06221A70012010BD80D8032017
:10441000FCD8032078D8032030B50A2A87B0044698
:10442000154605D918490BF096FA204607B030BD5D
:10443000164902A80BF08FFA154804F0A0FA154AA5
:10444000014601AB124804F0FFFB019910486A1EB7
:1044500004F0B7FA014638B90B4920460BF07BFA55
:1044600002A80BF02DFAE0E709480B4A02ABFFF770
:1044700058FE002102A80BF034FB0028ECD102A961
:1044800020460BF099FAEBE799360C0070530C00BC
:104490002CDA03209E360C00A4360C0013B50A4615
:1044A0000C461B481B49FFF74AFE0A2C03DD01F0AE
:1044B000F7FF02F06AF9184804F061FA174A01465A
:1044C00001AB154804F0C0FB01991348621E04F0CB
:1044D00078FA014670B901F0E3FF02F056F910498D
:1044E00002460B48FFF72BFE01F0DAFF02F04DF910
:1044F00002B010BD0B4A08486B46FFF704FE0448A3
:10450000009A0949FFF71BFE9DF80000F0E700BF85
:1045100058E60320A8360C002CDA03209E360C0047
:10452000CF360C000B370C0010370C000A2913B5DE
:104530000C4613DC0F4804F022FA0F4A014601AB87
:104540000C4804F081FB01990A48621E04F039FA14
:10455000014628B909490A48FFF7F1FDFF2006E0A6
:104560000448084A6B46FFF7CEFD9DF8000002B0F4
:1045700010BD00BF2CDA03209E360C0029370C003A
:1045800058E6032057370C002DE9F743074601F0A2
:1045900029FF02F094F904461F48DFF87C80DFF819
:1045A000949004F0ECF901AB01461C4A1A4804F05F
:1045B0004BFB3C236343DE17DC1876410025019951
:1045C0002A46404604F0FDF9014680B16B464A4652
:1045D0004046FFF798FD0BF026FD009BC31ADA1743
:1045E000A34272EB060314DB01350A2DE7D10C4A16
:1045F00000240C490C48FFF7A2FD34B90A480B49C6
:10460000FFF79DFD3846FFF7DDFD204603B0BDE80E
:10461000F083074A0124ECE72CDA03209E360C00D5
:104620005C370C006B370C0058E6032084370C0015
:104630005E370C0066370C0038B5046805467CB15F
:104640006368013B63605BB9236820469B689847B9
:10465000A368013BA3601BB923682046DB68984729
:10466000284638BDF0B55E495E4CA9B006465E48A6
:10467000FFF765FD01F0B6FE02F01CF9000A20709C
:1046800001F0B0FE02F016F960700BF0CCFC0016E1
:10469000A0700BF0C8FC0014E0700BF0C4FC00121A
:1046A00020710BF0C0FC607101F09CFE02F007F974
:1046B000000AA07101F096FE02F001F90025E071F8
:1046C000257201F0EDFE02F038F8607201F0E8FEAC
:1046D00002F033F801463046FFF7E0FEA07201F029
:1046E00075FF03680121DB68984701F0D9FE036874
:1046F0000121DB6898473D4B1F88012138460BF0AC
:10470000A2FE01F0CDFE02F01DF805900BF0FAFAC2
:10471000059A374903463448FFF711FD01F0C0FE02
:1047200002F010F802220346009232480B22214682
:1047300006F0D2FC0646002842D101F0B1FE054643
:1047400001F0AEFE01F0F9FF0146284602F070F8D4
:10475000314638460BF077FE01F0A2FE01F0F2FF81
:10476000A17A254A254C0590002918BF144601F06E
:1047700097FE02F005F80546214806F092FA059BDF
:10478000204A0094CDE90150802108A808F066FD78
:10479000154808A9FFF7D3FC08F098FC0546E8B1D6
:1047A000194B1A491B788DF8003006A83C2308AA3B
:1047B00009F078F807A8FFF73FFF284629B0F0BDB9
:1047C00001F06EFE01F0BEFF114902460648FFF7F8
:1047D000B6FC294638460BF036FEEEE70125ECE73D
:1047E000BF370C0080D8032058E6032014470C0084
:1047F000D8370C0078E10320B8370C00B4370C0030
:10480000FCD8032006380C0079D8032055380C005A
:104810005C380C002DE9F047B8B00F460EA84149AE
:10482000414DDFF82C81DFF82C910BF094F83E48D5
:1048300004F0A5F83D4A01460DAB3B4804F004FAEC
:1048400000260D993246284604F0BBF8044600289D
:1048500062D001460EAB42462846FFF762FC08AB29
:104860004A4621462846FFF74EFC314A09AB21460D
:104870002846FFF748FC2F4A0AAB21462846FFF797
:1048800042FC2D4A12AB2146284604F0DDF920B146
:1048900012990BAA284604F0FFF82146274A0CABD0
:1048A0002846FFF730FC099A089CDDF838A0D3179A
:1048B00012A80BF0B3FA0C9B0B9806930CF040F87F
:1048C0000A9B0293129B1E4ACDE90401CDE900A385
:1048D0008821234616A808F0C1FC12A80AF0F0FFB0
:1048E000184816A9FFF72BFC08F0F0FB88B187B138
:1048F000154B16491B788DF8003016AA3C2312A8D8
:1049000008F0D0FF13A8FFF797FE4FF47A7008F075
:10491000FDFC01360A2E94D10EA80AF0D1FF38B062
:10492000BDE8F08770530C002CDA03209E360C0093
:1049300066370C000B370C0088380C0057370C001A
:104940008D380C0058E6032079D80320E4380C0099
:10495000A4360C0083380C0037B504461546019187
:1049600004F096FA01990122204604F0FFF920464E
:104970003A2104F0AFF904492A46204603B0BDE8C5
:10498000304004F0E6B900BF16390C0013B5114BE6
:10499000114C01221A703223009304F12C0104F20D
:1049A0002C434FF48062204603F0CEFF0B4B236074
:1049B0000B4A0C4C0C490D4B12780978204607F035
:1049C00081F80B480022214602B0BDE8104006F0F5
:1049D00079BB00BF79D803202CDA0320103C0C00EF
:1049E0001A470C00FCD8032018470C00ECE4032005
:1049F00078E103202DE9F04796B00E4602A856490B
:104A0000DFF85881DFF86CA10AF0A5FF534803F0E6
:104A1000B6FF534A014601AB504804F015F9002592
:104A200001992A46404603F0CCFF6C1C0746A1467C
:104A3000002870D14B494C482A46FFF780FB474974
:104A400006A804F069FA3346224648494648FFF76B
:104A500076FB424803F088FF014606A804F097FA67
:104A60007D227B2106A804F01EFA2246404906A8B2
:104A7000FFF772FF06A804F00BFA012206A83D49D1
:104A800004F074F906A83A2104F024F93146012211
:104A900006A804F06BF90BF0C6FA054606A804F068
:104AA000F7F9012206A8344904F060F906A83A2172
:104AB00004F010F92A4606A8304904F04AF93049B2
:104AC000032206A8FFF748FF06A804F0E1F9012237
:104AD00006A82C4904F04AF93A2106A804F0FAF88D
:104AE0009FED290A06A804F0F7F90022274906A835
:104AF000FFF732FF06A804F0FBF806A804F0A3FCB9
:104B000001F064FDD8F8041001F0AAFD06A8E4B293
:104B100003F0A4FE12E0014602AB40465246FFF706
:104B200000FB314602A80AF0DCFF70B1104A0B48C6
:104B30006B463946FFF7E7FA9DF8004002A80AF0F5
:104B4000BFFE204616B0BDE8F087AC1C4D460A2DCE
:104B50007FF466AF73E700BF70530C002CDA0320BC
:104B60009E360C00ED380C0058E6032019390C0075
:104B700083380C00A4360C0066370C003C4B0C004C
:104B80000B370C0088380C000000000057370C0071
:104B900070B52DED028B0A2994B00E46B0EE408A16
:104BA00055DC2C4D284603F0EAFE2B4A014602ABA9
:104BB000284604F049F80299721E284603F001FFC6
:104BC0000446002843D001AB0146244A2846FFF79B
:104BD0009AFA019B9E4236D103AB214A21462846D0
:104BE00004F032F8294604A804F096F9039904A8C1
:104BF00004F0A4F90BF017FA1A49024604A804F0CD
:104C0000A8F804A804F01FFC174A03AB2146284665
:104C100004F01AF8039904A804F090F9B0EE480AD9
:104C200004A804F059F904A804F00DFC01F0CEFC2E
:104C3000696801F015FD04A803F010FE012014B00E
:104C4000BDEC028B70BD09490948FFF778FA0020D6
:104C5000F5E700BF2CDA03209E360C0083380C00E9
:104C600066370C0016390C0088380C004D390C00E2
:104C700058E6032070B50A2994B00C4616463DDC70
:104C80001F4D284603F07BFE1E4A014602AB284614
:104C900003F0DAFF621E0299284603F092FE0446F2
:104CA00060B30146184A01AB2846FFF72CFA019A77
:104CB000164917483346FFF742FA03AB124A21461A
:104CC000284603F0C1FF294604A804F025F90399FA
:104CD00004A804F033F932460E4904A804F039F868
:104CE00004A804F0B0FB01F071FC696801F0B8FCA5
:104CF00004A803F0B3FD012014B070BD0020FBE751
:104D00002CDA03209E360C000B370C0061390C00A6
:104D100058E6032016390C00F0B53C4B02221A70FD
:104D200091B03B4A09AC054602F1180327461068CA
:104D30005168264603C608329A423446F7D11378A2
:104D4000337001F0ADFB044601F0AAFB01F0F5FC65
:104D5000304E0146204601F06BFD01F0A1FBF17ED3
:104D600001F090FD01F09CFB01F0E7FC0A2830D92E
:104D700001F096FB394604462846FFF73BFE014604
:104D8000204601F04FFD01F08BFB01F0DBFC0390AE
:104D900001F086FB01F0D1FC039A00901E491F48E8
:104DA0003B46FFF7CCF901F07BFB012101F064FDEC
:104DB00001F076FB01F0C1FC039001F071FB01F002
:104DC000E4FC039902462846FFF754FF012011B086
:104DD000F0BD01F065FB01F0B0FC0446FFF7C8F937
:104DE000039001F05DFB01F0A8FC0399024605A8C1
:104DF000FFF712FBF37E00930949059B0748224603
:104E0000FFF79DF905A80AF05BFDCCE778D80320F1
:104E100082D8032080D8032084390C0058E6032070
:104E2000BF390C0070B50A2994B00C4616463DDC1B
:104E30001F4D284603F0A3FD1E4A014602AB28463B
:104E400003F002FF621E0299284603F0BAFD0446F1
:104E500060B30146184A01AB2846FFF754F9019A9E
:104E6000164917483346FFF76AF903AB124A214641
:104E7000284603F0E9FE294604A804F04DF80399FA
:104E800004A804F05BF832460E4904A803F061FF61
:104E900004A804F0D8FA01F099FB696801F0E0FB7E
:104EA00004A803F0DBFC012014B070BD0020FBE778
:104EB0002CDA03209E360C0057370C00FF390C000B
:104EC00058E6032016390C00F0B52DED028BA9B081
:104ED000054601F0E5FA01F049FC002800F0F380F6
:104EE00001F0DEFA01F047FC044601F0D9FA01F0C6
:104EF0003DFC08EE100A20460BF010FDA34B0022EB
:104F00000BF0C0FBF8EE487A064617EE900A0F4603
:104F10000BF016FD02460B46304639460BF092FE6A
:104F20009B4B00220BF064FD0CF05AF808EE100ABF
:104F30000BF079F8974C0016A0700BF074F8001481
:104F4000E0700BF070F8001220710BF06CF86071DB
:104F500001F048FA01F0B3FC000AA07101F042FA36
:104F600001F0ADFCE07101F09BFA01F0E6FB0146B7
:104F70002846FFF7DBFA072840F0A88001F090FAF6
:104F800001F0DBFB01462846FFF788FA064601F0F0
:104F900087FA01F0FAFB334602467F497F48FFF764
:104FA000CEF801F07DFA314601F06CFC01F078FAA0
:104FB00001F0C3FB002201462846FFF733FF66726B
:104FC00001F06EFA01F0B9FBB0EE480A014628463E
:104FD000FFF7DEFD00287FD101F062FA01F0ADFBA2
:104FE0006F4902466D48FFF7AAF801F059FA01210E
:104FF00001F042FC01F054FA05460BF014F8C31717
:105000000246284601F08DFD0123237201F048FA83
:1050100001F0FAFDA07201F043FA01F0A7FBE07283
:1050200001F0D4FA03680121DB68984701F038FAEF
:1050300003680121DB6898475A4B1D8801212846E7
:105040000BF001FA01F02CFA01F077FB0422514930
:10505000009203460C22544806F03EF80146002810
:1050600040F0828028460BF0EEF901F019FA01F0C9
:1050700064FB05904D48A57A247A05F012FE059B45
:105080004B4A0095CDE90140802108A808F0E6F8D8
:10509000424808A9FFF753F808F018F8044600281A
:1050A00071D0444B44491B788DF8003006A83C234E
:1050B00008AA08F0F7FB07A8FFF7BEFA204629B0B8
:1050C000BDEC028BF0BD9FED3D8A31E701F0E8F9C0
:1050D00001F05BFB607273E701F0E2F901F02DFB78
:1050E00001462846FFF722FA0646B0B301F0D8F988
:1050F000064601F0D5F901F020FB01462846FFF7EE
:1051000015FA0146304601F0B7FB01F0C9F901F08C
:1051100014FB059001F0C4F901F032FB2849059A0F
:1051200003461E48FFF70BF801F0BAF906460AF0ED
:105130007AFF0246C317304601F0F3FC01F0B0F9E4
:1051400001F01EFB207201F0ABF901F0F6FA00222B
:1051500001462846FFF766FE58E7207201F0A0F9E5
:10516000314601F089FB51E701F09AF901F0E5FAC7
:10517000144902460948FEF7E2FF002128460BF0D9
:1051800062F900249AE7012498E700BF0000F03F8D
:105190000000594080D80320243A0C0058E6032030
:1051A000583A0C0014470C0078E10320FCD8032087
:1051B000A33A0C0079D8032055380C0000000000F9
:1051C000843A0C00ED3A0C0073B5054601F00AF97B
:1051D00001F070FB434C000A207001F003F901F06C
:1051E00069FB60700AF01FFF0016A0700AF01BFF39
:1051F0000014E0700AF017FF001220710AF013FF8C
:10520000607101F0EFF801F05AFB000AA07101F0A3
:10521000E9F801F054FBE07101F042F9064601F0B3
:105220003FF901F08AFA01462846FFF77FF9014667
:10523000304601F021FB01F033F906460AF0F3FE97
:10524000C3170246304601F06CFC01F029F901F069
:1052500097FA207201F024F901F06FFA002201465A
:105260002846FFF7DFFD01F0B1F903680121DB6893
:10527000984701F015F903680121DB6898471A4B3C
:105280001D88012128460BF0DEF801F009F901F034
:1052900054FA06220346009221461448092205F0DA
:1052A0001BFF044678B901F0FBF801F046FA1049FB
:1052B00002461048FEF743FF284621460BF0C3F88C
:1052C000012002B070BD01F0EBF801F036FA0A4996
:1052D00002460848FEF733FF284600210BF0B3F8DA
:1052E0000020EEE780D8032014470C0078E103206B
:1052F0001B3B0C0058E60320363B0C0010B50F4C4E
:105300002378042B0CD02378022B04D1FEF730FF36
:10531000FFF7A8F950B92378062B09D0002006E042
:10532000FEF726FFFFF7D0FD0028ECD0012010BDCE
:10533000FEF71EFFBDE81040FFF746BF78D80320F8
:1053400070B588B079238DF81A300DF11F030393DF
:105350000DF11E03474E02930DF11D03019307ABA0
:10536000009345480DF11B030DF11A02314605F07B
:10537000E7FE10B9002008B070BD9DF81A30002477
:10538000F454358801F02EF801F094FA6DBAADB2FC
:10539000A84214D001F084F801F0CFF933880590C9
:1053A0005BBA9BB2049301F01DF801F083FADDE9CA
:1053B0000432009031493248FEF7C1FEDAE701F0CD
:1053C0006FF89DF81B102F4C01F02CFA9DF81E3041
:1053D00003F00F03237001F063F801F0AEF92178B8
:1053E000294B059003EB01132848049305F059FC61
:1053F000DDE90432009026492148FEF7A0FE23781B
:10540000032B28D1FEF7B4FEFEF790FF0028B1D0A1
:1054100000F0E8FF01F0B2FAC0B100F0E3FF04468B
:1054200000F0E0FF01F0AAFA0146204601F00DFB72
:1054300000F0D8FF002101F00EFB00F0D3FF01F0D7
:105440003EFA144902460E48FEF779FEFEF790FE3A
:10545000FFF754FF8FE7012B04D1FEF789FEFFF71A
:105460005BFCD3E7052BD3D1FEF782FEFEF7AEFF40
:10547000CCE700BF80D8032078E10320583B0C0024
:1054800058E6032078D803208CD50320FCD80320CD
:10549000B23B0C00D23B0C00014B1A60704700BFBE
:1054A000FCD50320014B01221A7070476BE40320E6
:1054B00030B585B00446089860B1406850B1856841
:1054C00045B1CDE90241CDE90023C46801AB6A468C
:1054D00002A9A04705B030BD30B585B0006813689B
:1054E0000193D1E900458368CDE902450BB90BF082
:1054F000B5F8C36801AA02A9984705B030BD012AD2
:1055000002D1016000207047022A04BF0B680360CB
:10551000F8E703681268D1E90001184708B50020D0
:1055200007F0F4FD28B107F0D1FD80F00100C0B212
:1055300008BD0120FCE710B58368044613B10322BF
:1055400001469847204610BD10B5044638B1FFF714
:10555000F2FF20461021BDE81040FEF7A0BD10BDAF
:1055600070B5144C144D2378144E022BC2B017D1D1
:105570000AF03CFDA0B92278337805EB02120092C4
:105580000F4A05EB03134FF4807102A807F066FE83
:1055900023780C48337002A9FEF7D1FD42B070BDEC
:1055A0002278337805EB0212009205EB0313064ACA
:1055B000E9E700BF6AE4032000D6032069E4032082
:1055C000283C0C0058E60320483C0C0010B500F0C5
:1055D00009FF01F074F904460AF008FD08B90A2031
:1055E00010BD3C2044430AF01EFDB0FBF4F303FB66
:1055F0001400201A0928F2D9A04228BF2046EFE75C
:105600002DE9F04F2DED028BE7B01EAC814B2360EE
:10561000814B6360814BA360814BE360814B2361CD
:10562000814B63614FF0000A804BC4F81CA0A3615A
:105630000546002800F09D8000F032FF01F09BF845
:10564000804600F02DFF01F091F81990FEF790FDD3
:105650002A4601461AA8FEF7DFFEDDF868B000F022
:105660001FFF01F095F9149000F01AFF01F0C4F942
:10567000159000F015FF01F088F8169000F010FF6B
:1056800000F046FFB0EE408AF0EE608A00F008FFBE
:1056900001F062F854F82030139300F001FF01F09C
:1056A00056F8179000F0FCFE01F05BF8189000F03F
:1056B000F7FE01F065F8044600F0F2FE01F03DF857
:1056C000054600F0EDFE01F05EF9064600F0E8FE4A
:1056D00001F04CF807460AF0A6FC109040460BF08B
:1056E0001DF9199B8046184689460BF017F90246AA
:1056F0000B46404649460BF0A5FA4D4B00220BF0F5
:1057000077F90BF06DFC0BF01BF9189B0893179BB6
:105710000793139B0693169B0293159B0193149B6F
:10572000444A0093CDE90E015B464FF480718DED44
:10573000048B26A8CDE90945CDE90B6707F08EFD5E
:105740001AA80AF0BDF804F087FD3B4B3B4A1B78D2
:1057500012783B49134302688DF800308DF804A09D
:1057600014683C2326AAA04767B0BDEC028BBDE8B5
:10577000F08F02F083F81AA807F0B0FC1A9B13937D
:1057800000F030FE00F0D4FF064600F089FE00F085
:10579000BFFEB0EE408AF0EE608A00F081FE00F0BD
:1057A000DBFF54F8209000F07BFE00F0D0FF0446B1
:1057B00000F018FE00F0A8FF074600F013FE00F00E
:1057C000A8FF80460AF02FFC139B1E4ACDF81890C4
:1057D0004FF48071CDE90980CDE907478DED048B49
:1057E000CDE90156009526A807F038FD1AA80AF061
:1057F00067F804F031FD104B104A1B7812781249FB
:10580000134302688DF800308DF8045014683C236F
:1058100026AAA8E7563C0C005E3C0C00623C0C003B
:105820006B3C0C00733C0C007F3C0C00853C0C0076
:1058300000005940913C0C002CE303202DE3032091
:10584000543D0C00693D0C00F73D0C0038B50023B9
:1058500083608B6804460D462BB102229847EB68A3
:10586000E360AB68A360204638BD00002DE9F0433B
:1058700095B005461C9904A890461F460CAEFFF74C
:10588000E5FF04A908A8FFF7E1FF08A93046FFF7E4
:10589000DDFF4FF000091020CDF84890FEF7FBFB2C
:1058A0000446A0B196E8030001AB83E8030094E846
:1058B000030086E8030093E803000E9BE268A36000
:1058C00084E803000F9BCDF838900F92E360244BDF
:1058D0001393244B1293002200234FF00009C5E9D3
:1058E0000023214BC5F8089010201094CDE9013910
:1058F000CDF80C90FEF7CFFB0446D8B1129BC0F850
:10590000089033B1022210A99847139BE360129BC1
:10591000A360164B0393164A029401AB40463946E6
:1059200007F05AFBB0B12046FFF705FE10212046D4
:10593000FEF7B5FB10A8FFF7FEFD3046FFF7FBFDB5
:1059400008A8FFF7F8FD04A8FFF7F5FD284615B0F5
:10595000BDE8F083029BAB60C5E90087EAE700BFC2
:10596000D9540B0075590B0002000C0049550B006F
:10597000B1540B00012A37B5044604D10B6803600B
:10598000002003B030BD022A0CD0032AF8D10468ED
:10599000002CF5D02046FFF7CEFD10212046FEF763
:1059A0007EFBEDE7096801911020FEF774FB0546C8
:1059B00010B10199FFF74AFF2560E1E7164B10B5DA
:1059C00001241C70154B08221A700AF0D5FC002324
:1059D0001A4619460AF0E0FC0AF0CEFC00231A46EB
:1059E0000D210AF0D1FC0E4B1A1D1A600D4A5A60A7
:1059F0000022C3E902221A611C750AF09DFD69228A
:105A00000146094801F09AFF0848062340F8043B84
:105A1000BDE8104003F0D8BE2CE303202DE30320A3
:105A200060E303201000030040E3032078E3032039
:105A3000F0B500209DB007F05DF842F21075044605
:105A4000002007F057F8001B61F10001A84271F136
:105A5000000307D20AF0CEFB0AF0C1FB10B907F031
:105A600025FBEDE70AF0C6FB0AF0B9FB01F0B6FD35
:105A700001F0E8FD00F0B6FC03685F4E1B685F4F65
:105A8000984700F00DFD03681B68984700F09EFDE5
:105A900003681B68984701F0DDF901F0EDF9082370
:105AA00001213046738102F045FC7C21304602F032
:105AB00043F8534B0693534B099306AD524B08934F
:105AC0004FF48022002302A80095FFF7CFFE28465E
:105AD000FFF731FD04F0C0FB04F0C4FDFEF748FB06
:105AE0000121FEF7A3FB04F04FF84849044628467D
:105AF00003F01CFF07A904F1080009F068FF0C9BE4
:105B0000E3610DA904F1200009F061FF129B6363BA
:105B1000149BE363169B6364189BE3641A9B6365A1
:105B20009DF86C3084F85830284603F0BBFC0AF02E
:105B30007AFAC317C7E91803384604F09DF80AF04B
:105B400055FA334C002846D03946324A284603F0ED
:105B50007DFF01231A4610213046069F02F06DF8A2
:105B60002D492E4B3A46002818BF0B462C482D498C
:105B7000FEF7E5FA284609F0A3FE2B4B1E883046B7
:105B80000AF07AFC054668BB28492548FEF7D7FA93
:105B900000F028FC012100F021FE254B1F88012187
:105BA00038460AF050FC4FF4FA6007F0AFFB294684
:105BB00038460AF048FC0523237000224FF0FF33DB
:105BC0001C490092304608F021F923780BB90223D2
:105BD00023701DB0F0BD18491148FEF7B0FA052337
:105BE0002370CAE715490E48FEF7A9FA00F0FAFB40
:105BF000002100F0F3FDE0E740E3032078E3032019
:105C000099540B0013550B00FF540B00193E0C0068
:105C10006AE40320403E0C000F3E0C00123E0C00D4
:105C200058E603204B3E0C0016470C00BA3E0C0011
:105C300014470C00A5540B007C3E0C00DE3E0C000B
:105C40002DE9F043874D2B78013B91B0062B1DD8F1
:105C5000DFE813F0B60207004500260102027102D8
:105C6000E401814B1B78022B01D0FFF779FC7F4CBC
:105C700023781BB100232370042306E000F0B2FB5D
:105C800000F03DFD0128F5D003232B70784802F089
:105C9000FFFA04F0E1FA04F0D1F900F0A3FB00F000
:105CA000D5FB00F0FDFB00F02FFC00F08FFC00F0B6
:105CB000C3FCFEF75DFAFEF76DFA6E4B1B68002B16
:105CC000C0F2B2826C496D48FEF739FA4FF4FA60BF
:105CD00007F01CFB11B0BDE8F04309F0B0BF624B08
:105CE0001B78032B01D0FFF73BFC00216048644F79
:105CF000644C01F021FFFFF769FC80460AF093F93C
:105D000000EB0802D3176049009708A80AF02CF9A5
:105D1000089B029309F0F6FF029B5C490090424603
:105D20005648FEF70CFA08A809F0CAFD237D002B9F
:105D300050D002232372564BB3F800902368DB68DF
:105D4000F3B19A88012A06D09B68F9E79B68BBB13A
:105D50009A88012AFAD19A894A45F7D100229A7382
:105D6000237D002B36D023684FF47A70DB6800FB6C
:105D700008F8DBB19A88042A00F051829B68F8E7A2
:105D8000444910200AF060FC0646002800F04A82D0
:105D9000102200210BF00CFA3F4B33600123B3803B
:105DA0002369B360A6F80C902661D9E73949102021
:105DB0000AF04AFC0646002800F034821022002136
:105DC0000BF0F6F9344B33600423B380236926616A
:105DD000C6E902382B4905A809F034FF4FF0FF311E
:105DE000234801F0A9FE002006F084FE42F210765E
:105DF0000446002006F07EFE001B61F10001B04267
:105E000071F1000307D20AF0F5F90AF0E8F910B9C8
:105E100007F04CF9EDE70AF0EDF90AF0E0F902239A
:105E20002B70124B01221A700AF0FDF816490097E8
:105E3000C317024608A80AF097F8089A029209F0D8
:105E400061FF029A154903460C48FEF778F908A845
:105E500009F036FD059800283FF418AF07F0DEF989
:105E600014E700BF6AE4032069E4032068E4032028
:105E700040E30320FCD5032015400C0058E6032026
:105E8000083F0C0060E30320ACE603200B3F0C004E
:105E900016470C00F4540C00100003004B3F0C009C
:105EA000B74BB84F1B78042B62D0072B02D006F0FB
:105EB00011FE3860FFF754FBFEF75AF9FEF76CF954
:105EC0000AF0B1F8B04CC317C4E91803204603F038
:105ED000D3FE04F1680105A803F060FD9DF9186088
:105EE00000F080FA00F01AFC8642C0F28F8004F1C4
:105EF000680108A803F052FD9DF9246000F072FAD1
:105F000000F011FC864208A8CCBF0026012603F051
:105F1000B9FA05A803F0B6FA002E79D000F0C0FA5D
:105F2000012100F0EFFE00F0BBFA00F06DFE974B90
:105F3000974A9849002808BF1A4608A8039203F018
:105F40002DFD9DF92430029300F04CFA00F0E6FBA1
:105F5000044600F047FA00F0E6FBDDE90232CDE945
:105F600000408D498D48FEF7EAF808A803F08AFA48
:105F7000FEF7FEF8FFF7E4F9D8B100F091FA00F06F
:105F8000FFFB029000F08CFA00F03EFE029A84497A
:105F900003468248FEF7D3F800F082FA00F0F0FBE7
:105FA000012806D000F07CFA00F02EFE08B107238D
:105FB0002B7006F08FFD3B68C01A7A4B98427FF633
:105FC00065AEFEF7D5F8FEF7DFFAFEF7D1F8FEF77B
:105FD000F3F8FEF7CDF80021FEF71CFC00F0F6FA0E
:105FE00003680121DB6898470AF02EF8044600F0A8
:105FF000F9F900F05FFD09F0EDFE844204D000F0F5
:106000004FFA00F001FE38B902233EE6002680E791
:1060100000F046FA314684E7052336E6584B1B78F4
:10602000072B01D0FFF79CFA00F03AFA00F085FB4D
:10603000FFF7E6FA00F034FA002100F01DFC00F052
:10604000D1F9044600F0CEF900F063FB0130C1B293
:10605000204600F0CFFB0FE6494B534C1B78052B35
:1060600027D0FFF77DFA00F0BDF900F023FD09F01D
:10607000B9FE4849064608A803F0ADFC9DF8233058
:10608000B6EBD30F07D000F00BFA00F04FFD4749F5
:106090004248FEF754F800F0A5F900F02BFBFFF79B
:1060A000AFFA07F013F808B907F008F806F012FD88
:1060B000206007F00BF838B300F094F9064609F0B9
:1060C000B2FF0246C317304600F01CFD00F08AF90B
:1060D000064606F0FFFC2168411A4FF47A70B1FBC6
:1060E000F0F1304689B200F0AAFC06F0EFFFC8B12B
:1060F00006F0ECFF10B1002007F000F8FFF70EFAF1
:1061000050B906F0D3FFF9E706F0E4FC2368C01AA3
:10611000274B9842D0D8B9E5FFF700FA254908A8DF
:1061200007F06EF900F05EF900F0E9FA01283FF49B
:10613000A3AD0623A9E5124B1F4C1B78062B04D0F8
:10614000FFF70EFA06F0C6FC206006F0C3FC2368D9
:10615000C01A1A4B98427FF699AD04F07DF890F87A
:10616000B330002B3FF492AD00F03CF900F0C7FAD9
:1061700000287FF449AF00F06DFE01F097F943E786
:1061800069E4032034E3032078E30320013F0C009B
:10619000FC3E0C00E0E303206C3F0C0058E60320BB
:1061A000B53F0C00F049020038E30320DF3F0C004C
:1061B000C027090014E603203CE30320905F0100A0
:1061C0001B4C1C4E2378BFF35B8F13F0010F09D1DA
:1061D0002046FDF773FF28B106F07CFC30602046B6
:1061E000FDF771FF144B2A781B789A4201D0FFF714
:1061F000B7F906F06FFC3368C01A47F23053984283
:106200007FF644AD0D490E48FDF799FF4FF4FA6053
:1062100007F07CF81E210B4801F0E8FD36E5C3F8D5
:106220000C80D7E52675D5E511B0BDE8F08300BF39
:1062300028E3032030E3032069E40320FE3F0C0041
:1062400058E6032040E3032010B5034B03600446E7
:1062500003F0C0FD204610BD20420C0010B50446DE
:10626000FFF7F2FF20461021FDF719FF204610BD71
:1062700010B506F023FB054B054A0649041E08BF6E
:106280001A460548FDF75BFF204610BD31400C0063
:1062900035400C003B400C0058E6032010B5036865
:1062A00004460BB906F0C6FB2068BDE8104006F0B6
:1062B000D1BB38B504460430FFF7F0FF606AA16A2D
:1062C0000368DD68D4E90223A847606806F0CAFBCA
:1062D0002046BDE8384006F00DBA38B50446043013
:1062E000FFF7DCFF606AA16A03689D68D4E90223B6
:1062F000A847A2682368D1885B692046984718B9E7
:10630000236820469B699847606806F0ABFB012034
:1063100038BD000010B5044B03600446406808B166
:1063200006F090FB204610BDE8510C0010B5034B61
:1063300003600446FFF7EEFF204610BD68420C00E4
:1063400010B50446FFF7F2FF20467021FDF7A7FEC7
:10635000204610BD10B5034B03600446FFF7DAFF7B
:10636000204610BD94420C0010B50446FFF7F2FF22
:1063700020467821FDF793FE204610BD10B5034B53
:1063800003600446FFF7C6FF204610BD3C420C00E8
:1063900010B50446FFF7F2FF204640F23C41FDF7FE
:1063A0007EFE204610BD000000F1300181600A49E8
:1063B0004FF0400CC0E903C1012181824FF47A7192
:1063C000C16106490022C0E909124260826180F879
:1063D0002020034A02607047769EA92078E40320BB
:1063E00068420C0010B5064C23683BB97020FDF7DD
:1063F00052FE034608B1FFF7D7FF2360206810BDA7
:1064000070E4032010B5406A03F0FAFCFFF7EAFFDE
:106410004FF4FA720368C2615B689847FFF7E2FFC6
:10642000036840215B69984750B906490648FDF763
:1064300086FEFFF7D7FF0368BDE810409B69184749
:1064400010BD00BF4D400C0058E6032010B5FFF70B
:10645000C9FF0368BDE81040DB6800211847000051
:1064600000F13001002281600A4942604FF0480C7F
:10647000826180F82020084A4262C0E903C1642298
:106480000121818282624FF47A71044AC161026003
:10649000704700BF749EA92078E4032094420C004A
:1064A00010B5064C23683BB97820FDF7F4FD034690
:1064B00008B1FFF7D5FF2360206810BD74E4032006
:1064C00010B5406A03F09CFCFFF7EAFF4FF4FA7244
:1064D0000368C2615B689847FFF7E2FF03684821E1
:1064E0005B69984750B906490648FDF728FEFFF753
:1064F000D7FF0368BDE810409B69184710BD00BF77
:1065000079400C0058E603207047000000000000AE
:1065100010B504462DED028B0430FFF7BFFEE36893
:10652000083B172B0CD9A36893ED068B606806F027
:1065300099FAB0EE480AF0EE680ABDEC028B10BD85
:106540009FED018BF2E700BF00000000000000009B
:10655000F8B50446043057EC106BFFF79FFEE36874
:10656000083B172B0CD9A5683046D5E906233946D8
:106570000AF0A6FC20B9C5E90667204606F062F9D4
:106580006068BDE8F84006F06DBA000000F12C012B
:10659000002281600A4942604FF4826C826180F877
:1065A0002020084A4262C0E903C1C8220221818238
:1065B00082624FF47A71044AC1610260704700BF81
:1065C000609EA92078E403203C420C0010B5074CE3
:1065D000236843B940F23C40FDF75DFD034608B136
:1065E000FFF7D4FF2360206810BD00BF6CE40320D8
:1065F00010B5406A03F004FCFFF7E8FF4FF4FA72AD
:106600000368C2615B689847FFF7E0FF03684FF4D7
:1066100082615B69984750B905490648FDF78FFDCF
:10662000FFF7D4FF0368BDE810409B69184710BD11
:10663000A3400C0058E603207047000038B504461C
:106640000D46064909F087F923464FF48062102170
:10665000284606F085F8204638BD00BF70530C0070
:106660000B464FF48062102106F0F8B81FB50A49B6
:10667000684609F070F9FFF7A9FF0099FFF7F0FFEE
:10668000009A06490648FDF75AFD684609F018F9D0
:1066900005B05DF804FB00BFCC400C00D9400C00F5
:1066A00058E6032010B5044606F06EF9064907487F
:1066B000FDF745FDFFF78AFFFFF7D8FF2046BDE84D
:1066C000104006F0BFB800BFF7400C0058E60320AA
:1066D00038B5044604300D46FFF7E0FDE368606816
:1066E000013BAB4226BFA3685D5D002506F0BAF909
:1066F000284638BD08B51021FFF7EAFF08BD08B5E8
:106700001421FFF7E5FF08BD08B51521FFF7E0FFED
:1067100008BD08B51621FFF7DBFF08BD08B5382115
:10672000FFF7D6FF08BD08B53921FFF7D1FF08BD37
:1067300008B53B21FFF7CCFF08BD08B51021FFF7D6
:10674000C7FF08BD08B51121FFF7C2FF08BD08B596
:106750001221FFF7BDFF08BD08B52021FFF7B8FFE4
:1067600008BD08B52121FFF7B3FF08BD08B52421F6
:10677000FFF7AEFF08BD08B52521FFF7A9FF08BD4B
:1067800008B53421FFF7A4FF08BD08B54121FFF784
:106790009FFF08BD70B5044604300D461646FFF74E
:1067A0007DFDE368013BAB4207D3A3685A5DB2426B
:1067B00003D05E55204606F045F86068BDE870409D
:1067C00006F050B908B50A461021FFF7E3FF08BDEF
:1067D00008B50A461121FFF7DDFF08BD08B50A46D6
:1067E0001421FFF7D7FF08BD08B50A461521FFF7AA
:1067F000D1FF08BD08B50A461621FFF7CBFF08BD3B
:1068000008B50A462E21FFF7C5FF08BD08B50A46A0
:106810003821FFF7BFFF08BD08B50A463921FFF749
:10682000B9FF08BD08B50A461021FFF7B3FF08BD40
:1068300008B50A461121FFF7ADFF08BD08B50A46A5
:106840001221FFF7A7FF08BD08B50A462021FFF770
:10685000A1FF08BD08B50A462121FFF79BFF08BD2F
:1068600008B50A462421FFF795FF08BD08B50A467A
:106870002521FFF78FFF08BD08B50A463421FFF731
:1068800089FF08BD08B50A464121FFF783FF08BD0F
:1068900038B5044604300D46FFF700FDE368606834
:1068A000023BAB4226BFA3685D5B002506F0DAF829
:1068B000284638BD08B51221FFF7EAFF08BD08B524
:1068C0002A21FFF7E5FF08BD13B505F0F7FF0446E1
:1068D000A8B1FFF787FDFFF721FF0C2811D9FFF7BB
:1068E00081FDFFF71BFF0190FFF77CFDFFF71BFF0A
:1068F000019A1B4903461B48FDF721FC00241A4A54
:1069000016E0FFF76FFDFFF70EFF0B28E7D9FFF743
:1069100069FDFFF7D4FF90B1FFF764FDFFF7CFFFEC
:106920003C280CD8FFF75EFDFFF7E4FE88B90F4A5C
:106930000F490C48FDF703FC204602B010BDFFF7DD
:1069400051FDFFF7BCFF0B4902460648FDF7F7FB78
:10695000D4E7FFF747FDFFF7CDFE07490246F4E70E
:106960000F410C0058E6032031400C0035400C006C
:106970007F410C003B410C0060410C0008B52C210C
:10698000FFF786FF08BD08B52221FFF781FF08BD8C
:1069900008B53021FFF77CFF08BD000010B505F0F9
:1069A0008DFF0446A0B1FFF77BFDFFF7F1FFFFF776
:1069B00077FDFFF7EDFFB0F5806F10D9FFF770FDA1
:1069C000FFF7E6FF074902460748FDF7B8FB00243A
:1069D000064A07490448FDF7B2FB204610BD054AA8
:1069E000F7E700BF94410C0058E6032031400C004B
:1069F000BA410C0035400C0008B53221FFF748FFC2
:106A000008BD70B5044604300D461646FFF746FC37
:106A1000E368023BAB4207D3A3685A5BB24203D0A0
:106A20005E53204605F00EFF6068BDE8704006F03A
:106A300019B808B50A461221FFF7E3FF08BD08B5EB
:106A40000A462821FFF7DDFF08BD08B50A462A21BE
:106A5000FFF7D7FF08BD08B50A462C21FFF7D1FF85
:106A600008BD08B50A462221FFF7CBFF08BD08B5CF
:106A70000A463021FFF7C5FF08BD08B50A46322196
:106A8000FFF7BFFF08BDF8B5044604300D46FFF719
:106A900005FCE3686068083BAB4223BFA168491965
:106AA000D1E90067002638BF002705F0DBFF30463C
:106AB0003946F8BD08B52021FFF7E5FF08BDF8B558
:106AC000044604300D461E461746FFF7E7FBE36811
:106AD000083BAB420CD3A3685A1958595168B142CC
:106AE00008BFB84204D05F512046566005F0AAFEA8
:106AF0006068BDE8F84005F0B5BF08B51821FFF79C
:106B0000DEFF08BD08B52021FFF7D9FF08BD08B595
:106B10003021FFF7D4FF08BD08B52821FFF7CFFFCC
:106B200008BD08B53821FFF7CAFF08BD10B52149D7
:106B30002148FDF704FBFFF7B3FC0B21FFF772FEC2
:106B4000FFF7AEFC0021FFF773FEFFF7A9FC002161
:106B5000FFF792FEFFF7A4FC00220023FFF7E1FFFE
:106B6000FFF79EFC0021FFF788FFFFF799FC00214B
:106B7000FFF77DFFFFF794FC0021FFF771FEFFF7A1
:106B80008FFC0021FFF772FEFFF78AFC044609F034
:106B90004AFA0246C3172046FFF7BEFFFFF722FC62
:106BA0000021FFF721FEFFF71DFCBDE8104000218A
:106BB000FFF720BECD410C0058E6032010B5044677
:106BC00005F0E2FE05490648FDF7B9FA2046FFF751
:106BD000ADFF2046BDE8104005F034BEEE410C008C
:106BE00058E6032038B5044604300D46FFF756FB3F
:106BF000E3686068013BAB4226BFA3685D5D00258A
:106C000005F030FF284638BD08B54021FFF7EAFF00
:106C100008BD70B5044604300D461646FFF73EFB2E
:106C2000E368013BAB4207D3A3685A5DB24203D08D
:106C30005E55204605F006FE6068BDE8704005F030
:106C400011BF08B50A463A21FFF7E3FF08BD00006F
:106C500010B5044605F098FE28492948FDF76FFA5B
:106C6000FFF7C0FB0021FFF7ADFDFFF7BBFB0121E4
:106C7000FFF7AEFDFFF7B6FB46F6E131FFF7D9FEB1
:106C8000FFF7B0FB0021FFF7A9FDFFF7ABFB0021E9
:106C9000FFF7AAFDFFF7A6FB0021FFF7ABFDFFF70B
:106CA000A1FB00220023FFF728FFFFF79BFB3C21FD
:106CB000FFF7CBFEFFF796FB0021FFF7CCFEFFF7B7
:106CC00091FB0021FFF79CFDFFF78CFB00220023C6
:106CD000FFF71DFFFFF786FB0621FFF797FDFFF784
:106CE00081FB1621FFF798FDFFF77CFB0021FFF7E2
:106CF000A8FF2046BDE8104005F0A4BD07420C00E7
:106D000058E6032008B50A464021FFF782FF08BD78
:106D100010B509F011FC054C014600234FF4005258
:106D2000204603F063F8024B236010BD78E4032093
:106D300020420C007047006A0368DB681847704700
:106D400010B504210446FDF7AAF9204610BD000045
:106D500010B5034B0360044601F094FD204610BDBE
:106D6000C8460C0010B50446FFF7F2FF204640F677
:106D70002C11FDF794F9204610BD7FB502685368C9
:106D8000906814685E1000EB6305DB0748BF835909
:106D9000684648BF1C5908F00FFE69462846A047C0
:106DA0000446684608F08CFD204604B070BD012AF8
:106DB00038B5044602D10B68236003E0022A03D0F1
:106DC000032A0DD0002038BD0C200D68FDF763F9B3
:106DD00003460028F0D095E8070083E80700EBE7BA
:106DE00000680028EED00C21FDF759F9EAE737B525
:106DF0001D4601AB044601F027FF20B101992A4648
:106E0000204601F003FF03B030BD00000A4B10B56F
:106E10000446036007F0C8FB214607F0CCFD09F0EB
:106E2000E9F909F0D9F92046044B40F8043B07F092
:106E30005DFC204610BD00BFB0460C0098460C001B
:106E400010B50446FFF7E2FF20462421FDF727F99D
:106E5000204610BD10B5064C236833B90420FDF759
:106E60001AF908B1034B03602060206810BD00BF11
:106E700098E40320D8460C0030B5194985B0044683
:106E80001848FDF75CF900250C200295FDF703F981
:106E900018B1154B8460C0E90035144B0090039382
:106EA0001020134B0293FDF7F6F8044678B1002347
:106EB0008360029B33B1022269469847039BE360DB
:106EC000029BA3600B4A0C48214606F0DAFB029BAA
:106ED0001BB1694603220846984705B030BD00BF84
:106EE000B8420C0058E60320FD6E0B007B6D0B00D2
:106EF000AF6D0B00E6420C005BD60B002DE9F04FA6
:106F0000ADF6B41D0C4609A8A44908F024FDA34918
:106F10000DA808F020FD50234FF4806200932CA9A7
:106F20000DF5966321A801F00FFD9D4B21689D484A
:106F30002193FDF704F921A801F0FCFC21680391DD
:106F400008460AF000FA0399024621A801F0D5FC90
:106F500021A802F02BFA044690B993499148FDF715
:106F6000EEF8924B904A1B788DF8003011A89049AA
:106F70003C2306F097FC12A8FDF75EFB254617E0C0
:106F800021A801F0FCFC8A4A8A4FDFF87C82DFF8F6
:106F90007C92014606AB21A801F056FE0025069919
:106FA0002A4621A801F00DFD064678B9002DE5D14D
:106FB00021A8FFF7CDFE0DA808F082FC09A808F073
:106FC0007FFC28460DF6B41DBDE8F08F014607ABE7
:106FD0003A4621A801F038FE20B1079904AA21A859
:106FE00001F048FD09AB4246314621A8FFF7FFFEFC
:106FF000314621A80DAB4A46FFF7F9FE6E490DA8B0
:1070000008F06FFD00285AD0049B002B3CD16B493F
:1070100009A808F066FD18B3694911A80AF06DF9CE
:10702000FFF7D4FAFFF722FBFFF73AFAFFF77EFDEE
:107030005C4811A9FDF783F806F048F860B15B4B96
:107040005B491B788DF8003007A83C2311AA06F095
:1070500029FC08A8FDF7F0FA01350A2D9FD18DE72C
:10706000584909A808F03DFD48B1574911A80AF050
:1070700044F9FFF7B7F903689B699847D4E7534988
:1070800011A80AF03AF9CFE74E4909A808F029FDFE
:10709000049B58B14E4A402111A806F0DFF8FDF7D5
:1070A00067F805220499FDF7BDFEC1E7494A402172
:1070B00011A806F0D3F8FDF75BF80622F2E746497F
:1070C0000DA808F00EFD00B309980A2205A90BF0DF
:1070D000ABF8431E3B2B064611D83C2393FBF0F341
:1070E00043433C2B0BD103463C4A402111A806F0F8
:1070F000B5F8FFF777F9B1B2FFF7ADFC98E738497B
:1071000011A80AF0FAF8002492E736490DA808F011
:10711000E8FCB8B1344909A808F0E3FC064648B1D8
:10712000324911A80AF0E9F8FFF75CF90121FFF7ED
:1071300055FB7DE72E4911A80AF0DFF8FFF752F959
:107140003146F4E72B490DA808F0CBFC48B12A4999
:1071500011A80AF0D2F8FDF70BF80121FDF75AFB50
:1071600066E726490DA808F0BCFC002850D0099815
:107170000A2205A90BF058F80C2806460BD803463E
:107180001F4A402111A806F069F8FFF72BF9F1B268
:10719000FFF73CFB4CE71B49B2E700BF70530C0004
:1071A000C8460C0058E60320F7420C0094E4032084
:1071B00015430C0083380C0020430C00E4380C000D
:1071C00026430C0048430C004C430C007C430C004D
:1071D000A1430C00CD430C00EE430C00F3430C0024
:1071E0001D440C003D440C0042440C0047440C007C
:1071F0007B440C009D440C00A1440C00FC3E0C00A0
:10720000B6440C00D4440C0019430C001D430C0080
:1072100031490DA808F065FCB8B109980A2205A902
:107220000BF002F8A0F10D030B2B06460BD803461A
:107230002A4A402111A806F011F8FFF7D3F8F1B25D
:10724000FFF7EAFAF4E626495AE726490DA808F0BE
:1072500048FCE0B109980A2205A90AF0E5FF0228D6
:10726000064612D8049B204A00934021034611A8E9
:1072700005F0F4FFFCF77CFF04993246FDF7FAFCB9
:1072800038B3FCF775FF07220CE7184938E71849AF
:107290000DA808F026FCD0B109980A2205A90AF029
:1072A000C3FF0128064610D8124A134B402100287C
:1072B00008BF1346114A11A805F0D0FFFFF792F856
:1072C00006F00101FFF7BDFCB2E60D4918E70D49D4
:1072D00016E70446ACE600BFED440C00F3440C0096
:1072E00011450C000B370C002C450C0052450C00CE
:1072F0006D450C000A460C00EF420C0071450C0075
:1073000083450C00B3450C0070B5D0E9005314263A
:10731000044606FB0356AE4204D0284608F0D0FAD5
:107320001435F8E7206805F079FF204670BD8842E3
:10733000F8B504460D46164616D9904215D2A2F16C
:107340001406751AA1F114072C44B7421CD02CB1B5
:107350003146204608F030FB337C2374304608F079
:10736000AFFA143E143CF0E70ED0B5420CD02CB16D
:107370002946204608F020FB2B7C2374284608F081
:107380009FFA14351434F0E7F8BD2DE9F0410023DD
:10739000C0E9003383604F689F4204460E4623DDF8
:1073A0004FF0140808FB07F005F030FF0546D8B190
:1073B000D4E9001208FB0212FFF7B9FF206805F0BC
:1073C0002DFF2560A760D6E9007308FB0378B84558
:1073D00008D03946284608F009FB3B7C2B7414374B
:1073E0001435F4E7736863602046BDE8F08100005F
:1073F00070B5274B274A01251D70274B00248CB000
:107400009A60C3E90044022005F0D6FD21462846D3
:1074100005F0EAFD2946042005F03CFBCDE90044D7
:10742000029408F0E7FE1D4C0546694603A8FFF7E5
:10743000ACFF264603A906A8FFF7A7FF184B46F89E
:10744000043B06A909A8FFF7A0FF09AA1E213046A0
:1074500007F094FB09A8FFF757FF06A8FFF754FFB2
:10746000104B2360256203A8FFF74EFF0E4B2360ED
:1074700008F0C0FE4FF4165108F0AAFE07F094F889
:10748000214607F051FA6846FFF73EFF0CB070BD89
:1074900094E403200000FFFF88E403209CE4032021
:1074A00098460C00A0530C00B0460C002DE9F043A8
:1074B00085B008F0B8FD414905464148FCF73FFE5C
:1074C000002401A8CDE90144ADF80C4006F0EAF82B
:1074D000204605F00FFB43F698260446002005F0F1
:1074E00009FB031B61F10001B34271F1000305D2F6
:1074F00005F0ECFD10B105F0D9FDEFE705F0E6FD74
:1075000005F0E8FA2F4F386005F0D0FD05F0DEFDFC
:10751000044640B12C492A48FCF711FE00242046BD
:1075200005B0BDE8F08308F07EFD2849DFF8A080B3
:10753000421B2348FCF703FE08F075FD224602219A
:107540000646D8F8040005F011FED8F804002346DA
:107550002246214605F022FE204605F0CBFA47F2EE
:1075600030590546002005F0C5FA431B61F10001C2
:107570004B4571F1000306D2404607F01DFE10B9DD
:1075800005F094FDEEE7124807F016FE05F0A2FAAA
:10759000386005F08BFD0E4807F00AFE20B10D495A
:1075A0000748FCF7CCFDBAE708F03DFD0A49821B0D
:1075B0000348FCF7C4FD0124B1E700BFC7450C0038
:1075C00058E6032010E70320F0450C0013460C009A
:1075D00014E603203C460C0062460C0008B517492F
:1075E0001748FCF7ACFD0221042008F01BFF002126
:1075F000082008F017FF0121072008F013FF0021E1
:10760000122008F00FFF0121112008F00BFF0121CB
:10761000102008F007FF0021102008F014FF0021BF
:10762000112008F010FF0121062008F0FBFE0121C7
:10763000062008F008FF012008BD00BFE0460C004E
:1076400058E6032010B51849184890B02024FCF7DC
:1076500076FD22460021684609F0AAFD2246002157
:107660000DEB04008DF8054009F0A2FD00210DEBA3
:1076700004008DF8254005F0F3FC41F2D833ADF855
:1076800006300B4B029341F27003ADF80C30009BB7
:10769000002143F400736846009305F0E1FC0038D4
:1076A00018BF012010B010BDF9460C0058E60320A9
:1076B0008403840307EE900A9FED097AF8EEE77AD7
:1076C00067EE877A9FED077A87EE870ADFED067A05
:1076D00070EE677AB2EE040A87EE800A704700BF48
:1076E00000404E4500F07F450000FA4313B50121EC
:1076F00001A807F0F6FDFEF7D3FEFFF728F8FEF726
:10770000CFFEFFF724F8252801A80DD907F07CFE4D
:10771000FEF7C6FE0121FFF797F8002401A807F045
:10772000EFFD204602B010BD07F053FE0124F5E73F
:1077300030B51B4D0FCD9BB010AC0FC40FCD0FC497
:1077400095E8030084E80300164908A805F058FEF0
:1077500008A805F098FE044608A805F0CDFE08A884
:1077600010EE105A05F0F8FE1AAB10EE100A03EBFB
:10777000840409F0E5F8CDE90201284609F0E0F8B3
:10778000CDE90001102154F8283C074A0DEB010017
:1077900005F064FD054804A9FCF7D1FC1BB030BD21
:1077A000A0470C0014E603205E470C0058E60320B7
:1077B00030B585B00D4600226946009205F0EAFB1F
:1077C00090B9009C0CB1236923B9084A08490A20E2
:1077D00005F0A8FB0C23CDE901350423039301AA8E
:1077E000236901212046984705B030BDC5CA0B006A
:1077F00077470C0013B5FEF753FE01A90446072096
:10780000FFF7D6FF011EA8BF01992046C9B2FFF7B6
:107810001BF8184806F040FA4FF4FA7005F076FDB0
:10782000FEF73EFE01A904460320FFF7C1FFE8B9B9
:10783000BDF8043007EE903AFBEECC7A17EE900AD2
:1078400009F07EF841EC100B2046FEF781FEFEF7B2
:1078500027FEFEF75DFE084B51EC100B002209F0ED
:1078600057FB003818BF012002B010BDFFEE007AB0
:10787000E4E700BFC0E4032000004E4013B5FEF76C
:107880000FFE0F4B0446188808F009FEFFF712FFA1
:10789000FDEEC07A2046CDED017A9DF80410FEF78A
:1078A000CDFFFFF7A7FFFFF721FFFEF79BFDFEF7D8
:1078B00021FF08B9FFF73CFF012002B010BD00BF57
:1078C0001E470C000148002106F0A2B9C0E40320C5
:1078D000704710B520210446FCF7E1FB204610BD9F
:1078E00010B504468AB008464FF0200C0021CDE9BF
:1078F0000023CDE902C10B4602AA216805F022FB54
:107900000AB010BD0EB403B503AB322153F8042BFB
:107910000193FFF7E5FF02B05DF804EB03B0704799
:107920000EB403B503AB012153F8042B0193FFF709
:10793000D7FF02B05DF804EB03B0704710B50272D8
:10794000FF2242810022C0E9032242610276C26125
:10795000024A034C1060C0E9004110BDCCE4032092
:10796000184A0C002DE9F8439DF82080044689460A
:1079700016461F46B8F1000F02D0406806F032FAF2
:10798000217A606806F00BFA6068036849469B68D4
:1079900098476068002106F021FA054600BB0123E4
:1079A000217A60683A4606F0E8F98742034609D131
:1079B0003744BE421CD0606803685B69984706F88C
:1079C000010BF6E70B490C484A46FFF79BFFB8F15D
:1079D000000F02D0606806F00EFA2846BDE8F88372
:1079E0000346064904484A46FFF78CFF0025EEE7A8
:1079F0000125ECE7C8470C00C8E40320ED470C0064
:107A000007B500930123FFF7ADFF03B05DF804FB5A
:107A100073B54389FF2B044610D0194E194D05F05C
:107A200059F8B0F57A7F09D2608908F025FD012860
:107A300004D031462846FCF782FBF0E701230DF124
:107A4000070228212046FFF7DBFF30B90D480E4919
:107A5000FCF775FB002002B070BD9DF80730182BB5
:107A6000F4D101230DF1070229212046FFF7C8FFB9
:107A70000028EBD09DF80730052BE7D1EBE700BFDE
:107A800011480C00C8E4032026480C0007B5134633
:107A900000228DF807200DF10702FFF7B1FF9DF8D6
:107AA000070003B05DF804FB2DE9F0419DF8188054
:107AB00004460F4615461E46B8F1000F02D0406836
:107AC00006F090F9217A606806F069F96068036849
:107AD00039469B6898472E44B542606805D00368D4
:107AE00015F8011B9B689847F6E7012106F076F927
:107AF000034670B1084909483A46FFF703FF0025DD
:107B0000B8F1000F02D0606806F075F92846BDE8AC
:107B1000F0810125F4E700BF33480C00C8E40320DE
:107B20001FB58DF80F2000930DF10F020123FFF711
:107B3000BBFF05B05DF804FBF8B50A460C460546E8
:107B40001A491B48FCF7FBFA002CB8BFEC687CB95B
:107B5000012322461B212846FFF7E2FF1549024672
:107B600006461348FFF7DCFEEC606C613046F8BD5A
:107B7000032C19DDA7101F2FA8BF1F27BA0062F022
:107B80007C020123D2B21B212846FFF7C9FF3A46E7
:107B90000346094906460648FFF7C2FE4FF4FA635A
:107BA0005F43EC606F61E1E70127E7E758480C00AD
:107BB000C8E4032062480C007E480C00064B1A689B
:107BC0004AB1A0F500630B4305D1D3681BB1002176
:107BD0001046FFF7B1BF7047CCE403202DE9FF4109
:107BE0009DF82880054616461F46B8F1000F04D0C0
:107BF0004068019106F0F6F80199019100230DF11A
:107C00000F022846FFF7FCFE044660B19DF80F30D6
:107C100003EA06023A43934205D00199002328461D
:107C2000FFF77EFF0446B8F1000F02D0686806F047
:107C3000E2F8204604B0BDE8F08113B514460DF11A
:107C40000702FFF7DDFE28B19DF807301C420CBF8C
:107C50000120002002B010BD13B514460DF107023B
:107C6000FFF7CEFE28B19DF807301C4214BF01205B
:107C7000002002B010BD07B5D2430093D2B200235A
:107C8000FFF7ACFF03B05DF804FB000037B501233C
:107C90000DF107020F210446FFF7B2FE054638B981
:107CA0001E491F48AD22FFF72DFE284603B030BD08
:107CB0009DF8073013F0200F4FF001030BD0202266
:107CC000E3610F212046FFF7D6FF164A16491448F4
:107CD000FCF735FAE9E7082217212046FFF7BCFF39
:107CE00018B10223114AE361F0E79DF807301A0743
:107CF00009D50323E361082201230F212046FFF762
:107D0000BAFF0B4AE2E75B07CFD50422E261012309
:107D10000F212046FFF7AFFF064AD7E7D1480C00F6
:107D2000C8E40320A2480C00F0480C00AB480C004B
:107D3000BB480C00CB480C0007B500931346FF224C
:107D4000FFF74CFF03B05DF804FB0000F8B50F46E9
:107D50001646012300220F210546FFF7E1FE0446E7
:107D600038B94FF425721F491F48FFF7CBFD204655
:107D7000F8BD0123232218212846FFF7D1FE04462F
:107D800010B940F29B22EEE7FF2FA8BFFF27012F7B
:107D9000B8BF01270123FAB219212846FFF7C0FE18
:107DA000044610B94FF42A72DDE70123082212219C
:107DB0002846FFF7C1FF044610B940F2AF22D2E7D0
:107DC000002E14BF03220222012342F08002182158
:107DD0002846FFF7A5FE04460028C8D140F2B92284
:107DE000C1E700BF01490C00C8E403202DE9F743B7
:107DF0000A4605460F464F484F49FCF7A0F90021B7
:107E00002846FFF799FE044648B940F2F7124B495D
:107E10004848FFF777FD204603B0BDE8F083012313
:107E20001A4630212846FFF787FF044610B940F272
:107E30000522ECE71022012311462846FFF71BFF1D
:107E4000044610B94FF40372E1E7012326221321FF
:107E50002846FFF765FE044610B940F21322D6E724
:107E6000012600963346FC2211212846FFF7B6FE74
:107E7000044610B940F21B22C9E7002239462846C1
:107E8000FFF764FF044610B940F22222BFE70096D4
:107E90000223772210212846FFF7A0FE044610B9DE
:107EA00040F22B22B3E7334604221C212846FFF779
:107EB00043FF044610B940F23222A8E70096182387
:107EC000E32211212846FFF789FE044610B940F24B
:107ED00039229CE73346C02217212846FFF720FEAF
:107EE000044610B94FF4107291E704F0F3FDDFF887
:107EF0005490DFF840804FF47A7106464F4304F007
:107F0000E9FD801BB8420ED2012217212846FFF757
:107F1000BDFD494602464046FCF711F94FF47A7020
:107F200005F0F4F9EBE706490248FFF7EBFC07F030
:107F300086FE70E7C8E403202C490C0021490C00A0
:107F400052490C003D490C002DE9F3479DF828A04B
:107F500005460C4691461F46BAF1000F02D0406814
:107F600005F040FF07B3202F3E4628BF20267F2C78
:107F700026D83319802B01D9C4F1800601230422AD
:107F80003F212846FFF777FE002364F07F0100932E
:107F90004A463346C9B22846FFF7E4FC804628B17A
:107FA0003444BF1BB144DDE74FF00108BAF1000FC4
:107FB00002D0686805F01FFF404602B0BDE8F087B8
:107FC000012304223F212846FFF7B6FEDCE72DE916
:107FD000F3479DF828A005460C4691461F46BAF186
:107FE000000F02D0406805F0FDFE07B31F2F3E468C
:107FF00028BF1F267F2C26D83319802B01D9C4F126
:108000008006012304223F212846FFF734FE002387
:1080100064F07F0100934A463346C9B22846FFF711
:1080200043FD804628B13444BF1BB144DDE74FF027
:108030000108BAF1000F02D0686805F0DCFE404686
:1080400002B0BDE8F087012304223F212846FFF754
:1080500073FEDCE730B585B00D68D1E904320395D5
:108060004D6802958D680195C968009101330449F6
:1080700002F26C72044607F07BFD204605B030BD6D
:1080800064490C0003090A2200F00F0002FB030000
:10809000704738B5044600781546FFF7F3FF0860CF
:1080A0006078FFF7EFFF4860A078FFF7EBFF88608C
:1080B000E078FFF7E7FFC8602079FFF7E3FF0138BA
:1080C00008612DB9651D2878FFF7DCFF886138BD90
:1080D0006079FFF7D7FF6430A51D4861F3E7000022
:1080E00070B5012388B00D461A4610210446FFF7EB
:1080F000A4FDF0B108230126204600960DEB0302F3
:108100000021FFF72FFC044698B1324629460DF1B5
:108110000900FFF7BEFF04A8FFF79CFF0848049A78
:108120000849FCF70CF804A807F0CAFB204608B081
:1081300070BD24220021284609F03AF80024F5E712
:10814000C8E4032082490C0030B58BB00D4601A96C
:10815000FFF7C6FF044620B101A805F0CFF8C5E936
:10816000000120460BB030BD0A2390FBF3F103FB66
:10817000110091FBF3F203FB121240EA0210C0B2AD
:10818000704770B5054600680C461646FFF7ECFFD1
:1081900020706868FFF7E8FF6070A868FFF7E4FFE9
:1081A000A070E868FFF7E0FFE07028690130FFF792
:1081B000DBFF20712EB9661DA869FFF7D5FF30706F
:1081C00070BD6A69642392FBF3F003FB1020FFF794
:1081D000CBFFA61D6071EFE7F0B587B0054602A89A
:1081E00016460C46FFF736FF1E48029A1E49FBF75B
:1081F000A6FF02A807F064FB16B1686805F0F2FD5F
:10820000204601220DF1090100278DF80870FFF7C3
:10821000B8FF01231A4610212846FFF78DFD0446BA
:10822000E8B1082300970DEB030239462846FFF713
:108230003BFC044660B101231A4610212846FFF793
:108240001AFD16B1686805F0D6FD204607B0F0BDEE
:108250004FF48D7205490348FFF754FBF1E74FF4E3
:108260008F72F7E7C8E4032090490C009E490C0088
:1082700013B504466846CDE9002308F04BFF9DF88E
:10828000102001462046FFF7A7FF02B010BD0000F6
:10829000F0B5057E89B0044675BB07F0A7FE58B35C
:1082A0000026002704A92846CDE9046704F036FF1C
:1082B00010B30125257607F0B6FEC317CDE90203FA
:1082C000024600952046FFF7D3FF02A92046CDE9DC
:1082D0000267FFF739FF134B13491B68009304A88B
:1082E000DDE9022307F040FE1048049A1049FBF72D
:1082F00026FF04A807F0E4FA63698BB104F0EAFBF7
:108300002369C01A636998420AD304F0E3FB4FF073
:10831000FF312061204609B0BDE8F040FFF70CBCFA
:1083200009B0F0BD98D60320ACE60320C8E40320D2
:10833000B9490C0030B504468BB011B1406805F066
:10834000FFFC2046FFF764FB06AD002837D020462F
:10835000FFF79CFC01231A4610212046FFF76DFC15
:10836000D8B107F043FEC0B902A92046FFF7ECFEE2
:10837000DDE9020107F03EFD134B14491B68009331
:108380002846DDE9022307F0EFFD1148069A11495E
:10839000FBF7D5FE284607F093FA0F4B06930F4BD9
:1083A00009930F4B08934FF40062002302A8009535
:1083B000FDF75CFA2846FDF7BEF80BB030BD094961
:1083C0000348FFF79FFAE8E798D60320ACE60320BE
:1083D000C8E40320CF490C00BD7B0B0013550B00F4
:1083E000FF540B00EC490C00014B024A1A60704725
:1083F000C8E40320044A0C0010B501230374836809
:10840000044643B1C0689847012363740020BDE867
:10841000104004F02FBB00680028F5D083680BB92A
:1084200008F01CF9C368EEE7012A02D101600020C0
:108430007047022A04BF0B680360F8E738B5056887
:10844000044635B12846FDF776F810212846FBF79B
:1084500026FE20461421BDE83840FBF720BE10B5AB
:1084600003680446ABB1586804F0B4FA88B92368CD
:108470005A7C12B9586804F0B5FA2368586804F0B9
:10848000B9FA20680023236018B1BDE81040FFF757
:10849000D5BF10BD054A026000224260027380F819
:1084A0004F24C0F85824C0F860247047444A0C0098
:1084B00010B5074C236843B940F26440FBF7EBFD6D
:1084C000034608B1FFF7E6FF2360206810BD00BF38
:1084D000D0E4032038B50446406890B102232373EA
:1084E000FFF7BDFF656855B12846FFF7B8FF28685C
:1084F00008B1FFF7A3FF04212846FBF7D0FD0023B6
:10850000636038BD10B5054B03600446FFF7E2FF1A
:1085100004F58A60FDF70FF8204610BD444A0C00B0
:1085200010B50446FFF7EEFF204640F26441FBF72A
:10853000B6FD204610BDF0B5044689B000F10D0629
:1085400000F14E07237B1BB9012004F0DFFEF9E7A1
:10855000237B022B64D0A06804F05CFAA06804F0CE
:1085600061FA94F84F348DF800303A463C23314696
:1085700006A805F097F9069D6B7833B9237B022B8B
:1085800003D0012004F0C2FEF5E7D4F858341BB341
:10859000002004F031FD20B16B7813B904F086FDA2
:1085A000FAE72B78D4F860240592591E4B424B41D0
:1085B0008DF80B30D4F85834CDE903670BB908F0C7
:1085C0004DF805AB0093D4F85C5404AB03AA0DF14D
:1085D0000B0104F58A60A847A06804F01BFA237B0E
:1085E000022B17D0D4F858340025C4F8605443B196
:1085F00004F58A61032208469847C4F85854C4F821
:108600005C540023A068237304F00CFA07A8FCF75D
:1086100013F897E7A06804F005FA07A8FCF70CF830
:1086200009B0F0BD0068FFF786BF13B50B460246E0
:10863000D0E900016C4684E8030093E8030082E877
:10864000030094E8030083E8030002B010BD0000BB
:108650002DE9F743064688461420264917469946D1
:1086600007F0F2FF044630B10020C4E90000C4E97D
:108670000200207460743460002C31D01D49102039
:1086800007F0E2FF054668B10023836001463846E3
:10869000FFF7CBFFBB68AA68BA60AB60EA68FB680B
:1086A000EB60FA602768256037B13846FCF743FF76
:1086B00010213846FBF7F3FC3068036883B10A9B4E
:1086C0004A46CDE9000341460B4B043004F07AF9E9
:1086D00030B933681B7C4BB9012004F0EBF9F8E7A3
:1086E00030680023336008B1FFF7A8FE304603B0BE
:1086F000BDE8F083F4540C00F9830B0030B54368F7
:1087000087B00446C3B9083004F07CF90B4B0593DD
:1087100004200B4B02940493FBF7BDFC054638B1D3
:108720004FF4406300930749022302AAFFF790FF2A
:10873000656002A8FCF7FFFE07B030BD25860B0080
:1087400029840B00284A0C002DE9F043044685B02B
:1087500080680C9F98460D46164604F05BF96368E6
:108760001BB1237B03F0FF0933B1A06804F05AF971
:10877000002005B0BDE8F083A06804F053F9002D97
:108780003DD04022294604F10D0008F0F8FD84F8A0
:108790004D908EB340F20142314604F14E0008F094
:1087A000EEFD84F84E9400230293BB6804F58A65BD
:1087B0003BB10222394668469847FB680393BB6881
:1087C000029329466846FFF730FF029BD4F85824ED
:1087D000C4F85834039B02926846D4F85C24C4F869
:1087E0005C340392FCF7A7FE0D9BC4F860340120B3
:1087F00084F84F842073BCE784F84E60D3E72846A2
:10880000B7E7000010B5054B0360037C04461BB9B5
:10881000406808B104F002FD204610BD644A0C0017
:1088200010B50446FFF7EEFF20461421FBF737FC96
:10883000204610BD10B5034B03600446FFF7E2FF6E
:10884000204610BD844A0C0010B50446FFF7F2FF25
:1088500020463021FBF723FC204610BD10B5034B0A
:1088600003600446FFF7E6FF204610BD944A0C0063
:1088700010B50446FFF7F2FF20464021FBF70FFC3E
:10888000204610BD10B5074B0360037C04461BB99E
:10889000406908B104F0C2FC2046FFF7B3FF204650
:1088A00010BD00BF744A0C0010B50446FFF7EAFF84
:1088B00020462C21FBF7F3FB204610BD034A026043
:1088C0000022C0E90122C26002747047644A0C00B1
:1088D00038B5037C04460D460BB1002038BD406816
:1088E00038B104F0A3FC0028F7D0C4E90105012049
:1088F000F4E7084604F08AFCF5E770B5C3680E4655
:108900001546D1184268044672B182688A420BD378
:108910006068E3682A463146184408F021FCE268A2
:108920002A44E260012070BD2046FFF7D1FF0028F5
:10893000EED1F8E743680021C16023B1826812B12B
:10894000184608F035BC704710B5C0E90112002286
:10895000C260012202744361024A029B0260C36149
:1089600010BD00BF744A0C00D0E90503834204D94E
:108970000278022A02D01030F8E700207047D0E9D0
:108980000503984204D20378012B18BF00207047DA
:108990000020704770B513689D68136803F11004D8
:1089A00014608669B4420AD29B698C68A34201DADA
:1089B000AB42F2DDA342CCBF0020012000E000204A
:1089C00070BD73B501F110030446164601930025EE
:1089D0000198A36983420BD982688B689A4207DAAF
:1089E000B54206D001AA20460135FFF7D3FFEFE7D5
:1089F000002002B070BD2DE9F341089D984601F1B9
:108A0000100304461746019300260198A369834288
:108A10001AD982688B689A4216DAAE420BD1386056
:108A200001AA2046FFF7B6FF28B1019BC8F8003025
:108A300002B0BDE8F08101AA2046FFF7ABFF204657
:108A40000136FFF7A7FFE0E70020F1E7F0B5013BB3
:108A50000024D1E90176F61BA64208DDA34206DD1B
:108A600045683D442D5D02F8015B0134F1E70023C8
:108A70001370F0BD1FB5144610236A46FFF7E6FFDA
:108A800004492246684604F0E1FB431E584258411F
:108A900004B010BD16390C001FB5144610236A46E9
:108AA000FFF7D4FF6846002109F0B4FA012084EDF5
:108AB000000A04B010BD10B5044600680B4628B18A
:108AC00006F0E1FFE3680133E36010BD6068002851
:108AD000F8D0D4E90221013A8A4288BF4354F1E731
:108AE00003467F2B37B50846D9B204D803B0BDE89A
:108AF0003040FFF7E0BF01F03F01B3F5006FC3F373
:108B0000871541F0800407D245F0C0010190FFF7BE
:108B1000D2FF01982146E9E71B0B43F0E0010190E9
:108B2000FFF7C9FF05F03F01019841F08001EEE732
:108B30002DE9FF4700244E68DFF8CCA080460F46A1
:108B40001546A146B868B0425ADDD8F80430995DA0
:108B50009A19002C4BD0752905D86D2907D86229A0
:108B60001ED066291ED02846FFF7A5FF3DE0A1F1E3
:108B70006E04072CF7D80FF2080C5CF824F000BF45
:108B8000A98B0B00678B0B00678B0B00678B0B00AF
:108B9000AD8B0B00678B0B00B18B0B00B58B0B0003
:108BA0000821E0E70C21DEE70A21DCE70D21DAE706
:108BB0000921D8E7311D884217DD02A90433334467
:108BC000084612F8014F01F8014B9A42F9D101AA67
:108BD00051468DF80C9004F039FB012805D1BDF801
:108BE00004002946FFF77CFF0536002404E05C29D9
:108BF00004D02846FFF75FFF0136A3E70124FBE717
:108C0000012004B0BDE8F08711530C007FB50C467D
:108C100006460C491046154606F0FBFED4E9013124
:108C2000C91A0131284606F069FE00236A4621462A
:108C30003046CDE9013300950393FFF779FF04B087
:108C400070BD00BF70530C002DE9F04389B005469C
:108C5000884604A812491646994606F07CFE00276D
:108C600000974B4603AA41462846FFF7C4FE044638
:108C700070B1039904AA2846FFF7C8FF044608B953
:108C80000137EDE7314604A806F02BFF0028F7D0A6
:108C900004A806F015FE204609B0BDE8F08300BF29
:108CA00070530C0000230122C3604361028380F8EB
:108CB0002A30704708B50346FFF700FE044A1A60E1
:108CC0004FF0FF321846DA62FFF7ECFF08BD00BF35
:108CD000844A0C00D0E9022310B593423FBF42689A
:108CE0005C1CC460D15424BF012380F82A3010BD1D
:108CF00010B54369044643B100EB4303597E09B103
:108D0000FFF7E8FF6369013B6361D4E90210636820
:108D100088424FF000022ABF5B181A5403F8012C56
:108D200010BD70B50446D0E9025066682D1A13468E
:108D300030440A46294604F099FA85422DBFE3687B
:108D4000A368E360C01836BF0123E06084F82A30CE
:108D500070BD0EB403B503AA52F8041B0192FFF7CD
:108D6000E0FF02B05DF804EB03B070472DE9F84373
:108D700004460E46174612B12221FFF7ABFFDFF87B
:108D80000C810025715D06EB0509002974D0D4E93A
:108D900002329A4270D20B0634D501F0F003E02B78
:108DA00005F101091DD116F8092002F0C003802B3E
:108DB00039D105F1020916F8093003F0C000802806
:108DC00031D103F03F03920143EA013302F47C62A4
:108DD0001A4392B241462046FFF7BBFF4D4601358C
:108DE000D0E701F0E003C02B1DD116F8093003F0E5
:108DF000C002802A17D1890101F4F86203F03F0311
:108E00001A43E7E70D290AD807290CD9A1F108036D
:108E1000052B08D8DFE803F009231707111D2229C5
:108E200023D05C2921D0204604E05C212046FFF7B6
:108E300051FF6221FFF74EFFD1E75C212046FFF78B
:108E400049FF6621F6E75C212046FFF743FF6E21CC
:108E5000F0E75C212046FFF73DFF7221EAE75C2145
:108E60002046FFF737FF7421E4E75C212046FFF737
:108E700031FF99F80010DDE72FB120462221BDE82F
:108E8000F843FFF727BFBDE8F88300BF4C4A0C004A
:108E9000426900EB42031A7E12B100221A76704733
:108EA0002C21FFF717BF73B5436901910133082BDC
:108EB00016460FD8FFF7ECFF4369019900EB430416
:108EC0005A1C01254261A576E676FFF703FF284686
:108ED00002B070BD0020FBE737B5044610EE100A63
:108EE00007F02EFDE56A002D02460B4608DBCDE9B2
:108EF000002307492A462046FFF72BFF03B030BD69
:108F00000449204603B0BDE83040FFF722BF00BF50
:108F1000534A0C00584A0C0010B50446FFF7CAFE2D
:108F2000054B23604FF0FF320023C4E90D2321637A
:108F3000E363204610BD00BF944A0C0070B5436B3C
:108F40000133044621D1056B4B684363EB688868A5
:108F50001A1AA263AE683044C31A002AE36305DD1F
:108F6000686889680144184408F008F9226B616B4D
:108F70005268E36B0A445B1A01212046C4E90123CD
:108F80002174FFF78FFE084670BD0020FCE770B526
:108F9000436B013304460E4629D18D68016B013DB8
:108FA0004563CB685A1B826388682844C31A002A29
:108FB000E36304DD48684119184408F0DFF8226BC8
:108FC000616B5268E36B0A445B1A0125C4E9012313
:108FD00020462574FFF766FE636903F10C02F3680F
:108FE000B3FA83F35B0904F81230284670BD002001
:108FF000FCE700002DE9F04F44684FF0010C4FF002
:10900000FF36D0F800E0964580F0B98111F80E8067
:10901000B8F1000F00F0B381B8F13A0F00F098807A
:1090200033D8B8F1220F00F0A68010D8A8F10908B3
:109030005FFA88F8B8F1170F0DD89F4D0CFA08F8B1
:1090400018EA050F07D0056801350560D9E7B8F1C2
:109050002C0F00F03381D0F8008042450ED911F872
:1090600008505DB13A2D00F269811F2D00F2518147
:109070000A2D00F26081082D40F25681002B40F04D
:10908000628108F1FF350560A5E0B8F17B0F37D0AC
:109090002ED8B8F15B0F33D0B8F15D0FDBD1002BC8
:1090A000D1D04FF002094568013D03EB0518002DB2
:1090B00055DBD8F8047001374DD0D8F808A0BAF1C4
:1090C000FF3F48D198F800B0CB454BD10EF1010ECF
:1090D000C0F808A0C8F808E003EB051EDEF804702D
:1090E000013742D0DEF8087001373ED18560AAE72B
:1090F000B8F17D0FAFD1002BA5D04FF00109D2E719
:109100000134002B9FD04568099FAF424AD905F131
:10911000010EC0F804E003EB051ECEE901664FEA3C
:10912000051A0025CEF80C5085686F1C1FBF03EB95
:109130000519D9F80C500135C9F80C50B8F17B0F5E
:109140000CBF0125022503F80A500568CEF804502B
:109150004568013DCAE7013DA8F11008A7E70135C0
:109160007FF471AF6FF001041EE0013D6F1CAEF1A2
:10917000100EB3D167E70EF10109C0F80090D0F8E6
:109180000080424540F2938011F80850002D00F015
:109190008E80222D30D1F3B14568099FAF4206D8A9
:1091A000C0F800E04FF0FF342046BDE8F08F05F135
:1091B000010E4FEA051803EB0515C0F804E0C5E9F8
:1091C00001660027EF60D0F800E04FF0030A03F8D3
:1091D00008A0C5E9019E85686F1C04F101043FF4F5
:1091E00032AF002B3FF42FAF03EB051EDEF80C501F
:1091F0000135CEF80C5026E75C2D11D108F10105A0
:10920000AA420DD905604D5D752D2BD86D2D0BD85B
:10921000662D27D85B2D1DD8222D01D02F2D21D1D1
:10922000056801350560AAE76E3D072D1AD801A72C
:1092300057F825F021920B0065920B0065920B0008
:1092400065920B0021920B0065920B0021920B009E
:109250006B920B005C3DEDB20CFA05F540F2414714
:109260003D42DDD1C0F800E07CE708F10205056071
:109270004FF0040AD0F80080424503D80568013D4C
:109280000560CDE711F80850002DF7D0A5F1300B9F
:10929000BBF1090F04D925F02005413D052DE1D88A
:1092A00008F10105BAF1010A0560E3D1E6E7C0F86B
:1092B00000E06FF0020477E713008000002B3FF41A
:1092C000C2AE85686F1C3FF4BEAE2D015D5D013DF1
:1092D000012D7FF6B8AE456805F1FF3803EB051E9A
:1092E000B8F1000FFFF6AFAE1EF8105C013D012D86
:1092F0000AD85EF80C5C013506D05EF8085C0135D2
:1093000002D1C0F808809EE608F1FF38AEF1100ED9
:10931000E6E7A5F12009244F5FFA89F90CFA09F96B
:1093200019EA070F7FF4AAAE203D5E2D9AD808F106
:10933000010505608FE60D2DF6D19FE605F0DF09EA
:10934000B9F15D0FF8E74568099FAF427FF628AF96
:1093500005F101084FEA051903EB0515C0F8048073
:10936000C5E901660027EF60D0F800804FF0040ADD
:1093700003F809A0C5E901E80568013D83E6002B73
:109380003FF412AF4268511E03EB02130029FFF6AF
:109390000BAF53F80C2C013203D053F8082C0132D8
:1093A00087D00139103BF1E701100004F7B5C2681E
:1093B000044612B9002003B0F0BD436900F1200655
:1093C000ABB10021C0E908114FF0FF318162C169E2
:1093D000009141683046FFF70DFE431C28D1257CE3
:1093E000002DE7D1606903F019FF6561E561002593
:1093F0004FF0FF37C4E90855E2686168A76200953D
:109400002B463046FFF7F6FD0028D3DBE06117D08E
:10941000000103F0FBFEE269606103460092C4E9CB
:109420000855E2686168A7623046FFF7E3FD01E096
:109430000028BFDB636903EB0010A0610120BAE7DD
:109440006369A361FAE738B5436B5A1C044618D028
:10945000826B002A08DD016BE5684868E16B2B44EC
:109460000144184407F08AFED4E90C23A16B0B4495
:10947000E1680B44D360206BFFF798FF4FF0FF3398
:10948000636338BD7047704710B508210446FAF78A
:1094900006FE204610BD10B510210446FAF7FFFD68
:1094A000204610BD10B5054B044640F81C3B06F0A5
:1094B00007FA201D06F004FA204610BD084B0C00E8
:1094C00010B50446FFF7EEFF20465821FAF7E7FDF6
:1094D000204610BD10B5044B044640F8043BFFF78E
:1094E000E1FF204610BD00BFD84A0C0010B504466D
:1094F000FFF7F0FF20466021FAF7D1FD204610BDAE
:1095000020F00203012B03D0431F584258417047FB
:109510001846704791F90430037191F90530437191
:1095200091F90630837191F90730C371704738B5EE
:1095300004460D460430043106F049FA05F11401E1
:1095400004F11400FFF7E6FF05F11C0104F11C0013
:1095500006F03DFA05F12C0104F12C00FFF7DAFFCB
:1095600095F9383084F8383095F9393084F8393045
:1095700095F93A3084F83A3095F93B3084F83B302D
:1095800005F13C0104F13C00FFF7C4FF95F94830B8
:1095900084F8483095F9493084F8493095F94A30D3
:1095A00084F84A3095F94B3084F84B3005F14C0182
:1095B00004F14C00FFF7AEFF95F8543084F85430B6
:1095C00038BD0B6803604B68436013B15A680132C1
:1095D0005A607047024A02604A684260704700BFA2
:1095E000E84A0C004A69036862F3160303600B69DA
:1095F0005A1C438862F3CA134380CA68C3F3072323
:1096000062F3C703C3707047024A026000224260DF
:10961000704700BFE84A0C0030B5002387B0838054
:1096200083710D4605AB00931349044604AB03AAAE
:10963000284603F00BFE032807D1039B2371049BEC
:109640006371059BA37107B030BD0C4904AB03AA3D
:10965000284603F0FBFD022804D1039B2371049BE1
:109660006371F0E7064903AA284603F0EFFD0128DD
:1096700004BF039B2371E6E79C4A0C009F4A0C0041
:1096800016390C0090F9042090F9053090F9061075
:10969000002AB8BF0848C3EB03134FEA8303BDBFDA
:1096A00000FB0230401840424FF46160A4BF00FB51
:1096B00002304018704700BFF0F1FFFF08B590F886
:1096C00054304BB190F93B3043B92C30FFF7DAFFFF
:1096D000B0FA80F0400908BD0120FCE70020FAE75D
:1096E00090F9073043B990F904308B6090F9053058
:1096F0004B6090F906300B60704790F9073030B539
:10970000B3B990F904508C682C44D1E900328C60D4
:1097100090F90540002DB5BF121B12194A604A602E
:10972000B5BF90F9062090F906209B1A9B180B6094
:1097300030BD000008B5054A0260002203464260C1
:109740000830FFF761FF184608BD00BFF84A0C005B
:1097500000234360838183737047000030B5044663
:1097600087B00D4611B10B784D2B05D0204607B0C0
:10977000BDE83040FFF7ECBF05AB0093114904ABE7
:1097800003AA284603F062FD032816D1039B237128
:10979000049B6371059BA3712F21284607F08CFD64
:1097A00040B1411C04F10800FFF736FF0123E371CB
:1097B00007B030BDA081A073F8E72046FFF7C8FFCF
:1097C000F6E700BFB74A0C00104B114910B504462C
:1097D00040F8043B06F0BFF804F11400FFF714FF53
:1097E0000B4904F11C0006F0B6F804F12C00FFF759
:1097F0000BFF04F13400FFF79DFF04F14400FFF775
:1098000099FF002384F85430204610BD084B0C000B
:1098100070530C002DE9F74F0446084607F076FD1B
:1098200000250646019004F134083F49019801AA39
:1098300008F074FC0146002862D0012D05F10103F7
:1098400053D0022D56D0002D46D1024692F80090FA
:10985000B9F1400F1546174602F10102F6D8002271
:109860002A7004F11C0006F0D4F8012285F800905B
:1098700084F854202A786AB397F800A00AF1FF32DE
:109880003F2AB946BB4607F10107F5D9002304F189
:109890002C0789F8003029463846FFF7BDFE89F8C5
:1098A00000A0BAF1000F15D05D461BF801ABBAF16C
:1098B000400FF9D800222A704946201D06F0A9F869
:1098C00085F800A004F11400BAF1000F06D0294673
:1098D000FFF7A2FE0125A8E71D46A6E73946FFF7D8
:1098E00019FE237E013B2376F4E74046FFF736FF5F
:1098F00002259AE704F14400FFF730FF032594E7BF
:1099000094F93B3043B194F94B202AB904F1340067
:10991000FFF71EFF84F85420304603F07FFC94F8D4
:10992000540003B0BDE8F08FC14A0C0038B5134BAA
:1099300004460D4640F8043B114906F00CF804F1CA
:109940001400FFF761FE0E4904F11C0006F003F855
:1099500004F12C00FFF758FE04F13400FFF7EAFE93
:1099600004F14400FFF7E6FE002384F85430294652
:109970002046FFF74FFF204638BD00BF084B0C00C4
:1099800070530C0008B50346FFF73EFE8A681A7153
:109990004A685A710A689A71184608BD13B5074B90
:1099A00003600023436004466846FFF7EBFF204650
:1099B0006946FFF7AFFD02B010BD00BFE84A0C00DA
:1099C00007B50023014601A80193FFF70BFE01989C
:1099D00003B05DF804FB10B504460846FFF7F0FF3E
:1099E000206010BD10B5044688B00846683001A953
:1099F00007F064FB01A807F0A6FC08AB184400239D
:109A000000F81D3C01A9204605F0A5FF204608B03E
:109A100010BD000038B50446081D0D46FFF74EFE88
:109A200028B10949204605F096FF204638BD286830
:109A3000FFF766FD28B105F10801204605F0D6FFC5
:109A4000F3E705F12001F8E7C34A0C002DE9F047E0
:109A50008046A8B00C4615462AB1474B10461968F7
:109A600007F041FC38B921464046FFF7BBFF4046AE
:109A700028B0BDE8F08729463F2218A807F07FFCF0
:109A8000002318A88DF89F3007F05DFC214605469D
:109A900003A8FFF7BFFF201DFFF710FE48B33749AB
:109AA00007A807F02AFC18AE002705F1FF3ABA45CF
:109AB0004CD93378252B07F1010917D173787A2B0C
:109AC00036D107A807F03FFC18AB05463818AAEBBB
:109AD0000702B11C184407F043FB2A4607A9304689
