:02000002B0004C
:1040000000400B005C5E0C00000006000D00050285
:084010000401A60F00000000EE
:0440180010360C0052
:1040200009480A49884208B505D0094A824202D0A7
:10403000121A0DF0E5F80748074A0021121A0DF090
:1040400007F9014808BD00BF84D50320485B0C0078
:104050006CD8032070D80320F4E7032070B5074E16
:10406000074C0CF0A9F9A41BA4080025AC4200D110
:1040700070BD56F8043B98470135F7E7DC5A0C0051
:10408000205B0C0001F0B4BC08B501F0B9FDBDE83F
:1040900008400CF049B909F0FDB809F0FBB809F087
:1040A00001B9000008B5034A03490C2008F07EFF5F
:1040B000FEE700BF4DCB0B0024360C000078B0FAB1
:1040C00080F040097047012303707047704710B5B6
:1040D00004210446FFF7E3FF204610BD10B5034B53
:1040E0000360044604F010FC204610BD0C3D0C009B
:1040F00010B50446FFF7F2FF204640F24C71FFF77F
:10410000CEFF204610BD37B51D4601AB044604F076
:10411000DDFD20B101992A46204604F0EDFC03B0F4
:1041200030BD37B51D4601AB044604F0CFFD20B1CC
:1041300001992A46204604F0ABFD03B030BD0EB411
:1041400000B58CB00DAA4FF0200C52F8041B03925E
:10415000CDE900120023016804AA1E20CDE904C3A2
:1041600008F034FF0CB05DF804EB03B070470000BA
:1041700010B5064C236833B90420FFF78CFF08B153
:10418000034B03602060206810BD00BF74D803207B
:104190001C3D0C007047000010B5064CC0B00DF17E
:1041A000030201A9204607F089FC0028F7D140B09E
:1041B00010BD00BFF4D80320014807F06CBC00BF5D
:1041C000F4D80320134B10B51C88002120460CF0B6
:1041D0008CF90A2009F0DEF8012120460CF085F95F
:1041E0000A2009F0D7F80C4807F0F3F9044628B97B
:1041F0000A490B48FFF7A3FF204610BD9FED090AAF
:10420000094807F0E1FC08480022172107F056FE94
:10421000F2E700BFA4480C0070E1032039360C001F
:1042200050E6032000C06444F4D8032010B50C46C7
:1042300086B0FFF7C7FF74B302F0B4F8002102F0B4
:10424000DBFA02A808F08EFF029A30493048FFF7E7
:1042500076FF02A80BF078FB02F0ACF9014602A849
:1042600002F0C4F90299019108460DF0BCF80199D9
:104270000246284804F083FB02A80BF065FB2548A2
:1042800005F0D6F800283BD023492148FFF757FF17
:10429000012006B010BD02F085F802F045FAD8B151
:1042A00002F080F802F040FA0A2815D802F07AF8F5
:1042B00002F03AFA0146194806F0B7FC174806F032
:1042C0009AFC019002A808F04DFFDDE90123144992
:1042D0000F48FFF734FFBCE702F064F80B2102F04F
:1042E0008BFA0B210D4806F0A0FC0C4806F083FC6D
:1042F000019002A808F036FFDDE901230949E7E74C
:1043000002F058F902F08AF90749BEE745360C0079
:1043100050E6032024DA0320FD360C0074E103206C
:104320007F360C00B6360C0011370C0038B5234C24
:1043300002F09CF8A18849BA89B202F0CCFB02F0E5
:1043400095F8E18849BA89B202F0CBFB02F08EF809
:10435000217A02F0B1FA02F089F8617A02F088FA63
:1043600002F084F80546A07A0CF018FB41EC100B23
:10437000284602F0E1F802F079F8E17A02F07EFADC
:1043800002F074F8217B02F07FFA02F06FF8617B93
:1043900002F080FA02F06AF8A17B02F081FA02F0E2
:1043A00065F80446064806F0BEFC81B2204602F0DD
:1043B0008CFB044B04221A70012038BD78D80320EE
:1043C000F4D8032070D8032070B588B01D49044686
:1043D00004A816461D460BF002FB1B4804F011FB17
:1043E0001A4A014603AB184804F070FC03991648BA
:1043F000721E04F028FB014648B9154920460BF00F
:10440000EEFA04A80BF0A0FA204608B070BD02AB8B
:104410000190104A0C48FFF776FE029B0199AB42CF
:10442000EBD109480C4A04ABFFF77BFE002104A83E
:104430000BF09BFB0028E0D104A920460BF000FB09
:10444000DFE700BFF8540C0024DA032039370C00F2
:104450003F370C0044370C0048370C001FB50A29C1
:104460000C46019201DD002021E0144804F0C9FA55
:10447000134A014603AB114804F028FC03990F4886
:10448000621E04F0E0FA01460028ECD001AB0D4AB0
:104490000A48FFF738FE01F0E9FF02F094FA019BA9
:1044A000984206D108480949FFF749FE012004B0A7
:1044B00010BD07490448FFF742FED4E724DA032081
:1044C00039370C0044370C0050E603204C370C0001
:1044D00061370C0013B516480C4604F092FA154AE1
:1044E000014601AB124804F0F1FB01991048621E2D
:1044F00004F0A9FA014670B901F0B8FF02F05FF9C3
:104500000D4902460D48FFF71AFE01F0AFFF02F019
:1045100056F902B010BD0A4A05486B46FFF7F3FD95
:104520000648009A0749FFF70AFE9DF80000F0E7E9
:1045300024DA032039370C0075370C0050E60320CD
:10454000B1370C00B6370C000A2913B50C4613DC42
:104550000F4804F056FA0F4A014601AB0C4804F02C
:10456000B5FB01990A48621E04F06DFA014628B9AC
:1045700009490A48FFF7E3FDFF2006E00448084A1E
:104580006B46FFF7C0FD9DF8000002B010BD00BFF4
:1045900024DA032039370C00CF370C0050E6032013
:1045A000FD370C002DE9F743074601F0FBFE02F052
:1045B000A0F904461F48DFF87C80DFF8949004F0EF
:1045C00020FA01AB01461C4A1A4804F07FFB3C2349
:1045D0006343DE17DC187641002501992A464046E0
:1045E00004F031FA014680B16B464A464046FFF777
:1045F0008AFD0BF06AFD009BC31ADA17A34272EB27
:10460000060314DB01350A2DE7D10C4A00240C49BE
:104610000C48FFF794FD34B90A480B49FFF78FFDAA
:104620003846FFF7CFFD204603B0BDE8F083074AC8
:104630000124ECE724DA032039370C0002380C009F
:1046400011380C0050E603202A380C0004380C0006
:104650000C380C0070B500250E462C46B3689D4200
:1046600018D2294630460BF0A7FA0378A3F130029E
:10467000092A02D814440135F0E7A3F14102052AC2
:1046800002D8373B1C44F6E7A3F16102052AF2D8B1
:10469000573BF7E7204670BD38B5046805467CB146
:1046A0006368013B63605BB9236820469B68984759
:1046B000A368013BA3601BB923682046DB689847C9
:1046C000284638BD2DE9F0415B495C485C4CA6B0FA
:1046D000FFF735FD01F066FE02F006F9000A2070D2
:1046E00001F060FE02F000F960700BF0EEFC0016C5
:1046F000A0700BF0EAFC0014E0700BF0E6FC001276
:1047000020710BF0E2FC607101F04CFE02F0F1F858
:10471000000AA07101F046FE02F0EBF8E07101F032
:10472000A5FE02F024F8A0F10B0358425841207274
:1047300001F09CFE02F01BF8607201F097FE02F09F
:104740003EF8404BA0721F88012138460BF0CDFE89
:1047500001F08CFE02F010F8002856D101F086FE20
:1047600002F005F805460BF01FFB374903462A46C1
:104770003248FFF7E4FC02230093314933482B46CB
:104780000B2206F0EBFC0646002843D101F06EFE3A
:10479000804601F06BFE01F0EAFF0146404602F060
:1047A00061F8314638460BF0A0FEA27A284B294C1E
:1047B000002A18BF1C4601F059FE01F0FBFF064617
:1047C000254806F0B0FA254A00942B46CDE9016051
:1047D000802106A808F086FD184806A9FFF7AFFC5F
:1047E00008F0B8FC044620B31D4B1E491B788DF819
:1047F000003004A83C2306AA09F098F805A8FFF7A2
:104800004BFF204626B0BDE8F08101F02FFE01F0FD
:10481000B3FFA7E701F02AFE01F0AEFF12490246FE
:104820000648FFF78CFC002138460BF05EFE0024A2
:10483000E7E70124E5E700BF65380C0050E60320F8
:1048400078D803209C480C007E380C0070E10320CF
:104850005E380C005A380C00F4D80320AC380C0039
:1048600071D80320FB380C0002390C002DE9F04709
:10487000BAB00F4610A84449444DDFF83C81DFF838
:104880003C910BF0ACF8414804F0BBF8404A0146BB
:104890000FAB3E4804F01AFA00260F99324628461C
:1048A00004F0D1F80446002868D0014610AB424617
:1048B0002846FFF736FC0AAB4A4621462846FFF752
:1048C00022FC344A09AB21462846FFF71CFC324A39
:1048D0000BAB21462846FFF716FC304A0CAB2146AD
:1048E0002846FFF710FC2E4A14AB2146284604F058
:1048F000EDF920B114990DAA284604F00FF92146CC
:10490000284A0EAB2846FFF7FEFB0B9A099CDDF800
:1049100040A0D31714A80BF0D3FA0E9B0D98069362
:104920000CF05EF80C9B0293149B1F4ACDE9040126
:10493000CDE900A38821234618A808F0D3FC14A8C9
:104940000BF002F8194818A9FFF7F9FB08F002FC70
:1049500088B187B1164B17491B788DF8003018AA1B
:104960003C2314A808F0E2FF15A8FFF795FE4FF4CA
:104970007A7008F00FFD01360A2E8ED110A80AF0C9
:10498000E3FF3AB0BDE8F087F8540C0024DA0320C6
:1049900039370C0029390C000C380C00B1370C00E9
:1049A0002E390C00FD370C0033390C0050E6032083
:1049B00071D803208A390C0048370C0044370C00AA
:1049C00037B504461546019104F0A4FA0199012275
:1049D000204604F00DFA20463A2104F0BDF90449BE
:1049E0002A46204603B0BDE8304004F0F4B900BFC9
:1049F000033A0C0013B5114B114C01221A703223EB
:104A0000009304F12C0104F22C434FF48062204601
:104A100003F0DCFF0B4B23600B4A0C4C0C490D4B95
:104A200012780978204607F08FF80B4800222146BB
:104A300002B0BDE8104006F087BB00BF71D803206C
:104A400024DA03200C3D0C00A2480C00F4D803200B
:104A5000A0480C00E4E4032070E103202DE9F04FAE
:104A600097B004460D4602A8654990460AF0B7FF84
:104A7000294606A80AF0B3FF06A92046FFF7EAFD7B
:104A8000044606A80AF060FF44450BD05D495E4825
:104A9000FFF755FB0B2402A80AF056FF204617B07B
:104AA000BDE8F08F59495848DFF86491DFF874B1D8
:104AB000FFF745FB564803F0A4FF564A014601ABF9
:104AC000534804F003F9002601993246484603F0A2
:104AD000BAFF741C0746A246002876D14E494A48C0
:104AE0003246FFF72CFB4A49009406A804F056FA18
:104AF0002B46009A49494448FFF721FB444803F0FC
:104B000075FF014606A804F084FA7D227B2106A8E1
:104B100004F00BFA009A424906A8FFF751FF06A8D5
:104B200004F0F8F9012206A83E4904F061F906A84C
:104B30003A2104F011F9294606A8012204F058F997
:104B40004246394906A8FFF73BFF0BF0BEFA05467F
:104B500006A804F0DFF9012206A8344904F048F958
:104B600006A83A2104F0F8F82A4606A8304904F0CD
:104B700032F93049032206A8FFF722FF06A804F005
:104B8000C9F9012206A82C4904F032F93A2106A8F5
:104B900004F0E2F89FED290A06A804F0DFF90022EC
:104BA000274906A8FFF70CFF06A804F0E3F806A8BB
:104BB00004F08BFC01F0FEFCD9F8041001F028FD94
:104BC00006A8E4B203F08CFE65E7014602AB484656
:104BD0005A46FFF7A6FA294602A80AF0C6FF40B1D6
:104BE0000F4A0B486B463946FFF78DFA9DF8004097
:104BF00051E7B41C56460A2E7FF466AF73E700BF38
:104C0000F8540C0093390C0050E60320C7390C000F
:104C100024DA032039370C00DA390C00063A0C008C
:104C200029390C0048370C0044370C000C380C00B4
:104C3000C44C0C00B1370C002E390C0000000000F1
:104C4000FD370C0030B52DED028B264D93B0284674
:104C50000C46B0EE408A03F0D4FE234A01466B4670
:104C6000284604F033F8621E0099284603F0EBFE54
:104C70000446002832D001AB1C4A0146284604F005
:104C800025F8294602A804F089F9019902A804F040
:104C900097F90BF01AFA1649024602A804F09BF89D
:104CA00002A804F012FC134A01AB2146284604F086
:104CB0000DF8019902A804F083F9B0EE480A02A8A1
:104CC00004F04CF902A804F000FC01F073FC6968E0
:104CD00001F09EFC02A803F003FE012013B0BDEC1E
:104CE000028B30BD24DA032039370C000C380C005D
:104CF000033A0C002E390C0070B50A2994B00C460A
:104D000016463DDC1F4D284603F07BFE1E4A014639
:104D100002AB284603F0DAFF621E0299284603F030
:104D200092FE044660B30146184A01AB2846FFF7DD
:104D3000EAF9019A164917483346FFF700FA03AB20
:104D4000124A2146284603F0C1FF294604A804F070
:104D500025F9039904A804F033F932460E4904A852
:104D600004F039F804A804F0B0FB01F023FC6968F2
:104D700001F04EFC04A803F0B3FD012014B070BD97
:104D80000020FBE724DA032039370C00B1370C0090
:104D90003A3A0C0050E60320033A0C00F0B5484ABA
:104DA0008DB005AC054602F118032746106851681E
:104DB000264603C608329A423446F7D11378337038
:104DC00001F054FB3F4B597F01F076FD01F04EFBA3
:104DD00001F0CDFC0A2844D8FFF7CAF9044601F0D7
:104DE00045FB01F0C4FC039001F040FB01F0EBFD3A
:104DF000039902462046FFF731FB90BB01F036FBDA
:104E000001F0B5FC304902463B463048FFF797F9C0
:104E100001F02CFB012101F049FD01F027FB0446C4
:104E20000BF053F90246C317204601F0AEFE01F025
:104E30001DFB01F09CFC0B283FD001F017FB01F09B
:104E400096FC039001F012FB01F0B9FC03990246B5
:104E50002846FFF751FF1E4B02221A7001200DB0A9
:104E6000F0BD01F003FB044601F000FB01F07FFC04
:104E70000146204601F0F6FC01F0F8FA044601F084
:104E8000F5FA01F0A0FD394602462846FFF7E6FD97
:104E90000146204601F0E0FC01F0E8FA01F06CFC6C
:104EA000039001F0E3FA01F062FC039A00900949D3
:104EB00006483B46FFF743F9AAE70020CFE700BFCB
:104EC0007CD8032078D803205D3A0C0050E60320FC
:104ED00070D80320883A0C0070B5204D94B0284655
:104EE0000C46164603F08DFD1D4A014602AB2846CE
:104EF00003F0ECFE621E0299284603F0A4FD04466E
:104F000050B30146174A01AB2846FFF7FCF8019A57
:104F1000154916483346FFF712F903AB114A2146EB
:104F2000284603F0D3FE294604A804F037F8039975
:104F300004A804F045F832460D4904A803F04BFFDD
:104F400004A804F0C2FA01F035FB696801F060FBC7
:104F500004A803F0C5FC012014B070BD24DA0320BE
:104F600039370C00FD370C00C33A0C0050E6032023
:104F7000033A0C00F0B52DED028BA9B005460BF0FD
:104F8000A4F8A24C0016A0700BF09FF80014E0707B
:104F90000BF09BF8001220710BF097F8607101F094
:104FA00001FA01F0A6FC000AA07101F0FBF901F082
:104FB000A0FCE07101F05AFA01F0D9FB0B287AD17C
:104FC00001F054FA01F0D3FB914902469148FFF7F2
:104FD000B6F801F04BFA012101F068FC01F046FA45
:104FE00005460BF072F80246C317284601F0CDFDC6
:104FF00001F03CFA01F0DEFB207201F037FA01F01B
:10500000DEFB607201F032FA01F038FEA07201F0AE
:105010002DFA01F0C5FB804BE0721D880121284666
:105020000BF063FA01F022FA01F0A6FB002840F031
:10503000D68001F01BFA01F09AFB04237349009318
:105040000C220346754806F089F80146002840F016
:10505000CB8028460BF049FA01F008FA01F087FBF3
:1050600005906F48A57A247A05F05DFE059B6D4A90
:105070000095CDE90140802108A808F033F9654882
:1050800008A9FFF75CF808F065F80446002800F06E
:10509000BA80654B65491B788DF8003006A83C2323
:1050A00008AA08F043FC07A8FFF7F6FA204629B043
:1050B000BDEC028BF0BD01F0D9F9064601F0D6F93E
:1050C00001F055FB01462846FFF73EFA01463046FF
:1050D00001F0ECFB01F0CAF901F06CFB70B101F0DA
:1050E000C5F901F044FB059001F0C0F901F062FB45
:1050F000059A4F4903464748FFF721F801F0B6F9F2
:1051000001F058FB072861D101F0B0F901F02FFB45
:1051100001462846FFF7DEF9064601F0A7F901F03F
:105120004EFB4449024633463A48FFF708F801F07F
:105130009DF9314601F0C0FB667201F097F901F06C
:1051400016FB002201462846FFF7C6FE01F08EF945
:1051500001F030FB207201F089F901F021FBD8B396
:1051600001F084F901F021FB054601F07FF901F01F
:1051700017FB08EE100A28460BF020FC2E4B0022ED
:105180000BF0D0FAF8EE487A064617EE900A0F4672
:105190000BF026FC02460B46304639460BF0A2FDCA
:1051A000264B00220BF074FC0BF06AFF08EE100A8D
:1051B000FEF7DEFF054601F059F901F0D8FAB0EE2E
:1051C000480A01462846FFF73DFD1BE701F04EF96E
:1051D00001F0F5FA6072B0E79FED198AE8E701F097
:1051E00045F901F0C9FA28E701F040F901F0BFFAEA
:1051F000144902460748FEF7A2FF002128460BF09B
:1052000074F9002452E7012450E700BF78D8032046
:10521000E83A0C0050E603209C480C0070E10320A3
:10522000F4D80320673B0C0071D80320FB380C0036
:10523000143B0C00333B0C000000F03F00005940D1
:1052400000000000B13B0C0070B588B079238DF8E8
:105250001A300DF11F0303930DF11E036B4D0293E2
:105260000DF11D03019307AB009369480DF11B037A
:105270000DF11A02294605F0A5FF08B90020ADE09E
:105280009DF81A300024EC542E8801F08BF801F0C0
:105290002BFB76BAB6B2B04214D001F0E7F801F0B9
:1052A00066FA2B8805905BBA9BB2049301F07AF8FA
:1052B00001F01AFBDDE90432009056495648FEF72A
:1052C0003EFFDBE701F0D2F89DF81B1001F0C4FAB5
:1052D00001F0CCF8214601F0C5FA01F0C7F8698861
:1052E0004E4C4F4D49BA89B201F0E9FB9DF81E3092
:1052F00003F00F03237001F0B9F801F038FA0590BC
:1053000001F0B4F801F05FFB21780490454805EB0B
:10531000011505F008FDDDE904324349CDE90050EF
:105320003D48FEF70CFF01F0A1F801F020FA0A2831
:1053300025D8FEF71DFF054601F098F801F017FA91
:10534000049001F093F801F03EFB049902462846D0
:10535000FFF784F898B935492F48FEF7F0FE01F0C1
:1053600085F8054601F082F801F001FA0146284669
:1053700001F078FA01F07AF80B2101F06DFA237848
:10538000032B2DD1FEF7F4FEFEF7D0FF00283FF4EB
:1053900075AF01F007F801F011FBC0B101F002F8A0
:1053A000054600F0FFFF01F009FB0146284601F029
:1053B0007AFB00F0F7FF002101F07BFB00F0F2FF29
:1053C00001F097FA1A4902461348FEF7B8FE23780F
:1053D000042B11D1FEF7CCFEFFF7CCFD08B070BD59
:1053E000012B04D1FEF7C4FEFFF7D8FCCEE711492C
:1053F0000948FEF7A4FE41E7022B04D1FEF7B8FEF0
:10540000FFF760F9EAE70C49F2E700BF78D803201C
:1054100070E10320DF3B0C0050E6032070D803202E
:1054200084D50320F4D80320393C0C00663C0C00E2
:10543000BA3C0C009A3C0C00EE3C0C00014B1A608C
:10544000704700BFF4D50320014B01221A7070474A
:1054500063E4032030B585B00446089860B1406825
:1054600050B1856845B1CDE90241CDE90023C4685A
:1054700001AB6A4602A9A04705B030BD30B585B082
:10548000006813680193D1E900458368CDE90245BE
:105490000BB90BF035F9C36801AA02A9984705B00A
:1054A00030BD012A02D1016000207047022A04BFEA
:1054B0000B680360F8E703681268D1E90001184738
:1054C00008B5002007F066FE28B107F043FE80F023
:1054D0000100C0B208BD0120FCE710B58368044696
:1054E00013B1032201469847204610BD10B504466B
:1054F00038B1FFF7F2FF20461021BDE81040FEF75B
:10550000CEBD10BD70B5144C144D2378144E022B33
:10551000C2B017D10AF0BCFDA0B92278337805EBF0
:10552000021200920F4A05EB03134FF4807102A898
:1055300007F0D8FE23780C48337002A9FEF7FFFD70
:1055400042B070BD2278337805EB0212009205EB71
:105550000313064AE9E700BF62E40320F8D50320FD
:1055600061E40320243D0C0050E60320443D0C0080
:1055700010B500F017FF01F0BCF904460AF088FDF1
:1055800008B90A2010BD3C2044430AF09EFDB0FB40
:10559000F4F303FB1400201A0928F2D9A04228BF13
:1055A0002046EFE72DE9F04F2DED028BE7B01EAD61
:1055B0000023EB61864B2B60864B6B60864BAB60A8
:1055C000864BEB60864B2B61864B6B61864BAB61E8
:1055D0000446002800F0AA80FEF7CAFD139000F0F0
:1055E00045FF01F0F0F92246034613991AA8FEF789
:1055F000EBFE7E491AA80AF0B8FA044638B11AA898
:105600000AF0A2F967B0BDEC028BBDE8F08F00F0A4
:105610002DFF01F0CAF8804600F028FF01F0C0F825
:10562000DDF868B0824600F021FF01F0D6F9149051
:1056300000F01CFF01F00EFA159000F017FF01F0CA
:10564000BEF8169000F012FF00F056FFB0EE408A50
:10565000F0EE608A00F00AFF01F098F855F820306B
:10566000139300F003FF01F08CF8179000F0FEFE9A
:1056700001F091F8189000F0F9FE01F09BF8054652
:1056800000F0F4FE01F073F8064600F0EFFE01F0C2
:105690009FF9074600F0EAFE01F082F819900AF03F
:1056A00014FD109040460BF089F98046504689461B
:1056B0000BF084F902460B46404649460BF012FBBC
:1056C0004B4B00220BF0E4F90BF0DAFC0BF088F9FD
:1056D000199B484ACDE90B73189B0893179B0793B6
:1056E000139B0693169B0293159B0193149B0093A7
:1056F000CDE90E015B464FF480718DED048B26A839
:10570000CDE9095607F0EEFD04F0E8FD3A4B3B4ABF
:105710001B7812783A49134302688DF800308DF8EF
:10572000044014683C2326AAA04768E702F0E8F882
:105730001AA807F017FD1A9B139300F033FE01F02F
:1057400011F8064600F092FE00F0D6FEB0EE408A58
:10575000F0EE608A00F08AFE01F018F855F820900B
:1057600000F084FE01F00DF8054600F01BFE00F08D
:10577000E5FF074600F016FE00F0E5FF80460AF060
:10578000A4FC139B1F4A00944FF48071CDE909805B
:10579000CDE90146CDE907578DED048BCDF8189082
:1057A00026A807F09FFD1AA80AF0CEF804F096FD8F
:1057B000114B124A1B7812781349134302688DF873
:1057C00000308DF8044014683C2326AAA04719E74E
:1057D000523D0C005A3D0C005E3D0C00673D0C0034
:1057E0006F3D0C007B3D0C00813D0C003F370C00F1
:1057F000000059408D3D0C0025E3032024E30320E5
:10580000503E0C00653E0C00F33E0C0038B5002302
:1058100083608B6804460D462BB102229847EB68E3
:10582000E360AB68A360204638BD00002DE9F0437B
:1058300095B005461C9904A890461F460CAEFFF78C
:10584000E5FF04A908A8FFF7E1FF08A93046FFF724
:10585000DDFF4FF000091020CDF84890FEF71BFC4B
:105860000446A0B196E8030001AB83E8030094E886
:10587000030086E8030093E803000E9BE268A36040
:1058800084E803000F9BCDF838900F92E360244B1F
:105890001393244B1293002200234FF00009C5E913
:1058A0000023214BC5F8089010201094CDE9013950
:1058B000CDF80C90FEF7EFFB0446D8B1129BC0F870
:1058C000089033B1022210A99847139BE360129B02
:1058D000A360164B0393164A029401AB4046394627
:1058E00007F0BEFBB0B12046FFF7F7FD10212046C0
:1058F000FEF7D5FB10A8FFF7F0FD3046FFF7EDFDF2
:1059000008A8FFF7EAFD04A8FFF7E7FD284615B051
:10591000BDE8F083029BAB60C5E90087EAE700BF02
:105920007D540B0035590B0002000C00ED540B00A8
:1059300055540B00012A37B5044604D10B680360A7
:10594000002003B030BD022A0CD0032AF8D104682D
:10595000002CF5D02046FFF7C0FD10212046FEF7B1
:105960009EFBEDE7096801911020FEF794FB0546C8
:1059700010B10199FFF74AFF2560E1E7164B10B51A
:1059800001241C70154B08221A700AF047FD0023F1
:105990001A4619460AF052FD0AF040FD00231A4645
:1059A0000D210AF043FD0E4B1A1D1A600D4A5A6074
:1059B0000022C3E902221A611C750AF00FFE692257
:1059C0000146094801F0FCFF0848062340F8043B63
:1059D000BDE8104003F03ABF24E3032025E3032091
:1059E00058E303201000030038E3032070E3032092
:1059F000F0B500209DB007F0C1F842F210750446E2
:105A0000002007F0BBF8001B61F10001A84271F112
:105A1000000307D20AF040FC0AF033FC10B907F08B
:105A200089FBEDE70AF038FC0AF02BFC01F018FEC8
:105A300001F04AFE00F0B6FC03685F4E1B685F4F42
:105A4000984700F013FD03681B68984700F0B2FD0B
:105A500003681B68984701F037FA01F047FA0823FA
:105A600001213046738102F0A7FC7C21304602F010
:105A7000A5F8534B0693534B099306AD524B08932D
:105A80004FF48022002302A80095FFF7CFFE28469E
:105A9000FFF723FD04F022FC04F026FEFEF768FB6E
:105AA0000121FEF7C3FB04F0B1F84849044628463B
:105AB00003F07EFF07A904F1080009F0CCFF0C9B5E
:105AC000E3610DA904F1200009F0C5FF129B636397
:105AD000149BE363169B6364189BE3641A9B6365E2
:105AE0009DF86C3084F85830284603F01DFD0AF00C
:105AF000ECFAC317C7E91803384604F0FFF80AF0B8
:105B0000C7FA334C002846D03946324A284603F0BB
:105B1000DFFF01231A4610213046069F02F0CFF81E
:105B20002D492E4B3A46002818BF0B462C482D49CC
:105B3000FEF705FB284609F007FF2B4B1E88304671
:105B40000AF0ECFC054668BB28492548FEF7F7FA41
:105B500000F028FC012100F05BFE254B1F8801218D
:105B600038460AF0C2FC4FF4FA6007F013FC2946ED
:105B700038460AF0BAFC0523237000224FF0FF33A9
:105B80001C490092304608F085F923780BB90223AE
:105B900023701DB0F0BD18491148FEF7D0FA052357
:105BA0002370CAE715490E48FEF7C9FA00F0FAFB60
:105BB000002100F02DFEE0E738E3032070E303202E
:105BC0003D540B00B7540B00A3540B00153F0C00C1
:105BD00062E403203C3F0C000B3F0C000E3F0C0026
:105BE00050E60320473F0C009E480C00B63F0C00D7
:105BF0009C480C0049540B00783F0C00DA3F0C0025
:105C00002DE9F043874D2B78013B91B0062B1DD831
:105C1000DFE813F0B6020700450026010202710218
:105C2000E401814B1B78022B01D0FFF76BFC7F4C0A
:105C300023781BB100232370042306E000F0B2FB9D
:105C400000F077FD0128F5D003232B70784802F08F
:105C500061FB04F043FB04F033FA00F0A3FB00F017
:105C6000DBFB00F003FC00F03BFC00F0A3FC00F0C9
:105C7000B3FCFEF77DFAFEF78DFA6E4B1B68002B26
:105C8000C0F2B2826C496D48FEF759FA4FF4FA60DF
:105C900007F080FB11B0BDE8F0430AF022B8624B78
:105CA0001B78032B01D0FFF72DFC00216048644FC7
:105CB000644C01F083FFFFF75BFC80460AF005FAB5
:105CC00000EB0802D3176049009708A80AF09EF974
:105CD000089B02930AF068F8029B5C4900904246D8
:105CE0005648FEF72CFA08A809F02EFE237D002B5B
:105CF00050D002232372564BB3F800902368DB6820
:105D0000F3B19A88012A06D09B68F9E79B68BBB17A
:105D10009A88012AFAD19A894A45F7D100229A73C2
:105D2000237D002B36D023684FF47A70DB6800FBAC
:105D300008F8DBB19A88042A00F051829B68F8E7E2
:105D4000444910200AF0D2FC0646002800F04A829E
:105D5000102200210BF07CFA3F4B33600123B3800B
:105D60002369B360A6F80C902661D9E73949102061
:105D70000AF0BCFC0646002800F034821022002104
:105D80000BF066FA344B33600423B3802369266139
:105D9000C6E902382B4905A809F0A6FF4FF0FF31EC
:105DA000234801F00BFF002006F0E8FE42F21076D7
:105DB0000446002006F0E2FE001B61F10001B04243
:105DC00071F1000307D20AF067FA0AF05AFA10B923
:105DD00007F0B0F9EDE70AF05FFA0AF052FA022391
:105DE0002B70124B01221A700AF06FF916490097B6
:105DF000C317024608A80AF009F9089A029209F0A6
:105E0000D3FF029A154903460C48FEF798F908A8F3
:105E100009F09AFD059800283FF418AF07F042FA00
:105E200014E700BF62E4032061E4032060E4032080
:105E300038E30320F4D5032011410C0050E6032081
:105E400004400C0058E30320A8E6032007400C00A0
:105E50009E480C007C560C001000030047400C00CC
:105E6000B74BB84F1B78042B62D0072B02D006F03B
:105E700075FE3860FFF746FBFEF77AF9FEF78CF9FE
:105E80000AF023F9B04CC317C4E91803204603F005
:105E900035FF04F1680105A803F0C2FD9DF9186003
:105EA00000F080FA00F054FC8642C0F28F8004F1CA
:105EB000680108A803F0B4FD9DF9246000F072FAAF
:105EC00000F04BFC864208A8CCBF0026012603F058
:105ED0001BFB05A803F018FB002E79D000F0C6FAD2
:105EE000012100F049FF00F0C1FA00F0C7FE974B16
:105EF000974A9849002808BF1A4608A8039203F059
:105F00008FFD9DF92430029300F04CFA00F020FC44
:105F1000044600F047FA00F020FCDDE90232CDE94A
:105F200000408D498D48FEF70AF908A803F0ECFA05
:105F3000FEF71EF9FFF788F9D8B100F097FA00F0E4
:105F400039FC029000F092FA00F098FE029A84491F
:105F500003468248FEF7F3F800F088FA00F02AFCC6
:105F6000012806D000F082FA00F088FE08B107236D
:105F70002B7006F0F3FD3B68C01A7A4B98427FF60F
:105F800065AEFEF7F5F8FEF70DFBFEF7F1F8FEF74C
:105F900013F9FEF7EDF80021FEF768FC00F00AFBAC
:105FA00003680121DB6898470AF0A0F8044600F076
:105FB000F9F900F0B3FD09F05FFF844204D000F06E
:105FC00055FA00F05BFE38B902233EE6002680E772
:105FD00000F04CFA314684E7052336E6584B1B782F
:105FE000072B01D0FFF78EFA00F040FA00F0BFFB5C
:105FF000FFF7D8FA00F03AFA002100F057FC00F061
:10600000D1F9044600F0CEF900F09DFB0130C1B299
:10601000204600F009FC0FE6494B534C1B78052B3A
:1060200027D0FFF76FFA00F0BDF900F077FD09F017
:106030002BFF4849064608A803F00FFD9DF82330C2
:10604000B6EBD30F07D000F011FA00F0A3FD4749DB
:106050004248FEF774F800F0A5F900F065FBFFF781
:10606000A1FA07F077F808B907F06CF806F076FDAA
:10607000206007F06FF838B300F094F906460AF094
:1060800024F80246C317304600F070FD00F08AF98C
:10609000064606F063FD2168411A4FF47A70B1FBA1
:1060A000F0F1304689B200F0F8FC07F053F8C8B1BF
:1060B00007F050F810B1002007F064F8FFF700FA7D
:1060C00050B907F037F8F9E706F048FD2368C01A21
:1060D000274B9842D0D8B9E5FFF7F2F9254908A82F
:1060E00007F0D2F900F05EF900F023FB01283FF43D
:1060F000A3AD0623A9E5124B1F4C1B78062B04D039
:10610000FFF700FA06F02AFD206006F027FD23685D
:10611000C01A1A4B98427FF699AD04F0DFF890F858
:10612000B330002B3FF492AD00F03CF900F001FBDE
:1061300000287FF449AF00F0C7FE01F0F9F943E70A
:1061400061E403202CE3032070E30320FD3F0C00F7
:10615000F83F0C00D8E3032068400C0050E6032011
:10616000B1400C00F049020030E30320DB400C009A
:10617000C02709000CE6032034E30320905F0100F0
:106180001B4C1C4E2378BFF35B8F13F0010F09D11A
:106190002046FDF793FF28B106F0E0FC3060204672
:1061A000FDF791FF144B2A781B789A4201D0FFF734
:1061B000A9F906F0D3FC3368C01A47F2305398426D
:1061C0007FF644AD0D490E48FDF7B9FF4FF4FA6074
:1061D00007F0E0F81E210B4801F04AFE36E5C3F84F
:1061E0000C80D7E52675D5E511B0BDE8F08300BF7A
:1061F00020E3032028E3032061E40320FA400C009D
:1062000050E6032038E3032010B5034B0360044637
:1062100003F022FE204610BDA8430C0010B5044632
:10622000FFF7F2FF20461021FDF739FF204610BD91
:1062300010B506F087FB054B054A0649041E08BF4A
:106240001A460548FDF77BFF204610BD2D410C0086
:1062500031410C0037410C0050E6032010B50368B3
:1062600004460BB906F02AFC2068BDE8104006F091
:1062700035BC38B504460430FFF7F0FF606AA16A08
:106280000368DD68D4E90223A847606806F02EFCA5
:106290002046BDE8384006F071BA38B504460430EF
:1062A000FFF7DCFF606AA16A03689D68D4E90223F6
:1062B000A847A2682368D1885B692046984718B927
:1062C000236820469B699847606806F00FFC012010
:1062D00038BD000010B5044B03600446406808B1A7
:1062E00006F0F4FB204610BD70530C0010B5034BB4
:1062F00003600446FFF7EEFF204610BDF0430C009C
:1063000010B50446FFF7F2FF20467021FDF7C7FEE7
:10631000204610BD10B5034B03600446FFF7DAFFBB
:10632000204610BD1C440C0010B50446FFF7F2FFD8
:1063300020467821FDF7B3FE204610BD10B5034B73
:1063400003600446FFF7C6FF204610BDC4430C009F
:1063500010B50446FFF7F2FF204640F23C41FDF73E
:106360009EFE204610BD000000F1300181600A4908
:106370004FF0400CC0E903C1012181824FF47A71D2
:10638000C16106490022C0E909124260826180F8B9
:106390002020034A02607047769EA92070E4032003
:1063A000F0430C0010B5064C23683BB97020FDF794
:1063B00072FE034608B1FFF7D7FF2360206810BDC7
:1063C00068E4032010B5406A03F05CFDFFF7EAFFC4
:1063D0004FF4FA720368C2615B6898470B490C4836
:1063E0004022FDF7ACFEFFF7DDFF036840215B694B
:1063F000984750B907490648FDF7A1FEFFF7D2FFBD
:106400000368BDE810409B69184710BD49410C0066
:1064100050E603205D410C0010B5FFF7C3FF036891
:10642000BDE81040DB6800211847000000F1300192
:10643000002281600A4942604FF0480C826180F876
:106440002020084A4262C0E903C1642201218182FE
:1064500082624FF47A71044AC1610260704700BFE2
:10646000769EA92070E403201C440C0010B5064C55
:1064700023683BB97820FDF70EFE034608B1FFF70D
:10648000D5FF2360206810BD6CE4032010B5406A7E
:1064900003F0F8FCFFF7EAFF4FF4FA720368C261F9
:1064A0005B6898470B490C484822FDF748FEFFF708
:1064B000DDFF036848215B69984750B907490648E2
:1064C000FDF73DFEFFF7D2FF0368BDE810409B6972
:1064D000184710BD89410C0050E60320A1410C0073
:1064E00010B5FFF7C3FF0368BDE81040DB6800216B
:1064F000184700000000000010B504462DED028B87
:106500000430FFF7ABFEE368083B172B0CD9A368F8
:1065100093ED068B606806F0E9FAB0EE480AF0EEFB
:10652000680ABDEC028B10BD9FED018BF2E700BF46
:106530000000000000000000F8B50446043057ECED
:10654000106BFFF78BFEE368083B172B0CD9A5688F
:106550003046D5E9062339460AF002FD20B9C5E9DF
:106560000667204606F0B2F96068BDE8F84006F01C
:10657000BDBA000000F12C01002281600A4942608E
:106580004FF4826C826180F82020084A4262C0E9A0
:1065900003C1C8220221818282624FF47A71044AC7
:1065A000C1610260704700BF609EA92070E40320B3
:1065B000C4430C0010B5074C236843B940F23C407B
:1065C000FDF769FD034608B1FFF7D4FF236020689B
:1065D00010BD00BF64E4032010B5FFF7EBFF0368B4
:1065E000BDE81040DB6800211847000038B50446BC
:1065F0000D46064909F0F3F923464FF48062102155
:10660000284606F0F1F8204638BD00BFF8540C00CB
:106610000B464FF48062102106F064B91FB50A4999
:10662000684609F0DCF9009A08490948FDF787FD3A
:10663000FFF7C0FF0099FFF7EBFF684609F084F908
:1066400005B05DF804FB00BFCB410C00D8410C0045
:1066500050E6032070B5104904461048FDF76FFD61
:10666000C825606A03682946DE68FF2202230135D7
:10667000B047B5F59B6FF4D109490848FDF75FFDB8
:10668000204606F0C5F92046FFF7C8FF2046BDE8C2
:10669000704006F01BB900BFF6410C0050E6032025
:1066A0000A420C0010B50446406A03F0EBFB20469A
:1066B000FFF7D0FFFFF77EFF4FF4FA720368C26165
:1066C0005B6898470C490D484FF48262FDF737FD2F
:1066D000FFF770FF03684FF482615B69984750B918
:1066E00007490648FDF72BFDFFF764FF0368BDE887
:1066F00010409B69184710BD1C420C0050E6032057
:1067000031420C0038B5044604300D46FFF7A6FDB3
:10671000E3686068013BAB4226BFA3685D5D00256E
:1067200006F0E4F9284638BD08B51021FFF7EAFF66
:1067300008BD08B51421FFF7E5FF08BD08B5152110
:10674000FFF7E0FF08BD08B51621FFF7DBFF08BD26
:1067500008B53821FFF7D6FF08BD08B53921FFF786
:10676000D1FF08BD08B53B21FFF7CCFF08BD08B538
:106770001021FFF7C7FF08BD08B51121FFF7C2FFC1
:1067800008BD08B51421FFF7BDFF08BD08B52021DD
:10679000FFF7B8FF08BD08B52121FFF7B3FF08BD1B
:1067A00008B52421FFF7AEFF08BD08B52521FFF786
:1067B000A9FF08BD08B53421FFF7A4FF08BD08B53F
:1067C0004121FFF79FFF08BD70B5044604300D4618
:1067D0001646FFF743FDE368013BAB4207D3A368CE
:1067E0005A5DB24203D05E55204606F06FF86068ED
:1067F000BDE8704006F07AB908B50A461021FFF7E7
:10680000E3FF08BD08B50A461121FFF7DDFF08BD0B
:1068100008B50A461421FFF7D7FF08BD08B50A4698
:106820001521FFF7D1FF08BD08B50A461621FFF76D
:10683000CBFF08BD08B50A462E21FFF7C5FF08BDEE
:1068400008B50A463821FFF7BFFF08BD08B50A465C
:106850003921FFF7B9FF08BD08B50A461021FFF737
:10686000B3FF08BD08B50A461121FFF7ADFF08BD0B
:1068700008B50A461421FFF7A7FF08BD08B50A4668
:106880002021FFF7A1FF08BD08B50A462121FFF727
:106890009BFF08BD08B50A462421FFF795FF08BDF8
:1068A00008B50A462521FFF78FFF08BD08B50A463F
:1068B0003421FFF789FF08BD08B50A464121FFF7DB
:1068C00083FF08BD38B5044604300D46FFF7C6FC0B
:1068D000E3686068023BAB4226BFA3685D5B0025AE
:1068E00006F004F9284638BD08B51221FFF7EAFF83
:1068F00008BD08B52A21FFF7E5FF08BD13B506F06E
:1069000021F80446A8B1FFF74DFDFFF721FF0C2841
:1069100011D9FFF747FDFFF71BFF0190FFF742FD7D
:10692000FFF71BFF019A1D4903461D48FDF707FCB1
:1069300000241C4A1AE0FFF735FDFFF70EFF0B2875
:10694000E7D9FFF72FFDFFF7D4FFB0B1FFF72AFD1E
:10695000FFF7CFFF3C2810D8FFF724FDFFF7E4FE38
:10696000A8B911490E48FDF7EAFB104A10490C4836
:10697000FDF7E5FB204602B010BDFFF713FDFFF762
:10698000B8FF0C4902460648FDF7D9FBD0E7FFF7F0
:1069900009FDFFF7C9FE08490246F4E75A420C0018
:1069A00050E603202D410C00CA420C0031410C007E
:1069B000E2420C0086420C00AB420C0008B52C21D0
:1069C000FFF780FF08BD08B51221FFF77BFF08BD68
:1069D00008B52221FFF776FF08BD08B53021FFF783
:1069E00071FF08BD10B505F0ADFF0446A0B1FFF77B
:1069F0003DFDFFF7F2FFFFF739FDFFF7EEFFB0F5C2
:106A0000806F0BD9FFF732FDFFF7E7FF0B49024616
:106A10000B48FDF794FB00240A4A09E0FFF726FD26
:106A2000FFF7DBFF084902460548FDF788FB074AE8
:106A300007490348FDF783FB204610BDF7420C00D1
:106A400050E603202D410C001D430C0031410C0089
:106A500042430C0008B53221FFF734FF08BD70B582
:106A6000044604300D461646FFF7F8FBE368023B88
:106A7000AB4207D3A3685A5BB24203D05E532046B1
:106A800005F024FF6068BDE8704006F02FB808B537
:106A90000A461221FFF7E3FF08BD08B50A46282180
:106AA000FFF7DDFF08BD08B50A462A21FFF7D7FF2B
:106AB00008BD08B50A462C21FFF7D1FF08BD08B56F
:106AC0000A461221FFF7CBFF08BD08B50A4622216E
:106AD000FFF7C5FF08BD08B50A463021FFF7BFFF25
:106AE00008BD08B50A463221FFF7B9FF08BDF8B561
:106AF000044604300D46FFF7B1FBE3686068083BCD
:106B0000AB4223BFA1684919D1E90067002638BF0D
:106B1000002705F0EBFF30463946F8BD08B52021C7
:106B2000FFF7E5FF08BDF8B5044604300D461E46E4
:106B30001746FFF793FBE368083BAB420CD3A3680F
:106B40005A1958595168B14208BFB84204D05F5130
:106B50002046566005F0BAFE6068BDE8F84005F0D2
:106B6000C5BF08B51821FFF7DEFF08BD08B5202115
:106B7000FFF7D9FF08BD08B53021FFF7D4FF08BDE6
:106B800008B52821FFF7CFFF08BD08B53821FFF76A
:106B9000CAFF08BD10B524492448FDF7D0FAFFF715
:106BA00065FC0B21FFF758FEFFF760FC0021FFF7A3
:106BB00059FEFFF75BFC0021FFF781FFFFF756FC52
:106BC0000021FFF773FEFFF751FC00220023FFF7BF
:106BD000DCFFFFF74BFC0021FFF783FFFFF746FCCC
:106BE0000021FFF778FFFFF741FC0021FFF752FE7D
:106BF000FFF73CFC0021FFF753FEFFF737FC04468C
:106C000009F063FA0246C3172046FFF7B9FFFFF702
:106C1000C9FB0021FFF702FEFFF7C4FBBDE81040EF
:106C20000021FFF701BE00BF55430C0050E60320D2
:106C300010B5044605F0ECFE05490648FDF77FFA5D
:106C40002046FFF7A7FF2046BDE8104005F03EBEF6
:106C500076430C0050E6032038B5044604300D4658
:106C6000FFF7FCFAE3686068013BAB4226BFA3680C
:106C70005D5D002505F03AFF284638BD08B5402186
:106C8000FFF7EAFF08BD70B5044604300D4616460E
:106C9000FFF7E4FAE368013BAB4207D3A3685A5D10
:106CA000B24203D05E55204605F010FE6068BDE894
:106CB000704005F01BBF08B50A463A21FFF7E3FF15
:106CC00008BD000010B5044605F0A2FE2849294879
:106CD000FDF735FAFFF766FB0021FFF78DFDFFF7A3
:106CE00061FB0121FFF78EFDFFF75CFB46F6E1310A
:106CF000FFF7CDFEFFF756FB0021FFF789FDFFF7F9
:106D000051FB0021FFF78AFDFFF74CFB0021FFF745
:106D10008BFDFFF747FB00220023FFF722FFFFF761
:106D200041FB3C21FFF7BFFEFFF73CFB0021FFF7D3
:106D3000C0FEFFF737FB0021FFF77CFDFFF732FBBA
:106D400000220023FFF717FFFFF72CFB0621FFF7B8
:106D500077FDFFF727FB1621FFF778FDFFF722FBF2
:106D60000021FFF7A8FF2046BDE8104005F0AEBDAA
:106D70008F430C0050E6032008B50A464021FFF778
:106D800082FF08BD10B509F029FC054C014600231F
:106D90004FF40052204603F06BF8024B236010BD05
:106DA00070E40320A8430C007047006A0368DB68A6
:106DB0001847704710B504210446FDF770F92046C6
:106DC00010BD000010B5034B0360044601F09CFDAC
:106DD000204610BD50480C0010B50446FFF7F2FFE6
:106DE000204640F62C11FDF75AF9204610BD7FB51C
:106DF00002685368906814685E1000EB6305DB0757
:106E000048BF8359684648BF1C5908F019FE6946B7
:106E10002846A0470446684608F096FD204604B080
:106E200070BD012A38B5044602D10B68236003E027
:106E3000022A03D0032A0DD0002038BD0C200D6893
:106E4000FDF729F903460028F0D095E8070083E80C
:106E50000700EBE700680028EED00C21FDF71FF9D2
:106E6000EAE737B51D4601AB044601F02FFF20B11C
:106E700001992A46204601F00BFF03B030BD000007
:106E80000A4B10B50446036007F0D2FB214607F019
:106E9000D6FD09F001FA09F0F1F92046044B40F85B
:106EA000043B07F067FC204610BD00BF38480C00CB
:106EB00020480C0010B50446FFF7E2FF20462421CD
:106EC000FDF7EDF8204610BD10B5064C236833B928
:106ED0000420FDF7E0F808B1034B03602060206850
:106EE00010BD00BF90E4032060480C0030B5194984
:106EF00085B004461848FDF722F900250C200295BC
:106F0000FDF7C9F818B1154B8460C0E90035144B82
:106F1000009003931020134B0293FDF7BCF8044636
:106F200078B100238360029B33B1022269469847FF
:106F3000039BE360029BA3600B4A0C48214606F0CA
:106F4000E4FB029B1BB1694603220846984705B043
:106F500030BD00BF40440C0050E60320716F0B00B1
:106F6000EF6D0B00236E0B006E440C00E3D60B009C
:106F70002DE9F04FADF6B41D0C4609A8A84908F05C
:106F80002EFDA7490DA808F02AFD50234FF480627A
:106F900000932CA90DF5966321A801F017FDA14BD4
:106FA0002168A1482193FDF7CAF821A801F004FD4A
:106FB0002168039108460AF016FA0399024621A8AF
:106FC00001F0DDFC21A802F033FA044690B997499C
:106FD0009548FDF7B4F8964B944A1B788DF800302D
:106FE00011A894493C2306F0A1FC12A8FDF754FB1C
:106FF000254617E021A801F004FD8E4A8E4FDFF8E8
:107000008C82DFF88C92014606AB21A801F05EFE6F
:10701000002506992A4621A801F015FD064678B9F3
:10702000002DE5D121A8FFF7CDFE0DA808F08CFCBE
:1070300009A808F089FC28460DF6B41DBDE8F08FBC
:10704000014607AB3A4621A801F040FE20B107995E
:1070500004AA21A801F050FD09AB4246314621A8FF
:10706000FFF7FFFE314621A80DAB4A46FFF7F9FEB8
:1070700072490DA808F079FD002863D0049B002B0D
:1070800045D16F4909A808F070FD18B36D4911A8E2
:107090000AF083F9FFF78EFAFFF7C0FAFFF7E6F977
:1070A000FFF778FD604811A9FDF749F806F052F89E
:1070B00060B15F4B5F491B788DF8003007A83C2317
:1070C00011AA06F033FC08A8FDF7E6FA01350A2DEF
:1070D0009FD18DE75C4909A808F047FD90B15B4955
:1070E00011A80AF05AF9FFF75DF903689B69984700
:1070F000FFF7BCF9FFF74EFDFFF75CFA03689B69E9
:107100009847CBE7524911A80AF047F9C6E74E491C
:1071100009A808F02AFD049B58B14E4A402111A845
:1071200006F0E0F8FDF724F805220499FDF7D4FEF7
:10713000B8E7494A402111A806F0D4F8FDF718F83D
:107140000622F2E745490DA808F00FFD00B30998A3
:107150000A2205A90BF0B8F8431E3B2B064611D8AE
:107160003C2393FBF0F343433C2B0BD103463C4AB7
:10717000402111A806F0B6F8FFF714F9B1B2FFF7F5
:1071800098FC8FE7374911A80AF007F9002489E72E
:1071900035490DA808F0E9FCB8B1344909A808F050
:1071A000E4FC064648B1324911A80AF0F6F8FFF7A8
:1071B000F9F80121FFF72CFB74E72E4911A80AF01A
:1071C000ECF8FFF7EFF83146F4E72B490DA808F08B
:1071D000CCFC48B1294911A80AF0DFF8FCF7C8FF38
:1071E0000121FDF743FB5DE725490DA808F0BDFC33
:1071F00000284FD009980A2205A90BF065F80C2841
:1072000006460BD803461F4A402111A806F06AF82B
:10721000FFF7C8F8F1B2FFF713FB43E71A49B2E7EB
:10722000F8540C0050480C0050E603207F440C003A
:107230008CE403209D440C0029390C00A8440C0068
:107240008A390C00AE440C00D0440C00D4440C002D
:1072500004450C0029450C0055450C0076450C00F2
:107260007B450C00A5450C00C5450C00CA450C002B
:10727000CF450C0003460C0025460C0029460C00A7
:10728000F83F0C003E460C005C460C00A1440C008C
:10729000A5440C0031490DA808F067FCB8B1099865
:1072A0000A2205A90BF010F8A0F10D030B2B0646DE
:1072B0000BD803462A4A402111A806F013F8FFF71D
:1072C00071F8F1B2FFF7C2FAECE626495BE726490E
:1072D0000DA808F04AFCE0B109980A2205A90AF0B5
:1072E000F3FF0228064612D8049B204A009340214F
:1072F000034611A805F0F6FFFCF73AFF0499324661
:10730000FDF7FAFC38B3FCF733FF07220DE7184905
:1073100039E718490DA808F028FCD0B109980A22CD
:1073200005A90AF0D1FF0128064610D8124A134BCE
:107330004021002808BF1346114A11A805F0D2FFCA
:10734000FFF730F806F00101FFF7B5FCAAE60D499A
:1073500019E70D4917E70446A4E600BF75460C007F
:107360007B460C0099460C00B1370C00B4460C006B
:10737000DA460C00F5460C0092470C0077440C00EE
:10738000F9460C000B470C003B470C0070B5D0E9E8
:1073900000531426044606FB0356AE4204D028468A
:1073A00008F0D2FA1435F8E7206805F07BFF204694
:1073B00070BD8842F8B504460D46164616D990426F
:1073C00015D2A2F11406751AA1F114072C44B74284
:1073D0001CD02CB13146204608F032FB337C23749C
:1073E000304608F0B1FA143E143CF0E70ED0B54236
:1073F0000CD02CB12946204608F022FB2B7C2374AC
:10740000284608F0A1FA14351434F0E7F8BD2DE948
:10741000F0410023C0E9003383604F689F42044677
:107420000E4623DD4FF0140808FB07F005F032FF8D
:107430000546D8B1D4E9001208FB0212FFF7B9FFE4
:10744000206805F02FFF2560A760D6E9007308FBD0
:107450000378B84508D03946284608F00BFB3B7C3A
:107460002B7414371435F4E7736863602046BDE865
:10747000F081000070B5274B274A01251D70274B6E
:1074800000248CB09A60C3E90044022005F0D8FDC6
:107490002146284605F0ECFD2946042005F03EFB78
:1074A000CDE90044029408F0F7FE1D4C05466946FC
:1074B00003A8FFF7ACFF264603A906A8FFF7A7FF1E
:1074C000184B46F8043B06A909A8FFF7A0FF09AA34
:1074D0001E21304607F096FB09A8FFF757FF06A8C4
:1074E000FFF754FF104B2360256203A8FFF74EFF00
:1074F0000E4B236008F0D0FE4FF4165108F0BAFE90
:1075000007F096F8214607F053FA6846FFF73EFF6A
:107510000CB070BD8CE403200000FFFF80E403206A
:1075200094E4032020480C0028550C0038480C0037
:107530002DE9F04385B008F0C8FD414905464148B2
:10754000FCF7FDFD002401A8CDE90144ADF80C4095
:1075500006F0ECF8204605F011FB43F698260446A9
:10756000002005F00BFB031B61F10001B34271F138
:10757000000305D205F0EEFD10B105F0DBFDEFE7ED
:1075800005F0E8FD05F0EAFA2F4F386005F0D2FD6E
:1075900005F0E0FD044640B12C492A48FCF7CFFD38
:1075A0000024204605B0BDE8F08308F08EFD284990
:1075B000DFF8A080421B2348FCF7C1FD08F085FDE1
:1075C000224602210646D8F8040005F013FED8F83A
:1075D000040023462246214605F024FE204605F0FD
:1075E000CDFA47F230590546002005F0C7FA431B93
:1075F00061F100014B4571F1000306D2404607F0EE
:107600001FFE10B905F096FDEEE7124807F018FED0
:1076100005F0A4FA386005F08DFD0E4807F00CFE69
:1076200020B10D490748FCF78AFDBAE708F04DFD87
:107630000A49821B0348FCF782FD0124B1E700BF21
:107640004F470C0050E6032010E7032078470C005A
:107650009B470C000CE60320C4470C00EA470C00D3
:1076600008B517491748FCF76AFD0221042008F005
:107670002BFF0021082008F027FF0121072008F038
:1076800023FF0021122008F01FFF0121112008F024
:107690001BFF0121102008F017FF0021102008F027
:1076A00024FF0021112008F020FF0121062008F00E
:1076B0000BFF0121062008F018FF012008BD00BFC4
:1076C00068480C0050E6032010B51849184890B0DF
:1076D0002024FCF734FD22460021684609F0B8FD5D
:1076E000224600210DEB04008DF8054009F0B0FDA5
:1076F00000210DEB04008DF8254005F0F5FC41F26A
:10770000D833ADF806300B4B029341F27003ADF85D
:107710000C30009B002143F400736846009305F091
:10772000E3FC003818BF012010B010BD81480C00E8
:1077300050E603208403840307EE900A9FED097A44
:10774000F8EEE77A67EE877A9FED077A87EE870A89
:10775000DFED067A70EE677AB2EE040A87EE800AF1
:10776000704700BF00404E4500F07F450000FA43DF
:1077700013B5012101A807F0F8FDFEF777FEFFF72A
:1077800000F8FEF773FEFEF7FCFF252801A80DD9CF
:1077900007F07EFEFEF76AFE0121FFF76FF8002476
:1077A00001A807F0F1FD204602B010BD07F055FE1C
:1077B0000124F5E730B51B4D0FCD9BB010AC0FC4C5
:1077C0000FCD0FC495E8030084E80300164908A80C
:1077D00005F05AFE08A805F09AFE044608A805F030
:1077E000CFFE08A810EE105A05F0FAFE1AAB10EE04
:1077F000100A03EB840409F0F3F8CDE902012846EE
:1078000009F0EEF8CDE90001102154F8283C074AB0
:107810000DEB010005F066FD054804A9FCF78FFC9F
:107820001BB030BD28490C000CE60320E6480C00D4
:1078300050E6032030B585B00D460022694600921F
:1078400005F0ECFB90B9009C0CB1236923B9084A00
:1078500008490A2005F0AAFB0C23CDE901350423D1
:10786000039301AA236901212046984705B030BD42
:107870004DCB0B00FF480C0013B5FEF7F7FD01A937
:1078800004460720FFF7D6FF011EA8BF0199204636
:10789000C9B2FEF7F3FF184806F042FA4FF4FA7047
:1078A00005F078FDFEF7E2FD01A904460320FFF78D
:1078B000C1FFE8B9BDF8043007EE903AFBEECC7A90
:1078C00017EE900A09F08CF841EC100B2046FEF7F9
:1078D00033FEFEF7CBFDFEF70FFE084B51EC100B0D
:1078E000002209F065FB003818BF012002B010BD6E
:1078F000FFEE007AE4E700BFB8E4032000004E404A
:1079000013B5FEF7B3FD0F4B0446188808F019FEB7
:10791000FFF712FFFDEEC07A2046CDED017A9DF80B
:107920000410FEF7A5FFFFF7A7FFFFF721FFFEF703
:1079300039FDFEF7F9FE08B9FFF73CFF012002B060
:1079400010BD00BFA6480C000148002106F0A4B9F4
:10795000B8E40320704710B520210446FCF79FFBD4
:10796000204610BD10B504468AB008464FF0200CE2
:107970000021CDE90023CDE902C10B4602AA21680E
:1079800005F024FB0AB010BD0EB403B503AB3221E1
:1079900053F8042B0193FFF7E5FF02B05DF804EB09
:1079A00003B070470EB403B503AB012153F8042BA9
:1079B0000193FFF7D7FF02B05DF804EB03B0704707
:1079C00010B50272FF2242810022C0E90322426107
:1079D0000276C261024A034C1060C0E9004110BD4A
:1079E000C4E40320A04B0C002DE9F8439DF820804F
:1079F0000446894616461F46B8F1000F02D040687B
:107A000006F034FA217A606806F00DFA60680368BF
:107A100049469B6898476068002106F023FA0546AE
:107A200000BB0123217A60683A4606F0EAF98742F2
:107A3000034609D13744BE421CD0606803685B69C5
:107A4000984706F8010BF6E70B490C484A46FFF742
:107A50009BFFB8F1000F02D0606806F010FA2846CC
:107A6000BDE8F8830346064904484A46FFF78CFF01
:107A70000025EEE70125ECE750490C00C0E40320A7
:107A800075490C0007B500930123FFF7ADFF03B064
:107A90005DF804FB73B54389FF2B044610D0194EE3
:107AA000194D05F05BF8B0F57A7F09D2608908F0CE
:107AB00035FD012804D031462846FCF740FBF0E7AD
:107AC00001230DF1070228212046FFF7DBFF30B923
:107AD0000D480E49FCF733FB002002B070BD9DF845
:107AE0000730182BF4D101230DF10702292120467C
:107AF000FFF7C8FF0028EBD09DF80730052BE7D132
:107B0000EBE700BF99490C00C0E40320AE490C002C
:107B100007B5134600228DF807200DF10702FFF785
:107B2000B1FF9DF8070003B05DF804FB2DE9F041BB
:107B30009DF8188004460F4615461E46B8F1000F02
:107B400002D0406806F092F9217A606806F06BF97D
:107B50006068036839469B6898472E44B542606860
:107B600005D0036815F8011B9B689847F6E70121CB
:107B700006F078F9034670B1084909483A46FFF71C
:107B800003FF0025B8F1000F02D0606806F077F916
:107B90002846BDE8F0810125F4E700BFBB490C0091
:107BA000C0E403201FB58DF80F2000930DF10F02E4
:107BB0000123FFF7BBFF05B05DF804FBF8B50A46EB
:107BC0000C4605461A491B48FCF7B9FA002CB8BF09
:107BD000EC687CB9012322461B212846FFF7E2FF0F
:107BE0001549024606461348FFF7DCFEEC606C615F
:107BF0003046F8BD032C19DDA7101F2FA8BF1F2783
:107C0000BA0062F07C020123D2B21B212846FFF7A2
:107C1000C9FF3A460346094906460648FFF7C2FE31
:107C20004FF4FA635F43EC606F61E1E70127E7E738
:107C3000E0490C00C0E40320EA490C00064A0C00AD
:107C4000064B1A684AB1A0F500630B4305D1D3680F
:107C50001BB100211046FFF7B1BF7047C4E40320F9
:107C60002DE9FF419DF82880054616461F46B8F1CC
:107C7000000F04D04068019106F0F8F801990191D5
:107C800000230DF10F022846FFF7FCFE044660B109
:107C90009DF80F3003EA06023A43934205D001995A
:107CA00000232846FFF77EFF0446B8F1000F02D0FC
:107CB000686806F0E4F8204604B0BDE8F08113B52A
:107CC00014460DF10702FFF7DDFE28B19DF80730DD
:107CD0001C420CBF0120002002B010BD13B5144699
:107CE0000DF10702FFF7CEFE28B19DF807301C42C8
:107CF00014BF0120002002B010BD07B5D24300938D
:107D0000D2B20023FFF7ACFF03B05DF804FB000024
:107D100037B501230DF107020F210446FFF7B2FE2C
:107D2000054638B91E491F48AD22FFF72DFE2846EB
:107D300003B030BD9DF8073013F0200F4FF0010362
:107D40000BD02022E3610F212046FFF7D6FF164A11
:107D500016491448FCF7F3F9E9E7082217212046F1
:107D6000FFF7BCFF18B10223114AE361F0E79DF869
:107D700007301A0709D50323E361082201230F21E5
:107D80002046FFF7BAFF0B4AE2E75B07CFD5042294
:107D9000E26101230F212046FFF7AFFF064AD7E734
:107DA000594A0C00C0E403202A4A0C00784A0C000F
:107DB000334A0C00434A0C00534A0C0007B50093A9
:107DC0001346FF22FFF74CFF03B05DF804FB0000F1
:107DD000F8B50F461646012300220F210546FFF78E
:107DE000E1FE044638B94FF425721F491F48FFF7DA
:107DF000CBFD2046F8BD0123232218212846FFF79A
:107E0000D1FE044610B940F29B22EEE7FF2FA8BF37
:107E1000FF27012FB8BF01270123FAB219212846F5
:107E2000FFF7C0FE044610B94FF42A72DDE70123C4
:107E3000082212212846FFF7C1FF044610B940F27C
:107E4000AF22D2E7002E14BF03220222012342F008
:107E5000800218212846FFF7A5FE04460028C8D155
:107E600040F2B922C1E700BF894A0C00C0E40320F8
:107E70002DE9F7430A4605460F464F484F49FCF7A0
:107E80005EF900212846FFF799FE044648B940F202
:107E9000F7124B494848FFF777FD204603B0BDE88D
:107EA000F08301231A4630212846FFF787FF044656
:107EB00010B940F20522ECE71022012311462846B2
:107EC000FFF71BFF044610B94FF40372E1E70123EB
:107ED000262213212846FFF765FE044610B940F21A
:107EE0001322D6E7012600963346FC2211212846AC
:107EF000FFF7B6FE044610B940F21B22C9E7002284
:107F000039462846FFF764FF044610B940F22222A2
:107F1000BFE700960223772210212846FFF7A0FE34
:107F2000044610B940F22B22B3E7334604221C2149
:107F30002846FFF743FF044610B940F23222A8E773
:107F400000961823E32211212846FFF789FE0446F4
:107F500010B940F239229CE73346C0221721284647
:107F6000FFF720FE044610B94FF4107291E704F0B9
:107F7000F5FDDFF85490DFF840804FF47A71064643
:107F80004F4304F0EBFD801BB8420ED201221721B3
:107F90002846FFF7BDFD494602464046FCF7CFF8AC
:107FA0004FF47A7005F0F6F9EBE706490248FFF75F
:107FB000EBFC07F096FE70E7C0E40320B44A0C0027
:107FC000A94A0C00DA4A0C00C54A0C002DE9F34717
:107FD0009DF828A005460C4691461F46BAF1000FB1
:107FE00002D0406805F042FF07B3202F3E4628BF6D
:107FF00020267F2C26D83319802B01D9C4F1800686
:10800000012304223F212846FFF777FE002364F076
:108010007F0100934A463346C9B22846FFF7E4FC85
:10802000804628B13444BF1BB144DDE74FF001085E
:10803000BAF1000F02D0686805F021FF404602B097
:10804000BDE8F087012304223F212846FFF7B6FE52
:10805000DCE72DE9F3479DF828A005460C4691463C
:108060001F46BAF1000F02D0406805F0FFFE07B3CB
:108070001F2F3E4628BF1F267F2C26D83319802B62
:1080800001D9C4F18006012304223F212846FFF7CD
:1080900034FE002364F07F0100934A463346C9B2A0
:1080A0002846FFF743FD804628B13444BF1BB14446
:1080B000DDE74FF00108BAF1000F02D0686805F063
:1080C000DEFE404602B0BDE8F087012304223F21D6
:1080D0002846FFF773FEDCE730B585B00D68D1E9BF
:1080E000043203954D6802958D680195C968009129
:1080F0000133044902F26C72044607F08BFD2046FE
:1081000005B030BDEC4A0C0003090A2200F00F0054
:1081100002FB0300704738B5044600781546FFF7A8
:10812000F3FF08606078FFF7EFFF4860A078FFF783
:10813000EBFF8860E078FFF7E7FFC8602079FFF782
:10814000E3FF013808612DB9651D2878FFF7DCFFD2
:10815000886138BD6079FFF7D7FF6430A51D48619D
:10816000F3E7000070B5012388B00D461A461021D0
:108170000446FFF7A4FDF0B108230126204600962F
:108180000DEB03020021FFF72FFC044698B13246A5
:1081900029460DF10900FFF7BEFF04A8FFF79CFF79
:1081A0000848049A0849FBF7CAFF04A807F0CCFB6B
:1081B000204608B070BD24220021284609F048F866
:1081C0000024F5E7C0E403200A4B0C0030B58BB067
:1081D0000D4601A9FFF7C6FF044620B101A805F02E
:1081E000D1F8C5E9000120460BB030BD0A2390FB51
:1081F000F3F103FB110091FBF3F203FB121240EACF
:108200000210C0B2704770B5054600680C461646AD
:10821000FFF7ECFF20706868FFF7E8FF6070A86860
:10822000FFF7E4FFA070E868FFF7E0FFE07028695F
:108230000130FFF7DBFF20712EB9661DA869FFF73B
:10824000D5FF307070BD6A69642392FBF3F003FBC5
:108250001020FFF7CBFFA61D6071EFE7F0B587B0E8
:10826000054602A816460C46FFF736FF1E48029A3E
:108270001E49FBF764FF02A807F066FB16B16868A9
:1082800005F0F4FD204601220DF1090100278DF8CB
:108290000870FFF7B8FF01231A4610212846FFF7A0
:1082A0008DFD0446E8B1082300970DEB0302394623
:1082B0002846FFF73BFC044660B101231A46102113
:1082C0002846FFF71AFD16B1686805F0D8FD20466C
:1082D00007B0F0BD4FF48D7205490348FFF754FB1A
:1082E000F1E74FF48F72F7E7C0E40320184B0C005E
:1082F000264B0C0013B504466846CDE9002308F070
:1083000059FF9DF8102001462046FFF7A7FF02B055
:1083100010BD0000F0B5057E89B0044675BB07F0BE
:10832000B7FE58B30026002704A92846CDE9046704
:1083300004F038FF10B30125257607F0C6FEC317F9
:10834000CDE90203024600952046FFF7D3FF02A9BC
:108350002046CDE90267FFF739FF134B13491B682D
:10836000009304A8DDE9022307F050FE1048049AA8
:108370001049FBF7E4FE04A807F0E6FA63698BB145
:1083800004F0ECFB2369C01A636998420AD304F035
:10839000E5FB4FF0FF312061204609B0BDE8F04019
:1083A000FFF70CBC09B0F0BD90D60320A8E603206F
:1083B000C0E40320414B0C0030B504468BB011B132
:1083C000406805F001FD2046FFF764FB06AD00287C
:1083D00037D02046FFF79CFC01231A461021204687
:1083E000FFF76DFCD8B107F053FEC0B902A92046D3
:1083F000FFF7ECFEDDE9020107F04EFD134B1449D7
:108400001B6800932846DDE9022307F0FFFD1148B1
:10841000069A1149FBF793FE284607F095FA0F4B91
:1084200006930F4B09930F4B08934FF40062002300
:1084300002A80095FDF7FAF92846FDF74EF80BB0B3
:1084400030BD09490348FFF79FFAE8E790D60320BB
:10845000A8E60320C0E40320574B0C00417C0B002E
:10846000B7540B00A3540B00744B0C00014B024A91
:108470001A607047C0E403208C4B0C0010B5012338
:1084800003748368044643B1C0689847012363744A
:108490000020BDE8104004F031BB00680028F5D092
:1084A00083680BB908F02CF9C368EEE7012A02D102
:1084B000016000207047022A04BF0B680360F8E7E0
:1084C00038B50568044635B12846FDF706F8102191
:1084D0002846FBF7E4FD20461421BDE83840FBF7B1
:1084E000DEBD10B503680446ABB1586804F0B6FAB7
:1084F00088B923685A7C12B9586804F0B7FA23681F
:10850000586804F0BBFA20680023236018B1BDE866
:108510001040FFF7D5BF10BD054A0260002242603F
:10852000027380F84F24C0F85824C0F860247047C4
:10853000CC4B0C0010B5074C236843B940F26440A3
:10854000FBF7A9FD034608B1FFF7E6FF23602068AB
:1085500010BD00BFC8E4032038B50446406890B1A0
:1085600002232373FFF7BDFF656855B12846FFF767
:10857000B8FF286808B1FFF7A3FF04212846FBF7DE
:108580008EFD0023636038BD10B5054B03600446C3
:10859000FFF7E2FF04F58A60FCF79FFF204610BD5D
:1085A000CC4B0C0010B50446FFF7EEFF204640F21E
:1085B0006441FBF774FD204610BDF0B5044689B058
:1085C00000F10D0600F14E07237B1BB9012004F0DA
:1085D000E1FEF9E7237B022B64D0A06804F05EFA89
:1085E000A06804F063FA94F84F348DF800303A46EE
:1085F0003C23314606A805F099F9069D6B7833B9FE
:10860000237B022B03D0012004F0C4FEF5E7D4F84D
:1086100058341BB3002004F033FD20B16B7813B93C
:1086200004F088FDFAE72B78D4F860240592591EEF
:108630004B424B418DF80B30D4F85834CDE90367E9
:108640000BB908F05DF805AB0093D4F85C5404ABAB
:1086500003AA0DF10B0104F58A60A847A06804F095
:108660001DFA237B022B17D0D4F858340025C4F808
:10867000605443B104F58A61032208469847C4F860
:108680005854C4F85C540023A068237304F00EFA15
:1086900007A8FCF701F897E7A06804F007FA07A815
:1086A000FBF7FAFF09B0F0BD0068FFF786BF13B50E
:1086B0000B460246D0E900016C4684E8030093E8CB
:1086C000030082E8030094E8030083E8030002B09B
:1086D00010BD00002DE9F7430646884614202649C0
:1086E0001746994608F002F8044630B10020C4E964
:1086F0000000C4E90200207460743460002C31D0A2
:108700001D49102007F0F2FF054668B10023836081
:1087100001463846FFF7CBFFBB68AA68BA60AB607A
:10872000EA68FB68EB60FA602768256037B1384675
:10873000FCF7D3FE10213846FBF7B1FC3068036824
:1087400083B10A9B4A46CDE9000341460B4B0430F6
:1087500004F07CF930B933681B7C4BB9012004F07C
:10876000EDF9F8E730680023336008B1FFF7A8FEA1
:10877000304603B0BDE8F0837C560C007D840B00CE
:1087800030B5436887B00446C3B9083004F07EF9B9
:108790000B4B059304200B4B02940493FBF77BFCDB
:1087A000054638B14FF4406300930749022302AAFB
:1087B000FFF790FF656002A8FCF78FFE07B030BDA1
:1087C000A9860B00AD840B00B04B0C002DE9F043E3
:1087D000044685B080680C9F98460D46164604F006
:1087E0005DF963681BB1237B03F0FF0933B1A06817
:1087F00004F05CF9002005B0BDE8F083A06804F047
:1088000055F9002D3DD04022294604F10D0008F015
:1088100006FE84F84D908EB340F20142314604F1D9
:108820004E0008F0FCFD84F84E9400230293BB68D0
:1088300004F58A653BB10222394668469847FB68D1
:108840000393BB68029329466846FFF730FF029BFB
:10885000D4F85824C4F85834039B02926846D4F8DC
:108860005C24C4F85C340392FCF737FE0D9BC4F81B
:108870006034012084F84F842073BCE784F84E6094
:10888000D3E72846B7E7000010B5054B0360037C2B
:1088900004461BB9406808B104F004FD204610BD31
:1088A000EC4B0C0010B50446FFF7EEFF20461421F8
:1088B000FBF7F5FB204610BD10B5034B03600446E3
:1088C000FFF7E2FF204610BD0C4C0C0010B504462B
:1088D000FFF7F2FF20463021FBF7E1FB204610BDF9
:1088E00010B5034B03600446FFF7E6FF204610BDBA
:1088F0001C4C0C0010B50446FFF7F2FF2046402147
:10890000FBF7CDFB204610BD10B5074B0360037C81
:1089100004461BB9406908B104F0C4FC2046FFF7C7
:10892000B3FF204610BD00BFFC4B0C0010B5044641
:10893000FFF7EAFF20462C21FBF7B1FB204610BDD4
:10894000034A02600022C0E90122C260027470473B
:10895000EC4B0C0038B5037C04460D460BB10020EF
:1089600038BD406838B104F0A5FC0028F7D0C4E950
:1089700001050120F4E7084604F08CFCF5E770B52A
:10898000C3680E461546D1184268044672B1826823
:108990008A420BD36068E3682A463146184408F0DF
:1089A0002FFCE2682A44E260012070BD2046FFF7F8
:1089B000D1FF0028EED1F8E743680021C16023B160
:1089C000826812B1184608F043BC704710B5C0E980
:1089D00001120022C260012202744361024A029B1A
:1089E0000260C36110BD00BFFC4B0C00D0E9050361
:1089F000834204D90278022A02D01030F8E700201E
:108A00007047D0E90503984204D20378012B18BFC0
:108A1000002070470020704770B513689D68136888
:108A200003F1100414608669B4420AD29B698C6811
:108A3000A34201DAAB42F2DDA342CCBF0020012009
:108A400000E0002070BD73B501F110030446164626
:108A5000019300250198A36983420BD982688B6832
:108A60009A4207DAB54206D001AA20460135FFF73F
:108A7000D3FFEFE7002002B070BD2DE9F341089D60
:108A8000984601F110030446174601930026019809
:108A9000A36983421AD982688B689A4216DAAE4279
:108AA0000BD1386001AA2046FFF7B6FF28B1019B21
:108AB000C8F8003002B0BDE8F08101AA2046FFF7F7
:108AC000ABFF20460136FFF7A7FFE0E70020F1E704
:108AD000F0B5013B0024D1E90176F61BA64208DD82
:108AE000A34206DD45683D442D5D02F8015B01347B
:108AF000F1E700231370F0BD1FB5144610236A463A
:108B0000FFF7E6FF04492246684604F0E3FB431EF4
:108B10005842584104B010BD033A0C001FB514462A
:108B200010236A46FFF7D4FF6846002109F0C2FA15
:108B3000012084ED000A04B010BD10B504460068A1
:108B40000B4628B106F0E3FFE3680133E36010BD94
:108B500060680028F8D0D4E90221013A8A4288BF2F
:108B60004354F1E703467F2B37B50846D9B204D802
:108B700003B0BDE83040FFF7E0BF01F03F01B3F5BF
:108B8000006FC3F3871541F0800407D245F0C001A0
:108B90000190FFF7D2FF01982146E9E71B0B43F054
:108BA000E0010190FFF7C9FF05F03F01019841F096
:108BB0008001EEE72DE9FF4700244E68DFF8CCA0E6
:108BC00080460F461546A146B868B0425ADDD8F82F
:108BD0000430995D9A19002C4BD0752905D86D2960
:108BE00007D862291ED066291ED02846FFF7A5FFA8
:108BF0003DE0A1F16E04072CF7D80FF2080C5CF8E9
:108C000024F000BF2D8C0B00EB8B0B00EB8B0B00CB
:108C1000EB8B0B00318C0B00EB8B0B00358C0B00BE
:108C2000398C0B000821E0E70C21DEE70A21DCE7A4
:108C30000D21DAE70921D8E7311D884217DD02A9A5
:108C400004333344084612F8014F01F8014B9A42AD
:108C5000F9D101AA51468DF80C9004F03BFB012894
:108C600005D1BDF804002946FFF77CFF0536002436
:108C700004E05C2904D02846FFF75FFF0136A3E734
:108C80000124FBE7012004B0BDE8F08799540C00F3
:108C90007FB50C4606460C491046154606F0FDFE0B
:108CA000D4E90131C91A0131284606F06BFE0023D0
:108CB0006A4621463046CDE9013300950393FFF71C
:108CC00079FF04B070BD00BFF8540C002DE9F043EB
:108CD00089B00546884604A812491646994606F00A
:108CE0007EFE002700974B4603AA41462846FFF721
:108CF000C4FE044670B1039904AA2846FFF7C8FFD2
:108D0000044608B90137EDE7314604A806F02DFF07
:108D10000028F7D004A806F017FE204609B0BDE8E9
:108D2000F08300BFF8540C0000230122C3604361AC
:108D3000028380F82A30704708B50346FFF700FE2B
:108D4000044A1A604FF0FF321846DA62FFF7ECFF70
:108D500008BD00BF0C4C0C00D0E9022310B59342B3
:108D60003FBF42685C1CC460D15424BF012380F81B
:108D70002A3010BD10B54369044643B100EB4303EC
:108D8000597E09B1FFF7E8FF6369013B6361D4E9EC
:108D90000210636888424FF000022ABF5B181A5421
:108DA00003F8012C10BD70B50446D0E90250666886
:108DB0002D1A134630440A46294604F09BFA854290
:108DC0002DBFE368A368E360C01836BF0123E060ED
:108DD00084F82A3070BD0EB403B503AA52F8041B00
:108DE0000192FFF7E0FF02B05DF804EB03B07047BB
:108DF0002DE9F84304460E46174612B12221FFF72B
:108E0000ABFFDFF80C810025715D06EB0509002939
:108E100074D0D4E902329A4270D20B0634D501F0F4
:108E2000F003E02B05F101091DD116F8092002F02D
:108E3000C003802B39D105F1020916F8093003F07F
:108E4000C000802831D103F03F03920143EA01338F
:108E500002F47C621A4392B241462046FFF7BBFF00
:108E60004D460135D0E701F0E003C02B1DD116F8C7
:108E7000093003F0C002802A17D1890101F4F86299
:108E800003F03F031A43E7E70D290AD807290CD955
:108E9000A1F10803052B08D8DFE803F00923170721
:108EA000111D222923D05C2921D0204604E05C2119
:108EB0002046FFF751FF6221FFF74EFFD1E75C210B
:108EC0002046FFF749FF6621F6E75C212046FFF7C1
:108ED00043FF6E21F0E75C212046FFF73DFF722142
:108EE000EAE75C212046FFF737FF7421E4E75C21C5
:108EF0002046FFF731FF99F80010DDE72FB120463B
:108F00002221BDE8F843FFF727BFBDE8F88300BF83
:108F1000D44B0C00426900EB42031A7E12B10022CE
:108F20001A7670472C21FFF717BF73B5436901917B
:108F30000133082B16460FD8FFF7ECFF4369019960
:108F400000EB43045A1C01254261A576E676FFF743
:108F500003FF284602B070BD0020FBE737B504468A
:108F600010EE100A07F03CFDE56A002D02460B46A4
:108F700008DBCDE9002307492A462046FFF72BFFEF
:108F800003B030BD0449204603B0BDE83040FFF7D0
:108F900022BF00BFDB4B0C00E04B0C0010B50446B9
:108FA000FFF7CAFE054B23604FF0FF320023C4E9F0
:108FB0000D232163E363204610BD00BF1C4C0C0051
:108FC00070B5436B0133044621D1056B4B68436395
:108FD000EB6888681A1AA263AE683044C31A002A84
:108FE000E36305DD686889680144184408F016F9F0
:108FF000226B616B5268E36B0A445B1A01212046C5
:10900000C4E901232174FFF78FFE084670BD0020DC
:10901000FCE770B5436B013304460E4629D18D68D9
:10902000016B013D4563CB685A1B82638868284405
:10903000C31A002AE36304DD48684119184408F0A4
:10904000EDF8226B616B5268E36B0A445B1A0125F1
:10905000C4E9012320462574FFF766FE636903F126
:109060000C02F368B3FA83F35B0904F81230284664
:1090700070BD0020FCE700002DE9F04F44684FF080
:10908000010C4FF0FF36D0F800E0964580F0B98132
:1090900011F80E80B8F1000F00F0B381B8F13A0F6B
:1090A00000F0988033D8B8F1220F00F0A68010D8D5
:1090B000A8F109085FFA88F8B8F1170F0DD89F4D8D
:1090C0000CFA08F818EA050F07D0056801350560A5
:1090D000D9E7B8F12C0F00F03381D0F80080424579
:1090E0000ED911F808505DB13A2D00F269811F2D9B
:1090F00000F251810A2D00F26081082D40F2568164
:10910000002B40F0628108F1FF350560A5E0B8F161
:109110007B0F37D02ED8B8F15B0F33D0B8F15D0F8D
:10912000DBD1002BD1D04FF002094568013D03EBA4
:109130000518002D55DBD8F8047001374DD0D8F84C
:1091400008A0BAF1FF3F48D198F800B0CB454BD109
:109150000EF1010EC0F808A0C8F808E003EB051EE8
:10916000DEF80470013742D0DEF8087001373ED1D6
:109170008560AAE7B8F17D0FAFD1002BA5D04FF0E5
:109180000109D2E70134002B9FD04568099FAF4207
:109190004AD905F1010EC0F804E003EB051ECEE943
:1091A00001664FEA051A0025CEF80C5085686F1C41
:1091B0001FBF03EB0519D9F80C500135C9F80C5045
:1091C000B8F17B0F0CBF0125022503F80A50056892
:1091D000CEF804504568013DCAE7013DA8F11008EA
:1091E000A7E701357FF471AF6FF001041EE0013D88
:1091F0006F1CAEF1100EB3D167E70EF10109C0F894
:109200000090D0F80080424540F2938011F8085059
:10921000002D00F08E80222D30D1F3B14568099FDA
:10922000AF4206D8C0F800E04FF0FF342046BDE85A
:10923000F08F05F1010E4FEA051803EB0515C0F894
:1092400004E0C5E901660027EF60D0F800E04FF0C8
:10925000030A03F808A0C5E9019E85686F1C04F1A4
:1092600001043FF432AF002B3FF42FAF03EB051E98
:10927000DEF80C500135CEF80C5026E75C2D11D1EC
:1092800008F10105AA420DD905604D5D752D2BD859
:109290006D2D0BD8662D27D85B2D1DD8222D01D022
:1092A0002F2D21D1056801350560AAE76E3D072DF8
:1092B0001AD801A757F825F0A5920B00E9920B00E8
:1092C000E9920B00E9920B00A5920B00E9920B00CA
:1092D000A5920B00EF920B005C3DEDB20CFA05F588
:1092E00040F241473D42DDD1C0F800E07CE708F1A3
:1092F000020505604FF0040AD0F80080424503D80B
:109300000568013D0560CDE711F80850002DF7D044
:10931000A5F1300BBBF1090F04D925F02005413D23
:10932000052DE1D808F10105BAF1010A0560E3D184
:10933000E6E7C0F800E06FF0020477E71300800072
:10934000002B3FF4C2AE85686F1C3FF4BEAE2D010A
:109350005D5D013D012D7FF6B8AE456805F1FF3832
:1093600003EB051EB8F1000FFFF6AFAE1EF8105C60
:10937000013D012D0AD85EF80C5C013506D05EF87F
:10938000085C013502D1C0F808809EE608F1FF387C
:10939000AEF1100EE6E7A5F12009244F5FFA89F936
:1093A0000CFA09F919EA070F7FF4AAAE203D5E2DE9
:1093B0009AD808F1010505608FE60D2DF6D19FE6DC
:1093C00005F0DF09B9F15D0FF8E74568099FAF4285
:1093D0007FF628AF05F101084FEA051903EB0515E3
:1093E000C0F80480C5E901660027EF60D0F800806E
:1093F0004FF0040A03F809A0C5E901E80568013D3A
:1094000083E6002B3FF412AF4268511E03EB0213B8
:109410000029FFF60BAF53F80C2C013203D053F8A0
:10942000082C013287D00139103BF1E7011000040C
:10943000F7B5C268044612B9002003B0F0BD436915
:1094400000F12006ABB10021C0E908114FF0FF3157
:109450008162C169009141683046FFF70DFE431CEF
:1094600028D1257C002DE7D1606903F01BFF6561E1
:10947000E56100254FF0FF37C4E90855E2686168EF
:10948000A76200952B463046FFF7F6FD0028D3DB98
:10949000E06117D0000103F0FDFEE2696061034660
:1094A0000092C4E90855E2686168A7623046FFF798
:1094B000E3FD01E00028BFDB636903EB0010A0615E
:1094C0000120BAE76369A361FAE738B5436B5A1C18
:1094D000044618D0826B002A08DD016BE5684868F5
:1094E000E16B2B440144184407F098FED4E90C23A7
:1094F000A16B0B44E1680B44D360206BFFF798FF2E
:109500004FF0FF33636338BD7047704710B50821D3
:109510000446FAF7C4FD204610BD10B510210446DC
:10952000FAF7BDFD204610BD10B5054B044640F8C6
:109530001C3B06F009FA201D06F006FA204610BD75
:10954000904C0C0010B50446FFF7EEFF2046582162
:10955000FAF7A5FD204610BD10B5044B044640F8AF
:10956000043BFFF7E1FF204610BD00BF604C0C003C
:1095700010B50446FFF7F0FF20466021FAF78FFD93
:10958000204610BD20F00203012B03D0431F584298
:10959000584170471846704791F90430037191F9AA
:1095A0000530437191F90630837191F90730C37129
:1095B000704738B504460D460430043106F04BFAC6
:1095C00005F1140104F11400FFF7E6FF05F11C0199
:1095D00004F11C0006F03FFA05F12C0104F12C0007
:1095E000FFF7DAFF95F9383084F8383095F93930DB
:1095F00084F8393095F93A3084F83A3095F93B30AF
:1096000084F83B3005F13C0104F13C00FFF7C4FF56
:1096100095F9483084F8483095F9493084F8493054
:1096200095F94A3084F84A3095F94B3084F84B303C
:1096300005F14C0104F14C00FFF7AEFF95F85430F2
:1096400084F8543038BD0B6803604B68436013B135
:109650005A6801325A607047024A02604A684260A2
:10966000704700BF704C0C004A69036862F3160330
:1096700003600B695A1C438862F3CA134380CA68AB
:10968000C3F3072362F3C703C3707047024A026043
:1096900000224260704700BF704C0C0030B50023C0
:1096A00087B0838083710D4605AB00931349044650
:1096B00004AB03AA284603F00DFE032807D1039B41
:1096C0002371049B6371059BA37107B030BD0C49E6
:1096D00004AB03AA284603F0FDFD022804D1039B36
:1096E0002371049B6371F0E7064903AA284603F03F
:1096F000F1FD012804BF039B2371E6E7244C0C0015
:10970000274C0C00033A0C0090F9042090F9053026
:1097100090F90610002AB8BF0848C3EB03134FEABC
:109720008303BDBF00FB0230401840424FF461602C
:10973000A4BF00FB02304018704700BFF0F1FFFFEC
:1097400008B590F854304BB190F93B3043B92C3008
:10975000FFF7DAFFB0FA80F0400908BD0120FCE70E
:109760000020FAE790F9073043B990F904308B6094
:1097700090F905304B6090F906300B60704790F916
:10978000073030B5B3B990F904508C682C44D1E956
:1097900000328C6090F90540002DB5BF121B1219E4
:1097A0004A604A60B5BF90F9062090F906209B1ADE
:1097B0009B180B6030BD000008B5054A026000220E
:1097C000034642600830FFF761FF184608BD00BF3E
:1097D000804C0C000023436083818373704700003A
:1097E00030B5044687B00D4611B10B784D2B05D02E
:1097F000204607B0BDE83040FFF7ECBF05AB009353
:10980000114904AB03AA284603F064FD032816D1CE
:10981000039B2371049B6371059BA3712F21284631
:1098200007F09AFD40B1411C04F10800FFF736FF34
:109830000123E37107B030BDA081A073F8E7204693
:10984000FFF7C8FFF6E700BF3F4C0C00104B114973
:1098500010B5044640F8043B06F0C1F804F11400CA
:10986000FFF714FF0B4904F11C0006F0B8F804F1EF
:109870002C00FFF70BFF04F13400FFF79DFF04F10C
:109880004400FFF799FF002384F85430204610BDB0
:10989000904C0C00F8540C002DE9F74F0446084694
:1098A00007F084FD00250646019004F134083F4985
:1098B000019801AA08F082FC0146002862D0012D1F
:1098C00005F1010353D0022D56D0002D46D102469A
:1098D00092F80090B9F1400F1546174602F10102C7
:1098E000F6D800222A7004F11C0006F0D6F80122F6
:1098F00085F8009084F854202A786AB397F800A07D
:109900000AF1FF323F2AB946BB4607F10107F5D9F4
:10991000002304F12C0789F8003029463846FFF768
:10992000BDFE89F800A0BAF1000F15D05D461BF806
:1099300001ABBAF1400FF9D800222A704946201D28
:1099400006F0ABF885F800A004F11400BAF1000F9E
:1099500006D02946FFF7A2FE0125A8E71D46A6E787
:109960003946FFF719FE237E013B2376F4E7404694
:10997000FFF736FF02259AE704F14400FFF730FFB6
:10998000032594E794F93B3043B194F94B202AB96D
:1099900004F13400FFF71EFF84F85420304603F032
:1099A00081FC94F8540003B0BDE8F08F494C0C00E2
:1099B00038B5134B04460D4640F8043B114906F0F8
:1099C0000EF804F11400FFF761FE0E4904F11C00CB
:1099D00006F005F804F12C00FFF758FE04F13400FE
:1099E000FFF7EAFE04F14400FFF7E6FE002384F8E7
:1099F000543029462046FFF74FFF204638BD00BFB0
:109A0000904C0C00F8540C0008B50346FFF73EFEDE
:109A10008A681A714A685A710A689A71184608BDAC
:109A200013B5074B03600023436004466846FFF705
:109A3000EBFF20466946FFF7AFFD02B010BD00BF47
:109A4000704C0C0007B50023014601A80193FFF7F5
:109A50000BFE019803B05DF804FB10B50446084600
:109A6000FFF7F0FF206010BD10B5044688B008462F
:109A7000683001A907F072FB01A807F0B4FC08AB3D
:109A80001844002300F81D3C01A9204605F0A7FF5B
:109A9000204608B010BD000038B50446081D0D462C
:109AA000FFF74EFE28B10949204605F098FF2046F1
:109AB00038BD2868FFF766FD28B105F1080120468A
:109AC00005F0D8FFF3E705F12001F8E74B4C0C0057
:109AD0002DE9F0478046A8B00C4615462AB1474B01
