:02000002B0004C
:1040000000400B00BC5F0C00000006000D00050224
:084010000401A60F00000000EE
:04401800A0370C00C1
:1040200009480A49884208B505D0094A824202D0A7
:10403000121A0DF0ADF90748074A0021121A0DF0C7
:10404000CFF9014808BD00BF7CD50320A85C0C0057
:1040500064D8032068D80320F4E7032070B5074E26
:10406000074C0CF071FAA41BA4080025AC4200D147
:1040700070BD56F8043B98470135F7E73C5C0C00EF
:10408000805C0C0001F00ABD08B501F0EDFDBDE853
:1040900008400CF011BA09F0C5B909F0C3B909F02C
:1040A000C9B9000008B5034A03490C2009F046F8D5
:1040B000FEE700BFDDCC0B00B4370C000078B0FA8F
:1040C00080F040097047012303707047704710B5B6
:1040D00004210446FFF7E3FF204610BD10B5034B53
:1040E0000360044604F0D4FC204610BDB03E0C0032
:1040F00010B50446FFF7F2FF204640F24C71FFF77F
:10410000CEFF204610BD37B51D4601AB044604F076
:10411000A1FE20B101992A46204604F0B1FD03B06A
:1041200030BD37B51D4601AB044604F093FE20B107
:1041300001992A46204604F06FFE03B030BD0EB44C
:1041400000B58CB00DAA4FF0200C52F8041B03925E
:10415000CDE900120023016804AA1E20CDE904C3A2
:1041600008F0FCFF0CB05DF804EB03B070470000F2
:1041700010B5064C236833B90420FFF78CFF08B153
:10418000034B03602060206810BD00BF6CD8032083
:10419000C03E0C007047000010B5064CC0B00DF1D9
:1041A000030201A9204607F04FFD0028F7D140B0D7
:1041B00010BD00BFECD80320014807F032BD00BF9E
:1041C000ECD80320174B10B51C88002120460CF0BA
:1041D00054FA0A2009F0A6F9012120460CF04DFA04
:1041E0000A2009F09FF9104807F0B9FA044628B9E7
:1041F0000E490F48FFF7A3FF204610BD9FED0D0AA3
:104200000D4807F0A5FD00220B48172107F01AFF03
:104210000321094807F042FF08484FF4FA6107F00C
:10422000ACF9E9E7004A0C0068E10320C9370C004B
:1042300050E60320C3B56744ECD803206CE10320AB
:1042400010B50C4686B0FFF7BDFF002C3CD002F045
:1042500037F9002102F01DFB02A809F04BF8029A81
:1042600037493848FFF76BFF02A80BF035FC02F026
:10427000F5F9014602A802F01BFA029901910846DD
:104280000DF079F9019902462F4804F03CFC02A890
:104290000BF022FC02F0E2F9014602A802F008FA53
:1042A000029A2A492748FFF74AFF02A80BF014FC9C
:1042B000254805F081F900283BD025492148FFF722
:1042C0003EFF012006B010BD02F0FAF802F074FAC9
:1042D000D8B102F0F5F802F06FFA0A2815D802F00A
:1042E000EFF802F069FA01461A4806F062FD194833
:1042F00006F045FD019002A808F0FCFFDDE901236E
:1043000015491048FFF71BFFAEE702F0D9F80B2163
:1043100002F0BFFA0B210F4806F04BFD0D4806F0E6
:104320002EFD019002A808F0E5FFDDE901230B490D
:10433000E7E702F093F902F0D3F90949BEE700BFBD
:10434000D5370C0050E603201CDA03208D380C0012
:10435000A4380C006CE103200F380C0046380C0028
:10436000B8380C0038B51E4C02F0F2F8A18849BAF2
:1043700089B202F0DEFB02F0EBF8E18849BA89B2BB
:1043800002F0DDFB02F0E4F8217A02F0E2FA02F03A
:10439000DFF8617A02F0B9FA02F0DAF80546A07A9D
:1043A0000CF0C4FB41EC100B284602F019F902F0A6
:1043B000CFF8E17A02F0AFFA02F0CAF8217B02F0FE
:1043C000B0FA02F0C5F8617B02F0B1FA02F0C0F871
:1043D000A17B02F0B2FA034B04221A70012038BD0F
:1043E00070D8032068D8032070B588B01D490446F2
:1043F00004A816461D460BF0BAFB1B4804F0C5FB8B
:104400001A4A014603AB184804F024FD03991648E4
:10441000721E04F0DCFB014648B9154920460BF03A
:10442000A6FB04A80BF058FB204608B070BD02ABF9
:104430000190104A0C48FFF766FE029B0199AB42BF
:10444000EBD109480C4A04ABFFF76BFE002104A82E
:104450000BF053FC0028E0D104A920460BF0B8FB78
:10446000DFE700BF54560C001CDA0320E0380C00D4
:10447000E6380C00EB380C00EF380C001FB50A29A9
:104480000C46019202DD002004B010BD114804F07A
:104490007CFB114A014603AB0E4804F0DBFC039998
:1044A0000C48621E04F093FB01460028EBD001ABE0
:1044B0000A4A0848FFF727FE02F04AF802F0C9FA54
:1044C000019B984204D006490648FFF738FEDAE718
:1044D0000120D9E71CDA0320E0380C00EB380C008F
:1044E000F3380C0050E6032013B516480C4604F0D0
:1044F0004CFB154A014601AB124804F0ABFC019994
:104500001048621E04F063FB014670B902F020F807
:1045100002F0A2F90D4902460D48FFF710FE02F025
:1045200017F802F099F902B010BD0A4A05486B4627
:10453000FFF7E9FD0648009A0749FFF700FE9DF8DE
:104540000000F0E71CDA0320E0380C0007390C000B
:1045500050E6032043390C0048390C000A2913B5F2
:104560000C4613DC0F4804F010FB0F4A014601AB68
:104570000C4804F06FFC01990A48621E04F027FB06
:10458000014628B909490A48FFF7D9FDFF2006E08E
:104590000448084A6B46FFF7B6FD9DF8000002B0DC
:1045A00010BD00BF1CDA0320E0380C0061390C009C
:1045B00050E603208F390C002DE9F341054601F048
:1045C0007FFF02F0E3F93C2646432148204FDFF805
:1045D0009C8004F0DAFA1F4A014601AB1C4804F043
:1045E00039FC002401992246384604F0F0FA0146CD
:1045F00068B16B4642463846FFF785FD0BF02DFE4D
:10460000009BC01A864219DB01340A2CEAD1124AF7
:10461000012412491248FFF792FD94B9114910483C
:10462000FFF78DFD01F04CFF012102F03EF9284615
:10463000FFF7C8FD204602B0BDE8F0810A4A002419
:10464000E7E701F03DFF002102F02FF9F2E700BF9C
:104650001CDA0320E0380C0096390C00A3390C005A
:1046600050E60320BC390C0094390C009E390C0034
:1046700070B500250E462C46B3689D4218D22946D7
:1046800030460BF061FB0378A3F13002092A02D80F
:1046900014440135F0E7A3F14102052A02D8373B63
:1046A0001C44F6E7A3F16102052AF2D8573BF7E76D
:1046B000204670BD38B5046805467CB16368013B8F
:1046C00063605BB9236820469B689847A368013BF9
:1046D000A3601BB923682046DB689847284638BD8D
:1046E0002DE9F0415E495F485F4CA6B0FFF727FD1A
:1046F00001F0E6FE02F045F9000A207001F0E0FE4C
:1047000002F03FF960700BF0A8FD0016A0700BF0EE
:10471000A4FD0014E0700BF0A0FD001220710BF05E
:104720009CFD607101F0CCFE02F030F9000AA0712E
:1047300001F0C6FE02F02AF9E07101F009FF02F073
:1047400063F8A0F10B0358425841207201F000FFBA
:1047500002F05AF8607201F0FBFE02F07DF8434B64
:10476000A0721F88012138460BF087FF01F0F0FE90
:1047700002F04FF800285DD101F0EAFE02F044F8A3
:1047800005460BF0D9FB3A4903462A463548FFF760
:10479000D6FC02230093344936482B460B2206F000
:1047A000A1FD064600284AD101F0D2FE804601F064
:1047B000CFFE02F029F80146404602F0A0F831464B
:1047C00038460BF05AFFA27A2B4B2C4C002A18BF0C
:1047D0001C4601F0BDFE02F03AF8064601F0B8FEB4
:1047E00002F010FB074601F0B3FE02F010FB244A72
:1047F0002B46CDE90270CDE90046802106A808F0DD
:1048000039FE184806A9FFF79AFC08F06BFD04462C
:1048100020B31C4B1C491B788DF8003004A83C23A6
:1048200006AA09F04BF905A8FFF744FF204626B079
:10483000BDE8F08101F08CFE01F0EBFFA0E701F094
:1048400087FE01F0E6FF114902460648FFF777FCB4
:10485000002138460BF011FF0024E7E70124E5E7CB
:10486000F7390C0050E6032070D80320F8490C00FB
:10487000103A0C0068E10320F0390C00EC390C0010
:104880003E3A0C0069D80320843A0C008B3A0C00A5
:104890002DE9F04FD9B00F4610A84649464DDFF834
:1048A0004481DFF844910BF062F9434804F06DF95C
:1048B000424A01460FAB404804F0CCFA00260F995B
:1048C0003246284604F083F9044600286CD001469D
:1048D00010AB42462846FFF724FC0AAB4A46214665
:1048E0002846FFF710FC364A09AB21462846FFF759
:1048F0000AFC344A0BAB21462846FFF704FC324A37
:104900000CAB21462846FFF7FEFB304A14AB21468C
:10491000284604F09FFA20B114990DAA284604F005
:10492000C1F921462A4A0EAB2846FFF7ECFBDDE928
:104930000AB214A8D317099CDDF840A00BF088FB3D
:104940000E9B0D9806930CF013F90C9B0393149B8C
:10495000204ACDF800A0CDE90401CDE901B34FF420
:104960008071234618A808F085FD14A80BF0B4F850
:10497000194818A9FFF7E3FB08F0B4FC88B187B128
:10498000164B17491B788DF8003018AA3C2314A841
:1049900009F094F815A8FFF78DFE4FF47A7008F02F
:1049A000C1FD01360A2E8AD110A80BF095F859B036
:1049B000BDE8F08F54560C001CDA0320E0380C00E0
:1049C000B23A0C009E390C0043390C00B73A0C0087
:1049D0008F390C00BC3A0C0050E6032069D8032044
:1049E000203B0C00EF380C00EB380C0037B50446C8
:1049F0001546019104F052FB01990122204604F072
:104A0000BBFA20463A2104F06BFA04492A462046B4
:104A100003B0BDE8304004F0A2BA00BF473D0C002F
:104A200013B5114B114C01221A703223009304F17B
:104A30002C0104F22C434FF48062204604F08AF8E3
:104A40000B4B23600B4A0C4C0C490D4B1278097828
:104A5000204607F03FF90B480022214602B0BDE88E
:104A6000104006F035BC00BF69D803201CDA0320D3
:104A7000B03E0C00FE490C00ECD80320FC490C00B1
:104A8000E4E4032068E103202DE9F04F97B00446E9
:104A90000D4602A8654990460BF069F8294606A81C
:104AA0000BF065F806A92046FFF7E2FD044606A8CC
:104AB0000BF012F844450BD05D495E48FFF73FFB11
:104AC0000B2402A80BF008F8204617B0BDE8F08FC1
:104AD00059495848DFF86491DFF874B1FFF72FFBAC
:104AE000564804F052F8564A014601AB534804F0C8
:104AF000B1F9002601993246484604F068F8741C62
:104B00000746A246002876D14E494A483246FFF76A
:104B100016FB4A49009406A804F004FB2B46009AB1
:104B200049494448FFF70BFB444804F023F8014689
:104B300006A804F032FB7D227B2106A804F0B9FA16
:104B4000009A424906A8FFF751FF06A804F0A6FA0A
:104B5000012206A83E4904F00FFA06A83A2104F003
:104B6000BFF9294606A8012204F006FA424639494F
:104B700006A8FFF73BFF0BF070FB054606A804F004
:104B80008DFA012206A8344904F0F6F906A83A2164
:104B900004F0A6F92A4606A8304904F0E0F93049A5
:104BA000032206A8FFF722FF06A804F077FA0122E5
:104BB00006A82C4904F0E0F93A2106A804F090F97F
:104BC0009FED290A06A804F08DFA0022274906A8BD
:104BD000FFF70CFF06A804F091F906A804F039FDD0
:104BE00001F03CFDD9F8041001F074FD06A8E4B210
:104BF00003F03AFF65E7014602AB48465A46FFF725
:104C000090FA294602A80BF078F840B10F4A0B48F9
:104C10006B463946FFF777FA9DF8004051E7B41C20
:104C200056460A2E7FF466AF73E700BF54560C0059
:104C3000293B0C0050E603205D3B0C001CDA0320EE
:104C4000E0380C00703B0C009C3B0C00B23A0C00AE
:104C5000EF380C00EB380C009E390C00204E0C0095
:104C600043390C00B73A0C00000000008F390C00EB
:104C700030B52DED028B264D93B028460C46B0EE94
:104C8000408A03F082FF234A01466B46284604F01F
:104C9000E1F8621E0099284603F099FF04460028B7
:104CA00032D001AB1C4A0146284604F0D3F829460D
:104CB00002A804F037FA019902A804F045FA0BF0B3
:104CC000CCFA1649024602A804F049F902A804F0F9
:104CD000C0FC134A01AB2146284604F0BBF80199F9
:104CE00002A804F031FAB0EE480A02A804F0FAF97A
:104CF00002A804F0AEFC01F0B1FC696801F0EAFC26
:104D000002A803F0B1FE012013B0BDEC028B30BD50
:104D10001CDA0320E0380C009E390C00473D0C00E3
:104D2000B73A0C0070B50A2994B00C4616463DDC23
:104D30001F4D284603F029FF1E4A014602AB2846B4
:104D400004F088F8621E0299284603F040FF0446EA
:104D500060B30146184A01AB2846FFF7D4F9019A1F
:104D6000164917483346FFF7EAF903AB124A2146C2
:104D7000284604F06FF8294604A804F0D3F90399F3
:104D800004A804F0E1F932460E4904A804F0E7F85B
:104D900004A804F05EFC01F061FC696801F09AFC73
:104DA00004A803F061FE012014B070BD0020FBE7F1
:104DB0001CDA0320E0380C0043390C00D03B0C0017
:104DC00050E60320473D0C00F0B5484A8DB005ACD5
:104DD000054602F11803274610685168264603C6A7
:104DE00008329A423446F7D11378337001F0B0FBA1
:104DF0003F4B597F01F0ADFD01F0AAFB01F004FD2E
:104E00000A2844D8FFF7B4F9044601F0A1FB01F0E9
:104E1000FBFC039001F09CFB01F01BFE0399024692
:104E20002046FFF72BFB90BB01F092FB01F0ECFC5E
:104E3000304902463B463048FFF781F901F088FBD4
:104E4000012101F080FD01F083FB04460BF005FA1F
:104E50000246C317204601F0C6FE01F079FB01F0BF
:104E6000D3FC0B283FD001F073FB01F0CDFC039085
:104E700001F06EFB01F0F0FC039902462846FFF7B3
:104E800051FF1E4B02221A7001200DB0F0BD01F03F
:104E90005FFB044601F05CFB01F0B6FC01462046D6
:104EA00001F02DFD01F054FB044601F051FB01F02F
:104EB000D0FD394602462846FFF7E6FD014620466A
:104EC00001F017FD01F044FB01F0A3FC039001F099
:104ED0003FFB01F099FC039A0090094906483B46C4
:104EE000FFF72DF9AAE70020CFE700BF74D8032011
:104EF00070D80320F33B0C0050E6032068D8032051
:104F00001E3C0C0070B5204D94B028460C46164649
:104F100003F03BFE1D4A014602AB284603F09AFF10
:104F2000621E0299284603F052FE044650B3014621
:104F3000174A01AB2846FFF7E6F8019A15491648CB
:104F40003346FFF7FCF803AB114A2146284603F02D
:104F500081FF294604A804F0E5F8039904A804F0A9
:104F6000F3F832460D4904A803F0F9FF04A804F051
:104F700070FB01F073FB696801F0ACFB04A803F05F
:104F800073FD012014B070BD1CDA0320E0380C0062
:104F90008F390C00593C0C0050E60320473D0C00B3
:104FA000F0B52DED028BA9B005460BF056F9A84CD3
:104FB0000016A0700BF051F90014E0700BF04DF9E1
:104FC000001220710BF049F9607101F079FA01F0DB
:104FD000DDFC000AA07101F073FA01F0D7FCE0716A
:104FE00001F0B6FA01F010FC0B2840F0828001F0CD
:104FF000AFFA01F009FC974902469748FFF79FF87E
:1050000001F0A6FA012101F09EFC01F0A1FA05468B
:105010000BF023F90246C317284601F0E4FD01F026
:1050200097FA01F014FC207201F092FA01F014FCDE
:10503000607201F08DFA01F04FFEA07201F088FA63
:1050400001F0FBFB854BE0721D88012128460BF027
:1050500014FB01F07DFA01F0DCFB002840F0E28057
:1050600001F076FA01F0D0FB0423794900930C2279
:1050700003467B4806F036F90146002840F0D78009
:1050800028460BF0FAFA01F063FA01F0BDFBA57AAD
:10509000267A059001F05CFA01F0B4FE044601F0B6
:1050A00057FA01F0B4FE059B6E4ACDE9024080211B
:1050B000CDE9005608A808F0DDF9674808A9FFF710
:1050C0003EF808F00FF90446002800F0BF80664B58
:1050D00066491B788DF8003006A83C2308AA08F022
:1050E000EDFC07A8FFF7E6FA204629B0BDEC028BDD
:1050F000F0BD01F02DFA064601F02AFA01F084FB1A
:1051000001462846FFF72AFA0146304601F01BFC0B
:1051100001F01EFA01F09BFB70B101F019FA01F0E9
:1051200073FB059001F014FA01F091FB059A5049C8
:1051300003464948FFF703F801F00AFA01F087FB3C
:10514000072866D101F004FA01F05EFB014628460B
:10515000FFF7CAF9064601F0FBF901F07DFB45496E
:10516000024633463C48FEF7EAFF01F0F1F93146CA
:1051700001F0EFFB667201F0EBF901F068FB40B162
:1051800001F0E6F901F040FB002201462846FFF756
:10519000B9FE01F0DDF901F05AFB207201F0D8F9F7
:1051A00001F04BFBD8B301F0D3F901F04BFB0546FE
:1051B00001F0CEF901F041FB08EE100A28460BF091
:1051C000C5FC2D4B00220BF075FBF8EE487A064625
:1051D00017EE900A0F460BF0CBFC02460B4630460A
:1051E00039460BF047FE254B00220BF019FD0CF061
:1051F0000FF808EE100AFEF7BBFF054601F0A8F90C
:1052000001F002FBB0EE480A01462846FFF730FDE8
:105210000FE701F09DF901F01FFB6072ABE79FED16
:10522000188AE8E701F094F901F0F3FA1CE701F0BD
:105230008FF901F0E9FA134902460748FEF77FFFAC
:10524000002128460BF019FA00244DE701244BE712
:1052500070D803207E3C0C0050E60320F8490C0077
:1052600068E10320FD3C0C0069D80320843A0C005F
:10527000AA3C0C00C93C0C000000F03F0000594063
:10528000000000004A3D0C0070B588B079238DF80D
:105290001A300DF11F0303930DF11E03784D029395
:1052A0000DF11D03019307AB009376480DF11B032D
:1052B0000DF11A02294606F049F808B90020C8E0A5
:1052C0009DF81A300024EC542E8801F0F9F801F012
:1052D00058FB76BAB6B2B04214D001F039F901F0F9
:1052E00093FA2B8805905BBA9BB2049301F0E8F81F
:1052F00001F047FBDDE90432009063496348FEF7A3
:105300001EFFDBE701F024F99DF81B1001F0F1FA14
:1053100001F01EF9214601F0F2FA01F019F90446F4
:105320005B4805F0C4FD0146204601F08DFD01F00B
:105330000FF90446564806F05BFF01B2204601F023
:1053400089FD01F005F96988524C534D49BA89B27B
:1053500001F0E9FB9DF81E3003F00F03237001F00C
:10536000F7F801F051FA059001F0F2F801F071FB45
:105370002178049005EB011501F0EAF801F042FDF7
:10538000064601F0E5F801F042FDDDE9043243494B
:105390000095CDE901603D48FEF7D1FE01F0D8F857
:1053A00001F032FA0A2825D8FEF7E2FE054601F0A0
:1053B000CFF801F029FA049001F0CAF801F049FB96
:1053C000049902462846FFF759F898B934492F48FE
:1053D000FEF7B5FE01F0BCF8054601F0B9F801F0A2
:1053E00013FA0146284601F08AFA01F0B1F80B21C0
:1053F00001F07FFA2378032B2DD1FEF7B9FEFEF7DB
:10540000B1FF00283FF45AAF01F05AF801F01CFB3D
:10541000C0B101F055F8054601F052F801F014FB57
:105420000146284601F073FB01F04AF8002101F023
:1054300074FB01F045F801F0A9FA1A490246134835
:10544000FEF77DFE2378042B11D1FEF791FEFFF7C6
:10545000A7FD08B070BD012B04D1FEF789FEFFF750
:10546000B3FCCEE710490948FEF769FE26E7022B98
:1054700004D1FEF77DFEFFF733F9EAE70B49F2E7C7
:1054800070D8032068E10320783D0C0050E603202B
:10549000ECD8032068D803207CD50320D23D0C0033
:1054A0000B3E0C005F3E0C003F3E0C00933E0C0098
:1054B000014B1A60704700BFECD50320014B01225D
:1054C0001A70704763E4032030B585B0044608982D
:1054D00060B1406850B1856845B1CDE90241CDE980
:1054E0000023C46801AB6A4602A9A04705B030BDDD
:1054F00030B585B0006813680193D1E90045836831
:10550000CDE902450BB90BF0C3F9C36801AA02A9A2
:10551000984705B030BD012A02D1016000207047D4
:10552000022A04BF0B680360F8E703681268D1E938
:105530000001184708B5002007F0F4FE28B107F075
:10554000D1FE80F00100C0B208BD0120FCE710B51B
:105550008368044613B1032201469847204610BDD4
:1055600010B5044638B1FFF7F2FF20461021BDE820
:105570001040FEF794BD10BD70B5144C144D237847
:10558000144E022BC2B017D10AF04AFEA0B92278FD
:10559000337805EB021200920F4A05EB03134FF428
:1055A000807102A807F066FF23780C48337002A9C7
:1055B000FEF7C5FD42B070BD2278337805EB0212CC
:1055C000009205EB0313064AE9E700BF62E40320FB
:1055D000F0D5032061E40320C83E0C0050E6032010
:1055E000E83E0C0010B500F06BFF01F0CFF9044667
:1055F0000AF016FE08B90A2010BD3C2044430AF008
:105600002CFEB0FBF4F303FB1400201A0928F2D996
:10561000A04228BF2046EFE72DE9F04F2DED028B89
:10562000E7B01EAD0023EB618A4B2B608A4B6B60A9
:105630008A4BAB608A4BEB608A4B2B618A4B6B6168
:105640008A4BAB610446002800F0B180FEF790FD64
:10565000129000F07DFF01F0FCF9224603461299FA
:105660001AA8FEF7C1FE82491AA80AF046FB0446B2
:1056700038B11AA80AF030FA67B0BDEC028BBDE869
:10568000F08F00F065FF01F0DDF8804600F060FF6C
:1056900001F0D3F8DDF868B0824600F059FF01F060
:1056A000DDF9139000F054FF01F008FA149000F0B7
:1056B0004FFF01F0D1F8159000F04AFF00F070FFA5
:1056C000B0EE408AF0EE608A00F042FF01F0ABF8E5
:1056D00055F82030129300F03BFF01F09FF8169030
:1056E00000F036FF01F0A4F8179000F031FF01F050
:1056F000AEF8189000F02CFF01F086F8054600F097
:1057000027FF01F07FFB064600F022FF01F07FFB40
:10571000074600F01DFF01F090F819900AF09DFD7A
:10572000109040460BF012FA8046504689460BF026
:105730000DFA02460B46404649460BF09BFB4D4B8B
:1057400000220BF06DFA0BF063FD0BF011FA199BC0
:10575000494ACDE90C73189B0993179B0893169B34
:105760000793129B0693159B0293149B0193139B23
:105770000093CDE90E015B464FF480718DED048BF3
:1057800026A8CDE90A5607F075FE04F06BFE3B4BE8
:105790003B4A1B7812783B49134302688DF800306E
:1057A0008DF8044014683C2326AAA04761E702F064
:1057B0006BF91AA807F09EFD1A9B129300F080FE69
:1057C00001F01DF8064600F0C3FE00F0E9FEB0EE61
:1057D000408AF0EE608A00F0BBFE01F024F855F834
:1057E000209000F0B5FE01F019F8054600F068FEC3
:1057F00000F0ECFF074600F063FE00F0ECFF80468F
:105800000AF02BFD129B204A00944FF48071CDE9E1
:105810000980CDE90146CDE907578DED048BCDF820
:10582000189026A807F026FE1AA80AF055F904F0E9
:1058300019FE124B124A1B7812781449134302685E
:105840008DF800308DF8044014683C2326AAA04748
:1058500012E700BFF63E0C00FE3E0C00023F0C00BB
:105860000B3F0C00133F0C001F3F0C00253F0C00AA
:10587000E6380C0000005940313F0C001DE30320C6
:105880001CE30320FF3F0C0014400C00A2400C005E
:1058900070B5054607F02AFA064E044607F026FAC8
:1058A000001BA84205D207F021FA306007F00AFD7C
:1058B000F4E770BD10E7032038B5002383608B68E0
:1058C00004460D462BB102229847EB68E360AB68B3
:1058D000A360204638BD00002DE9F04395B0054691
:1058E0001C9904A890461F460CAEFFF7E5FF04A9DB
:1058F00008A8FFF7E1FF08A93046FFF7DDFF4FF0EA
:1059000000091020CDF84890FEF7C5FB0446A0B171
:1059100096E8030001AB83E8030094E8030086E8FF
:10592000030093E803000E9BE268A36084E8030091
:105930000F9BCDF838900F92E360244B1393244BC8
:105940001293002200234FF00009C5E90023214BE8
:10595000C5F8089010201094CDE90139CDF80C90CD
:10596000FEF799FB0446D8B1129BC0F8089033B1FA
:10597000022210A99847139BE360129BA360164B69
:105980000393164A029401AB4046394607F030FCB7
:10599000B0B12046FFF7DBFD10212046FEF77FFB6C
:1059A00010A8FFF7D4FD3046FFF7D1FD08A8FFF798
:1059B000CEFD04A8FFF7CBFD284615B0BDE8F08367
:1059C000029BAB60C5E90087EAE700BFF1540B001A
:1059D000E1590B0002000C0061550B00C9540B008B
:1059E000012A37B5044604D10B680360002003B0D8
:1059F00030BD022A0CD0032AF8D10468002CF5D05F
:105A00002046FFF7A4FD10212046FEF748FBEDE7F6
:105A1000096801911020FEF73EFB054610B101997F
:105A2000FFF74AFF2560E1E7164B10B501241C7013
:105A3000154B08221A700AF0B9FD00231A460721F7
:105A40000AF0C4FD0AF0B2FD00231A460D210AF047
:105A5000B5FD0E4B1A1D1A600D4A5A600022C3E9AB
:105A600002221A611C750AF081FE6922014609486A
:105A700002F06AF80848062340F8043BBDE81040ED
:105A800003F0A8BF1CE303201DE3032054E303201D
:105A90001000030034E3032070E30320F0B500207E
:105AA0009DB007F033F942F210750446002007F06C
:105AB0002DF9001B61F10001A84271F1000307D22A
:105AC0000AF0B2FC0AF0A5FC10B907F0FBFBEDE709
:105AD0000AF0AAFC0AF09DFC01F078FE01F0AAFE93
:105AE00000F0EEFC0368504E1B68504F984700F0E2
:105AF0002FFD03681B68984700F0B0FD03681B6822
:105B0000984701F04FFA01F05FFA0823012130466F
:105B1000738102F015FD7C21304602F013F9444BED
:105B20000693444B099306AD434B08934FF48022F0
:105B3000002302A80095FFF7CFFE2846FFF707FDD8
:105B400004F090FC04F094FEFEF712FB0121FEF736
:105B500077FB04F01FF939490446284603F0ECFFAF
:105B600007A904F108000AF03EF80C9BE3610DA9B7
:105B700004F120000AF037F8129B6363149BE3637F
:105B8000169B6364189BE3641A9B63659DF86C30F5
:105B900084F85830284603F08BFD0AF05EFBC317EB
:105BA000C7E91803384604F06DF90AF039FB244CB4
:105BB000002832D03946234A284604F04DF8012304
:105BC0001A4610213046069F02F03DF91E491F4B30
:105BD0003A46002818BF0B461D481E49FEF7AFFA8B
:105BE000284609F079FF1C491948FEF7A8FA00F089
:105BF00067FC032100F059FE184819490088052365
:105C0000002223704FF0FF33009208F00BFA237844
:105C10000BB9022323701DB0F0BD12490C48FEF7EA
:105C20008EFA05232370DEE734E3032070E30320BC
:105C3000B1540B002B550B0017550B00C4400C0042
:105C400062E40320EB400C00BA400C00BD400C00A5
:105C500050E60320F6400C0065410C00FA490C00A8
:105C6000BD540B0027410C002DE9F043994C2378DB
:105C7000013B93B0062B22D8DFE813F0EA020700BD
:105C800053004C013802A7021A02934B1B78022BD7
:105C900001D0FFF771FC914D2B781BB100232B70C5
:105CA00004230BE000F00CFC00F08BFD0128F5D87C
:105CB00000F006FC00F094FD88B3012323708848AF
:105CC00002F0ECFB04F0CEFB04F0BEFA00F0F8FBAF
:105CD00000F086FD08B10123237000F0F1FB00F015
:105CE0000DFC00F035FC00F051FC00F0B7FC00F0BA
:105CF000D5FCFEF73DFAFEF74DFA7A4B1B68002BF8
:105D0000C0F2FE8278497948FEF719FA4FF4FA603A
:105D1000FFF7BEFD13B0BDE8F0430AF0AAB80323B5
:105D2000CCE76D4B1B78032B01D0FFF725FC00213E
:105D30006B48DFF8DC816E4D02F004F8FFF752FC8F
:105D400081460AF08AFA00EB0902D3176949CDF8B7
:105D500000800AA80AF022FA0A9B04930AF0ECF8E1
:105D6000049B654900904A466048FEF7E8F90AA896
:105D700009F0B2FE2B7D0BB102222A725F4A17880E
:105D8000002B4AD02B68DB68F3B19A88012A06D031
:105D90009B68F9E79B68BBB19A88012AFAD19A8976
:105DA000BA42F7D100229A732B7D002B35D02B6895
:105DB0004FF47A70DB6800FB09F9D3B19A88042AA2
:105DC00000F099829B68F8E74D4910200AF056FDD3
:105DD0000646002800F09282102200210BF000FB02
:105DE000484B33600123B3802B69B360B7812E61C8
:105DF000DAE7434910200AF041FD0646002800F08A
:105E00007D82102200210BF0EBFA3E4B336004231D
:105E1000B3802B692E61C6E90239354907A80AF01B
:105E20002BF82F484FF0FF3101F08CFF079BEBB1AF
:105E30009A88012A1AD19B899F4232D1002006F00C
:105E400065FF42F210760546002006F05FFF401B1A
:105E500061F10001B04271F100030AD20AF0E4FAE4
:105E60000AF0D7FA28B907F02DFAEDE74FF6FF73DD
:105E7000E2E70AF0D9FA0AF0CCFA4FF47A70FFF7A9
:105E800007FD21491948FEF75AF9022323700798A4
:105E9000124B01221A7000283FF411AF07F0CAFA22
:105EA0000DE70AF0DAF91349CDF80080C31702466E
:105EB0000AA80AF073F90A9A04920AF03DF8049AC3
:105EC000124903460948FEF73AF90AA809F004FE08
:105ED000DBE700BF62E4032061E4032060E4032009
:105EE00034E30320ECD50320C6420C0050E6032027
:105EF00054E30320A8E6032098410C00FA490C0063
:105F0000D8570C0010000300D8410C00EE410C00E3
:105F100095410C00BF4BDFF834831B78BE4D042B3A
:105F200072D0072B03D006F0E1FEC8F80000FFF79F
:105F300023FBFEF71DF9FEF72FF90AF08EF9B74E95
:105F4000C317C6E91803304603F09CFF06F1680149
:105F500007A803F029FE9DF9207000F0B1FA00F0C7
:105F600044FC8742C0F2938006F168010AA803F05E
:105F70001BFE9DF92C7000F0A3FA00F03BFC874259
:105F80000AA8CCBF0027012703F082FB07A803F073
:105F90007FFB002F7DD000F0DBFA012100F01AFF1B
:105FA00000F08EFA00F00DFC002876D103232B7050
:105FB0002A78059200F084FA00F003FC049000F0C7
:105FC000C7FA00F089FE964E9649002808BF0E4693
:105FD00095490AA803F0E8FD9DF92C9000F070FAAD
:105FE00000F003FC074600F06BFA00F003FCCDE97B
:105FF0000069CDE90270DDE904328C488C49FEF776
:106000009EF80AA803F044FBFEF7B2F8FFF73CF94C
:1060100060B100F09DFA00F01AFC012806D000F0F3
:1060200097FA00F059FE08B10723237006F05EFED0
:10603000D8F80030C01A2B784EF6602253439842AD
:106040007FF63DAEFEF794F8FEF7B6FAFEF790F84D
:10605000FEF7B2F8FEF78CF80021FEF719FC00F00D
:10606000FDFA03680121DB6898470AF007F9054645
:1060700000F026FA00F080FD09F0C6FF854204D04A
:1060800000F066FA00F028FE80B9022316E6002729
:106090007CE700F05DFA394680E700F011FA00F085
:1060A00090FB01280CBF0A233C2380E7052305E66B
:1060B000584B1B78072B01D0FFF75EFA00F048FA27
:1060C00000F0A2FBFFF7A8FA00F042FA002100F06E
:1060D0003AFC00F0F5F9054600F0F2F900F07BFB20
:1060E0000130C1B2284600F0ECFBD9E5494B514DD7
:1060F0001B78052B27D0FFF73FFA00F0E1F900F0FD
:106100003BFD09F089FF484906460AA803F069FDEE
:106110009DF82B30B6EBD30F07D000F019FA00F042
:1061200067FD45494148FEF70AF800F0C9F900F05B
:1061300043FBFFF771FA07F0D5F808B907F0CAF882
:1061400006F0D4FD286007F0CDF838B300F0B8F9B8
:1061500006460AF082F80246C317304600F034FDC6
:1061600000F0AEF9064606F0C1FD2968411A4FF469
:106170007A70B1FBF0F1304689B200F0C2FC07F052
:10618000B1F8C8B107F0AEF810B1002007F0C2F8BE
:10619000FFF7D0F950B907F095F8F9E706F0A6FD3A
:1061A0002B68C01A254B9842D0D888E5FFF7C2F972
:1061B00023490AA807F030FA00F082F900F001FB49
:1061C00001283FF66DAD062378E5124B1D4D1B7877
:1061D000062B04D0FFF7D0F906F088FD286006F002
:1061E00085FD2B68C01A184B98427FF668AD04F005
:1061F00039F990F8B330002B3FF461AD00F060F94D
:1062000000F0DFFA01283FF640AF00F0CBFE01F0CE
:1062100045FA3AE761E4032028E3032070E3032012
:1062200089410C008E410C00D8E3032050E6032086
:106230000F420C002CE303206C420C00C027090025
:106240000CE6032030E30320905F010024E30320E9
:106250002D4D2E4E2B78BFF35B8F13F0010F09D11C
:106260002846FDF72BFF28B106F040FD3060284698
:10627000FDF729FF264B22781B789A4225D0FFF79D
:106280007BF907F02FF8D8B1224B234A1B788DF801
:10629000003022493C230AA807F010FC0B9D7DB179
:1062A0006B68013B6B605BB92B6828469B6898471D
:1062B000AB68013BAB601BB92B682846DB6898478D
:1062C00000F0FEF8002100F002FB06F00FFD33683D
:1062D000C01A47F2305398427FF6F1AC104911488A
:1062E000FDF72DFF4FF4FA60FFF7D2FA1E210E489A
:1062F00001F082FEE3E4C3F80C908EE52E758CE588
:1063000013B0BDE8F08300BF18E3032020E30320AF
:1063100061E403201CE303208B420C00A9420C0023
:10632000AF420C0050E6032034E3032010B5034BCA
:106330000360044603F054FE204610BD78440C0070
:1063400010B50446FFF7F2FF20461021FDF7A7FE27
:10635000204610BD10B506F0BDFB044620B9034A27
:1063600003490448FDF7EBFE204610BDE2420C0055
:10637000EC420C0050E6032010B5036804460BB94C
:1063800006F064FC2068BDE8104006F06FBC38B52C
:1063900004460430FFF7F0FF606AA16A0368DD6815
:1063A000D4E90223A847606806F068FC2046BDE8EF
:1063B000384006F0ABBA38B504460430FFF7DCFFCE
:1063C000606AA16A03689D68D4E90223A847A268AD
:1063D0002368D1885B692046984718B9236820460E
:1063E0009B699847606806F049FC012038BD0000B1
:1063F00010B5044B03600446406808B106F02EFC5B
:10640000204610BDCC540C0010B5034B036004466D
:10641000FFF7EEFF204610BDC0440C0010B5044647
:10642000FFF7F2FF20467021FDF739FE204610BD30
:1064300010B5034B03600446FFF7DAFF204610BD9A
:10644000EC440C0010B50446FFF7F2FF204678211B
:10645000FDF725FE204610BD10B5034B0360044632
:10646000FFF7C6FF204610BD94440C0010B504464B
:10647000FFF7F2FF204640F23C41FDF710FE2046B8
:1064800010BD000000F1300181600A494FF0400C5E
:10649000C0E903C1012181824FF47A71C1610649CB
:1064A0000022C0E909124260826180F82020034A7C
:1064B00002607047769EA92070E40320C0440C005F
:1064C00010B5064C23683BB97020FDF7E4FD034688
:1064D00008B1FFF7D7FF2360206810BD68E40320F0
:1064E00010B5406A03F092FDFFF7EAFF4FF4FA722D
:1064F0000368C261BDE810405B68184710B5FFF73C
:10650000DFFF0368BDE81040DB680021184700008A
:1065100000F13001002281600A4942604FF0480CCE
:10652000826180F82020084A4262C0E903C16422E7
:106530000121818282624FF47A71044AC161026052
:10654000704700BF769EA92070E40320EC440C0045
:1065500010B5064C23683BB97820FDF79CFD034637
:1065600008B1FFF7D5FF2360206810BD6CE403205D
:1065700010B5406A03F04AFDFFF7EAFF4FF4FA72E4
:106580000368C261BDE810405B68184710B5FFF7AB
:10659000DFFF0368BDE81040DB68002118470000FA
:1065A00010B504462DED028B0430FFF7E5FEE368DD
:1065B000083B172B0CD9A36893ED068B606806F097
:1065C0005DFBB0EE480AF0EE680ABDEC028B10BD30
:1065D0009FED018BF2E700BF00000000000000000B
:1065E000F8B50446043057EC106BFFF7C5FEE368BE
:1065F000083B172B0CD9A5683046D5E90623394648
:106600000AF076FD20B9C5E90667204606F026FAAD
:106610006068BDE8F84006F031BB000000F12C01D5
:10662000002281600A4942604FF4826C826180F8E6
:106630002020084A4262C0E903C1C82202218182A7
:1066400082624FF47A71044AC1610260704700BFF0
:10665000609EA92070E4032094440C0010B5074C00
:10666000236843B940F23C40FDF715FD034608B1ED
:10667000FFF7D4FF2360206810BD00BF64E403204F
:1066800010B5406A03F0C2FCFFF7E8FF4FF4FA725E
:106690000368C261BDE810405B68184710B5FFF79A
:1066A000DDFF0368BDE81040DB68002118470000EB
:1066B00038B504460D46064909F059FA23464FF409
:1066C00080621021284606F057F9204638BD00BFE9
:1066D00054560C000B464FF48062102106F0CAB9E4
:1066E00010B5144C144988B0684609F040FA009A75
:1066F00012492046FDF723FDFFF7B0FF0099FFF791
:10670000E9FFFFF7ABFF03680121DB689847FFF75C
:10671000A5FF014604A8FFF7CBFF049A08492046CD
:10672000FDF70DFD04A809F0D7F9684609F0D4F982
:1067300008B010BD50E60320FE420C000B430C00D5
:1067400029430C0070B5104904461048FDF7F7FCCA
:10675000C825606A03682946DE68FF2202230135E6
:10676000B047B5F59B6FF4D109490848FDF7E7FC40
:10677000204606F015FA2046FFF7B2FF2046BDE896
:10678000704006F06BB900BF3F430C0050E6032099
:1067900053430C0038B5044604300D46FFF7ECFDBA
:1067A000E3686068013BAB4226BFA3685D5D0025DE
:1067B00006F064FA284638BD08B51021FFF7EAFF55
:1067C00008BD08B51421FFF7E5FF08BD08B5152180
:1067D000FFF7E0FF08BD08B51621FFF7DBFF08BD96
:1067E00008B52E21FFF7D6FF08BD08B53821FFF701
:1067F000D1FF08BD08B53921FFF7CCFF08BD08B5AA
:106800003B21FFF7C7FF08BD08B51021FFF7C2FF06
:1068100008BD08B51121FFF7BDFF08BD08B514215B
:10682000FFF7B8FF08BD08B52021FFF7B3FF08BD8B
:1068300008B52121FFF7AEFF08BD08B52421FFF7F9
:10684000A9FF08BD08B52521FFF7A4FF08BD08B5BD
:106850003421FFF79FFF08BD08B54121FFF79AFFDC
:1068600008BD70B5044604300D461646FFF784FD9A
:10687000E368013BAB4207D3A3685A5DB24203D041
:106880005E55204606F0EAF86068BDE8704006F004
:10689000F5B908B50A461021FFF7E3FF08BD08B5B2
:1068A0000A461121FFF7DDFF08BD08B50A4614218D
:1068B000FFF7D7FF08BD08B50A461521FFF7D1FF3E
:1068C00008BD08B50A461621FFF7CBFF08BD08B57D
:1068D0000A462E21FFF7C5FF08BD08B50A46382134
:1068E000FFF7BFFF08BD08B50A463921FFF7B9FF1A
:1068F00008BD08B50A461021FFF7B3FF08BD08B56B
:106900000A461121FFF7ADFF08BD08B50A4614215C
:10691000FFF7A7FF08BD08B50A462021FFF7A1FF32
:1069200008BD08B50A462121FFF79BFF08BD08B541
:106930000A462421FFF795FF08BD08B50A46252120
:10694000FFF78FFF08BD08B50A463421FFF789FF1E
:1069500008BD08B50A464121FFF783FF08BD38B5D9
:10696000044604300D46FFF707FDE3686068023B0C
:10697000AB4226BFA3685D5B002506F07FF9284681
:1069800038BD08B51221FFF7EAFF08BD08B52A2176
:10699000FFF7E5FF08BD000013B506F09BF80446BD
:1069A000A0B1FFF78DFDFFF720FF0C2817D9FFF7E7
:1069B00087FDFFF71AFF0190FFF782FDFFF71AFF2F
:1069C000019A1B4903461B48FDF7B9FB1A4A1B49AC
:1069D0001848FDF7B4FB0024204602B010BDFFF7B5
:1069E0006FFDFFF707FF0B28E1D9FFF769FDFFF700
:1069F000CDFF90B1FFF764FDFFF7C8FF3C280CD82E
:106A0000FFF75EFDFFF7D8FE0028E5D0FFF758FD41
:106A1000FFF7D2FE0A49024605E0FFF751FDFFF7F6
:106A2000B5FF084902460348FDF789FBCEE700BFE2
:106A300065430C0050E60320E2420C00D5430C00F5
:106A4000B6430C0091430C0008B52C21FFF787FFDB
:106A500008BD08B51221FFF782FF08BD08B5302137
:106A6000FFF77DFF08BD000010B506F033F80446BF
:106A700098B1FFF76DFDFFF7F1FFFFF769FDFFF735
:106A8000EDFFB0F5806F0ED9FFF762FDFFF7E6FF6F
:106A9000064902460648FDF752FB064A06490448E5
:106AA000FDF74DFB0024204610BD00BFEA430C005B
:106AB00050E60320E2420C0010440C0008B53221DD
:106AC000FFF74DFF08BD70B5044604300D4616466D
:106AD000FFF752FCE368023BAB4207D3A3685A5B63
:106AE000B24203D05E53204605F0B8FF6068BDE8AF
:106AF000704006F0C3B808B50A461221FFF7E3FF5D
:106B000008BD08B50A462821FFF7DDFF08BD08B516
:106B10000A462A21FFF7D7FF08BD08B50A462C21EF
:106B2000FFF7D1FF08BD08B50A461221FFF7CBFFDA
:106B300008BD08B50A463021FFF7C5FF08BD08B5F6
:106B40000A463221FFF7BFFF08BDF8B504460430FE
:106B50000D46FFF711FCE3686068083BAB4223BFBA
:106B6000A1684919D1E90067002638BF002706F05F
:106B700085F830463946F8BD08B52021FFF7E5FF16
:106B800008BDF8B5044604300D461E461746FFF70B
:106B9000F3FBE368083BAB420CD3A3685A1958597E
:106BA0005168B14208BFB84204D05F5120465660D8
:106BB00005F054FF6068BDE8F84006F05FB808B51E
:106BC0001821FFF7DEFF08BD08B52021FFF7D9FF28
:106BD00008BD08B53021FFF7D4FF08BD08B528214E
:106BE000FFF7CFFF08BD08B53821FFF7CAFF08BD82
:106BF00010B524492448FDF7A2FAFFF7A9FC0B21A0
:106C0000FFF777FEFFF7A4FC0021FFF778FEFFF700
:106C10009FFC0021FFF787FFFFF79AFC0021FFF799
:106C200092FEFFF795FC00220023FFF7DCFFFFF741
:106C30008FFC0021FFF783FFFFF78AFC0021FFF79D
:106C400078FFFFF785FC0021FFF771FEFFF780FC5E
:106C50000021FFF772FEFFF77BFC044609F0FDFA06
:106C60000246C3172046FFF7B9FFFFF729FC0021B2
:106C7000FFF721FEFFF724FCBDE810400021FFF7DD
:106C800020BE00BF23440C0050E6032010B504468C
:106C900005F086FF05490648FDF751FA2046FFF743
:106CA000A7FF2046BDE8104005F0D8BE44440C00C4
:106CB00050E6032038B5044604300D46FFF75CFB70
:106CC000E3686068013BAB4226BFA3685D5D0025B9
:106CD00005F0D4FF284638BD08B54021FFF7EAFF8C
:106CE00008BD70B5044604300D461646FFF744FB58
:106CF000E368013BAB4207D3A3685A5DB24203D0BD
:106D00005E55204605F0AAFE6068BDE8704005F0BB
:106D1000B5BF08B50A463A21FFF7E3FF08BD0000FA
:106D200010B5044605F03CFF28492948FDF707FA4D
:106D3000FFF7C6FB0021FFF7ACFDFFF7C1FB012108
:106D4000FFF7ADFDFFF7BCFB46F6E131FFF7D3FEE1
:106D5000FFF7B6FB0021FFF7A8FDFFF7B1FB00210D
:106D6000FFF7A9FDFFF7ACFB0021FFF7AAFDFFF736
:106D7000A7FB00220023FFF722FFFFF7A1FB3C2126
:106D8000FFF7C5FEFFF79CFB0021FFF7C6FEFFF7EC
:106D900097FB0021FFF79BFDFFF792FB00220023EA
:106DA000FFF717FFFFF78CFB0621FFF796FDFFF7B4
:106DB00087FB1621FFF797FDFFF782FB0021FFF706
:106DC000A8FF2046BDE8104005F048BE5D440C0019
:106DD00050E6032008B50A464021FFF782FF08BDB0
:106DE00038B5044604300D46FFF7C6FAE36860681C
:106DF000023BAB4226BFA3685D5F002505F03EFF66
:106E0000284638BD08B52221FFF7EAFF08BD08B5BE
:106E10004221FFF7E5FF08BD70B5044604300D467A
:106E20001646FFF7A9FAE368023BAB4207D3A36813
:106E30005A5FB24203D05E53204605F00FFE6068F1
:106E4000BDE8704005F01ABF08B50A462221FFF7D9
:106E5000E3FF08BD08B50A464221FFF7DDFF08BD84
:106E600010B509F083FC054C014600234FF4005295
:106E7000204603F0C1F8024B236010BD70E40320EC
:106E800078440C007047006A0368DB681847704755
:106E900010B504210446FDF702F9204610BD00009C
:106EA00010B5034B0360044601F0F2FD204610BD0F
:106EB000AC490C0010B50446FFF7F2FF204640F63F
:106EC0002C11FDF7ECF8204610BD7FB50268536821
:106ED000906814685E1000EB6305DB0748BF8359B8
:106EE000684648BF1C5908F073FE69462846A0470B
:106EF0000446684608F0F0FD204604B070BD012A43
:106F000038B5044602D10B68236003E0022A03D09F
:106F1000032A0DD0002038BD0C200D68FDF7BBF80A
:106F200003460028F0D095E8070083E80700EBE768
:106F300000680028EED00C21FDF7B1F8EAE737B57C
:106F40001D4601AB044601F085FF20B101992A4698
:106F5000204601F061FF03B030BD00000A4B10B5C0
:106F60000446036007F02CFC214607F030FE09F0D0
:106F70005BFA09F04BFA2046044B40F8043B07F05B
:106F8000C1FC204610BD00BF94490C007C490C0098
:106F900010B50446FFF7E2FF20462421FDF77FF8F5
:106FA000204610BD10B5064C236833B90420FDF708
:106FB00072F808B1034B03602060206810BD00BF69
:106FC00090E40320BC490C0030B5194985B0044653
:106FD0001848FDF7B4F800250C200295FDF75BF882
:106FE00018B1154B8460C0E90035144B0090039331
:106FF0001020134B0293FDF74EF8044678B100239E
:107000008360029B33B1022269469847039BE36089
:10701000029BA3600B4A0C48214606F03EFC029BF3
:107020001BB1694603220846984705B030BD00BF32
:1070300010450C0050E603204D700B00CB6E0B008A
:10704000FF6E0B003E450C0073D80B002DE9F04F8E
:10705000ADF6B41D0C4609A8A74908F088FDA6495D
:107060000DA808F084FD50234FF4806200932CA9F2
:107070000DF5966321A801F06DFDA04B2168A04895
:107080002193FDF75CF821A801F05AFD21680391D6
:1070900008460AF070FA0399024621A801F033FD70
:1070A00021A802F089FA044690B996499448FDF760
:1070B00046F8954B934A1B788DF8003011A89349F8
:1070C0003C2306F0FBFC12A8FDF7F4FA254617E076
:1070D00021A801F05AFD8D4A8D4FDFF88882DFF834
:1070E0008892014606AB21A801F0B4FE002506995E
:1070F0002A4621A801F06BFD064678B9002DE5D19E
:1071000021A8FFF7CDFE0DA808F0E6FC09A808F0BD
:10711000E3FC28460DF6B41DBDE8F08F014607AB31
:107120003A4621A801F096FE20B1079904AA21A8A9
:1071300001F0A6FD09AB4246314621A8FFF7FFFE4C
:10714000314621A80DAB4A46FFF7F9FE71490DA85B
:1071500008F0D3FD00287BD0049B002B5DD16E4945
:1071600009A808F0CAFD00283AD06C4911A80AF015
:10717000DCF9FFF773FAFFF7B3FA69496048FCF7E7
:10718000DEFF614B674A1B7867498DF8003007A81E
:107190003C2306F093FC08A8FDF78CFA4FF4FA6044
:1071A00006F0C0F908F065FEFFF7D2F9FFF720FD01
:1071B000534811A9FCF7C3FF06F094F860B1524B95
:1071C00052491B788DF8003007A83C2311AA06F01D
:1071D00075FC08A8FDF76EFA01350A2D87D175E711
:1071E000524909A808F089FD90B1514911A80AF047
:1071F0009CF9FFF765F903689B699847FFF7A8F9C1
:10720000FFF7F6FCFFF72AFA03689B699847CBE77C
:10721000484911A80AF089F9C6E7444909A808F0C5
:107220006CFD049B58B1444A402111A806F022F994
:10723000FCF79EFF05220499FDF764FEB8E73F4A7C
:10724000402111A806F016F9FCF792FF0622F2E79A
:107250003B490DA808F051FD00B309980A2205A981
:107260000BF0FAF8431E3B2B064611D83C2393FB48
:10727000F0F343433C2B0BD10346324A402111A883
:1072800006F0F8F8FFF71CF9B1B2FFF746FC8FE7FC
:107290002D4911A80AF049F9002489E72B490DA8C6
:1072A00008F02BFDB8B12A4909A808F026FD0646CA
:1072B00048B1284911A80AF038F9FFF701F903216C
:1072C000FFF7F3FA74E7244911A80AF02EF9FFF743
:1072D000F7F83146F4E721490DA808F00EFD002823
:1072E00044D01F4911A80AF020F9FCF741FF012101
:1072F000FDF7CEFA5CE700BF54560C00AC490C0019
:1073000050E603204F450C008CE403206D450C0033
:10731000B23A0C0078450C00203B0C007E450C0076
:10732000A0450C00D8450C00A9420C00EA450C0011
:10733000EE450C001E460C0043460C006F460C0048
:1073400090460C0095460C00BF460C00DF460C0032
:10735000E4460C00E9460C001D470C003F470C00BA
:1073600043470C0071450C0075450C0050490DA8B1
:1073700008F0C3FCA8B109980A2205A90BF06CF823
:107380000C2806460BD803464A4A402111A806F0AD
:1073900071F8FFF795F8F1B2FFF79FFA08E7464951
:1073A00077E746490DA808F0A8FCB8B109980A2269
:1073B00005A90BF051F8A0F10D030B2B06460BD8D5
:1073C00003463F4A402111A806F054F8FFF778F829
:1073D000F1B2FFF788FAEBE63A495AE73A490DA8C5
:1073E00008F08BFCE8B109980A2205A90BF034F8E3
:1073F0000228064613D8049B344A009340210346D2
:1074000011A806F037F8FCF7B3FE04993246FDF7F1
:1074100089FC002849D0FCF7ABFE07220BE72C497A
:1074200037E72C490DA808F068FCD0B109980A226A
:1074300005A90BF011F80128064610D8264A274B5B
:107440004021002808BF1346254A11A806F012F86B
:10745000FFF736F806F00101FFF75BFCA8E62149CB
:1074600017E721490DA808F048FCE0B109980A2265
:1074700005A90AF0F1FF012813D81C4911A80AF048
:1074800054F8FFF71DF80121FFF721FAFFF718F86C
:10749000064608F0E2FE0246C3173046FFF799FBA6
:1074A00086E61349F5E61349F3E6044680E600BF95
:1074B00089410C0058470C0076470C008F470C00A0
:1074C00095470C00B3470C0043390C00CE470C0025
:1074D000F4470C000F480C00EF480C0047450C0027
:1074E00013480C0025480C0055480C0059480C0066
:1074F0007D480C0098480C0070B5D0E90053142664
:10750000044606FB0356AE4204D0284608F0E4FACF
:107510001435F8E7206805F08DFF204670BD8842DD
:10752000F8B504460D46164616D9904215D2A2F17A
:107530001406751AA1F114072C44B7421CD02CB1C3
:107540003146204608F044FB337C2374304608F073
:10755000C3FA143E143CF0E70ED0B5420CD02CB167
:107560002946204608F034FB2B7C2374284608F07B
:10757000B3FA14351434F0E7F8BD2DE9F0410023D7
:10758000C0E9003383604F689F4204460E4623DD06
:107590004FF0140808FB07F005F044FF0546D8B18A
:1075A000D4E9001208FB0212FFF7B9FF206805F0CA
:1075B00041FF2560A760D6E9007308FB0378B84552
:1075C00008D03946284608F01DFB3B7C2B74143745
:1075D0001435F4E7736863602046BDE8F08100006D
:1075E00070B5274B274A01251D70274B00248CB00E
:1075F0009A60C3E90044022005F0EAFD21462846CE
:1076000005F0FEFD2946042005F050FBCDE90044BD
:10761000029408F009FF1D4C0546694603A8FFF7D0
:10762000ACFF264603A906A8FFF7A7FF184B46F8AC
:10763000043B06A909A8FFF7A0FF09AA1E213046AE
:1076400007F0A8FB09A8FFF757FF06A8FFF754FFAC
:10765000104B2360256203A8FFF74EFF0E4B2360FB
:1076600008F0E2FE4FF4165108F0CCFE07F0A8F83F
:10767000214607F065FA6846FFF73EFF0CB070BD83
:107680008CE403200000FFFF80E4032094E4032047
:107690007C490C0084560C0094490C002DE9F04301
:1076A00085B008F0DAFD414905464148FCF747FD41
:1076B000002401A8CDE90144ADF80C4006F0FEF825
:1076C000204605F023FB43F698260446002005F0EB
:1076D0001DFB031B61F10001B34271F1000305D2F0
:1076E00005F000FE10B105F0EDFDEFE705F0FAFD45
:1076F00005F0FCFA2F4F386005F0E4FD05F0F2FDCF
:10770000044640B12C492A48FCF719FD00242046C4
:1077100005B0BDE8F08308F0A0FD2849DFF8A0809F
:10772000421B2348FCF70BFD08F097FD224602217F
:107730000646D8F8040005F025FED8F804002346D4
:107740002246214605F036FE204605F0DFFA47F2D4
:1077500030590546002005F0D9FA431B61F10001BC
:107760004B4571F1000306D2404607F031FE10B9D7
:1077700005F0A8FDEEE7124807F02AFE05F0B6FA7C
:10778000386005F09FFD0E4807F01EFE20B10D4940
:107790000748FCF7D4FCBAE708F05FFD0A49821BF2
:1077A0000348FCF7CCFC0124B1E700BFAC480C0057
:1077B00050E6032010E70320D5480C00F8480C00E1
:1077C0000CE6032021490C0047490C0008B5174975
:1077D0001748FCF7B4FC0221042008F03DFF00210B
:1077E000082008F039FF0121072008F035FF0021AB
:1077F000122008F031FF0121112008F02DFF012196
:10780000102008F029FF0021102008F036FF002189
:10781000112008F032FF0121062008F01DFF012190
:10782000062008F02AFF012008BD00BFC4490C0053
:1078300050E6032010B51849184890B02024FCF7F2
:107840007EFC22460021684609F0CAFD224600213E
:107850000DEB04008DF8054009F0C2FD00210DEB91
:1078600004008DF8254005F007FD41F2D833ADF84E
:1078700006300B4B029341F27003ADF80C30009BC5
:10788000002143F400736846009305F0F5FC0038CE
:1078900018BF012010B010BDDD490C0050E60320D8
:1078A0008403840307EE900A9FED097AF8EEE77AE5
:1078B00067EE877A9FED077A87EE870ADFED067A13
:1078C00070EE677AB2EE040A87EE800A704700BF56
:1078D00000404E4500F07F450000FA4313B50121FA
:1078E00001A807F00AFEFEF733FEFEF797FFFEF74A
:1078F0002FFEFEF793FF252801A80DD907F090FE73
:10790000FEF726FE0121FFF706F8002401A807F084
:1079100003FE204602B010BD07F067FE0124F5E724
:1079200030B51B4D0FCD9BB010AC0FC40FCD0FC4A5
:1079300095E8030084E80300164908A805F06CFEEA
:1079400008A805F0ACFE044608A805F0E1FE08A86A
:1079500010EE105A05F00CFF1AAB10EE100A03EBF4
:10796000840409F005F9CDE90201284609F000F97F
:10797000CDE90001102154F8283C074A0DEB010025
:1079800005F078FD054804A9FCF7D9FB1BB030BD14
:10799000844A0C000CE60320424A0C0050E6032007
:1079A00030B585B00D4600226946009205F0FEFB19
:1079B00090B9009C0CB1236923B9084A08490A20F0
:1079C00005F0BCFB0C23CDE901350423039301AA88
:1079D000236901212046984705B030BDDDCC0B005E
:1079E0005B4A0C0037B52548254D06F061FA05F0D5
:1079F0007DF9044605F07AF9001BB0F57A7F05D2CF
:107A000005F074F9286005F05DFCF3E7FEF7A0FDD2
:107A100001A904460720FFF7C3FF011EA8BF019973
:107A20002046C9B2FEF777FFFEF792FD01A9044692
:107A30000320FFF7B5FFE8B9BDF8043007EE903A30
:107A4000FBEECC7A17EE900A09F092F841EC100B9D
:107A50002046FEF7C5FDFEF77BFDFEF7A1FD094BB5
:107A600051EC100B002209F06BFB003818BF01200D
:107A700003B030BDFFEE007AE4E700BFB8E40320B6
:107A800010E7032000004E4013B5FEF761FD0F4BD9
:107A90000446188808F01DFEFFF704FFFDEEC07ACB
:107AA0002046CDED017A9DF80410FEF72EFFFFF77A
:107AB00099FFFFF713FFFEF703FDFEF77DFE08B900
:107AC000FFF72EFF012002B010BD00BF024A0C00DC
:107AD0000148002106F0A8B9B8E40320704710B5AA
:107AE00020210446FCF7DBFA204610BD10B5044601
:107AF0008AB008464FF0200C0021CDE90023CDE9E3
:107B000002C10B4602AA216805F028FB0AB010BD8D
:107B10000EB403B503AB322153F8042B0193FFF7E6
:107B2000E5FF02B05DF804EB03B070470EB403B597
:107B300003AB012153F8042B0193FFF7D7FF02B0E9
:107B40005DF804EB03B0704710B50272FF2242816A
:107B50000022C0E9032242610276C261024A034C5C
:107B60001060C0E9004110BDC4E40320FC4C0C00CF
:107B70002DE9F8439DF820800446894616461F46A5
:107B8000B8F1000F02D0406806F038FA217A606838
:107B900006F011FA6068036849469B689847606878
:107BA000002106F027FA054600BB0123217A606810
:107BB0003A4606F0EEF98742034609D13744BE4201
:107BC0001CD0606803685B69984706F8010BF6E70C
:107BD0000B490C484A46FFF79BFFB8F1000F02D053
:107BE000606806F014FA2846BDE8F88303460649A3
:107BF00004484A46FFF78CFF0025EEE70125ECE735
:107C0000AC4A0C00C0E40320D14A0C0007B5009335
:107C10000123FFF7ADFF03B05DF804FB73B54389A3
:107C2000FF2B044610D0194E194D05F05FF8B0F542
:107C30007A7F09D2608908F039FD012804D03146E5
:107C40002846FCF77CFAF0E701230DF10702282112
:107C50002046FFF7DBFF30B90D480E49FCF76FFAFD
:107C6000002002B070BD9DF80730182BF4D101231D
:107C70000DF1070229212046FFF7C8FF0028EBD0AD
:107C80009DF80730052BE7D1EBE700BFF54A0C0064
:107C9000C0E403200A4B0C0007B5134600228DF800
:107CA00007200DF10702FFF7B1FF9DF8070003B0B1
:107CB0005DF804FB2DE9F0419DF8188004460F465D
:107CC00015461E46B8F1000F02D0406806F096F93E
:107CD000217A606806F06FF96068036839469B682E
:107CE00098472E44B542606805D0036815F8011B1B
:107CF0009B689847F6E7012106F07CF9034670B1CE
:107D0000084909483A46FFF703FF0025B8F1000F7C
:107D100002D0606806F07BF92846BDE8F0810125B5
:107D2000F4E700BF174B0C00C0E403201FB58DF82B
:107D30000F2000930DF10F020123FFF7BBFF05B0E9
:107D40005DF804FBF8B50A460C4605461A491B487F
:107D5000FCF7F5F9002CB8BFEC687CB9012322468A
:107D60001B212846FFF7E2FF154902460646134845
:107D7000FFF7DCFEEC606C613046F8BD032C19DDCA
:107D8000A7101F2FA8BF1F27BA0062F07C02012393
:107D9000D2B21B212846FFF7C9FF3A4603460949DC
:107DA00006460648FFF7C2FE4FF4FA635F43EC60F5
:107DB0006F61E1E70127E7E73C4B0C00C0E40320DB
:107DC000464B0C00624B0C00064B1A684AB1A0F5FA
:107DD00000630B4305D1D3681BB100211046FFF7A8
:107DE000B1BF7047C4E403202DE9FF419DF828800E
:107DF000054616461F46B8F1000F04D040680191B1
:107E000006F0FCF80199019100230DF10F022846BC
:107E1000FFF7FCFE044660B19DF80F3003EA06024E
:107E20003A43934205D0019900232846FFF77EFF8D
:107E30000446B8F1000F02D0686806F0E8F8204662
:107E400004B0BDE8F08113B514460DF10702FFF749
:107E5000DDFE28B19DF807301C420CBF0120002038
:107E600002B010BD13B514460DF10702FFF7CEFEA8
:107E700028B19DF807301C4214BF0120002002B039
:107E800010BD07B5D2430093D2B20023FFF7ACFF79
:107E900003B05DF804FB000037B501230DF10702C4
:107EA0000F210446FFF7B2FE054638B91E491F48A8
:107EB000AD22FFF72DFE284603B030BD9DF80730F8
:107EC00013F0200F4FF001030BD02022E3610F21AC
:107ED0002046FFF7D6FF164A16491448FCF72FF93B
:107EE000E9E7082217212046FFF7BCFF18B102235B
:107EF000114AE361F0E79DF807301A0709D503231B
:107F0000E361082201230F212046FFF7BAFF0B4A45
:107F1000E2E75B07CFD50422E26101230F2120466F
:107F2000FFF7AFFF064AD7E7B54B0C00C0E40320CC
:107F3000864B0C00D44B0C008F4B0C009F4B0C005D
:107F4000AF4B0C0007B500931346FF22FFF74CFF21
:107F500003B05DF804FB0000F8B50F461646012398
:107F600000220F210546FFF7E1FE044638B94FF421
:107F700025721F491F48FFF7CBFD2046F8BD01239E
:107F8000232218212846FFF7D1FE044610B940F2FB
:107F90009B22EEE7FF2FA8BFFF27012FB8BF0127C5
:107FA0000123FAB219212846FFF7C0FE044610B992
:107FB0004FF42A72DDE70123082212212846FFF739
:107FC000C1FF044610B940F2AF22D2E7002E14BF21
:107FD00003220222012342F0800218212846FFF7E3
:107FE000A5FE04460028C8D140F2B922C1E700BF6F
:107FF000E54B0C00C0E403202DE9F7430A46054693
:108000000F464F484F49FCF79AF800212846FFF7E2
:1080100099FE044648B940F2F7124B494848FFF729
:1080200077FD204603B0BDE8F08301231A463021D6
:108030002846FFF787FF044610B940F20522ECE717
:108040001022012311462846FFF71BFF044610B9F2
:108050004FF40372E1E70123262213212846FFF79C
:1080600065FE044610B940F21322D6E701260096B9
:108070003346FC2211212846FFF7B6FE044610B90C
:1080800040F21B22C9E7002239462846FFF764FF69
:10809000044610B940F22222BFE70096022377225D
:1080A00010212846FFF7A0FE044610B940F22B220B
:1080B000B3E7334604221C212846FFF743FF04465A
:1080C00010B940F23222A8E700961823E3221121CA
:1080D0002846FFF789FE044610B940F239229CE792
:1080E0003346C02217212846FFF720FE044610B968
:1080F0004FF4107291E704F0F9FDDFF85490DFF8C7
:1081000040804FF47A7106464F4304F0EFFD801B28
:10811000B8420ED2012217212846FFF7BDFD49467D
:1081200002464046FCF70BF84FF47A7005F0FAF976
:10813000EBE706490248FFF7EBFC07F09AFE70E711
:10814000C0E40320104C0C00054C0C00364C0C0015
:10815000214C0C002DE9F3479DF828A005460C465C
:1081600091461F46BAF1000F02D0406805F046FF65
:1081700007B3202F3E4628BF20267F2C26D8331950
:10818000802B01D9C4F18006012304223F21284617
:10819000FFF777FE002364F07F0100934A463346E1
:1081A000C9B22846FFF7E4FC804628B13444BF1B1F
:1081B000B144DDE74FF00108BAF1000F02D0686862
:1081C00005F025FF404602B0BDE8F08701230422F8
:1081D0003F212846FFF7B6FEDCE72DE9F3479DF87F
:1081E00028A005460C4691461F46BAF1000F02D062
:1081F000406805F003FF07B31F2F3E4628BF1F2628
:108200007F2C26D83319802B01D9C4F18006012395
:1082100004223F212846FFF734FE002364F07F014B
:1082200000934A463346C9B22846FFF743FD8046CD
:1082300028B13444BF1BB144DDE74FF00108BAF167
:10824000000F02D0686805F0E2FE404602B0BDE8CB
:10825000F087012304223F212846FFF773FEDCE765
:1082600030B585B00D68D1E9043203954D680295AB
:108270008D680195C96800910133044902F26C725E
:10828000044607F08FFD204605B030BD484C0C0079
:1082900003090A2200F00F0002FB0300704738B503
:1082A000044600781546FFF7F3FF08606078FFF793
:1082B000EFFF4860A078FFF7EBFF8860E078FFF7FA
:1082C000E7FFC8602079FFF7E3FF013808612DB9A7
:1082D000651D2878FFF7DCFF886138BD6079FFF7FE
:1082E000D7FF6430A51D4861F3E7000070B5012396
:1082F00088B00D461A4610210446FFF7A4FDF0B1E0
:1083000008230126204600960DEB03020021FFF70B
:108310002FFC044698B1324629460DF10900FFF7BB
:10832000BEFF04A8FFF79CFF0848049A0849FBF722
:1083300006FF04A807F0D0FB204608B070BD242239
:108340000021284609F04CF80024F5E7C0E403209A
:10835000664C0C0030B58BB00D4601A9FFF7C6FF87
:10836000044620B101A805F0D5F8C5E90001204672
:108370000BB030BD0A2390FBF3F103FB110091FB1E
:10838000F3F203FB121240EA0210C0B2704770B55C
:10839000054600680C461646FFF7ECFF207068683B
:1083A000FFF7E8FF6070A868FFF7E4FFA070E868D7
:1083B000FFF7E0FFE07028690130FFF7DBFF207175
:1083C0002EB9661DA869FFF7D5FF307070BD6A69C8
:1083D000642392FBF3F003FB1020FFF7CBFFA61DF5
:1083E0006071EFE7F0B587B0054602A816460C4667
:1083F000FFF736FF1E48029A1E49FBF7A0FE02A8AF
:1084000007F06AFB16B1686805F0F8FD2046012206
:108410000DF1090100278DF80870FFF7B8FF01235F
:108420001A4610212846FFF78DFD0446E8B10823BF
:1084300000970DEB030239462846FFF73BFC044644
:1084400060B101231A4610212846FFF71AFD16B124
:10845000686805F0DCFD204607B0F0BD4FF48D7272
:1084600005490348FFF754FBF1E74FF48F72F7E734
:10847000C0E40320744C0C00824C0C0013B504467D
:108480006846CDE9002308F05DFF9DF81020014605
:108490002046FFF7A7FF02B010BD0000F0B5057E33
:1084A00089B0044675BB07F0BBFE58B30026002711
:1084B00004A92846CDE9046704F03CFF10B3012568
:1084C000257607F0CAFEC317CDE9020302460095E0
:1084D0002046FFF7D3FF02A92046CDE90267FFF748
:1084E00039FF134B13491B68009304A8DDE90223ED
:1084F00007F054FE1048049A1049FBF720FE04A828
:1085000007F0EAFA63698BB104F0F0FB2369C01A43
:10851000636998420AD304F0E9FB4FF0FF31206110
:10852000204609B0BDE8F040FFF70CBC09B0F0BD33
:1085300088D60320A8E60320C0E403209D4C0C004D
:1085400030B504468BB011B1406805F005FD2046FA
:10855000FFF764FB06AD002837D02046FFF79CFCF0
:1085600001231A4610212046FFF76DFCD8B107F011
:1085700057FEC0B902A92046FFF7ECFEDDE9020173
:1085800007F052FD134B14491B6800932846DDE9A0
:10859000022307F003FE1148069A1149FBF7CFFDAD
:1085A000284607F099FA0F4B06930F4B09930F4B90
:1085B00008934FF40062002302A80095FDF78CF9A0
:1085C0002846FCF7C4FF0BB030BD09490348FFF74C
:1085D0009FFAE8E788D60320A8E60320C0E403203A
:1085E000B34C0C00C97D0B002B550B0017550B002D
:1085F000D04C0C00014B024A1A607047C0E40320C3
:10860000E84C0C0010B5012303748368044643B1A1
:10861000C0689847012363740020BDE8104004F04F
:1086200035BB00680028F5D083680BB908F030F935
:10863000C368EEE7012A02D1016000207047022AD8
:1086400004BF0B680360F8E738B50568044635B128
:108650002846FCF77CFF10212846FBF720FD20462A
:108660001421BDE83840FBF71ABD10B50368044675
:10867000ABB1586804F0BAFA88B923685A7C12B9C9
:10868000586804F0BBFA2368586804F0BFFA206801
:108690000023236018B1BDE81040FFF7D5BF10BD1F
:1086A000054A026000224260027380F84F24C0F83D
:1086B0005824C0F860247047284D0C0010B5074CB2
:1086C000236843B940F26440FBF7E5FC034608B178
:1086D000FFF7E6FF2360206810BD00BFC8E4032059
:1086E00038B50446406890B102232373FFF7BDFFFD
:1086F000656855B12846FFF7B8FF286808B1FFF74D
:10870000A3FF04212846FBF7CAFC0023636038BDA1
:1087100010B5054B03600446FFF7E2FF04F58A60DD
:10872000FCF715FF204610BD284D0C0010B504467F
:10873000FFF7EEFF204640F26441FBF7B0FC204615
:1087400010BDF0B5044689B000F10D0600F14E07EA
:10875000237B1BB9012004F0E5FEF9E7237B022B04
:1087600064D0A06804F062FAA06804F067FA94F894
:108770004F348DF800303A463C23314606A805F0C8
:108780009DF9069D6B7833B9237B022B03D0012022
:1087900004F0C8FEF5E7D4F858341BB3002004F009
:1087A00037FD20B16B7813B904F08CFDFAE72B7814
:1087B000D4F860240592591E4B424B418DF80B3082
:1087C000D4F85834CDE903670BB908F061F805AB6C
:1087D0000093D4F85C5404AB03AA0DF10B0104F52B
:1087E0008A60A847A06804F021FA237B022B17D0E7
:1087F000D4F858340025C4F8605443B104F58A61B4
:10880000032208469847C4F85854C4F85C5400231F
:10881000A068237304F012FA07A8FBF74BFF97E751
:10882000A06804F00BFA07A8FBF744FF09B0F0BDFD
:108830000068FFF786BF13B50B460246D0E900017A
:108840006C4684E8030093E8030082E8030094E8A0
:10885000030083E8030002B010BD00002DE9F743D8
:1088600006468846142026491746994608F006F819
:10887000044630B10020C4E90000C4E902002074BD
:1088800060743460002C31D01D49102007F0F6FFD1
:10889000054668B10023836001463846FFF7CBFFE9
:1088A000BB68AA68BA60AB60EA68FB68EB60FA6014
:1088B0002768256037B13846FCF749FE1021384655
:1088C000FBF7EDFB3068036883B10A9B4A46CDE9AC
:1088D000000341460B4B043004F080F930B9336893
:1088E0001B7C4BB9012004F0F1F9F8E73068002354
:1088F000336008B1FFF7A8FE304603B0BDE8F0834F
:10890000D8570C0005860B0030B5436887B0044685
:10891000C3B9083004F082F90B4B059304200B4BCC
:1089200002940493FBF7B7FB054638B14FF440635C
:1089300000930749022302AAFFF790FF656002A88F
:10894000FCF705FE07B030BD31880B0035860B0003
:108950000C4D0C002DE9F043044685B080680C9F57
:1089600098460D46164604F061F963681BB1237BF7
:1089700003F0FF0933B1A06804F060F9002005B0EE
:10898000BDE8F083A06804F059F9002D3DD04022E5
:10899000294604F10D0008F00AFE84F84D908EB3CC
:1089A00040F20142314604F14E0008F000FE84F826
:1089B0004E9400230293BB6804F58A653BB1022202
:1089C000394668469847FB680393BB68029329467B
:1089D0006846FFF730FF029BD4F85824C4F8583497
:1089E000039B02926846D4F85C24C4F85C3403927A
:1089F000FCF7ADFD0D9BC4F86034012084F84F8472
:108A00002073BCE784F84E60D3E72846B7E7000040
:108A100010B5054B0360037C04461BB9406808B1E0
:108A200004F008FD204610BD484D0C0010B504466A
:108A3000FFF7EEFF20461421FBF731FB204610BD67
:108A400010B5034B03600446FFF7E2FF204610BD5C
:108A5000684D0C0010B50446FFF7F2FF20463021A8
:108A6000FBF71DFB204610BD10B5034B0360044609
:108A7000FFF7E6FF204610BD784D0C0010B5044608
:108A8000FFF7F2FF20464021FBF709FB204610BD0F
:108A900010B5074B0360037C04461BB9406908B15D
:108AA00004F0C8FC2046FFF7B3FF204610BD00BF0E
:108AB000584D0C0010B50446FFF7EAFF20462C2164
:108AC000FBF7EDFA204610BD034A02600022C0E920
:108AD0000122C26002747047484D0C0038B5037C17
:108AE00004460D460BB1002038BD406838B104F093
:108AF000A9FC0028F7D0C4E901050120F4E70846E5
:108B000004F090FCF5E770B5C3680E461546D11821
:108B10004268044672B182688A420BD36068E36897
:108B20002A463146184408F033FCE2682A44E260E1
:108B3000012070BD2046FFF7D1FF0028EED1F8E7F5
:108B400043680021C16023B1826812B1184608F061
:108B500047BC704710B5C0E901120022C260012273
:108B600002744361024A029B0260C36110BD00BFF0
:108B7000584D0C00D0E90503834204D90278022A3B
:108B800002D01030F8E700207047D0E90503984282
:108B900004D20378012B18BF0020704700207047D3
:108BA00070B513689D68136803F11004146086693A
:108BB000B4420AD29B698C68A34201DAAB42F2DD6F
:108BC000A342CCBF0020012000E0002070BD73B59F
:108BD00001F1100304461646019300250198A3698C
:108BE00083420BD982688B689A4207DAB54206D075
:108BF00001AA20460135FFF7D3FFEFE7002002B0BE
:108C000070BD2DE9F341089D984601F1100304461B
:108C10001746019300260198A36983421AD98268F6
:108C20008B689A4216DAAE420BD1386001AA204610
:108C3000FFF7B6FF28B1019BC8F8003002B0BDE8CD
:108C4000F08101AA2046FFF7ABFF20460136FFF76F
:108C5000A7FFE0E70020F1E7F0B5013B0024D1E9F0
:108C60000176F61BA64208DDA34206DD45683D44B9
:108C70002D5D02F8015B0134F1E700231370F0BDB4
:108C80001FB5144610236A46FFF7E6FF0449224643
:108C9000684604F0E7FB431E5842584104B010BD3B
:108CA000473D0C001FB5144610236A46FFF7D4FF5A
:108CB0006846002109F0C6FA012084ED000A04B0DC
:108CC00010BD10B5044600680B4628B106F0E7FF5A
:108CD000E3680133E36010BD60680028F8D0D4E990
:108CE0000221013A8A4288BF4354F1E703467F2BB1
:108CF00037B50846D9B204D803B0BDE83040FFF715
:108D0000E0BF01F03F01B3F5006FC3F3871541F0F9
:108D1000800407D245F0C0010190FFF7D2FF01980F
:108D20002146E9E71B0B43F0E0010190FFF7C9FF83
:108D300005F03F01019841F08001EEE72DE9FF4782
:108D400000244E68DFF8CCA080460F461546A146A9
:108D5000B868B0425ADDD8F80430995D9A19002CF1
:108D60004BD0752905D86D2907D862291ED06629F0
:108D70001ED02846FFF7A5FF3DE0A1F16E04072CA9
:108D8000F7D80FF2080C5CF824F000BFB58D0B008B
:108D9000738D0B00738D0B00738D0B00B98D0B0061
:108DA000738D0B00BD8D0B00C18D0B000821E0E71A
:108DB0000C21DEE70A21DCE70D21DAE70921D8E7FB
:108DC000311D884217DD02A904333344084612F8E6
:108DD000014F01F8014B9A42F9D101AA51468DF891
:108DE0000C9004F03FFB012805D1BDF80400294692
:108DF000FFF77CFF0536002404E05C2904D02846F8
:108E0000FFF75FFF0136A3E70124FBE7012004B071
:108E1000BDE8F087F5550C007FB50C4606460C49B9
:108E20001046154606F001FFD4E90131C91A013197
:108E3000284606F06FFE00236A4621463046CDE9FB
:108E4000013300950393FFF779FF04B070BD00BFB5
:108E500054560C002DE9F04389B00546884604A815
:108E600012491646994606F082FE002700974B46A7
:108E700003AA41462846FFF7C4FE044670B1039991
:108E800004AA2846FFF7C8FF044608B90137EDE7F2
:108E9000314604A806F031FF0028F7D004A806F0F8
:108EA0001BFE204609B0BDE8F08300BF54560C00FD
:108EB00000230122C3604361028380F82A30704797
:108EC00008B50346FFF700FE044A1A604FF0FF3270
:108ED0001846DA62FFF7ECFF08BD00BF684D0C00D2
:108EE000D0E9022310B593423FBF42685C1CC460C6
:108EF000D15424BF012380F82A3010BD10B5436936
:108F0000044643B100EB4303597E09B1FFF7E8FF84
:108F10006369013B6361D4E90210636888424FF0E2
:108F200000022ABF5B181A5403F8012C10BD70B55B
:108F30000446D0E9025066682D1A134630440A46AA
:108F4000294604F09FFA85422DBFE368A368E360D9
:108F5000C01836BF0123E06084F82A3070BD0EB41B
:108F600003B503AA52F8041B0192FFF7E0FF02B019
:108F70005DF804EB03B070472DE9F84304460E4654
:108F8000174612B12221FFF7ABFFDFF80C81002555
:108F9000715D06EB0509002974D0D4E902329A42CA
:108FA00070D20B0634D501F0F003E02B05F1010976
:108FB0001DD116F8092002F0C003802B39D105F12C
:108FC000020916F8093003F0C000802831D103F0FF
:108FD0003F03920143EA013302F47C621A4392B2E6
:108FE00041462046FFF7BBFF4D460135D0E701F073
:108FF000E003C02B1DD116F8093003F0C002802A0F
:1090000017D1890101F4F86203F03F031A43E7E73F
:109010000D290AD807290CD9A1F10803052B08D876
:10902000DFE803F009231707111D222923D05C294B
:1090300021D0204604E05C212046FFF751FF622149
:10904000FFF74EFFD1E75C212046FFF749FF66217D
:10905000F6E75C212046FFF743FF6E21F0E75C2135
:109060002046FFF73DFF7221EAE75C212046FFF72B
:1090700037FF7421E4E75C212046FFF731FF99F8C0
:109080000010DDE72FB120462221BDE8F843FFF7AD
:1090900027BFBDE8F88300BF304D0C00426900EBEC
:1090A00042031A7E12B100221A7670472C21FFF774
:1090B00017BF73B5436901910133082B16460FD8CA
:1090C000FFF7ECFF4369019900EB43045A1C0125AB
:1090D0004261A576E676FFF703FF284602B070BD31
:1090E0000020FBE737B5044610EE100A07F040FDFC
:1090F000E56A002D02460B4608DBCDE9002307494F
:109100002A462046FFF72BFF03B030BD0449204616
:1091100003B0BDE83040FFF722BF00BF374D0C0061
:109120003C4D0C0010B50446FFF7CAFE054B23600A
:109130004FF0FF320023C4E90D232163E36320468F
:1091400010BD00BF784D0C0070B5436B0133044671
:1091500021D1056B4B684363EB6888681A1AA263D8
:10916000AE683044C31A002AE36305DD6868896885
:109170000144184408F01AF9226B616B5268E36BE2
:109180000A445B1A01212046C4E901232174FFF738
:109190008FFE084670BD0020FCE770B5436B0133BD
:1091A00004460E4629D18D68016B013D4563CB68AD
:1091B0005A1B826388682844C31A002AE36304DDCB
:1091C00048684119184408F0F1F8226B616B526845
:1091D000E36B0A445B1A0125C4E901232046257488
:1091E000FFF766FE636903F10C02F368B3FA83F3D9
:1091F0005B0904F81230284670BD0020FCE700002F
:109200002DE9F04F44684FF0010C4FF0FF36D0F8D5
:1092100000E0964580F0B98111F80E80B8F1000F9A
:1092200000F0B381B8F13A0F00F0988033D8B8F16C
:10923000220F00F0A68010D8A8F109085FFA88F87C
:10924000B8F1170F0DD89F4D0CFA08F818EA050F62
:1092500007D0056801350560D9E7B8F12C0F00F09B
:109260003381D0F8008042450ED911F808505DB125
:109270003A2D00F269811F2D00F251810A2D00F272
:109280006081082D40F25681002B40F0628108F188
:10929000FF350560A5E0B8F17B0F37D02ED8B8F1C7
:1092A0005B0F33D0B8F15D0FDBD1002BD1D04FF085
:1092B00002094568013D03EB0518002D55DBD8F880
:1092C000047001374DD0D8F808A0BAF1FF3F48D15B
:1092D00098F800B0CB454BD10EF1010EC0F808A0B4
:1092E000C8F808E003EB051EDEF80470013742D031
:1092F000DEF8087001373ED18560AAE7B8F17D0F2E
:10930000AFD1002BA5D04FF00109D2E70134002BDB
:109310009FD04568099FAF424AD905F1010EC0F8B8
:1093200004E003EB051ECEE901664FEA051A0025AD
:10933000CEF80C5085686F1C1FBF03EB0519D9F8D8
:109340000C500135C9F80C50B8F17B0F0CBF01254A
:10935000022503F80A500568CEF804504568013D1F
:10936000CAE7013DA8F11008A7E701357FF471AF06
:109370006FF001041EE0013D6F1CAEF1100EB3D181
:1093800067E70EF10109C0F80090D0F8008042456F
:1093900040F2938011F80850002D00F08E80222DAD
:1093A00030D1F3B14568099FAF4206D8C0F800E05C
:1093B0004FF0FF342046BDE8F08F05F1010E4FEA73
:1093C000051803EB0515C0F804E0C5E901660027A0
:1093D000EF60D0F800E04FF0030A03F808A0C5E9F9
:1093E000019E85686F1C04F101043FF432AF002B2D
:1093F0003FF42FAF03EB051EDEF80C500135CEF81D
:109400000C5026E75C2D11D108F10105AA420DD9B7
:1094100005604D5D752D2BD86D2D0BD8662D27D889
:109420005B2D1DD8222D01D02F2D21D105680135AE
:109430000560AAE76E3D072D1AD801A757F825F059
:109440002D940B0071940B0071940B0071940B0020
:109450002D940B0071940B002D940B0077940B004E
:109460005C3DEDB20CFA05F540F241473D42DDD1DD
:10947000C0F800E07CE708F1020505604FF0040A3F
:10948000D0F80080424503D80568013D0560CDE76E
:1094900011F80850002DF7D0A5F1300BBBF1090FE2
:1094A00004D925F02005413D052DE1D808F101053D
:1094B000BAF1010A0560E3D1E6E7C0F800E06FF019
:1094C000020477E713008000002B3FF4C2AE8568EA
:1094D0006F1C3FF4BEAE2D015D5D013D012D7FF699
:1094E000B8AE456805F1FF3803EB051EB8F1000F73
:1094F000FFF6AFAE1EF8105C013D012D0AD85EF8F4
:109500000C5C013506D05EF8085C013502D1C0F86C
:1095100008809EE608F1FF38AEF1100EE6E7A5F1EF
:109520002009244F5FFA89F90CFA09F919EA070FA3
:109530007FF4AAAE203D5E2D9AD808F101050560A2
:109540008FE60D2DF6D19FE605F0DF09B9F15D0F2D
:10955000F8E74568099FAF427FF628AF05F101089B
:109560004FEA051903EB0515C0F80480C5E901664B
:109570000027EF60D0F800804FF0040A03F809A03C
:10958000C5E901E80568013D83E6002B3FF412AF11
:109590004268511E03EB02130029FFF60BAF53F88C
:1095A0000C2C013203D053F8082C013287D001393A
:1095B000103BF1E701100004F7B5C268044612B988
:1095C000002003B0F0BD436900F12006ABB10021DB
:1095D000C0E908114FF0FF318162C1690091416813
:1095E0003046FFF70DFE431C28D1257C002DE7D126
:1095F000606903F01FFF6561E56100254FF0FF37EB
:10960000C4E90855E2686168A76200952B463046B8
:10961000FFF7F6FD0028D3DBE06117D0000103F06F
:1096200001FFE269606103460092C4E90855E268FF
:109630006168A7623046FFF7E3FD01E00028BFDB69
:10964000636903EB0010A0610120BAE76369A361BD
:10965000FAE738B5436B5A1C044618D0826B002ACF
:1096600008DD016BE5684868E16B2B440144184450
:1096700007F09CFED4E90C23A16B0B44E1680B447A
:10968000D360206BFFF798FF4FF0FF33636338BD63
:109690007047704710B508210446FAF700FD2046D0
:1096A00010BD10B510210446FAF7F9FC204610BD94
:1096B00010B5054B044640F81C3B06F00DFA201D82
:1096C00006F00AFA204610BDEC4D0C0010B5044619
:1096D000FFF7EEFF20465821FAF7E1FC204610BDC7
:1096E00010B5044B044640F8043BFFF7E1FF204669
:1096F00010BD00BFBC4D0C0010B50446FFF7F0FFD5
:1097000020466021FAF7CBFC204610BD20F0020372
:10971000012B03D0431F58425841704718467047E9
:1097200091F90430037191F90530437191F90630D4
:10973000837191F90730C371704738B504460D46FF
:109740000430043106F04FFA05F1140104F114005D
:10975000FFF7E6FF05F11C0104F11C0006F043FAD7
:1097600005F12C0104F12C00FFF7DAFF95F93830F0
:1097700084F8383095F9393084F8393095F93A3031
:1097800084F83A3095F93B3084F83B3005F13C01E0
:1097900004F13C00FFF7C4FF95F9483084F84830E5
:1097A00095F9493084F8493095F94A3084F84A30BF
:1097B00095F94B3084F84B3005F14C0104F14C0025
:1097C000FFF7AEFF95F8543084F8543038BD0B687D
:1097D00003604B68436013B15A6801325A607047A6
:1097E000024A02604A684260704700BFCC4D0C00DC
:1097F0004A69036862F3160303600B695A1C4388C5
:1098000062F3CA134380CA68C3F3072362F3C70332
:10981000C3707047024A026000224260704700BF76
:10982000CC4D0C0030B5002387B0838083710D468A
:1098300005AB00931349044604AB03AA284603F082
:1098400011FE032807D1039B2371049B6371059BC1
:10985000A37107B030BD0C4904AB03AA284603F03E
:1098600001FE022804D1039B2371049B6371F0E77E
:10987000064903AA284603F0F5FD012804BF039B0F
:109880002371E6E7804D0C00834D0C00473D0C0032
:1098900090F9042090F9053090F90610002AB8BF1D
:1098A0000848C3EB03134FEA8303BDBF00FB02303C
:1098B000401840424FF46160A4BF00FB02304018E2
:1098C000704700BFF0F1FFFF08B590F854304BB17E
:1098D00090F93B3043B92C30FFF7DAFFB0FA80F053
:1098E000400908BD0120FCE70020FAE790F90730A5
:1098F00043B990F904308B6090F905304B6090F9D2
:1099000006300B60704790F9073030B5B3B990F965
:1099100004508C682C44D1E900328C6090F90540E9
:10992000002DB5BF121B12194A604A60B5BF90F9ED
:10993000062090F906209B1A9B180B6030BD000092
:1099400008B5054A02600022034642600830FFF76E
:1099500061FF184608BD00BFDC4D0C0000234360CA
:10996000838183737047000030B5044687B00D468D
:1099700011B10B784D2B05D0204607B0BDE8304023
:10998000FFF7ECBF05AB0093114904AB03AA2846CF
:1099900003F068FD032816D1039B2371049B6371B8
:1099A000059BA3712F21284607F09EFD40B1411C65
:1099B00004F10800FFF736FF0123E37107B030BD63
:1099C000A081A073F8E72046FFF7C8FFF6E700BFC5
:1099D0009B4D0C00104B114910B5044640F8043B58
:1099E00006F0C5F804F11400FFF714FF0B4904F169
:1099F0001C0006F0BCF804F12C00FFF70BFF04F18B
:109A00003400FFF79DFF04F14400FFF799FF0023A6
:109A100084F85430204610BDEC4D0C0054560C0018
:109A20002DE9F74F0446084607F088FD0025064655
:109A3000019004F134083F49019801AA08F086FC1E
:109A40000146002862D0012D05F1010353D0022DFB
:109A500056D0002D46D1024692F80090B9F1400F41
:109A60001546174602F10102F6D800222A7004F1C9
:109A70001C0006F0DAF8012285F8009084F85420E2
:109A80002A786AB397F800A00AF1FF323F2AB94654
:109A9000BB4607F10107F5D9002304F12C0789F82B
:109AA000003029463846FFF7BDFE89F800A0BAF11C
:109AB000000F15D05D461BF801ABBAF1400FF9D885
:109AC00000222A704946201D06F0AFF885F800A054
:109AD00004F11400BAF1000F06D02946FFF7A2FEE8
