:02000002B0004C
:1040000000400B0040740C00000006000D0005028B
:084010000401A60F00000000EE
:04401800F84A0C0056
:1040200009480A49884208B505D0094A824202D0A7
:10403000121A0EF05BFB0748074A0021121A0EF015
:104040007DFB014808BD00BF78D5032028710C0016
:1040500064D8032068D80320F4E7032070B5074E26
:10406000074C0CF0A1FBA41BA4080025AC4200D116
:1040700070BD56F8043B98470135F7E7B4700C0063
:10408000F8700C0001F080BD08B501F06FFEBDE8CE
:1040900008400CF041BB09F0E9BA09F0E7BA09F0B1
:1040A000EDBA000008B5034A03490C2009F06AF98B
:1040B000FEE700BF25CF0B000C4B0C000078B0FAD8
:1040C00080F040097047012303707047704710B5B6
:1040D00004210446FFF7E3FF204610BD10B5034B53
:1040E0000360044604F098FD204610BDE8510C0022
:1040F00010B50446FFF7F2FF204640F24C71FFF77F
:10410000CEFF204610BD37B51D4601AB044604F076
:1041100065FF20B101992A46204604F075FE03B0E0
:1041200030BD37B51D4601AB044604F057FF20B142
:1041300001992A46204604F033FF03B030BD0EB487
:1041400000B58CB00DAA4FF0200C52F8041B03925E
:10415000CDE900120023016804AA1E20CDE904C3A2
:1041600009F020F90CB05DF804EB03B070470000D3
:1041700010B5064C236833B90420FFF78CFF08B153
:10418000034B03602060206810BD00BF6CD8032083
:10419000F8510C007047000010B5064CC0B00DF18E
:1041A000030201A9204607F013FE0028F7D140B012
:1041B00010BD00BFECD80320014807F0F6BD00BFDA
:1041C000ECD80320194B10B51C88002120460CF0B8
:1041D00084FB0A2009F0CAFA012120460CF07DFB7D
:1041E0000A2009F0C3FA124807F07DFB044628B9FB
:1041F00010491148FFF7A3FF204610BD9FED0F0A9D
:104200000F4807F069FE00220D48172107F0DEFF76
:1042100004210B4808F006F8094808F0B1F80948ED
:104220004FF47A7107F06DFAE6E700BF185E0C00F4
:1042300068E10320214B0C0050E60320C3B567441E
:10424000ECD803206CE1032010B50C4686B0FFF7D4
:10425000B9FF002C3DD002F0B1F9002102F0BFFC03
:1042600002A809F06BF9029B364900223648FFF795
:1042700066FF02A80BF054FD02F030FA014602A8D6
:1042800002F056FA0299019108460EF022FB0199BC
:1042900002462E4804F0FBFC02A80BF041FD02F0A0
:1042A0001DFA014602A802F043FA029A284926485C
:1042B000FFF745FF02A80BF033FD244805F040FA54
:1042C000002838D023492048FFF739FF012006B0E5
:1042D00010BD02F073F902F0BAFAC0B102F06EF943
:1042E00002F0B5FA0A2812D802F068F902F0AFFA23
:1042F0000146194806F021FE174806F004FE019019
:1043000002A809F01BF9DDE901231449AEE702F028
:1043100055F90B2102F063FC0B210F4806F00DFE4E
:104320000D4806F0F0FD019002A809F007F9DDE95B
:1043300001230B499AE702F0D1F902F011FA094979
:10434000C1E700BF2D4B0C0050E603201CDA032010
:10435000F24B0C00094C0C006CE10320744B0C0078
:10436000AB4B0C001D4C0C002DE9F0433D4C85B0CF
:1043700002F06CF9217A02F092FC02F067F902F087
:10438000B6FA022846D802F061F9A18849BA89B282
:1043900002F0C8FC02F05AF9E18849BA89B202F089
:1043A000C7FC02F053F9617A02F055FC02F04EF9B5
:1043B0000546A07A0DF068FD41EC100B284602F08E
:1043C000ADFD02F043F9E17A02F04BFC02F03EF958
:1043D000217B02F04CFC02F039F9617B02F04DFCCC
:1043E00002F034F9A17B02F04EFC02F02FF9B4F890
:1043F0000F10C9BA02F0C9FD02F028F9B4F8111083
:10440000C9BA02F0C8FD184B042201201A7005B089
:10441000BDE8F0832679677994F8068094F80790D0
:10442000002566F31F6567F3174568F30F2569F3E9
:10443000070502F00BF900EE105A02F0CCFD02F075
:1044400005F902F08DFB10EE100A0DF03FFDCDE9ED
:10445000028902460B46CDE9006704490448FFF78C
:104460006EFE9EE770D8032068D80320454C0C00F0
:1044700050E6032070B588B01D49044604A81646CE
:104480001D460BF098FC1B4804F043FC1A4A0146F9
:1044900003AB184804F0A2FD03991648721E04F0FD
:1044A0005AFC014648B9154920460BF084FC04A883
:1044B0000BF036FC204608B070BD02AB0190104AEC
:1044C0000C48FFF720FE029B0199AB42EBD1094853
:1044D0000C4A04ABFFF725FE002104A80BF031FDC8
:1044E0000028E0D104A920460BF096FCDFE700BFCE
:1044F000BC6A0C001CDA0320654C0C006B4C0C00F1
:10450000704C0C00744C0C001FB50A290C4601922B
:1045100002DD002004B010BD114804F0FAFB114A7E
:10452000014603AB0E4804F059FD03990C48621E86
:1045300004F011FC01460028EBD001AB0A4A084800
:10454000FFF7E1FD02F082F802F057FA019B984272
:1045500004D006490648FFF7F2FDDAE70120D9E763
:104560001CDA0320654C0C00704C0C00784C0C00DD
:1045700050E6032013B516480C4604F0CAFB154A52
:10458000014601AB124804F029FD01991048621E52
:1045900004F0E1FB014670B902F058F802F0A7F907
:1045A0000D4902460D48FFF7CAFD02F04FF802F030
:1045B0009EF902B010BD0A4A05486B46FFF7A3FDFD
:1045C0000648009A0749FFF7BAFD9DF80000F0E79A
:1045D0001CDA0320654C0C008C4C0C0050E60320C8
:1045E000C84C0C00CD4C0C000A2913B50C4613DC4A
:1045F0000F4804F08EFB0F4A014601AB0C4804F053
:10460000EDFC01990A48621E04F0A5FB014628B999
:1046100009490A48FFF793FDFF2006E00448084ACD
:104620006B46FFF770FD9DF8000002B010BD00BFA3
:104630001CDA0320654C0C00E64C0C0050E603200D
:10464000144D0C002DE9F341054601F0B7FF02F0CF
:1046500072F93C2646431948184FDFF8788004F079
:1046600058FB174A014601AB144804F0B7FC00247C
:1046700001992246384604F06EFB014668B16B464C
:1046800042463846FFF73FFD0BF00BFF009BC01A78
:10469000864210DB01340A2CEAD10A4A01240A4975
:1046A0000A48FFF74CFD14B92846FFF78BFD20465A
:1046B00002B0BDE8F081064A0024F0E71CDA0320CE
:1046C000654C0C001B4D0C00284D0C0050E60320DF
:1046D000194D0C00234D0C0070B500250E462C46DC
:1046E000B3689D4218D2294630460BF051FC03783E
:1046F000A3F13002092A02D814440135F0E7A3F1EE
:104700004102052A02D8373B1C44F6E7A3F16102B7
:10471000052AF2D8573BF7E7204670BD38B5046844
:1047200005467CB16368013B63605BB92368204642
:104730009B689847A368013BA3601BB92368204688
:10474000DB689847284638BDF0B55B495B485C4C50
:10475000A9B0FFF7F4FC01F031FF02F0E7F8000A1E
:10476000207001F02BFF02F0E1F860700BF099FE71
:104770000016A0700BF095FE0014E0700BF091FE97
:10478000001220710BF08DFE607101F017FF02F036
:10479000D2F8000AA07101F011FF02F0CCF8E0712C
:1047A00001F054FF02F07BF8A0F10B03584258418E
:1047B000207201F04BFF02F072F8607201F046FFC8
:1047C00002F095F83F4BA0721E88012130460CF094
:1047D00084F801F03BFF02F067F8002856D101F0A1
:1047E00035FF02F05CF805460BF0CAFC364903467B
:1047F0002A463248FFF7A3FC02230093304933488E
:104800002B460B2206F032FE0590002843D101F022
:104810001DFF059902F019FA059930460CF05DF874
:10482000A27A2B4B2B4C002A18BF1C4601F00EFF1E
:1048300002F058F8064601F009FF02F072F9074647
:1048400001F004FF02F072F9234A2B46CDE9027011
:10485000CDE90046802108A808F030FF174808A9D4
:10486000FFF76DFC08F062FE044618B31B4B1C49B1
:104870001B788DF8003006A83C2308AA09F042FAFC
:1048800007A8FFF74BFF204629B0F0BD01F0DEFE80
:1048900002F00AF8A7E701F0D9FE02F005F8114985
:1048A00002460648FFF74BFC002130460CF015F895
:1048B0000024E8E70124E6E74C4D0C0050E6032015
:1048C00070D80320105E0C00654D0C0068E10320D9
:1048D000454D0C00414D0C00934D0C0069D8032050
:1048E000D94D0C00E04D0C002DE9F04FD9B00F462A
:1048F00010A84649464DDFF84481DFF844910BF09B
:104900005AFA434804F005FA424A01460FAB4048C0
:1049100004F064FB00260F993246284604F01BFA87
:10492000044600286CD0014610AB42462846FFF7EB
:10493000F8FB0AAB4A4621462846FFF7E4FB364A15
:1049400009AB21462846FFF7DEFB344A0BAB214674
:104950002846FFF7D8FB324A0CAB21462846FFF722
:10496000D2FB304A14AB2146284604F037FB20B175
:1049700014990DAA284604F059FA21462A4A0EAB8A
:104980002846FFF7C0FBDDE90AB214A8D317099C3B
:10499000DDF840A00BF080FC0E9B0D9806930DF007
:1049A00095FA0C9B0393149B204ACDF800A0CDE907
:1049B0000401CDE901B34FF48071234618A808F033
:1049C0007DFE14A80BF0ACF9194818A9FFF7B7FB46
:1049D00008F0ACFD88B187B1164B17491B788DF8EC
:1049E000003018AA3C2314A809F08CF915A8FFF789
:1049F00095FE4FF47A7008F0B9FE01360A2E8AD17E
:104A000010A80BF08DF959B0BDE8F08FBC6A0C000E
:104A10001CDA0320654C0C00074E0C00234D0C00E3
:104A2000C84C0C000C4E0C00144D0C00114E0C0028
:104A300050E6032069D80320754E0C00744C0C001E
:104A4000704C0C0037B504461546019104F0EAFBA2
:104A500001990122204604F053FB20463A2104F03C
:104A600003FB04492A46204603B0BDE8304004F069
:104A70003ABB00BF71500C0013B5114B114C012211
:104A80001A703223009304F12C0104F22C434FF4EA
:104A90008062204604F022F90B4B23600B4A0C4C39
:104AA0000C490D4B12780978204607F0D7F90B48CE
:104AB0000022214602B0BDE8104006F0CDBC00BF88
:104AC00069D803201CDA0320E8510C00165E0C00A4
:104AD000ECD80320145E0C00E4E4032068E103201A
:104AE0002DE9F04F97B004460D4602A8654990465F
:104AF0000BF061F9294606A80BF05DF906A92046DE
:104B0000FFF7EAFD044606A80BF00AF944450BD06E
:104B10005D495E48FFF713FB0B2402A80BF000F978
:104B2000204617B0BDE8F08F59495848DFF8649126
:104B3000DFF874B1FFF703FB564804F0EAF8564A71
:104B4000014601AB534804F049FA00260199324668
:104B5000484604F000F9741C0746A246002876D1A6
:104B60004E494A483246FFF7EAFA4A49009406A8F5
:104B700004F09CFB2B46009A49494448FFF7DFFAB2
:104B8000444804F0BBF8014606A804F0CAFB7D22A5
:104B90007B2106A804F051FB009A424906A8FFF7C2
:104BA00051FF06A804F03EFB012206A83E4904F08E
:104BB000A7FA06A83A2104F057FA294606A80122C6
:104BC00004F09EFA4246394906A8FFF73BFF0BF076
:104BD00068FC054606A804F025FB012206A8344916
:104BE00004F08EFA06A83A2104F03EFA2A4606A8F6
:104BF000304904F078FA3049092206A8FFF722FF6D
:104C000006A804F00FFB012206A82C4904F078FA4C
:104C10003A2106A804F028FA9FED290A06A804F014
:104C200025FB0022274906A8FFF70CFF06A804F081
:104C300029FA06A804F0D1FD01F050FDD9F80410BE
:104C400001F088FD06A8E4B203F0D2FF65E7014653
:104C500002AB48465A46FFF764FA294602A80BF011
:104C600070F940B10F4A0B486B463946FFF74BFAD3
:104C70009DF8004051E7B41C56460A2E7FF466AFFB
:104C800073E700BFBC6A0C007E4E0C0050E60320A8
:104C9000B24E0C001CDA0320654C0C00C54E0C0013
:104CA000F14E0C00074E0C00744C0C00704C0C00C4
:104CB000234D0C0038620C00C84C0C000C4E0C004C
:104CC00000000000144D0C0030B52DED028B264D78
:104CD00093B028460C46B0EE408A04F01AF8234AF6
:104CE00001466B46284604F079F9621E0099284671
:104CF00004F031F80446002832D001AB1C4A0146CA
:104D0000284604F06BF9294602A804F0CFFA01996D
:104D100002A804F0DDFA0BF0C4FB1649024602A813
:104D200004F0E1F902A804F058FD134A01AB214652
:104D3000284604F053F9019902A804F0C9FAB0EE2C
:104D4000480A02A804F092FA02A804F046FD01F015
:104D5000C5FC696801F0FEFC02A803F049FF0120D0
:104D600013B0BDEC028B30BD1CDA0320654C0C0087
:104D7000234D0C0071500C000C4E0C0070B50A292C
:104D800094B00C4616463DDC1F4D284603F0C1FF8B
:104D90001E4A014602AB284604F020F9621E029921
:104DA000284603F0D8FF044660B30146184A01AB19
:104DB0002846FFF7A8F9019A164917483346FFF726
:104DC000BEF903AB124A2146284604F007F92946EA
:104DD00004A804F06BFA039904A804F079FA3246A7
:104DE0000E4904A804F07FF904A804F0F6FC01F0D1
:104DF00075FC696801F0AEFC04A803F0F9FE01201F
:104E000014B070BD0020FBE71CDA0320654C0C00D9
:104E1000C84C0C00254F0C0050E6032071500C00CC
:104E2000F0B52D4A8DB005AC054602F118032746B2
:104E300010685168264603C608329A423446F7D1B4
:104E40001378337001F002FC244B597F01F027FFE7
:104E500001F0FCFB044601F0F9FB01F0CEFD394600
:104E600002462846FFF73CFE0146204601F0E7FED9
:104E700001F0ECFB01F018FD039001F0E7FB01F0FD
:104E80000EFD039A164900903B461648FFF757F966
:104E900001F0DCFB012101F0FCFE01F0D7FB044630
:104EA0000BF0FFFAC3170246204601F0D0FF01F0D5
:104EB000CDFB01F0F4FC039001F0C8FB01F017FDFD
:104EC000039902462846FFF759FF074B02220120AB
:104ED0001A700DB0F0BD00BF74D8032070D8032045
:104EE000484F0C0050E6032068D8032070B5204DD1
:104EF00094B028460C46164603F00BFF1D4A0146A7
:104F000002AB284604F06AF8621E0299284603F0B4
:104F100022FF044650B30146174A01AB2846FFF76B
:104F2000F2F8019A154916483346FFF708F903AB22
:104F3000114A2146284604F051F8294604A804F0F5
:104F4000B5F9039904A804F0C3F932460D4904A841
:104F500004F0C9F804A804F040FC01F0BFFB696844
:104F600001F0F8FB04A803F043FE012014B070BD6B
:104F70001CDA0320654C0C00144D0C00834F0C0010
:104F800050E6032071500C00F0B52DED028BA9B056
:104F900005460BF086FAA74C0016A0700BF081FABC
:104FA0000014E0700BF07DFA001220710BF079FA1A
:104FB000607101F003FB01F0BEFC000AA07101F07A
:104FC000FDFA01F0B8FCE07101F040FB01F067FC74
:104FD0000B2840F0838001F039FB01F060FC96491A
:104FE00002469648FFF7ABF801F030FB012101F0D3
:104FF00050FE01F02BFB05460BF053FA0246C31797
:10500000284601F024FF01F021FB01F06BFC207227
:1050100001F01CFB01F06BFC607201F017FB01F06A
:105020008AFDA07201F012FB01F052FC844BE07289
:105030001E88012130460BF050FC01F007FB01F007
:1050400033FC002840F0E38001F000FB01F027FC76
:10505000042378490093054603460C22794806F05C
:1050600005FA0146002840F0D78030460BF035FCA9
:1050700001F0ECFA01F013FCA57A267A059001F014
:10508000E5FA01F04EFD044601F0E0FA01F04EFDB4
:10509000059B6D4ACDE902408021CDE9005608A864
:1050A00008F00CFB654808A9FFF749F808F03EFA3C
:1050B0000446002800F0BB80644B65491B788DF8DE
:1050C000003006A83C2308AA08F01CFE07A8FFF73A
:1050D00025FB204629B0BDEC028BF0BD01F0B6FAED
:1050E000064601F0B3FA01F0DAFB01462846FFF765
:1050F0007BFA0146304601F0CCFD01F0A7FA01F041
:10510000F1FB70B101F0A2FA01F0C9FB059001F0CA
:105110009DFA01F0E7FB059A4E4903464748FFF721
:105120000EF801F093FA01F0DDFB072866D101F0DB
:105130008DFA01F0B4FB01462846FFF71BFA06463C
:1051400001F084FA01F0D3FB4349024633463B4861
:10515000FEF7F5FF01F07AFA314601F0A0FD667224
:1051600001F074FA01F0BEFB40B101F06FFA01F0FA
:1051700096FB002201462846FFF7B8FE01F066FACA
:1051800001F0B0FB207201F061FA01F0A1FBD8B38D
:1051900001F05CFA01F0A1FB054601F057FA01F0BD
:1051A00097FB08EE100A28460CF07EFE2B4B0022DF
:1051B0000CF02EFDF8EE487A064617EE900A0F46E0
:1051C0000CF084FE02460B46304639460DF000F8DE
:1051D000234B00220CF0D2FE0DF0C8F908EE100AA5
:1051E000FEF7C6FF054601F031FA01F058FBB0EEBC
:1051F000480A01462846FFF767FD0EE701F026FA48
:1052000001F075FB6072ABE79FED168AE8E701F0ED
:105210001DFA01F049FB1BE7134908482A46FEF72F
:105220008EFF002130460BF058FB002451E701248B
:105230004FE700BF70D80320A84F0C0050E60320B2
:10524000105E0C0068E1032027500C0069D8032091
:10525000D94D0C00D44F0C00F34F0C000000F03F70
:10526000000059400000000074500C00F0B589B0F7
:1052700079238DF81A300DF11F0303930DF11E03EE
:1052800002937D4D0DF11D03019307AB009306467C
:105290000DF11B0379480DF11A02294606F01AF99F
:1052A0000446002800F0E3809DF81A300024EC54F6
:1052B0002E8801F083F901F039FB76BAB6B2B0421C
:1052C00016D001F0C3F901F0EAFA2B8805905BBA19
:1052D0009BB2049301F072F901F028FBDDE904327E
:1052E000009067496748FEF72AFF204609B0F0BDE5
:1052F00001F0ACF99DF81B1001F0A1FC01F0A6F93A
:10530000214601F0A2FC01F0A1F99DF81F105E4CAE
:1053100001F0CBFC01F09AF969885C4D49BA89B279
:1053200001F0FAFC9DF81E3003F00F03237001F02A
:105330008DF901F0B4FA059001F088F901F05DFBF8
:1053400021780490524805EB011505F074FE0646DD
:105350004F4807F011F8074601F078F901F0CCFA50
:10536000DDE904324B49CDE90270CDE900564548EC
:10537000FEF7E5FE01F06AF901F091FA0A282FD84C
:10538000FEF7F6FE054601F061F901F088FA049097
:1053900001F05CF901F031FB049902462846FFF761
:1053A000B3F8E8B93C493748FEF7C9FE01F04EF9B9
:1053B000054601F04BF901F072FA0146284601F06A
:1053C00044FC01F043F90B2101F039FC2378032B55
:1053D00011D1FEF7CDFEFEF7C7FFC0B9002484E768
:1053E00001F034F901F05BFA0A28EFD901F02EF947
:1053F0009DF81B10E3E7012B04D1FEF7B9FEFFF780
:105400000FFDEAE725491F48FEF799FEE6E701F0A0
:10541000D5F801F0EDFAC0B101F0D0F8054601F081
:10542000CDF801F0E5FA0146284601F069FC01F0EB
:10543000C5F8002101F06AFC01F0C0F801F07BFA28
:10544000174902460F48FEF77AFE2378042B05D150
:10545000FEF78EFEFFF798FD044646E7022B04D1C7
:10546000FEF786FEFFF770F9F6E70E49CBE7304608
:10547000FEF792FE39E700BF70D8032068E10320F1
:10548000A2500C0050E6032068D8032078D50320F2
:10549000ECD80320FC500C0040510C0074510C005F
:1054A00094510C00C8510C00014B1A60704700BFAA
:1054B000E8D50320014B01221A70704762E40320F3
:1054C00030B585B00446089860B1406850B1856831
:1054D00045B1CDE90241CDE90023C46801AB6A467C
:1054E00002A9A04705B030BD30B585B0006813688B
:1054F0000193D1E900458368CDE902450BB90BF072
:10550000F7FAC36801AA02A9984705B030BD012A7D
:1055100002D1016000207047022A04BF0B680360BB
:10552000F8E703681268D1E90001184737B5046845
:105530009DF818508DF800308DF8045024683C23F5
:10554000A04703B030BD08B5002008F00FF828B11F
:1055500007F0ECFF80F00100C0B208BD0120FCE7BD
:1055600010B58368044613B10322014698472046CC
:1055700010BD10B5044638B1FFF7F2FF20461021E8
:10558000BDE81040FEF78BBD10BD000070B5144C97
:10559000144D2378144E022BC2B017D10AF064FFC9
:1055A000A0B92278337805EB021200920F4A05EB7E
:1055B00003134FF4807102A808F080F823780C4898
:1055C000337002A9FEF7BBFD42B070BD227833787C
:1055D00005EB0212009205EB0313064AE9E700BF50
:1055E00061E40320ECD5032060E4032000520C00AA
:1055F00050E6032020520C002DE9F04F2DED028BD8
:10560000E9B020AF0023FB61A34B3B60A34B7B6061
:10561000A34BBB60A34BFB60A34B3B61A34B7B61E4
:10562000A34BBB6105460AF01FFFF8B10AF039FF32
:1056300004460AF053FF431CE41A002D00F04A818F
:10564000FEF796FD149001F001F801F0D6F91499D7
:1056500003462A461CA8FEF70DFF96491CA80AF02F
:1056600070FC824638B11CA80AF05AFB69B0BDEC48
:10567000028BBDE8F08F00F0E9FF01F02EF906463D
:1056800000F0E4FF01F024F9054630460CF00CFC74
:105690008046284689460CF007FC02460B464046E9
:1056A00049460CF095FD844B00220CF067FC0CF091
:1056B0005DFF054600F0CAFF01F019F902281C9BA6
:1056C00077D81B9300F0C2FF01F09CF9159000F011
:1056D000BDFF01F0C7F9169000F0B8FF01F007F91F
:1056E000179000F0B3FF01F0E3F9B0EE408AF0EE5E
:1056F000608A00F0ABFF01F0E1F857F82030149316
:1057000000F0A4FF01F0D5F8189000F09FFF01F021
:10571000DAF81A9000F09AFF01F0E4F8064600F07B
:1057200095FF01F0BCF8074600F090FF01F0F9F991
:10573000804600F08BFF01F0F9F9814600F086FF0A
:1057400001F0DAF8199000F081FF01F0C1F883460A
:10575000284612940CF0BAFB199B1A9A0892CDE9CC
:105760000C93189B0793149B0693179B0293169B0D
:105770000193159B514A0093CDE910011B9B09969B
:105780004FF48071CDE90A788DED048B28A8CDF80F
:1057900038B007F093FF04F029FF494B49491A78C4
:1057A000494B1B788DF800A0134328AAFFF7BEFED3
:1057B00059E71A9300F04AFF01F0D2F910EE106A8F
:1057C00000F044FF01F093F8159000F03FFF01F066
:1057D0006FF9B0EE408AF0EE608A00F037FF01F01A
:1057E0006DF857F82030149300F030FF01F061F8A5
:1057F000169000F02BFF01F066F8179000F026FFDE
:1058000001F070F8074600F021FF01F048F88046EB
:1058100000F01CFF01F085F9814600F017FF01F050
:1058200085F9189000F012FF01F066F8834600F049
:105830000DFF01F04DF81990284612940CF046FB2C
:10584000189B199ACDE90B93179B0893169B079306
:10585000149B0693CDE91001159B02933046CDE9C8
:105860000DB2CDE909788DED048B0CF02FFB1A9B5E
:10587000164ACDE900014FF4807128A807F01EFFF9
:1058800004F0B4FE104B12491A780D4B1B788DF8BA
:1058900000A0134328AA89E72E520C0036520C00B0
:1058A0003A520C0043520C004B520C0057520C0061
:1058B0005D520C006B4C0C000000594069520C000A
:1058C0001DE3032042530C001CE3032057530C003C
:1058D00028540C0002F09CF91CA807F02FFE1C9B1A
:1058E000149300F06BFE00F0D5FF064600F0AEFE0C
:1058F00001F0DEF8B0EE408AF0EE608A00F0A6FE1D
:1059000000F0DCFF57F8209000F0A0FE00F0D1FF7F
:10591000074600F053FE00F0A4FF804600F04EFE64
:1059200000F0A4FF149B114ACDF818904FF4807139
:10593000CDE90904CDE907788DED048BCDE9015659
:10594000009528A807F0BAFE1CA80AF0E9F904F0AF
:105950004DFE074B07491A78074B1B788DF800500E
:10596000134328AAFFF7E2FD80E600BF42540C0073
:105970001DE30320D0540C001CE3032070B5054642
:1059800007F0D8FA064E044607F0D4FA001BA842E6
:1059900005D207F0CFFA306007F0B8FDF4E770BD2C
:1059A00010E7032038B5002383608B6804460D465A
:1059B0002BB102229847EB68E360AB68A3602046F6
:1059C00038BD00002DE9F04395B005461C9904A8A8
:1059D00090461F460CAEFFF7E5FF04A908A8FFF7A5
:1059E000E1FF08A93046FFF7DDFF4FF00009102066
:1059F000CDF84890FEF74FFB0446A0B196E80300AF
:105A000001AB83E8030094E8030086E8030093E811
:105A100003000E9BE268A36084E803000F9BCDF8AF
:105A200038900F92E360244B1393244B129300227F
:105A300000234FF00009C5E90023214BC5F8089069
:105A400010201094CDE90139CDF80C90FEF723FB1E
:105A50000446D8B1129BC0F8089033B1022210A9B5
:105A60009847139BE360129BA360164B0393164A5F
:105A7000029401AB4046394607F0DEFCB0B1204647
:105A8000FFF76EFD10212046FEF709FB10A8FFF777
:105A900067FD3046FFF764FD08A8FFF761FD04A825
:105AA000FFF75EFD284615B0BDE8F083029BAB60B2
:105AB000C5E90087EAE700BFE9540B00CD5A0B00A7
:105AC00002000C0073550B00C1540B00012A37B5BE
:105AD000044604D10B680360002003B030BD022AE5
:105AE0000CD0032AF8D10468002CF5D02046FFF72B
:105AF00037FD10212046FEF7D2FAEDE70968019143
:105B00001020FEF7C8FA054610B10199FFF74AFFC9
:105B10002560E1E7164B10B501241C70154B0822D7
:105B20001A700AF073FE00231A4609210AF07EFE5D
:105B30000AF06CFE00231A460D210AF06FFE0E4B90
:105B40001A1D1A600D4A5A600022C3E902221A6126
:105B50001C750AF03BFF69220146094802F0B8F8BB
:105B60000848062340F8043BBDE8104003F0F6BFA8
:105B70001CE303201DE3032054E303201000030073
:105B800034E3032070E30320F0B500209DB007F05C
:105B9000E1F942F210750446002007F0DBF9001B22
:105BA00061F10001A84271F1000307D20AF06CFD17
:105BB0000AF05FFD10B907F0A9FCEDE70AF064FDFB
:105BC0000AF057FD01F0C6FE01F0F8FE00F0F6FC09
:105BD0000368564E1B68564F984700F037FD036820
:105BE0001B68984700F07AFD03681B68984701F02E
:105BF000B7FA01F0C7FA082301213046738102F099
:105C000063FD7C21304602F061F94A4B06934A4B12
:105C1000099306AD494B08934FF48022002302A854
:105C20000095FFF7CFFE2846FFF79AFC04F0DEFC54
:105C300004F0E2FEFEF79CFA0121FEF705FB04F0FA
:105C40006DF93F490446284604F03AF807A904F1E3
:105C500008000AF0ECF80C9BE3610DA904F12000A8
:105C60000AF0E5F8129B6363149BE363169B63647D
:105C7000189BE3641A9B63659DF86C3084F8583078
:105C8000284603F0D9FD0AF00CFCC317C7E9180336
:105C9000384604F0BBF90AF0E7FB2A4C002837D05D
:105CA0003946294A284604F09BF801231A46102158
:105CB0003046069F02F08BF92449254B3A460028CE
:105CC00018BF0B4623482449FEF739FA28460AF044
:105CD00027F8224B1D8828460AF018FEF8B92049FB
:105CE0001C48FEF72CFA00F069FC012100F083FF4C
:105CF0000523237000224FF0FF331A4900922846F3
:105D000008F0B4FA23780BB9032323701DB0F0BD5B
:105D100015491048FEF713FA05232370D9E700F060
:105D20004DFC00F099FD0128E4D1D8E734E30320CD
:105D300070E30320A9540B0023550B000F550B00F3
:105D4000F2540C0061E4032019550C00E8540C00D7
:105D5000EB540C0050E6032024550C00125E0C009E
:105D600093550C00B5540B0055550C002DE9F0432C
:105D7000934C2378013B93B0062B17D8DFE813F040
:105D8000EA02070045003E012A02A3020F028D4BE2
:105D90001B78022B01D0FFF7F9FB00F00FFC00F09D
:105DA0006AFD002800F0148201232370864802F067
:105DB00039FC04F01BFC04F00BFB00F0FFFB00F0CF
:105DC0001BFC00F043FC00F05FFC00F087FC00F0DF
:105DD000A5FCFEF7CDF9FEF7DDF97C4B1B68002B27
:105DE00009DB7B497B48FEF7AAF94FF4FA60FFF71D
:105DF000C5FD0AF062F900F0E1FB00F03CFD08B1DE
:105E00000123237013B0BDE8F083FFF7BFFB00F060
:105E1000D5FB00F090FD3C2606FB00F50AF041FBA7
:105E2000B0FBF5F606FB1506AE1BAE4228BF2E46AC
:105E30000AF037FBDFF8C0916749CDF8009082196E
:105E400000230AA80AF0CEFA644D0A9B644961480F
:105E50003246FEF774F90AA809F062FF2B7D0BB1F8
:105E600002222A725F4AB2F80080002B4AD02B68C7
:105E7000DB68EBB19A88012A06D09B68F9E79B683A
:105E8000B3B19A88012AFAD19A894245F7D1002202
:105E90009A732B7D002B35D02B684FF47A70DB681A
:105EA0004643DBB19A88042A00F0A7829B68F8E792
:105EB0004D4910200AF012FE0746002800F09F828C
:105EC000102200210CF03AFC484B3B600123BB80C0
:105ED0002B69BB60A7F80C802F61DAE742491020DC
:105EE0000AF0FCFD0746002800F0898210220021FC
:105EF0000CF024FC3D4B3B600423BB802B692F61DD
:105F0000C7E902360021304801F0E0FF334907A815
:105F10000AF0D6F82C484FF0FF3101F0D7FF079B6D
:105F2000EBB19A88012A1AD19B8998452FD100207C
:105F300007F010F842F210760546002007F00AF844
:105F4000401B61F10001B04271F100030AD20AF076
:105F50009BFB0AF08EFB28B907F0D8FAEDE74FF665
:105F6000FF73E2E70AF090FB0AF083FB4FF47A70CC
:105F7000FFF704FD1E491748FEF7E1F807980223D2
:105F8000237000283FF412AF07F078FB0EE70AF009
:105F900088FA1149CDF80090C31702460AA80AF002
:105FA00021FA0A9A04920AF0EBF8049A114903467E
:105FB0000848FEF7C4F80AA809F0B2FEDEE700BF01
:105FC00061E4032060E4032034E30320E8D50320E8
:105FD0002C570C0050E60320A8E6032054E30320CE
:105FE000D4550C00125E0C00406C0C001000030035
:105FF00001560C0017560C00D1550C00C44BDFF8AD
:1060000050831B78C34F042B72D0072B03D006F0AC
:1060100091FFC8F80000FFF7B9FA0AF042FABE4D46
:10602000C317C5E91803284603F0F0FF05F168011E
:1060300007A803F07DFE9DF9206000F0BFFA00F094
:106040001FFC8642C0F29D8005F168010AA803F09A
:106050006FFE9DF92C6000F0B1FA00F016FC86424C
:106060000AA8CCBF0026012603F0D6FB07A803F040
:10607000D3FB002E00F0878000F0E8FA012100F049
:1060800090FF00F09BFA00F0E7FB00280CBF05230F
:106090003C233B7000F092FA00F0DEFB00280CBFBE
:1060A00005223C22059200F0D1FA00F044FD9B4904
:1060B0009B4B002808BF0B469A4904930AA803F09B
:1060C00037FE9DF92C6000F079FA00F0D9FB054607
:1060D00000F074FA00F0D9FBDDE90432CDE901509B
:1060E000914992480096FEF72AF80AA803F094FB1B
:1060F000FEF73EF8FFF7BAF860B100F0A7FA00F03B
:10610000F1FB012806D000F0A1FA00F014FD08B15F
:106110000723237006F00EFFD8F80030C01A3B7832
:106120004EF66022534398427FF640AE80497F4846
:10613000FEF705F8FEF71CF8FEF784FAFEF718F8EC
:10614000FEF73AF8FEF714F80021FEF7CDFB00F059
:10615000C5FA03680121DB6898470AF0B3F90546E0
:1061600000F02CFA00F09CFC0AF072F885420ED187
:1061700000F024FA00F07FFB00287FF415AE032323
:1061800013E6002672E700F061FA314677E700F087
:106190005DFA00F0D0FC0028EAD0052305E6FFF701
:1061A000F5F900F053FA00F07AFBFFF725FA00F05A
:1061B0004DFA002100F06DFD00F000FA054600F0F8
:1061C000FDF900F053FB0130C1B2284600F01FFD7D
:1061D0000423EAE54E4B574E1B78052B27D0FFF7DB
:1061E000D5F900F0EBF900F05BFC0AF039F84D4905
:1061F00005460AA803F0B9FD9DF82B30B5EBD30F87
:1062000007D000F023FA00F027FE4B494748FDF77E
:1062100096FF00F0D3F900F01AFBFFF7EDF907F055
:1062200085F908B907F07AF906F084FE306007F0C6
:106230007DF90546A8B300F0C1F905460AF031F929
:106240000246C317284600F09DFD00F0B7F9054649
:1062500006F070FE3168411A4FF47A70B1FBF0F12C
:10626000284689B200F046FD07F060F988B107F0D2
:106270005DF910B1002007F071F9FFF764F910B96A
:1062800007F044F9F9E7FFF75EF92C490AA807F08F
:10629000E7FA00F093F900F0DFFA012898D006231E
:1062A00083E506F047FE3368C01A254B98427FF617
:1062B0007DAD24491D48FDF742FF00F07FF92946D6
:1062C00000F099FCEBE7124B1F4D1B78062B04D016
:1062D000FFF75CF906F02EFE286006F02BFE2B6817
:1062E000C01A1A4B98427FF661AD04F07FF990F81E
:1062F000B330002B3FF45AAD00F060F900F0ACFA77
:1063000000287FF43CAF00F02BFF01F04FF836E798
:1063100060E4032028E3032070E30320CA550C0047
:10632000C5550C00D8E3032038560C0050E6032076
:1063300090560C002CE30320A6560C000CE603201C
:10634000C0270900C5560C0030E30320905F010010
:1063500024E303202B4D2C4E2B78BFF35B8F13F0DF
:10636000010F09D12846FDF7A9FE28B106F0E2FD8C
:1063700030602846FDF7A7FE244B22781B789A420E
:1063800025D0FFF703F907F0D1F8D8B1204B214A07
:106390001B788DF8003020493C230AA807F0B2FC96
:1063A0000B9D7DB16B68013B6B605BB92B68284628
:1063B0009B689847AB68013BAB601BB92B682846CC
:1063C000DB68984700F0FAF8002100F026FC06F0A0
:1063D000B1FD3368C01A47F2305398427FF6E6ACFD
:1063E0000E490F48FDF7ABFE4FF4FA60FFF7C6FA0F
:1063F0001E210C4801F0C4FED8E4DE6082E52F7552
:1064000080E500BF18E3032020E3032060E40320BD
:106410001CE30320F1560C000F570C0015570C001D
:1064200050E6032034E3032010B5034B0360044619
:1064300003F09AFE204610BDDC580C0010B504464F
:10644000FFF7F2FF20461021FDF729FE204610BD80
:1064500010B506F063FC044620B9034A034904481A
:10646000FDF76DFE204610BD48570C0052570C003A
:1064700050E6032010B5036804460BB906F00AFD88
:106480002068BDE8104006F015BD38B5044604305C
:10649000FFF7F0FF606AA16A0368DD68D4E90223B0
:1064A000A847606806F00EFD2046BDE8384006F0BB
:1064B00051BB38B504460430FFF7DCFF606AA16ABF
:1064C00003689D68D4E90223A847A2682368D1889D
:1064D0005B692046984718B9236820469B6998470E
:1064E000606806F0EFFC012038BD000010B5044BD9
:1064F00003600446406808B106F0D4FC204610BD95
:1065000034690C0010B5034B03600446FFF7EEFF3F
:10651000204610BD24590C0010B50446FFF7F2FFC9
:1065200020467021FDF7BBFD204610BD10B5034B82
:1065300003600446FFF7DAFF204610BD50590C00F7
:1065400010B50446FFF7F2FF20468021FDF7A7FDB6
:10655000204610BD10B5034B03600446FFF7C6FF8D
:10656000204610BDF8580C0010B50446FFF7F2FFA6
:10657000204640F23C41FDF792FD204610BD000050
:1065800000F1300181600A494FF0400CC0E903C1BD
:10659000012181824FF47A71C16106490022C0E96C
:1065A00009124260826180F82020034A026070472D
:1065B000769EA92070E4032024590C0010B5064CE7
:1065C00023683BB97020FDF766FD034608B1FFF76D
:1065D000D7FF2360206810BD68E4032010B5406A2F
:1065E00003F0D8FDFFF7EAFF4FF4FA720368C261C7
:1065F000BDE810405B68184710B5FFF7DFFF036880
:10660000BDE81040DB6800211847000000F13001B0
:10661000002281600A4942604FF0500C826180F88C
:106620002020084A4262C0E903C16422032181821A
:1066300082624FF47A71044AC1610260704700BF00
:10664000809EA92070E4032050590C0010B5064C20
:1066500023683BB98020FDF71EFD034608B1FFF714
:10666000D5FF2360206810BD6CE4032010B5406A9C
:1066700003F090FDFFF7EAFF4FF4FA720368C2617E
:10668000BDE810405B68184710B5FFF7DFFF0368EF
:10669000BDE81040DB6800211847000000F12C0124
:1066A000002281600A4942604FF4826C826180F866
:1066B0002020084A4262C0E903C1C8220221818227
:1066C00082624FF47A71044AC1610260704700BF70
:1066D000609EA92070E40320F8580C0010B5074C08
:1066E000236843B940F23C40FDF7D5FC034608B1AE
:1066F000FFF7D4FF2360206810BD00BF64E40320CF
:1067000010B5406A03F046FDFFF7E8FF4FF4FA7258
:106710000368C261BDE810405B68184710B5FFF719
:10672000DDFF0368BDE81040DB680021184700006A
:1067300038B504460D46064909F03DFB23464FF4A3
:1067400080621021284606F03BFA204638BD00BF83
:10675000BC6A0C000B464FF48062102106F0AEBA02
:1067600010B5144C144988B0684609F024FB009A0F
:1067700012492046FDF7E3FCFFF7B0FF0099FFF751
:10678000E9FFFFF7ABFF03680121DB689847FFF7DC
:10679000A5FF014604A8FFF7CBFF049A084920464D
:1067A000FDF7CDFC04A809F0BBFA684609F0B8FA79
:1067B00008B010BD50E6032064570C0071570C0060
:1067C0008F570C0070B5104904461048FDF7B7FC10
:1067D000C825606A03682946DE68FF220223013566
:1067E000B047B5F59B6FF4D109490848FDF7A7FC00
:1067F000204606F0F9FA2046FFF7B2FF2046BDE832
:10680000704006F04FBA00BFA5570C0050E60320B9
:10681000B9570C0010B503680446586806F052FBDF
:10682000204610BD37B50446019004300D46FFF7F1
:1068300021FEE368013BAB4228BFA36801A82CBF3F
:106840005C5D0024FFF7E6FF204603B030BD08B5CD
:106850001021FFF7E7FF08BD08B51421FFF7E2FF9D
:1068600008BD08B51521FFF7DDFF08BD08B51621E5
:10687000FFF7D8FF08BD08B52E21FFF7D3FF08BDED
:1068800008B53821FFF7CEFF08BD08B53921FFF75D
:10689000C9FF08BD08B53A21FFF7C4FF08BD08B518
:1068A0001021FFF7BFFF08BD08B51121FFF7BAFFA0
:1068B00008BD08B51421FFF7B5FF08BD08B52021B4
:1068C000FFF7B0FF08BD08B52121FFF7ABFF08BDFA
:1068D00008B52621FFF7A6FF08BD08B52721FFF759
:1068E000A1FF08BD08B53421FFF79CFF08BD08B51E
:1068F0004121FFF797FF08BD08B54221FFF792FF3E
:1069000008BD37B50446019004300D46FFF7B2FDCF
:10691000E368023BAB4228BFA36801A82CBF5C5BC5
:106920000024FFF777FF204603B030BD08B51221E1
:10693000FFF7E7FF08BD08B52A21FFF7E2FF08BD12
:1069400013B506F0EBF90446A0B1FFF737FEFFF7E9
:1069500097FF0C2817D9FFF731FEFFF791FF019041
:10696000FFF72CFEFFF791FF019A1B4903461B48D6
:10697000FDF7E5FB1A4A1B491848FDF7E0FB002428
:10698000204602B010BDFFF719FEFFF77EFF0B286F
:10699000E1D9FFF713FEFFF7CEFF90B1FFF70EFE30
:1069A000FFF7C9FF3C280CD8FFF708FEFFF74FFFA1
:1069B0000028E5D0FFF702FEFFF749FF0A4902462B
:1069C00005E0FFF7FBFDFFF7B6FF08490246034865
:1069D000FDF7B5FBCEE700BFCB570C0050E6032018
:1069E00048570C003B580C001C580C00F7570C0083
:1069F00008B52C21FFF785FF08BD08B51221FFF768
:106A000080FF08BD08B53021FFF77BFF08BD0000FF
:106A100010B506F083F9044698B1FFF717FEFFF7AB
:106A2000F1FFFFF713FEFFF7EDFFB0F5806F0ED912
:106A3000FFF70CFEFFF7E6FF064902460648FDF7A2
:106A40007EFB064A06490448FDF779FB00242046F0
:106A500010BD00BF50580C0050E6032048570C00F2
:106A600076580C0008B53221FFF74BFF08BD37B54B
:106A70000446019004300D46FFF7FCFCE368083B38
:106A8000AB4222BFA1686D18D5E9004501A83CBF03
:106A900000240025FFF7BEFE2046294603B030BD86
:106AA00008B52021FFF7E3FF08BD0000000000004B
:106AB00010B52DED028B82B0044601900430FFF733
:106AC000D9FCE368083B172B0DD9A36893ED068B1F
:106AD00001A8FFF79FFEB0EE480AF0EE680A02B088
:106AE000BDEC028B10BD9FED028BF1E7AFF3008090
:106AF000000000000000000037B50446019004309B
:106B00000D46FFF7B7FCE368023BAB4228BFA36822
:106B100001A82CBF5C5F0024FFF77CFE204603B079
:106B200030BD08B52221FFF7E7FF08BD08B52421D5
:106B3000FFF7E2FF08BD13B5044601900430FFF7EC
:106B400099FCE368013B3F2B88BFA36801A88CBF79
:106B500093F840400024FFF75DFE204602B010BDD0
:106B600010B52DED028B82B0044601900430FFF782
:106B700081FCE368043B472B8ABFA3689FED068A2C
:106B800093ED128A01A8FFF745FEB0EE480A02B065
:106B9000BDEC028B10BD00BF0000000010B5036803
:106BA0000446586806F08EF9204610BD73B50446B9
:106BB000019004300D461646FFF75CFCE368013B8C
:106BC000AB4207D3A3685A5DB24203D05E5520465C
:106BD00006F068F801A8FFF7E1FF02B070BD08B544
:106BE0000A461021FFF7E2FF08BD08B50A46112149
:106BF000FFF7DCFF08BD08B50A461421FFF7D6FFF2
:106C000008BD08B50A461521FFF7D0FF08BD08B535
:106C10000A461621FFF7CAFF08BD08B50A462E210D
:106C2000FFF7C4FF08BD08B50A463821FFF7BEFFCD
:106C300008BD08B50A463921FFF7B8FF08BD08B5F9
:106C40000A461021FFF7B2FF08BD08B50A46112118
:106C5000FFF7ACFF08BD08B50A461421FFF7A6FFF1
:106C600008BD08B50A462021FFF7A0FF08BD08B5FA
:106C70000A462121FFF79AFF08BD08B50A462621DA
:106C8000FFF794FF08BD08B50A462721FFF78EFFDE
:106C900008BD08B50A463421FFF788FF08BD08B5CE
:106CA0000A464121FFF782FF08BD08B50A46422186
:106CB000FFF77CFF08BD73B50446019004300D4614
:106CC0001646FFF7D7FBE368023BAB4207D3A36846
:106CD0005A5BB24203D05E53204605F0E3FF01A8A1
:106CE000FFF75CFF02B070BD08B50A461221FFF73E
:106CF000E2FF08BD08B50A462821FFF7DCFF08BD02
:106D000008B50A462A21FFF7D6FF08BD08B50A468E
:106D10002C21FFF7D0FF08BD08B50A461221FFF766
:106D2000CAFF08BD08B50A463021FFF7C4FF08BDF9
:106D300008B50A463221FFF7BEFF08BDF7B5044685
:106D4000019004300D461E461746FFF793FBE3689B
:106D5000083BAB420CD3A3685A1958595168B14249
:106D600008BFB84204D05F512046566005F09AFF34
:106D700001A8FFF713FF03B0F0BD08B51821FFF716
:106D8000DDFF08BD08B52021FFF7D8FF08BD08B515
:106D90003021FFF7D3FF08BD10B5044606F024F8F4
:106DA00026492748FDF7CBF9FFF708FC0021FFF73C
:106DB00016FFFFF703FC0121FFF717FFFFF7FEFBAC
:106DC00046F6E131FFF790FFFFF7F8FB0021FFF7F0
:106DD00012FFFFF7F3FB0021FFF713FFFFF7EEFBB6
:106DE0000021FFF714FFFFF7E9FB00220023FFF764
:106DF000C4FFFFF7E3FB3C21FFF782FFFFF7DEFB59
:106E00000021FFF783FFFFF7D9FB0021FFF705FF04
:106E1000FFF7D4FB00220023FFF7B9FFFFF7CEFBFB
:106E20000621FFF700FFFFF7C9FB1621FFF701FF5F
:106E30002046BDE8104005F035BF00BF89580C0062
:106E400050E6032008B52821FFF778FF08BD08B5F4
:106E50003821FFF773FF08BD10B524492448FDF71A
:106E60006EF9FFF7F3FB0B21FFF7E9FEFFF7EEFBEF
:106E70000021FFF7EAFEFFF7E9FB0021FFF74CFFD7
:106E8000FFF7E4FB0021FFF704FFFFF7DFFB002221
:106E90000023FFF7DCFFFFF7D9FB0021FFF748FFD6
:106EA000FFF7D4FB0021FFF73DFFFFF7CFFB0021E9
:106EB000FFF7E3FEFFF7CAFB0021FFF7E4FEFFF751
:106EC000C5FB044609F0EDFA0246C3172046FFF75A
:106ED000B9FFFFF773FB0021FFF793FEFFF76EFB8F
:106EE000BDE810400021FFF792BE00BF9A580C0089
:106EF00050E6032010B5044605F076FF0549064824
:106F0000FDF71DF92046FFF7A7FF2046BDE810401A
:106F100005F0C8BEBB580C0050E60320F7B5044688
:106F20000190043057EC106BFFF7A4FAE368083BBC
:106F3000172B0CD9A5683046D5E9062339460BF046
:106F400085FA20B9C5E90667204605F0ABFE01A821
:106F5000FFF724FE03B0F0BD73B504460190043082
:106F60000D461646FFF786FAE368023BAB4207D3AD
:106F7000A3685A5FB24203D05E53204605F092FEEA
:106F800001A8FFF70BFE02B070BD08B50A4622212A
:106F9000FFF7E2FF08BD08B50A462421FFF7DCFF32
:106FA00008BD37B50446019004300D46FFF762FA7C
:106FB000E368013B3F2B09D9A36893F84020AA421C
:106FC00004D083F84050204605F06CFE01A8FFF77E
:106FD000E5FD03B030BD10B52DED028B82B0044647
:106FE00001900430B0EE408AFFF744FAE368043BB6
:106FF000472B0CD9A368D3ED127AB4EE678AF1EE71
:1070000010FA04D083ED128A204605F04BFE01A849
:10701000FFF7C4FD02B0BDEC028B10BD10B509F046
:10702000D5FC054C014600234FF40052204603F0E6
:10703000A7F8024B236010BD70E40320DC580C005D
:107040007047006A0368DB681847704710B5042171
:107050000446FDF724F8204610BD000010B5034B90
:107060000360044601F0D8FD204610BDC45D0C004D
:1070700010B50446FFF7F2FF204640F62C11FDF74D
:107080000EF8204610BD7FB50268536890681468FA
:107090005E1000EB6305DB0748BF8359684648BFB5
:1070A0001C5908F0B9FE69462846A04704466846C0
:1070B00008F036FE204604B070BD012A38B50446FB
:1070C00002D10B68236003E0022A03D0032A0DD00B
:1070D000002038BD0C200D68FCF7DDFF03460028BA
:1070E000F0D095E8070083E80700EBE70068002888
:1070F000EED00C21FCF7D3FFEAE737B51D4601AB14
:10710000044601F06BFF20B101992A46204601F0A8
:1071100047FF03B030BD00000A4B10B504460360C2
:1071200007F072FC214607F076FE09F0ADFA09F08F
:107130009DFA2046044B40F8043B07F007FD20462B
:1071400010BD00BFAC5D0C00945D0C0010B5044692
:10715000FFF7E2FF20462421FCF7A1FF204610BDE7
:1071600010B5064C236833B90420FCF794FF08B12E
:10717000034B03602060206810BD00BF90E4032033
:10718000D45D0C0030B5194985B004461848FCF7A9
:10719000D6FF00250C200295FCF77DFF18B1154B9A
:1071A0008460C0E90035144B009003931020134B0A
:1071B0000293FCF770FF044678B100238360029BC2
:1071C00033B1022269469847039BE360029BA360A8
:1071D0000B4A0C48214606F084FC029B1BB1694611
:1071E00003220846984705B030BD00BF74590C0013
:1071F00050E60320DD740B0087700B00BB700B00A2
:10720000A2590C00BBDA0B0070B5D0E9005314266C
:10721000044606FB0356AE4204D0284608F080FD23
:107220001435F8E7206806F029FA204670BD884238
:10723000F8B504460D46164616D9904215D2A2F16D
:107240001406751AA1F114072C44B7421CD02CB1B6
:107250003146204608F0E0FD337C2374304608F0C8
:107260005FFD143E143CF0E70ED0B5420CD02CB1BB
:107270002946204608F0D0FD2B7C2374284608F0D0
:107280004FFD14351434F0E7F8BD2DE9F04100232B
:10729000C0E9003383604F689F4204460E4623DDF9
:1072A0004FF0140808FB07F006F0E0F90546D8B1E6
:1072B000D4E9001208FB0212FFF7B9FF206806F0BC
:1072C000DDF92560A760D6E9007308FB0378B845AF
:1072D00008D03946284608F0B9FD3B7C2B7414379A
:1072E0001435F4E7736863602046BDE8F081000060
:1072F00070B5274B274A01251D70274B00248CB001
:107300009A60C3E90044022006F086F82146284628
:1073100006F09AF82946042005F0ECFDCDE900447A
:10732000029409F0B1F91D4C0546694603A8FFF720
:10733000ACFF264603A906A8FFF7A7FF184B46F89F
:10734000043B06A909A8FFF7A0FF09AA1E213046A1
:1073500007F044FE09A8FFF757FF06A8FFF754FF00
:10736000104B2360256203A8FFF74EFF0E4B2360EE
:1073700009F08AF94FF4165109F074F907F044FB4B
:10738000214607F001FD6846FFF73EFF0CB070BDD7
:107390008CE403200000FFFF80E4032094E403203A
:1073A000945D0C00EC6A0C00AC5D0C002DE9F04320
:1073B00085B009F076F8414905464148FCF7BFFE23
:1073C000002401A8CDE90144ADF80C4006F09AFB79
:1073D000204605F0BFFD43F698260446002005F040
:1073E000B9FD031B61F10001B34271F1000305D245
:1073F00006F09CF810B106F089F8EFE706F096F871
:1074000005F098FD2F4F386006F080F806F08EF8F2
:10741000044640B12C492A48FCF791FE002420463E
:1074200005B0BDE8F08309F03CF82849DFF8A080FA
:10743000421B2348FCF783FE09F033F82246022161
:107440000646D8F8040006F0C1F8D8F80400234630
:107450002246214606F0D2F8204605F07BFD47F291
:1074600030590546002005F075FD431B61F1000110
:107470004B4571F1000306D2404608F0CDF810B933
:1074800006F044F8EEE7124808F0C6F805F052FDA1
:10749000386006F03BF80E4808F0BAF820B10D4904
:1074A0000748FCF74CFEBAE708F0FBFF0A49821BCD
:1074B0000348FCF744FE0124B1E700BFAB590C00C0
:1074C00050E6032010E70320D4590C00F7590C00B4
:1074D0000CE60320205A0C00465A0C002DE9F04F10
:1074E000ADF6B41D0C460746A74909A808F063FC91
:1074F000A5490DA808F05FFC50234FF4806200936B
:107500002CA90DF5966321A801F0E8FB9F4B21689B
:107510009F482193FCF713FE21A801F0D5FB2168B9
:10752000039108460BF0D5F90399024621A801F012
:10753000AEFB21A802F004F9044690B9954994489D
:10754000FCF7FDFD944B934A1B788DF8003011A891
:1075500092493C2306F0D6FB12A8FDF7DFF825463A
:1075600018E021A801F0D5FB8C4ADFF87C82DFF817
:107570007C92DFF87CA2014606AB21A801F02EFD2B
:10758000002506992A4621A801F0E5FB064678B9B0
:10759000002DE4D121A8FFF761FD0DA808F0C0FB84
:1075A00009A808F0BDFB28460DF6B41DBDE8F08F14
:1075B000014607AB424621A801F010FD20B1079912
:1075C00004AA21A801F020FC09AB4A46314621A8B3
:1075D000FFF793FD314621A80DAB5246FFF78DFD15
:1075E0006F490DA808F0ADFC00287BD0049B002B50
:1075F0005DD16C4909A808F0A4FC00283AD06A497A
:1076000011A80BF040F9FFF769F8FFF7A9F86749EF
:107610005F48FCF794FD604B654A1B7865498DF81F
:10762000003007A83C2306F06DFB08A8FDF776F8AC
:107630004FF4FA6006F09AF808F03FFDFFF706F8FD
:10764000FFF70AFC524811A9FCF779FD05F06EFF1F
:1076500060B1514B51491B788DF8003007A83C238D
:1076600011AA06F04FFB08A8FDF758F801350A2DBE
:1076700087D174E7504909A808F063FC90B14F49DD
:1076800011A80BF000F9FEF799FF03689B69984772
:10769000FEF7DCFFFFF7E0FBFFF720F803689B69CC
:1076A0009847CBE7464911A80BF0EDF8C6E74249E9
:1076B00009A808F046FC049B58B1424A402111A891
:1076C00005F0FCFFFCF754FD05220499FDF70EFCC4
:1076D000B8E73D4A402111A805F0F0FFFCF748FD4E
:1076E0000622F2E739490DA808F02BFC00B30998EF
:1076F0000A2205A90CF05CF8431E3B2B064611D864
:107700003C2393FBF0F343433C2B0BD10346304A1D
:10771000402111A805F0D2FFFEF750FFB1B2FFF7EC
:10772000F5FA8FE72B4911A80BF0ADF8002489E793
:1077300029490DA808F005FC00285BD0274909A8B5
:1077400008F0FFFB064648B1254911A80BF09BF84D
:10775000FEF734FF0121FFF74EFA73E7214911A824
:107760000BF091F8FEF72AFF3146FFF744FAFEF7D7
:1077700025FF03680121DB6898473846FFF716FEAE
:1077800008F09BFC5EE700BFBC6A0C00C45D0C0007
:1077900050E60320725A0C008CE40320905A0C002F
:1077A0009B5A0C00754E0C00A15A0C00C35A0C00D9
:1077B000FB5A0C000F570C000D5B0C00115B0C000A
:1077C000415B0C00665B0C00925B0C00B35B0C0031
:1077D000B85B0C00E25B0C00025C0C00075C0C0068
:1077E0000C5C0C00405C0C00074E0C00945A0C0022
:1077F000985A0C0048490DA808F0A3FB48B1474926
:1078000011A80BF040F8FCF7B3FC0121FDF76CF870
:1078100018E743490DA808F094FBA8B109980A227B
:1078200005A90BF0C5FF0C2806460BD803463D4AB8
:10783000402111A805F042FFFEF7C0FEF1B2FFF7AC
:10784000F2F9FFE638496EE738490DA808F079FBF0
:10785000C0B109980A2205A90BF0AAFFA0F10D03F7
:107860000B2B83460CD80346314A402111A805F062
:1078700025FFFEF7A3FE5FFA8BF1FFF7DAF9E1E6E9
:107880002C4950E72C490DA808F05BFBE0B10998A2
:107890000A2205A90BF08CFF0328064612D8049B88
:1078A000264A00934021034611A805F007FFFCF784
:1078B0005FFC04993246FDF761FA50B3FCF758FCBF
:1078C000072202E71E492EE71E490DA808F039FBE2
:1078D000E8B109980A2205A90BF06AFF012883463E
:1078E00013D1194911A80AF0CEFFFEF767FE5946D9
:1078F000FFF793F9FEF762FE064608F0D2FD024656
:10790000C3173046FFF743FA9CE610490BE71049CE
:1079100009E7044696E600BF625C0C00665C0C005A
:10792000C5550C007B5C0C00995C0C00B25C0C0033
:10793000B85C0C00D65C0C00C84C0C00F15C0C0070
:10794000175D0C00325D0C00365D0C005A5D0C00BA
:10795000755D0C0008B517491748FCF7F0FB0221CC
:10796000042008F0A9FF0021082008F0A5FF01214C
:10797000072008F0A1FF0021122008F09DFF01213F
:10798000112008F099FF0121102008F095FF002137
:10799000102008F0A2FF0021112008F09EFF012115
:1079A000062008F089FF0121062008F096FF01203B
:1079B00008BD00BFDC5D0C0050E6032010B518497F
:1079C000184890B02024FCF7BAFB224600216846F4
:1079D0000AF0B4FE224600210DEB04008DF80540AC
:1079E0000AF0ACFE00210DEB04008DF8254005F0F7
:1079F00067FD41F2D833ADF806300B4B029341F2EC
:107A00007003ADF80C30009B002143F4007368460E
:107A1000009305F055FD003818BF012010B010BDCF
:107A2000F55D0C0050E603208403840307EE900A02
:107A30009FED097AF8EEE77A67EE877A9FED077A8D
:107A400087EE870ADFED067A70EE677AB2EE040AF7
:107A500087EE800A704700BF00404E4500F07F452A
:107A60000000FA4313B5012101A807F06AFEFEF7F2
:107A7000EDFDFEF71EFFFEF7E9FDFEF71AFF2528D4
:107A800001A80DD907F0F0FEFEF7E0FD0121FFF798
:107A9000E8F8002401A807F063FE204602B010BDFC
:107AA00007F0C7FE0124F5E730B51B4D0FCD9BB0A5
:107AB00010AC0FC40FCD0FC495E8030084E8030099
:107AC000164908A805F0CCFE08A805F00CFF0446EE
:107AD00008A805F041FF08A810EE105A05F06CFF49
:107AE0001AAB10EE100A03EB84040AF0EFF9CDE9AB
:107AF000020128460AF0EAF9CDE90001102154F804
:107B0000283C074A0DEB010005F0D8FD054804A903
:107B1000FCF715FB1BB030BD9C5E0C000CE603208F
:107B20005A5E0C0050E6032030B585B00D460022A9
:107B30006946009205F05EFC90B9009C0CB1236987
:107B400023B9084A08490A2005F01CFC0C23CDE99A
:107B500001350423039301AA236901212046984794
:107B600005B030BD25CF0B00735E0C0037B525483E
:107B7000254D06F0C1FA05F0DDF9044605F0DAF905
:107B8000001BB0F57A7F05D205F0D4F9286005F026
:107B9000BDFCF3E7FEF75AFD01A904460720FFF7F5
:107BA000C3FF011EA8BF01992046C9B2FFF759F8CB
:107BB000FEF74CFD01A904460320FFF7B5FFE8B925
:107BC000BDF8043007EE903AFBEECC7A17EE900A3F
:107BD0000AF07CF941EC100B2046FFF79FF9FEF705
:107BE00035FDFEF765FF094B51EC100B00220AF042
:107BF00055FC003818BF012003B030BDFFEE007AFD
:107C0000E4E700BFB8E4032010E7032000004E4083
:107C100013B5FEF71BFD0F4B0446188808F089FECC
:107C2000FFF704FFFDEEC07A2046CDED017A9DF806
:107C30000410FFF710F8FFF799FFFFF713FFFEF7A7
:107C4000BDFCFEF704FE08B9FFF72EFF012002B0CD
:107C500010BD00BF1A5E0C000148002106F008BAF2
:107C6000B8E40320704710B520210446FCF717FA4A
:107C7000204610BD10B504468AB008464FF0200CCF
:107C80000021CDE90023CDE902C10B4602AA2168FB
:107C900005F088FB0AB010BD0EB403B503AB32216A
:107CA00053F8042B0193FFF7E5FF02B05DF804EBF6
:107CB00003B070470EB403B503AB012153F8042B96
:107CC0000193FFF7D7FF02B05DF804EB03B07047F4
:107CD00010B50272FF2242810022C0E903224261F4
:107CE0000276C261024A034C1060C0E9004110BD37
:107CF000C4E4032014610C002DE9F8439DF82080B2
:107D00000446894616461F46B8F1000F02D0406867
:107D100006F098FA217A606806F071FA60680368E4
:107D200049469B6898476068002106F087FA054637
:107D300000BB0123217A60683A4606F04EFA87427A
:107D4000034609D13744BE421CD0606803685B69B2
:107D5000984706F8010BF6E70B490C484A46FFF72F
:107D60009BFFB8F1000F02D0606806F074FA284655
:107D7000BDE8F8830346064904484A46FFF78CFFEE
:107D80000025EEE70125ECE7C45E0C00C0E403200B
:107D9000E95E0C0007B500930123FFF7ADFF03B0C8
:107DA0005DF804FB73B54389FF2B044610D0194ED0
:107DB000194D05F0BFF8B0F57A7F09D2608908F057
:107DC000A5FD012804D031462846FCF7B8F9F0E7B4
:107DD00001230DF1070228212046FFF7DBFF30B910
:107DE0000D480E49FCF7ABF9002002B070BD9DF8BC
:107DF0000730182BF4D101230DF107022921204669
:107E0000FFF7C8FF0028EBD09DF80730052BE7D11E
:107E1000EBE700BF0D5F0C00C0E40320225F0C0005
:107E200007B5134600228DF807200DF10702FFF772
:107E3000B1FF9DF8070003B05DF804FB2DE9F041A8
:107E40009DF8188004460F4615461E46B8F1000FEF
:107E500002D0406806F0F6F9217A606806F0CFF9A2
:107E60006068036839469B6898472E44B54260684D
:107E700005D0036815F8011B9B689847F6E70121B8
:107E800006F0DCF9034670B1084909483A46FFF7A5
:107E900003FF0025B8F1000F02D0606806F0DBF99F
:107EA0002846BDE8F0810125F4E700BF2F5F0C00F4
:107EB000C0E403201FB58DF80F2000930DF10F02D1
:107EC0000123FFF7BBFF05B05DF804FBF8B50A46D8
:107ED0000C4605461A491B48FCF731F9002CB8BF7F
:107EE000EC687CB9012322461B212846FFF7E2FFFC
:107EF0001549024606461348FFF7DCFEEC606C614C
:107F00003046F8BD032C19DDA7101F2FA8BF1F276F
:107F1000BA0062F07C020123D2B21B212846FFF78F
:107F2000C9FF3A460346094906460648FFF7C2FE1E
:107F30004FF4FA635F43EC606F61E1E70127E7E725
:107F4000545F0C00C0E403205E5F0C007A5F0C00FD
:107F5000064B1A684AB1A0F500630B4305D1D368FC
:107F60001BB100211046FFF7B1BF7047C4E40320E6
:107F70002DE9FF419DF82880054616461F46B8F1B9
:107F8000000F04D04068019106F05CF9019901915D
:107F900000230DF10F022846FFF7FCFE044660B1F6
:107FA0009DF80F3003EA06023A43934205D0019947
:107FB00000232846FFF77EFF0446B8F1000F02D0E9
:107FC000686806F048F9204604B0BDE8F08113B5B2
:107FD00014460DF10702FFF7DDFE28B19DF80730CA
:107FE0001C420CBF0120002002B010BD13B5144686
:107FF0000DF10702FFF7CEFE28B19DF807301C42B5
:1080000014BF0120002002B010BD07B5D243009379
:10801000D2B20023FFF7ACFF03B05DF804FB000011
:1080200037B501230DF107020F210446FFF7B2FE19
:10803000054638B91E491F48AD22FFF72DFE2846D8
:1080400003B030BD9DF8073013F0200F4FF001034F
:108050000BD02022E3610F212046FFF7D6FF164AFE
:1080600016491448FCF76BF8E9E708221721204667
:10807000FFF7BCFF18B10223114AE361F0E79DF856
:1080800007301A0709D50323E361082201230F21D2
:108090002046FFF7BAFF0B4AE2E75B07CFD5042281
:1080A000E26101230F212046FFF7AFFF064AD7E721
:1080B000CD5F0C00C0E403209E5F0C00EC5F0C0061
:1080C000A75F0C00B75F0C00C75F0C0007B50093FB
:1080D0001346FF22FFF74CFF03B05DF804FB0000DE
:1080E000F8B50F461646012300220F210546FFF77B
:1080F000E1FE044638B94FF425721F491F48FFF7C7
:10810000CBFD2046F8BD0123232218212846FFF786
:10811000D1FE044610B940F29B22EEE7FF2FA8BF24
:10812000FF27012FB8BF01270123FAB219212846E2
:10813000FFF7C0FE044610B94FF42A72DDE70123B1
:10814000082212212846FFF7C1FF044610B940F269
:10815000AF22D2E7002E14BF03220222012342F0F5
:10816000800218212846FFF7A5FE04460028C8D142
:1081700040F2B922C1E700BFFD5F0C00C0E403205C
:108180002DE9F7430A4605460F464F484F49FBF78E
:10819000D6FF00212846FFF799FE044648B940F271
:1081A000F7124B494848FFF777FD204603B0BDE87A
:1081B000F08301231A4630212846FFF787FF044643
:1081C00010B940F20522ECE710220123114628469F
:1081D000FFF71BFF044610B94FF40372E1E70123D8
:1081E000262213212846FFF765FE044610B940F207
:1081F0001322D6E7012600963346FC221121284699
:10820000FFF7B6FE044610B940F21B22C9E7002270
:1082100039462846FFF764FF044610B940F222228F
:10822000BFE700960223772210212846FFF7A0FE21
:10823000044610B940F22B22B3E7334604221C2136
:108240002846FFF743FF044610B940F23222A8E760
:1082500000961823E32211212846FFF789FE0446E1
:1082600010B940F239229CE73346C0221721284634
:10827000FFF720FE044610B94FF4107291E704F0A6
:1082800059FEDFF85490DFF840804FF47A710646CB
:108290004F4304F04FFE801BB8420ED2012217213B
:1082A0002846FFF7BDFD494602464046FBF747FF1B
:1082B0004FF47A7005F05AFAEBE706490248FFF7E7
:1082C000EBFC07F0FAFE70E7C0E4032028600C0026
:1082D0001D600C004E600C0039600C002DE9F34766
:1082E0009DF828A005460C4691461F46BAF1000F9E
:1082F00002D0406805F0A6FF07B3202F3E4628BFF6
:1083000020267F2C26D83319802B01D9C4F1800672
:10831000012304223F212846FFF777FE002364F063
:108320007F0100934A463346C9B22846FFF7E4FC72
:10833000804628B13444BF1BB144DDE74FF001084B
:10834000BAF1000F02D0686805F085FF404602B020
:10835000BDE8F087012304223F212846FFF7B6FE3F
:10836000DCE72DE9F3479DF828A005460C46914629
:108370001F46BAF1000F02D0406805F063FF07B353
:108380001F2F3E4628BF1F267F2C26D83319802B4F
:1083900001D9C4F18006012304223F212846FFF7BA
:1083A00034FE002364F07F0100934A463346C9B28D
:1083B0002846FFF743FD804628B13444BF1BB14433
:1083C000DDE74FF00108BAF1000F02D0686805F050
:1083D00042FF404602B0BDE8F087012304223F215E
:1083E0002846FFF773FEDCE730B585B00D68D1E9AC
:1083F000043203954D6802958D680195C968009116
:108400000133044902F26C72044607F0EFFD204686
:1084100005B030BD60600C0003090A2200F00F00B7
:1084200002FB0300704738B5044600781546FFF795
:10843000F3FF08606078FFF7EFFF4860A078FFF770
:10844000EBFF8860E078FFF7E7FFC8602079FFF76F
:10845000E3FF013808612DB9651D2878FFF7DCFFBF
:10846000886138BD6079FFF7D7FF6430A51D48618A
:10847000F3E7000070B5012388B00D461A461021BD
:108480000446FFF7A4FDF0B108230126204600961C
:108490000DEB03020021FFF72FFC044698B1324692
:1084A00029460DF10900FFF7BEFF04A8FFF79CFF66
:1084B0000848049A0849FBF742FE04A807F030FC7C
:1084C000204608B070BD2422002128460AF036F963
:1084D0000024F5E7C0E403207E600C0030B58BB0CB
:1084E0000D4601A9FFF7C6FF044620B101A805F01B
:1084F00035F9C5E9000120460BB030BD0A2390FBD9
:10850000F3F103FB110091FBF3F203FB121240EABB
:108510000210C0B2704770B5054600680C4616469A
:10852000FFF7ECFF20706868FFF7E8FF6070A8684D
:10853000FFF7E4FFA070E868FFF7E0FFE07028694C
:108540000130FFF7DBFF20712EB9661DA869FFF728
:10855000D5FF307070BD6A69642392FBF3F003FBB2
:108560001020FFF7CBFFA61D6071EFE7F0B587B0D5
:10857000054602A816460C46FFF736FF1E48029A2B
:108580001E49FBF7DCFD02A807F0CAFB16B16868BC
:1085900005F058FE204601220DF1090100278DF853
:1085A0000870FFF7B8FF01231A4610212846FFF78D
:1085B0008DFD0446E8B1082300970DEB0302394610
:1085C0002846FFF73BFC044660B101231A46102100
:1085D0002846FFF71AFD16B1686805F03CFE2046F4
:1085E00007B0F0BD4FF48D7205490348FFF754FB07
:1085F000F1E74FF48F72F7E7C0E403208C600C00C2
:108600009A600C0013B504466846CDE900230AF0D1
:1086100047F89DF8102001462046FFF7A7FF02B05B
:1086200010BD0000F0B5057E89B0044675BB07F0AB
:108630001BFF58B30026002704A92846CDE904678C
:1086400004F09CFF10B30125257607F02AFFC3171D
:10865000CDE90203024600952046FFF7D3FF02A9A9
:108660002046CDE90267FFF739FF134B13491B681A
:10867000009304A8DDE9022307F0B4FE1048049A31
:108680001049FBF75CFD04A807F04AFB63698BB156
:1086900004F050FC2369C01A636998420AD304F0BD
:1086A00049FC4FF0FF312061204609B0BDE8F040A1
:1086B000FFF70CBC09B0F0BD84D60320A8E6032068
:1086C000C0E40320B5600C0030B504468BB011B196
:1086D000406805F065FD2046FFF764FB06AD002805
:1086E00037D02046FFF79CFC01231A461021204674
:1086F000FFF76DFCD8B107F0B7FEC0B902A920465C
:10870000FFF7ECFEDDE9020107F0B2FD134B14495F
:108710001B6800932846DDE9022307F063FE114839
:10872000069A1149FBF70BFD284607F0F9FA0F4BA3
:1087300006930F4B09930F4B08934FF400620023ED
:1087400002A80095FDF73EF92846FCF709FF0BB09B
:1087500030BD09490348FFF79FFAE8E784D60320B4
:10876000A8E60320C0E40320CB600C00517F0B007F
:1087700023550B000F550B00E8600C00014B024A1B
:108780001A607047C0E4032000610C0010B501239B
:1087900003748368044643B1C06898470123637437
:1087A0000020BDE8104004F095BB00680028F5D01B
:1087B00083680BB908F09CF9C368EEE7012A02D17F
:1087C000016000207047022A04BF0B680360F8E7CD
:1087D00038B50568044635B12846FCF7C1FE1021BE
:1087E0002846FBF75CFC20461421BDE83840FBF727
:1087F00056BC10B503680446ABB1586804F01AFBC8
:1088000088B923685A7C12B9586804F01BFB2368A6
:10881000586804F01FFB20680023236018B1BDE8EE
:108820001040FFF7D5BF10BD054A0260002242602C
:10883000027380F84F24C0F85824C0F860247047B1
:1088400040610C0010B5074C236843B940F2644006
:10885000FBF721FC034608B1FFF7E6FF2360206821
:1088600010BD00BFC8E4032038B50446406890B18D
:1088700002232373FFF7BDFF656855B12846FFF754
:10888000B8FF286808B1FFF7A3FF04212846FBF7CB
:1088900006FC0023636038BD10B5054B0360044639
:1088A000FFF7E2FF04F58A60FCF75AFE204610BD90
:1088B00040610C0010B50446FFF7EEFF204640F281
:1088C0006441FBF7ECFB204610BDF0B5044689B0CF
:1088D00000F10D0600F14E07237B1BB9012004F0C7
:1088E00045FFF9E7237B022B64D0A06804F0C2FAAD
:1088F000A06804F0C7FA94F84F348DF800303A4677
:108900003C23314606A805F0FDF9069D6B7833B986
:10891000237B022B03D0012004F028FFF5E7D4F8D5
:1089200058341BB3002004F097FD20B16B7813B9C5
:1089300004F0ECFDFAE72B78D4F860240592591E78
:108940004B424B418DF80B30D4F85834CDE90367D6
:108950000BB908F0CDF805AB0093D4F85C5404AB28
:1089600003AA0DF10B0104F58A60A847A06804F082
:1089700081FA237B022B17D0D4F858340025C4F891
:10898000605443B104F58A61032208469847C4F84D
:108990005854C4F85C540023A068237304F072FA9E
:1089A00007A8FBF7BBFE97E7A06804F06BFA07A8DF
:1089B000FBF7B4FE09B0F0BD0068FFF786BF13B542
:1089C0000B460246D0E900016C4684E8030093E8B8
:1089D000030082E8030094E8030083E8030002B088
:1089E00010BD00002DE9F7430646884614202649AD
:1089F0001746994608F072F8044630B10020C4E9E1
:108A00000000C4E90200207460743460002C31D08E
:108A10001D49102008F062F8054668B10023836004
:108A200001463846FFF7CBFFBB68AA68BA60AB6067
:108A3000EA68FB68EB60FA602768256037B1384662
:108A4000FCF78EFD10213846FBF729FB30680368E0
:108A500083B10A9B4A46CDE9000341460B4B0430E3
:108A600004F0E0F930B933681B7C4BB9012004F005
:108A700051FAF8E730680023336008B1FFF7A8FE29
:108A8000304603B0BDE8F083406C0C008D870B00CE
:108A900030B5436887B00446C3B9083004F0E2F942
:108AA0000B4B059304200B4B02940493FBF7F3FA52
:108AB000054638B14FF4406300930749022302AAE8
:108AC000FFF790FF656002A8FCF74AFD07B030BDD4
:108AD000B9890B00BD870B0024610C002DE9F04320
:108AE000044685B080680C9F98460D46164604F0F3
:108AF000C1F963681BB1237B03F0FF0933B1A068A0
:108B000004F0C0F9002005B0BDE8F083A06804F0CF
:108B1000B9F9002D3DD04022294604F10D0009F09D
:108B2000F4FE84F84D908EB340F20142314604F1D8
:108B30004E0009F0EAFE84F84E9400230293BB68CD
:108B400004F58A653BB10222394668469847FB68BE
:108B50000393BB68029329466846FFF730FF029BE8
:108B6000D4F85824C4F85834039B02926846D4F8C9
:108B70005C24C4F85C340392FCF7F2FC0D9BC4F84F
:108B80006034012084F84F842073BCE784F84E6081
:108B9000D3E72846B7E7000010B5054B0360037C18
:108BA00004461BB9406808B104F068FD204610BDBA
:108BB00060610C0010B50446FFF7EEFF204614215B
:108BC000FBF76DFA204610BD10B5034B0360044659
:108BD000FFF7E2FF204610BD80610C0010B504468F
:108BE000FFF7F2FF20463021FBF759FA204610BD6F
:108BF00010B5034B03600446FFF7E6FF204610BDA7
:108C000090610C0010B50446FFF7F2FF20464021AA
:108C1000FBF745FA204610BD10B5074B0360037CF7
:108C200004461BB9406908B104F028FD2046FFF74F
:108C3000B3FF204610BD00BF70610C0010B50446A4
:108C4000FFF7EAFF20462C21FBF729FA204610BD4A
:108C5000034A02600022C0E90122C2600274704728
:108C600060610C0038B5037C04460D460BB1002052
:108C700038BD406838B104F009FD0028F7D0C4E9D8
:108C800001050120F4E7084604F0F0FCF5E770B5B3
:108C9000C3680E461546D1184268044672B1826810
:108CA0008A420BD36068E3682A463146184409F0CB
:108CB0001DFDE2682A44E260012070BD2046FFF7F6
:108CC000D1FF0028EED1F8E743680021C16023B14D
:108CD000826812B1184609F031BD704710B5C0E97D
:108CE00001120022C260012202744361024A029B07
:108CF0000260C36110BD00BF70610C00D0E90503C4
:108D0000834204D90278022A02D01030F8E700200A
:108D10007047D0E90503984204D20378012B18BFAD
:108D2000002070470020704770B513689D68136875
:108D300003F1100414608669B4420AD29B698C68FE
:108D4000A34201DAAB42F2DDA342CCBF00200120F6
:108D500000E0002070BD73B501F110030446164613
:108D6000019300250198A36983420BD982688B681F
:108D70009A4207DAB54206D001AA20460135FFF72C
:108D8000D3FFEFE7002002B070BD2DE9F341089D4D
:108D9000984601F1100304461746019300260198F6
:108DA000A36983421AD982688B689A4216DAAE4266
:108DB0000BD1386001AA2046FFF7B6FF28B1019B0E
:108DC000C8F8003002B0BDE8F08101AA2046FFF7E4
:108DD000ABFF20460136FFF7A7FFE0E70020F1E7F1
:108DE000F0B5013B0024D1E90176F61BA64208DD6F
:108DF000A34206DD45683D442D5D02F8015B013468
:108E0000F1E700231370F0BD1FB5144610236A4626
:108E1000FFF7E6FF04492246684604F047FC431E7C
:108E20005842584104B010BD71500C001FB5144693
:108E300010236A46FFF7D4FF684600210AF0AEFB14
:108E4000012084ED000A04B010BD10B5044600688E
:108E50000B4628B107F047F8E3680133E36010BD23
:108E600060680028F8D0D4E90221013A8A4288BF1C
:108E70004354F1E703467F2B37B50846D9B204D8EF
:108E800003B0BDE83040FFF7E0BF01F03F01B3F5AC
:108E9000006FC3F3871541F0800407D245F0C0018D
:108EA0000190FFF7D2FF01982146E9E71B0B43F041
:108EB000E0010190FFF7C9FF05F03F01019841F083
:108EC0008001EEE72DE9FF4700244E68DFF8CCA0D3
:108ED00080460F461546A146B868B0425ADDD8F81C
:108EE0000430995D9A19002C4BD0752905D86D294D
:108EF00007D862291ED066291ED02846FFF7A5FF95
:108F00003DE0A1F16E04072CF7D80FF2080C5CF8D5
:108F100024F000BF3D8F0B00FB8E0B00FB8E0B007F
:108F2000FB8E0B00418F0B00FB8E0B00458F0B005F
:108F3000498F0B000821E0E70C21DEE70A21DCE77E
:108F40000D21DAE70921D8E7311D884217DD02A992
:108F500004333344084612F8014F01F8014B9A429A
:108F6000F9D101AA51468DF80C9004F09FFB01281D
:108F700005D1BDF804002946FFF77CFF0536002423
:108F800004E05C2904D02846FFF75FFF0136A3E721
:108F90000124FBE7012004B0BDE8F0875D6A0C0006
:108FA0007FB50C4606460C491046154606F061FF93
:108FB000D4E90131C91A0131284606F0CFFE002359
:108FC0006A4621463046CDE9013300950393FFF709
:108FD00079FF04B070BD00BFBC6A0C002DE9F043FE
:108FE00089B00546884604A812491646994606F0F7
:108FF000E2FE002700974B4603AA41462846FFF7AA
:10900000C4FE044670B1039904AA2846FFF7C8FFBE
:10901000044608B90137EDE7314604A806F091FF90
:109020000028F7D004A806F07BFE204609B0BDE872
:10903000F08300BFBC6A0C0000230122C3604361BF
:10904000028380F82A30704708B50346FFF700FE18
:10905000044A1A604FF0FF321846DA62FFF7ECFF5D
:1090600008BD00BF80610C00D0E9022310B5934217
:109070003FBF42685C1CC460D15424BF012380F808
:109080002A3010BD10B54369044643B100EB4303D9
:10909000597E09B1FFF7E8FF6369013B6361D4E9D9
:1090A0000210636888424FF000022ABF5B181A540E
:1090B00003F8012C10BD70B50446D0E90250666873
:1090C0002D1A134630440A46294604F0FFFA854219
:1090D0002DBFE368A368E360C01836BF0123E060DA
:1090E00084F82A3070BD0EB403B503AA52F8041BED
:1090F0000192FFF7E0FF02B05DF804EB03B07047A8
:109100002DE9F84304460E46174612B12221FFF717
:10911000ABFFDFF80C810025715D06EB0509002926
:1091200074D0D4E902329A4270D20B0634D501F0E1
:10913000F003E02B05F101091DD116F8092002F01A
:10914000C003802B39D105F1020916F8093003F06C
:10915000C000802831D103F03F03920143EA01337C
:1091600002F47C621A4392B241462046FFF7BBFFED
:109170004D460135D0E701F0E003C02B1DD116F8B4
:10918000093003F0C002802A17D1890101F4F86286
:1091900003F03F031A43E7E70D290AD807290CD942
:1091A000A1F10803052B08D8DFE803F0092317070E
:1091B000111D222923D05C2921D0204604E05C2106
:1091C0002046FFF751FF6221FFF74EFFD1E75C21F8
:1091D0002046FFF749FF6621F6E75C212046FFF7AE
:1091E00043FF6E21F0E75C212046FFF73DFF72212F
:1091F000EAE75C212046FFF737FF7421E4E75C21B2
:109200002046FFF731FF99F80010DDE72FB1204627
:109210002221BDE8F843FFF727BFBDE8F88300BF70
:1092200048610C00426900EB42031A7E12B1002231
:109230001A7670472C21FFF717BF73B54369019168
:109240000133082B16460FD8FFF7ECFF436901994D
:1092500000EB43045A1C01254261A576E676FFF730
:1092600003FF284602B070BD0020FBE737B5044677
:1092700010EE100A08F02AFEE56A002D02460B46A1
:1092800008DBCDE9002307492A462046FFF72BFFDC
:1092900003B030BD0449204603B0BDE83040FFF7BD
:1092A00022BF00BF4F610C0054610C0010B5044692
:1092B000FFF7CAFE054B23604FF0FF320023C4E9DD
:1092C0000D232163E363204610BD00BF90610C00B5
:1092D00070B5436B0133044621D1056B4B68436382
:1092E000EB6888681A1AA263AE683044C31A002A71
:1092F000E36305DD686889680144184409F004FAED
:10930000226B616B5268E36B0A445B1A01212046B1
:10931000C4E901232174FFF78FFE084670BD0020C9
:10932000FCE770B5436B013304460E4629D18D68C6
:10933000016B013D4563CB685A1B826388682844F2
:10934000C31A002AE36304DD48684119184409F090
:10935000DBF9226B616B5268E36B0A445B1A0125EF
:10936000C4E9012320462574FFF766FE636903F113
:109370000C02F368B3FA83F35B0904F81230284651
:1093800070BD0020FCE700002DE9F04F44684FF06D
:10939000010C4FF0FF36D0F800E0964580F0B9811F
:1093A00011F80E80B8F1000F00F0B381B8F13A0F58
:1093B00000F0988033D8B8F1220F00F0A68010D8C2
:1093C000A8F109085FFA88F8B8F1170F0DD89F4D7A
:1093D0000CFA08F818EA050F07D005680135056092
:1093E000D9E7B8F12C0F00F03381D0F80080424566
:1093F0000ED911F808505DB13A2D00F269811F2D88
:1094000000F251810A2D00F26081082D40F2568150
:10941000002B40F0628108F1FF350560A5E0B8F14E
:109420007B0F37D02ED8B8F15B0F33D0B8F15D0F7A
:10943000DBD1002BD1D04FF002094568013D03EB91
:109440000518002D55DBD8F8047001374DD0D8F839
:1094500008A0BAF1FF3F48D198F800B0CB454BD1F6
:109460000EF1010EC0F808A0C8F808E003EB051ED5
:10947000DEF80470013742D0DEF8087001373ED1C3
:109480008560AAE7B8F17D0FAFD1002BA5D04FF0D2
:109490000109D2E70134002B9FD04568099FAF42F4
:1094A0004AD905F1010EC0F804E003EB051ECEE930
:1094B00001664FEA051A0025CEF80C5085686F1C2E
:1094C0001FBF03EB0519D9F80C500135C9F80C5032
:1094D000B8F17B0F0CBF0125022503F80A5005687F
:1094E000CEF804504568013DCAE7013DA8F11008D7
:1094F000A7E701357FF471AF6FF001041EE0013D75
:109500006F1CAEF1100EB3D167E70EF10109C0F880
:109510000090D0F80080424540F2938011F8085046
:10952000002D00F08E80222D30D1F3B14568099FC7
:10953000AF4206D8C0F800E04FF0FF342046BDE847
:10954000F08F05F1010E4FEA051803EB0515C0F881
:1095500004E0C5E901660027EF60D0F800E04FF0B5
:10956000030A03F808A0C5E9019E85686F1C04F191
:1095700001043FF432AF002B3FF42FAF03EB051E85
:10958000DEF80C500135CEF80C5026E75C2D11D1D9
:1095900008F10105AA420DD905604D5D752D2BD846
:1095A0006D2D0BD8662D27D85B2D1DD8222D01D00F
:1095B0002F2D21D1056801350560AAE76E3D072DE5
:1095C0001AD801A757F825F0B5950B00F9950B00AF
:1095D000F9950B00F9950B00B5950B00F9950B006B
:1095E000B5950B00FF950B005C3DEDB20CFA05F54F
:1095F00040F241473D42DDD1C0F800E07CE708F190
:10960000020505604FF0040AD0F80080424503D8F7
:109610000568013D0560CDE711F80850002DF7D031
:10962000A5F1300BBBF1090F04D925F02005413D10
:10963000052DE1D808F10105BAF1010A0560E3D171
:10964000E6E7C0F800E06FF0020477E7130080005F
:10965000002B3FF4C2AE85686F1C3FF4BEAE2D01F7
:109660005D5D013D012D7FF6B8AE456805F1FF381F
:1096700003EB051EB8F1000FFFF6AFAE1EF8105C4D
:10968000013D012D0AD85EF80C5C013506D05EF86C
:10969000085C013502D1C0F808809EE608F1FF3869
:1096A000AEF1100EE6E7A5F12009244F5FFA89F923
:1096B0000CFA09F919EA070F7FF4AAAE203D5E2DD6
:1096C0009AD808F1010505608FE60D2DF6D19FE6C9
:1096D00005F0DF09B9F15D0FF8E74568099FAF4272
:1096E0007FF628AF05F101084FEA051903EB0515D0
:1096F000C0F80480C5E901660027EF60D0F800805B
:109700004FF0040A03F809A0C5E901E80568013D26
:1097100083E6002B3FF412AF4268511E03EB0213A5
:109720000029FFF60BAF53F80C2C013203D053F88D
:10973000082C013287D00139103BF1E701100004F9
:10974000F7B5C268044612B9002003B0F0BD436902
:1097500000F12006ABB10021C0E908114FF0FF3144
:109760008162C169009141683046FFF70DFE431CDC
:1097700028D1257C002DE7D1606903F07FFF65616A
:10978000E56100254FF0FF37C4E90855E2686168DC
:10979000A76200952B463046FFF7F6FD0028D3DB85
:1097A000E06117D0000103F061FFE26960610346E8
:1097B0000092C4E90855E2686168A7623046FFF785
:1097C000E3FD01E00028BFDB636903EB0010A0614B
:1097D0000120BAE76369A361FAE738B5436B5A1C05
:1097E000044618D0826B002A08DD016BE5684868E2
:1097F000E16B2B440144184408F086FFD4E90C23A4
:10980000A16B0B44E1680B44D360206BFFF798FF1A
:109810004FF0FF33636338BD7047704710B50821C0
:109820000446FAF73CFC204610BD10B51021044652
:10983000FAF735FC204610BD10B5054B044640F83C
:109840001C3B06F06DFA201D06F06AFA204610BD9A
:1098500004620C0010B50446FFF7EEFF20465821C5
:10986000FAF71DFC204610BD10B5044B044640F825
:10987000043BFFF7E1FF204610BD00BFD4610C00A0
:1098800010B50446FFF7F0FF20466021FAF707FC09
:10989000204610BD20F00203012B03D0431F584285
:1098A000584170471846704791F90430037191F997
:1098B0000530437191F90630837191F90730C37116
:1098C000704738B504460D460430043106F0AFFA4F
:1098D00005F1140104F11400FFF7E6FF05F11C0186
:1098E00004F11C0006F0A3FA05F12C0104F12C0090
:1098F000FFF7DAFF95F9383084F8383095F93930C8
:1099000084F8393095F93A3084F83A3095F93B309B
:1099100084F83B3005F13C0104F13C00FFF7C4FF43
:1099200095F9483084F8483095F9493084F8493041
:1099300095F94A3084F84A3095F94B3084F84B3029
:1099400005F14C0104F14C00FFF7AEFF95F85430DF
:1099500084F8543038BD0B6803604B68436013B122
:109960005A6801325A607047024A02604A6842608F
:10997000704700BFE4610C004A69036862F3160394
:1099800003600B695A1C438862F3CA134380CA6898
:10999000C3F3072362F3C703C3707047024A026030
:1099A00000224260704700BFE4610C0030B5002324
:1099B00087B0838083710D4605AB0093134904463D
:1099C00004AB03AA284603F071FE032807D1039BCA
:1099D0002371049B6371059BA37107B030BD0C49D3
:1099E00004AB03AA284603F061FE022804D1039BBE
:1099F0002371049B6371F0E7064903AA284603F02C
:109A000055FE012804BF039B2371E6E798610C0013
:109A10009B610C0071500C0090F9042090F9053006
:109A200090F90610002AB8BF0848C3EB03134FEAA9
:109A30008303BDBF00FB0230401840424FF4616019
:109A4000A4BF00FB02304018704700BFF0F1FFFFD9
:109A500008B590F854304BB190F93B3043B92C30F5
:109A6000FFF7DAFFB0FA80F0400908BD0120FCE7FB
:109A70000020FAE790F9073043B990F904308B6081
:109A800090F905304B6090F906300B60704790F903
:109A9000073030B5B3B990F904508C682C44D1E943
:109AA00000328C6090F90540002DB5BF121B1219D1
:109AB0004A604A60B5BF90F9062090F906209B1ACB
:109AC0009B180B6030BD000008B5054A02600022FB
:109AD000034642600830FFF761FF184608BD00BF2B
