:02000002B0004C
:1040000000400B00EC570C00000006000D000502FC
:084010000401A60F00000000EE
:04401800A0320C00C6
:1040200009480A49884208B505D0094A824202D0A7
:10403000121A0CF02DFF0748074A0021121A0CF043
:104040004FFF014808BD00BF8CD50320D8540C0099
:1040500074D8032078D80320F4E7032070B5074E06
:10406000074C0BF0EFFFA41BA4080025AC4200D1C5
:1040700070BD56F8043B98470135F7E764540C00CF
:10408000A8540C0001F088BC08B501F08DFDBDE816
:1040900008400BF08FBF08F051BF08F04FBF08F089
:1040A00055BF000008B5034A03490C2008F0E2FDA3
:1040B000FEE700BF15C80B00B4320C000078B0FA60
:1040C00080F040097047012303707047704710B5B6
:1040D00004210446FFF7E3FF204610BD10B5034B53
:1040E0000360044604F0C6FA204610BDA8380C0050
:1040F00010B50446FFF7F2FF204640F24C71FFF77F
:10410000CEFF204610BD37B51D4601AB044604F076
:1041100093FC20B101992A46204604F0A3FB03B08A
:1041200030BD37B51D4601AB044604F085FC20B117
:1041300001992A46204604F061FC03B030BD0EB45C
:1041400000B58CB00DAA4FF0200C52F8041B03925E
:10415000CDE900120023016804AA1E20CDE904C3A2
:1041600008F098FD0CB05DF804EB03B07047000058
:1041700010B5064C236833B90420FFF78CFF08B153
:10418000034B03602060206810BD00BF7CD8032073
:10419000B8380C007047000010B5064CC0B00DF1E7
:1041A000030201A9204607F03FFB0028F7D140B0E9
:1041B00010BD00BFFCD80320014807F022BB00BFA0
:1041C000FCD80320134B10B51C88002120460BF0AF
:1041D000D2FF0A2008F032FF012120460BF0CBFF6E
:1041E0000A2008F02BFF0C4807F0A9F8044628B96C
:1041F0000A490B48FFF7A3FF204610BD9FED090AAF
:10420000094807F095FB08480022172107F00AFD2E
:10421000F2E700BF58420C0078E10320C9320C00DD
:1042200058E6032000C06444FCD8032010B50C46B7
:1042300086B0FFF7C7FF74B302F06CF8002102F0FC
:1042400003FA02A808F0E2FD029A30493048FFF76D
:1042500076FF02A80BF0CCF902F01CF9014602A887
:1042600002F03EF90299019108460CF004FF019911
:104270000246284804F039FA02A80BF0B9F925489B
:1042800004F08CFF00283BD023492148FFF757FF5B
:10429000012006B010BD02F03DF802F067F9D8B178
:1042A00002F038F802F062F90A2815D802F032F864
:1042B00002F05CF90146194806F06DFB174806F05C
:1042C00050FB019002A808F0A1FDDDE9012314498B
:1042D0000F48FFF734FFBCE702F01CF80B2102F097
:1042E000B3F90B210D4806F056FB0C4806F039FBDC
:1042F000019002A808F08AFDDDE901230949E7E7FA
:1043000002F0C8F802F004F90749BEE7D5320C0004
:1043100058E603202CDA03208D330C007CE10320C7
:104320000F330C0046330C00A1330C0038B5244C7D
:1043300002F028F8B4F8031049BA89B202F056FA2C
:1043400002F020F8B4F8051049BA89B202F054FA24
:1043500002F018F8E17902F0D7F902F013F8217AA7
:1043600002F0AEF902F00EF80546607A0CF05EF944
:1043700041EC100B284602F04BF802F003F8A17A4A
:1043800002F0A4F901F0FEFFE17A02F0A5F901F0D4
:10439000F9FF217B02F0A6F901F0F4FF617B02F046
:1043A000A7F901F0EFFF0446064806F072FB81B260
:1043B000204602F015FA044B04221A70012038BD81
:1043C00080D80320FCD8032078D8032010B501F052
:1043D000D9FF0E4B997802F091F901F0D3FF044612
:1043E0000BF0B9FC0246C317204602F05FFA01F059
:1043F000C9FF0446064806F04CFB81B2204602F095
:10440000EFF9044B06221A70012010BD80D803205A
:10441000FCD8032078D8032030B50A2A87B0044698
:10442000154605D918490BF02EF9204607B030BDC6
:10443000164902A80BF027F9154804F098F9154A17
:10444000014601AB124804F0F7FA019910486A1EC0
:1044500004F0AFF9014638B90B4920460BF013F9C7
:1044600002A80BF0C5F8E0E709480B4A02ABFFF7DA
:1044700058FE002102A80BF0CCF90028ECD102A9CB
:1044800020460BF031F9EBE7C9330C00804E0C00ED
:104490002CDA0320CE330C00D4330C000A2913B5D8
:1044A0000C4603DD01F06EFF02F0ABF8104804F09B
:1044B0005EF9104A014601AB0D4804F0BDFA0199BE
:1044C0000B48621E04F075F9014648B90A490B48C9
:1044D000FFF735FE01F056FF02F093F802B010BD71
:1044E0000348074A6B46FFF70EFE9DF80000F5E70C
:1044F0002CDA0320CE330C00D8330C0058E603200E
:1045000004340C000A2913B50C4613DC0F4804F0E0
:104510002EF90F4A014601AB0C4804F08DFA0199BF
:104520000A48621E04F045F9014628B909490A48BB
:10453000FFF705FEFF2006E00448084A6B46FFF738
:10454000E2FD9DF8000002B010BD00BF2CDA032090
:10455000CE330C0009340C0058E6032037340C002D
:104560002DE9F743074601F0D5FE02F0EAF80446CC
:104570001F48DFF87C80DFF8949004F0F8F801AB76
:1045800001461C4A1A4804F057FA3C236343DE17DD
:10459000DC187641002501992A46404604F009F9C5
:1045A000014680B16B464A464046FFF7ACFD0BF032
:1045B000D2FB009BC31ADA17A34272EB060314DB8B
:1045C00001350A2DE7D10C4A00240C490C48FFF7AD
:1045D000B6FD34B90A480B49FFF7B1FD3846FFF77D
:1045E000F1FD204603B0BDE8F083074A0124ECE763
:1045F0002CDA0320CE330C003C340C004B340C007E
:1046000058E6032064340C003E340C0046340C00A1
:1046100038B5046805467CB16368013B63605BB9EB
:10462000236820469B689847A368013BA3601BB999
:1046300023682046DB689847284638BDF0B5A9B006
:10464000064601F067FE02F077F84D4C000A207034
:1046500001F060FE02F070F860700BF07CFB001659
:10466000A0700BF078FB0014E0700BF074FB0012EC
:1046700020710BF070FB607101F04CFE02F061F8EC
:10468000000AA07101F046FE02F05BF80025E0711F
:10469000257201F077FE01F08CFF607201F072FE6E
:1046A00001F087FF01463046FFF7F8FE354BA07258
:1046B0001F88012138460BF05EFD01F063FE01F01A
:1046C0007DFF0222034600922F480B22214606F06E
:1046D000FBFB0646002842D101F054FE054601F0DE
:1046E00051FE01F066FF0146284601F0E3FF314626
:1046F00038460BF040FD01F045FE01F05FFFA17A66
:10470000224A234C0590002918BF144601F03AFEB6
:1047100001F072FF05461F4806F0BBF9059B1E4AD3
:104720000094CDE90150802108A808F02FFC1B4817
:1047300008A9FFF704FD08F061FB0546E8B1184B36
:1047400018491B788DF8003006A83C2308AA08F009
:1047500041FF07A8FFF75CFF284629B0F0BD01F034
:1047600011FE01F02BFF104902460C48FFF7E7FC51
:10477000294638460BF0FFFCEEE70125ECE700BFC9
:1047800080D8032050420C0078E1032098340C00BC
:1047900094340C00FCD803209F340C0058E603200E
:1047A00079D80320EE340C00F5340C002DE9F047E5
:1047B000B8B00F460EA84149414DDFF82C81DFF813
:1047C0002C910AF060FF3E4803F0D1FF3D4A0146BC
:1047D0000DAB3B4804F030F900260D9932462846CF
:1047E00003F0E7FF0446002862D001460EAB4246C4
:1047F0002846FFF796FC08AB4A4621462846FFF7B5
:1048000082FC314A09AB21462846FFF77CFC2F4A3F
:104810000AAB21462846FFF776FC2D4A12AB21460B
:10482000284604F009F920B112990BAA284604F091
:104830002BF82146274A0CAB2846FFF764FC099A5F
:10484000089CDDF838A0D31712A80BF07FF90C9B59
:104850000B9806930BF00CFF0A9B0293129B1E4AC7
:10486000CDE90401CDE900A38821234616A808F06C
:104870008DFB12A80AF0BCFE184816A9FFF75FFCD2
:1048800008F0BCFA88B187B1154B16491B788DF832
:10489000003016AA3C2312A808F09CFE13A8FFF7CC
:1048A000B7FE4FF47A7008F0C9FB01360A2E94D196
:1048B0000EA80AF09DFE38B0BDE8F087804E0C00CF
:1048C0002CDA0320CE330C0046340C0004340C00E8
:1048D00021350C0037340C0026350C0058E6032037
:1048E00079D803207D350C00D4330C001C350C0026
:1048F00037B504461546019104F0C2F90199012229
:10490000204604F02BF920463A2104F0DBF8044954
:104910002A46204603B0BDE8304004F012B900BF7B
:10492000AF350C0013B5114B114C01221A70322314
:10493000009304F12C0104F22C434FF480622046D2
:1049400003F0FAFE0B4B23600B4A0C4C0C490D4B49
:1049500012780978204606F0ADFF0B480022214668
:1049600002B0BDE8104006F0A5BA00BF79D8032018
:104970002CDA0320A8380C0056420C00FCD8032087
:1049800054420C00ECE4032078E103202DE9F047C9
:1049900096B00E4602A85649DFF85881DFF86CA1A0
:1049A0000AF071FE534803F0E2FE534A014601ABA0
:1049B000504804F041F8002501992A46404603F08A
:1049C000F8FE6C1C0746A146002870D14B494C48A4
:1049D0002A46FFF7B4FB474906A804F095F9334689
:1049E000224648494648FFF7AAFB424803F0B4FE76
:1049F000014606A804F0C3F97D227B2106A804F035
:104A00004AF92246404906A8FFF772FF06A804F0BB
:104A100037F9012206A83D4904F0A0F806A83A217A
:104A200004F050F83146012206A804F097F80BF084
:104A300092F9054606A804F023F9012206A8344994
:104A400004F08CF806A83A2104F03CF82A4606A89F
:104A5000304904F076F83049032206A8FFF748FFF2
:104A600006A804F00DF9012206A82C4904F076F8F6
:104A70003A2106A804F026F89FED290A06A804F0BA
:104A800023F90022274906A8FFF732FF06A804F001
:104A900027F806A804F0CFFB01F0FCFCD8F80410BE
:104AA00001F030FD06A8E4B203F0D0FD12E00146AB
:104AB00002AB40465246FFF734FB314602A80AF0EB
:104AC000A8FE70B1104A0B486B463946FFF71BFB36
:104AD0009DF8004002A80AF08BFD204616B0BDE804
:104AE000F087AC1C4D460A2D7FF466AF73E700BF1C
:104AF000804E0C002CDA0320CE330C0086350C00DF
:104B000058E60320B2350C001C350C00D4330C00E1
:104B100046340C0078460C0004340C0021350C009F
:104B20000000000037340C0070B52DED028B0A290F
:104B300094B00E46B0EE408A55DC2C4D284603F06A
:104B400016FE2B4A014602AB284603F075FF029978
:104B5000721E284603F02DFE0446002843D001AB08
:104B60000146244A2846FFF7CEFA019B9E4236D1E1
:104B700003AB214A2146284603F05EFF294604A8DC
:104B800004F0C2F8039904A804F0D0F80BF0E3F89D
:104B90001A49024604A803F0D4FF04A804F04BFB12
:104BA000174A03AB2146284603F046FF039904A8A1
:104BB00004F0BCF8B0EE480A04A804F085F804A894
:104BC00004F039FB01F066FC696801F09BFC04A865
:104BD00003F03CFD012014B0BDEC028B70BD09490F
:104BE0000948FFF7ACFA0020F5E700BF2CDA0320F4
:104BF000CE330C001C350C0046340C00AF350C00D5
:104C000021350C00E6350C0058E6032070B50A2962
:104C100094B00C4616463DDC1F4D284603F0A7FD18
:104C20001E4A014602AB284603F006FF621E0299A7
:104C3000284603F0BEFD044660B30146184A01ABA6
:104C40002846FFF760FA019A164917483346FFF7DE
:104C500076FA03AB124A2146284603F0EDFE2946B8
:104C600004A804F051F8039904A804F05FF8324650
:104C70000E4904A803F065FF04A804F0DCFA01F073
:104C800009FC696801F03EFC04A803F0DFFC012088
:104C900014B070BD0020FBE72CDA0320CE330C00EB
:104CA00004340C00FA350C0058E60320AF350C0034
:104CB000F0B53C4B02221A7091B03B4A09AC054654
:104CC00002F11803274610685168264603C60832C9
:104CD0009A423446F7D11378337001F053FB0446FF
:104CE00001F050FB01F065FC304E0146204601F01A
:104CF000E1FC01F047FBF17E01F006FD01F042FB13
:104D000001F057FC0A2830D901F03CFB3946044633
:104D10002846FFF73BFE0146204601F0C5FC01F0A6
:104D200031FB01F04BFC039001F02CFB01F041FC46
:104D3000039A00901E491F483B46FFF700FA01F016
:104D400021FB012101F0DAFC01F01CFB01F031FC38
:104D5000039001F017FB01F054FC0399024628462A
:104D6000FFF754FF012011B0F0BD01F00BFB01F083
:104D700020FC0446FFF7FCF9039001F003FB01F06F
:104D800018FC0399024605A8FFF746FBF37E009343
:104D90000949059B07482246FFF7D1F905A80AF003
:104DA00027FCCCE778D8032082D8032080D80320C2
:104DB0001D360C0058E6032058360C0070B50A2941
:104DC00094B00C4616463DDC1F4D284603F0CFFC40
:104DD0001E4A014602AB284603F02EFE621E0299CF
:104DE000284603F0E6FC044660B30146184A01ABCE
:104DF0002846FFF788F9019A164917483346FFF706
:104E00009EF903AB124A2146284603F015FE2946B7
:104E100004A803F079FF039904A803F087FF324642
:104E20000E4904A803F08DFE04A804F004FA01F072
:104E300031FB696801F066FB04A803F007FC012060
:104E400014B070BD0020FBE72CDA0320CE330C0039
:104E500037340C0098360C0058E60320AF350C00B0
:104E6000F0B52DED028BA9B0054601F08BFA01F0EB
:104E7000B9FB002800F0E78001F084FA01F0B7FBED
:104E8000044601F07FFA01F0ADFB08EE100A20465F
:104E90000BF0DCFB9D4B00220BF08CFAF8EE487A0D
:104EA000064617EE900A0F460BF0E2FB02460B4651
:104EB000304639460BF05EFD954B00220BF030FC7E
:104EC0000BF026FF08EE100A0AF045FF914C001681
:104ED000A0700AF040FF0014E0700AF03CFF0012DE
:104EE00020710AF038FF607101F014FA01F029FC1A
:104EF000000AA07101F00EFA01F023FCE07101F04C
:104F000041FA01F056FB01462846FFF7FBFA072855
:104F100040F09C8001F036FA01F04BFB0146284638
:104F2000FFF7BCFA064601F02DFA01F06AFB3346A2
:104F3000024679497948FFF702F901F023FA314630
:104F400001F0E2FB01F01EFA01F033FB0022014602
:104F50002846FFF733FF667201F014FA01F029FBCF
:104F6000B0EE480A01462846FFF7DEFD002873D15F
:104F700001F008FA01F01DFB694902466748FFF796
:104F8000DEF801F0FFF9012101F0B8FB01F0FAF9B8
:104F900005460AF0E0FEC3170246284601F086FCEB
:104FA0000123237201F0EEF901F0E0FCA07201F0A0
:104FB000E9F901F017FB5B4BE0721D8801212846DF
:104FC0000BF0D9F801F0DEF901F0F3FA04225149AF
:104FD000009203460C22544805F076FF0146002853
:104FE00040F0828028460BF0C6F801F0CBF901F0C2
:104FF000E0FA05904D48A57A247A05F04AFD059B14
:105000004B4A0095CDE90140802108A807F0BEFF7A
:10501000424808A9FFF793F807F0F0FE044600287D
:1050200071D0444B44491B788DF8003006A83C23CE
:1050300008AA08F0CFFA07A8FFF7EAFA204629B035
:10504000BDEC028BF0BD9FED3D8A3DE701F09AF982
:1050500001F0D7FA60727FE701F094F901F0A9FA44
:1050600001462846FFF74EFA0646B0B301F08AF92A
:10507000064601F087F901F09CFA01462846FFF741
:1050800041FA0146304601F039FB01F07BF901F0AD
:1050900090FA059001F076F901F0AEFA2849059AE8
:1050A00003461E48FFF74BF801F06CF906460AF07C
:1050B00052FE0246C317304601F0F8FB01F062F9D8
:1050C00001F09AFA207201F05DF901F072FA002203
:1050D00001462846FFF772FE64E7207201F052F99C
:1050E000314601F00BFB5DE701F04CF901F061FA8C
:1050F000144902460948FFF722F8002128460BF020
:105100003AF800249AE7012498E700BF0000F03F36
:105110000000594080D80320BD360C0058E603201B
:10512000F1360C0050420C0078E10320FCD803203B
:105130003C370C0079D80320EE340C00000000004E
:105140001D370C0086370C0073B5054601F0E2F8F8
:1051500001F0F2FA3D4C000A207001F0DBF801F09A
:10516000EBFA60700AF0F7FD0016A0700AF0F3FD8C
:105170000014E0700AF0EFFD001220710AF0EBFD60
:10518000607101F0C7F801F0DCFA000AA07101F0CB
:10519000C1F801F0D6FAE07101F0F4F8064601F02A
:1051A000F1F801F006FA01462846FFF7ABF901468F
:1051B000304601F0A3FA01F0E5F806460AF0CBFD0F
:1051C000C3170246304601F071FB01F0DBF801F035
:1051D00013FA207201F0D6F801F0EBF90022014633
:1051E0002846FFF7EBFD1A4B1D88012128460AF0DF
:1051F000C2FF01F0C7F801F0DCF906220346009275
:1052000021461448092205F05FFE044678B901F0F2
:10521000B9F801F0CEF9104902461048FEF78FFFA9
:10522000284621460AF0A7FF012002B070BD01F018
:10523000A9F801F0BEF90A4902460848FEF77FFFC7
:10524000284600210AF097FF0020EEE780D80320CF
:1052500050420C0078E10320B4370C0058E60320DC
:10526000CF370C0010B50F4C2378042B0CD02378CB
:10527000022B04D1FEF77CFFFFF7E0F950B9237849
:10528000062B09D0002006E0FEF772FFFFF7E8FDCD
:105290000028ECD0012010BDFEF76AFFBDE81040E9
:1052A000FFF752BF78D8032070B588B079238DF806
:1052B0001A300DF11F0303930DF11E03474E0293A5
:1052C0000DF11D03019307AB009345480DF11B033E
:1052D0000DF11A02314605F02BFE10B9002008B07E
:1052E00070BD9DF81A300024F454358801F012F88E
:1052F00001F022FA6DBAADB2A84214D001F042F822
:1053000001F057F9338805905BBA9BB2049301F022
:1053100001F801F011FADDE9043200903149324818
:10532000FEF70DFFDAE701F02DF89DF81B102F4C6A
:1053300001F0BAF99DF81E3003F00F03237001F05D
:1053400021F801F036F92178294B059003EB011380
:105350002848049305F09DFBDDE9043200902649BE
:105360002148FEF7ECFE2378032B28D1FEF700FF3F
:10537000FEF7DCFF0028B1D000F0CCFF01F0E6F929
:10538000C0B100F0C7FF044600F0C4FF01F0DEF931
:105390000146204601F018FA00F0BCFF002101F0A0
:1053A00019FA00F0B7FF01F0CCF9144902460E4893
:1053B000FEF7C5FEFEF7DCFEFFF754FF8FE7012B7B
:1053C00004D1FEF7D5FEFFF773FCD3E7052BD3D14D
:1053D000FEF7CEFEFEF7FAFFCCE700BF80D8032031
:1053E00078E10320F1370C0058E6032078D8032039
:1053F0008CD50320FCD803204B380C006B380C00F4
:10540000014B1A60704700BFFCD50320014B0122FD
:105410001A7070476BE4032030B585B004460898D5
:1054200060B1406850B1856845B1CDE90241CDE930
:105430000023C46801AB6A4602A9A04705B030BD8D
:1054400030B585B0006813680193D1E900458368E1
:10545000CDE902450BB90AF099FFC36801AA02A978
:10546000984705B030BD012A02D101600020704785
:10547000022A04BF0B680360F8E703681268D1E9E9
:105480000001184708B5002007F0D8FC28B107F044
:10549000B5FC80F00100C0B208BD0120FCE710B5EA
:1054A0008368044613B1032201469847204610BD85
:1054B00010B5044638B1FFF7F2FF20461021BDE8D1
:1054C0001040FEF7ECBD10BD70B5144C144D2378A0
:1054D000144E022BC2B017D10AF020FCA0B92278DA
:1054E000337805EB021200920F4A05EB03134FF4D9
:1054F000807102A807F04AFD23780C48337002A996
:10550000FEF71DFE42B070BD2278337805EB021223
:10551000009205EB0313064AE9E700BF6AE40320A3
:1055200000D6032069E40320C0380C0058E60320AD
:10553000E0380C0010B500F0EDFE01F002F9044671
:105540000AF0ECFB08B90A2010BD3C2044430AF0E5
:1055500002FCB0FBF4F303FB1400201A0928F2D973
:10556000A04228BF2046EFE72DE9F04F2DED028B3A
:10557000E7B01EAC814B2360814B6360814BA3601D
:10558000814BE360814B2361814B63614FF0000AE3
:10559000804BC4F81CA0A3610546002800F09D8044
:1055A00000F0F0FE01F023F8804600F0EBFE01F081
:1055B00019F81990FEF7DCFD2A4601461AA8FEF7F5
:1055C0002BFFDDF868B000F0DDFE01F0C9F81490A3
:1055D00000F0D8FE01F0C9F8159000F0D3FE01F0FC
:1055E00010F8169000F0CEFE00F0F2FEB0EE408A09
:1055F000F0EE608A00F0C6FE00F0EAFF54F82030BA
:10560000139300F0BFFE00F0DEFF179000F0BAFE2B
:1056100000F0E3FF189000F0B5FE00F0EDFF044647
:1056200000F0B0FE00F0C5FF054600F0ABFE01F053
:1056300092F8064600F0A6FE00F0D4FF07460AF0F6
:105640008AFB109040460BF001F8199B80461846E3
:1056500089460AF0FBFF02460B46404649460BF0DE
:1056600089F94D4B00220BF05BF80BF051FB0AF06F
:10567000FFFF189B0893179B0793139B0693169B9A
:105680000293159B0193149B444A0093CDE90E01AC
:105690005B464FF480718DED048B26A8CDE909455A
:1056A000CDE90B6707F072FC1AA809F0A1FF04F01E
:1056B000CBFC3B4B3B4A1B7812783B4913430268B7
:1056C0008DF800308DF804A014683C2326AAA0476A
:1056D00067B0BDEC028BBDE8F08F01F0C7FF1AA8E0
:1056E00007F094FB1A9B139300F014FE00F05CFF8C
:1056F000064600F047FE00F06BFEB0EE408AF0EE8A
:10570000608A00F03FFE00F063FF54F8209000F044
:1057100039FE00F058FF044600F0FCFD00F030FFB9
:10572000074600F0F7FD00F030FF80460AF013FB5B
:10573000139B1E4ACDF818904FF48071CDE9098073
:10574000CDE907478DED048BCDE90156009526A8DC
:1057500007F01CFC1AA809F04BFF04F075FC104B75
:10576000104A1B7812781249134302688DF80030F2
:105770008DF8045014683C2326AAA8E7EE380C00E4
:10578000F6380C00FA380C0003390C000B390C0009
:1057900017390C001D390C000000594029390C0044
:1057A0002CE303202DE30320EC390C00013A0C001C
:1057B0008F3A0C0038B5002383608B6804460D4691
:1057C0002BB102229847EB68E360AB68A3602046E8
:1057D00038BD00002DE9F04395B005461C9904A89A
:1057E00090461F460CAEFFF7E5FF04A908A8FFF797
:1057F000E1FF08A93046FFF7DDFF4FF00009102058
:10580000CDF84890FEF747FC0446A0B196E80300A7
:1058100001AB83E8030094E8030086E8030093E803
:1058200003000E9BE268A36084E803000F9BCDF8A1
:1058300038900F92E360244B1393244B1293002271
:1058400000234FF00009C5E90023214BC5F808905B
:1058500010201094CDE90139CDF80C90FEF71BFC17
:105860000446D8B1129BC0F8089033B1022210A9A7
:105870009847139BE360129BA360164B0393164A51
:10588000029401AB4046394607F03EFAB0B12046DB
:10589000FFF705FE10212046FEF701FC10A8FFF7D8
:1058A000FEFD3046FFF7FBFD08A8FFF7F8FD04A852
:1058B000FFF7F5FD284615B0BDE8F083029BAB600D
:1058C000C5E90087EAE700BF41540B00DD580B0033
:1058D00002000C00B1540B0019540B00012A37B51B
:1058E000044604D10B680360002003B030BD022AD7
:1058F0000CD0032AF8D10468002CF5D02046FFF71D
:10590000CEFD10212046FEF7CAFBEDE709680191A4
:105910001020FEF7C0FB054610B10199FFF74AFFC2
:105920002560E1E7164B10B501241C70154B0822C9
:105930001A700AF0B9FB00231A4619460AF0C4FB94
:105940000AF0B2FB00231A460D210AF0B5FB0E4BFC
:105950001A1D1A600D4A5A600022C3E902221A6118
:105960001C750AF081FC69220146094801F0DEFE3F
:105970000848062340F8043BBDE8104003F01CBE75
:105980002CE303202DE3032060E303201000030039
:1059900040E3032078E30320F0B500209DB006F03B
:1059A00051FF42F210750446002006F04BFF001B29
:1059B00061F10001A84271F1000307D20AF0B2FAC6
:1059C0000AF0A5FA10B907F009FAEDE70AF0AAFA09
:1059D0000AF09DFA01F0FAFC01F02CFD00F09AFCAF
:1059E00003685F4E1B685F4F984700F0CBFC03686D
:1059F0001B68984700F04EFD03681B68984701F04C
:105A000023F901F033F9082301213046738102F0B4
:105A100089FB7C21304601F087FF534B0693534BA3
:105A2000099306AD524B08934FF48022002302A83D
:105A30000095FFF7CFFE2846FFF731FD04F004FB89
:105A400004F008FDFEF794FB0121FEF7EFFB03F0E5
:105A500093FF48490446284603F060FE07A904F175
:105A6000080009F04CFE0C9BE3610DA904F1200035
:105A700009F045FE129B6363149BE363169B63640A
:105A8000189BE3641A9B63659DF86C3084F858306A
:105A9000284603F0FFFB0AF05EF9C317C7E91803B5
:105AA000384603F0E1FF0AF039F9334C002846D0BC
:105AB0003946324A284603F0C1FE01231A46102116
:105AC0003046069F01F0B1FF2D492E4B3A46002883
:105AD00018BF0B462C482D49FEF731FB284609F02C
:105AE00087FD2B4B1E8830460AF05EFB054668BBDF
:105AF00028492548FEF723FB00F00CFC012100F0AB
:105B0000AFFD254B1F88012138460AF034FB4FF4C6
:105B1000FA6007F093FA294638460AF02CFB052371
:105B2000237000224FF0FF331C490092304608F0EA
:105B300005F823780BB9022323701DB0F0BD184976
:105B40001148FEF7FCFA05232370CAE715490E48F1
:105B5000FEF7F5FA00F0DEFB002100F081FDE0E742
:105B600040E3032078E3032001540B007B540B0037
:105B700067540B00B13A0C006AE40320D83A0C00D9
:105B8000A73A0C00AA3A0C0058E60320E33A0C00AE
:105B900052420C00523B0C0050420C000D540B00C2
:105BA000143B0C00763B0C002DE9F043874D2B781D
:105BB000013B91B0062B1DD8DFE813F0B6020700B9
:105BC0004500260102027102E401814B1B78022B81
:105BD00001D0FFF779FC7F4C23781BB100232370A1
:105BE000042306E000F096FB00F0C5FC0128F5D088
:105BF00003232B70784802F043FA04F025FA04F0EE
:105C000015F900F087FB00F095FB00F0BBFB00F0FE
:105C1000D4FB00F03FFC00F05AFCFEF7A9FAFEF7B7
:105C2000B9FA6E4B1B68002BC0F2B2826C496D480A
:105C3000FEF785FA4FF4FA6007F000FA11B0BDE8FC
:105C4000F04309F094BE624B1B78032B01D0FFF7A1
:105C50003BFC00216048644F644C01F065FEFFF797
:105C600069FC80460AF077F800EB0802D317604918
:105C7000009708A80AF010F8089B029309F0DAFED2
:105C8000029B5C49009042465648FEF758FA08A825
:105C900009F0AEFC237D002B50D002232372564B1B
:105CA000B3F800902368DB68F3B19A88012A06D024
:105CB0009B68F9E79B68BBB19A88012AFAD19A8957
:105CC0004A45F7D100229A73237D002B36D02368F2
:105CD0004FF47A70DB6800FB08F8DBB19A88042A7D
:105CE00000F051829B68F8E7444910200AF044FB19
:105CF0000646002800F04A82102200210BF0F0F83E
:105D00003F4B33600123B3802369B360A6F80C9046
:105D10002661D9E7394910200AF02EFB06460028F3
:105D200000F03482102200210BF0DAF8344B33609B
:105D30000423B38023692661C6E902382B4905A8EC
:105D400009F018FE4FF0FF31234801F0EDFD00206F
:105D500006F078FD42F210760446002006F072FD4F
:105D6000001B61F10001B04271F1000307D20AF09B
:105D7000D9F80AF0CCF810B907F030F8EDE70AF0DE
:105D8000D1F80AF0C4F802232B70124B01221A70CA
:105D900009F0E1FF16490097C317024608A809F069
:105DA0007BFF089A029209F045FE029A15490346C4
:105DB0000C48FEF7C4F908A809F01AFC0598002859
:105DC0003FF418AF07F0C2F814E700BF6AE40320FD
:105DD00069E4032068E4032040E30320FCD50320AA
:105DE000AD3C0C0058E60320A03B0C0060E3032010
:105DF000ACE60320A33B0C0052420C0004500C0004
:105E000010000300E33B0C00B74BB84F1B78042B8A
:105E100062D0072B02D006F005FD3860FFF754FB77
:105E2000FEF7A6F9FEF7B8F909F095FFB04CC317D5
:105E3000C4E91803204603F017FE04F1680105A821
:105E400003F0A4FC9DF9186000F064FA00F0A2FBD6
:105E50008642C0F28F8004F1680108A803F096FC26
:105E60009DF9246000F056FA00F099FB864208A8DC
:105E7000CCBF0026012603F0FDF905A803F0FAF9CE
:105E8000002E79D000F07EFA012100F034FE00F0FF
:105E900079FA00F06BFD974B974A9849002808BFA4
:105EA0001A4608A8039203F071FC9DF9243002936E
:105EB00000F030FA00F06EFB044600F02BFA00F020
:105EC0006EFBDDE90232CDE900408D498D48FEF7D9
:105ED00036F908A803F0CEF9FEF74AF9FFF7E4F91E
:105EE000D8B100F04FFA00F087FB029000F04AFAB8
:105EF00000F03CFD029A844903468248FEF71FF9F0
:105F000000F040FA00F078FB012806D000F03AFAE1
:105F100000F02CFD08B107232B7006F083FC3B68D2
:105F2000C01A7A4B98427FF665AEFEF721F9FEF76C
:105F300017FBFEF71DF9FEF73FF9FEF719F90021EF
:105F4000FEF734FC00F0A6FA03680121DB689847ED
:105F500009F012FF044600F0DDF900F06AFC09F0D8
:105F6000D1FD844204D000F00DFA00F0FFFC38B9F6
:105F700002233EE6002680E700F004FA314684E77B
:105F8000052336E6584B1B78072B01D0FFF79CFA08
:105F900000F0F8F900F00DFBFFF7E6FA00F0F2F977
:105FA000002100F0ABFB00F0B5F9044600F0B2F9B7
:105FB00000F0EBFA0130C1B2204600F05DFB0FE6C5
:105FC000494B534C1B78052B27D0FFF77DFA00F087
:105FD000A1F900F02EFC09F09DFD4849064608A8ED
:105FE00003F0F1FB9DF82330B6EBD30F07D000F0A0
:105FF000C9F900F061FC47494248FEF7A0F800F0FB
:1060000089F900F0B3FAFFF7AFFA06F0F7FE08B926
:1060100006F0ECFE06F006FC206006F0EFFE38B35A
:1060200000F078F9064609F096FE0246C31730469E
:1060300000F02DFC00F06EF9064606F0F3FB216837
:10604000411A4FF47A70B1FBF0F1304689B200F09A
:10605000B5FB06F0D3FEC8B106F0D0FE10B10020AB
:1060600006F0E4FEFFF70EFA50B906F0B7FEF9E7C6
:1060700006F0D8FB2368C01A274B9842D0D8B9E560
:10608000FFF700FA254908A807F052F800F042F996
:1060900000F071FA01283FF4A3AD0623A9E5124BE5
:1060A0001F4C1B78062B04D0FFF70EFA06F0BAFB44
:1060B000206006F0B7FB2368C01A1A4B98427FF69F
:1060C00099AD03F0C1FF90F8B330002B3FF492ADCF
:1060D00000F020F900F04FFA00287FF449AF00F0FB
:1060E000B3FD01F0DBF843E769E4032034E3032068
:1060F00078E30320993B0C00943B0C00E0E3032081
:10610000043C0C0058E603204D3C0C00F049020012
:1061100038E30320773C0C00C027090014E6032075
:106120003CE30320905F01001B4C1C4E2378BFF31F
:106130005B8F13F0010F09D12046FDF7BFFF28B197
:1061400006F070FB30602046FDF7BDFF144B2A7847
:106150001B789A4201D0FFF7B7F906F063FB33686A
:10616000C01A47F2305398427FF644AD0D490E48AD
:10617000FDF7E5FF4FF4FA6006F060FF1E210B48C3
:1061800001F02CFD36E5C3F80C80D7E52675D5E582
:1061900011B0BDE8F08300BF28E3032030E3032003
:1061A00069E40320963C0C0058E6032040E30320FA
:1061B00010B5034B0360044603F004FD204610BDF8
:1061C0005C3D0C0010B50446FFF7F2FF204610219D
:1061D000FDF765FF204610BD10B5036804460BB9F6
:1061E00006F0D0FA2068BDE8104006F0DBBA38B5FA
:1061F00004460430FFF7F0FF206A616A0368DD6837
:10620000D4E90223A8476068BDE8384006F0D2BA56
:1062100038B504460430FFF7DFFF206A616A03687F
:106220009D68D4E90223A847A2682368D1885B69E6
:106230002046984718B9236820469B6998476068AC
:1062400006F0B8FA012038BD10B5044B03600446CF
:10625000406808B106F09EFA204610BDF84C0C00CC
:1062600010B5034B03600446FFF7EEFF204610BD58
:10627000A43D0C0010B50446FFF7F2FF204668214C
:10628000FDF70DFF204610BD10B5034B036004461B
:10629000FFF7DAFF204610BDD03D0C0010B50446D4
:1062A000FFF7F2FF20467021FDF7F9FE204610BDF2
:1062B00010B5034B03600446FFF7C6FF204610BD30
:1062C000783D0C0010B50446FFF7F2FF20464FF46E
:1062D0008761FDF7E4FE204610BD000000F12801B3
:1062E000816009494FF0400CC0E903C1012181825E
:1062F0004FF47A71C16105490022C0E90812426079
:106300008261034A02607047769EA92078E40320E8
:10631000A43D0C0010B5064C23683BB96820FDF77E
:10632000BAFE034608B1FFF7D9FF2360206810BD0D
:1063300070E4032010B5FFF7EDFF0368BDE81040DF
:10634000DB68012118470000002200F128014260AB
:1063500082614FF47A728160C2610749074A026222
:106360004FF0480C3222C0E903C142620121044AC5
:1063700081820260704700BF749EA92078E40320E8
:10638000D03D0C0010B5064C23683BB97020FDF7DA
:1063900082FE034608B1FFF7D7FF2360206810BDD7
:1063A00074E4032010B5006A03F022FCFFF7EAFF53
:1063B0000368BDE810405B68184710B5FFF7E2FFBF
:1063C0000368BDE81040DB680021184700000000AA
:1063D00010B504462DED028B0430FFF7FDFEE36897
:1063E000083B172B0CD9A36893ED068B606806F069
:1063F000E1F9B0EE480AF0EE680ABDEC028B10BD80
:106400009FED018BF2E700BF0000000000000000DC
:10641000F8B50446043057EC106BFFF7DDFEE36877
:10642000083B172B12D9A5683046D5E90623394613
:106430000AF0DEFB50B9C5E906672046A56806F0FC
:10644000B1F8A860236820461B6998476068BDE8DA
:10645000F84006F0AFB90000002200F128014260C8
:1064600082614FF47A728160C2610749074A026211
:106470004FF4826C9622C0E903C142620221044AB1
:1064800081820260704700BF609EA92078E40320EB
:10649000783D0C0010B5074C236843B94FF4876072
:1064A000FDF7F9FD034608B1FFF7D6FF236020682A
:1064B00010BD00BF6CE4032010B5006A03F098FB28
:1064C000FFF7E8FF0368BDE810405B68184710B5A8
:1064D000FFF7E0FF0368BDE81040DB6800211847C4
:1064E00038B504460D46064909F0CDF823464FF469
:1064F00080621021284605F0FCFF204638BD00BF11
:10650000804E0C000B464FF48062102106F062B8FA
:106510001FB50A49684609F0B6F8FFF7BBFF0099B6
:10652000FFF7F0FF009A06490648FDF708FE6846A7
:1065300009F05EF805B05DF804FB00BFC93C0C0033
:10654000D63C0C0058E6032038B5044604300D460E
:10655000FFF742FEE3686068013BAB4226BFA368D9
:106560005D5D002506F026F9284638BD08B51021E6
:10657000FFF7EAFF08BD08B51421FFF7E5FF08BDE6
:1065800008B51521FFF7E0FF08BD08B51621FFF794
:10659000DBFF08BD08B53821FFF7D6FF08BD08B5F9
:1065A0003921FFF7D1FF08BD08B53B21FFF7CCFF2C
:1065B00008BD08B51021FFF7C7FF08BD08B51121B8
:1065C000FFF7C2FF08BD08B51221FFF7BDFF08BDE8
:1065D00008B52021FFF7B8FF08BD08B52121FFF756
:1065E000B3FF08BD08B52421FFF7AEFF08BD08B50D
:1065F0002521FFF7A9FF08BD08B53421FFF7A4FF47
:1066000008BD08B54121FFF79FFF08BD70B50446DE
:1066100004300D461646FFF7DFFDE368013BAB4251
:106620000DD3A3685A5DB24209D05E552046A568D5
:1066300005F0B8FFA860236820461B69984760688A
:10664000BDE8704006F0B6B808B50A461021FFF75D
:10665000DDFF08BD08B50A461121FFF7D7FF08BDC9
:1066600008B50A461421FFF7D1FF08BD08B50A4650
:106670001521FFF7CBFF08BD08B50A461621FFF725
:10668000C5FF08BD08B50A462E21FFF7BFFF08BDAC
:1066900008B50A463821FFF7B9FF08BD08B50A4614
:1066A0003921FFF7B3FF08BD08B50A461021FFF7EF
:1066B000ADFF08BD08B50A461121FFF7A7FF08BDC9
:1066C00008B50A461221FFF7A1FF08BD08B50A4622
:1066D0002021FFF79BFF08BD08B50A462121FFF7DF
:1066E00095FF08BD08B50A462421FFF78FFF08BDB6
:1066F00008B50A462521FFF789FF08BD08B50A46F7
:106700003421FFF783FF08BD08B50A464121FFF792
:106710007DFF08BD38B5044604300D46FFF75CFD2B
:10672000E3686068023BAB4226BFA3685D5B00255F
:1067300006F040F8284638BD08B51221FFF7EAFFF9
:1067400008BD08B52A21FFF7E5FF08BD08B52C21D3
:10675000FFF7E0FF08BD08B52221FFF7DBFF08BD0A
:1067600008B53021FFF7D6FF08BD08B53221FFF785
:10677000D1FF08BD70B5044604300D461646FFF73C
:106780002BFDE368023BAB420DD3A3685A5BB242D8
:1067900009D05E532046A56805F004FFA860236871
:1067A00020461B6998476068BDE8704006F002B853
:1067B00008B50A461221FFF7DDFF08BD08B50A46F5
:1067C0002821FFF7D7FF08BD08B50A462A21FFF7A1
:1067D000D1FF08BD08B50A462C21FFF7CBFF08BD45
:1067E00008B50A462221FFF7C5FF08BD08B50A46CD
:1067F0003021FFF7BFFF08BD08B50A463221FFF779
:10680000B9FF08BDF8B5044604300D46FFF7E4FCB7
:10681000E3686068083BAB4223BFA1684919D1E92E
:106820000067002638BF002705F0C4FF3046394610
:10683000F8BD08B52021FFF7E5FF08BDF8B504460F
:1068400004300D461E461746FFF7C6FCE368083BBA
:10685000AB4212D3A3685A1958595168B14208BFC4
:10686000B8420AD05F5120465660A56805F09AFEEE
:10687000A860236820461B6998476068BDE8F84017
:1068800005F098BF08B51821FFF7D8FF08BD08B577
:106890002021FFF7D3FF08BD08B53021FFF7CEFF59
:1068A00008BD08B52821FFF7C9FF08BD08B5382184
:1068B000FFF7C4FF08BD000010B521492148FDF7CE
:1068C0003EFCFFF75FFD0B21FFF7EEFEFFF75AFDE1
:1068D0000021FFF7EFFEFFF755FD0021FFF70EFF48
:1068E000FFF750FD00220023FFF7E0FFFFF74AFD0E
:1068F0000021FFF781FFFFF745FD0021FFF776FF3D
:10690000FFF740FD0021FFF7EDFEFFF73BFD002103
:10691000FFF7EEFEFFF736FD044609F01CFA0246CB
:10692000C3172046FFF7BDFFFFF7F4FC0021FFF778
:106930009DFEFFF7EFFCBDE810400021FFF79CBE75
:10694000F43C0C0058E6032038B5044604300D46EC
:10695000FFF742FCE3686068013BAB4226BFA368D7
:106960005D5D002505F026FF284638BD08B54021AD
:10697000FFF7EAFF08BD70B5044604300D46164621
:10698000FFF72AFCE368013BAB420DD3A3685A5DD5
:10699000B24209D05E552046A56805F003FEA86006
:1069A000236820461B6998476068BDE8704005F081
:1069B00001BF08B50A463A21FFF7DDFF08BD000018
:1069C00008B527492748FDF7BAFBFFF7A3FC0021CC
:1069D000FFF73AFEFFF79EFC0121FFF73BFEFFF7B2
:1069E00099FC46F6E131FFF7E3FEFFF793FC002147
:1069F000FFF736FEFFF78EFC0021FFF737FEFFF7AB
:106A000089FC0021FFF738FEFFF784FC00220023F9
:106A1000FFF738FFFFF77EFC0A21FFF7D5FEFFF7EF
:106A200079FC0021FFF7D6FEFFF774FC0021FFF789
:106A300029FEFFF76FFC00230022FFF72DFFFFF771
:106A400069FC0621FFF724FEFFF764FC1621FFF71F
:106A500025FEFFF75FFCBDE808400021FFF7A9BF56
:106A6000153D0C0058E6032038B50446FFF752FCEC
:106A7000FFF790FD0C281AD9FFF74CFCFFF78AFDB1
:106A8000134902461348FDF75AFB0125FFF742FC64
:106A9000FFF757FE98B90125FFF73CFCFFF766FDAD
:106AA00000B99DB12046BDE83840FFF789BFFFF728
:106AB00031FCFFF774FD0B28DED90025E6E7FFF770
:106AC00029FCFFF73EFE3C28E5D8E5E738BD00BFCE
:106AD0002D3D0C0058E6032008B5006A03F088F845
:106AE000FFF718FC03685B689847FFF713FCBDE8E5
:106AF0000840FFF7B9BF08B50A464021FFF73BFF42
:106B000008BD000010B509F0AFFB054C014600239D
:106B10004FF40052204603F061F8024B236010BD91
:106B200078E403205C3D0C007047006A0368DB6872
:106B30001847704710B504210446FDF7B0FA204607
:106B400010BD000010B5034B0360044601F092FD38
:106B5000204610BD04420C0010B50446FFF7F2FFBA
:106B6000204640F62C11FDF79AFA204610BD7FB55D
:106B700002685368906814685E1000EB6305DB07D9
:106B800048BF8359684648BF1C5908F0ADFD6946A7
:106B90002846A0470446684608F02AFD204604B06F
:106BA00070BD012A38B5044602D10B68236003E0AA
:106BB000022A03D0032A0DD0002038BD0C200D6816
:106BC000FDF769FA03460028F0D095E8070083E84E
:106BD0000700EBE700680028EED00C21FDF75FFA14
:106BE000EAE737B51D4601AB044601F025FF20B1A9
:106BF00001992A46204601F001FF03B030BD000094
:106C00000A4B10B50446036007F066FB214607F007
:106C10006AFD09F087F909F077F92046044B40F83E
:106C2000043B07F0FBFB204610BD00BFEC410C000D
:106C3000D4410C0010B50446FFF7E2FF20462421A2
:106C4000FDF72DFA204610BD10B5064C236833B968
:106C50000420FDF720FA08B1034B03602060206890
:106C600010BD00BF98E4032014420C0030B5194950
:106C700085B004461848FDF762FA00250C200295FD
:106C8000FDF709FA18B1154B8460C0E90035144BC3
:106C9000009003931020134B0293FDF7FCF9044678
:106CA00078B100238360029B33B102226946984782
:106CB000039BE360029BA3600B4A0C48214606F04D
:106CC00078FB029B1BB1694603220846984705B032
:106CD00030BD00BFF43D0C0058E60320F16C0B0002
:106CE0006F6B0B00A36B0B00223E0C008BD30B00D1
:106CF0002DE9F04FADF6B41D0C4609A8A34908F0E4
:106D0000C2FCA2490DA808F0BEFC50234FF48062DB
:106D100000932CA90DF5966321A801F00DFD9C4B65
:106D200021689C482193FDF70AFA21A801F0FAFC9A
:106D30002168039108460AF09EF90399024621A8AA
:106D400001F0D3FC21A802F029FA044690B9924937
:106D50009048FDF7F4F9914B8F4A1B788DF800307D
:106D600011A88F493C2306F035FC12A8FDF750FC12
:106D7000254617E021A801F0FAFC894A894FDFF87F
:106D80007882DFF87892014606AB21A801F054FE24
:106D9000002506992A4621A801F00BFD064678B980
:106DA000002DE5D121A8FFF7CDFE0DA808F020FCAD
:106DB00009A808F01DFC28460DF6B41DBDE8F08FAB
:106DC000014607AB3A4621A801F036FE20B10799EB
:106DD00004AA21A801F046FD09AB4246314621A88C
:106DE000FFF7FFFE314621A80DAB4A46FFF7F9FE3B
:106DF0006D490DA808F00DFD002859D0049B002B0B
:106E00003BD16A4909A808F004FD18B3684911A8E4
:106E10000AF00BF9FFF73EFBFFF77AFBFFF7B2FA38
:106E2000FFF74AFD5B4811A9FDF789F905F0E6FF78
:106E300060B15A4B5A491B788DF8003007A83C23A3
:106E400011AA06F0C7FB08A8FDF7E2FB01350A2DE1
:106E50009FD18DE7574909A808F0DBFC40B156499E
:106E600011A80AF0E2F8FFF755FAFFF7A9FDD5E7F8
:106E7000524911A80AF0D9F8D0E74E4909A808F0FC
:106E8000C8FC049B58B14E4A402111A806F07EF878
:106E9000FDF76EF905220499FDF790FFC2E7494A14
:106EA000402111A806F072F8FDF762F90622F2E718
:106EB00045490DA808F0ADFC00B309980A2205A9C0
:106EC0000BF04AF8431E3B2B064611D83C2393FB9C
:106ED000F0F343433C2B0BD103463C4A402111A81D
:106EE00006F054F8FFF716FAB1B2FFF773FC99E712
:106EF000374911A80AF099F8002493E735490DA8FD
:106F000008F087FCB8B1344909A808F082FC0646AD
:106F100048B1324911A80AF088F8FFF7FBF90121BE
:106F2000FFF79EFB7EE72E4911A80AF07EF8FFF7D7
:106F3000F1F93146F4E72B490DA808F06AFC48B195
:106F4000294911A80AF071F8FDF712F90121FDF79E
:106F50002DFC67E725490DA808F05BFC00284FD001
:106F600009980A2205A90AF0F7FF0C2806460BD853
:106F700003461F4A402111A806F008F8FFF7CAF996
:106F8000F1B2FFF785FB4DE71A49B2E7804E0C00DE
:106F900004420C0058E60320333E0C0094E4032026
:106FA000513E0C001C350C005C3E0C007D350C0085
:106FB000623E0C00843E0C00883E0C00B83E0C0083
:106FC000DD3E0C00093F0C002A3F0C002F3F0C0057
:106FD000593F0C00793F0C007E3F0C00833F0C00B2
:106FE000B73F0C00D93F0C00DD3F0C00943B0C0078
:106FF000F23F0C0010400C00553E0C00593E0C00B6
:1070000031490DA808F005FCB8B109980A2205A974
:107010000AF0A2FFA0F10D030B2B06460BD8034686
:107020002A4A402111A805F0B1FFFFF773F9F1B228
:10703000FFF734FBF6E626495BE726490DA808F082
:10704000E8FBE0B109980A2205A90AF085FF0228A9
:10705000064612D8049B204A00934021034611A8FB
:1070600005F094FFFDF784F804993246FDF7CEFD54
:1070700038B3FDF77DF807220DE7184939E71849BD
:107080000DA808F0C6FBD0B109980A2205A90AF09C
:1070900063FF0128064610D8124A134B40210028EE
:1070A00008BF1346114A11A805F070FFFFF732F927
:1070B00006F00101FFF77DFCB4E60D4919E70D4923
:1070C00017E70446AEE600BF29400C002F400C0035
:1070D0004D400C0004340C0068400C008E400C0045
:1070E000A9400C0046410C002B3E0C00AD400C00AA
:1070F000BF400C00EF400C0070B5D0E900531426DF
:10710000044606FB0356AE4204D0284608F070FA47
:107110001435F8E7206805F019FF204670BD884255
:10712000F8B504460D46164616D9904215D2A2F17E
:107130001406751AA1F114072C44B7421CD02CB1C7
:107140003146204608F0D0FA337C2374304608F0EC
:107150004FFA143E143CF0E70ED0B5420CD02CB1DF
:107160002946204608F0C0FA2B7C2374284608F0F4
:107170003FFA14351434F0E7F8BD2DE9F04100234F
:10718000C0E9003383604F689F4204460E4623DD0A
:107190004FF0140808FB07F005F0D0FE0546D8B103
:1071A000D4E9001208FB0212FFF7B9FF206805F0CE
:1071B000CDFE2560A760D6E9007308FB0378B845CB
:1071C00008D03946284608F0A9FA3B7C2B741437BE
:1071D0001435F4E7736863602046BDE8F081000071
:1071E00070B5274B274A01251D70274B00248CB012
:1071F0009A60C3E90044022005F076FD2146284646
:1072000005F08AFD2946042005F0ECFACDE900449A
:10721000029408F087FE1D4C0546694603A8FFF757
:10722000ACFF264603A906A8FFF7A7FF184B46F8B0
:10723000043B06A909A8FFF7A0FF09AA1E213046B2
:1072400007F034FB09A8FFF757FF06A8FFF754FF24
:10725000104B2360256203A8FFF74EFF0E4B2360FF
:1072600008F060FE4FF4165108F04AFE07F034F8BB
:10727000214607F0F1F96846FFF73EFF0CB070BDFC
:1072800094E403200000FFFF88E403209CE4032033
:10729000D4410C00B04E0C00EC410C002DE9F04341
:1072A00085B008F058FD414905464148FCF747FFC5
:1072B000002401A8CDE90144ADF80C4006F08AF89D
:1072C000204605F0BFFA43F698260446002005F054
:1072D000B9FA031B61F10001B34271F1000305D259
:1072E00005F08CFD10B105F079FDEFE705F086FDA6
:1072F00005F098FA2F4F386005F070FD05F07EFD1F
:10730000044640B12C492A48FCF719FF00242046C6
:1073100005B0BDE8F08308F01EFD2849DFF8A08025
:10732000421B2348FCF70BFF08F015FD2246022103
:107330000646D8F8040005F0B1FDD8F8040023464D
:107340002246214605F0C2FD204605F07BFA47F2B1
:1073500030590546002005F075FA431B61F1000124
:107360004B4571F1000306D2404607F0BDFD10B950
:1073700005F034FDEEE7124807F0B6FD05F052FACD
:10738000386005F02BFD0E4807F0AAFD20B10D492D
:107390000748FCF7D4FEBAE708F0DDFC0A49821B77
:1073A0000348FCF7CCFE0124B1E700BF03410C0009
:1073B00058E6032010E703202C410C004F410C003D
:1073C00014E6032078410C009E410C0008B51749D3
:1073D0001748FCF7B4FE0221042008F0BBFE002190
:1073E000082008F0B7FE0121072008F0B3FE0021B5
:1073F000122008F0AFFE0121112008F0ABFE0121A0
:10740000102008F0A7FE0021102008F0B4FE002193
:10741000112008F0B0FE0121062008F09BFE01219A
:10742000062008F0A8FE012008BD00BF1C420C0089
:1074300058E6032010B51849184890B02024FCF7EE
:107440007EFE22460021684609F04AFD22460021C0
:107450000DEB04008DF8054009F042FD00210DEB15
:1074600004008DF8254005F093FC41F2D833ADF8C7
:1074700006300B4B029341F27003ADF80C30009BC9
:10748000002143F400736846009305F081FC003846
:1074900018BF012010B010BD35420C0058E6032083
:1074A0008403840307EE900A9FED097AF8EEE77AE9
:1074B00067EE877A9FED077A87EE870ADFED067A17
:1074C00070EE677AB2EE040A87EE800A704700BF5A
:1074D00000404E4500F07F450000FA4313B50121FE
:1074E00001A807F096FDFEF74DFFFFF76CF8FEF7D9
:1074F00049FFFFF768F8252801A80DD907F01CFE01
:10750000FEF740FF0121FFF7E1F8002401A807F092
:107510008FFD204602B010BD07F0F3FD0124F5E712
:1075200030B51B4D0FCD9BB010AC0FC40FCD0FC4A9
:1075300095E8030084E80300164908A805F0F8FD63
:1075400008A805F038FE044608A805F06DFE08A856
:1075500010EE105A05F098FE1AAB10EE100A03EB6D
:10756000840409F085F8CDE90201284609F080F885
:10757000CDE90001102154F8283C074A0DEB010029
:1075800005F004FD054804A9FCF7D9FD1BB030BD8A
:10759000DC420C0014E603209A420C0058E603205B
:1075A00030B585B00D4600226946009205F08AFB91
:1075B00090B9009C0CB1236923B9084A08490A20F4
:1075C00005F058FB0C23CDE901350423039301AAF0
:1075D000236901212046984705B030BD15C80B002E
:1075E000B3420C0013B5FEF7CDFE01A904460720F7
:1075F000FFF7D6FF011EA8BF01992046C9B2FFF7C9
:1076000065F8184806F0E0F94FF4FA7005F016FD39
:10761000FEF7B8FE01A904460320FFF7C1FFE8B951
:10762000BDF8043007EE903AFBEECC7A17EE900AE4
:1076300009F01EF841EC100B2046FEF7E9FEFEF7BC
:10764000A1FEFEF7C5FE084B51EC100B002209F01D
:10765000F7FA003818BF012002B010BDFFEE007A23
:10766000E4E700BFC0E4032000004E4013B5FEF77E
:1076700089FE0F4B0446188808F0A9FDFFF712FF9A
:10768000FDEEC07A2046CDED017A9DF80410FFF79B
:1076900017F8FFF7A7FFFFF721FFFEF73BFEFEF706
:1076A00065FF08B9FFF73CFF012002B010BD00BF25
:1076B0005A420C000148002106F042B9C0E4032000
:1076C000704710B520210446FCF7E9FC204610BDA8
:1076D00010B504468AB008464FF0200C0021CDE9D1
:1076E0000023CDE902C10B4602AA216805F0D2FAB7
:1076F0000AB010BD0EB403B503AB322153F8042B0E
:107700000193FFF7E5FF02B05DF804EB03B07047AB
:107710000EB403B503AB012153F8042B0193FFF71B
:10772000D7FF02B05DF804EB03B0704710B50272EA
:10773000FF2242810022C0E9032242610276C26137
:10774000024A034C1060C0E9004110BDCCE40320A4
:1077500054450C002DE9F8439DF8208004468946E5
:1077600016461F46B8F1000F02D0406806F0D2F965
:10777000217A606806F0ABF96068036849469B6847
:1077800098476068002106F0C1F9054600BB012357
:10779000217A60683A4606F088F98742034609D1A3
:1077A0003744BE421CD0606803685B69984706F89E
:1077B000010BF6E70B490C484A46FFF79BFFB8F16F
:1077C000000F02D0606806F0AEF92846BDE8F883E5
:1077D0000346064904484A46FFF78CFF0025EEE7BA
:1077E0000125ECE704430C00C8E4032029430C0006
:1077F00007B500930123FFF7ADFF03B05DF804FB6D
:1078000073B54389FF2B044610D0194E194D05F06E
:1078100009F8B0F57A7F09D2608908F0C5FC012823
:1078200004D031462846FCF78AFCF0E701230DF12D
:10783000070228212046FFF7DBFF30B90D480E492B
:10784000FCF77DFC002002B070BD9DF80730182BBE
:10785000F4D101230DF1070229212046FFF7C8FFCB
:107860000028EBD09DF80730052BE7D1EBE700BFF0
:107870004D430C00C8E4032062430C0007B51346D7
:1078800000228DF807200DF10702FFF7B1FF9DF8E8
:10789000070003B05DF804FB2DE9F0419DF8188066
:1078A00004460F4615461E46B8F1000F02D0406848
:1078B00006F030F9217A606806F009F9606803681B
:1078C00039469B6898472E44B542606805D00368E6
:1078D00015F8011B9B689847F6E7012106F016F999
:1078E000034670B1084909483A46FFF703FF0025EF
:1078F000B8F1000F02D0606806F015F92846BDE81F
:10790000F0810125F4E700BF6F430C00C8E40320B9
:107910001FB58DF80F2000930DF10F020123FFF723
:10792000BBFF05B05DF804FBF8B50A460C460546FA
:107930001A491B48FCF703FC002CB8BFEC687CB963
:10794000012322461B212846FFF7E2FF1549024684
:1079500006461348FFF7DCFEEC606C613046F8BD6C
:10796000032C19DDA7101F2FA8BF1F27BA0062F034
:107970007C020123D2B21B212846FFF7C9FF3A46F9
:107980000346094906460648FFF7C2FE4FF4FA636C
:107990005F43EC606F61E1E70127E7E794430C0088
:1079A000C8E403209E430C00BA430C00064B1A683F
:1079B0004AB1A0F500630B4305D1D3681BB1002188
:1079C0001046FFF7B1BF7047CCE403202DE9FF411B
:1079D0009DF82880054616461F46B8F1000F04D0D2
:1079E0004068019106F096F80199019100230DF18C
:1079F0000F022846FFF7FCFE044660B19DF80F30E9
:107A000003EA06023A43934205D00199002328462F
:107A1000FFF77EFF0446B8F1000F02D0686806F059
:107A200082F8204604B0BDE8F08113B514460DF18C
:107A30000702FFF7DDFE28B19DF807301C420CBF9E
:107A40000120002002B010BD13B514460DF107024D
:107A5000FFF7CEFE28B19DF807301C4214BF01206D
:107A6000002002B010BD07B5D2430093D2B200236C
:107A7000FFF7ACFF03B05DF804FB000037B501234E
:107A80000DF107020F210446FFF7B2FE054638B993
:107A90001E491F48AD22FFF72DFE284603B030BD1A
:107AA0009DF8073013F0200F4FF001030BD0202278
:107AB000E3610F212046FFF7D6FF164A1649144806
:107AC000FCF73DFBE9E7082217212046FFF7BCFF42
:107AD00018B10223114AE361F0E79DF807301A0755
:107AE00009D50323E361082201230F212046FFF774
:107AF000BAFF0B4AE2E75B07CFD50422E26101231C
:107B00000F212046FFF7AFFF064AD7E70D440C00D0
:107B1000C8E40320DE430C002C440C00E7430C00B7
:107B2000F7430C0007440C0007B500931346FF22EF
:107B3000FFF74CFF03B05DF804FB0000F8B50F46FB
:107B40001646012300220F210546FFF7E1FE0446F9
:107B500038B94FF425721F491F48FFF7CBFD204667
:107B6000F8BD0123232218212846FFF7D1FE044641
:107B700010B940F29B22EEE7FF2FA8BFFF27012F8D
:107B8000B8BF01270123FAB219212846FFF7C0FE2A
:107B9000044610B94FF42A72DDE7012308221221AE
:107BA0002846FFF7C1FF044610B940F2AF22D2E7E2
:107BB000002E14BF03220222012342F0800218216A
:107BC0002846FFF7A5FE04460028C8D140F2B92296
:107BD000C1E700BF3D440C00C8E403202DE9F74392
:107BE0000A4605460F464F484F49FCF7A8FA0021C0
:107BF0002846FFF799FE044648B940F2F7124B4970
:107C00004848FFF777FD204603B0BDE8F083012325
:107C10001A4630212846FFF787FF044610B940F284
:107C20000522ECE71022012311462846FFF71BFF2F
:107C3000044610B94FF40372E1E701232622132111
:107C40002846FFF765FE044610B940F21322D6E736
:107C5000012600963346FC2211212846FFF7B6FE86
:107C6000044610B940F21B22C9E7002239462846D3
:107C7000FFF764FF044610B940F22222BFE70096E6
:107C80000223772210212846FFF7A0FE044610B9F0
:107C900040F22B22B3E7334604221C212846FFF78B
:107CA00043FF044610B940F23222A8E70096182399
:107CB000E32211212846FFF789FE044610B940F25D
:107CC00039229CE73346C02217212846FFF720FEC1
:107CD000044610B94FF4107291E704F0A3FDDFF8E9
:107CE0005490DFF840804FF47A7106464F4304F019
:107CF00099FD801BB8420ED2012217212846FFF7BA
:107D0000BDFD494602464046FCF719FA4FF47A7029
:107D100005F094F9EBE706490248FFF7EBFC07F0A2
:107D200026FE70E7C8E4032068440C005D440C00A4
:107D30008E440C0079440C002DE9F3479DF828A0EF
:107D400005460C4691461F46BAF1000F02D0406826
:107D500005F0E0FE07B3202F3E4628BF20267F2CEB
:107D600026D83319802B01D9C4F1800601230422BF
:107D70003F212846FFF777FE002364F07F01009340
:107D80004A463346C9B22846FFF7E4FC804628B18C
:107D90003444BF1BB144DDE74FF00108BAF1000FD6
:107DA00002D0686805F0BFFE404602B0BDE8F0872B
:107DB000012304223F212846FFF7B6FEDCE72DE928
:107DC000F3479DF828A005460C4691461F46BAF198
:107DD000000F02D0406805F09DFE07B31F2F3E46FE
:107DE00028BF1F267F2C26D83319802B01D9C4F138
:107DF0008006012304223F212846FFF734FE00239A
:107E000064F07F0100934A463346C9B22846FFF723
:107E100043FD804628B13444BF1BB144DDE74FF039
:107E20000108BAF1000F02D0686805F07CFE4046F8
:107E300002B0BDE8F087012304223F212846FFF766
:107E400073FEDCE730B585B00D68D1E904320395E7
:107E50004D6802958D680195C96800910133044908
:107E600002F26C72044607F01BFD204605B030BDDF
:107E7000A0440C0003090A2200F00F0002FB0300DB
:107E8000704738B5044600781546FFF7F3FF0860E1
:107E90006078FFF7EFFF4860A078FFF7EBFF88609E
:107EA000E078FFF7E7FFC8602079FFF7E3FF0138CC
:107EB00008612DB9651D2878FFF7DCFF886138BDA2
:107EC0006079FFF7D7FF6430A51D4861F3E7000034
:107ED00070B5012388B00D461A4610210446FFF7FD
:107EE000A4FDF0B108230126204600960DEB030205
:107EF0000021FFF72FFC044698B1324629460DF1C8
:107F00000900FFF7BEFF04A8FFF79CFF0848049A8A
:107F10000849FCF714F904A807F06AFB204608B0EA
:107F200070BD24220021284608F0DAFF0024F5E77E
:107F3000C8E40320BE440C0030B58BB00D4601A947
:107F4000FFF7C6FF044620B101A805F06FF8C5E9A8
:107F5000000120460BB030BD0A2390FBF3F103FB78
:107F6000110091FBF3F203FB121240EA0210C0B2BF
:107F7000704770B5054600680C461646FFF7ECFFE3
:107F800020706868FFF7E8FF6070A868FFF7E4FFFB
:107F9000A070E868FFF7E0FFE07028690130FFF7A4
:107FA000DBFF20712EB9661DA869FFF7D5FF307081
:107FB00070BD6A69642392FBF3F003FB1020FFF7A6
:107FC000CBFFA61D6071EFE7F0B587B0054602A8AC
:107FD00016460C46FFF736FF1E48029A1E49FCF76C
:107FE000AEF802A807F004FB16B1686805F092FD30
:107FF000204601220DF1090100278DF80870FFF7D6
:10800000B8FF01231A4610212846FFF78DFD0446CC
:10801000E8B1082300970DEB030239462846FFF725
:108020003BFC044660B101231A4610212846FFF7A5
:108030001AFD16B1686805F076FD204607B0F0BD60
:108040004FF48D7205490348FFF754FBF1E74FF4F5
:108050008F72F7E7C8E40320CC440C00DA440C002C
:1080600013B504466846CDE9002308F0EBFE9DF801
:10807000102001462046FFF7A7FF02B010BD000008
:10808000F0B5057E89B0044675BB07F047FE58B3CE
:108090000026002704A92846CDE9046704F0D6FE8F
:1080A00010B30125257607F056FEC317CDE902036C
:1080B000024600952046FFF7D3FF02A92046CDE9EE
:1080C0000267FFF739FF134B13491B68009304A89D
:1080D000DDE9022307F0E0FD1048049A1049FCF79F
:1080E0002EF804A807F084FA63698BB104F09AFBB8
:1080F0002369C01A636998420AD304F093FB4FF0D6
:10810000FF312061204609B0BDE8F040FFF70CBC0C
:1081100009B0F0BD98D60320ACE60320C8E40320E4
:10812000F5440C0030B504468BB011B1406805F041
:108130009FFC2046FFF764FB06AD002837D02046A1
:10814000FFF79CFC01231A4610212046FFF76DFC27
:10815000D8B107F0E3FDC0B902A92046FFF7ECFE55
:10816000DDE9020107F0DEFC134B14491B680093A4
:108170002846DDE9022307F08FFD1148069A1149D0
:10818000FBF7DDFF284607F033FA0F4B06930F4B42
:1081900009930F4B08934FF40062002302A8009547
:1081A000FDF718FB2846FDF77AF90BB030BD0949F9
:1081B0000348FFF79FFAE8E798D60320ACE60320D0
:1081C000C8E403200B450C00AD790B007B540B0079
:1081D00067540B0028450C00014B024A1A60704797
:1081E000C8E4032040450C0010B5012303748368E4
:1081F000044643B1C0689847012363740020BDE87A
:10820000104004F0DFBA00680028F5D083680BB98D
:1082100008F0BCF8C368EEE7012A02D10160002033
:108220007047022A04BF0B680360F8E738B5056899
:10823000044635B12846FDF732F910212846FBF7F0
:108240002EFF20461421BDE83840FBF728BF10B5AB
:1082500003680446ABB1586804F064FA88B923682F
:108260005A7C12B9586804F065FA2368586804F01B
:1082700069FA20680023236018B1BDE81040FFF7B9
:10828000D5BF10BD054A026000224260027380F82B
:108290004F24C0F85824C0F86024704780450C0073
:1082A00010B5074C236843B940F26440FBF7F3FE76
:1082B000034608B1FFF7E6FF2360206810BD00BF4A
:1082C000D0E4032038B50446406890B102232373FC
:1082D000FFF7BDFF656855B12846FFF7B8FF28686E
:1082E00008B1FFF7A3FF04212846FBF7D8FE0023BF
:1082F000636038BD10B5054B03600446FFF7E2FF2D
:1083000004F58A60FDF7CBF8204610BD80450C00CF
:1083100010B50446FFF7EEFF204640F26441FBF73C
:10832000BEFE204610BDF0B5044689B000F10D0632
:1083300000F14E07237B1BB9012004F07FFEF9E713
:10834000237B022B64D0A06804F00CFAA06804F030
:1083500011FA94F84F348DF800303A463C233146F8
:1083600006A805F037F9069D6B7833B9237B022BFD
:1083700003D0012004F062FEF5E7D4F858341BB3B3
:10838000002004F0D1FC20B16B7813B904F026FD75
:10839000FAE72B78D4F860240592591E4B424B41E2
:1083A0008DF80B30D4F85834CDE903670BB907F0DA
:1083B000EDFF05AB0093D4F85C5404AB03AA0DF1B8
:1083C0000B0104F58A60A847A06804F0CBF9237B71
:1083D000022B17D0D4F858340025C4F8605443B1A8
:1083E00004F58A61032208469847C4F85854C4F833
:1083F0005C540023A068237304F0BCF907A8FCF7C1
:1084000007F997E7A06804F0B5F907A8FCF700F9A9
:1084100009B0F0BD0068FFF786BF13B50B460246F2
:10842000D0E900016C4684E8030093E8030082E889
:10843000030094E8030083E8030002B010BD0000CD
:108440002DE9F743064688461420264917469946E3
:1084500007F092FF044630B10020C4E90000C4E9EF
:108460000200207460743460002C31D01D4910204B
:1084700007F082FF054668B1002383600146384655
:10848000FFF7CBFFBB68AA68BA60AB60EA68FB681D
:10849000EB60FA602768256037B13846FCF7FFFFCC
:1084A00010213846FBF7FBFD3068036883B10A9B57
:1084B0004A46CDE9000341460B4B043004F02AF94B
:1084C00030B933681B7C4BB9012004F09BF9F8E705
:1084D00030680023336008B1FFF7A8FE304603B0D0
:1084E000BDE8F08304500C00E9810B0030B543680F
:1084F00087B00446C3B9083004F02CF90B4B059340
:1085000004200B4B02940493FBF7C5FD054638B1DC
:108510004FF4406300930749022302AAFFF790FF3C
:10852000656002A8FCF7BBFF07B030BD15840B00E7
:1085300019820B0064450C002DE9F043044685B018
:1085400080680C9F98460D46164604F00BF9636848
:108550001BB1237B03F0FF0933B1A06804F00AF9D3
:10856000002005B0BDE8F083A06804F003F9002DF9
:108570003DD04022294604F10D0008F098FD84F812
:108580004D908EB340F20142314604F14E0008F0A6
:108590008EFD84F84E9400230293BB6804F58A652F
:1085A0003BB10222394668469847FB680393BB6893
:1085B000029329466846FFF730FF029BD4F85824FF
:1085C000C4F85834039B02926846D4F85C24C4F87B
:1085D0005C340392FCF763FF0D9BC4F86034012008
:1085E00084F84F842073BCE784F84E60D3E72846B4
:1085F000B7E7000010B5054B0360037C04461BB9C8
:10860000406808B104F0A2FC204610BDA0450C0053
:1086100010B50446FFF7EEFF20461421FBF73FFD9F
:10862000204610BD10B5034B03600446FFF7E2FF80
:10863000204610BDC0450C0010B50446FFF7F2FF00
:1086400020463021FBF72BFD204610BD10B5034B13
:1086500003600446FFF7E6FF204610BDD0450C003E
:1086600010B50446FFF7F2FF20464021FBF717FD47
:10867000204610BD10B5074B0360037C04461BB9B0
:10868000406908B104F062FC2046FFF7B3FF2046C2
:1086900010BD00BFB0450C0010B50446FFF7EAFF5F
:1086A00020462C21FBF7FBFC204610BD034A02604C
:1086B0000022C0E90122C26002747047A0450C008C
:1086C00038B5037C04460D460BB1002038BD406828
:1086D00038B104F043FC0028F7D0C4E901050120BB
:1086E000F4E7084604F02AFCF5E770B5C3680E46C7
:1086F0001546D1184268044672B182688A420BD38B
:108700006068E3682A463146184408F0C1FBE26815
:108710002A44E260012070BD2046FFF7D1FF002807
:10872000EED1F8E743680021C16023B1826812B13D
:10873000184608F0D5BB704710B5C0E901120022F9
:10874000C260012202744361024A029B0260C3615B
:1087500010BD00BFB0450C00D0E90503834204D929
:108760000278022A02D01030F8E700207047D0E9E2
:108770000503984204D20378012B18BF00207047EC
:108780000020704770B513689D68136803F11004EA
:1087900014608669B4420AD29B698C68A34201DAEC
:1087A000AB42F2DDA342CCBF0020012000E000205C
:1087B00070BD73B501F11003044616460193002500
:1087C0000198A36983420BD982688B689A4207DAC1
:1087D000B54206D001AA20460135FFF7D3FFEFE7E7
:1087E000002002B070BD2DE9F341089D984601F1CB
:1087F000100304461746019300260198A36983429B
:108800001AD982688B689A4216DAAE420BD1386068
:1088100001AA2046FFF7B6FF28B1019BC8F8003037
:1088200002B0BDE8F08101AA2046FFF7ABFF204669
:108830000136FFF7A7FFE0E70020F1E7F0B5013BC5
:108840000024D1E90176F61BA64208DDA34206DD2D
:1088500045683D442D5D02F8015B0134F1E70023DA
:108860001370F0BD1FB5144610236A46FFF7E6FFEC
:1088700004492246684604F081FB431E5842584191
:1088800004B010BDAF350C001FB5144610236A4666
:10889000FFF7D4FF6846002109F054FA012084ED67
:1088A000000A04B010BD10B5044600680B4628B19C
:1088B00006F081FFE3680133E36010BD60680028C3
:1088C000F8D0D4E90221013A8A4288BF4354F1E743
:1088D00003467F2B37B50846D9B204D803B0BDE8AC
:1088E0003040FFF7E0BF01F03F01B3F5006FC3F385
:1088F000871541F0800407D245F0C0010190FFF7D1
:10890000D2FF01982146E9E71B0B43F0E0010190FB
:10891000FFF7C9FF05F03F01019841F08001EEE744
:108920002DE9FF4700244E68DFF8CCA080460F46B3
:108930001546A146B868B0425ADDD8F80430995DB2
:108940009A19002C4BD0752905D86D2907D86229B2
:108950001ED066291ED02846FFF7A5FF3DE0A1F1F5
:108960006E04072CF7D80FF2080C5CF824F000BF57
:1089700099890B0057890B0057890B0057890B0009
:108980009D890B0057890B00A1890B00A5890B005D
:108990000821E0E70C21DEE70A21DCE70D21DAE718
:1089A0000921D8E7311D884217DD02A90433334479
:1089B000084612F8014F01F8014B9A42F9D101AA79
:1089C00051468DF80C9004F0D9FA012805D1BDF874
:1089D00004002946FFF77CFF0536002404E05C29EB
:1089E00004D02846FFF75FFF0136A3E70124FBE729
:1089F000012004B0BDE8F087214E0C007FB50C4685
:108A000006460C491046154606F09BFED4E9013196
:108A1000C91A0131284606F009FE00236A4621469C
:108A20003046CDE9013300950393FFF779FF04B099
:108A300070BD00BF804E0C002DE9F04389B00546A3
:108A4000884604A812491646994606F01CFE0027DF
:108A500000974B4603AA41462846FFF7C4FE04464A
:108A600070B1039904AA2846FFF7C8FF044608B965
:108A70000137EDE7314604A806F0CBFE0028F7D019
:108A800004A806F0B5FD204609B0BDE8F08300BF9C
:108A9000804E0C0000230122C3604361028380F8F2
:108AA0002A30704708B50346FFF700FE044A1A60F3
:108AB0004FF0FF321846DA62FFF7ECFF08BD00BF47
:108AC000C0450C00D0E9022310B593423FBF426875
:108AD0005C1CC460D15424BF012380F82A3010BD2F
:108AE00010B54369044643B100EB4303597E09B115
:108AF000FFF7E8FF6369013B6361D4E90210636833
:108B000088424FF000022ABF5B181A5403F8012C68
:108B100010BD70B50446D0E9025066682D1A1346A0
:108B200030440A46294604F039FA85422DBFE368ED
:108B3000A368E360C01836BF0123E06084F82A30E0
:108B400070BD0EB403B503AA52F8041B0192FFF7DF
:108B5000E0FF02B05DF804EB03B070472DE9F84385
:108B600004460E46174612B12221FFF7ABFFDFF88D
:108B70000C810025715D06EB0509002974D0D4E94C
:108B800002329A4270D20B0634D501F0F003E02B8A
:108B900005F101091DD116F8092002F0C003802B50
:108BA00039D105F1020916F8093003F0C000802818
:108BB00031D103F03F03920143EA013302F47C62B6
:108BC0001A4392B241462046FFF7BBFF4D4601359E
:108BD000D0E701F0E003C02B1DD116F8093003F0F7
:108BE000C002802A17D1890101F4F86203F03F0323
:108BF0001A43E7E70D290AD807290CD9A1F1080380
:108C0000052B08D8DFE803F009231707111D2229D7
:108C100023D05C2921D0204604E05C212046FFF7C8
:108C200051FF6221FFF74EFFD1E75C212046FFF79D
:108C300049FF6621F6E75C212046FFF743FF6E21DE
:108C4000F0E75C212046FFF73DFF7221EAE75C2157
:108C50002046FFF737FF7421E4E75C212046FFF749
:108C600031FF99F80010DDE72FB120462221BDE841
:108C7000F843FFF727BFBDE8F88300BF88450C0025
:108C8000426900EB42031A7E12B100221A76704745
:108C90002C21FFF717BF73B5436901910133082BEE
:108CA00016460FD8FFF7ECFF4369019900EB430428
:108CB0005A1C01254261A576E676FFF703FF284698
:108CC00002B070BD0020FBE737B5044610EE100A75
:108CD00007F0CEFCE56A002D02460B4608DBCDE925
:108CE000002307492A462046FFF72BFF03B030BD7B
:108CF0000449204603B0BDE83040FFF722BF00BF63
:108D00008F450C0094450C0010B50446FFF7CAFED1
:108D1000054B23604FF0FF320023C4E90D2321638C
:108D2000E363204610BD00BFD0450C0070B5436B17
:108D30000133044621D1056B4B684363EB688868B7
:108D40001A1AA263AE683044C31A002AE36305DD31
:108D5000686889680144184408F0A8F8226B616BC0
:108D60005268E36B0A445B1A01212046C4E90123DF
:108D70002174FFF78FFE084670BD0020FCE770B538
:108D8000436B013304460E4629D18D68016B013DCA
:108D90004563CB685A1B826388682844C31A002A3B
:108DA000E36304DD48684119184408F07FF8226B3A
:108DB000616B5268E36B0A445B1A0125C4E9012325
:108DC00020462574FFF766FE636903F10C02F36821
:108DD000B3FA83F35B0904F81230284670BD002013
:108DE000FCE700002DE9F04F44684FF0010C4FF014
:108DF000FF36D0F800E0964580F0B98111F80E807A
:108E0000B8F1000F00F0B381B8F13A0F00F098808C
:108E100033D8B8F1220F00F0A68010D8A8F10908C5
:108E20005FFA88F8B8F1170F0DD89F4D0CFA08F8C3
:108E300018EA050F07D0056801350560D9E7B8F1D4
:108E40002C0F00F03381D0F8008042450ED911F884
:108E500008505DB13A2D00F269811F2D00F2518159
:108E60000A2D00F26081082D40F25681002B40F05F
:108E7000628108F1FF350560A5E0B8F17B0F37D0BE
:108E80002ED8B8F15B0F33D0B8F15D0FDBD1002BDA
:108E9000D1D04FF002094568013D03EB0518002DC4
:108EA00055DBD8F8047001374DD0D8F808A0BAF1D6
:108EB000FF3F48D198F800B0CB454BD10EF1010EE1
:108EC000C0F808A0C8F808E003EB051EDEF804703F
:108ED000013742D0DEF8087001373ED18560AAE73D
:108EE000B8F17D0FAFD1002BA5D04FF00109D2E72B
:108EF0000134002B9FD04568099FAF424AD905F144
:108F0000010EC0F804E003EB051ECEE901664FEA4E
:108F1000051A0025CEF80C5085686F1C1FBF03EBA7
:108F20000519D9F80C500135C9F80C50B8F17B0F70
:108F30000CBF0125022503F80A500568CEF804503D
:108F40004568013DCAE7013DA8F11008A7E70135D2
:108F50007FF471AF6FF001041EE0013D6F1CAEF1B4
:108F6000100EB3D167E70EF10109C0F80090D0F8F8
:108F70000080424540F2938011F80850002D00F027
:108F80008E80222D30D1F3B14568099FAF4206D8BB
:108F9000C0F800E04FF0FF342046BDE8F08F05F147
:108FA000010E4FEA051803EB0515C0F804E0C5E90A
:108FB00001660027EF60D0F800E04FF0030A03F8E5
:108FC00008A0C5E9019E85686F1C04F101043FF407
:108FD00032AF002B3FF42FAF03EB051EDEF80C5031
:108FE0000135CEF80C5026E75C2D11D108F10105B2
:108FF000AA420DD905604D5D752D2BD86D2D0BD86E
:10900000662D27D85B2D1DD8222D01D02F2D21D1E3
:10901000056801350560AAE76E3D072D1AD801A73E
:1090200057F825F011900B0055900B0055900B0050
:1090300055900B0011900B0055900B0011900B00F8
:109040005B900B005C3DEDB20CFA05F540F2414738
:109050003D42DDD1C0F800E07CE708F10205056083
:109060004FF0040AD0F80080424503D80568013D5E
:109070000560CDE711F80850002DF7D0A5F1300BB1
:10908000BBF1090F04D925F02005413D052DE1D89C
:1090900008F10105BAF1010A0560E3D1E6E7C0F87D
:1090A00000E06FF0020477E713008000002B3FF42C
:1090B000C2AE85686F1C3FF4BEAE2D015D5D013D03
:1090C000012D7FF6B8AE456805F1FF3803EB051EAC
:1090D000B8F1000FFFF6AFAE1EF8105C013D012D98
:1090E0000AD85EF80C5C013506D05EF8085C0135E4
:1090F00002D1C0F808809EE608F1FF38AEF1100EEC
:10910000E6E7A5F12009244F5FFA89F90CFA09F97D
:1091100019EA070F7FF4AAAE203D5E2D9AD808F118
:10912000010505608FE60D2DF6D19FE605F0DF09FC
:10913000B9F15D0FF8E74568099FAF427FF628AFA8
:1091400005F101084FEA051903EB0515C0F8048085
:10915000C5E901660027EF60D0F800804FF0040AEF
:1091600003F809A0C5E901E80568013D83E6002B85
:109170003FF412AF4268511E03EB02130029FFF6C1
:109180000BAF53F80C2C013203D053F8082C0132EA
:1091900087D00139103BF1E701100004F7B5C26830
:1091A000044612B9002003B0F0BD436900F1200667
:1091B000ABB10021C0E908114FF0FF318162C169F4
:1091C000009141683046FFF70DFE431C28D1257CF5
:1091D000002DE7D1606903F0B9FE6561E561002506
:1091E0004FF0FF37C4E90855E2686168A76200954F
:1091F0002B463046FFF7F6FD0028D3DBE06117D0A1
:10920000000103F09BFEE269606103460092C4E93D
:109210000855E2686168A7623046FFF7E3FD01E0A8
:109220000028BFDB636903EB0010A0610120BAE7EF
:109230006369A361FAE738B5436B5A1C044618D03A
:10924000826B002A08DD016BE5684868E16B2B44FE
:109250000144184407F02AFED4E90C23A16B0B4407
:10926000E1680B44D360206BFFF798FF4FF0FF33AA
:10927000636338BD7047704710B508210446FAF79C
:109280000EFF204610BD10B510210446FAF707FF67
:10929000204610BD10B5054B044640F81C3B06F0B7
:1092A000A7F9201D06F0A4F9204610BD44460C0085
:1092B00010B50446FFF7EEFF20465821FAF7EFFEFF
:1092C000204610BD10B5044B044640F8043BFFF7A0
:1092D000E1FF204610BD00BF14460C0010B5044647
:1092E000FFF7F0FF20466021FAF7D9FE204610BDB7
:1092F00020F00203012B03D0431F5842584170470E
:109300001846704791F90430037191F905304371A3
:1093100091F90630837191F90730C371704738B500
:1093200004460D460430043106F0E9F905F1140154
:1093300004F11400FFF7E6FF05F11C0104F11C0025
:1093400006F0DDF905F12C0104F12C00FFF7DAFF3E
:1093500095F9383084F8383095F9393084F8393057
:1093600095F93A3084F83A3095F93B3084F83B303F
:1093700005F13C0104F13C00FFF7C4FF95F94830CA
:1093800084F8483095F9493084F8493095F94A30E5
:1093900084F84A3095F94B3084F84B3005F14C0194
:1093A00004F14C00FFF7AEFF95F8543084F85430C8
:1093B00038BD0B6803604B68436013B15A680132D3
:1093C0005A607047024A02604A684260704700BFB4
:1093D00024460C004A69036862F3160303600B69B4
:1093E0005A1C438862F3CA134380CA68C3F3072335
:1093F00062F3C703C3707047024A026000224260F2
:10940000704700BF24460C0030B5002387B083802E
:1094100083710D4605AB00931349044604AB03AAC0
:10942000284603F0ABFD032807D1039B2371049B5F
:109430006371059BA37107B030BD0C4904AB03AA4F
:10944000284603F09BFD022804D1039B2371049B53
:109450006371F0E7064903AA284603F08FFD01284F
:1094600004BF039B2371E6E7D8450C00DB450C00E5
:10947000AF350C0090F9042090F9053090F90610F2
:10948000002AB8BF0848C3EB03134FEA8303BDBFEC
:1094900000FB0230401840424FF46160A4BF00FB63
:1094A00002304018704700BFF0F1FFFF08B590F898
:1094B00054304BB190F93B3043B92C30FFF7DAFF11
:1094C000B0FA80F0400908BD0120FCE70020FAE76F
:1094D00090F9073043B990F904308B6090F905306A
:1094E0004B6090F906300B60704790F9073030B54B
:1094F000B3B990F904508C682C44D1E900328C60E7
:1095000090F90540002DB5BF121B12194A604A6040
:10951000B5BF90F9062090F906209B1A9B180B60A6
:1095200030BD000008B5054A0260002203464260D3
:109530000830FFF761FF184608BD00BF34460C0035
:1095400000234360838183737047000030B5044675
:1095500087B00D4611B10B784D2B05D0204607B0D2
:10956000BDE83040FFF7ECBF05AB0093114904ABF9
:1095700003AA284603F002FD032816D1039B23719A
:10958000049B6371059BA3712F21284607F02CFDD6
:1095900040B1411C04F10800FFF736FF0123E371DD
:1095A00007B030BDA081A073F8E72046FFF7C8FFE1
:1095B000F6E700BFF3450C00104B114910B5044607
:1095C00040F8043B06F05FF804F11400FFF714FFC5
:1095D0000B4904F11C0006F056F804F12C00FFF7CB
:1095E0000BFF04F13400FFF79DFF04F14400FFF787
:1095F00099FF002384F85430204610BD44460C00E7
:10960000804E0C002DE9F74F0446084607F016FD82
:1096100000250646019004F134083F49019801AA4B
:1096200008F014FC0146002862D0012D05F1010369
:1096300053D0022D56D0002D46D1024692F800900C
:10964000B9F1400F1546174602F10102F6D8002283
:109650002A7004F11C0006F074F8012285F80090CD
:1096600084F854202A786AB397F800A00AF1FF32F0
:109670003F2AB946BB4607F10107F5D9002304F19B
:109680002C0789F8003029463846FFF7BDFE89F8D7
:1096900000A0BAF1000F15D05D461BF801ABBAF17E
:1096A000400FF9D800222A704946201D06F049F8DB
:1096B00085F800A004F11400BAF1000F06D0294685
:1096C000FFF7A2FE0125A8E71D46A6E73946FFF7EA
:1096D00019FE237E013B2376F4E74046FFF736FF71
:1096E00002259AE704F14400FFF730FF032594E7D1
:1096F00094F93B3043B194F94B202AB904F134007A
:10970000FFF71EFF84F85420304603F01FFC94F846
:10971000540003B0BDE8F08FFD450C0038B5134B85
:1097200004460D4640F8043B114905F0ACFF04F136
:109730001400FFF761FE0E4904F11C0005F0A3FFC1
:1097400004F12C00FFF758FE04F13400FFF7EAFEA5
:1097500004F14400FFF7E6FE002384F85430294664
:109760002046FFF74FFF204638BD00BF44460C009F
:10977000804E0C0008B50346FFF73EFE8A681A715A
:109780004A685A710A689A71184608BD13B5074BA2
:1097900003600023436004466846FFF7EBFF204662
:1097A0006946FFF7AFFD02B010BD00BF24460C00B4
:1097B00007B50023014601A80193FFF70BFE0198AE
:1097C00003B05DF804FB10B504460846FFF7F0FF50
:1097D000206010BD10B5044688B00846683001A965
:1097E00007F004FB01A807F046FC08AB184400236F
:1097F00000F81D3C01A9204605F045FF204608B0B1
:1098000010BD000038B50446081D0D46FFF74EFE9A
:1098100028B10949204605F036FF204638BD2868A2
:10982000FFF766FD28B105F10801204605F076FF37
:10983000F3E705F12001F8E7FF450C002DE9F047BB
:109840008046A8B00C4615462AB1474B1046196809
:1098500007F0E1FB38B921464046FFF7BBFF404621
:1098600028B0BDE8F08729463F2218A807F01FFC62
:10987000002318A88DF89F3007F0FDFB2146054610
:1098800003A8FFF7BFFF201DFFF710FE48B33749BD
:1098900007A807F0CAFB18AE002705F1FF3ABA4542
:1098A0004CD93378252B07F1010917D173787A2B1E
:1098B00036D107A807F0DFFB18AB05463818AAEB2E
:1098C0000702B11C184407F0E3FA2A4607A93046FC
:1098D00007F0DEFA18A807F0CEFB054601364F4622
:1098E000DBE72068FFF704FDB8B104F11800FFF7CB
:1098F000C1FD3C2290FBF2F3002BB8BF5B42B3FBEF
:10990000F2F102FB11330093194A1A4B90FBF3F367
:10991000102107A803F03AFBBDE704F13000E6E7A9
:109920005A2BDBD1059D18AB7819AAEB0702B11CA5
:10993000184407F0ADFA03992A46C8E700212E2201
:109940000CA80B9107F0CCFA04F1680318AA322195
:109950000BA803F053FB0BA9404605F094FE03A8A7
:1099600005F046FE7BE700BF98D60320FF450C00BC
:1099700001460C00F0F1FFFF38B5094D2B6863B9C3
:109980006020FAF788FB044630B1064B40F8043BF0
:10999000FFF712FE6423E3652C60286838BD00BF22
:1099A000D4E4032014460C0003F040BB01390B291A
:1099B00015D8DFE801F01608160616061616061664
:1099C00006161E20704783070DD1642390FBF3F227
:1099D00003FB120000280CBF1C201D207047002034
:1099E00070471F2070471C207047F8B50123CB60DB
:1099F00090F90430013B0B610023C1E900330646B6
:109A00000C4617468B602046FFF7CEFF96F90630CE
:109A1000A2699A4203D0E3680133E360F3E796F961
:109A20000550012D13D0E3686069013DC5EBC50504
:109A30001D44E56096F9041000F26C70FFF7B6FF64
:109A40008542C4BF073DE5602046FFF7ADFF2146D4
:109A500006F10800FFF73CFD3846FFF746FD2046BB
:109A6000BDE8F84003F0E2BAF0B590F8583085B0A0
:109A700004462BB9FFF780FF011D201DFFF74FFCA7
:109A800094F93F30002B65D0D4E9182304F19807EE
:109A9000394602A83E46CDE9022303F0B7FA0FCEBD
:109AA00004F1C8050FC50FCE0FC533682B6004F154
:109AB000300102A8FFF786FC02AA394604F13800FB
:109AC000FFF793FFC4E9240104F1180102A8FFF78E
:109AD00079FC02AA04F1C80104F14800FFF785FFF0
