:02000002B0004C
:1040000000400B0050990C00000006000D00050256
:0840100004016810000000002B
:04401800F0590C004F
:1040200009480A49884208B505D0094A824202D0A7
:10403000121A11F0C5F90748074A0021121A11F0A7
:10404000E7F9014808BD00BFD8AB0320A8970C00D2
:1040500054AD032058AD0320F4E7032070B5074E9C
:10406000074C0EF0E7F9A41BA4080025AC4200D1D0
:1040700070BD56F8043B98470135F7E734970C00BC
:104080007C970C0000F090BD08B500F071FEBDE813
:1040900008400EF087B90CF067B90CF065B90CF068
:1040A0006BB9000008B5034A03490C200BF0FCFF74
:1040B000FEE700BFF9FB0B00045A0C000078B0FAD1
:1040C00080F0400970470123037070470EB400B5BB
:1040D0008CB00DAA4FF0200C52F8041B0392CDE9CE
:1040E00000120023016804AA1E20CDE904C30BF0CE
:1040F000EBFF0CB05DF804EB03B0704707EE900ADD
:104100009FED097AF8EEE77A67EE877A9FED077AF6
:1041100087EE870ADFED067A70EE677AB2EE040A60
:1041200087EE800A704700BF00404E4500F07F4593
:104130000000FA4338B50E480E4D0EF007F90BF0AB
:1041400063FD04460BF060FD001BB0F57A7F05D2DD
:104150000BF05AFD28600CF0B7F8F3E703F0EEFA25
:1041600003F03BFB3C28D4BF0020012038BD00BF3A
:1041700058AD032028E7032013B5012101A80CF056
:104180007AF903F0DBFA03F099FC03F0D7FA03F0B5
:1041900095FC252801A80DD90CF000FA03F0CEFA01
:1041A000012103F07DFD002401A80CF073F92046E5
:1041B00002B010BD0CF0D7F90124F5E730B51B4D66
:1041C0000FCD9BB010AC0FC40FCD0FC495E803000A
:1041D00084E80300164908A80EF096FD08A80DF023
:1041E000C0FF044608A80DF0F5FF08A810EE105A0D
:1041F0000EF020F81AAB10EE100A03EB840410F056
:10420000E5FCCDE90201284610F0E0FCCDE9000113
:10421000102154F8283C074A0DEB01000CF0CCF8B3
:10422000054804A9FFF752FF1BB030BDAC5A0C0083
:10423000D8E60320925A0C0034E6032013B503F0AD
:104240007DFA0F4B044618880FF0F1F9FFF756FF7F
:10425000FDEEC07A2046CDED017A9DF8041003F002
:1042600019FDFFF767FFFFF787FF03F02DFA03F053
:10427000B7FB08B9FFF7A2FF012002B010BD00BFD5
:10428000286A0C00014800210EF01CB858AD03202C
:10429000014B1A60704700BFD8AB0320014B0122CD
:1042A0001A707047AAAE032030B585B0044608984E
:1042B00060B1406850B1856845B1CDE90241CDE9B2
:1042C0000023C46801AB6A4602A9A04705B030BD0F
:1042D00030B585B0006813680193D1E90045836863
:1042E000CDE902450BB90FF081FAC36801AA02A912
:1042F000984705B030BD012A02D101600020704707
:10430000022A04BF0B680360F8E703681268D1E96A
:104310000001184737B504689DF818508DF8003033
:104320008DF8045024683C23A04703B030BD08B585
:1043300000200BF0F9FF28B10BF0D6FF80F0010050
:10434000C0B208BD0120FCE710B58368044613B174
:10435000032201469847204610BD10B5044638B1E7
:10436000FFF7F2FF20461021BDE81040FFF797BE8F
:1043700010BD000070B5144C144D2378144E022B60
:10438000C2B017D10DF086FEA0B92278337805EBC4
:10439000021200920F4A05EB03134FF4807102A83A
:1043A0000CF00AF823780C48337002A9FFF78EFE50
:1043B00042B070BD2278337805EB0212009205EB13
:1043C0000313064AE9E700BFA9AE0320DCAB0320D4
:1043D000A8AE0320D45A0C0034E60320F45A0C0093
:1043E0002DE9F04FE9B0002327939F4B21939F4B7A
:1043F00022939F4B23939F4B24939F4B9F4FA04906
:10440000259302469F4B269305469F48209720AC54
:10441000FFF75CFE0DF03EFE002851D00DF057FE78
:1044200006460DF071FE431CF31A1293002D4AD17B
:1044300096499548FFF74AFEFFF700FF1CA80BF0CE
:104440005BFF1C9B139303F079F903F0C6F9064652
:1044500003F074F903F037FB54F8209003F06EF981
:1044600003F02CFB044603F02FF903F0C3FA0746D0
:1044700003F02AF903F0C3FA804603F025F903F0AC
:1044800056FC129B824A00964FF48071CDE90503D9
:10449000CDE90378139BCDE9019428A80BF08CFF9C
:1044A0001CA80CF05DFA06F003FA7A4B7A491A78E8
:1044B0007A4B1B788DF80050134328AAFFF72AFF88
:1044C00069B0BDE8F08F03F039F903F0CAFA0928A2
:1044D00037D903F033F903F0C4FA132833D903F0C2
:1044E0002DF903F0BEFA6E4B1D2888BF3B466D497F
:1044F00065482A46FFF7EAFD03F020F903F0B1FA18
:10450000132822D8092800F258810138C0B208289F
:1045100040F2DA8003F012F903F0A3FA624902468E
:104520005948FFF7D3FD0BF0DFFE0028C8D006F096
:10453000BFF900238DF80030564B5C4A1B785C496C
:10454000BCE75C4BD3E75C4BD1E71438C0B2092819
:10455000E0D803F0F3F803F018F9189003F0EEF840
:1045600003F084FA044603F0E9F803F084FA40EA21
:104570000423139303F0E2F803F082FA044603F0F5
:10458000DDF803F082FA40EA042403F0D7F803F0E0
:1045900081FA804603F0D2F803F081FA149003F018
:1045A000CDF803F05EFA054603F0C8F803F015F9FC
:1045B000064603F0C3F803F086FA20AA52F820104A
:1045C000179103F0BBF803F079FA074603F0B6F849
:1045D00003F07EFA159003F0B1F803F07EFA8146FD
:1045E00003F0ACF803F033FA824603F0A7F803F0C7
:1045F0000DFD834603F0A2F803F00DFD169003F0C5
:104600009DF803F079FA129B169A17990495CDE953
:104610000D03159BCDE90773149B039308F101006B
:10462000139B0093CDE90BB2189B244ACDE9056199
:10463000CDE901404FF48071CDE9099A28A80BF02B
:10464000BBFE1F49104828AAFFF740FD06F030F9CD
:10465000124B1A780F4B1B7800218DF80010134372
:10466000184928AA2AE700BF5F5A0C00635A0C00B9
:104670006C5A0C00745A0C00805A0C00195A0C0029
:104680002E5B0C00865A0C0034E603204D5B0C00B8
:10469000645B0C0064AD0320D35B0C0065AD0320AC
:1046A000025B0C00EB5B0C004B5F0C00755F0C00B9
:1046B0009C5F0C00095B0C001C5B0C00595E0C003D
:1046C000DA5C0C00345F0C0003F038F803F05DF89E
:1046D000169003F033F803F0C9F9044603F02EF8FE
:1046E00003F0C9F940EA042403F028F803F0C8F9FC
:1046F000054603F023F803F0C8F940EA052503F066
:104700001DF803F0AEF9139003F018F803F065F804
:10471000064603F013F803F0D6F920AA52F8201049
:10472000159103F00BF803F0C9F9074603F006F8FA
:1047300003F0CEF9804603F001F803F0CEF981468C
:1047400002F0FCFF03F083F9824602F0F7FF03F06A
:104750005DFC834602F0F2FF03F05DFC149002F072
:10476000EDFF03F0C9F9129B149A15990094CDE955
:104770000B03139BCDE909B2CDE90361CDE90153E8
:104780007C4A169B4FF48071CDE9079ACDE90578F4
:1047900028A80BF011FE7849784828AAFFF796FC64
:1047A00006F086F8764B1A78764B1B7800218DF848
:1047B00000101343744928AA80E602F0BFFF02F0FC
:1047C000E4FF1B9002F0BAFF03F050F9044602F038
:1047D000B5FF03F050F940EA042402F0AFFF03F004
:1047E0004FF9814602F0AAFF03F04FF9804602F02C
:1047F000A5FF03F04FF9824602F0A0FF03F04FF946
:10480000139002F09BFF03F04FF9149002F096FF13
:1048100003F04FF91A9002F091FF03F022F915907E
:1048200002F08CFF02F0D9FF054602F087FF03F08B
:104830004AF920AA52F82020199202F07FFF03F0D3
:104840003DF9064602F07AFF03F042F9074602F00E
:1048500075FF03F042F9169002F070FF03F0F7F8CD
:10486000179002F06BFF03F0D1FB189002F066FF87
:1048700003F0D1FB834602F061FF03F03DF9129B88
:10488000199A1A990591CDE90F03189B0D93179B5F
:104890000C93169BCDF838B0CDE90A730AF10100EC
:1048A000159B06930290149B049348EA0920139BDE
:1048B000039300B21B9B0996CDE90752CDE9004056
:1048C000324ADFF8BC804FF4807128A80BF074FDE9
:1048D00029492A4828AAFFF7F9FB0BF005FD50B13A
:1048E00005F0E6FF00238DF8003098F800302849E5
:1048F00028AAFFF70FFD02F021FF02F046FF1290F9
:1049000002F01CFF02F069FF054602F017FF03F0FA
:10491000C1F8044609F074F8064602F00FFF03F0F0
:10492000B9F80146304609F097F8064609F068F8EC
:10493000074602F003FF03F0ADF80146384609F0E0
:1049400095F80134129B134A4FF48071CDE902604F
:10495000CDE9005428A80BF02FFD05F0A9FF094B65
:104960001A7898F8003000218DF8001013430A4996
:1049700028AAA3E51F5C0C00DA5C0C0034E60320D7
:1049800064AD032065AD0320E55C0C00FD5C0C000C
:10499000E85D0C00F25D0C003F5E0C0070B5054652
:1049A0000BF032F9064E04460BF02EF9001BA8421C
:1049B00005D20BF029F930600BF086FCF4E770BDEE
:1049C00028E7032038B5002383608B6804460D4632
:1049D0002BB102229847EB68E360AB68A3602046E6
:1049E00038BD00002DE9F04395B005461C9904A898
:1049F00090461F460CAEFFF7E5FF04A908A8FFF795
:104A0000E1FF08A93046FFF7DDFF4FF00009102055
:104A1000CDF84890FFF73FFB0446A0B196E80300AD
:104A200001AB83E8030094E8030086E8030093E801
:104A300003000E9BE268A36084E803000F9BCDF89F
:104A400038900F92E360244B1393244B129300226F
:104A500000234FF00009C5E90023214BC5F8089059
:104A600010201094CDE90139CDF80C90FFF713FB1D
:104A70000446D8B1129BC0F8089033B1022210A9A5
:104A80009847139BE360129BA360164B0393164A4F
:104A9000029401AB404639460BF056FBB0B12046BC
:104AA000FFF752FC10212046FFF7F9FA10A8FFF794
:104AB0004BFC3046FFF748FC08A8FFF745FC04A86C
:104AC000FFF742FC284615B0BDE8F083029BAB60BF
:104AD000C5E90087EAE700BFD1420B00ED4A0B00B1
:104AE00002000C005B430B00A9420B00012A37B502
:104AF000044604D10B680360002003B030BD022AD5
:104B00000CD0032AF8D10468002CF5D02046FFF71A
:104B10001BFC10212046FFF7C2FAEDE7096801915E
:104B20001020FFF7B8FA054610B10199FFF74AFFC8
:104B30002560E1E7164B10B501241C70154B0822C7
:104B40001A700EF0E1FC00231A4616210EF0ECFC60
:104B50000EF0DAFC00231A460D210EF0DDFC0E4BA0
:104B60001A1D1A600D4A5A600022C3E902221A6116
:104B70001C750EF0E9FD69220146094803F04EFC60
:104B80000848062340F8043BBDE8104007F006B88B
:104B900064AD032065AD03209CAD0320100003002D
:104BA0007CAD0320B8AD0320F0B500209DB00BF024
:104BB0003BF842F21075044600200BF035F8001B5C
:104BC00061F10001A84271F1000307D20EF016F85E
:104BD0000EF009F810B90BF077FBEDE70EF00EF8C8
:104BE0000EF001F801F07AFC01F0ACFC02F06CFD73
:104BF0000368504E1B68504F984702F09FFD0368B2
:104C00001B68984702F034FE03681B68984702F05F
:104C10005BFD042102F099FF01F040FD01F050FD21
:104C2000082301213046738104F046F97C21304687
:104C300003F0E8FC414B0693414B099306AD414B11
:104C400008934FF48022002302A80095FFF7CAFEC4
:104C50002846FFF779FB05F02BFE06F02FF800F051
:104C6000EFFC012100F058FD07F078F936490446C1
:104C7000284607F045F807A904F108000BF0F8FEF4
:104C80000C9BE3610DA904F120000BF0F1FE129BD7
:104C90006363149BE363169B6364189BE3641A9B32
:104CA00063659DF86C3084F85830284606F0E4FDC2
:104CB0000DF00DFAC317C7E91803384607F0C6F917
:104CC0000DF0E8F9214C70B33946214A284607F027
:104CD000A7F801231A4610213046069F03F013FD62
:104CE0001C491D4B3A46002818BF0B461B481C495F
:104CF000FFF7ECF928460BF033FE02F0E5FC01214A
:104D000002F023FF1748184900880523002223706A
:104D10004FF0FF3300920DF099FF23780BB9032376
:104D200023701DB0F0BD11490C48FFF7CFF90523E2
:104D30002370E2E77CAD0320B8AD032091420B0065
:104D40000B430B00F7420B00AC5F0C00A9AE032035
:104D5000D35F0C00A25F0C00A55F0C0034E60320BB
:104D6000DE5F0C00206A0C009D420B000F600C00FF
:104D70002DE9F043924D2B78013B97B0062B17D8C5
:104D8000DFE813F0D603070045003C012403B1031C
:104D900015038C4B1B78022B01D0FFF7EBFA02F0C6
:104DA00093FC02F02CFE002800F00E8301232B70F0
:104DB000854804F017F805F07BFD05F06CFC02F067
:104DC00083FC02F091FC02F0B9FC02F0D5FC02F089
:104DD0004FFD02F06DFD00F033FC00F043FC7B4B17
:104DE0001B68002B09DB7A497A48FFF76FF94FF40B
:104DF000FA60FFF7D3FD0BF02CFD02F065FC02F02A
:104E0000FEFD08B101232B7017B0BDE8F083FFF75A
:104E1000B1FA02F059FC02F08FFF81460DF057F90C
:104E2000B0FBF9F303FB1900A9EB0000814528BF93
:104E300081460DF04CF9DFF8C0816749CDF800805C
:104E400000EB090200230EA80DF0E2F8634C0E9B64
:104E5000634960484A46FFF739F90EA80BF080FD18
:104E6000237D0BB1022222725E4A1788002B4AD0A2
:104E70002368DB68F3B19A88012A06D09B68F9E7BA
:104E80009B68BBB19A88012AFAD19A89BA42F7D1B4
:104E900000229A73237D002B35D023684FF47A705B
:104EA000DB6800FB09F9D3B19A88042A00F08383F8
:104EB0009B68F8E74C4910200EF08EFC064600284F
:104EC00000F07C831022002110F0A2FA474B3360DF
:104ED0000123B3802369B360B7812661DAE74249D1
:104EE00010200EF079FC0646002800F0678310229F
:104EF000002110F08DFA3D4B33600423B380236909
:104F00002661C6E9023900212F4803F07BFB3349B3
:104F10000AA80BF0A1FC2C484FF0FF3103F072FB04
:104F20000A9BEBB19A88012A1AD19B899F422FD103
:104F300000200AF079FE42F21076044600200AF0C2
:104F400073FE001B61F10001B04271F100030AD24F
:104F50000DF054FE0DF047FE28B90BF0B5F9EDE762
:104F60004FF6FF73E2E70DF049FE0DF03CFE4FF403
:104F70007A70FFF713FD1E491648FFF7A7F80A9845
:104F800002232B7000283FF413AF0BF0F5F90FE765
:104F90000DF09DF81049CDF80080C31702460EA809
:104FA0000DF036F80E9A04920BF0B6FC049A1149F3
:104FB00003460848FFF78AF80EA80BF0D1FCDEE79D
:104FC000A9AE0320A8AE03207CAD0320D8AB0320FC
:104FD000C9620C0034E6032060E603209CAD032088
:104FE00067600C00206A0C00AE940C0010000300F7
:104FF00094600C00AA600C0064600C00C04B1B782D
:10500000042B00F0E880072B00F010810AF0FCFD73
:10501000BC4B1860FFF7AEF90DF059F8BA4CC31746
:10502000C4E91803204607F011F804F168010AA842
:1050300006F09EFE9DF92C6002F046FB02F0E4FCB7
:105040008642C0F2FE8004F168010EA806F090FED0
:105050009DF93C6002F038FB02F0DBFC86420EA8B2
:10506000CCBF0026012606F0F7FB0AA806F0F4FBE9
:10507000002E00F0E88002F061FB012102F022FE28
:10508000A1490EA806F098FE0EA9032300220AA843
:105090000BF0A0FD0EA80BF063FC9C490AA80BF0D6
:1050A00071FD002840F0F18099490AA80BF06AFDD3
:1050B0008046002840F0E98002F006FB02F0B3FCD5
:1050C0003C24B0FBF4F0C4B202F0FEFA02F0A6FCFD
:1050D000064602F0F9FA02F0A6FC87B2182E49D073
:1050E0008C4906A806F044FE9DF91C30B34280F2BC
:1050F000E180002406A806F0AFFB002C00F0FA8047
:1051000002F01CFB02F0F3FC40B902F017FB012196
:1051100002F0DEFD08F074FC08F08BFC7E4B7F4A49
:105120007C49B8F1000F18BF1A4608A8049206F08F
:105130001FFE78499DF924400EA806F019FE9DF93E
:105140003D8002F0FBFA02F0D2FC7549754B049ADF
:10515000002808BF0B46CDE90283734973483346E4
:10516000CDE90074FEF7B2FF0EA806F075FB08A8A3
:1051700006F072FB02F0A8FA02F037FC6C4B002834
:105180000CBF05223C221A7002F09EFA02F02DFCA0
:1051900000280CBF05223C225E4905920EA806F0AD
:1051A000E7FD9DF93C30049302F08EFA02F02CFCEE
:1051B000044602F089FA02F02CFCDDE90432CDE964
:1051C00000405C495948FEF781FF0EA806F044FBF9
:1051D0000AA80BF0C5FB00F033FA00F0EDFF80B138
:1051E00002F0ACFA02F033FC534902464F48FEF796
:1051F0006DFF02F0A3FA02F070FC01281CBF072328
:105200002B7002F061FA02F0F0FB012840F09A8066
:105210000CF06EFF044602F057FA02F048FE0CF064
:105220002DFE84423FF4C4AD0523C0E543493F4809
:10523000FEF74CFF08F06AFC4FF461610AF044FA93
:10524000E8E6002611E702F03FFA02F0DDFB0590E8
:1052500002F03AFA02F0DDFB2E4904900EA806F0A7
:1052600087FD9DF93C1031480091DDE90432344955
:10527000FEF72CFF0EA806F0EFFA08F0C1FB08F0CD
:10528000D1FB02F05BFA3146F8E602F01DFA02F0BB
:10529000D4FB3C24B0FBF4F0C4B202F015FA02F0E7
:1052A000C7FB064602F010FA02F0C7FB4FF00108F8
:1052B00087B213E7174908A806F05AFD9DF9242084
:1052C00033199A4214DC13490EA806F051FD6FF011
:1052D0003B009DF93D2000FB0474A2420EA8ACBF28
:1052E0000024012406F0B8FA08A806F0B5FA01E790
:1052F0000024F9E702F022FA214602F0E9FC0DE76A
:10530000A8AE03206CAD0320B8AD032045610C00AE
:1053100049610C0020AE03204D600C0055600C006C
:1053200061600C005D600C004D610C0034E60320F0
:1053300070AD0320AA610C00EF610C00CB600C0083
:10534000EB600C000AF060FC9D4B1B68C01A9D4B83
:105350001B784EF66022534398427FF629AD9A4956
:105360009A48FEF7B3FE00F06BF900F08DF908F0F3
:10537000CDFB002108F0CAFF02F07AFA0368012190
:10538000DB6898470CF0B4FE044602F09DF902F089
:105390008EFD0CF073FD84427FF446AF02F094F969
:1053A00002F02DFB00287FF401AD0323FFE4FEF79C
:1053B000E1FF02F0C3F902F04AFBFFF711F802F037
:1053C000BDF9002102F078FC0423F0E4804B814E0B
:1053D0001B78052B2DD0FEF7CDFF02F075F902F0FA
:1053E00066FD0CF053FD7C4904460EA806F0DDFC7A
:1053F0009DF83B30B4EBD30F0DD002F065F90021DE
:1054000002F020FD02F060F9002102F0A4FB7349D4
:105410006E48FEF75BFE02F057F902F0E1FAFEF784
:10542000DFFF0AF061FF08B90AF056FF0AF0ECFB53
:1054300030600AF059FF0446002842D002F044F9D7
:1054400004460CF044FE0246C317204602F057FD06
:1054500002F03AF904460AF0D7FB3168411A4FF4DA
:105460007A70B1FBF0F1204689B202F0F1FC0AF04B
:105470003BFFF0B10AF038FF10B100200AF04CFFFA
:10548000FEF755FF10B90AF01FFFF9E7FEF74FFFCF
:1054900053490EA80DF038FC0EA80CF09BFEFDEE53
:1054A000C07A5049CDED047A9DF910204748FEF7A7
:1054B0000DFE02F009F902F098FA012884D00623C3
:1054C00075E40AF0A1FB3368C01A474B98427FF697
:1054D0006FAC46493D48FEF7F9FD02F0F5F821466C
:1054E00002F033FBEBE73A4B414C1B78062B04D020
:1054F000FEF740FF0AF088FB20600AF085FB236876
:10550000C01A3C4B98427FF653AC05F0D1F990F8A5
:10551000B330002B3FF44CAC02F0D6F802F065FA41
:1055200000287FF442AF01F0B9F801F00BF93CE735
:10553000314C324E2378BFF35B8F13F0010F09D14A
:105540002046FEF7BBFD28B10AF05EFB3060204626
:10555000FEF7B9FD1E4B2A781B789A4214D0FEF74D
:1055600009FF0AF0C1FE50B105F0A2F900238DF841
:105570000030234B234A1B782349FEF7CBFE02F071
:10558000A3F8002102F0EDFA0AF03EFB3368C01ADE
:1055900047F2305398427FF60BAC1C490B48FEF79C
:1055A00095FD4FF4FA60FFF7F9F91E21184803F052
:1055B00085F9FFF7FDBBC3F80C90A4E42675A2E4BF
:1055C0006CAD032070AD032012620C0034E60320A2
:1055D000A8AE032074AD032020AE032028620C0087
:1055E000D8E6032047620C00C027090068620C005F
:1055F00078AD0320905F010060AD032068AD03200B
:1056000064AD032094620C009C5F0C00B2620C003D
:105610007CAD0320704710B504210446FEF73FFD22
:10562000204610BD37B504689DF818508DF800303D
:105630008DF8045024683C23A04703B030BD00001F
:1056400010B5064C236833B90420FEF724FD08B1D9
:10565000034B03602060206810BD00BFB0AE032084
:10566000FC690C007047000010B5064CC0B00DF18D
:10567000030201A9204607F02DFE0028F7D140B013
:1056800010BD00BFB0AF0320024B186A03689B6EC9
:10569000184700BFB0AF0320184B10B51C8800217D
:1056A00020460DF098FF0A200CF050FD0121204605
:1056B0000DF091FF0A200CF049FD114806F0F1FEB3
:1056C000044628B90F491048FEF700FD204610BDDA
:1056D0000E490F4807F0D4FA00220D48172107F0B1
:1056E00041FC01210A4807F069FC094807F014FD54
:1056F00008484FF47A7107F0F2F8E7E7266A0C00E1
:10570000E4AF0320E5620C0034E603200C6A0100DC
:10571000B8B20320E8AF032010B586B00C46FFF7FF
:105720008FFFFFF7B9FFBCB101F0CEFF002102F0FF
:1057300000FA02A80AF0E0FD029B1F4900221F4860
:10574000FEF7C4FC02A80BF00BF908F0DFF908F033
:10575000EFF9012006B010BD01F0B6FF02F040F9EC
:10576000B0B101F0B1FF02F03BF901F0ADFF02F082
:1057700037F90146124807F042F8114807F025F8BA
:10578000019002A80AF0B8FDDDE901230D49D6E732
:1057900001F09AFFFF2102F0CCF9FF21084807F041
:1057A0002EF8074807F011F8019002A80AF0A4FDAE
:1057B000DDE901230449C2E7F1620C0034E603206D
:1057C000E8AF032038630C006F630C0030B56E4CFB
:1057D00085B001F0B3FFA17A02F02CFA01F0AEFF20
:1057E000E17A02F02DFA01F0A9FF217B02F02EFAF6
:1057F00001F0A4FF617B02F02FFA01F09FFFA17B73
:1058000002F030FA01F09AFFE17B02F031FA01F088
:1058100095FF217C02F032FA01F090FF617C02F0EA
:1058200033FA01F08BFFA17C02F034FA01F086FF1D
:1058300094F9131001F0E3FF01F080FF217D02F0E5
:105840002FFA01F07BFF617D02F030FA01F076FF64
:10585000E18AC9BA02F0FCFB01F070FF218BC9BAE2
:1058600002F0FCFB01F06AFFA17E02F03DFA01F0BC
:1058700065FFE17E02F03EFA01F060FF02F0F1F810
:1058800013281AD809281CD80138C0B2082862D8B1
:1058900008F03CF9044601F051FF02F0D8F80290FC
:1058A0000CF015FC02990246204609F0CBFC374B60
:1058B000042201201A7005B030BD1438C0B2092886
:1058C000E5E708F023F9044601F038FF02F0BFF8DD
:1058D0000146204608F0A4F90028D9D108F016F9AD
:1058E000044601F02BFF02F0B2F8039001F026FF0E
:1058F00002F0B7F8029001F021FF02F0C1F805466E
:1059000001F01CFF02F0C1F840EA0520DDE90221A8
:1059100003B2204609F0C4F808F0F8F8044601F094
:105920000DFF02F094F8039001F008FF02F099F8DF
:10593000029001F003FF02F099F8054601F0FEFE27
:1059400002F099F840EA052003B2DDE90221204681
:1059500009F00AFA9CE701F0F1FE02F082F80C4926
:1059600002460C48FEF7B2FB0AF0BEFC00288FD0BE
:1059700004F09EFF00238DF80030074B074A1B7888
:105980000749FFF74FFE83E7B4AE0320ABAE032019
:10599000B6630C0034E60320ACAE0320EA630C00CF
:1059A0009C5F0C00F0B5A7B001F0C8FE02F09FF8B4
:1059B00070B101F0C3FE02F054F8132800F2F28037
:1059C000092800F2F3800138C0B2082800F20C81E7
:1059D00001F0B4FE02F013FAA44C000AE07001F0EA
:1059E000ADFE02F00CFA20710CF071FB030E637136
:1059F000030CA371030AE371207201F065FE02F04B
:105A00009BF9000A607201F05FFE02F095F9A07246
:105A100001F05AFE02F090F9954902469548FEF7CA
:105A200055FB01F08BFE02F058F8FF2840F0F6809D
:105A300001F084FE02F00BF88F4902468D48FEF714
:105A400045FB01F07BFE012102F036F901F076FE04
:105A500001F0FDFF059001F071FE02F03EF8059A9D
:105A6000864903468348FEF731FB01F067FE02F0EA
:105A700034F8E07208F04AF8054601F05FFE01F0E4
:105A8000E6FF0146284608F005F9030A2373607310
:105A900001F054FE01F0E5FF0023E3732374A073CB
:105AA00001F04CFE03680121DB689847744B1E88A7
:105AB000012130460DF08FFD01F040FE01F0CCFFDA
:105AC000002840F0C38001F039FE01F0C0FF04233C
:105AD000009366490346044610226A4807F038FEE0
:105AE0000546002840F0B780014630460DF073FDB2
:105AF00001F024FE01F0ABFF059001F0E5FD02F09E
:105B000016F9044601F01AFE01F0E7FF064601F01F
:105B100015FE02F07BFA074601F010FE02F07BFA58
:105B2000059B594ACDE902708021CDE9004606A8BF
:105B30000AF042FC4F4806A9FEF7C8FA0AF0D4FB67
:105B400048B104F0B5FE514B8DF800501B78504918
:105B500006AAFFF767FD01F0B7FD044601F0B4FDAA
:105B600002F0E5F8013081B2204602F06BF907F04F
:105B7000CDFF044601F0E2FD01F069FF002201467D
:105B8000204608F0F9FE07F0C1FF044601F0D6FDFB
:105B900001F05DFF00220146204608F037FF01209A
:105BA00027B0F0BD1438C0B209280FE701F0C6FDD8
:105BB00001F066FF044601F0C1FD01F066FF50EA06
:105BC00004233FF405AF07F0A1FF044601F0B6FD42
:105BD00001F03DFF00220146204609F087F82D49DB
:105BE0002448FEF773FAF3E601F0A8FD01F039FF4F
:105BF000294902461F48FEF769FA0AF075FB00289A
:105C00003FF4E6AE04F054FE00238DF800301F4B45
:105C1000224A1B782249FFF705FDD9E601F08EFDE7
:105C200001F05BFF01283FF403AF01F087FD05465B
:105C300007F06CFF064601F081FD01F008FF014608
:105C4000304607F0EDFF01462846FDE601F076FDFF
:105C500001F002FF3BE7134906482246FEF736FAF9
:105C6000304600210DF0B7FC002099E7B4AE0320C8
:105C7000E9640C0034E603200C650C004A650C0056
:105C80001E6A0C00E4AF03208C650C00ACAE032050
:105C9000D9650C001B640C007E640C00B5640C001C
:105CA0009C5F0C00E0650C002DE9F043AD49AE4867
:105CB000AE4CA9B0FEF70AFA01F006FD02F032F888
:105CC000000A207001F000FD02F02CF8607001F075
:105CD00035FD01F0BCFEA07001F030FD02F08FF840
:105CE000000AE07001F02AFD02F089F820710CF042
:105CF000EEF9030E6371030CA371030AE3712072C2
:105D000001F0E2FC02F018F8000A607201F0DCFC1D
:105D100002F012F8A07201F0D7FC02F00DF89449DD
:105D200002469148FEF7D2F901F008FD01F08FFE1E
:105D3000A0F1FF0358425841E07201F0FFFC01F06E
:105D400090FE607301F0FAFC01F01FFD000EA073DD
:105D500001F0F4FC01F019FD000CE07301F0EEFC21
:105D600001F013FD000A207401F0E8FC01F00DFDC4
:105D7000607401F0E3FC01F06AFEA07407F0C6FE57
:105D8000054601F0DBFC01F000FD0146284607F066
:105D9000EBFF0546002800F0C08007F0B7FE05467F
:105DA00001F0CCFC01F0F1FC0146284608F01AF89D
:105DB000069007F0ABFE069907F0F8FE607307F057
:105DC000A5FE069908F082F901F0B8FC01F04EFE3C
:105DD000E07401F0B3FC01F04EFE207501F0AEFC62
:105DE00001F04EFE607501F0A9FC01F04EFEA075B9
:105DF00001F0A4FC01F030FE637B5E4902465A4884
:105E0000FEF764F901F09AFC01F026FE079001F01C
:105E100095FC01F02BFE069001F090FC01F02BFEAA
:105E2000054601F08BFC01F02BFE064601F086FCD6
:105E300001F02BFEDDE90632CDE901604E494A480A
:105E40000095FEF743F90023E375237601F076FC15
:105E500001F002FE00286FD101F070FC01F0F7FDA7
:105E6000464B1F880546012138460DF0B4FB0AF069
:105E700053FD434903462A463B48FEF727F90223D0
:105E800000933A493F482B46192207F061FC064629
:105E9000002856D101F052FC314601F0BFFE3146D8
:105EA00038460DF098FB01F049FC01F0D0FDA27AD4
:105EB000354B364C0746002A18BF1C4601F03EFC05
:105EC00001F00BFE804601F039FC02F09FF881469C
:105ED00001F034FC02F09FF82D4A00972B46CDE9E3
:105EE0000390CDE90148802108A80AF065FA1E4810
:105EF00008A9FEF7EBF80AF0F7F9044680B304F0BE
:105F0000D7FC244B8DF800601B78234908AAFFF7C3
:105F100089FB204629B0BDE8F0830AF0E5F90028A6
:105F200091D004F0C5FC1B4B8DF800501B781B4A28
:105F30001B49FFF777FB86E701F000FC01F08CFDC1
:105F40008EE701F0FBFB01F087FD1649024606488B
:105F5000FEF7BCF8002138460DF03DFB0024D8E7E1
:105F60000124D6E719660C0034E60320B4AE032002
:105F7000E9640C0032660C0064660C001E6A0C00BA
:105F8000DA660C00E4AF032012660C000E660C000B
:105F900008670C00ACAE0320D9650C00A3660C00AA
:105FA0009C5F0C005D670C0038B54B1EDBB2FD2B0F
:105FB0000D460ED801F088FB01F044FD10FB05F4FE
:105FC000A4B20549054823462A46FEF77FF8204635
:105FD00038BD0024FBE700BF84670C0034E60320D3
:105FE0004B1EDBB2FD2B37B50D46144602D90020FF
:105FF00003B030BD01F068FB01F024FD0A490090B8
:1060000023462A460948FEF761F801F05DFB01F0DE
:1060100019FDB4FBF0F08542E9D104480449FEF7CC
:1060200055F80120E4E700BFA4670C0034E6032024
:10603000E7670C00F0B55B4C85B001F07FFBA17AFF
:1060400001F0F8FD01F07AFBE17A01F0F9FD01F0D1
:1060500075FB217B01F0FAFD01F070FB617B01F023
:10606000FBFD01F06BFBA17B01F03EFE01F066FB46
:10607000E17B01F03FFEA379E2791340FF2B31D1A0
:10608000FE2100200CF0ABFFFE21074600200CF0A3
:10609000A6FF05460CF01BF804460CF018F806465F
:1060A00001F04CFB04F47F4141EA0764F6B2290495
:1060B000344301F47F01214301F078FB01F03EFB02
:1060C0000A2101F0B1FD01F039FB01F0C0FC0290A2
:1060D00001F034FB01F059FB029A3349034633487F
:1060E000FDF7F4FF01F02AFB044607F00FFD05461B
:1060F00001F024FB01F0ABFC029001F01FFB01F06A
:1061000044FB02990246284609F03CFC0146204621
:1061100001F07EFDFFF794FA044601F00FFB01F059
:1061200096FC029001F00AFB01F069FE029902461A
:106130002046FFF755FFA8B901F000FB054601F026
:10614000C3FA01F07FFC04460BF0EAFF14FB00F4F5
:1061500001F0F4FA01F07BFCA4B2211889B22846C0
:1061600001F088FE01F0EAFA01F076FC039001F0FC
:10617000E5FA01F06CFC029001F0E0FA01F03FFE5C
:10618000DDE902320A4900900848FDF79FFF01F05F
:10619000D5FA012101F090FD064B022201201A7070
:1061A00005B0F0BDB4AE0320F6670C0034E6032062
:1061B0002A680C00ABAE03202DE9F04188B0F9232A
:1061C0008DF81A300DF11F0303930DF11E03029396
:1061D0009E4D0DF11D03019307AB009307460DF192
:1061E0001B039B480DF11A02294607F0FDFA0446ED
:1061F000002800F025819DF81A300024EC5401F0AD
:106200009DFA9DF81B1001F003FD2E8801F05CFA49
:1062100001F088FD76BAB6B2B04213D001F08EFA22
:1062200001F015FC049001F04FFA01F07BFD049A97
:106230000090884988483346FDF748FF204608B05B
:10624000BDE8F08101F07AFA214601F035FD01F058
:1062500075FA214601F0E2FC01F070FA9DF81F107A
:106260007E4C01F03BFD01F069FAB5F8031049BA24
:1062700089B201F0FFFD01F061FA697901F0D4FC07
:1062800001F05CFAD5F80610754D09BA01F08EFAE6
:106290009DF81E3003F00F03237001F04FFA01F058
:1062A000D6FB059001F04AFA01F06FFA21780490CC
:1062B0006C4805EB011505F098FF0646694806F0A5
:1062C00025FF804601F03AFA01F016FCDDE90432C0
:1062D0006549CDE90280CDE900565F48FDF7F6FE3D
:1062E00001F02CFA01F0B3FBFF2837D107F00EFCC8
:1062F000054601F023FA01F0AAFB049001F01EFA12
:1063000001F043FA04990246284607F0F3FC0028FE
:1063100041D101F013FA054601F010FA01F097FBA4
:106320000146284601F07AFC01F008FAFF2101F04D
:106330006FFC01F003FAFF2101F0BEFC01F0FEF951
:1063400001F085FB049001F0F9F901F0C6FB049A15
:10635000464903464048FDF7B9FE12E0FFF770F9E1
:10636000054601F0EBF901F072FB049001F0E6F94B
:1063700001F045FD049902462846FFF731FE00284A
:10638000B4D02378032B1FD1FFF75AF9FFF71EFA79
:1063900030BB002452E701F0D1F901F058FB344939
:1063A00002462D48FDF792FE01F0C8F9054601F0BE
:1063B000C5F901F04CFB01463846FFF7F5FD0146F3
:1063C000284601F057FDDCE7012B04D1FFF738F92F
:1063D000FFF730FEDCE727491F48FDF777FED8E7D7
:1063E00001F072F901F006FDC0B101F06DF905464A
:1063F00001F06AF901F0FEFC0146284601F02EFD8D
:1064000001F062F9002101F02FFD01F05DF901F0CA
:1064100093FC194902461048FDF758FE2378042BD7
:1064200005D1FFF70DF9FFF7BDFA044606E7022B89
:1064300004D1FFF705F9FFF737FCF6E70F49CBE783
:10644000FFF7FEF8FFF710F9F8E600BFB4AE03203F
:10645000E4AF032070680C0034E60320ABAE0320E9
:106460006CAC0320B8B20320CA680C0056690C005B
:1064700015690C0089690C00A9690C00DD690C0024
:1064800038B50E4B0E4D0F490F4C097801221A708A
:106490000E4A0F4B1278284606F0B4FB0D4A104600
:1064A00001F078FF29460B4A204606F0C1FF21463D
:1064B0000948BDE83840002207F040B9ACAE0320DF
:1064C000B8B20320226A0C00B0AF0320246A0C008B
:1064D00064B4032098B10320E4AF032008B5174942
:1064E0001748FDF7F3FD022104200DF063F80021A9
:1064F00008200DF05FF8012107200DF05BF8002166
:1065000012200DF057F8012111200DF053F8012150
:1065100010200DF04FF8002110200DF05CF8002144
:1065200011200DF058F8012106200DF043F801214B
:1065300006200DF050F8012008BD00BF046A0C00D1
:1065400034E60320012070477047006A0368DB6867
:106550001847704710B504210446FDF7A0FD2046FA
:1065600010BD000010B5034B0360044602F0E0FFCD
:10657000204610BD74750C0010B50446FFF7F2FFFD
:10658000204640F62C11FDF78AFD204610BD7FB550
:1065900002685368906814685E1000EB6305DB07BF
:1065A00048BF8359684648BF1C590AF056FA6946E5
:1065B0002846A047044668460AF0D2F9204604B0AF
:1065C00070BD012A38B5044602D10B68236003E090
:1065D000022A03D0032A0DD0002038BD0C200D68FC
:1065E000FDF759FD03460028F0D095E8070083E841
:1065F0000700EBE700680028EED00C21FDF74FFD07
:10660000EAE737B51D4601AB044603F075F820B143
:1066100001992A46204603F071F903B030BD37B521
:106620001D4601AB044603F087F920B101992A46C3
:10663000204603F063F903B030BD37B504689DF818
:1066400018508DF800308DF8045024683C23A04782
:1066500003B030BD0A4B10B5044603600AF0E6FDF6
:1066600021460AF0EAFF0CF0C9FA0CF0B9FA20460C
:10667000044B40F8043B0AF07BFE204610BD00BFEF
:106680005C750C0044750C0010B50446FFF7E2FF82
:1066900020462421FDF703FD204610BD10B5064C11
:1066A000236833B90420FDF7F6FC08B1034B0360FF
:1066B0002060206810BD00BFF8B3032084750C0073
:1066C00030B5194985B004461848FDF7FFFC002590
:1066D0000C200295FDF7DFFC18B1154B8460C0E972
:1066E0000035144B009003931020134B0293FDF7D9
:1066F000D2FC044678B100238360029B33B10222AE
:1067000069469847039BE360029BA3600B4A0C48D1
:1067100021460BF01AFF029B1BB169460322084673
:10672000984705B030BD00BF2A6A0C0034E603204C
:10673000DD670B008F650B00C3650B00586A0C000A
:1067400023250C007FB50BF0C2FC1F4905461F48EE
:10675000FDF7BCFC002401A8CDE90144ADF80C40D4
:106760000BF004FF204609F05FFA43F69826044632
:10677000002009F059FA031B61F10001B34271F1E5
:10678000000305D209F0B0FD10B109F09DFDEFE75F
:1067900009F0AAFD09F038FA0D4B186009F094FDD4
:1067A00009F0A2FD30B109480A49FDF78FFC00202D
:1067B00004B070BD0BF08BFC0749421B0348FDF78A
:1067C00085FC0120F4E700BF616A0C0034E6032079
:1067D00028E703208A6A0C00AD6A0C002DE9F04F0F
:1067E0002DED028BADF6542D0C4608EE100AB5497E
:1067F0000DA80AF000F9B34911A80AF0FCF85023DB
:106800004FF48062009354A90DF5AA6349A802F0E1
:10681000F1FEAD4B2168AD484993FDF757FC49A8FF
:1068200002F0DEFE2168049108460EF0BCFE0499D9
:10683000024649A802F0B7FE49A803F02FFC8146A2
:10684000002848D1A249A34DA048FDF73FFC04F021
:106850002FF88DF800902B789D4A9F49FFF7EDFEA9
:1068600026680BF034FC9D4A4FF0FF338021CDE9C0
:10687000006029A809F0A0FD04F01AF88DF8009036
:106880002B78974929AAFFF7D8FE24680BF01FFC44
:10689000944A6FF009038021CDE9004029A809F04E
:1068A0008BFD04F005F88DF800902B788C4929AA0F
:1068B000FFF7C3FEC84649A8FFF754FE11A80AF027
:1068C0004FF80DA80AF04CF840460DF6542DBDECDB
:1068D000028BBDE8F08F49A802F0A7FE4FF0000838
:1068E00001467D4ADFF830B209AB49A803F024F82D
:1068F0004D46CDF810800999424649A802F0B7FEEE
:106900000646002835D1B8F1000FD4D009F0ECFCD0
:1069100068B3119E6F4C002D00F0B3840BF0D7FBD1
:10692000704ACDE9006001238021002629A809F0E2
:1069300043FD03F0BDFF8DF800602378684929AA64
:10694000FFF77BFE119F0BF0C2FB664ACDE900709A
:106950006FF00903802129A809F02EFD03F0A8FF9C
:106960008DF8006023785E4929AAFFF766FEA846E5
:10697000A1E701465C4A29AB49A802F0DDFF20B13E
:10698000299907AA49A802F0FBFE07F0BFF807996A
:1069900007F028FA31460DAB5A46044649A8FFF7DE
:1069A0003EFE3146514A11AB49A8FFF738FE314649
:1069B0000AAB5A4649A802F0BFFF4D4911A80AF098
:1069C000E1F819AE002800F0B980079F002F66D1CA
:1069D00048490DA80AF0D6F8002847D04649304665
:1069E0000EF0BBFD00F044FF00F08EFF4349374836
:1069F000FDF76CFB03F05CFF364B8DF800701B78E5
:106A00003F4A4049FFF719FE4FF4FA600BF09EFB36
:106A100009F01FFF00F058FE002101F013FA00F00A
:106A200053FE142101F09DF800F04EFE002101F00C
:106A300092F89DF86430202B11D0244819A9FDF755
:106A400045FB09F051FC50B103F032FF00238DF8F3
:106A50000030204B20491B7819AAFFF7EEFD08F102
:106A60000108B8F10A0F7FF446AF4FE726490DA899
:106A70000AF088F870B1254930460EF06EFD00F03E
:106A800023FE03689B69984700F0F2FE03689B6948
:106A90009847BFE71E4930460EF05FFDBAE7002C6D
:106AA00047D019490DA80AF06DF82346B0B3194A2A
:106AB0004021304609F080FC07F028F8214608F014
:106AC000B9FBB6E798920C0074750C0034E603200D
:106AD000D66A0C00F4B30320F46A0C00F86A0C00C8
:106AE0002A6B0C003F6B0C00726B0C00776B0C0078
:106AF0007A6B0C00806B0C00896B0C00AB6B0C008C
:106B0000E36B0C009C5F0C00F56B0C00F96B0C0048
:106B1000296C0C004E6C0C0069730C00A04A4021DB
:106B2000304609F049FC06F0F1FF214608F050FA22
:106B30007FE79C4930460EF010FD7AE79A4911A88C
:106B40000AF020F818B30D980A2208A90EF01CFECE
:106B5000431E3B2B044614D83C2393FBF0F34343E2
:106B60003C2B0ED10346914A4021304609F024FCCB
:106B700000F0AAFDC4EB0411890089B201F074F998
:106B800057E78B4930460EF0E8FC002551E789496C
:106B900011A809F0F7FF28B387490DA809F0F2FF03
:106BA000044648B1854930460EF0D7FC00F08CFD14
:106BB000012100F0CAFF3CE7814930460EF0CDFCD0
:106BC00000F082FD214600F0C0FF00F07DFD03686B
:106BD0000121DB68984718EE100AFFF7B3FD09F0B2
:106BE00038FE26E7774911A809F0CCFF48B176496D
:106BF00030460EF0B2FC06F089FF012107F086FB5B
:106C000017E7724911A809F0BDFF0746A8B10D9812
:106C10000A2208A90EF0B8FD0C2804460BD803463A
:106C20006B4A4021304609F0C7FB00F04DFDE1B250
:106C300000F09DFFFDE66749A4E7674911A809F048
:106C4000A1FF0590D8B10D980A2208A90EF09CFD6D
:106C5000A0F10D030B2B04460BD803465F4A4021DD
:106C6000304609F0A9FB00F02FFDE1B200F085FFEE
:106C7000DFE65B4930460EF070FC3D46D9E65949E7
:106C800011A809F07FFF3746A8B10D980A2208A97C
:106C90000EF07AFD182804460BD80346524A4021CC
:106CA000304609F089FB00F00FFDE1B200F06BFF08
:106CB000BFE64E4966E74E4911A809F063FFA8B147
:106CC0000D980A2208A90EF05FFDF02804460BD8A3
:106CD0000346484A4021304609F06EFB00F0F4FCC0
:106CE000E1B200F056FFA4E643494BE7434911A83F
:106CF00009F048FFA8B10D980A2208A90EF044FD3A
:106D0000182804460BD803463D4A4021304609F076
:106D100053FB00F0D9FCE1B200F041FF89E63949AC
:106D200030E7394911A809F02DFFA8B10D980A22C2
:106D300008A90EF029FDF02804460BD80346334A73
:106D40004021304609F038FB00F0BEFCE1B200F013
:106D50002CFF6EE62E4915E72E4911A809F012FF07
:106D600000285DD00D980A2208A90EF00DFD01281B
:106D7000044613D1284930460EF0EFFB00F0A4FC86
:106D8000214600F0EEFE00F09FFC04460BF09FF958
:106D90000246C317204601F0B7F84AE61F49F1E65C
:106DA0007A6C0C009B6C0C00B56C0C00BA6C0C007F
:106DB000E46C0C00046D0C00CE840C00096D0C001A
:106DC0003D6D0C005F6D0C00636D0C00786D0C0068
:106DD0007D6D0C009B6D0C00B46D0C00BA6D0C0049
:106DE000D86D0C00F36D0C00F96D0C001B6E0C00DF
:106DF0003B6E0C004E6E0C00716E0C00986E0C0019
:106E0000A56E0C00CF6E0C00F76E0C00116F0C001D
:106E10003C6F0C006B6F0C006F6F0C00936F0C00DD
:106E2000A24911A809F0AEFE064620B3002C00F0DE
:106E30001C820D980A2208A90EF0A6FC1D28064601
:106E400016D89B4A009403464021384609F0B4FA0C
:106E500006F05CFE3246214607F080FC002800F078
:106E60000D8206F053FE0122214607F085FDE0E584
:106E7000904919A887E6904911A809F083FE0028D7
:106E800000F08D800A9B1B78022B40F086808B4996
:106E900015A809F0B0FD894929A809F0ACFD0A99A7
:106EA0000CAB324649A802F027FC20B10C990BAA82
:106EB00049A802F053FC0A9915AB012249A8FFF733
:106EC000A0FB0A9929AB022249A8FFF79AFB002CE4
:106ED0005DD00B9E06F01AFE214607F0F7F8074634
:106EE00000284FD0771EFFB23F2F45D800F026FC78
:106EF000394600F09FFE724915A809F043FE58B9C3
:106F0000704915A809F03EFE074600F017FC391E2F
:106F100018BF012100F094FE694929A809F032FE4A
:106F200058B9684929A809F02DFE074600F006FC6B
:106F3000391E18BF012100F089FE299B0293F6B289
:106F4000159B614A019340212346009619A809F038
:106F500033FA06F0DBFD214607F07EFC06F0D6FD95
:106F60000122214607F008FD2F4629A809F0F8FC68
:106F700015A809F0F5FC80E6544919A80EF0EDFAC1
:106F80000027F2E7524919A80EF0E7FAEDE7514958
:106F900019A80EF0E2FA2746E7E74F4969E74F499B
:106FA00011A809F0EFFD00B3002C00F05E810D98F0
:106FB0000A2208A90EF0E8FB0428064613D8484A1E
:106FC000009403464021384609F0F6F906F09EFD8C
:106FD0000722214607F0D0FC06F098FD32462146F4
:106FE00007F014FD25E53F4943E73F4911A809F0A3
:106FF000C9FDE8B1002C00F038810D980A2208A9DB
:107000000EF0C2FB0228824610D8384A009403468C
:107010004021384609F0D0F906F078FD08222146D3
:1070200007F0AAFC06F072FD5246D8E7304920E787
:10703000304911A809F0A6FDC0B1002C00F015815F
:107040000D980A2208A90EF09FFBB0F5FA6F0646CC
:107050000AD8294A009403464021384609F0ACF981
:1070600006F054FD0922B4E7244902E7244911A897
:1070700009F088FD002849D0002C00F0F6800D981A
:107080000A2208A90EF080FBB0F57A7F82460AD862
:107090001C4A009403464021384609F08DF906F059
:1070A00035FD0A22BBE71849E3E600BFAE6F0C00CE
:1070B000B36F0C00D96F0C0026700C0098920C0076
:1070C00032700C00CE840C0037700C0074700C0011
:1070D000AC700C00F46F0C00D9700C000C710C003B
:1070E00015710C0039710C004F710C005C710C00B3
:1070F00083710C00B8710C00CB710C00F8710C009E
:1071000023720C003D720C0071720C00734911A8BF
:1071100009F038FD98B1002C00F0A78070490DA847
:1071200009F030FD48B16F4A23464021384609F046
:1071300043F906F0EBFC0B2296E66B4999E66B49A6
:1071400011A809F01FFDF8B1E4B969490DA809F0CB
:1071500019FD38B1674919A80EF0FFF906F050FC87
:1071600006F060FC64490DA809F00CFD40B16349CC
:1071700019A80EF0F2F906F043FC06F05AFC58E4A8
:107180005F4976E65F4974E65F4911A809F0FAFCA9
:10719000C0B1ACB90D980A2208A90EF0F5FA461E46
:1071A0003F2E03460AD8594A4021384609F004F9CF
:1071B00006F0ACFC314608F089F83AE4544958E648
:1071C000544956E6544911A809F0DCFCA8B1002C3A
:1071D0004BD008A90D980A220EF0D6FA4F4A009417
:1071E000034606464021384609F0E6F806F008FC5A
:1071F0003246214606F024FC1BE4494911A809F057
:10720000C1FCB0B18CB30D980A2208A90EF0BCFAEB
:10721000431E1D2B06460AD8424A009403464021CD
:10722000384609F0C9F806F071FC0D22D1E63E4956
:107230001FE63E4911A809F0A5FCC0B1ACB10D98FC
:107240000A2208A90EF0A0FA431E3B2B82460AD858
:10725000374A009403464021384609F0ADF806F05D
:1072600055FC0E22DBE6334903E6334901E6334998
:1072700019A80EF072F9CDF8109086E40546FFF7D4
:10728000D8BB049B23B30AF022FFCDE900600223A0
:107290002B4A802129A809F08FF803F009FB8DF80B
:1072A00000502378274929AAFFF7C7F9119E0AF051
:1072B0000EFF234ACDE900606FF00903802129A861
:1072C00009F07AF803F0F4FA8DF80050FFF74ABBA2
:1072D0000AF0FDFE2B46CDE90060D9E7A0720C0054
:1072E000CE840C00AC720C00D1720C00F9720C0050
:1072F000F56B0C0009730C002D730C0031730C003E
:107300004B730C006D730C00A18E0C0098730C0075
:10731000AB730C00D1730C0000740C0017740C00DC
:107320003F740C0059740C0091740C00B5740C007F
:10733000CF740C0002750C00F46F0C0026750C0065
:107340003F6B0C002A6B0C0070B5D0E9005314267B
:10735000044606FB0356AE4204D0284609F000FB63
:107360001435F8E7206809F007F8204670BD884218
:10737000F8B504460D46164616D9904215D2A2F12C
:107380001406751AA1F114072C44B7421CD02CB175
:107390003146204609F061FB337C2374304609F006
:1073A000DFFA143E143CF0E70ED0B5420CD02CB1FD
:1073B0002946204609F051FB2B7C2374284609F00E
:1073C000CFFA14351434F0E7F8BD2DE9F04100236D
:1073D000C0E9003383604F689F4204460E4623DDB8
:1073E0004FF0140808FB07F008F0BEFF0546D8B1BF
:1073F000D4E9001208FB0212FFF7B9FF206808F079
:10740000BBFF2560A760D6E9007308FB0378B84589
:1074100008D03946284609F03AFB3B7C2B741437D8
:107420001435F4E7736863602046BDE8F08100001E
:1074300070B5274B274A01251D70274B00248CB0BF
:107440009A60C3E90044022008F06EFE21462846F7
:1074500008F082FE2946042008F006FCCDE900442D
:1074600002940BF0CBFB1D4C0546694603A8FFF7C1
:10747000ACFF264603A906A8FFF7A7FF184B46F85E
:10748000043B06A909A8FFF7A0FF09AA1E21304660
:107490000AF0B6F909A8FFF757FF06A8FFF754FF4F
:1074A000104B2360256203A8FFF74EFF0E4B2360AD
:1074B0000BF0A4FB4FF416510BF08EFB09F0B6FE57
:1074C00021460AF073F86846FFF73EFF0CB070BD26
:1074D000F4B303200000FFFFE8B30320FCB3032054
:1074E00044750C00C8920C005C750C0010B5034B81
:1074F0000360044601F044FD204610BDEC760C000C
:1075000010B50446FFF7F2FF20461021FCF7C7FD37
:10751000204610BD10B501F04FFF044620B9034AC4
:1075200003490448FCF7D2FD204610BD8C750C00C1
:1075300096750C0034E6032010B5044601F0A2FF56
:1075400004480549FCF7C2FD2046BDE8104001F0A3
:10755000F7BE00BF34E60320A9750C0010B501F09A
:107560002BFF044620B9034A03490448FCF7AEFD4B
:10757000204610BD8C750C00C2750C0034E603204B
:1075800010B5036804460BB908F00EFC2068BDE88E
:10759000104008F019BC38B504460430FFF7F0FF7E
:1075A000606AA16A0368DD68D4E90223A8476068BD
:1075B00008F012FC2046BDE8384001F019BE38B58D
:1075C00004460430FFF7DCFF606AA16A03689D6827
:1075D000D4E90223A847A2682368D1885B692046C2
:1075E000984718B9236820469B699847606808F057
:1075F000F3FB012038BD000010B5044B03600446C6
:10760000406808B108F0D8FB204610BDD87A0C00BD
:1076100010B5034B03600446FFF7EEFF204610BD94
:1076200034770C0010B50446FFF7F2FF20467021B6
:10763000FCF735FD204610BD10B5034B0360044632
:10764000FFF7DAFF204610BD60770C0010B5044646
:10765000FFF7F2FF20466021FCF721FD204610BD18
:1076600010B5034B03600446FFF7C6FF204610BD6C
:1076700008770C0010B50446FFF7F2FF204640F6ED
:107680003C41FCF70CFD204610BD000000F130012C
:1076900081600A494FF0400CC0E903C10121818299
:1076A0004FF47A71C16106490022C0E909124260B3
:1076B000826180F82020034A02607047769EA920EC
:1076C0002CB4032034770C0010B5064C23683BB96A
:1076D0007020FCF7E0FC034608B1FFF7D7FF2360FA
:1076E000206810BD24B4032010B5FFF7EDFF036838
:1076F000BDE81040DB6800211847000000F12C01B4
:10770000002281600A4942604FF0340C826180F8A7
:107710002020084A4262C0E903C164220321818219
:1077200082624FF47A71044AC1610260704700BFFF
:10773000809EA9202CB4032060770C0010B5064C65
:1077400023683BB96020FCF7A6FC034608B1FFF7AD
:10775000D5FF2360206810BD28B4032010B5406A0F
:1077600001F024FCFFF7EAFF4FF4FA720368C261EC
:10777000BDE810405B68184710B5FFF7DFFF0368EE
:10778000BDE81040DB680021184738B504460430D6
:10779000FFF7F6FEE3686068043B172B86BFA3681B
:1077A0009D69002508F018FB284638BD38B5044609
:1077B00004300D46FFF7E4FEE368043B172B07D9BE
:1077C000A3689A69954203D09D61204601F0B8FDF7
:1077D0006068BDE8384008F0FFBA38B504460430A8
:1077E000FFF7CEFEE3686068013B242B86BFA368E9
:1077F00093F92550002508F0EFFA284638BD38B532
:10780000044604300D46FFF7BBFEE368013B242B22
:1078100009D9A36893F92520AA4204D083F82550FA
:10782000204601F08DFD6068BDE8384008F0D4BA0C
:1078300000F12C01002281600A4942604FF4416C42
:10784000826180F82020084A4262C0E903C1C82250
:107850000221818282624FF47A71044AC16102601E
:10786000704700BF609EA9202CB4032008770C004D
:1078700010B5074C236843B940F63C40FCF70BFCBD
:10788000034608B1FFF7D4FF2360206810BD00BF96
:1078900020B4032010B5406A01F088FBFFF7E8FF31
:1078A0004FF4FA720368C261BDE810405B68184784
:1078B00010B5FFF7DDFF0368BDE81040DB6800216D
:1078C0001847000038B504460D46064909F093F8FC
:1078D00023464FF440621021284601F0BFFC2046A9
:1078E00038BD00BF98920C0010B50B464FF44062B3
:1078F000102101F031FD0446FFF7BAFF03680021B3
:10790000DB689847204610BD10B5144C144988B068
:10791000684609F070F8009A12492046FCF7D6FB39
:10792000FFF7A6FF0099FFF7DFFFFFF7A1FF03684E
:107930000121DB689847FFF79BFF014604A8FFF78A
:10794000C1FF049A08492046FCF7C0FB04A809F0CF
:1079500007F8684609F004F808B010BD34E60320C3
:10796000D4750C00E1750C0000760C00F8B51049D8
:1079700004461048FCF7AAFBC82540F6D846606AC2
:1079800003682946DF68FF2202230135B847B54264
:10799000F5D109490748FCF799FB204601F072FD33
:1079A0002046FFF7B1FF2046BDE8F84001F0C8BC13
:1079B00016760C0034E603202A760C0038B504460F
:1079C00004300D46FFF7DCFDE3686068013BAB4225
:1079D00026BFA3685D5D002508F0FEF9284638BD86
:1079E00008B51021FFF7EAFF08BD08B51421FFF71D
:1079F000E5FF08BD08B51521FFF7E0FF08BD08B594
:107A00002E21FFF7DBFF08BD08B53821FFF7D6FFB1
:107A100008BD08B53921FFF7D1FF08BD08B53A21E7
:107A2000FFF7CCFF08BD08B53B21FFF7C7FF08BD36
:107A300008B53C21FFF7C2FF08BD08B53D21FFF79F
:107A4000BDFF08BD08B53E21FFF7B8FF08BD08B56A
:107A50001021FFF7B3FF08BD08B51121FFF7AEFFF6
:107A600008BD08B51421FFF7A9FF08BD08B51C2102
:107A7000FFF7A4FF08BD08B51D21FFF79FFF08BD54
:107A800008B51E21FFF79AFF08BD08B51F21FFF7B3
:107A900095FF08BD08B52021FFF790FF08BD08B588
:107AA0002121FFF78BFF08BD08B52221FFF786FFD4
:107AB00008BD08B52321FFF781FF08BD08B52421C3
:107AC000FFF77CFF08BD08B52621FFF777FF08BD4B
:107AD00008B52721FFF772FF08BD08B52C21FFF775
:107AE0006DFF08BD08B52D21FFF768FF08BD08B57B
:107AF0002E21FFF763FF08BD08B52F21FFF75EFFBA
:107B000008BD70B5044604300D461646FFF738FD33
:107B1000E368013BAB4207D3A3685A5DB24203D08E
:107B20005E55204601F00CFC6068BDE8704008F02E
:107B300053B908B50A461021FFF7E3FF08BD08B5A1
:107B40000A461121FFF7DDFF08BD08B50A461421DA
:107B5000FFF7D7FF08BD08B50A461521FFF7D1FF8B
:107B600008BD08B50A462E21FFF7CBFF08BD08B5B2
:107B70000A463821FFF7C5FF08BD08B50A46392176
:107B8000FFF7BFFF08BD08B50A463A21FFF7B9FF66
:107B900008BD08B50A463B21FFF7B3FF08BD08B58D
:107BA0000A463C21FFF7ADFF08BD08B50A463D2156
:107BB000FFF7A7FF08BD08B50A463E21FFF7A1FF62
:107BC00008BD000010B5406A01F0F0F9FFF77CFD38
:107BD0004FF4FA720368C2615B689847FFF774FD5F
:107BE000FF21044601200BF0FAF9C1B22046FFF74D
:107BF000E2FFFFF769FDFFF725FF0349024603484F
:107C0000FCF764FA10BD00BF3C760C0034E603209C
:107C100008B50A461021FFF774FF08BD08B50A46EB
:107C20001121FFF76EFF08BD08B50A461421FFF7C2
:107C300068FF08BD08B50A461C21FFF762FF08BDB2
:107C400008B50A461D21FFF75CFF08BD08B50A46C6
:107C50001E21FFF756FF08BD08B50A461F21FFF792
:107C600050FF08BD08B50A462021FFF74AFF08BDAE
:107C700008B50A462121FFF744FF08BD08B50A46AA
:107C80002221FFF73EFF08BD08B50A462321FFF772
:107C900038FF08BD08B50A462421FFF732FF08BDAA
:107CA00008B50A462621FFF72CFF08BD08B50A468D
:107CB0002721FFF726FF08BD08B50A462C21FFF74C
:107CC00020FF08BD08B50A462D21FFF71AFF08BDA1
:107CD00008B50A462E21FFF714FF08BD08B50A466D
:107CE0002F21FFF70EFF08BD08B50A463021FFF728
:107CF00008FF08BD08B50A463121FFF702FF08BD9D
:107D000038B5044604300D46FFF73AFCE368606876
:107D1000023BAB4226BFA3685D5B002508F05CF820
:107D2000284638BD08B51221FFF7EAFF08BD08B59F
:107D30001621FFF7E5FF08BD08B52A21FFF7E0FF90
:107D400008BD000013B501F037FB0446A0B1FFF7F2
:107D5000BBFCFFF759FE0C2817D9FFF7B5FCFFF75E
:107D600053FE0190FFF7B0FCFFF753FE019A1B4949
:107D700003461B48FCF7AAF91A4A1B491848FCF7A6
:107D8000A5F90024204602B010BDFFF79DFCFFF7C7
:107D900040FE0B28E1D9FFF797FCFFF7CDFF90B12C
:107DA000FFF792FCFFF7C8FF3C280CD8FFF78CFCCC
:107DB000FFF716FE0028E5D0FFF786FCFFF710FE60
:107DC0000A49024605E0FFF77FFCFFF7B5FF0849C7
:107DD00002460348FCF77AF9CEE700BF4D760C0067
:107DE00034E603208C750C00BD760C009E760C00EA
:107DF00079760C0008B52C21FFF782FF08BD08B585
:107E00001221FFF77DFF08BD70B5044604300D4612
:107E10001646FFF7B5FBE368023BAB4207D3A36806
:107E20005A5BB24203D05E53204601F089FA606883
:107E3000BDE8704007F0D0BF08B50A461221FFF731
:107E4000E3FF08BD08B50A461621FFF7DDFF08BDB0
:107E500008B50A462821FFF7D7FF08BD08B50A462E
:107E60002A21FFF7D1FF08BD08B50A462C21FFF7EC
:107E7000CBFF08BD08B50A461221FFF7C5FF08BDB4
:107E8000F8B5044604300D46FFF77AFBE3686068F6
:107E9000083BAB4223BFA1684919D1E9006700261E
:107EA00038BF002707F098FF30463946F8BD08B5BF
:107EB0002021FFF7E5FF08BDF8B5044604300D4664
:107EC0001E461746FFF75CFBE368083BAB420CD34A
:107ED000A3685A1958595168B14208BFB84204D032
:107EE0005F512046566001F02BFA6068BDE8F8400B
:107EF00007F072BF08B51821FFF7DEFF08BD08B50F
:107F00002021FFF7D9FF08BD08B53021FFF7D4FFC6
:107F100008BD000010B5044601F0B4FA30493148FC
:107F2000FCF7D4F8FFF7D0FB0021FFF702FEFFF7C4
:107F3000CBFB0121FFF703FEFFF7C6FB46F6E1315D
:107F4000FFF77AFFFFF7C0FB0021FFF7FEFDFFF709
:107F5000BBFB0021FFF7FFFDFFF7B6FB0021FFF79A
:107F600071FFFFF7B1FB00220023FFF7C3FFFFF70C
:107F7000ABFB3C21FFF772FFFFF7A6FB0021FFF7E9
:107F800073FFFFF7A1FB0021FFF7EBFDFFF79CFB61
:107F900000220023FFF7B8FFFFF796FB0621FFF74B
:107FA000E6FDFFF791FB1621FFF7E7FDFFF78CFBDE
:107FB0000E21FFF7E8FDFFF787FB1E21FFF7E9FD24
:107FC000FFF782FB0D21FFF7EAFDFFF77DFB1E2186
:107FD000FFF7EBFD2046BDE8104001F0B1B900BF4E
:107FE000D2760C0034E6032038B5044604300D4642
:107FF000FFF7C6FAE3686068023BAB4226BFA3689E
:108000005D5F002507F0E8FE284638BD08B5282149
:10801000FFF7EAFF08BD08B52A21FFF7E5FF08BD15
:1080200070B5044604300D461646FFF7A9FAE3681A
:10803000023BAB4207D3A3685A5FB24203D05E5300
:10804000204601F07DF96068BDE8704007F0C4BECD
:1080500008B50A462821FFF7E3FF08BD08B50A4620
:108060002A21FFF7DDFF08BD10B50BF06DFB054CB5
:10807000014600234FF40052204600F08DFF024BD2
:10808000236010BD2CB40320EC760C00014B036080
:10809000704700BF8C770C00704701440023884272
:1080A00002D000F8013BFAE770471020704720200B
:1080B0007047000010B5064B04464FF4887140F835
:1080C000083BFFF7EAFF2046FFF7E6FF204610BD1A
:1080D000B4770C0010B50446FFF7ECFF20464FF4D0
:1080E0009071FBF7DCFF204610BDF0B5844687B0E9
:1080F0000D4600F10807516810686B4603C30EBABD
:1081000003BAD168906802AC03C40CBA01BACDE9D5
:108110000063CDE902419CF818010022E8B1320A5F
:1081200042EA03621B0A43EA06633E68121986EAC2
:1081300002067A6841EB03035340CA0042EA5472D4
:10814000E40044EA517400F1FF3C82EA0301744008
:108150005FFA8CF008370122E0E71AB1CDE900633D
:10816000CDE90241009B019A1BBA12BACDE9042362
:1081700004AB03CB039A029B28601BBA12BACDE969
:10818000042304AB696003CBA860E96007B0F0BDCD
:10819000F0B590F8186187B00C4600EBC605516841
:1081A00010686B4603C391FA81FC07BAD1689068E6
:1081B00003C3029B08BA1BBACDE900C7CDE902038D
:1081C0000022E6B18CEA00027B40D00840EA43700E
:1081D000DB0843EA4273D5E900218CEA0202121A55
:1081E00081EA070161EB03010F0247EA1267013ED2
:1081F000120242EA116CF6B2083D0122E1E71AB11F
:10820000CDE900C7CDE90203009B019A1BBA12BA5F
:10821000CDE9042304AB03CB039A029B20601BBA75
:1082200012BACDE9042304AB616003CBA060E16026
:1082300007B0F0BD2DE9F047202A88B003460C4670
:1082400064D10868496804AA03C202BA09BAA068DE
:10825000CDE90412E16802AA03C202BA09BA206990
:10826000CDE9021261696A4603C202BA09BACDE9D0
:108270000012A2699A60E269DA60D9689A6809BA5C
:1082800012BAC3E90212042606F11E0E721E00275E
:1082900083F818E1D2B23D4606F11D0E5FFA87F869
:1082A000F04567DA08A800EBC50050E908A403EB25
:1082B000C80CDCE902194FEA1A2040EA04604018B1
:1082C0004FEA142480EA080044EA0A640DF1200809
:1082D00049EB040408EBC20848E908044FEAC9085E
:1082E00048EA5178C90041EA5971013501324140EB
:1082F00088EA0404EDB2D2B2CCE90414AE4298BFCD
:108300000025964298BF00220137C7E7182A1BD1E3
:108310000868496802AA03C202BA09BAA068CDE98E
:108320000212E1686A4603C202BA09BACDE9001234
:1083300022699A606269DA60D9689A6809BA12BAE1
:10834000C3E9021203269FE7102A1BD10868496877
:108350006A4603C202BA09BACDE90012A2689A605D
:10836000E268DA60D9689A6809BA12BAC3E90212F7
:10837000022689E768462021FFF78FFE012008B01A
:10838000BDE8F0870020FAE74FF488710830FFF766
:1083900084BE000010B50446FFF778FE034B23604F
:1083A000202384F81831204610BD00BFB4770C009C
:1083B000704710B520210446FBF771FE204610BD22
:1083C00010B504468AB008464FF0200C0021CDE9D4
:1083D0000023CDE902C10B4602AA216807F074FE12
:1083E0000AB010BD0EB403B503AB322153F8042B11
:1083F0000193FFF7E5FF02B05DF804EB03B07047AF
:108400000EB403B503AB012153F8042B0193FFF71E
:10841000D7FF02B05DF804EB03B0704710B50272ED
:10842000FF2242810022C0E9032242610276C2613A
:10843000024A034C1060C0E9004110BD40B4032063
:10844000147A0C002DE9F8439DF8208004468946F3
:1084500016461F46B8F1000F02D040680AF0A2FD90
:10846000217A60680AF07BFD6068036849469B6872
:108470009847606800210AF091FD054600BB012382
:10848000217A60683A460AF058FD8742034609D1CE
:108490003744BE421CD0606803685B69984706F8A1
:1084A000010BF6E70B490C484A46FFF79BFFB8F172
:1084B000000F02D060680AF07EFD2846BDE8F88310
:1084C0000346064904484A46FFF78CFF0025EEE7BD
:1084D0000125ECE7D4770C003CB40320F9770C00BD
:1084E00007B500930123FFF7ADFF03B05DF804FB70
:1084F00013B543890446FF2B09D007F085FBB0F57F
:108500007A7F04D260890BF07FF80128F4E7012319
:108510000DF1070228212046FFF7E2FF30B90C4891
:108520000C49FBF7D3FD002002B010BD9DF80730C9
:10853000182BF4D101230DF1070229212046FFF762
:10854000CFFF0028EBD09DF80730052BE7D1EBE7F4
:108550003CB403201D780C0007B5134600228DF8AB
:1085600007200DF10702FFF7BBFF9DF8070003B0DE
:108570005DF804FB2DE9F0419DF8188004460F4694
:1085800015461E46B8F1000F02D040680AF00AFDF9
:10859000217A60680AF0E3FC6068036839469B68EA
:1085A00098472E44B542606805D0036815F8011B52
:1085B0009B689847F6E701210AF0F0FC034670B18A
:1085C000084909483A46FFF70DFF0025B8F1000FAA
:1085D00002D060680AF0EFFC2846BDE8F081012572
:1085E000F4E700BF2A780C003CB403201FB58DF8D7
:1085F0000F2000930DF10F020123FFF7BBFF05B021
:108600005DF804FBF8B50A460C4605461A491B48B6
:10861000FBF75CFD002CB8BFEC687CB90123224657
:108620001B212846FFF7E2FF15490246064613487C
:10863000FFF7E6FEEC606C613046F8BD032C19DDF7
:10864000A7101F2FA8BF1F27BA0062F07C020123CA
:10865000D2B21B212846FFF7C9FF3A460346094913
:1086600006460648FFF7CCFE4FF4FA635F43EC6022
:108670006F61E1E70127E7E74F780C003CB4032086
:1086800059780C0075780C00064B1A684AB1A0F5B1
:1086900000630B4305D1D3681BB100211046FFF7DF
:1086A000B1BF704740B403202DE9FF419DF82880F9
:1086B000054616461F46B8F1000F04D040680191E8
:1086C0000AF070FC0199019100230DF10F02284678
:1086D000FFF706FF044660B19DF80F3003EA06027B
:1086E0003A43934205D0019900232846FFF77EFFC5
:1086F0000446B8F1000F02D068680AF05CFC20461E
:1087000004B0BDE8F08113B514460DF10702FFF780
:10871000E7FE28B19DF807301C420CBF0120002065
:1087200002B010BD13B514460DF10702FFF7D8FED5
:1087300028B19DF807301C4214BF0120002002B070
:1087400010BD07B5D2430093D2B20023FFF7ACFFB0
:1087500003B05DF804FB000037B501230DF10702FB
:108760000F210446FFF7BCFE054640B91F492048CB
:108770004FF49772FFF736FE284603B030BD9DF8E0
:10878000073013F0200F4FF001030BD02022E361DC
:108790000F212046FFF7D5FF164A17491448FBF76B
:1087A00095FCE9E7082217212046FFF7BBFF18B127
:1087B0000223124AE361F0E79DF807301A0709D552
:1087C0000323E361082201230F212046FFF7B9FFAD
:1087D0000B4AE2E75B07CFD50422E26101230F21B8
:1087E0002046FFF7AEFF074AD7E700BFC8780C0066
:1087F0003CB4032099780C00E7780C00A2780C00B8
:10880000B2780C00C2780C0007B500931346FF2223
:10881000FFF74AFF03B05DF804FB0000F8B50F4610
:108820001646012300220F210546FFF7DFFE04460E
:1088300038B94FF452721F491F48FFF7D3FD204645
:10884000F8BD0123232218212846FFF7CFFE044656
:1088500010B940F24F32EEE7FF2FA8BFFF27012FDC
:10886000B8BF01270123FAB219212846FFF7BEFE3F
:10887000044610B94FF45772DDE701230822122194
:108880002846FFF7C1FF044610B940F26332D2E731
:10889000002E14BF03220222012342F0800218217D
:1088A0002846FFF7A3FE04460028C8D140F26D32E7
:1088B000C1E700BFF8780C003CB403202DE9F74372
:1088C0000A4605460F464F484F49FBF7FFFB00217C
:1088D0002846FFF797FE044648B940F2AB224B49C1
:1088E0004848FFF77FFD204603B0BDE8F083012331
:1088F0001A4630212846FFF787FF044610B940F298
:10890000B922ECE71022012311462846FFF719FF90
:10891000044610B94FF43072E1E7012326221321F7
:108920002846FFF763FE044610B940F2C722D6E797
:10893000012600963346FC2211212846FFF7B4FE9B
:10894000044610B940F2CF22C9E700223946284632
:10895000FFF764FF044610B940F2D622BFE7009645
:108960000223772210212846FFF79EFE044610B905
:1089700040F2DF22B3E7334604221C212846FFF7EA
:1089800043FF044610B940F2E622A8E700961823F8
:10899000E32211212846FFF787FE044610B940F272
:1089A000ED229CE73346C02217212846FFF71EFE22
:1089B000044610B94FF43D7291E707F025F9DFF84E
:1089C0005490DFF840804FF47A7106464F4307F029
:1089D0001BF9801BB8420ED2012217212846FFF74F
:1089E000BBFD494602464046FBF770FB4FF47A70E8
:1089F00009F0ACFBEBE706490248FFF7F3FC07F090
:108A000028FF70E73CB4032023790C0018790C0090
:108A100049790C0034790C002DE9F3479DF828A022
:108A200005460C4691461F46BAF1000F02D0406839
:108A30000AF0B8FA07B3202F3E4628BF20267F2C25
:108A400026D83319802B01D9C4F1800601230422D2
:108A50003F212846FFF775FE002364F07F01009355
:108A60004A463346C9B22846FFF7ECFC804628B197
:108A70003444BF1BB144DDE74FF00108BAF1000FE9
:108A800002D068680AF097FA404602B0BDE8F08765
:108A9000012304223F212846FFF7B6FEDCE72DE93B
:108AA000F3479DF828A005460C4691461F46BAF1AB
:108AB000000F02D040680AF075FA07B31F2F3E4638
:108AC00028BF1F267F2C26D83319802B01D9C4F14B
:108AD0008006012304223F212846FFF732FE0023AF
:108AE00064F07F0100934A463346C9B22846FFF737
:108AF00041FD804628B13444BF1BB144DDE74FF04F
:108B00000108BAF1000F02D068680AF054FA404632
:108B100002B0BDE8F087012304223F212846FFF779
:108B200073FEDCE730B585B00D68D1E904320395FA
:108B30004D6802958D680195C9680091013304491B
:108B400002F26C72044608F065F8204605B030BDAC
:108B50005B790C0003090A2200F00F0002FB0300FE
:108B6000704738B5044600781546FFF7F3FF0860F4
:108B70006078FFF7EFFF4860A078FFF7EBFF8860B1
:108B8000E078FFF7E7FFC8602079FFF7E3FF0138DF
:108B900008612DB9651D2878FFF7DCFF886138BDB5
:108BA0006079FFF7D7FF6430A51D4861F3E7000047
:108BB000F0B5012389B00D46164610211A46044629
:108BC000FFF7A1FD20B308230127204600970DEBF6
:108BD00003020021FFF736FC0446C8B13A46294695
:108BE0000DF10900FFF7BDFF9DF80800FFF7B2FF88
:108BF000307004A8FFF796FF09483378049A0949B2
:108C0000FBF764FA04A807F0ABFE204609B0F0BDFC
:108C10002422002128460CF0FBFB0024F5E700BFCE
:108C20003CB4032079790C00F0B59DB00E46154692
:108C300001A90DF101020746FFF7BAFF9DF80130C7
:108C400004468BB90DF102020AA93846FFF7B0FFBE
:108C500004460AA807F000FCC6E900019DF80230AE
:108C60002B7020461DB0F0BD632B0AD10DF102021E
:108C70000AA93846FFF79CFF9DF80230632B044693
:108C800007D101A807F0E8FB9DF80130C6E9000113
:108C9000E6E70DF1030213A93846FFF789FF044602
:108CA00013A807F0D9FB9DF80330C6E90001D7E708
:108CB0000A2390FBF3F103FB110091FBF3F203FB9A
:108CC000121240EA0210C0B2704770B50546006843
:108CD0000C461646FFF7ECFF20706868FFF7E8FFC8
:108CE0006070A868FFF7E4FFA070E868FFF7E0FF96
:108CF000E07028690130FFF7DBFF20712EB9661D97
:108D0000A869FFF7D5FF307070BD6A69642392FBD4
:108D1000F3F003FB1020FFF7CBFFA61D6071EFE718
:108D2000F0B587B01446054602A81E460F46FFF769
:108D3000F9FE2048029A20492346FBF7C7F902A80A
:108D400007F00EFE16B168680AF02CF92046FFF70E
:108D5000AFFF01228DF808000DF109013846FFF739
:108D6000B4FF01231A4610212846FFF74DFD0446A3
:108D7000E8B10021082300910DEB03022846FFF71C
:108D8000F9FB044660B101231A4610212846FFF77B
:108D9000D8FC16B168680AF00EF9204607B0F0BD9D
:108DA00040F29B1205490348FFF71CFBF1E740F234
:108DB0009F12F7E73CB403208A790C009B790C00E2
:108DC00013B504466846CDE900230CF0D3FA9DF8AC
:108DD00014309DF8102001462046FFF7A1FF02B095
:108DE00010BD000070B5057E8CB00446002D45D145
:108DF00009F050F9002841D00022002308A9284694
:108E0000CDE9082307F098FA002837D00126267606
:108E100009F05DF9C317CDE904030DF10F0206A9AE
:108E20002046FFF701FF09F052F9069BC01A0028FF
:108E3000B8BF40420A2806DDCDE90056DDE904232B
:108E40002046FFF7BDFF00230022CDE9042304A93B
:108E50000DF10F022046FFF7E7FE134B13491B6885
:108E6000009308A8DDE9042309F0D2F81048089A15
:108E70001049FBF72BF908A807F072FD63698BB165
:108E800006F0C2FE2369C01A636998420AD306F04D
:108E9000BBFE4FF0FF31206120460CB0BDE87040B2
:108EA000FFF7B0BB0CB070BDE4AC032060E603205C
:108EB0003CB40320B6790C0030B504468DB011B136
:108EC00040680AF01DF82046FFF712FB08AD0028A5
:108ED00039D02046FFF740FC01231A4610212046D6
:108EE000FFF711FCE8B109F0D5F8D0B90DF10F0288
:108EF00004A92046FFF798FEDDE9040108F0CEFF43
:108F0000134B14491B6800932846DDE9042309F03C
:108F10007FF81148089A1149FBF7D8F8284607F05E
:108F20001FFD0F4B08930F4B0B930F4B0A934FF4FE
:108F30000062002304A80095FBF754FD2846FBF7C8
:108F400003FA0DB030BD09490348FFF74BFAE8E7D3
:108F5000E4AC032060E603203CB40320CC790C0091
:108F600089860B000B430B00F7420B00E9790C00DC
:108F7000014B024A1A6070473CB40320017A0C008E
:108F8000704710B510210446FBF789F8204610BD44
:108F90000368C9B29B68184730B5034DC0E9022386
:108FA000C0E9005130BD00BF2C7A0C00406809F0C8
:108FB000A7BF10B50446006809F0FDFF204610BDAC
:108FC0002DE9F7430446406801900D4616461F46BA
:108FD00009F0E8FFA7B1E168606841F0500109F0CD
:108FE000C2FF290A6068FFF7D3FF29466068FFF7D0
:108FF000CFFF6068002109F0D1FF48B1002400E0F4
:10900000012401A8FFF7D5FF204603B0BDE8F08397
:10901000202F217B6068B84628BF4FF0200801232D
:10902000424641F0500109F088FF0AF08DFB0368C9
:109030001B6998474045E1DB06EB08090AF084FB11
:1090400003685B69984706F8010B4E45F6D1454425
:10905000A7EB0807BEE72DE9F74F044640680190EB
:109060000E4690461D4609F09DFF4FF00109B9F1EB
:10907000000F2AD04DB3E168606841F0500109F05B
:1090800072FF310A6068FFF783FF60683146FFF7BF
:109090007FFFA5F11E0A4746A6EB080B606817F88C
:1090A000011B0368013D9B68984755450BEB07067C
:1090B000B84601D0002DF1D16068012109F06EFFA2
:1090C0000028D7D04FF00009D1E701A8FFF771FFC2
:1090D000484603B0BDE8F08F2DE9F0438BB00E4653
:1090E00015468046406801901C4609F05BFFAE4281
:1090F00029D2264425448CB11E2C2746D8F80030AE
:1091000028BF1E27F61BD3F8089002AA3B4631461B
:109110004046ED1BC84748B9002400E0012401A8DF
:10912000FFF747FF20460BB0BDE8F083D8F80030CA
:1091300002AAD3F80C9029463B464046C84700286F
:10914000EAD0E41BD7E7E9D9002CE7D0D8F8003003
:109150001E2C274628BF1E27D3F8089002AA3B469C
:1091600031464046C8470028D6D0D8F8003002AA79
:10917000D3F80C9029463B464046C8470028CBD040
:109180003E443D44E41BDFE703685B68184710B5C5
:109190008369044633B131B1236820469B68984700
:1091A0000023A36110BD06F02FFDA369C01AE36977
:1091B0009842F1D2F6E710B5C36904461BB106F038
:1091C00023FDA06110BD0368BDE810409B681847EF
:1091D00006F002BE07B5134639B10022CDE90022E0
:1091E0000A4601681E2006F07FFF03B05DF804FB0D
:1091F00037B590F8203004469BB183680A4DDA8871
:109200000A492846FAF762FFA1682846CA88FFF78C
:10921000E1FF00230093064A296801231E2006F07F
:109220005BFF03B030BD00BF34E60320407A0C0082
:1092300097920C0010B504460430FEF7A1F923689C
:10924000E1685B692046984718B9236820469B6906
:1092500098476068FFF7BCFF012010BDF8B50546D0
:10926000043014460E461F46FEF78AF9EA68C4F138
:1092700001041444B4420AD3A9683846314407F0C3
:1092800019FC01246868FFF7A3FF2046F8BD0024FD
:10929000F8E70000F0B521F00304184F184E194DFF
:1092A0000444A0420CD050F8043B7B434FEA734384
:1092B00073435A404FEAF24202EB82022A44F0E73B
:1092C00001F0030404440023A04204D014F8015D1B
:1092D00045EA0323F8E70948434309484FEA734343
:1092E0004A4058435040084B80EA10405843074BCF
:1092F00080EA5030584380EA1040F0BD512D9ECC9A
:109300009335871B646B54E66BCAEB8535AEB2C2EE
:10931000F8B504460430FEF733F9A36800229F68CD
:109320009A60A668054AF1883046FFF7B3FFB76038
:1093300005466068FFF74CFF2846F8BD3F2A1C85AC
:1093400070B504468568FFF7E3FFA86023682046F0
:109350001B69BDE8704018472DE9F0410446043010
:1093600090460D461F46FEF70BF9E268C8F101036F
:109370001344AB4219D338460CF015F9404514D2CA
:10938000A6683544294638460CF0DDF858B1424607
:10939000002128460CF03CF8394628460CF0DDF850
:1093A0002046FFF7CDFF012500E000256068FFF7AC
:1093B0000FFF2846BDE8F081F7B504460D46FFF7DC
:1093C000A7FF94F82030064693B1294F29492A4631
:1093D0003846FAF77BFEA1682A463846FFF7FAFEC0
:1093E00000230093244A396801231E2006F074FEEE
:1093F0000B2D23D9A3682269196891421FD199883E
:10940000A28A91421BD1D988AAB2914217D89A68F0
:10941000B24214D1E268AA4205D900215955E26846
:109420000135AA42FAD8D4E902322046DA80A5688A
:10943000FFF76EFFA860012003B0F0BD9DB1A168E9
:109440000A6892B188688B880190C98808480091A1
:109450000A49FEF7D5FFCDE90056A38A22690849DB
:109460000348FEF7CDFF0020E6E71046E4E700BF23
:1094700034E60320547A0C0097920C006C7A0C00AE
:109480009D7A0C0038B50446C268806800210BF054
:10949000BFFFA36822691A60A368A28A9A80D4E9F0
:1094A00002322046DA80A568FFF732FFA86038BD97
:1094B00010B5054B0360037C04461BB9406808B136
:1094C00006F05AFF204610BD047B0C0010B5044680
:1094D000FFF7EEFF20461421FAF7E1FD204610BD0C
:1094E00010B5034B03600446FFF7E2FF204610BDB2
:1094F000247B0C0010B50446FFF7F2FF2046302114
:10950000FAF7CDFD204610BD10B5034B03600446AD
:10951000FFF7E6FF204610BD347B0C0010B5044673
:10952000FFF7F2FF20464021FAF7B9FD204610BDB3
:1095300010B5074B0360037C04461BB9406908B1B2
:1095400006F01AFF2046FFF7B3FF204610BD00BF0C
:10955000147B0C0010B50446FFF7EAFF20462C21CF
:10956000FAF79DFD204610BD034A02600022C0E9C3
:109570000122C26002747047047B0C0038B5037C82
:1095800004460D460BB1002038BD406838B106F0E6
:10959000FBFE0028F7D0C4E901050120F4E70846E6
:1095A00006F0E2FEF5E770B5C3680E461546D11821
:1095B0004268044672B182688A420BD36068E368ED
:1095C0002A46314618440BF0FBFEE2682A44E2606A
:1095D000012070BD2046FFF7D1FF0028EED1F8E74B
:1095E00043680021C16023B1826812B118460BF0B4
:1095F0000FBF704710B5C0E901120022C2600122FE
:1096000002744361024A029B0260C36110BD00BF45
:10961000147B0C00D0E90503834204D90278022AA6
:1096200002D01030F8E700207047D0E905039842D7
:1096300004D20378012B18BF002070470020704728
:1096400070B513689D68136803F11004146086698F
:10965000B4420AD29B698C68A34201DAAB42F2DDC4
:10966000A342CCBF0020012000E0002070BD73B5F4
:1096700001F1100304461646019300250198A369E1
:1096800083420BD982688B689A4207DAB54206D0CA
:1096900001AA20460135FFF7D3FFEFE7002002B013
:1096A00070BD2DE9F341089D984601F11003044671
:1096B0001746019300260198A36983421AD982684C
:1096C0008B689A4216DAAE420BD1386001AA204666
:1096D000FFF7B6FF28B1019BC8F8003002B0BDE823
:1096E000F08101AA2046FFF7ABFF20460136FFF7C5
:1096F000A7FFE0E70020F1E7F7B51F4601F11003EF
:109700000446164601930025019BA2699A420FD98F
:1097100098688A6890420BDAB54203D13B60012019
:1097200003B0F0BD01AA20460135FFF789FFEBE742
:109730000020F5E7F0B5013B0024D1E90176F61BE6
:10974000A64208DDA34206DD45683D442D5D02F8D2
:10975000015B0134F1E700231370F0BD1FB514461F
:1097600010236A46FFF7E6FF04492246684606F0E2
:109770001BFE431E5842584104B010BD7D860C00AC
:109780001FB5144610236A46FFF7D4FF044922464A
:10979000684606F009FE431E5842584104B010BD09
:1097A0007F8F0C0010B5044600680B4628B107F007
:1097B000BBF9E3680133E36010BD60680028F8D0AE
:1097C000D4E90221013A8A4288BF4354F1E70346B3
:1097D0007F2B37B50846D9B204D803B0BDE8304076
:1097E000FFF7E0BF01F03F01B3F5006FC3F387154A
:1097F00041F0800407D245F0C0010190FFF7D2FF8D
:1098000001982146E9E71B0B43F0E0010190FFF7C7
:10981000C9FF05F03F01019841F08001EEE700002B
:109820002DE9FF4700244E68DFF8CCA080460F46A4
:109830001546A146B868B0425ADDD8F80430995DA3
:109840009A19002C4BD0752905D86D2907D86229A3
:109850001ED066291ED02846FFF7A4FF3DE0A1F1E7
:109860006E04072CF7D80FF2080C5CF824F000BF48
:1098700099980B0057980B0057980B0057980B00BE
:109880009D980B0057980B00A1980B00A5980B0012
:109890000821E0E70C21DEE70A21DCE70D21DAE709
:1098A0000921D8E7311D884217DD02A9043333446A
:1098B000084612F8014F01F8014B9A42F9D101AA6A
:1098C00051468DF80C9006F06FFD012805D1BDF8CA
:1098D00004002946FFF77BFF0536002404E05C29DD
:1098E00004D02846FFF75EFF0136A3E70124FBE71B
:1098F000012004B0BDE8F087A9940C007FB50C46A8
:1099000006460C491046154607F0D4F8D4E9013153
:10991000C91A0131284607F041F800236A4621465A
:109920003046CDE9013300950393FFF779FF04B08A
:1099300070BD00BF98920C002DE9F04389B0054638
:10994000884604A812491646994607F054F800279D
:1099500000974B4603AA41462846FFF7A2FE04465D
:1099600070B1039904AA2846FFF7C8FF044608B956
:109970000137EDE7314604A807F004F90028F7D0D5
:1099800004A806F0EDFF204609B0BDE8F08300BF53
:1099900098920C0000230122C3604361028380F887
:1099A0002A30704708B50346FFF7DEFD044A1A6007
:1099B0004FF0FF321846DA62FFF7ECFF08BD00BF38
:1099C000247B0C00D0E9022310B593423FBF4268CC
:1099D0005C1CC460D15424BF012380F82A3010BD20
:1099E00010B54369044643B100EB4303597E09B106
:1099F000FFF7E8FF6369013B6361D4E90210636824
:109A000088424FF000022ABF5B181A5403F8012C59
:109A100010BD70B50446D0E9025066682D1A134691
:109A200030440A46294606F0CFFC85422DBFE36844
:109A3000A368E360C01836BF0123E06084F82A30D1
:109A400070BD0EB403B503AA52F8041B0192FFF7D0
:109A5000E0FF02B05DF804EB03B070472DE9F84376
:109A600004460E46174612B12221FFF7ABFFDFF87E
:109A70000C810025715D06EB0509002974D0D4E93D
:109A800002329A4270D20B0634D501F0F003E02B7B
:109A900005F101091DD116F8092002F0C003802B41
:109AA00039D105F1020916F8093003F0C000802809
:109AB00031D103F03F03920143EA013302F47C62A7
:109AC0001A4392B241462046FFF7BBFF4D4601358F
:109AD000D0E701F0E003C02B1DD116F8093003F0E8
