:02000002D0002C
:1040000000400D00CC060E00000006000D0005016A
:084010000401FD08000000009E
:04401800E4EE0D00C5
:1040200009480A49884208B505D0094A824202D0A7
:10403000121A0AF06DFC0748074A0021121A0AF00A
:104040008FFC014808BD00BFC8DA0320B4040E008D
:10405000B4DC0320B8DC0320F4E7032070B5074E7E
:10406000074C09F073FEA41BA4080025A54200D14B
:1040700070BD56F8043B98470135F7E76C040E0015
:10408000B0040E0000F01CBB08B500F05FFCBDE8FA
:10409000084009F013BE06F053BE06F051BE06F00C
:1040A00057BE000008B5034A00210C2006F0E6FCCC
:1040B000FEE700BF2DA60D000078B0FA80F04009A1
:1040C00070470123037070470EB410B58DB00FAA6E
:1040D000016852F8044B039200232020CDE9040329
:1040E000CDE900421E2004AA06F0D8FC0DB0BDE8C0
:1040F000104003B07047000010B50B4805F08AF976
:10410000044628B909490A48FFF7DEFF204610BDDA
:104110009FED080A084805F053FC074800221721C4
:1041200005F0C8FDF2E700BFE8DE0320F8EE0D0061
:1041300070E5032000C06444B4DD032030B5224C98
:10414000D4F80320A57887B012BAD31702A809F0D3
:1041500069FBB4F807301D491D485BBA9BB22A467B
:104160000093029BFFF7B0FF02A809F01BF9194B5F
:104170001D880121284609F082FE04230093164B76
:1041800016481B782146092204F0DCFE044668B973
:1041900013490F48FFF798FF2146284609F06FFEA4
:1041A000104805F09AFB012007B030BD0E490848C1
:1041B000FFF78AFF0021284609F061FE094805F053
:1041C0008CFB0020F0E700BFB8DC032004EF0D00FB
:1041D00070E503206CF20D00E4DE0320E8DE03202E
:1041E0004EEF0D00B4DD03206DEF0D0038B5244C0B
:1041F000244D6388A178E2785BBA42EA01229BB23F
:104200009A426A8036D16179A2791F4B42EA012233
:104210009A83E179227A42EA0122DA83A27A5A6009
:10422000E27A1A72627A1A70227BEA60627BA17B60
:104230002A77E27B42EA012201321A83227C9A76B3
:10424000002323706370237CA37009F0EEFB00163B
:10425000E07009F0EAFB0014207109F0E6FB00129F
:10426000607109F0E2FB6B8BA0711A12E27123728C
:10427000012038BD05490648FFF726FFE0E700BFEB
:10428000B8DC032020E2032000E2032087EF0D00CA
:1042900070E5032038B5104D2C78032C08D0042C81
:1042A0000FD01CB90D490E48FFF70EFF002011E09A
:1042B0000C490B48FFF708FFFFF798FF04232B700A
:1042C000F4E709490648FFF7FFFEFFF737FF08B19B
:1042D00000232B7038BD00BFE5DE0320A9EF0D00E1
:1042E00070E50320CAEF0D00E1EF0D002DE9F84F56
:1042F0004FF0000B5C465D464FF47A784FF00009B2
:10430000BBF1070F1BD006F099F9061B65EB4507BB
:10431000B04579EB0703F3DA06F090F90B4BB3F8ED
:1043200000A00446504609F0C3FDB0FA80F14909E7
:10433000504609F0A4FD00250BF1010BE0E7034B0B
:1043400000211888BDE8F84F09F099BD6CF20D0006
:104350002DE9F043264FDFF8C490264EDFF8C080E9
:10436000254889B00025CDE9025604950195CDF880
:10437000008040F6B8333A46494604F0E9FE044668
:1043800000282FD03B7898F8002009F803503378A4
:104390001A4D1B48079203F00F032B7004F0B5FB76
:1043A00039780191034617493078079A01EB0011DB
:1043B000009115481549FFF787FE2B78032B07D08E
:1043C000042B13D063B912490F48FFF77DFE07E0B5
:1043D00010490D48FFF778FEFFF708FF04232B7004
:1043E000FFF784FF204609B0BDE8F0830A49EBE7F8
:1043F000C8DA032020E00320E8DE0320E5DE032006
:10440000B4DD0320C9DA032070E50320FCEF0D00C2
:10441000A9EF0D00CAEF0D00E1EF0D00B8DC03209D
:10442000E4DE032010B5084A084C094912780978DF
:10443000084B204605F086FA21460748BDE81040A3
:10444000012204F075BD00BF72F20D00B4DD03203F
:1044500070F20D0074E20320E8DE0320014B01221C
:104460001A707047B1E1032010B5034B0360044696
:1044700003F0EFFB204610BD24F20D0010B50446FA
:10448000FFF7F2FF2046102109F0B6FD204610BDCF
:10449000F8B5037D05460F4616468BB10368DB6809
:1044A00083B19A88012A06D09B68F9E79B684BB1D3
:1044B0009A88012AFAD12BB19A89BA42F6D19E7311
:1044C0002846F8BD0A49102009F098FD044668B155
:1044D000102200210AF044FA064B23600123A38036
:1044E0002B69A360A781A6732C61E9E72875E7E72C
:1044F00010030E001000030010B57F240470002488
:10450000C0E90144C0E90344C0E905444968034CDB
:104510005268C461C0E90814826210BD90F90D00B0
:1045200010B50446243002F014F904F11C0002F026
:1045300010F9206908B1FFF7B2FD606808B1FFF714
:10454000AEFD204610BD0000F0B5254D254C264B94
:104550002A7821788FB003EB0212009203EB01134B
:10456000224A282104A806F013FC2B78237006F0B9
:1045700047FB00282ED01E4C06F060F8D4E900322C
:10458000C61A62EB42074FF47A720023B242BB4173
:1045900020DA06F053F800236360164B20601B7886
:1045A0008DF8003014493C2304AA02A806F004FF49
:1045B000039C7CB16368013B63605BB92368204660
:1045C0009B689847A368013BA3601BB923682046FA
:1045D000DB689847094804A9FFF776FD0FB0F0BDE6
:1045E000B0E1032078E103203FDB03203BF00D0026
:1045F00028E0032021E0032049F00D0070E50320AE
:1046000038B5254B01251D70244B08221A7009F07E
:10461000CFFB00231A460D2109F0D2FB09F0C8FB9D
:1046200000231A46194609F0D3FB1D4B1A46191DE3
:1046300042F8091B0024A3F809409470194A1D751B
:10464000C3E903445A601C7209F08EFC164D014602
:1046500023464FF40052284603F008FB134B2B600F
:1046600009F082FC124D01466922124801F098F9C6
:104670002846114908F0E1FE002310482C61002271
:10468000C5E90623C5E90844062340F8043BAC62AB
:10469000BDE8384002F038BB21E0032022E00320CF
:1046A0005CE003201000030074E0032024F20D00FE
:1046B00080E103203CE0032090010E0088E003200D
:1046C00030B55D4C9FB041F2883006F0B1FB00F090
:1046D000E7FA00F0FDFA00F0E9FF00F035FE0823EC
:1046E00020460121638101F0EDFC0021204601F00C
:1046F000CBFA7C21204601F043FA03F025FD03F0BC
:1047000031FFFFF7F9FC02F06DFD4C49044608A8A3
:1047100002F0ACFB09A904F1080008F0CAFE0E9BE8
:10472000E3610FA904F1200008F0C3FE149B63634A
:10473000169BE363189B63641A9BE3641C9B63658D
:104740009DF8743084F8583008A802F019F809F080
:104750006CF93B4CC117C4E91801204602F0BAFDC0
:10476000384B39495D8B03A802F0A4F9374905A8F5
:1047700002F0A0F905AA03A908A8FFF7BDFE294683
:1047800008AA334803F04BFA08A8FFF7C9FE05A8AA
:1047900001F0DFFF03A801F0DCFF2E4B21461A6871
:1047A00008A802F079FC002203A90320089D0392C7
:1047B00006F08CF900283CD1039C0CB1236923B985
:1047C000254A00210A2006F059F90023ADF81630D9
:1047D0000C23ADF8143002AB06930423079323692E
:1047E00005AA01212046984718BBBDF8083007EEFE
:1047F000903AFBEECC7A17EE900A09F071FD2A464A
:10480000CDE9000115491648FFF75EFC08A808F03D
:10481000C9FD144814490088002200924FF0FF336C
:1048200007F0E6F8114B1A780AB904221A701FB083
:1048300030BDFFEE007ADEE73CE003205AF00D00C9
:1048400088E0032020E2032081F00D008AF00D00B3
:1048500080E1032048DC03202DA60D0093F00D001D
:1048600070E503206EF20D005D440D00B0E1032001
:10487000F0B5C1B009F0D9F8284E294FC117C6E9E3
:104880001801304602F026FD3A68314604A802F0CD
:1048900003FC049A23492448FFF716FC04A808F0F7
:1048A00081FD062305A8049302F02EFA09F0BDF855
:1048B000C117CDE91C0104A802F00CFD1B4804A996
:1048C00003F058F840B3D6E918311C9AD41A1D9B4E
:1048D000174A63EB0105A2424FF0000373EB050199
:1048E000BCBF14461D46002C75F10003B8BF002460
:1048F0003A6804A9684602F0CFFB0B48009A0D49BC
:104900002346FFF7E1FB684608F04CFD05A801F0DF
:1049100037FF204641B0F0BD0446F7E788E00320AA
:1049200044DC0320BDF00D0070E5032080E103208E
:1049300080510100CCF00D0008B509F059F818B10C
:10494000BDE80840FFF794BF08BD00002DE9F04F17
:10495000A54C2378023BD5B0052B00F28380DFE81D
:1049600013F006001900900021017901D2009F4B3D
:104970001B78022B01D0FFF7E7FD9D4803F030F8CC
:1049800008B1042323709B4B1B78002B6AD00523AE
:10499000237067E0954B1B78032B01D0FFF7D4FD04
:1049A0000021954801F0ECF8FFF7C6FFA0F10A07D7
:1049B0003A4692499248FFF787FB924B1A7D0AB11B
:1049C00002221A72904B8F48B3F8008000224146B1
:1049D000FFF75EFD037D0646FBB133684FF47A7046
:1049E000DB6847432BB19A88042A00F04F819B680B
:1049F000F8E78649102009F001FB0546002800F081
:104A000043811022002109F0ABFF814B2B6004236E
:104A1000AB803369C5E9023735617A4911A808F0DE
:104A20006BFE75484FF0FF3101F0AAF8119B2BB3D4
:104A30009A88012A22D19B8998450DD1754914A8DD
:104A400008F0FBFC14A800F05FFA14A808F0AAFC18
:104A500071496B48FFF738FB11980223237008B1A6
:104A600006F076F9644801F00DFC03F06DFB03F0ED
:104A70005DFA00F0A5FD55B0BDE8F08F4FF6FF736D
:104A8000DAE75A4B654D1B78042B0AD0FFF75CFD23
:104A900005F0D4FD624B28605A8B62495848FFF7F5
:104AA00013FBFFF755FC28B35F4B1A78F2B10022D5
:104AB0001A705B4B5D495E8B0FA801F0FBFF5C49F0
:104AC00011A801F0F7FF11AA0FA914A8FFF714FD10
:104AD00014AA3146464803F0A2F814A8FFF720FDB7
:104AE00011A801F036FE0FA801F033FEFFF7D2FB4C
:104AF0000723237005F0A2FD2B68C01A4D4B984286
:104B00003FF645AFAEE7394B1B78072B01D0FFF7D7
:104B10001BFD4949424D087A484A6B88CE8BB1F853
:104B20001C804F6852F8202091F80090B1F818A02E
:104B30000D93897EEB6895F81CB00C920A930B914B
:104B400008F073FF0B990A9B0C9A0990CDE907A115
:104B5000CDE904934FF480710D9BCDF818B0CDE9E9
:104B60000272CDE90086364A14A806F011F903F066
:104B7000EBFA344B344A1B78127800211343026855
:104B80008DF804108DF80030166830493C2314AAC3
:104B9000B04706F035F800283FF4F9AE2B7AC3B9D8
:104BA0000223F5E6114B1B78052B07D0FFF7CCFC51
:104BB00006F01EF805F042FD254B186006F020F8BF
:104BC00048B108F032FF164D686106F019F8002868
:104BD000E4D10623DCE605F031FD1D4B1B68C01A4D
:104BE000144B9842EDD83DE7B0E1032078E1032073
:104BF00080E10320B1E103203CE0032000F10D003F
:104C000070E503205CE003206EF20D0010030E003F
:104C10001000030038F90D0015F10D0030E00320FD
:104C200020E203203FF10D00C1E1032081F00D00DF
:104C300070F10D00E093040000E20320D0DB0320BC
:104C400079F10D0022E0032021E0032004F20D00A1
:104C500034E003200E4B0F4D1B78062B04D0FFF7DA
:104C600073FC05F0EBFC286005F0E8FC2B68C01A2B
:104C7000094B98427FF6F6AE00F0C0FA074B1B7A5C
:104C8000002B8DD0032383E63075C6E6DF60C4E6D3
:104C900078E1032038E00320905F010020E2032048
:104CA00008B509490948FFF70FFA0221042009F065
:104CB000D5F80021082009F0D1F80121072009F0DA
:104CC000CDF8012008BD00BF38F20D0070E50320CB
:104CD00010B51849184890B02024FFF7F5F922467E
:104CE0000021684609F03CFE224600210DEB04003D
:104CF0008DF8054009F034FE00210DEB04008DF81D
:104D0000254005F049FF41F2D833ADF806300B4B92
:104D1000029341F27003ADF80C30009B002143F484
:104D200000736846009305F037FF003818BF012074
:104D300010B010BD51F20D0070E503208403840310
:104D40007047006A0368DB68184700001FB5074B0F
:104D5000074A5B8B04461021684606F019F869463D
:104D6000204608F06AFB204604B010BD20E2032074
:104D700076F20D0008B5002005F05AFF28B105F0C5
:104D80003FFF80F00100C0B208BD0120FCE7000039
:104D900030B585B00346144668460D4698470298DC
:104DA000206005F0CDFF286050B12268009909F01D
:104DB000AFFD0024684608F0F5FA204605B030BD86
:104DC000004CF7E7FCFEFFFF0A4B10B504460360FA
:104DD00007F0EAF9214607F0ACFB08F027FF08F0DE
:104DE00019FF2046044B40F8043B07F08FFA204699
:104DF00010BD00BF3CF50D0024F50D0010B50446B4
:104E0000FFF7E2FF2046242109F0F6F8204610BD06
:104E100007B508220023ADF800204FF47A71012273
:104E2000019241436A461846ADF8023005F010FF82
:104E300003B05DF804FB38B5046805467CB16368CF
:104E4000013B63605BB9236820469B689847A36871
:104E5000013BA3601BB923682046DB6898472846BE
:104E600038BD000000B5124B01221A70114B124AD6
:104E70005B8BC5B04FF4807104A805F089FF0F4823
:104E800004A9FFF721F905F0BBFE60B10C4B0D49F9
:104E90001B788DF8003002A83C2304AA06F08CFA97
:104EA00003A8FFF7C8FF012045B05DF804FB00BF71
:104EB000C1E1032020E2032081F20D0070E5032010
:104EC000C0E10320C1F20D0013B50A22006801A958
:104ED00009F0D4FE78280FD8084C0B28608307DC33
:104EE000237A2BB106490748FFF7EEF80023237217
:104EF000FFF7B8FF02B010BD0020FBE720E203205F
:104F0000C6F20D0070E5032030B5224995B0044685
:104F100008F04CFB38B120461E491F4C08F046FBF8
:104F200048B9207233E01D49204608F03FFB0028B5
:104F3000F1D115B030BD638B01250B2B25721BD928
:104F4000174B184A402104A805F022FF164804A96F
:104F5000FFF7BAF805F054FE60B1144B14491B7802
:104F60008DF8003002A83C2304AA06F025FA03A815
:104F7000FFF761FF0120DCE70E490B48FFF7A4F8BB
:104F80000C2363830C4B1D70237A002BD8D10B4B61
:104F9000D7E700BF8CF60D0020E2032038F90D00A2
:104FA000F5F20D0029F30D0070E50320C0E10320A8
:104FB000B3F40D00FCF20D00C1E10320F9F20D0085
:104FC00030B51D4985B0054608F0F0FA0446D0B169
:104FD0001A4B01243C2083F82440FFF719FF05F009
:104FE0000FFE10B9012005B030BD154B154A1B78D6
:104FF0008DF800303C2302A8134906F0DDF903A820
:10500000FFF719FFEEE71149284608F0CFFA00280C
:10501000E9D00A4B40F2645083F82440FFF7F8FED1
:1050200005F0EEFD0028DDD0054B094A1B788DF810
:1050300000303C23DFE700BF8CF60D0020E20320A8
:10504000C0E1032043F30D00B3F40D0038F90D0067
:1050500056F30D0070B5D0E900531426044606FB44
:105060000356AE4204D0284608F09CF91435F8E700
:10507000206805F06DFE204670BD8842F8B50446F4
:105080000D46164616D9904215D2A2F11406751A8D
:10509000A1F114072C44B7421CD02CB13146204654
:1050A00008F0FCF9337C2374304608F07BF9143E99
:1050B000143CF0E70ED0B5420CD02CB12946204666
:1050C00008F0ECF92B7C2374284608F06BF91435B2
:1050D0001434F0E7F8BD2DE9F0410023C0E90033B6
:1050E00083604F689F4204460E4623DD4FF014084C
:1050F00008FB07F005F024FE0546D8B1D4E90012FC
:1051000008FB0212FFF7B9FF206805F021FE2560B9
:10511000A760D6E9007308FB0378B84508D0394684
:10512000284608F0D5F93B7C2B7414371435F4E786
:10513000736863602046BDE8F081000070B5284BBD
:10514000284A01251D70284B00248CB09A601C60F1
:105150009C809C71022005F0CBFC2146284605F07E
:10516000DFFC2946042005F049FACDE90044029409
:1051700008F05CFD1D4C0546694603A8FFF7ABFF30
:10518000264603A906A8FFF7A6FF194B46F8043BDD
:1051900006A909A8FFF79FFF09AA1E21304607F0BC
:1051A00022FB09A8FFF756FF06A8FFF753FF114B94
:1051B0002360256203A8FFF74DFF0F4B236008F023
:1051C00035FD4FF4165108F021FD06F0EDFF2146A4
:1051D00007F09BFA6846FFF73DFF0CB070BD00BFBB
:1051E000C0E103200000FFFFB4E10320C4E103207D
:1051F00024F50D00C8010E003CF50D002DE9F04F1F
:1052000087B008F012FC474901904748FEF75CFF61
:10521000464B188806F016FC4FF0000A03A8CDE9AB
:1052200003AAADF814A005F0CCFF504605F016FA1D
:1052300043F6972883464FF00009002005F00EFA48
:10524000B0EB0B0661EB0A07B94508BFB04505D3C3
:1052500005F0D6FC10B105F0C3FCEEE705F0D0FC7C
:1052600005F0ECF9324F386005F0BAFC05F0C8FCE7
:10527000BB46064640B12F492B48FEF725FF0026C6
:10528000304607B0BDE8F08F08F0CFFB019B2A49FC
:105290002A4FC21A2448FEF717FF08F0C6FB324611
:1052A00002218046786805F0FBFC78683346324678
:1052B000314605F00DFD304605F0D0F9B246814685
:1052C000002005F0CBF9B0EB090461EB0A050023DF
:1052D00047F22F52AB4208BFA24206D3384607F02E
:1052E000C1FD10B905F07CFCEAE7144807F0BAFDEF
:1052F00005F0A4F9CBF8000005F072FC0F4807F0A8
:10530000ADFD20B10E490848FEF7DEFEB8E708F013
:105310008CFB0C49A0EB08020348FEF7D5FE0126E2
:10532000AEE700BF6AF30D0070E503206EF20D00DA
:1053300020E7032093F30D00B6F30D009CE4032057
:10534000DFF30D0005F40D002DE9F0478CB0554B4F
:105350000493554B0593554B0693554B0793554B6B
:10536000554D0893554B5649564809930024564BC2
:105370000A930B94FEF7A8FE95F808C053485449C9
:105380002346A44508BF01460422524805F018FCF4
:10539000514952482346042205F012FC5049514815
:1053A0002346042205F00CFC4F49504823460222B4
:1053B00005F006FC4E4B4F48197A0CAB03EB81010C
:1053C000042251F8201C234605F0FAFB0C23CDE9FA
:1053D0000144ADF80430484B48490393042201AB23
:1053E000474805F0EDFB95F824C04648464923465A
:1053F000A44508BF01460422444805F0E1FB444AA5
:105400004449454805F0CCFE444A4549424805F028
:10541000C7FE3E4A4349404805F0C2FE424B188849
:1054200008F046FD10B9287205F0E2FB08F0E0FA3A
:10543000044690BB05F0DCFB204605F00FF9DFF8D1
:10544000EC8082464FF00009002005F007F9B0EB30
:105450000A0661EB0407B94508BFB04505D305F05E
:10546000CFFB10B905F0BCFBEEE705F0C9FBA0B11E
:1054700008F0DBFA686105F0C3FB10B1002005F00D
:10548000CFFBFFF777FC10B905F0AAFBF9E7FFF7B0
:1054900071FC2B7A0BB1FFF7B1FE00F017FA0CB0DC
:1054A000BDE8F08740F40D0048F40D004CF40D0009
:1054B00055F40D005DF40D0020E2032069F40D00A9
:1054C0007BF40D0070E503206FF40D0035F40D0042
:1054D00031F40D00A9F40D0039DB0320B8F40D0000
:1054E000FCDB0320C0F40D0004E20320C7F40D0030
:1054F00000E20320D2F40D00914D0D004D4D0D0042
:10550000E1F40D00ADF30D0038F40D00F5F40D00DD
:10551000FEF40D00094F0D0075B10D000CF50D00E6
:10552000C94E0D00C14F0D006EF20D00BF270900DE
:105530001FB505F065FBD8B1174B184A1B788DF8DD
:10554000003017493C2302A805F036FF039C7CB1CC
:105550006368013B63605BB9236820469B6898479A
:10556000A368013BA3601BB923682046DB6898470A
:105570000C490D48FEF7A8FD0C4B0D4A5A6001225C
:105580001A723C210022C3E9032259831A771A6256
:1055900083F8242004B010BDE8E103204CF50D0091
:1055A000B3F40D0064F50D0070E5032020E2032044
:1055B00001010001014B01221A707047E8E103204C
:1055C00070B5314C08F031FAD4E90023C117994283
:1055D00008BF904256D008F028FA2C4D2C4EC11727
:1055E000C4E90001D5E904341C442B6A1C442B880F
:1055F0001C446B881C442B791C446B791C44AB798C
:105600001C44EB791C442B7A1C44EB681C442B8B08
:105610001C446B8B1C442B7F1C4495F824301C4489
:1056200033689C422CD01B491B48FEF74DFD1B489C
:1056300028232A46012102F0B0FB34600120184DD6
:10564000184E6B682C781C442B7A1C442B691C4424
:105650002B8B1C44AB7E1C44AB8B1C44EB8B1C443F
:1056600033689C420BD010490B48FEF72DFD0B48C8
:1056700020232A46502102F090FB3460012070BDA7
:105680000020DCE70020FAE7F0E1032020E203201D
:10569000FCE103207CF50D0070E5032074E003209D
:1056A00000E20320F8E10320A4F50D0013B5214921
:1056B0002148FEF709FD214802F0E2FA1F480123C4
:1056C0000DF10702002102F01DFB9DF80740012C9F
:1056D0001CD01B491848FEF7F7FC184802F0DAFA0C
:1056E000184A16480423002102F057FB13480123EF
:1056F0000DF10702002102F005FB9DF80740012C87
:1057000015D1FFF715FF204602B010BD0E490A481B
:10571000FEF7DAFC21460D4A0848282302F0F2FA87
:105720000B4A06482023502102F0ECFAEBE7002058
:10573000EAE700BFCBF50D0070E5032074E003201D
:10574000E9F50D004CF60D0027F60D0020E20320D0
:1057500000E2032007EE900A9FED097AF8EEE77A5F
:1057600067EE877A9FED077A87EE870ADFED067A84
:1057700070EE677AB2EE040A87EE800A704700BFC7
:1057800000404E4500F07F450000FA4310B586B05A
:10579000002202A90720029205F098F9B8B9029CEC
:1057A0000CB1236923B9194A00210A2005F066F9D2
:1057B0000023ADF80E300C23ADF80C3001AB049390
:1057C0000423059303AA2369012120469847104A20
:1057D000104C127A0028A8BF0198207232B10E48EE
:1057E00006F058F84FF4FA7005F022FB0A4805F06D
:1057F000F1FFFDEEC07A17EE900A3C28D4BF0020DE
:105800000120C4ED017A06B010BD00BF2DA60D0029
:1058100020E2032000E2032048E2032037B50C4DCC
:10582000012101A807F0B1FB2B78252B01A84FF02F
:10583000010409D907F03CFC2C72002401A807F0F0
:10584000B3FB204603B030BD07F01BFCF6E700BFFA
:1058500000E2032030B5194D0FCD99B004AC0FC450
:105860000FCD0FC495E8030084E8030014490EA887
:1058700005F038FB0EA805F088FB04460EA805F0DD
:105880009FFB0EA810EE105A05F0CAFB18AB10EEE5
:10589000100A03EB840408F023FDCDE90201284639
:1058A00008F01EFDCDE90001064A54F8503C0648B8
:1058B000402105F06DFA19B030BD00BFC8F60D00EB
:1058C0009CE403208EF60D00FCDB0320104B10B58A
:1058D0001888104C08F0FFFAFFF73CFFFDEEC07A85
:1058E0000D4A17EE903A102113702046DBB20B4A96
:1058F00005F04EFA0A490B482246FEF7E5FBFFF792
:1059000045FFFFF78BFFFFF7A5FF012010BD00BF8C
:1059100074F20D00ECDB032000E20320A7F60D007B
:10592000ACF60D0070E503200148002105F004BF2E
:1059300048E20320704710B52021044608F05CFBC4
:10594000204610BD0EB410B58DB00FAA016852F8F4
:10595000044B039200232020CDE90403CDE900424B
:10596000012004AA05F09AF80DB0BDE8104003B07C
:1059700070470EB410B58DB00FAA016852F8044BF1
:10598000039200232020CDE90403CDE90042322018
:1059900004AA05F083F80DB0BDE8104003B07047CD
:1059A00010B50272FF2242810022C0E90322426147
:1059B0000276C261024A034C1060C0E9004110BD8A
:1059C00054E20320F4F80D002DE9F8439DF82080FF
:1059D0000446894616461F46B8F1000F02D04068BB
:1059E00005F0F2FF217A606805F0CBFF606803687C
:1059F00049469B6898476068002105F0E1FF05462D
:105A000000BB0123217A60683A4605F0A8FF87426F
:105A1000034609D13744BE421CD0606803685B6905
:105A2000984706F8010BF6E70B490C484A46FFF782
:105A3000A0FFB8F1000F02D0606805F0CEFF284645
:105A4000BDE8F8830346064904484A46FFF791FF3C
:105A50000025EEE70125ECE7F0F60D0050E203200B
:105A600015F70D0007B500930123FFF7ADFF03B055
:105A70005DF804FB73B54389FF2B044610D0194E23
:105A8000194D04F0DBFDB0F57A7F09D2608908F08A
:105A90000FFA012804D031462846FEF715FBF0E73F
:105AA00001230DF1070228212046FFF7DBFF30B963
:105AB0000D480E49FEF708FB002002B070BD9DF8AE
:105AC0000730182BF4D101230DF1070229212046BC
:105AD000FFF7C8FF0028EBD09DF80730052BE7D172
:105AE000EBE700BF39F70D0050E203204EF70D0041
:105AF0002DE9F0419DF8188004460F4615461E46D4
:105B0000B8F1000F02D0406805F05EFF217A6068AE
:105B100005F037FF6068036839469B6898472E4454
:105B2000B542606805D0036815F8011B9B6898476B
:105B3000F6E7012105F044FF034670B10849094822
:105B40003A46FFF716FF0025B8F1000F02D0606853
:105B500005F043FF2846BDE8F0810125F4E700BFCA
:105B60005BF70D0050E203201FB58DF80F20009366
:105B70000DF10F020123FFF7BBFF05B05DF804FB39
:105B8000F8B50A460C4605461A491B48FEF79CFA2A
:105B9000002CB8BFEC687CB9012322461B212846A3
:105BA000FFF7E2FF1549024606461348FFF7CAFE13
:105BB000EC606C613046F8BD032C19DDA7101F2F77
:105BC000A8BF1F27BA0062F07C020123D2B21B21BA
:105BD0002846FFF7C9FF3A460346094906460648E4
:105BE000FFF7B0FE4FF4FA635F43EC606F61E1E7EB
:105BF0000127E7E780F70D0050E203208AF70D0048
:105C0000A6F70D000B4607490246086848B1002B6D
:105C100008BFB2F5006F04D1C36813B10021FFF7CC
:105C2000AFBF704754E203202DE9FF419DF8288063
:105C3000054616461F46B8F1000F04D04068019192
:105C400005F0C2FE0199019100230DF10F022846D3
:105C5000FFF708FF044660B19DF80F3003EA060223
:105C60003A43934205D0019900232846FFF77CFF71
:105C70000446B8F1000F02D0686805F0AEFE204679
:105C800004B0BDE8F081000037B504460A463F483D
:105C90000D463F49FFF756FE606805F095FE00236C
:105CA0001A460F212046FFF75FFF00231322102121
:105CB0002046FFF759FF00233C2211212046FFF721
:105CC00053FF0023E02212212046FFF74DFF00235F
:105CD000262213212046FFF747FF00231A461721EB
:105CE0002046FFF741FF15F0010348D00023009341
:105CF000E322232318212046FFF796FF00231A46AC
:105D000019212046FFF730FF00231A461A212046AA
:105D1000FFF72AFF00231A461B212046FFF724FF26
:105D200015F0020F4FF000030CBF1A4688221C2109
:105D30002046FFF719FF00231A4620212046FFF7CF
:105D400013FF0023F02221212046FFF70DFF00233F
:105D50001A4626212046FFF707FF0023802227212D
:105D60002046FFF701FF00231A4630212046FFF7A7
:105D7000FBFE606805F031FE012003B030BD232238
:105D800018212046FFF7F0FEB8E700BF50E20320DD
:105D9000CAF70D0013B514460DF10702FFF762FEB6
:105DA00028B19DF807301C420CBF0120002002B032
:105DB00010BD13B514460DF10702FFF753FE28B1CD
:105DC0009DF807301C4214BF0120002002B010BD16
:105DD00007B5D2430093D2B20023FFF725FF03B0EB
:105DE0005DF804FB37B501230DF107020F210446CE
:105DF000FFF738FE054638B91E491F48AD22FFF7A8
:105E0000B8FD284603B030BD9DF8073013F0200FD1
:105E10004FF001030BD02022E3610F212046FFF752
:105E2000D7FF164A16491448FEF74EF9E9E708224B
:105E300017212046FFF7BDFF18B10223114AE36185
:105E4000F0E79DF807301A0709D50323E36108221C
:105E500001230F212046FFF7BBFF0B4AE2E75B0758
:105E6000CFD50422E26101230F212046FFF7B0FFC6
:105E7000064AD7E70EF80D0050E20320DFF70D00C9
:105E80002DF80D00E8F70D00F8F70D0008F80D00EB
:105E900007B500931346FF22FFF7C6FE03B05DF877
:105EA00004FB2DE9F3479DF828A005460C469146D2
:105EB0001F46BAF1000F02D0406805F085FD07B318
:105EC000202F3E4628BF20267F2C26D83319802B32
:105ED00001D9C4F18006012304223F212846FFF79F
:105EE00077FF002364F07F0100934A463346C9B22E
:105EF0002846FFF769FD804628B13444BF1BB144F2
:105F0000DDE74FF00108BAF1000F02D0686805F034
:105F100064FD404602B0BDE8F087012304223F2122
:105F20002846FFF7B5FFDCE72DE9F3479DF828A0E9
:105F300005460C4691461F46BAF1000F02D0406854
:105F400005F042FD07B31F2F3E4628BF1F267F2CBA
:105F500026D83319802B01D9C4F1800601230422ED
:105F60003F212846FFF734FF002364F07F010093B0
:105F70004A463346C9B22846FFF7BAFD804628B1E3
:105F80003444BF1BB144DDE74FF00108BAF1000F04
:105F900002D0686805F021FD404602B0BDE8F087F8
:105FA000012304223F212846FFF772FFDCE70000AF
:105FB00030B585B00D68D1E9043203954D6802957E
:105FC0008D680195C96800910133044902F26C7231
:105FD000044607F033FB204605B030BD3EF80D0007
:105FE00003110A2200F00F0002FB0300704738B5CE
:105FF000044600781546FFF7F3FF08606078FFF766
:10600000EFFF4860A078FFF7EBFF8860E078FFF7CC
:10601000E7FFC8602079FFF7E3FF013808612DB979
:10602000651D2878FFF7DCFF886138BD6079FFF7D0
:10603000D7FF6430A51D4861F3E7000070B5012368
:1060400088B00D461A4610210446FFF7A3FEF0B1B2
:1060500008230126204600960DEB03020021FFF7DE
:10606000B3FC044698B1324629460DF10900FFF70A
:10607000BEFF04A8FFF79CFF0848049A0849FEF7F2
:1060800023F804A807F08EF9204608B070BD24223A
:106090000021284608F064FC0024F5E750E20320C4
:1060A0005CF80D0030B58BB00D4601A9FFF7C6FFB7
:1060B000044620B101A804F0B3FEC5E90001204662
:1060C0000BB030BD10B5044688B011B1406805F082
:1060D00029FC2046FFF7CEFC70B32046FFF782FE76
:1060E00001231A4610212046FFF754FED8B107F0CD
:1060F0007FFCC0B902A92046FFF7D4FFDDE9020109
:1061000007F07DFB0F4B10491B68009304A8DDE9E5
:10611000022307F02BFC0D48049A0D49FDF7D4FF2C
:1061200004A807F03FF90B4A002300214FF4006058
:1061300004F0EEFC08B010BD07490448FFF719FC55
:10614000F1E700BF44DC0320C4E5032050E2032054
:106150006AF80D00055C0D0087F80D000A2290FB1F
:10616000F2F302FB130093FBF2F102FB113140EA60
:106170000110C0B2704770B5054600680C4616465F
:10618000FFF7ECFF20706868FFF7E8FF6070A86811
:10619000FFF7E4FFA070E868FFF7E0FFE070286910
:1061A0000130FFF7DBFF20712EB9661DA869FFF7EC
:1061B000D5FF307070BD6A69642392FBF3F003FB76
:1061C0001020FFF7CBFFA61D6071EFE7F0B587B099
:1061D000054602A816460C46FFF7EAFE1E48029A3C
:1061E0001E49FDF771FF02A807F0DCF816B16868D8
:1061F00005F0EAFB204601220DF1090100278DF888
:106200000870FFF7B8FF01231A4610212846FFF750
:106210003FFE0446E8B1082300970DEB0302394620
:106220002846FFF765FC044660B101231A46102199
:106230002846FFF7CDFD16B1686805F0CEFB204675
:1062400007B0F0BD4FF48D7205490348FFF791FB8D
:10625000F1E74FF48F72F7E750E203209FF80D004B
:10626000ADF80D0013B504466846CDE9002308F0EB
:106270003DFB9DF8102001462046FFF7A7FF02B026
:1062800010BD0000F0B5057E89B0044675BB07F06F
:10629000AFFB58B30026002704A92846CDE90467C0
:1062A00004F0CEFC10B30125257607F0BEFB009567
:1062B0000246C3172046CDE90223FFF7D3FF02A908
:1062C0002046CDE90267FFF7EDFE124B12491B682D
:1062D000009304A8DDE9022307F048FB0F48049A65
:1062E0000F49FDF7F1FE04A807F05CF8636973B18C
:1062F00004F0A4F92369C01A6369984207D304F033
:106300009DF94FF0FF3120612046FFF739FC09B0BD
:10631000F0BD00BF44DC0320C4E5032050E20320AD
:10632000C8F80D00014B024A1A60704750E2032082
:10633000DEF80D00022A06D0032A02D0012A00D17D
:106340000160002070470B680360FAE710B5012375
:1063500003748368044643B1C0689847012363749B
:106360000020BDE8104004F041B900680028F5D0D5
:1063700083680BB907F04CFEC368EEE710B583687D
:10638000044613B1032201469847204610BD38B594
:106390000568044635B12846FFF7F0FF102128466E
:1063A00007F02AFE20461421BDE8384007F024BE3D
:1063B00010B503680446ABB1586804F0C7F888B953
:1063C00023685A7C12B9586804F0C8F823685868E2
:1063D00004F0CCF820680023236018B1BDE8104019
:1063E000FFF7D5BF10BD0000054A026000224260E1
:1063F000027380F8BD22C0F8C822C0F8D0227047CE
:1064000020F90D0010B5074C236843B94FF43570DF
:10641000FDF741FE034608B1FFF7E6FF2360206861
:1064200010BD00BF58E2032038B50446406890B163
:1064300002232373FFF7BCFF656855B12846FFF7B9
:10644000B7FF286808B1FFF7A2FF0421284607F02C
:10645000D3FD0023636038BD10B5054B03600446CF
:10646000FFF7E2FF04F53070FFF788FF204610BD0C
:1064700020F90D0010B50446FFF7EEFF20464FF45B
:10648000357107F0B9FD204610BDF0B5044689B05E
:1064900000F10D0600F14E07237B1BB9012004F02B
:1064A000C7FCF9E7237B022B62D0A06804F06EF8EA
:1064B000A06804F073F894F8BD328DF800303A46C5
:1064C0003C23314606A804F077FF069D6B7833B96C
:1064D000237B022B03D0012004F0AAFCF5E7D4F8BB
:1064E000C8321BB3002004F023FB20B16B7813B932
:1064F00004F076FBFAE72B78D4F8D0220592591EE7
:106500004B424B418DF80B30D4F8C832CDE90367CC
:106510000BB907F07DFD05AB0093D4F8CC5204AB6A
:1065200003AA0DF10B0104F53070A847A06804F030
:106530002DF8237B022B15D0D4F8C8320025C4F8DF
:10654000D05233B104F53071032208469847C4E9AC
:10655000B2550023A068237304F020F807A8FEF7C3
:106560006AFC99E7A06804F019F807A8FEF763FC35
:1065700009B0F0BD0068FFF788BF13B50B460246AF
:10658000D0E900016C4684E8030093E8030082E848
:10659000030094E8030083E8030002B010BD00008C
:1065A0002DE9F743064688461420264917469946A2
:1065B00007F024FD044630B10022C0E90022C0E902
:1065C0000222027442743460002C31D01D49102024
:1065D00007F014FD054668B1002383600146384684
:1065E000FFF7CBFFBB68AA68BA60AB60EA68FB68DC
:1065F000EB60FA602768256037B13846FFF7BEFECA
:106600001021384607F0F8FC3068036883B10A9B14
:106610004A46CDE9000341460B4B043003F08EFFA0
:1066200030B933681B7C4BB9012003F0F7FFF8E762
:1066300030680023336008B1FFF7A9FE304603B08D
:10664000BDE8F08310030E004D630D0030B54368C4
:1066500087B00446C3B9083003F090FF0B4B059395
:1066600004200B4B02940493FDF715FD054638B149
:106670004FF4406300930749022302AAFFF790FFFB
:10668000656002A8FFF77AFE07B030BD75650D00A2
:1066900035630D0004F90D002DE9F043044685B083
:1066A00080680C9F98460D46164603F06FFF63689E
:1066B0001BB1237B03F0FF0933B1A06803F06EFF29
:1066C000002005B0BDE8F083A06803F067FF002D4F
:1066D0003DD04122294604F10D0008F002FA84F869
:1066E0004D908EB340F26F22314604F14E0008F017
:1066F000F8F984F8BC9200230293BB6804F5307566
:106700003BB10222394668469847FB680393BB6851
:10671000029329466846FFF730FF029BD4F8C8224F
:10672000C4F8C832039B02926846D4F8CC22C4F85D
:10673000CC320392FFF722FE0D9BC4F8D032012029
:1067400084F8BD822073BCE784F84E60D3E7284606
:10675000B7E77047704701207047012A08BF016002
:106760000020704710B50821044607F045FC20467C
:1067700010BD10B51021044607F03EFC204610BDA8
:1067800010B5054B044640F81C3B06F00BFE201DDF
:1067900006F008FE204610BDB0F90D0010B5044605
:1067A000FFF7EEFF2046582107F026FC204610BDDB
:1067B00010B5044B044640F8043BFFF7E1FF2046C8
:1067C00010BD00BF80F90D0010B50446FFF7F0FFC3
:1067D0002046602107F010FC204610BD20F0020387
:1067E000012B03D0431F5842584170471846704749
:1067F00008B1FDF754BC704708B548B1B0F1005F6F
:1068000001D307F0FFFBBDE808408000FDF743BC63
:1068100008BD0B6803604B68436013B15A680132CE
:106820005A60704790F9042091F904309A4213DBC2
:1068300010DC90F9052091F905309A420CDB09DC57
:1068400090F9062091F906309A4205DBCCBF012071
:1068500000207047012070474FF0FF307047000064
:10686000024A02604A684260704700BF90F90D001A
:1068700091F90420027191F90520427191F90620E5
:10688000827191F90720C271704738B50C460546F0
:1068900000F11C012046FFF7C5FF002809DB05F1C8
:1068A00024012046FFF7BEFF0028D4BF00200120AE
:1068B00038BD4FF0FF30FBE738B504460D460430D5
:1068C000043106F0F6FD05F1140104F11400FFF7A0
:1068D000CFFF05F11C0104F11C0006F0EAFD05F1F3
:1068E0002C0104F12C00FFF7C3FF95F9383084F830
:1068F000383095F9393084F8393095F93A3084F8E0
:106900003A3095F93B3084F83B3005F13C0104F115
:106910003C00FFF7ADFF95F9483084F8483095F911
:10692000493084F8493095F94A3084F84A3095F96D
:106930004B3084F84B3005F14C0104F14C00FFF76B
:1069400097FF95F8543084F85430204638BD4A6992
:10695000036862F3160303600B695A1C438862F3F1
:10696000CA134380CA68C3F3072362F3C703C37023
:10697000704710B504468CB02422002103A807F00C
:10698000EFFF2368C3F3160308936388C3F3C313AD
:10699000013B0793E37803A8DB08069304F040FA71
:1069A000CDE9000103A9684604F02AFA09980CB061
:1069B00010BD30B504468DB024220D4603A8002139
:1069C00007F0CEFF2368E178C3F3160308936388CA
:1069D000C3F3C313013B05EBD10503A80793069549
:1069E00004F01EFACDE9000103A9684604F008FA94
:1069F00003A92046FFF7ABFF0DB030BD0368C1F31C
:106A00001602C3F31603934213D310D84288C1F37E
:106A1000C353C2F3C3129A420BD308D8C378DB081E
:106A2000B3EBD16F05D38CBF01200020704701204C
:106A300070474FF0FF307047024A02600022426008
:106A4000704700BF90F90D0030B5002387B08380F8
:106A500083710D4605AB00931349044604AB03AAAA
:106A6000284604F08DF9032807D1039B2371049B6A
:106A70006371059BA37107B030BD0C4904AB03AA39
:106A8000284604F07DF9022804D1039B2371049B5E
:106A90006371F0E7064903AA284604F071F901285A
:106AA00004BF039B2371E6E728F90D002BF90D00C5
:106AB00087F70D0010B5044B0360002304464360C4
:106AC000FFF7C2FF204610BD90F90D0038B5002534
:106AD0007F2304460370C0E90155C0E90355C0E9AE
:106AE00005550A491C30FFF7E5FF094904F1240068
:106AF000FFF7E0FFC4E90B550649656304F1380070
:106B000006F09BFCA564204638BD00BF31F90D009E
:106B10003AF90D0090010E0090F9043090F905202B
:106B200090F90610002BB8BF0848C2EB02124FEADA
:106B30008202BDBF00FB0320401840424FF4616059
:106B4000A4BF00FB03235818704700BFF0F1FFFFFC
:106B500090F9073043B990F904308B6090F9053013
:106B60004B6090F906300B60704790F9073030B5F4
:106B7000B3B990F904508C682C44D1E900328C6090
:106B800090F90540002DB5BF121B12194A604A60EA
:106B9000B5BF90F9062090F906209B1A9B180B6050
:106BA00030BD38B544680546AB68A34207D02046DF
:106BB000FFF724FF04340028F6D1012038BD00205F
:106BC000FCE738B5046905466B69A34207D0204647
:106BD000FFF714FF04340028F6D1012038BD00204F
:106BE000FCE773B505460E46FFF7EBFF90B901A829
:106BF0000191FFF7BEFE2B78314643FA00F4284698
:106C0000FFF7CFFF04F00104002C08BF0446204624
:106C100002B070BD0024FAE72DE9F843002445686E
:106C2000804626462746D8F808309D421ED067F396
:106C3000160966F3DA5964F3DF69B9F1000F09D177
:106C40002F686E88EC78C7F31607C6F3C316E408FE
:106C50000435E8E767F3160166F3DA5164F3DF61A0
:106C60002846FFF7CBFE0028EADCF1E7002067F3B7
:106C7000160066F3DA5064F3DF60BDE8F8830000C5
:106C8000054A08B502600022034642600830FFF75B
:106C9000D3FE184608BD00BFA0F90D0000234360D5
:106CA000838183737047000030B5044687B00D467A
:106CB00011B10B784D2B03D02046FFF7EFFF1BE0FF
:106CC00005AB00930F4904AB03AA284604F058F81B
:106CD0000328F1D1039B2371049B6371059BA3716E
:106CE0002F21284607F09CFE40B1411C04F108000A
:106CF000FFF7AAFE0123E37107B030BDA081A073A6
:106D0000F8E700BF43F90D00104B114910B50446D8
:106D100040F8043B06F091FB04F11400FFF78CFEF1
:106D20000B4904F11C0006F088FB04F12C00FFF76E
:106D300083FE04F13400FFF7A3FF04F14400FFF7E2
:106D40009FFF002384F85430204610BDB0F90D0099
:106D500090010E002DE9F74F0446084607F08AFE21
:106D600000250646019004F134083F49019801AA24
:106D700007F006FF0146002862D0012D05F101034E
:106D800053D0022D56D0002D46D1024692F80090E5
:106D9000B9F1400F1546174602F10102F6D800225C
:106DA0002A7004F11C0006F0A6FB012285F8009071
:106DB00084F854202A786AB397F800A00AF1FF32C9
:106DC0003F2AB946BB4607F10107F5D9002304F174
:106DD0002C0789F8003029463846FFF735FE89F838
:106DE00000A0BAF1000F15D05D461BF801ABBAF157
:106DF000400FF9D800222A704946201D06F07BFB7F
:106E000085F800A004F11400BAF1000F06D029465D
:106E1000FFF71AFE0125A8E71D46A6E73946FFF74A
:106E200027FD237E013B2376F4E74046FFF73CFF36
:106E300002259AE704F14400FFF736FF032594E7A3
:106E400094F93B3043B194F94B202AB904F1340052
:106E5000FFF724FF84F85420304603F079FF94F8BC
:106E6000540003B0BDE8F08F4DF90D0038B5134B59
:106E700004460D4640F8043B114906F0DEFA04F1E1
:106E80001400FFF7D9FD0E4904F11C0006F0D5FAF5
:106E900004F12C00FFF7D0FD04F13400FFF7F0FE01
:106EA00004F14400FFF7ECFE002384F85430294637
:106EB0002046FFF74FFF204638BD00BFB0F90D0058
:106EC00090010E0008B50346FFF7B6FD8A681A71F7
:106ED0004A685A710A689A71184608BD13B5074B7B
:106EE00003600023044643606846FFF7EBFF6946F2
:106EF0002046FFF7BDFC204602B010BD90F90D0002
:106F000091F9073043B991F90430836091F9053064
:106F1000436091F906300360704707B500230146CE
:106F200001A80193FFF713FD019803B05DF804FB7E
:106F3000194B70B504460D4640F8043B043106F089
:106F4000C7FA05F1140104F11400FFF789FC05F1FB
:106F50001C0104F11C0006F0BBFA05F12C0104F140
:106F60002C00FFF77DFC0D4EAB6BA36305F13C01DC
:106F7000666304F13C00FFF773FCAB6CA3646664CA
:106F800005F14C0104F14C00FFF76AFC95F8543010
:106F900084F85430204670BDB0F90D00A0F90D0002
:106FA000F8B50C4651F8043B074640F8043BFFF7A0
:106FB000BFFFD4E9182304F16806C7E918230FCEF0
:106FC00007F168050FC50FCE0FC533682B60D4E9F4
:106FD000242304F19806C7E924230FCE07F198056E
:106FE0000FC50FCE0FC533682B60D4E93023C834EA
:106FF000C7E930230FCC07F1C8050FC50FCC0FC56B
:1070000023682B603846F8BD10B50446383006F0CA
:10701000C9F92069FFF7ECFB6068FFF7E9FB204640
:1070200010BD10B5044688B00846683001A907F0C5
:1070300031FC01A807F03BFD08AB1844002300F821
:107040001D3C01A9204606F0F8F9204608B010BD05
:1070500038B591F8583005460C463BB191F93F30B0
:1070600053B901F13000FFF757FD28B90949284607
:1070700006F0E3F9284638BD2068FFF7AFFB28B1DA
:1070800004F10801284606F023FAF3E704F1200191
:10709000F8E700BF4FF90D002DE9F04F8046A9B089
:1070A0000C4615462AB14B4B1046196807F0CFFC29
:1070B00038B921464046FFF7B4FF404629B0BDE845
:1070C000F08F29463F2218A807F00BFD002318A8CF
:1070D0008DF89F3007F0EBFC2146054603A8FFF72B
:1070E000B7FF94F858303BB194F93F3083BB04F1BB
:1070F0003000FFF711FD58BB374907A807F0B1FC76
:1071000018AF002605F1FF3BB3454ED9BA4606F14C
:1071100001091AF8013B252B17D17B787A2B36D140
:1071200007A807F0C4FC18AB05463018ABEB060205
:10713000B91C184407F0ECFB2A4607A9384607F0AB
:10714000E7FB18A807F0B3FC054657464E46D9E7BB
:107150002068FFF743FBB8B104F11800FFF7DCFC2F
:107160003C2190FBF1F3002BB8BF5B42B3FBF1F283
:1071700001FB12330093194A194B90FBF3F31021D2
:1071800007A803F005FEBBE704F13000E6E75A2B41
:10719000DBD1059D18AB7019ABEB0602B91C184486
:1071A00007F0B6FB03992A46C8E700212E220CA857
:1071B0000B9107F0D5FB04F1680318AA32210BA844
:1071C00003F016FE0BA9404606F037F903A806F0B7
:1071D000E9F872E744DC03204FF90D0051F90D0086
:1071E000F0F1FFFF38B5094D2B6863B96020FCF75B
:1071F00052FF044630B1064B40F8043BFFF784FDD4
:107200006423E3652C60286838BD00BF5CE203207E
:1072100080F90D0003F004BE01390B2915D8DFE811
:1072200001F01608160616061616061606161E2075
:10723000704783070DD1642290FBF2F302FB130029
:1072400000280CBF1C201D207047002070471F2005
:1072500070471C207047F8B50123CB6090F90430CB
:10726000013B0B610023C1E9003306460C4617467B
:107270008B602046FFF7CEFF96F90630A2699A424E
:1072800003D0E3680133E360F3E796F90550012D7D
:1072900013D0E3686069013DC5EBC5051D44E56099
:1072A00096F9041000F26C70FFF7B6FF8542C4BF78
:1072B000073DE5602046FFF7ADFF214606F10800D7
:1072C000FFF746FC3846FFF750FC2046BDE8F84083
:1072D00003F0A6BDF0B590F8583085B004462BB940
:1072E000FFF780FF011D201DFFF7E6FA94F93F30FC
:1072F000002B69D0D4E9182304F1980739463E469B
:1073000002A8CDE9022303F07BFD0FCE04F1C805EE
:107310000FC50FCE0FC533682B6004F1300102A8F2
:10732000FFF79EFA02AA394604F13800FFF793FFEF
:10733000C4E9240104F1180102A8FFF791FA02AA96
:1073400004F1C80104F14800FFF785FFD4E9246780
:107350000B468642024677EB0301C4E93023D4E9A9
:10736000180124DAB04271EB070519DA0023236013
:107370002068FFF733FA04F16801D4E91867019136
:1073800020BB04F13000FFF7C7FB361A67EBE0774C
:10739000019902A8CDE9026703F032FD05B0F0BD06
:1073A000904271EB0303B4BF01230223DFE7904255
:1073B00071EB030301DA0323D9E7B04271EB070352
:1073C000B4BF04230523D2E70623D0E704F1180055
:1073D000D9E72DE9704304460E460FCCDCB001AD71
:1073E0000FC50FCC0FC523682B6001A803F018FD53
:1073F000044606F12C000D46FFF78EFB96F93B3054
:1074000014EB000845EBE0791BB3062321A8209379
:10741000FFF77AFC31460AA8FFF78AFD0AA921A8DE
:10742000FFF74AFA20A8CDE93889FFF753FF0AA8E9
:10743000FFF7A6F92098FFF7D1F938B106F114004B
:10744000FFF76AFB14EB000845EBE07921A8FFF792
:1074500097F9404649465CB0BDE8708330B591F974
:10746000073097B00446C3B900F168056846FFF7D6
:10747000F7F969462846FFF743FD211D6846FFF7E7
:1074800057FD69462846FFF7A4FFC4E9180168467E
:10749000FFF776F92046FFF71DFF17B030BD00005B
:1074A00030B5D0E918320B4D5B194FF0000585B0AF
:1074B00045EB0202C0E9183204460191FFF70AFFCA
:1074C000019902A8FFF7CCF902A92046FFF7C6FFF1
:1074D00005B030BD805101002DE9F0418AB017465A
:1074E00006460D462422002101A81C4607F038FA62
:1074F000062F29D829463046FFF78EFE002C8046FD
:1075000024DDA6F26C76013D06960595012301A8BF
:107510000493FFF77FFE079A049BBA4201D0013320
:10752000F5E700210122944206D101B10493049CA5
:1075300020460AB0BDE8F0810733434504DC013240
:10754000062A4FF00101EED10024F1E7F0D0013D11
:10755000CDE90405A6F26C76069601A8FFF75AFE5F
:10756000079B0499BB4202D001390491F5E7002042
:1075700001226442944203DC0028D8D00491D6E76B
:1075800007390029E0DD0132062A4FF00100F1D170
:10759000DAE700002DE9F046CDB0044610A80D460C
:1075A000FFF7FEFC002320460293FFF735FB58BB94
:1075B0002AA8FFF7B2FC0290FFF714FEC16D02A8E3
:1075C000FFF7F7F9DFF80CA22AA8FFF7A6FC02994B
:1075D0000390064603A8FFF711FA002800F3F28093
:1075E00031462046FFF7FDFA0746002800F0948058
:1075F000A36C013B042B00F28F80DFE813F007003F
:1076000007009600B800D5000290DBE72AA907A87A
:10761000FFF758FC07A92046FFF737F900280DDAD5
:1076200004F11C0107A8FFF71BF907A910A8FFF731
:1076300015FFDDE92823C5E9182394E06CD1A36C7C
:10764000012B25D0022B67D104F11C0104A8FFF700
:1076500007F904F12409494604A8FFF7E3F80028D4
:107660005ADC04A907A8FFF7FBF807A910A8FFF741
:10767000F5FED5E91801DDE92823904271EB0303FB
:1076800041DB9DF81430E26A13448DF81430E2E7D0
:10769000E26A94F9213093FBF2F63C21514302FB5C
:1076A0001636DDE92823521843EBE17310A8CDE923
:1076B0002823FFF70FFEDDE9282307A904A8CDE959
:1076C000042303F09DFB2B9BE16A9B1B93FBF1F2D0
:1076D00001FB1233089A07A8D21A94F922300892B3
:1076E000079303F09DFBCDE9280110A8FFF7F2FDF9
:1076F0002AA904A8FFF7F2FB04F1240104A8FFF76C
:1077000091F8002808DA2AA8FFF707FC014620466E
:10771000FFF767FA00288CD1514607A8FFF7CAF98E
:1077200007A910A8FFF7BCFE4EE72E992F98D4E9C1
:107730000B32013100F26C70FFF7CEFE2D9B9842A8
:10774000EAD104F11C0107A8FFF78AF807A910A8DD
:10775000FFF784FEDDE92801D5E9182382428B4139
:10776000DADAC5E918012846FFF7B4FD2BE0E66A2E
:10777000002E08DA2E992F98013100F26C70FFF775
:107780004BFD3044461C2AA8FFF7C7FBB6EBD06F71
:10779000C2D12AA907A8FFF795FB07A92046FFF742
:1077A00074F80028B8DCCCE72AA907A8FFF78AFB01
:1077B00004F11C0107A80191FFF734F80028019992
:1077C000AADCC0E7002711A8FEF7DAFF38464DB063
:1077D000BDE8F08631F90D0037B58D68044668467E
:1077E000FFF717F86A462946204604F0B3FA01A8C5
:1077F000FDF721FB204603B030BD37B5CD68044608
:107800006846FFF706F86A462946204604F07EFAE5
:1078100001A8FDF710FB204603B030BD37B50D6958
:1078200004466846FEF7F5FF6A462946204604F0FE
:1078300016FA01A8FDF7FFFA204603B030BD70B577
:10784000D1E90036F61A0023C0E90033044683600C
:10785000B0100D46FEF7D0FFD5E90053C4E9000093
:107860000644A6602A460146934205D009B116682F
:107870000E6004310432F7E75B1B18446060204659
:1078800070BD38B50D4611F8043B044600F8043BC2
:10789000FFF7D5FF05F1100104F11000FFF7CFFF4E
:1078A000204638BD38B504460D46FFF7EAFF05F11E
:1078B0001C0104F11C00FEF7D3FF05F1240104F1C3
:1078C0002400FEF7CDFFEB6AE3622B6B23636B6B47
:1078D000636305F1380104F1380005F0F9FDAB6C84
:1078E000A364204638BD2DE9F043D0F82080D1B004
:1078F00081460C46154600260027D9F8243043451A
:1079000029D0414601A8FFF7CDFFAB680BB906F0BF
:107910007FFBEB6801A928469847B0B1214614A81F
:10792000FFF73EFB14A901A8FFF734FEDDE92C2385
:1079300010B156EA070103D0B24273EB070101DA36
:1079400016461F4615A8FEF71BFF01A8FFF75CFBB4
:1079500008F14C08D1E756EA070308D02046C4E9ED
:107960001867FFF7B7FC012051B0BDE8F083002095
:10797000FAE700001FB5084B03936A46074B0293D2
:10798000FFF7B1FF029B04461BB16946032208467C
:107990009847204604B010BD57670D005B670D0087
:1079A00070B504460D4610461946D4E9062352EA3E
:1079B000030613D0904271EB03030FDB0022002378
:1079C000C4E90623012629462046FFF7D3FF18B154
:1079D000D5E91823C4E90623304670BD0026F2E736
:1079E00030B5BDB0054606F003F80446C0B1062325
:1079F00001A80093FFF788F906F017F8C117CDE941
:107A000018016846FFF766FC06F00FF86946024663
:107A1000C3172846FFF7C4FF044601A8FEF7B0FECF
:107A200020463DB030BD81422DE9F04104460E466E
:107A300022D0D1E900580068A3681B1AA8EB0507FB
:107A40009B10B3EBA70F4FEAA70118D20846FEF729
:107A5000D3FE06460346A84505D00BB12A681A6036
:107A600004330435F7E72068FEF7C2FE26603E4483
:107A7000A66023681F4467602046BDE8F081626805
:107A8000121AB1EBA20F06D8A845F2D03A46294601
:107A900006F04CFFEDE712B1294606F047FFD4E9A6
:107AA0000032D11A33680B4471689942E1D00AB1AF
:107AB0001868106004330432F7E738B50D4611F842
:107AC000043B044600F8043BFFF7ADFF05F110014D
:107AD00004F11000FFF7A7FF05F11C0104F11C00E1
:107AE000FEF7C6FE05F1240104F12400FEF7C0FEF6
:107AF000204638BD2DE9F74FD0E900693B4D3C4B9E
:107B0000A9EB0604A4106C439C428A460746114622
:107B1000A84602D1374806F078FA012C224638BF31
:107B20000122A418AAEB06055DD254B19C4228BFDD
:107B30001C464C2060430091FCF7ADFA0099834647
:107B400000E0A3461BEB050001D0FFF7ABFE5B4650
:107B500031468A450AD033B1184601910093FFF7A8
:107B6000A1FEDDE900314C314C33F2E7AD0808FBF2
:107B700005FA2AF040454FF04C0A0AFB05FA06EBDD
:107B80000A050AF14C0ADA4453462946494513D1FD
:107B9000A9EB0505AD0808FB05F525F040454FF0BC
:107BA0004C0808FB05A5B046C8450FD04046FFF776
:107BB0002BFA08F14C08F7E7184601910093FFF7FC
:107BC00071FE0199009B4C314C33DFE716B1304612
:107BD000FCF765FA4C2000FB04B4C7E900B5BC60B3
:107BE00003B0BDE8F08F1C46A3E700BF1BCA6B289B
:107BF0006B28AF015CF90D0038B5D0E90135AB4217
:107C000004460A4607D013B11846FFF74BFE6368D7
:107C10004C33636038BD1946FFF76CFFFAE730B5A7
:107C200097B0044603A801920D46FEF74FFF0123CB
:107C30000199159303A80E95FFF73FFF03A904F1DF
:107C40002000FFF7D9FF03A8FFF7DEF9204617B0A1
:107C500030BD704710B51021044606F0CDF920461E
:107C600010BD0368C9B29B681847000030B5034DCA
:107C7000C0E90223C0E9005130BD00BFECF90D009E
:107C8000406803F04FBE10B50446006803F0A5FE3F
:107C9000204610BD2DE9F0418AB0044640680190AD
:107CA00003F092FE1E22002102A8A76806F058FEEB
:107CB0000026EFB123681E2FB84628BF4FF01E08DC
:107CC000DD6802AA434631462046A847054658B912
:107CD0000A480B493246FCF7F7F901A8FFF7D3FF32
:107CE00028460AB0BDE8F081A7EB08074644E0E764
:107CF00001A8FFF7C8FF0125F2E700BF70E50320E8
:107D0000B8F90D002DE9F7430446406801900D468F
:107D100016461F4603F058FEA7B1E168606841F0BF
:107D2000500103F032FE290A6068FFF79AFF2946E6
:107D30006068FFF796FF6068002103F041FE48B1DC
:107D4000002400E0012401A8FFF79DFF204603B0B6
:107D5000BDE8F083202F217B6068B84628BF4FF034
:107D600020080123424641F0500103F0F8FD06F0DF
:107D7000FBF803681B6998474045E1DB06EB0809FF
:107D800006F0F2F803685B69984706F8010B4E4568
:107D9000F6D14544A7EB0807BEE72DE9F74F0446A7
:107DA000406801900E4690461D4603F00DFE4FF0D0
:107DB0000109B9F1000F2AD04DB3E168606841F0C4
:107DC000500103F0E2FD310A6068FFF74AFF606886
:107DD0003146FFF746FFA5F11E0A4746A6EB080B02
:107DE000606817F8011B0368013D9B68984755457B
:107DF0000BEB0706B84601D0002DF1D160680121D8
:107E000003F0DEFD0028D7D04FF00009D1E701A82C
:107E1000FFF739FF484603B0BDE8F08F2DE9F04386
:107E20008BB00E4615468046406801901C4603F014
:107E3000CBFDAE4229D2264425448CB11E2C2746C8
:107E4000D8F8003028BF1E27F61BD3F8089002AAE6
:107E50003B4631464046ED1BC84748B9002400E088
:107E6000012401A8FFF70FFF20460BB0BDE8F08307
:107E7000D8F8003002AAD3F80C9029463B46404679
:107E8000C8470028EAD0E41BD7E7E9D9002CE7D09F
:107E9000D8F800301E2C274628BF1E27D3F808909C
:107EA00002AA3B4631464046C8470028D6D0D8F8FB
:107EB000003002AAD3F80C9029463B464046C847FA
:107EC0000028CBD03E443D44E41BDFE703680A783A
:107ED00083F8B120012183F8B0107047022A06D040
:107EE000032A02D0012A00D10160002070470B68EC
:107EF0000360FAE7012A034602D1016000207047BF
:107F0000022A04BFD1E90001C3E90001F6E710B479
:107F100042680346541001EB6200D20748BF0A5979
:107F20001B685DF8044B48BFD3581847D0F8C830D9
:107F300001461BB1D0F8CC30C03018477047000064
:107F4000F8B5124D0846002A18BF15460F461E46C2
:107F500006F0ADFD402817D8284606F0A8FD40F2EF
:107F60006E23984210D84330FCF797F8044648B186
:107F7000394600F8016B06F074FD294604F1420011
:107F800006F06FFD2046F8BD0024FBE790010E00CF
:107F9000F0B59FB00A4600230E46011D08A802F066
:107FA0005FF80898002106F08DFE054608A805F048
:107FB000F9F9002D60D008A9284606F071FE0C9B47
:107FC0002E492F483246FDF7BDFC002211462846B7
:107FD00006F06EFE082206A9284606F087FE0C9FD2
:107FE0004A2F39DD274B069A9A4235D1264B079AFC
:107FF0009A4231D1A7F1080210460592FCF74DF8DC
:108000000446C0B127440146059A284606F06EFE94
:1080100017F8093CABB9631C1846059306F047FDF9
:108020003F28059B0DD804F14202009217491448DD
:108030003246FDF787FC284606F02AFE20461FB090
:10804000F0BD13490E483246FDF77CFC4321204623
:1080500005F0D2FF0024EEE7BDF81E3002939DF834
:108060001D3001939DF81C3000930A49069B04487B
:108070003246FDF767FCEDE72C46DFE700FA0D001E
:1080800060E203206376B6310108410014FA0D0066
:1080900036FA0D0064FA0D002DE9F8438046284BAE
:1080A00048F8043B0446404601F0F2FE02226423F5
:1080B0000025C4E91B230823E367C4E92055C4E96C
:1080C0002255C4E92455C4E92655A5672020FBF7AD
:1080D000E2FFE66FA067013E760800EB86090746DF
:1080E0004FF40070FBF7D7FF00F50073C4E92503D8
:1080F000C4F888304FF4FA614FF47A73C4E92D1351
:1081000047F2305347F82600C4F88400C4F88000D2
:10811000C4F89000C4E92855C4E92A550949C4F8AF
:108120008C90C4F89C90C4F8B050C4F8BC30C4F82B
:10813000C850404601F0F2FE2046BDE8F88300BF7B
:1081400080FC0D00A9FA0D0038B5064C23683BB938
:10815000D020FBF7A0FF054608B1FFF79DFF256083
:10816000206838BD64E2032010B5D1E9002386B051
:108170000021044604910AB9D90705D5CDE90223A7
:108180000F4B05930F4B049302AB93E803006A4631
:1081900082E8030094E8030083E8030092E8030008
:1081A000049A84E80300A168A260059A0491184625
:1081B000E168E2600591FEF7E1F8204606B010BDE7
:1081C0000F7F0D00F57E0D0010B503680446586F53
:1081D00002F004FA204610BD10B502698368043A23
:1081E0009342044602D00433A36010BDC068FBF77D
:1081F00056FF63691A1D62615B68E36003F50072F4
:108200002261F1E72DE9F04F87B004460190406FFD
:10821000DFF8A890DFF8A8A002F0D8F9DFF8A4B042
:10822000D4F88030D4F89020934205D101A8FFF70C
:10823000CBFF07B0BDE8F08F04F1780004F104082B
:108240001F68FFF7C9FF404602F0FEF80023024610
:108250004146064602A801F003FF029840F20221BF
:1082600006F030FD054602A805F09CF8CDB10822C5
:108270000DEB02012846CDE9029A06F049FD07F10F
:10828000420006F014FC394600F14302284606F08D
:108290003FFD284606F0FCFC074832465946FDF7EC
:1082A00051FB3146404602F00FF9002FB8D0432170
:1082B000384605F0A1FEB1E760E203206376B631EF
:1082C00001084100B7FA0D00002908BFB0F5006FA2
:1082D00038B505D0002908BF40280BD1092A09D19B
:1082E00005490648FDF72EFBFFF72EFFBDE8384095
:1082F000FFF788BF38BD00BFD4FA0D0060E203204D
:1083000070B586B0044602F07BFC48B9434B02A925
:10831000CDE9023004F1C000FFF726FF06B070BDC2
:1083200094F8B2501DB1012384F8B330F6E702F09F
:1083300085F9D4F8A830C01AD4F8AC309842EDD3FF
:10834000261D2946304602F08BF80146C4F8A400E9
:10835000002852D02046FFF71BFE0546C4F8A000B7
:10836000002835D002F06AF902AE00252C4BC4F883
:10837000A800314604F1C00002930395FFF7F4FE14
:10838000D4E9283003F1420200922649264AA4F893
:10839000B050A84208BF0A4601332449244884F853
:1083A000B350FDF7CFFAFEF72DF8D4F8A020214BFB
:1083B0000593CDE9006511461F4B0294049311F813
:1083C000013B4232FEF768F93046FDF7D7FFA5E7DB
:1083D000D4F8A42019491648FBF776FE012130464F
:1083E00002F03EF8D4F8A4102A46304601F074FE9C
:1083F000D4F8A030002BB5D195E7D4F88030D4F86C
:1084000090209A4207D01B68C4F8A03004F178008D
:10841000FFF7E2FEECE7C4F8A00084E7A1840D00BA
:10842000F9870D0003FB0D0008000E0024FB0D0072
:1084300060E20320CD7E0D00DD7E0D0007FB0D0008
:10844000C368CA689B1A9B105A1ED0E900301B1AD9
:108450009B1003EBC21388680A68801A03EBA00024
:10846000704737B505460190406F02F0AFF805F14F
:10847000800105F19000FFF7E3FF044650B9281D85
:1084800002F03CF8D5F8A03004461BB1D5F8A43072
:1084900003B9013401A8FFF797FE204603B030BDB1
:1084A00013B5044602F0ACFB90B102F0C7F8D4F863
:1084B000B430C4F8AC300D4BC4F8A8000093694642
:1084C000002304F1C0000193FFF74EFE02B010BD7F
:1084D00094F8B2301BB1012384F8B330F6E720469C
:1084E000FFF7BFFF0028F6D0F0E700BF01830D00C3
:1084F0002DE9F34104460190406F02F067F804F162
:10850000800104F19000FFF79BFFE36E834202D2EB
:108510002046FFF777FEDFF84880104F261D3046D3
:1085200001F0ECFF236F984205DC01A8FFF74CFE39
:1085300002B0BDE8F0810121304601F091FF05460F
:108540000028ECD001460022304601F0C5FD2A4645
:1085500041463846FBF7B8FDE1E700BF60E2032083
:1085600043FB0D0013B50446002002F0F1FA012888
:1085700005D012491248FDF7FCF902B010BD04F114
:10858000740002F013F80F4A002300214FF4046036
:1085900002F0BEFAFDF736FFFEF758F8201D01F095
:1085A000DBFE2046FFF7A4FF074B0093694600233C
:1085B00004F1C0000193FFF7D7FDDEE756FB0D0085
:1085C00060E20320C9820D00A1840D0070B503682C
:1085D000044663B1436A45691E1DAE4204D955F88D
:1085E000040BFBF75CFDF8E72068FBF758FD20461D
:1085F00070BD2DE9F04706468946406A7169736887
:10860000471A09EBA7050135B3EB450F144627D9E7
:108610005D1B6D083268AD000CB14FEA89042C4433
:108620001444031DA142A3EB010213D9994202D0C5
:10863000204606F07BF974612368F36003F500734C
:108640003361E3197362E359F36103F50073336235
:10865000BDE8F0879942EED0381D801A2044E8E743
:1086600003F102084B452CBF9844C844B8F1005FA1
:1086700001D305F0C7FC4FEA8800FBF70CFDA8EB1F
:1086800005056D088246AD000CB14FEA8904726A97
:10869000716904322C449142544403D0521A20464A
:1086A00006F044F93068FBF7FAFCC6E900A8C2E717
:1086B0002DE9F04186B004469DF830509DF83430E5
:1086C0002B430F461646FFF73BFC0546002842D0D9
:1086D000434B44494448002E18BF33463A46FDF701
:1086E00031F9606F059401F071FFD4F89820D4F847
:1086F0009030043A934204F1780804F1900604F1B2
:1087000080072BD003B11D60D4F890300433251DB1
:10871000C4F89030284601F0F1FE39460390304607
:10872000FFF78EFE029002F06BFADDE90232009054
:108730002E492D48FDF706F9284601F0DFFE0028F6
:108740003ED02046FFF75EFD2046FFF7D1FE05A88C
:10875000FFF73AFD012006B0BDE8F081394630460A
:10876000FFF76EFE6FF06043984202D1204805F09B
:108770004CFCD4F89C30A26F9A1AE36FA3EBA203CF
:10878000012B04D8002201214046FFF732FF4FF4AD
:108790000070D4F89C80FBF77EFCC8F80400D4F885
:1087A000903003B11D60D4F89C301A1DC4F89C2091
:1087B0005B68C4F8943003F50072C4F89820A6E70B
:1087C00039463046FFF73CFEE36E8342B9D302F0F0
:1087D00017FA0028B5D007490348FDF7B3F8B3E707
:1087E00090010E0079FB0D0060E20320D1FB0D002B
:1087F000A1FB0D00FDFB0D0073B590F8B0300446F1
:10880000002B41D090F8B130D0F8A420002B3DD0FF
:1088100052495348FDF796F8D4F8A430D3B1261D39
:108820000021304601F01CFED4F8A43098420546E1
:108830000DD10121304601F013FE002229463046B9
:1088400001F04AFC474946482A46FDF77BF80023D9
:10885000C4F8A430D4F8A00010B1432105F0CCFB3B
:108860000023C4F8A030D4F8B830C4F8AC303E4B84
:1088700000936946002304F1C0000193FFF774FCE4
:1088800001F0DCFEC4F8A80002B070BD37493448DE
:10889000FDF758F8D4F8BC30C4F8AC30D4F8A430A4
:1088A0004BB1D4F8A00010B1432105F0A5FB002383
:1088B000C4F8A030DBE7606F009401F087FED4E9D4
:1088C0002032934213D0D4F8A02043F8042CD4F8DB
:1088D0008030043BC4F880306846FFF775FC2449BB
:1088E0001F48FDF72FF82046FFF78CFCBFE704F187
:1088F000800104F19000FFF7A3FD6FF06043984200
:1089000004F1780502D11B4805F07FFBD4F88C20D8
:10891000A36F9A4204D1012211462846FFF769FE4F
:108920004FF40070D4F88C50FBF7B5FB45F8040CFD
:10893000D4F88C301A1FC4F88C2053F8043CC4F8C7
:10894000843003F50072C4F8882003F5FE72C4F881
:108950008020D4F8A020C3F8FC21BDE710FC0D0056
:1089600060E2032023FC0D0001830D0033FC0D00A9
:1089700045FC0D00A1FB0D00014B024A1A60704737
:1089800060E203206CFC0D0010B5074B044640F874
:10899000C03BFDF7F3FC04F17800FFF717FE201D44
:1089A00001F018FC204610BD80FC0D0010B50446F7
:1089B000FFF7EAFF2046D02105F01EFB204610BD40
:1089C00001600271704700680368DB68184700683F
:1089D00003681B6A1847006803689B6A18470068A9
:1089E00003689B6B184737B505460C46194601923C
:1089F000FFF7F5FF2868019A03685B69214603B019
:108A0000BDE83040184700680368DB6B184738B58D
:108A10000446006803680D465B6B9847294620466C
:108A2000FFF7F1FF257138BD38B5044600680368CB
:108A30009B689847054618B121792046FFF7E7FF64
:108A4000284638BD006803681B6C18470068036837
:108A50005B6C184700680368DB6C184700680368A4
:108A60001B6D1847006803685B6D18470068036852
:108A70009B6D18472DE9F843044600680A9F1E467F
:108A800003681B69DDE9089898470546C8B11EB11F
:108A90002046FFF7E3FF3070B9F1000F04D0204605
:108AA000FFF7D8FF89F80000B8F1000F04D0204686
:108AB000FFF7D8FF88F800001FB12046FFF7D6FF68
:108AC00038702846BDE8F883012070470379032BEE
:108AD000FCD00120704700207047817170474171C0
:108AE0007047C17270470173704741737047837B51
:108AF00023EA0202114381737047C0797047007AFC
:108B00007047407A7047807A7047008A00B2704799
:108B10000079704701717047408A80B27047808A3F
:108B200080B27047C08A80B2704738B505460C469F
:108B30002B682846DB68984728B9002CF8D02046D7
:108B400002F076F9F4E738BDF8B505460F4614464D
:108B500001F074FD064601F071FD801BB8420AD297
:108B60002B682846DB68984730B9002CF3D02046A4
:108B700002F05EF9EFE70020F8BD70B504460E463E
:108B800001F05CFD054601F059FD401BB04204D2E6
:108B90002379032BF7D0012070BD0020FCE770B5CE
:108BA000C3690446B3B101F049FD64260546236854
:108BB00020461B6B984768B101F040FDE369401BFC
:108BC000984209D80A21012004F01CFB704302F0EE
:108BD0002FF9ECE7012070BD0020FCE7064A026097
:108BE000FF210022027141714282C1728282818121
:108BF0008273C282C261704794FC0D007047704757
:108C000070477047704741717047817170470171BB
:108C10007047000030B5034D0560017142718371EA
:108C200030BD00BF14FD0D00704710B51021044683
:108C300005F0E2F9204610BD0EB403B503AB0021E8
:108C400053F8042B019304F0A1FA02B05DF804EB91
:108C500003B0704773B5044608462279A36832B161
:108C6000A3B90B4902B0BDE8704004F05EBA094AEE
:108C7000267B094D0949647B012E18BF2946CDE9A1
:108C800000140749FFF7D8FF02B070BD054AEFE7AF
:108C900051FD0D0090010E004DFD0D0049FD0D0030
:108CA00067FD0D0040FD0D0010B50446FFF7B2FF53
:108CB000054B2360054BA36001232373002323612D
:108CC000A382204610BD00BFA0FD0D008CFD0D004D
:108CD00013B50B4C2178BFF35B8F11F001010BD161
:108CE00020460191FBF7E8F9019928B1054804F005
:108CF0009FFA2046FBF7E5F9024802B010BD00BF1D
:108D000068E203206CE2032007B50191FFF7E0FF62
:108D1000019903B05DF804EB04F03CBB08B5FFF724
:108D2000D7FFBDE8084004F03BBB08B5FFF7D0FF14
:108D3000BDE8084004F035BB10B50379042B20D002
:108D4000032B20D0022B20D0114A1249012B18BF2F
:108D50000A4641798379013918BF012133B1012BCA
:108D600004D0022B02D0032B18BF0023002404736D
:108D7000026101754375FFF7ABFFBDE8104004F0D9
:108D800061BA054AE5E7054AE3E7054AE1E700BFBE
:108D900080841E0040420F000024F40000127A007C
:108DA00000093D0008B5FFF793FFBDE8084004F057
:108DB0005ABA10B50446FFF78BFF04F10801BDE86D
:108DC000104004F079BA08B5FFF782FFBDE808400B
:108DD00004F058BA08B5FFF77BFF08BD002302482E
:108DE0001A461946FFF760BF74E20320012A05D135
:108DF000007A0B781B1A5842584170470020704780
:108E00002DE9F04F264D012387B02B706B700023A6
:108E10000F46A97000930322FF232946064600F05F
:108E2000E7FB20B10024204607B0BDE8F08FFA230D
:108E30008DF8173001F002FC06F104098046AA46BD
:108E400008F57A6401F0FAFB201A0028EADD81B205
:108E500000224846FFF7BFFD0028F3D00023CDE9EC
:108E60000233CDE900330DF117025146304600F0D0
:108E7000C9FB04460028E3D09DF81730012BDFD949
:108E800095F800B0BBF1020FDAD14846FFF7E6FDD6
:108E90005B4602463946304600F021FBC3E700BF7F
:108EA0008CE20320012A2DE9F34107460E461446C1
:108EB0003BD94D79022D30D100F10408C9790191D7
:108EC0004046FFF7CBFD083C2B4602460199384649
:108ED00000F005FBE5B206F10803002422469542A6
:108EE00004F10104E4B204D913F8012B397A914258
:108EF000F4D104F108010E44A54216D916F8011B5D
:108F000001914046FFF7AAFD013402460199022370
:108F10003846E4B200F0E3FAEEE7032D05D1897993
:108F200002B0BDE8F04100F0C3BA02B0BDE8F08184
:108F300010B5044600F014FB014B2360204610BD21
:108F4000D4FD0D002DE9F047F92A9DF82090064642
:108F50000F4614461D4625D8FF2B14D1DFF8488054
:108F6000404600232246394600F8013B05F0D0FC7C
:108F7000621CCDF820902B4641463046D2B2BDE867
:108F8000F04700F035BB194600F04EFA0028E5D155
:108F9000336829469B68304698470028DED1022076
:108FA000BDE8F0870120FBE78CE203202DE9F04FBC
:108FB00089B09846FA238DF81A300DF11F030393F8
:108FC0000DF11E03DFF880A102930DF11D03019343
:108FD00007AB0093894617460DF11B030DF11A02EA
:108FE0005146DDF848B0054600F00CFB56460446F5
:108FF00020B90024204609B0BDE8F08F9DF81A3052
:1090000073B39AF800205ABBB8F1000F03D09DF853
:109010001B2088F80020BBF1000F03D09DF81C2016
:109020008BF80020139A1AB113999DF81D200A702D
:10903000149A1AB114999DF81E200A70159A1AB143
:1090400015999DF81F200A703A783D49013BDBB223
:109050009A4288BF3B703A78484605F059FCC9E708
:109060009DF81C20FF2AC4D1012BC2D93278012AD5
:10907000BFD12A7A9DF81B40A242BAD0DF1E3149E7
:10908000FFB200235FFA83F8474506D911F8010BB8
:10909000824203F10103F5D1ABE705F1040948462B
:1090A000FFF7DCFC022302462146284600F017FAAF
:1090B00095F8173193B1244CA31BDBB29F420CD916
:1090C000E17805914846FFF7C9FC0599024602235D
:1090D000284600F004FA0134EEE7B8462B687278AF
:1090E000DB681A4928469847044660B102230024E9
:1090F00033709DF81A209DF81B30134900942846C0
:1091000000F076FA76E795F8163143457FF671AFB1
:1091100095F81731002B3FF46CAF9DF81A202B7A8D
:1091200009493E440132F3709DF81B300190D2B2E0
:1091300000932846FF238DF81A2000F023FA59E700
:109140008DE203208FE203208CE203208EE20320D5
:109150002DE9F04F85B080461C46DDE91056129F80
:109160008946924601F06AFA08F1040B044401F0C2
:1091700065FA201A002816DD81B200225846FFF752
:109180002AFC0028F3D00F9B0093CDE902670E9BC9
:109190000195524649464046FFF708FF0028E6D0B1
:1091A00005B0BDE8F08F0020FAE70000F0B585B00B
:1091B000054604300E460392FFF750FC039A07461B
:1091C0003146284600F047F90228044601D0052818
:1091D0001BD13178284600F06BF972782B7A9A42CD
:1091E00013D00B4C03232370337863707178022300
:1091F0003A46284600F073F900230093214673781D
:109200000222284600F0F4F90446204605B0F0BDDD
:109210008CE2032010B50446FFF7D2FBC8230021DF
:10922000E3810323A160217323744FF4807204F15E
:10923000110005F095FB204610BD1FB504460192B4
:10924000FFF700FC204600228021FFF7FFFB2122D0
:10925000019B8DF80F200DF10F0101222046FFF731
:10926000C2FB2046FFF7B3FB04B010BD2DE9F04F61
:10927000057B0135EDB287B0044689469246984693
:1092800005730027227C3B469A4207F10107FFB293
:109290006BD329462046FFF7D5FB012F0DBFC02217
:1092A0008022402100212046FFF7D0FB4346524652
:1092B00049462046FFF797FB2046FFF788FBB8F1A9
:1092C000FF0F54D0012F82BFA3680133A36001F0C8
:1092D000B5F94FF4807183460020E68903F092FFD0
:1092E000704348BFFF3006EB20261BFA86F601F0DC
:1092F000A5F9301A0028C5DD81B200222046FFF70B
:109300006AFB0028F3D00DF1170302930DF1160349
:10931000019300220DF115030093114605AB204681
:10932000FFF7A8FB0028E2D09DF814209DF9173024
:1093300042450ED194F804C09DF815108C4508D113
:10934000002B08DA9DF81630AB42D0D107B0BDE84B
:10935000F08F002BCBDBA1189DF81630497C994289
:10936000C5D12046FFF769FFC1E70020EEE70120E5
:10937000ECE72DE9F04389B0CDE90421DDE910984F
:10938000129F04461E46FFF71EFBDDE9042120B9AB
:109390000025284609B0BDE8F0830DF11F030293B4
:1093A0000DF11E0301930DF11D030093204607AB41
:1093B000FFF760FB05460028EAD09DF91F30002B1F
:1093C000E6DB22799DF81D309A4206D19DF81C20DB
:1093D0009DF81E102046FFF730FF9DF81C209DF8D9
:1093E0001E301444617C9942D2D006B13270B9F17A
:1093F000000F03D09DF81D2089F80020B8F1000F60
:1094000001D088F8003017B19DF81F203A706374BE
:10941000BFE7704710B504460430FFF705FB10B1F5
:109420001E2384F8163110BD10B50246002392F8B1
:1094300018418C4208D192F81A412CB103EB430336
:1094400003F58C73184410BD01330A2B02F103029B
:10945000EDD10020F7E737B50B78FF2B05460C461A
:1094600006D019460192FFF7DFFF58B14378019A01
:109470002146281DFFF7FAFE002814BF0020052012
:1094800003B030BD0220FBE710B501EB41030446F9
:10949000C1F1090203F58C7003F21B1102EB4202C9
:1094A0002144204405F034FA002384F8353110BDFE
:1094B00038B50A46002300F58C7403EB4305D9B296
:1094C000655D954203D1FFF7DFFF012038BD013311
:1094D0000A2BF2D10020F9E70021FFF7D5BFF8B53C
:1094E00016461F4604460D46002300F58C7203EB1A
:1094F0004300115CA94205D1204480F8196180F82D
:109500001A71F8BD01330A2BF1D1002304F58D72D5
:1095100003EB4300115C19B9204480F81851ECE7C3
:1095200001330A2BF4D12046FFF7D6FF204604F181
:109530001E0390F81A212AB980F8185180F8196191
:1095400080F81A7103309842F3D1DAE700F11E0374
:10955000002280F81A2103309842FAD170470000A7
:1095600010B504460430FFF755FE054B23604FF459
:109570008F732046A4F81631FFF7E8FF204610BD90
:10958000ECFD0D002DE9F3470446406801911F46AC
:1095900003689DF828A09B699DF82C901646984773
:1095A00006F1050880451CD8104D019985F801A0E9
:1095B0000023AB7094F81531EB705A1C84F8152118
:1095C000681D32462F7085F8049005F0A1F92368D4
:1095D0005B685FFA88F22946204602B0BDE8F04792
:1095E0001847012002B0BDE8F08700BF86E30320E2
:1095F00013B59DF810400194047A0094FFF7C2FF60
:1096000002B010BD2DE9F04F87B01F46FF238DF843
:1096100013300DF117030293DFF8D0900DF116030C
:1096200001930DF11503009304468846164605ABD9
:109630000DF1130249460430DDE910BAFFF799FE37
:10964000054608B9002538E023689DF813201B68FB
:1096500049462046984799F80030227A9A4201D02C
:10966000FF2B2ED117B1214B5B783B70BBF1000F64
:1096700003D01E4B1B788BF80030BAF1000F03D0DB
:109680001A4BDB788AF80030129B1BB1174B129AE9
:109690001B791370139B1BB1144B139A9B78137097
:1096A0009DF8133032781249053BDBB29A4288BFED
:1096B00033703278404605F02BF9284607B0BDE8F4
:1096C000F08F99F802305A1C89F8022094F816217C
:1096D0009A42B7D994F81731002BB3D023689DF87C
:1096E00013205B68494620469847ABE786E3032092
:1096F0008BE3032010B50446006A0368DB689847D3
:1097000094F82400FF2802D0012104F0A7FB23686D
:109710002046DB6F9847642001F08AFB012010BDD2
:1097200090F82400002104F0AABB90F82400012145
:1097300004F0A5BB70B504460D461646FFF74EFA79
:10974000034B2360266284F82450204670BD00BF7E
:10975000FCFD0D0038B50446006A03681B6A0D461F
:109760009847236820469B6F9847206A036805F056
:109770007F011B689847206A036800211B6898478F
:1097800023680546DB6F20469847206A03685B6ABA
:109790009847284638BD70B50446006A03681B6ABE
:1097A00016460D469847236820469B6F9847206AC7
:1097B000036845F080011B6898470546206A0368E6
:1097C00031461B689847012000F030FF236820468F
:1097D000DB6F9847206A03685B6A9847284670BD2C
:1097E000F8B50446006A1E4603681B6A0F46154614
:1097F0009847236820469B6F9847206A036807F0C4
:109800007F011B6898472E440746B54207D0206A5F
:10981000036800211B68984705F8010BF5E72368EA
:109820002046DB6F9847206A03685B6A9847384692
:10983000F8BDF8B50446006A1E4603681B6A0F4669
:1098400015469847236820469B6F9847206A03680F
:1098500047F080011B6898472E440746B54206D062
:10986000206A15F8011B03681B689847F6E7236810
:109870002046DB6F9847206A03685B6A9847384642
:10988000F8BD006A03689B6A184701207047FB20F7
:109890007047704710B50379052B044610D0036854
:1098A0000521D3F880309847072201212046FFF791
:1098B00072FF802240212046FFF76DFF05232371B0
:1098C0002379052BFCD0207E10BD10B54FF4987184
:1098D000044604F091FB204610BD10B50379012B1E
:1098E00004460BD003680121D3F88030984700224A
:1098F00001212046FFF74FFF01232371012010BDF6
:10990000F8B50368DB6804460F46154698470646D7
:10991000B0B187B17DB194F828302A78033B9342E7
:10992000DEBF94F82830043B2B702A7804F12D0117
:10993000384604F0EDFF002384F8283184F82830FD
:109940003046F8BD38B5044615461A46FFF7F2FE14
:10995000094B2360FF22002384F82720012284F88A
:10996000283184F82C3184F8265084F82B2184F88F
:109970002530204638BD00BF94FE0D0090F82830F9
:10998000032B1BD990F82930C37190F82A30037249
:1099900090F82B30437290F82C308372837933B96E
:1099A000C37942799A4202D0C379FF2B06D1838AC8
:1099B00001339BB28382012380F828317047000075
:1099C00038B504462DED028B10EE100AB0EE408A39
:1099D00004F086FC17A3D3E9002304F0D9FC17A3F5
:1099E000D3E9002304F0FEFD04F0E4FE0621054661
:1099F000C0F307422046FFF7CEFEC5F3072207213A
:109A00002046FFF7C8FEEAB208212046FFF7C3FE52
:109A1000DFED077AB4EEE78ABDEC028BF1EE10FAC7
:109A2000ACBF01230023012084F8293138BD00BFD9
:109A300000C042440000000080842E41000000006D
:109A400080844E4010B50379022B04460BD0036886
:109A50000221D3F880309847012211462046FFF7B3
:109A60009AFE0223237110BD70B512210446FFF740
:109A700071FE1C2105462046FFF76CFEFF220646BC
:109A800012212046FFF787FE2379042B07D115F01A
:109A9000A00F17D194F82B310BB1700612D5237992
:109AA000042B01D1690622D42379032B01D12A0783
:109AB00069D42379052B0ED16B070CD505F0010570
:109AC000257659E0638A01339BB26382002384F8D0
:109AD000283184F82830FF2212212046FFF75BFE50
