:02000002B0004C
:1040000000400B004C590C00000006000D0005029A
:084010000401A50F00000000EF
:04401800E0330C0085
:1040200009480A49884208B505D0094A824202D0A7
:10403000121A0CF0CDFF0748074A0021121A0CF0A3
:10404000EFFF014808BD00BF8CD5032038560C0097
:1040500074D8032078D80320F4E7032070B5074E06
:10406000074C0CF091F8A41BA4080025AC4200D129
:1040700070BD56F8043B98470135F7E7C4550C006E
:1040800008560C0001F0ECBC08B501F0F1FDBDE8EC
:1040900008400CF031B808F0CBBF08F0C9BF08F0F9
:1040A000CFBF000008B5034A03490C2008F04AFEC0
:1040B000FEE700BFE5C80B00F4330C000078B0FA4F
:1040C00080F04009704701230370704770477047C4
:1040D00010B504210446FFF7E2FF204610BD0000A2
:1040E00010B5054B00220446114640F8043B08F089
:1040F00051FE204610BD00BFE8390C0010B5044643
:10410000FFF7EEFF20462021FFF7C9FF204610BD34
:1041100010B5034B0360044604F012FB204610BDAB
:10412000FC390C0010B50446FFF7F2FF204640F2C0
:104130004C71FFF7B4FF204610BD37B51D4601ABEB
:10414000044604F0DFFC20B101992A46204604F021
:10415000EFFB03B030BD37B51D4601AB044604F09C
:10416000D1FC20B101992A46204604F0ADFC03B0F1
:1041700030BD0EB400B58CB00DAA4FF0200C52F833
:10418000041B0392CDE900120023016804AA1E203B
:10419000CDE904C308F0E6FD0CB05DF804EB03B014
:1041A0007047000010B5064C236833B90420FFF7B0
:1041B00072FF08B1034B03602060206810BD00BF90
:1041C0007CD803200C3A0C007047000010B5064C58
:1041D000C0B00DF1030201A9204607F08BFB0028B7
:1041E000F7D140B010BD00BFFCD80320014807F054
:1041F0006EBB00BFFCD80320134B10B51C880021F8
:1042000020460CF05AF80A2008F092FF01212046BF
:104210000CF053F80A2008F08BFF0C4807F0F5F873
:10422000044628B90A490B48FFF7A3FF204610BDF2
:104230009FED090A094807F0E3FB0848002217210F
:1042400007F058FDF2E700BFB8430C0078E1032007
:1042500009340C0058E6032000C06444FCD8032055
:1042600010B50C4686B0FFF7C7FF74B302F0BEF876
:10427000002102F055FA02A808F042FE029A3049E5
:104280003048FFF776FF02A80BF054FA02F06EF9FF
:10429000014602A802F090F90299019108460CF03B
:1042A0008AFF01990246284804F085FA02A80BF01B
:1042B00041FA254804F0D8FF00283BD02349214883
:1042C000FFF757FF012006B010BD02F08FF802F093
:1042D000B9F9D8B102F08AF802F0B4F90A2815D871
:1042E00002F084F802F0AEF90146194806F0B9FB75
:1042F000174806F09CFB019002A808F001FEDDE9DA
:10430000012314490F48FFF734FFBCE702F06EF8B1
:104310000B2102F005FA0B210D4806F0A2FB0C4818
:1043200006F085FB019002A808F0EAFDDDE9012313
:104330000949E7E702F01AF902F056F90749BEE722
:1043400015340C0058E603202CDA0320CD340C0081
:104350007CE103204F340C0086340C00E1340C0067
:1043600038B5244C02F07AF8B4F8031049BA89B28F
:1043700002F0A8FA02F072F8B4F8051049BA89B24E
:1043800002F0A6FA02F06AF8E17902F029FA02F0E6
:1043900065F8217A02F000FA02F060F80546607ACA
:1043A0000CF0E4F941EC100B284602F09DF802F005
:1043B00055F8A17A02F0F6F902F050F8E17A02F02D
:1043C000F7F902F04BF8217B02F0F8F902F046F819
:1043D000617B02F0F9F902F041F80446064806F064
:1043E000BEFB81B2204602F067FA044B04221A7029
:1043F000012038BD80D80320FCD8032078D80320C2
:1044000010B502F02BF80E4B997802F0E3F902F0A8
:1044100025F804460BF041FD0246C317204602F082
:10442000B1FA02F01BF80446064806F098FB81B288
:10443000204602F041FA044B06221A70012010BDFA
:1044400080D80320FCD8032078D8032030B50A2A6E
:1044500087B00446154605D918490BF0B6F9204631
:1044600007B030BD164902A80BF0AFF9154804F0AB
:10447000E4F9154A014601AB124804F043FB0199E7
:1044800010486A1E04F0FBF9014638B90B49204672
:104490000BF09BF902A80BF04DF9E0E709480B4A35
:1044A00002ABFFF758FE002102A80BF054FA0028D7
:1044B000ECD102A920460BF0B9F9EBE709350C0065
:1044C000E04F0C002CDA03200E350C0014350C00E4
:1044D0000A2913B50C4613DC0F4804F0AEF90F4A55
:1044E000014601AB0C4804F00DFB01990A48621E1D
:1044F00004F0C5F9014628B909490A48FFF739FE11
:10450000FF2006E00448084A6B46FFF716FE9DF8B8
:10451000000002B010BD00BF2CDA03200E350C00E5
:1045200018350C0058E6032044350C000A2913B551
:104530000C4613DC0F4804F080F90F4A014601AB2A
:104540000C4804F0DFFA01990A48621E04F097F95A
:10455000014628B909490A48FFF70BFEFF2006E08B
:104560000448084A6B46FFF7E8FD9DF8000002B0DA
:1045700010BD00BF2CDA03200E350C0049350C00AD
:1045800058E6032077350C002DE9F743074601F084
:104590002DFF02F042F904461F48DFF87C80DFF867
:1045A000949004F04AF901AB01461C4A1A4804F001
:1045B000A9FA3C236343DE17DC18764100250199F4
:1045C0002A46404604F05BF9014680B16B464A46F4
:1045D0004046FFF7B2FD0BF060FC009BC31ADA17F0
:1045E000A34272EB060314DB01350A2DE7D10C4A16
:1045F00000240C490C48FFF7BCFD34B90A480B49AC
:10460000FFF7B7FD3846FFF7F7FD204603B0BDE8DA
:10461000F083074A0124ECE72CDA03200E350C0066
:104620007C350C008B350C0058E60320A4350C00BB
:104630007E350C0086350C0038B5046805467CB123
:104640006368013B63605BB9236820469B689847B9
:10465000A368013BA3601BB923682046DB68984729
:10466000284638BD2DE9F0410022B0B0064614219D
:10467000022008F0EBFB4FF001081E2203465A49C6
:104680005A4CCDE9002808A8022209F051FD01F09A
:10469000ADFE02F0BDF8000A207001F0A7FE02F0A6
:1046A000B7F860700BF0F9FB0016A0700BF0F5FB8B
:1046B0000014E0700BF0F1FB001220710BF0EDFB29
:1046C000607101F093FE02F0A8F8000AA07101F0F9
:1046D0008DFE02F0A2F80025E071257201F0BEFE09
:1046E00001F0D3FF607201F0B9FE01F0CEFF014688
:1046F0003046FFF7EDFE3E4BA0721F88414638461C
:104700000BF0DBFD01F0AAFE01F0C4FF022203461C
:10471000009238480B22214606F03CFC0646002851
:1047200053D101F09BFE054601F098FE01F0ADFF6C
:104730000146284602F02AF8314638460BF0BDFD06
:1047400001F08CFE01F0A6FFA17A2B4A2B4C0590BC
:10475000002918BF144601F081FE01F0B9FF05469B
:10476000274806F0FCF9059B264A0094CDE9015044
:10477000802110A808F084FC234810A9FFF7F9FC59
:1047800008F0B6FB60B1214B21491B788DF8003051
:1047900006A83C2310AA08F097FF07A8FFF74CFFD4
:1047A0000022012109A808F0F5FA642008F0C0FCF5
:1047B0000022114609A808F0EDFA012508A8FFF724
:1047C0008FFC284630B0BDE8F08101F047FE01F0D3
:1047D00061FF104902460C48FFF7CBFC29463846DA
:1047E0000BF06BFDEAE700BF0060FF0080D80320FC
:1047F000B0430C0078E10320D8350C00D4350C0010
:10480000FCD80320DF350C0058E6032079D80320BC
:104810002E360C0035360C002DE9F047B8B00F46A7
:104820000EA84149414DDFF82C81DFF82C910AF0A8
:10483000CCFF3E4804F001F83D4A01460DAB3B4831
:1048400004F060F900260D993246284604F017F866
:104850000446002862D001460EAB42462846FFF7C8
:104860007AFC08AB4A4621462846FFF766FC314AE7
:1048700009AB21462846FFF760FC2F4A0AAB2146C8
:104880002846FFF75AFC2D4A12AB2146284604F071
:1048900039F920B112990BAA284604F05BF8214699
:1048A000274A0CAB2846FFF748FC099A089CDDF81C
:1048B00038A0D31712A80BF0EBF90C9B0B980693BA
:1048C0000BF076FF0A9B0293129B1E4ACDE904016E
:1048D000CDE900A38821234616A808F0D1FB12A831
:1048E0000AF028FF184816A9FFF743FC08F000FB60
:1048F00088B187B1154B16491B788DF8003016AA80
:104900003C2312A808F0E0FE13A8FFF795FE4FF431
:104910007A7008F00DFC01360A2E94D10EA80AF028
:1049200009FF38B0BDE8F087E04F0C002CDA032017
:104930000E350C0086350C0044350C0061360C0039
:1049400077350C0066360C0058E6032079D8032032
:10495000BD360C0014350C005C360C0037B504462F
:104960001546019104F0F2F901990122204604F064
:104970005BF920463A2104F00BF904492A46204607
:1049800003B0BDE8304004F042B900BFEF360C0080
:1049900013B5114B114C01221A703223009304F10C
:1049A0002C0104F22C434FF48062204603F02AFFCE
:1049B0000B4B23600B4A0C4C0C490D4B12780978B9
:1049C000204606F0DDFF0B480022214602B0BDE87C
:1049D000104006F0D5BA00BF79D803202CDA0320A6
:1049E000FC390C00B6430C00FCD80320B4430C0087
:1049F000ECE4032078E103202DE9F04796B00E4661
:104A000002A85649DFF85881DFF86CA10AF0DDFEF4
:104A1000534803F012FF534A014601AB504804F0DB
:104A200071F8002501992A46404603F028FF6C1CC6
:104A30000746A146002870D14B494C482A46FFF74B
:104A400098FB474906A804F0C5F933462246484971
:104A50004648FFF78EFB424803F0E4FE014606A8F5
:104A600004F0F3F97D227B2106A804F07AF92246AE
:104A7000404906A8FFF772FF06A804F067F9012273
:104A800006A83D4904F0D0F806A83A2104F080F8C1
:104A90003146012206A804F0C7F80BF0FEF90546DE
:104AA00006A804F053F9012206A8344904F0BCF822
:104AB00006A83A2104F06CF82A4606A8304904F00A
:104AC000A6F83049032206A8FFF748FF06A804F01D
:104AD0003DF9012206A82C4904F0A6F83A2106A8BF
:104AE00004F056F89FED290A06A804F053F90022B5
:104AF000274906A8FFF732FF06A804F057F806A8D2
:104B000004F0FFFB01F032FDD8F8041001F066FD5F
:104B100006A8E4B203F000FE12E0014602AB4046F4
:104B20005246FFF718FB314602A80AF014FF70B195
:104B3000104A0B486B463946FFF7FFFA9DF80040D4
:104B400002A80AF0F7FD204616B0BDE8F087AC1CBD
:104B50004D460A2D7FF466AF73E700BFE04F0C00AF
:104B60002CDA03200E350C00C6360C0058E6032064
:104B7000F2360C005C360C0014350C0086350C0047
:104B8000D8470C0044350C0061360C0000000000D2
:104B900077350C0070B52DED028B0A2998B00E46C2
:104BA000B0EE408A62DC324D284603F046FE314AC0
:104BB000014602AB284603F0A5FF0299721E284663
:104BC00003F05DFE0446002850D001AB01462A4A9E
:104BD0002846FFF7B2FA019B9E4243D103AB274A16
:104BE0002146284603F08EFF294608A804F0F2F873
:104BF000039908A804F000F90BF04FF92049024688
:104C000008A804F004F808A804F07BFB1D4A03ABD5
:104C10002146284603F076FF039908A804F0ECF833
:104C2000B0EE480A08A804F0B5F808A804F069FB3B
:104C300001F09CFC014604A801F0BEFC0499124856
:104C4000FFF797FA04A80AF075FD01F08FFC696878
:104C500001F0C4FC08A803F05FFD012018B0BDEC12
:104C6000028B70BD09490848FFF783FA0020F5E779
:104C70002CDA03200E350C005C360C0086350C0057
:104C8000EF360C0061360C0058E6032026370C0086
:104C900070B50A2994B00C4616463DDC1F4D2846D7
:104CA00003F0CBFD1E4A014602AB284603F02AFF63
:104CB000621E0299284603F0E2FD044660B30146F5
:104CC000184A01AB2846FFF738FA019A16491748E7
:104CD0003346FFF74EFA03AB124A2146284603F04B
:104CE00011FF294604A804F075F8039904A804F0FC
:104CF00083F832460E4904A803F089FF04A804F0A3
:104D000000FB01F033FC696801F068FC04A803F0C3
:104D100003FD012014B070BD0020FBE72CDA032056
:104D20000E350C0044350C003A370C0058E60320D1
:104D3000EF360C00F0B53C4B02221A7091B03B4AA2
:104D400009AC054602F1180327461068516826464B
:104D500003C608329A423446F7D11378337001F013
:104D60007DFB044601F07AFB01F08FFC304E0146DA
:104D7000204601F00BFD01F071FBF17E01F030FDEA
:104D800001F06CFB01F081FC0A2830D901F066FBD0
:104D9000394604462846FFF72FFE0146204601F01B
:104DA000EFFC01F05BFB01F075FC039001F056FB9A
:104DB00001F06BFC039A00901E491F483B46FFF729
:104DC000D8F901F04BFB012101F004FD01F046FB95
:104DD00001F05BFC039001F041FB01F07EFC0399C4
:104DE00002462846FFF754FF012011B0F0BD01F044
:104DF00035FB01F04AFC0446FFF7D4F9039001F0BB
:104E00002DFB01F042FC0399024605A8FFF71EFBAB
:104E1000F37E00930949059B07482246FFF7A9F94D
:104E200005A80AF087FCCCE778D8032082D80320B5
:104E300080D803205D370C0058E6032098370C001B
:104E400070B50A2994B00C4616463DDC1F4D284625
:104E500003F0F3FC1E4A014602AB284603F052FE63
:104E6000621E0299284603F00AFD044660B301461B
:104E7000184A01AB2846FFF760F9019A164917480E
:104E80003346FFF776F903AB124A2146284603F072
:104E900039FE294604A803F09DFF039904A803F0F6
:104EA000ABFF32460E4904A803F0B1FE04A804F09B
:104EB00028FA01F05BFB696801F090FB04A803F09D
:104EC0002BFC012014B070BD0020FBE72CDA03207E
:104ED0000E350C0077350C00D8370C0058E603204F
:104EE000EF360C00F0B52DED028B0022B1B014218D
:104EF0000546022007F0AAFF1E2201210346CDE944
:104F0000002108A80222FF2109F012F901F0A6FAF7
:104F100001F0D4FB002800F0F78001F09FFA01F0C7
:104F2000D2FB044601F09AFA01F0C8FB08EE100A21
:104F300020460BF02BFCA44B00220BF0DBFAF8EE22
:104F4000487A064617EE900A0F460BF031FC0246EF
:104F50000B46304639460BF0ADFD9C4B00220BF062
:104F60007FFC0BF075FF08EE100A0AF096FF984CD4
:104F70000016A0700AF091FF0014E0700AF08DFF97
:104F8000001220710AF089FF607101F02FFA01F020
:104F900044FC000AA07101F029FA01F03EFCE07126
:104FA00001F05CFA01F071FB01462846FFF7BEFAFA
:104FB000072840F0AC8001F051FA01F066FB014691
:104FC0002846FFF785FA064601F048FA01F085FB0E
:104FD000334602467F498048FFF7CBF801F03EFA9E
:104FE000314601F0FDFB01F039FA01F04EFB0022E1
:104FF00001462846FFF724FF667201F02FFA01F000
:1050000044FBB0EE480A01462846FFF7C3FD0028DE
:1050100040F0838001F022FA01F037FB6F4902462D
:105020006D48FFF7A6F801F019FA012101F0D2FB53
:1050300001F014FA05460AF030FFC317024628466D
:1050400001F0A0FC0123237201F008FA01F0FAFC40
:10505000A07201F003FA01F031FB614BE0721D8890
:10506000012128460BF029F901F0F8F901F00DFBB8
:1050700004225749009203460C225A4805F08AFF41
:105080000146002840F0918028460BF016F901F007
:10509000E5F901F0FAFA05905348A57A247A05F06B
:1050A0005EFD059B514A0095CDE90140802110A885
:1050B00007F0E6FF484810A9FFF75BF807F018FF74
:1050C00060B14B4B4B491B788DF8003006A83C2350
:1050D00010AA08F0F9FA07A8FFF7AEFA002201219A
:1050E00009A807F057FE642008F022F800221146B4
:1050F00009A807F04FFE012408A8FEF7F1FF20469B
:1051000031B0BDEC028BF0BD9FED3B8A2DE701F085
:10511000A5F901F0E2FA60726FE701F09FF901F082
:10512000B4FA01462846FFF701FA0646B0B301F08B
:1051300095F9064601F092F901F0A7FA01462846D2
:10514000FFF7F4F90146304601F044FB01F086F91F
:1051500001F09BFA059001F081F901F0B9FA2749B5
:10516000059A03461C48FFF704F801F077F9064654
:105170000AF093FE0246C317304601F003FC01F02B
:105180006DF901F0A5FA207201F068F901F07DFADD
:10519000002201462846FFF753FE55E7207201F032
:1051A0005DF9314601F016FB4EE701F057F901F0C9
:1051B0006CFA134902460848FEF7DBFF0021284637
:1051C0000BF07BF8002497E70000F03F0000594007
:1051D00080D80320FD370C0058E6032031380C003E
:1051E000B0430C0078E10320FCD803207C380C008D
:1051F00079D803202E360C00000000005D380C002A
:10520000C6380C0073B5054601F0F0F801F000FB5C
:105210003D4C000A207001F0E9F801F0F9FA6070E5
:105220000AF03BFE0016A0700AF037FE0014E07092
:105230000AF033FE001220710AF02FFE607101F0B7
:10524000D5F801F0EAFA000AA07101F0CFF801F0F8
:10525000E4FAE07101F002F9064601F0FFF801F00E
:1052600014FA01462846FFF761F90146304601F07D
:10527000B1FA01F0F3F806460AF00FFEC317024632
:10528000304601F07FFB01F0E9F801F021FA2072CD
:1052900001F0E4F801F0F9F9002201462846FFF791
:1052A000CFFD1A4B1D88012128460BF006F801F0AE
:1052B000D5F801F0EAF90622034600922146144887
:1052C000092205F067FE044678B901F0C7F801F03D
:1052D000DCF9104902461048FEF74BFF28462146EC
:1052E0000AF0EBFF012002B070BD01F0B7F801F049
:1052F000CCF90A4902460848FEF73BFF2846002140
:105300000AF0DBFF0020EEE780D80320B0430C005A
:1053100078E10320F4380C0058E603200F390C0024
:1053200010B50F4C2378042B0CD02378022B04D11A
:10533000FEF738FFFFF796F950B92378062B09D00E
:10534000002006E0FEF72EFFFFF7CCFD0028ECD092
:10535000012010BDFEF726FFBDE81040FFF752BF49
:1053600078D8032070B588B079238DF81A300DF104
:105370001F0303930DF11E03474E02930DF11D030E
:10538000019307AB009345480DF11B030DF11A0281
:10539000314605F033FE10B9002008B070BD9DF80D
:1053A0001A300024F454358801F020F801F030FA66
:1053B0006DBAADB2A84214D001F050F801F065F911
:1053C000338805905BBA9BB2049301F00FF801F0AB
:1053D0001FFADDE90432009031493248FEF7C9FE78
:1053E000DAE701F03BF89DF81B102F4C01F0C8F9EB
:1053F0009DF81E3003F00F03237001F02FF801F029
:1054000044F92178294B059003EB011328480493B4
:1054100005F0A5FBDDE90432009026492148FEF79E
:10542000A8FE2378032B28D1FEF7BCFEFEF798FFD9
:105430000028B1D000F0DAFF01F0F4F9C0B100F0BB
:10544000D5FF044600F0D2FF01F0ECF901462046FA
:1054500001F026FA00F0CAFF002101F027FA00F05F
:10546000C5FF01F0DAF9144902460E48FEF781FE45
:10547000FEF798FEFFF754FF8FE7012B04D1FEF7EC
:1054800091FEFFF757FCD3E7052BD3D1FEF78AFE39
:10549000FEF7B6FFCCE700BF80D8032078E10320F9
:1054A00031390C0058E6032078D803208CD503202E
:1054B000FCD803208B390C00AB390C00014B1A606F
:1054C000704700BFFCD50320014B01221A707047C2
:1054D0006BE4032030B585B00446089860B140689D
:1054E00050B1856845B1CDE90241CDE90023C468DA
:1054F00001AB6A4602A9A04705B030BD30B585B002
:10550000006813680193D1E900458368CDE902453D
:105510000BB90AF0DDFFC36801AA02A9984705B0DC
:1055200030BD012A02D1016000207047022A04BF69
:105530000B680360F8E703681268D1E900011847B7
:1055400008B5002007F0F4FC28B107F0D1FC80F08A
:105550000100C0B208BD0120FCE710B58368044615
:1055600013B1032201469847204610BD10B50446EA
:1055700038B1FFF7F2FF20461021BDE81040FEF7DA
:105580008EBD10BD70B5144C144D2378144E022BF3
:10559000C2B017D10AF064FCA0B92278337805EBC9
:1055A000021200920F4A05EB03134FF4807102A818
:1055B00007F066FD23780C48337002A9FEF7D9FD89
:1055C00042B070BD2278337805EB0212009205EBF1
:1055D0000313064AE9E700BF6AE4032000D603206C
:1055E00069E40320143A0C0058E60320343A0C0016
:1055F00010B500F0FBFE01F010F904460AF030FC93
:1056000008B90A2010BD3C2044430AF046FCB0FB18
:10561000F4F303FB1400201A0928F2D9A04228BF92
:105620002046EFE72DE9F04F2DED028BE7B01EACE1
:10563000834B2360834B6360834BA360834BE360A6
:10564000834B2361834B63614FF0000A824BC4F8A4
:105650001CA0A3610546002800F0A18000F0FEFE1A
:1056600001F031F8804600F0F9FE01F027F81990BA
:10567000FEF798FD2A4601461AA8FEF7E7FEDDF878
:1056800068B000F0EBFE01F0D7F8149000F0E6FEF1
:1056900001F0D7F8159000F0E1FE01F01EF8169029
:1056A00000F0DCFE00F000FFB0EE408AF0EE608A11
:1056B00000F0D4FE00F0F8FF54F82030139300F00F
:1056C000CDFE00F0ECFF179000F0C8FE00F0F1FFF7
:1056D000189000F0C3FE00F0FBFF044600F0BEFE91
:1056E00000F0D3FF054600F0B9FE01F0A0F8064631
:1056F00000F0B4FE00F0E2FF07460AF0CEFB109087
:1057000040460BF043F8199B8046184689460BF03B
:105710003DF802460B46404649460BF0CBF94F4B4D
:1057200000220BF09DF80BF093FB0BF041F8189B57
:105730000893179B0793139B0693169B0293159B45
:105740000193149B464A0093CDE90E015B464FF44A
:1057500080718DED048B26A8CDE90945CDE90B6755
:1057600007F08EFC1AA809F0E5FF04F0D3FC3D4BCE
:105770003D4A1B7812783D49134302688DF800308A
:105780008DF804A014683C2326AAA047384826A90F
:10579000FEF7EFFC67B0BDEC028BBDE8F08F01F0C7
:1057A000CBFF1AA807F0ACFB1A9B139300F01EFE68
:1057B00000F066FF064600F051FE00F075FEB0EE08
:1057C000408AF0EE608A00F049FE00F06DFF54F868
:1057D000209000F043FE00F062FF044600F006FE59
:1057E00000F03AFF074600F001FE00F03AFF804665
:1057F0000AF053FB139B1F4ACDF818904FF48071A9
:10580000CDE90980CDE907478DED048BCDE901563F
:10581000009526A807F034FC1AA809F08BFF04F0C5
:1058200079FC104B104A1B78127813491343026815
:105830008DF800308DF8045014683C2326AAA4E7A4
:10584000423A0C004A3A0C004E3A0C00573A0C000F
:105850005F3A0C006B3A0C00713A0C0000005940A2
:105860007D3A0C002CE303202DE30320403B0C0089
:1058700058E60320553B0C00E33B0C0038B50023F1
:1058800083608B6804460D462BB102229847EB6873
:10589000E360AB68A360204638BD00002DE9F0430B
:1058A00095B005461C9904A890461F460CAEFFF71C
:1058B000E5FF04A908A8FFF7E1FF08A93046FFF7B4
:1058C000DDFF4FF000091020CDF84890FEF7E3FB14
:1058D0000446A0B196E8030001AB83E8030094E816
:1058E000030086E8030093E803000E9BE268A360D0
:1058F00084E803000F9BCDF838900F92E360244BAF
:105900001393244B1293002200234FF00009C5E9A2
:105910000023214BC5F8089010201094CDE90139DF
:10592000CDF80C90FEF7B7FB0446D8B1129BC0F837
:10593000089033B1022210A99847139BE360129B91
:10594000A360164B0393164A029401AB40463946B6
:1059500007F04CFAB0B12046FFF7FFFD10212046BA
:10596000FEF79DFB10A8FFF7F8FD3046FFF7F5FDA9
:1059700008A8FFF7F2FD04A8FFF7EFFD284615B0D1
:10598000BDE8F083029BAB60C5E90087EAE700BF92
:10599000FD540B00A5590B0002000C006D550B00C7
:1059A000D5540B00012A37B5044604D10B680360B7
:1059B000002003B030BD022A0CD0032AF8D10468BD
:1059C000002CF5D02046FFF7C8FD10212046FEF739
:1059D00066FBEDE7096801911020FEF75CFB0546C8
:1059E00010B10199FFF74AFF2560E1E7164B10B5AA
:1059F00001241C70154B08221A700AF0F7FB0023D3
:105A00001A4619460AF002FC0AF0F0FB00231A4677
:105A10000D210AF0F3FB0E4B1A1D1A600D4A5A6055
:105A20000022C3E902221A611C750AF0BFFC692238
:105A30000146094801F0E0FE0848062340F8043B0F
:105A4000BDE8104003F01EBE2CE303202DE303202D
:105A500060E303201000030040E3032078E3032009
:105A6000F0B500209DB006F055FF42F210750446D7
:105A7000002006F04FFF001B61F10001A84271F108
:105A8000000307D20AF0F0FA0AF0E3FA10B907F0BF
:105A90001FFAEDE70AF0E8FA0AF0DBFA01F0FCFC85
:105AA00001F02EFD00F0DAFC03685F4E1B685F4FCB
:105AB000984700F09BFC03681B68984700F056FD70
:105AC00003681B68984701F025F901F035F90823B0
:105AD00001213046738102F08BFB7C21304601F0BE
:105AE00089FF534B0693534B099306AD524B0893D2
:105AF0004FF48022002302A80095FFF7CFFE28462E
:105B0000FFF72BFD04F006FB04F00AFDFEF74AFB4D
:105B10000121FEF7A5FB03F095FF484904462846FE
:105B200003F062FE07A904F1080009F08AFE0C9B4D
:105B3000E3610DA904F1200009F083FE129B636369
:105B4000149BE363169B6364189BE3641A9B636571
:105B50009DF86C3084F85830284603F001FC0AF0B8
:105B60009CF9C317C7E91803384603F0E3FF0AF0AE
:105B700077F9334C002846D03946324A284603F09C
:105B8000C3FE01231A4610213046069F01F0B3FFE1
:105B90002D492E4B3A46002818BF0B462C482D495C
:105BA000FEF7E7FA284609F0C5FD2B4B1E88304664
:105BB0000AF09CFB054668BB28492548FEF7D9FA40
:105BC00000F014FC012100F0B7FD254B1F880121D6
:105BD00038460AF072FB4FF4FA6007F0A9FA29463A
:105BE00038460AF06AFB0523237000224FF0FF338A
:105BF0001C490092304608F01BF823780BB90223A9
:105C000023701DB0F0BD18491148FEF7B2FA052304
:105C10002370CAE715490E48FEF7ABFA00F0E6FB21
:105C2000002100F089FDE0E740E3032078E3032052
:105C3000BD540B0037550B0023550B00053C0C00E1
:105C40006AE403202C3C0C00FB3B0C00FE3B0C00E8
:105C500058E60320373C0C00B2430C00A63C0C0075
:105C6000B0430C00C9540B00683C0C00CA3C0C004B
:105C70002DE9F043894D2B78013B91B0062B1DD8BF
:105C8000DFE813F0BE02070045002A010702760292
:105C9000E201834B1B78022B01D0FFF773FC814C90
:105CA00023781BB100232370042306E000F09EFB41
:105CB00000F0CDFC0128F5D003232B707A4802F0C8
:105CC00045FA04F027FA04F017F900F0C7FB00F0DA
:105CD000E0FB00F08BFB00F099FB00F047FC00F0CC
:105CE00062FCFEF75FFAFEF76FFA704B1B68002B41
:105CF000C0F2BA826E496F48FEF73BFA4FF4FA6081
:105D000007F016FA11B0BDE8F04309F0D2BE644BBB
:105D10001B78032B01D0FFF735FC00216248664F4A
:105D2000664C01F067FEFFF763FC80460AF0B5F8A9
:105D300000EB0802D3176249009708A80AF04EF852
:105D4000089B029309F018FF029B5E4900904246AF
:105D50005848FEF70EFA08A809F0ECFC4FF4FA6078
:105D600007F0E6F9237D002B50D002232372564B17
:105D7000B3F800902368DB68F3B19A88012A06D053
:105D80009B68F9E79B68BBB19A88012AFAD19A8986
:105D90004A45F7D100229A73237D002B36D0236821
:105DA0004FF47A70DB6800FB08F8DBB19A88042AAC
:105DB00000F055829B68F8E7444910200AF07EFB0A
:105DC0000646002800F04E82102200210BF028F930
:105DD0003F4B33600123B3802369B360A6F80C9076
:105DE0002661D9E7394910200AF068FB06460028E9
:105DF00000F03882102200210BF012F9344B33608E
:105E00000423B38023692661C6E902382B4905A81B
:105E100009F052FE4FF0FF31234801F0EBFD002066
:105E200006F078FD42F210760446002006F072FD7E
:105E3000001B61F10001B04271F1000307D20AF0CA
:105E400013F90AF006F910B907F042F8EDE70AF085
:105E50000BF90AF0FEF802232B70124B01221A7084
:105E60000AF01BF816490097C317024608A809F064
:105E7000B5FF089A029209F07FFE029A154903467F
:105E80000C48FEF776F908A809F054FC059800289C
:105E90003FF414AF07F0D4F810E700BF6AE4032022
:105EA00069E4032068E4032040E30320FCD50320D9
:105EB000153E0C0058E60320F43C0C0060E3032080
:105EC000ACE60320F73C0C00B2430C0064510C001C
:105ED00010000300373D0C00B84BB94F1B78042B62
:105EE00062D0072B02D006F005FD3860FFF74AFBB1
:105EF000FEF758F9FEF76AF909F0CFFFB14CC31766
:105F0000C4E91803204603F015FE04F1680105A852
:105F100003F0A2FC9DF9186000F068FA00F0A6FBFF
:105F20008642C0F2898004F1680108A803F094FC5D
:105F30009DF9246000F05AFA00F09DFB864208A803
:105F4000CCBF0026012603F0FBF905A803F0F8F901
:105F5000002E73D000F082FA012100F032FE00F032
:105F60007DFA00F06FFD984B984A9949002808BFC8
:105F70001A4608A8039203F06FFC9DF9243002939F
:105F800000F034FA00F072FB044600F02FFA00F043
:105F900072FBDDE90232CDE900408E498E48FEF702
:105FA000E8F808A803F0CCF9FEF7FCF8FFF7DAF9F7
:105FB000D8B100F053FA00F08BFB029000F04EFADB
:105FC00000F040FD029A854903468348FEF7D1F868
:105FD00000F044FA00F07CFB012806D000F03EFA05
:105FE00000F030FD08B107232B7006F083FC3B68FE
:105FF000C01A7B4B98427FF661AEFEF7D3F8FEF7EE
:10600000C3FAFEF7CFF8FEF7F1F8FEF7CBF8002160
:10601000FEF702FC09F052FF044600F0E7F900F039
:1060200074FC09F011FE844204D000F017FA00F06D
:1060300009FD38B9022340E6002686E700F00EFA93
:1060400031468AE7052338E65C4B1B78072B01D0E5
:10605000FFF798FA00F002FA00F017FB61490246D8
:1060600004465D48FEF785F82046FFF7DBFA00F0AE
:10607000F5F9002100F0AEFB00F0B8F9044600F09D
:10608000B5F900F0EEFA0130C1B2204600F060FB35
:106090000AE64A4B544C1B78052B27D0FFF772FABF
:1060A00000F0A4F900F031FC09F0D6FD484906469D
:1060B00008A803F0EEFB9DF82330B6EBD30F07D012
:1060C00000F0CCF900F064FC48494348FEF751F871
:1060D00000F08CF900F0B6FAFFF7A4FA06F008FF1A
:1060E00008B906F0FDFE06F005FC206006F000FF92
:1060F00038B300F07BF9064609F0CFFE0246C3171D
:10610000304600F030FC00F071F9064606F0F2FB74
:106110002168411A4FF47A70B1FBF0F1304689B230
:1061200000F0B8FB06F0E4FEC8B106F0E1FE10B1E5
:10613000002006F0F5FEFFF703FA50B906F0C8FE9E
:10614000F9E706F0D7FB2368C01A294B9842D0D84C
:10615000B4E5FFF7F5F9274908A807F063F800F060
:1061600045F900F074FA01283FF49EAD0623A4E53A
:10617000124B214C1B78062B04D0FFF703FA06F0D4
:10618000B9FB206006F0B6FB2368C01A1B4B98428F
:106190007FF694AD03F0BEFF90F8B330002B3FF4D0
:1061A0008DAD00F023F900F052FA00287FF442AFE1
:1061B00000F0B0FD01F0D8F83CE700BF69E403202F
:1061C00034E3032078E30320ED3C0C00E83C0C00B2
:1061D000E0E30320583D0C0058E60320A13D0C00ED
:1061E000F0490200CB3D0C0038E30320DF3D0C00FA
:1061F000C027090014E603203CE30320905F010060
:106200001B4C1C4E2378BFF35B8F13F0010F09D199
:106210002046FDF753FF28B106F06CFB30602046A6
:10622000FDF751FF144B2A781B789A4201D0FFF7F3
:10623000A9F906F05FFB3368C01A47F23053984261
:106240007FF63CAD0D490E48FDF793FF4FF4FA6021
:1062500006F06EFF1E210B4801F026FD2EE5C3F867
:106260000C80D3E52675D1E511B0BDE8F08300BF01
:1062700028E3032030E3032069E40320FE3D0C0003
:1062800058E6032040E3032010B5034B03600446A7
:1062900003F0FEFC204610BDBC3E0C0010B50446C9
:1062A000FFF7F2FF20461021FDF7F9FE204610BD52
:1062B00010B5036804460BB906F0CCFA2068BDE8B7
:1062C000104006F0D7BA38B504460430FFF7F0FFA7
:1062D000206A616A0368DD68D4E90223A847606820
:1062E000BDE8384006F0CEBA38B504460430FFF7B2
:1062F000DFFF206A616A03689D68D4E90223A8472A
:10630000A2682368D1885B692046984718B923683A
:1063100020469B699847606806F0B4FA012038BDB2
:1063200010B5044B03600446406808B106F09AFAC1
:10633000204610BD584E0C0010B5034B03600446B8
:10634000FFF7EEFF204610BD043F0C0010B50446D9
:10635000FFF7F2FF20466821FDF7A1FE204610BDA1
:1063600010B5034B03600446FFF7DAFF204610BD6B
:10637000303F0C0010B50446FFF7F2FF20467021B5
:10638000FDF78DFE204610BD10B5034B036004469B
:10639000FFF7C6FF204610BDD83E0C0010B50446DE
:1063A000FFF7F2FF20464FF48761FDF778FE2046A5
:1063B00010BD000000F12801816009494FF0400C38
:1063C000C0E903C1012181824FF47A71C16105499D
:1063D0000022C0E9081242608261034A02607047ED
:1063E000769EA92078E40320043F0C0010B5064CEB
:1063F00023683BB96820FDF74EFE034608B1FFF75E
:10640000D9FF2360206810BD70E4032010B5FFF7AA
:10641000EDFF0368BDE81040DB680121184700006C
:10642000002200F12801426082614FF47A7281609B
:10643000C2610749074A02624FF0480C3222C0E9A4
:1064400003C142620121044A81820260704700BF99
:10645000749EA92078E40320303F0C0010B5064C50
:1064600023683BB97020FDF716FE034608B1FFF71D
:10647000D7FF2360206810BD74E4032010B5006AC4
:1064800003F01CFCFFF7EAFF0368BDE810405B68FF
:10649000184710B5FFF7E2FF0368BDE81040DB685E
:1064A000002118470000000010B504462DED028BB6
:1064B0000430FFF7FDFEE368083B172B0CD9A368F7
:1064C00093ED068B606806F0DDF9B0EE480AF0EE59
:1064D000680ABDEC028B10BD9FED018BF2E700BF97
:1064E0000000000000000000F8B50446043057EC3E
:1064F000106BFFF7DDFEE368083B172B12D9A56888
:106500003046D5E9062339460AF012FC50B9C5E9F0
:1065100006672046A56806F0ADF8A8602368204607
:106520001B6998476068BDE8F84006F0ABB9000009
:10653000002200F12801426082614FF47A7281608A
:10654000C2610749074A02624FF4826C9622C0E991
:1065500003C142620221044A81820260704700BF87
:10656000609EA92078E40320D83E0C0010B5074CAB
:10657000236843B94FF48760FDF78DFD034608B1EA
:10658000FFF7D6FF2360206810BD00BF6CE4032036
:1065900010B5006A03F092FBFFF7E8FF0368BDE85F
:1065A00010405B68184710B5FFF7E0FF0368BDE8CF
:1065B0001040DB680021184738B504460D460649EF
:1065C00009F003F923464FF480621021284605F0B4
:1065D000F8FF204638BD00BFE04F0C000B464FF4DB
:1065E0008062102106F05EB81FB50A49684609F0BE
:1065F000ECF8FFF7BBFF0099FFF7F0FF009A0649A0
:106600000648FDF7B6FD684609F094F805B05DF858
:1066100004FB00BF313E0C003E3E0C0058E6032058
:1066200038B5044604300D46FFF742FEE368606863
:10663000013BAB4226BFA3685D5D002506F022F951
:10664000284638BD08B51021FFF7EAFF08BD08B598
:106650001421FFF7E5FF08BD08B51521FFF7E0FF9E
:1066600008BD08B51621FFF7DBFF08BD08B53821C6
:10667000FFF7D6FF08BD08B53921FFF7D1FF08BDE8
:1066800008B53B21FFF7CCFF08BD08B51021FFF787
:10669000C7FF08BD08B51121FFF7C2FF08BD08B547
:1066A0001221FFF7BDFF08BD08B52021FFF7B8FF95
:1066B00008BD08B52121FFF7B3FF08BD08B52421A7
:1066C000FFF7AEFF08BD08B52521FFF7A9FF08BDFC
:1066D00008B53421FFF7A4FF08BD08B54121FFF735
:1066E0009FFF08BD70B5044604300D461646FFF7FF
:1066F000DFFDE368013BAB420DD3A3685A5DB242B4
:1067000009D05E552046A56805F0B4FFA86023684F
:1067100020461B6998476068BDE8704006F0B2B833
:1067200008B50A461021FFF7DDFF08BD08B50A4687
:106730001121FFF7D7FF08BD08B50A461421FFF75E
:10674000D1FF08BD08B50A461521FFF7CBFF08BDEC
:1067500008B50A461621FFF7C5FF08BD08B50A4669
:106760002E21FFF7BFFF08BD08B50A463821FFF705
:10677000B9FF08BD08B50A463921FFF7B3FF08BDC8
:1067800008B50A461021FFF7ADFF08BD08B50A4657
:106790001121FFF7A7FF08BD08B50A461221FFF730
:1067A000A1FF08BD08B50A462021FFF79BFF08BDE1
:1067B00008B50A462121FFF795FF08BD08B50A462E
:1067C0002421FFF78FFF08BD08B50A462521FFF7F2
:1067D00089FF08BD08B50A463421FFF783FF08BDCD
:1067E00008B50A464121FFF77DFF08BD38B50446CC
:1067F00004300D46FFF75CFDE3686068023BAB4286
:1068000026BFA3685D5B002506F03CF8284638BD2E
:1068100008B51221FFF7EAFF08BD08B52A21FFF7E6
:10682000E5FF08BD08B52C21FFF7E0FF08BD08B55E
:106830002221FFF7DBFF08BD08B53021FFF7D6FFA7
:1068400008BD08B53221FFF7D1FF08BD70B5044679
:1068500004300D461646FFF72BFDE368023BAB42C2
:106860000DD3A3685A5BB24209D05E532046A56897
:1068700005F000FFA860236820461B699847606800
:10688000BDE8704005F0FEBF08B50A461221FFF7CB
:10689000DDFF08BD08B50A462821FFF7D7FF08BD70
:1068A00008B50A462A21FFF7D1FF08BD08B50A46F8
:1068B0002C21FFF7CBFF08BD08B50A462221FFF7C0
:1068C000C5FF08BD08B50A463021FFF7BFFF08BD68
:1068D00008B50A463221FFF7B9FF08BDF8B50446EE
:1068E00004300D46FFF7E4FCE3686068083BAB4208
:1068F00023BFA1684919D1E90067002638BF0027E6
:1069000005F0C0FF30463946F8BD08B52021FFF735
:10691000E5FF08BDF8B5044604300D461E4617468F
:10692000FFF7C6FCE368083BAB4212D3A3685A19D1
:1069300058595168B14208BFB8420AD05F51204649
:106940005660A56805F096FEA860236820461B697E
:1069500098476068BDE8F84005F094BF08B5182175
:10696000FFF7D8FF08BD08B52021FFF7D3FF08BD0A
:1069700008B53021FFF7CEFF08BD08B52821FFF785
:10698000C9FF08BD08B53821FFF7C4FF08BD0000E6
:1069900010B521492148FDF7ECFBFFF75FFD0B2106
:1069A000FFF7EEFEFFF75AFD0021FFF7EFFEFFF7BE
:1069B00055FD0021FFF70EFFFFF750FD00220023D9
:1069C000FFF7E0FFFFF74AFD0021FFF781FFFFF728
:1069D00045FD0021FFF776FFFFF740FD0021FFF79F
:1069E000EDFEFFF73BFD0021FFF7EEFEFFF736FD62
:1069F000044609F052FA0246C3172046FFF7BDFFCE
:106A0000FFF7F4FC0021FFF79DFEFFF7EFFCBDE868
:106A100010400021FFF79CBE5C3E0C0058E60320AE
:106A200038B5044604300D46FFF742FCE368606861
:106A3000013BAB4226BFA3685D5D002505F022FF48
:106A4000284638BD08B54021FFF7EAFF08BD70B5FC
:106A5000044604300D461646FFF72AFCE368013B66
:106A6000AB420DD3A3685A5DB24209D05E552046B1
:106A7000A56805F0FFFDA860236820461B699847BC
:106A80006068BDE8704005F0FDBE08B50A463A21D1
:106A9000FFF7DDFF08BD000008B527492748FDF7CF
:106AA00068FBFFF7A3FC0021FFF73AFEFFF79EFC0F
:106AB0000121FFF73BFEFFF799FC46F6E131FFF7B6
:106AC000E3FEFFF793FC0021FFF736FEFFF78EFC95
:106AD0000021FFF737FEFFF789FC0021FFF738FEA2
:106AE000FFF784FC00220023FFF738FFFFF77EFC4E
:106AF0000A21FFF7D5FEFFF779FC0021FFF7D6FE4C
:106B0000FFF774FC0021FFF729FEFFF76FFC00235D
:106B10000022FFF72DFFFFF769FC0621FFF724FE97
:106B2000FFF764FC1621FFF725FEFFF75FFCBDE8C9
:106B300008400021FFF7A9BF7D3E0C0058E6032066
:106B400038B50446FFF752FCFFF790FD0C2815D925
:106B500012491348FDF70DFB0125FFF747FCFFF72E
:106B60005CFE98B90125FFF741FCFFF76BFD00B90A
:106B70009DB12046BDE83840FFF78EBFFFF736FCD9
:106B8000FFF779FD0B28E3D90025E6E7FFF72EFC98
:106B9000FFF743FE3C28E5D8E5E738BD953E0C00FD
:106BA00058E6032008B5006A03F088F8FFF71EFCDA
:106BB00003685B689847FFF719FCBDE80840FFF7DA
:106BC000BFBF08B50A464021FFF741FF08BD0000DE
:106BD00010B509F0EBFB054C014600234FF40052C1
:106BE000204603F061F8024B236010BD78E40320D7
:106BF000BC3E0C007047006A0368DB6818477047AA
:106C000010B504210446FDF74AFA204610BD0000E5
:106C100010B5034B0360044601F092FD204610BD01
:106C200064430C0010B50446FFF7F2FF204640F61F
:106C30002C11FDF734FA204610BD7FB50268536869
:106C4000906814685E1000EB6305DB0748BF83594A
:106C5000684648BF1C5908F0E9FD69462846A04728
:106C60000446684608F066FD204604B070BD012A5F
:106C700038B5044602D10B68236003E0022A03D032
:106C8000032A0DD0002038BD0C200D68FDF703FA53
:106C900003460028F0D095E8070083E80700EBE7FB
:106CA00000680028EED00C21FDF7F9F9EAE737B5C6
:106CB0001D4601AB044601F025FF20B101992A468B
:106CC000204601F001FF03B030BD00000A4B10B5B3
:106CD0000446036007F0A2FB214607F0A6FD09F079
:106CE000C3F909F0B3F92046044B40F8043B07F020
:106CF00037FC204610BD00BF4C430C0034430C0051
:106D000010B50446FFF7E2FF20462421FDF7C7F93E
:106D1000204610BD10B5064C236833B90420FDF79A
:106D2000BAF908B1034B03602060206810BD00BFB2
:106D300098E4032074430C0030B5194985B004462B
:106D40001848FDF716FA00250C200295FDF7A3F967
:106D500018B1154B8460C0E90035144B00900393C3
:106D60001020134B0293FDF796F9044678B10023E7
:106D70008360029B33B1022269469847039BE3601C
:106D8000029BA3600B4A0C48214606F08CFB029B39
:106D90001BB1694603220846984705B030BD00BFC5
:106DA000543F0C0058E60320BD6D0B003B6C0B00FC
:106DB0006F6C0B00823F0C007FD40B002DE9F04F6D
:106DC000ADF6B41D0C4609A8A34908F0FEFCA24983
:106DD0000DA808F0FAFC50234FF4806200932CA910
:106DE0000DF5966321A801F00DFD9C4B21689C4890
:106DF0002193FDF7BEF921A801F0FAFC2168039167
:106E000008460AF0D8F90399024621A801F0D3FCFC
:106E100021A802F029FA044690B992499048FDF75A
:106E2000A8F9914B8F4A1B788DF8003011A88F4933
:106E30003C2306F049FC12A8FDF7FEFB254617E0AF
:106E400021A801F0FAFC894A894FDFF87882DFF83F
:106E50007892014606AB21A801F054FE0025069960
:106E60002A4621A801F00BFD064678B9002DE5D190
:106E700021A8FFF7CDFE0DA808F05CFC09A808F0DA
:106E800059FC28460DF6B41DBDE8F08F014607AB4E
:106E90003A4621A801F036FE20B1079904AA21A89C
:106EA00001F046FD09AB4246314621A8FFF7FFFE3F
:106EB000314621A80DAB4A46FFF7F9FE6D490DA8F2
:106EC00008F049FD002859D0049B002B3BD16A49AA
:106ED00009A808F040FD18B3684911A80AF045F95F
:106EE000FFF744FBFFF780FBFFF7B8FAFFF750FD11
:106EF0005B4811A9FDF73DF905F0FAFF60B15A4B67
:106F00005A491B788DF8003007A83C2311AA06F0D7
:106F1000DBFB08A8FDF790FB01350A2D9FD18DE71B
:106F2000574909A808F017FD40B1564911A80AF0C1
:106F30001CF9FFF75BFAFFF7AFFDD5E7524911A83F
:106F40000AF013F9D0E74E4909A808F004FD049BA4
:106F500058B14E4A402111A806F092F8FDF722F9E7
:106F600005220499FDF76CFFC2E7494A402111A8A8
:106F700006F086F8FDF716F90622F2E745490DA856
:106F800008F0E9FC00B309980A2205A90BF084F87F
:106F9000431E3B2B064611D83C2393FBF0F343439F
:106FA0003C2B0BD103463C4A402111A806F068F85F
:106FB000FFF71CFAB1B2FFF779FC99E7374911A83E
:106FC0000AF0D3F8002493E735490DA808F0C3FC74
:106FD000B8B1344909A808F0BEFC064648B13249A8
:106FE00011A80AF0C2F8FFF701FA0121FFF7A4FB8C
:106FF0007EE72E4911A80AF0B8F8FFF7F7F93146F5
:10700000F4E72B490DA808F0A6FC48B1294911A8BE
:107010000AF0ABF8FDF7C6F80121FDF7FDFB67E7C5
:1070200025490DA808F097FC00284FD009980A229E
:1070300005A90BF031F80C2806460BD803461F4A69
:10704000402111A806F01CF8FFF7D0F9F1B2FFF7C4
:107050008BFB4DE71A49B2E7E04F0C0064430C008C
:1070600058E60320933F0C0094E40320B13F0C004A
:107070005C360C00BC3F0C00BD360C00C23F0C005F
:10708000E43F0C00E83F0C0018400C003D400C00B1
:1070900069400C008A400C008F400C00B9400C0085
:1070A000D9400C00DE400C00E3400C0017410C00FE
:1070B00039410C003D410C00E83C0C0052410C00F1
:1070C00070410C00B53F0C00B93F0C0031490DA8D0
:1070D00008F041FCB8B109980A2205A90AF0DCFFC2
:1070E000A0F10D030B2B06460BD803462A4A40217C
:1070F00011A805F0C5FFFFF779F9F1B2FFF73AFBE8
:10710000F6E626495BE726490DA808F024FCE0B125
:1071100009980A2205A90AF0BFFF0228064612D8DC
:10712000049B204A00934021034611A805F0A8FFC4
:10713000FDF738F804993246FDF7AAFD38B3FDF79C
:1071400031F807220DE7184939E718490DA808F06A
:1071500002FCD0B109980A2205A90AF09DFF012876
:10716000064610D8124A134B4021002808BF134688
:10717000114A11A805F084FFFFF738F906F0010164
:10718000FFF783FCB4E60D4919E70D4917E70446FC
:10719000AEE600BF89410C008F410C00AD410C00F0
:1071A00044350C00C8410C00EE410C0009420C00B3
:1071B000A6420C008B3F0C000D420C001F420C003D
:1071C0004F420C0070B5D0E900531426044606FB6C
:1071D0000356AE4204D0284608F0ACFA1435F8E75E
:1071E000206805F02DFF204670BD8842F8B50446A2
:1071F0000D46164616D9904215D2A2F11406751AFC
:10720000A1F114072C44B7421CD02CB131462046C2
:1072100008F00CFB337C2374304608F08BFA143EE4
:10722000143CF0E70ED0B5420CD02CB129462046D4
:1072300008F0FCFA2B7C2374284608F07BFA1435FE
:107240001434F0E7F8BD2DE9F0410023C0E9003324
:1072500083604F689F4204460E4623DD4FF01408BA
:1072600008FB07F005F0E4FE0546D8B1D4E90012AA
:1072700008FB0212FFF7B9FF206805F0E1FE256068
:10728000A760D6E9007308FB0378B84508D03946F3
:10729000284608F0E5FA3B7C2B7414371435F4E7E4
:1072A000736863602046BDE8F081000070B5274B2D
:1072B000274A01251D70274B00248CB09A60C3E932
:1072C0000044022005F082FD2146284605F096FD87
:1072D0002946042005F0EEFACDE90044029408F0B6
:1072E000C3FE1D4C0546694603A8FFF7ACFF2646C2
:1072F00003A906A8FFF7A7FF184B46F8043B06A909
:1073000009A8FFF7A0FF09AA1E21304607F070FB6D
:1073100009A8FFF757FF06A8FFF754FF104B23609B
:10732000256203A8FFF74EFF0E4B236008F09CFE7A
:107330004FF4165108F086FE07F070F8214607F06A
:107340002DFA6846FFF73EFF0CB070BD94E40320B1
:107350000000FFFF88E403209CE4032034430C007A
:1073600010500C004C430C002DE9F04385B008F0A0
:1073700094FD414905464148FCF7FBFE002401A865
:10738000CDE90144ADF80C4006F09EF8204605F02A
:10739000C1FA43F698260446002005F0BBFA031B09
:1073A00061F10001B34271F1000305D205F0A0FDC7
:1073B00010B105F08DFDEFE705F09AFD05F09AFAA2
:1073C0002F4F386005F084FD05F092FD044640B172
:1073D0002C492A48FCF7CDFE0024204605B0BDE824
:1073E000F08308F05AFD2849DFF8A080421B2348AB
:1073F000FCF7BFFE08F051FD224602210646D8F8F0
:10740000040005F0C5FDD8F80400234622462146B5
:1074100005F0D6FD204605F07DFA47F230590546C5
:10742000002005F077FA431B61F100014B4571F133
:10743000000306D2404607F0F9FD10B905F048FDFB
:10744000EEE7124807F0F2FD05F054FA386005F057
:107450003FFD0E4807F0E6FD20B10D490748FCF757
:1074600088FEBAE708F019FD0A49821B0348FCF7B9
:1074700080FE0124B1E700BF63420C0058E6032000
:1074800010E703208C420C00AF420C0014E60320EE
:10749000D8420C00FE420C0008B517491748FCF70B
:1074A00068FE0221042008F0F7FE0021082008F001
:1074B000F3FE0121072008F0EFFE0021122008F062
:1074C000EBFE0121112008F0E7FE0121102008F059
:1074D000E3FE0021102008F0F0FE0021112008F04A
:1074E000ECFE0121062008F0D7FE0121062008F05D
:1074F000E4FE012008BD00BF7C430C0058E60320D9
:1075000010B51849184890B02024FCF732FE2246E6
:107510000021684609F084FD224600210DEB04009D
:107520008DF8054009F07CFD00210DEB04008DF87D
:10753000254005F0A7FC41F2D833ADF806300B4BDF
:10754000029341F27003ADF80C30009B002143F42C
:1075500000736846009305F095FC003818BF0120C1
:1075600010B010BD95430C0058E60320840384033B
:1075700007EE900A9FED097AF8EEE77A67EE877AD0
:107580009FED077A87EE870ADFED067A70EE677A5D
:10759000B2EE040A87EE800A704700BF00404E45F5
:1075A00000F07F450000FA4313B5012101A807F060
:1075B000D2FDFEF753FFFFF772F8FEF74FFFFFF71C
:1075C0006EF8252801A80DD907F058FEFEF746FFF2
:1075D0000121FFF7E7F8002401A807F0CBFD2046C2
:1075E00002B010BD07F02FFE0124F5E730B51B4DAA
:1075F0000FCD9BB010AC0FC40FCD0FC495E80300A6
:1076000084E80300164908A805F00CFE08A805F058
:107610004CFE044608A805F081FE08A810EE105A9A
:1076200005F0ACFE1AAB10EE100A03EB840409F06F
:10763000BFF8CDE90201284609F0BAF8CDE900010A
:10764000102154F8283C074A0DEB010005F018FD05
:10765000054804A9FCF78DFD1BB030BD3C440C006F
:1076600014E60320FA430C0058E6032030B585B039
:107670000D4600226946009205F096FB90B9009CE9
:107680000CB1236923B9084A08490A2005F05AFBBE
:107690000C23CDE901350423039301AA23690121B9
:1076A0002046984705B030BDE5C80B0013440C00D8
:1076B00013B5FEF7D3FE01A904460720FFF7D6FF56
:1076C000011EA8BF01992046C9B2FFF76BF8184800
:1076D00006F0F4F94FF4FA7005F02AFDFEF7BEFE4D
:1076E00001A904460320FFF7C1FFE8B9BDF8043043
:1076F00007EE903AFBEECC7A17EE900A09F058F8B4
:1077000041EC100B2046FEF7EFFEFEF7A7FEFEF75A
:10771000CBFE084B51EC100B002209F031FB003876
:1077200018BF012002B010BDFFEE007AE4E700BFF1
:10773000C0E4032000004E4013B5FEF78FFE0F4B50
:107740000446188808F0E5FDFFF712FFFDEEC07A49
:107750002046CDED017A9DF80410FFF71DF8FFF7E4
:10776000A7FFFFF721FFFEF741FEFEF76BFF08B909
:10777000FFF73CFF012002B010BD00BFBA430C0070
:107780000148002106F056B9C0E40320704710B547
:1077900020210446FCF783FC204610BD10B50446AA
:1077A0008AB008464FF0200C0021CDE90023CDE936
:1077B00002C10B4602AA216805F0D4FA0AB010BD36
:1077C0000EB403B503AB322153F8042B0193FFF73A
:1077D000E5FF02B05DF804EB03B070470EB403B5EB
:1077E00003AB012153F8042B0193FFF7D7FF02B03D
:1077F0005DF804EB03B0704710B50272FF224281BE
:107800000022C0E9032242610276C261024A034CAF
:107810001060C0E9004110BDCCE40320B4460C0068
:107820002DE9F8439DF820800446894616461F46F8
:10783000B8F1000F02D0406806F0E6F9217A6068DE
:1078400006F0BFF96068036849469B68984760681E
:10785000002106F0D5F9054600BB0123217A6068B6
:107860003A4606F09CF98742034609D13744BE42A6
:107870001CD0606803685B69984706F8010BF6E75F
:107880000B490C484A46FFF79BFFB8F1000F02D0A6
:10789000606806F0C2F92846BDE8F8830346064949
:1078A00004484A46FFF78CFF0025EEE70125ECE788
:1078B00064440C00C8E4032089440C0007B500931D
:1078C0000123FFF7ADFF03B05DF804FB73B54389F7
:1078D000FF2B044610D0194E194D05F00BF8B0F5EA
:1078E0007A7F09D2608908F001FD012804D0314671
:1078F0002846FCF73EFCF0E701230DF107022821A2
:107900002046FFF7DBFF30B90D480E49FCF731FC8C
:10791000002002B070BD9DF80730182BF4D1012370
:107920000DF1070229212046FFF7C8FF0028EBD000
:107930009DF80730052BE7D1EBE700BFAD440C0005
:10794000C8E40320C2440C0007B5134600228DF89A
:1079500007200DF10702FFF7B1FF9DF8070003B004
:107960005DF804FB2DE9F0419DF8188004460F46B0
:1079700015461E46B8F1000F02D0406806F044F9E3
:10798000217A606806F01DF96068036839469B68D3
:1079900098472E44B542606805D0036815F8011B6E
:1079A0009B689847F6E7012106F02AF9034670B173
:1079B000084909483A46FFF703FF0025B8F1000FD0
:1079C00002D0606806F029F92846BDE8F08101255B
:1079D000F4E700BFCF440C00C8E403201FB58DF8C6
:1079E0000F2000930DF10F020123FFF7BBFF05B03D
:1079F0005DF804FBF8B50A460C4605461A491B48D3
:107A0000FCF7B7FB002CB8BFEC687CB90123224619
:107A10001B212846FFF7E2FF154902460646134898
:107A2000FFF7DCFEEC606C613046F8BD032C19DD1D
:107A3000A7101F2FA8BF1F27BA0062F07C020123E6
:107A4000D2B21B212846FFF7C9FF3A46034609492F
:107A500006460648FFF7C2FE4FF4FA635F43EC6048
:107A60006F61E1E70127E7E7F4440C00C8E4032075
:107A7000FE440C001A450C00064B1A684AB1A0F5EA
:107A800000630B4305D1D3681BB100211046FFF7FB
:107A9000B1BF7047CCE403202DE9FF419DF8288059
:107AA000054616461F46B8F1000F04D04068019104
:107AB00006F0AAF80199019100230DF10F02284662
:107AC000FFF7FCFE044660B19DF80F3003EA0602A2
:107AD0003A43934205D0019900232846FFF77EFFE1
:107AE0000446B8F1000F02D0686806F096F8204608
:107AF00004B0BDE8F08113B514460DF10702FFF79D
:107B0000DDFE28B19DF807301C420CBF012000208B
:107B100002B010BD13B514460DF10702FFF7CEFEFB
:107B200028B19DF807301C4214BF0120002002B08C
:107B300010BD07B5D2430093D2B20023FFF7ACFFCC
:107B400003B05DF804FB000037B501230DF1070217
:107B50000F210446FFF7B2FE054638B91E491F48FB
:107B6000AD22FFF72DFE284603B030BD9DF807304B
:107B700013F0200F4FF001030BD02022E3610F21FF
:107B80002046FFF7D6FF164A16491448FCF7F1FACB
:107B9000E9E7082217212046FFF7BCFF18B10223AE
:107BA000114AE361F0E79DF807301A0709D503236E
:107BB000E361082201230F212046FFF7BAFF0B4A99
:107BC000E2E75B07CFD50422E26101230F212046C3
:107BD000FFF7AFFF064AD7E76D450C00C8E4032066
:107BE0003E450C008C450C0047450C0057450C00E9
:107BF00067450C0007B500931346FF22FFF74CFFC3
:107C000003B05DF804FB0000F8B50F4616460123EB
:107C100000220F210546FFF7E1FE044638B94FF474
:107C200025721F491F48FFF7CBFD2046F8BD0123F1
:107C3000232218212846FFF7D1FE044610B940F24E
:107C40009B22EEE7FF2FA8BFFF27012FB8BF012718
:107C50000123FAB219212846FFF7C0FE044610B9E5
:107C60004FF42A72DDE70123082212212846FFF78C
:107C7000C1FF044610B940F2AF22D2E7002E14BF74
:107C800003220222012342F0800218212846FFF736
:107C9000A5FE04460028C8D140F2B922C1E700BFC2
:107CA0009D450C00C8E403202DE9F7430A4605462C
:107CB0000F464F484F49FCF75CFA00212846FFF772
:107CC00099FE044648B940F2F7124B494848FFF77D
:107CD00077FD204603B0BDE8F08301231A4630212A
:107CE0002846FFF787FF044610B940F20522ECE76B
:107CF0001022012311462846FFF71BFF044610B946
:107D00004FF40372E1E70123262213212846FFF7EF
:107D100065FE044610B940F21322D6E7012600960C
:107D20003346FC2211212846FFF7B6FE044610B95F
:107D300040F21B22C9E7002239462846FFF764FFBC
:107D4000044610B940F22222BFE7009602237722B0
:107D500010212846FFF7A0FE044610B940F22B225E
:107D6000B3E7334604221C212846FFF743FF0446AD
:107D700010B940F23222A8E700961823E32211211D
:107D80002846FFF789FE044610B940F239229CE7E5
:107D90003346C02217212846FFF720FE044610B9BB
:107DA0004FF4107291E704F0A5FDDFF85490DFF86E
:107DB00040804FF47A7106464F4304F09BFD801BD0
:107DC000B8420ED2012217212846FFF7BDFD4946D1
:107DD00002464046FCF7CDF94FF47A7005F0A8F959
:107DE000EBE706490248FFF7EBFC07F062FE70E79D
:107DF000C8E40320C8450C00BD450C00EE450C004E
:107E0000D9450C002DE9F3479DF828A005460C46FE
:107E100091461F46BAF1000F02D0406805F0F4FE0B
:107E200007B3202F3E4628BF20267F2C26D83319A3
:107E3000802B01D9C4F18006012304223F2128466A
:107E4000FFF777FE002364F07F0100934A46334634
:107E5000C9B22846FFF7E4FC804628B13444BF1B72
:107E6000B144DDE74FF00108BAF1000F02D06868B5
:107E700005F0D3FE404602B0BDE8F087012304229E
:107E80003F212846FFF7B6FEDCE72DE9F3479DF8D2
:107E900028A005460C4691461F46BAF1000F02D0B5
:107EA000406805F0B1FE07B31F2F3E4628BF1F26CE
:107EB0007F2C26D83319802B01D9C4F180060123E9
:107EC00004223F212846FFF734FE002364F07F019F
:107ED00000934A463346C9B22846FFF743FD804621
:107EE00028B13444BF1BB144DDE74FF00108BAF1BB
:107EF000000F02D0686805F090FE404602B0BDE871
:107F0000F087012304223F212846FFF773FEDCE7B8
:107F100030B585B00D68D1E9043203954D680295FE
:107F20008D680195C96800910133044902F26C72B1
:107F3000044607F057FD204605B030BD00460C0052
:107F400003090A2200F00F0002FB0300704738B556
:107F5000044600781546FFF7F3FF08606078FFF7E6
:107F6000EFFF4860A078FFF7EBFF8860E078FFF74D
:107F7000E7FFC8602079FFF7E3FF013808612DB9FA
:107F8000651D2878FFF7DCFF886138BD6079FFF751
:107F9000D7FF6430A51D4861F3E7000070B50123E9
:107FA00088B00D461A4610210446FFF7A4FDF0B133
:107FB00008230126204600960DEB03020021FFF75F
:107FC0002FFC044698B1324629460DF10900FFF70F
:107FD000BEFF04A8FFF79CFF0848049A0849FCF775
:107FE000C8F804A807F0A6FB204608B070BD2422FC
:107FF0000021284609F014F80024F5E7C8E403201E
:108000001E460C0030B58BB00D4601A9FFF7C6FF28
:10801000044620B101A805F083F8C5E90001204617
:108020000BB030BD0A2390FBF3F103FB110091FB71
:10803000F3F203FB121240EA0210C0B2704770B5AF
:10804000054600680C461646FFF7ECFF207068688E
:10805000FFF7E8FF6070A868FFF7E4FFA070E8682A
:10806000FFF7E0FFE07028690130FFF7DBFF2071C8
:108070002EB9661DA869FFF7D5FF307070BD6A691B
:10808000642392FBF3F003FB1020FFF7CBFFA61D48
:108090006071EFE7F0B587B0054602A816460C46BA
:1080A000FFF736FF1E48029A1E49FCF762F802A845
:1080B00007F040FB16B1686805F0A6FD20460122D6
:1080C0000DF1090100278DF80870FFF7B8FF0123B3
:1080D0001A4610212846FFF78DFD0446E8B1082313
:1080E00000970DEB030239462846FFF73BFC044698
:1080F00060B101231A4610212846FFF71AFD16B178
:10810000686805F08AFD204607B0F0BD4FF48D7217
:1081100005490348FFF754FBF1E74FF48F72F7E787
:10812000C8E403202C460C003A460C0013B5044664
:108130006846CDE9002308F025FF9DF81020014690
:108140002046FFF7A7FF02B010BD0000F0B5057E86
:1081500089B0044675BB07F083FE58B3002600279C
:1081600004A92846CDE9046704F0EAFE10B301250E
:10817000257607F092FEC317CDE90203024600956B
:108180002046FFF7D3FF02A92046CDE90267FFF79B
:1081900039FF134B13491B68009304A8DDE9022340
:1081A00007F01CFE1048049A1049FBF7E2FF04A8F0
:1081B00007F0C0FA63698BB104F09CFB2369C01A15
:1081C000636998420AD304F095FB4FF0FF312061B8
:1081D000204609B0BDE8F040FFF70CBC09B0F0BD87
:1081E00098D60320ACE60320C8E4032055460C00D3
:1081F00030B504468BB011B1406805F0B3FC2046A1
:10820000FFF764FB06AD002837D02046FFF79CFC43
:1082100001231A4610212046FFF76DFCD8B107F064
:108220001FFEC0B902A92046FFF7ECFEDDE90201FE
:1082300007F01AFD134B14491B6800932846DDE92B
:10824000022307F0CBFD1148069A1149FBF791FF75
:10825000284607F06FFA0F4B06930F4B09930F4B0D
:1082600008934FF40062002302A80095FDF716FB67
:108270002846FDF772F90BB030BD09490348FFF7F6
:108280009FFAE8E798D60320ACE60320C8E4032071
:108290006B460C00797A0B0037550B0023550B0009
:1082A00088460C00014B024A1A607047C8E403205C
:1082B000A0460C0010B5012303748368044643B143
:1082C000C0689847012363740020BDE8104004F0A3
:1082D000E1BA00680028F5D083680BB908F0F8F817
:1082E000C368EEE7012A02D1016000207047022A2C
:1082F00004BF0B680360F8E738B50568044635B17C
:108300002846FDF72AF910212846FBF7C8FE20462B
:108310001421BDE83840FBF7C2BE10B5036804461F
:10832000ABB1586804F066FA88B923685A7C12B970
:10833000586804F067FA2368586804F06BFA2068FC
:108340000023236018B1BDE81040FFF7D5BF10BD72
:10835000054A026000224260027380F84F24C0F890
:108360005824C0F860247047E0460C0010B5074C54
:10837000236843B940F26440FBF78DFE034608B121
:10838000FFF7E6FF2360206810BD00BFD0E40320A4
:1083900038B50446406890B102232373FFF7BDFF50
:1083A000656855B12846FFF7B8FF286808B1FFF7A0
:1083B000A3FF04212846FBF772FE0023636038BD4B
:1083C00010B5054B03600446FFF7E2FF04F58A6031
:1083D000FDF7C3F8204610BDE0460C0010B504467A
:1083E000FFF7EEFF204640F26441FBF758FE2046BF
:1083F00010BDF0B5044689B000F10D0600F14E073E
:10840000237B1BB9012004F093FEF9E7237B022BA9
:1084100064D0A06804F00EFAA06804F013FA94F88F
:108420004F348DF800303A463C23314606A805F01B
:108430004BF9069D6B7833B9237B022B03D00120C7
:1084400004F076FEF5E7D4F858341BB3002004F0AE
:10845000DDFC20B16B7813B904F03AFDFAE72B7814
:10846000D4F860240592591E4B424B418DF80B30D5
:10847000D4F85834CDE903670BB908F029F805ABF7
:108480000093D4F85C5404AB03AA0DF10B0104F57E
:108490008A60A847A06804F0CDF9237B022B17D08F
:1084A000D4F858340025C4F8605443B104F58A6107
:1084B000032208469847C4F85854C4F85C54002373
:1084C000A068237304F0BEF907A8FCF7B5F897E796
:1084D000A06804F0B7F907A8FCF7AEF809B0F0BD42
:1084E0000068FFF786BF13B50B460246D0E90001CE
:1084F0006C4684E8030093E8030082E8030094E8F4
:10850000030083E8030002B010BD00002DE9F7432B
:1085100006468846142026491746994607F0CEFF9E
:10852000044630B10020C4E90000C4E90200207410
:1085300060743460002C31D01D49102007F0BEFF5C
:10854000054668B10023836001463846FFF7CBFF3C
:10855000BB68AA68BA60AB60EA68FB68EB60FA6067
:108560002768256037B13846FCF7F7FF10213846F9
:10857000FBF795FD3068036883B10A9B4A46CDE955
:10858000000341460B4B043004F02CF930B933683A
:108590001B7C4BB9012004F09DF9F8E730680023FB
:1085A000336008B1FFF7A8FE304603B0BDE8F083A2
:1085B00064510C00B5820B0030B5436887B00446A7
:1085C000C3B9083004F02EF90B4B059304200B4B74
:1085D00002940493FBF75FFD054638B14FF4406306
:1085E00000930749022302AAFFF790FF656002A8E3
:1085F000FCF7B3FF07B030BDE1840B00E5820B0050
:10860000C4460C002DE9F043044685B080680C9FF9
:1086100098460D46164604F00DF963681BB1237B9E
:1086200003F0FF0933B1A06804F00CF9002005B095
:10863000BDE8F083A06804F005F9002D3DD040228C
:10864000294604F10D0008F0D2FD84F84D908EB358
:1086500040F20142314604F14E0008F0C8FD84F8B2
:108660004E9400230293BB6804F58A653BB1022255
:10867000394668469847FB680393BB6802932946CE
:108680006846FFF730FF029BD4F85824C4F85834EA
:10869000039B02926846D4F85C24C4F85C340392CD
:1086A000FCF75BFF0D9BC4F86034012084F84F8415
:1086B0002073BCE784F84E60D3E72846B7E7000094
:1086C00010B5054B0360037C04461BB9406808B134
:1086D00004F0B6FC204610BD00470C0010B504465F
:1086E000FFF7EEFF20461421FBF7D9FC204610BD12
:1086F00010B5034B03600446FFF7E2FF204610BDB0
:1087000020470C0010B50446FFF7F2FF2046302149
:10871000FBF7C5FC204610BD10B5034B03600446B3
:10872000FFF7E6FF204610BD30470C0010B50446A9
:10873000FFF7F2FF20464021FBF7B1FC204610BDB9
:1087400010B5074B0360037C04461BB9406908B1B0
:1087500004F076FC2046FFF7B3FF204610BD00BFB3
:1087600010470C0010B50446FFF7EAFF20462C2105
:10877000FBF795FC204610BD034A02600022C0E9C9
:108780000122C2600274704700470C0038B5037CB8
:1087900004460D460BB1002038BD406838B104F0E6
:1087A00057FC0028F7D0C4E901050120F4E708468A
:1087B00004F03EFCF5E770B5C3680E461546D118C7
:1087C0004268044672B182688A420BD36068E368EB
:1087D0002A463146184408F0FBFBE2682A44E2606E
:1087E000012070BD2046FFF7D1FF0028EED1F8E749
:1087F00043680021C16023B1826812B1184608F0B5
:108800000FBC704710B5C0E901120022C2600122FE
:1088100002744361024A029B0260C36110BD00BF43
:1088200010470C00D0E90503834204D90278022ADC
:1088300002D01030F8E700207047D0E905039842D5
:1088400004D20378012B18BF002070470020704726
:1088500070B513689D68136803F11004146086698D
:10886000B4420AD29B698C68A34201DAAB42F2DDC2
:10887000A342CCBF0020012000E0002070BD73B5F2
:1088800001F1100304461646019300250198A369DF
:1088900083420BD982688B689A4207DAB54206D0C8
:1088A00001AA20460135FFF7D3FFEFE7002002B011
:1088B00070BD2DE9F341089D984601F1100304466F
:1088C0001746019300260198A36983421AD982684A
:1088D0008B689A4216DAAE420BD1386001AA204664
:1088E000FFF7B6FF28B1019BC8F8003002B0BDE821
:1088F000F08101AA2046FFF7ABFF20460136FFF7C3
:10890000A7FFE0E70020F1E7F0B5013B0024D1E943
:108910000176F61BA64208DDA34206DD45683D440C
:108920002D5D02F8015B0134F1E700231370F0BD07
:108930001FB5144610236A46FFF7E6FF0449224696
:10894000684604F095FB431E5842584104B010BDE0
:10895000EF360C001FB5144610236A46FFF7D4FF0C
:108960006846002109F08EFA012084ED000A04B067
:1089700010BD10B5044600680B4628B106F0BDFFD7
:10898000E3680133E36010BD60680028F8D0D4E9E3
:108990000221013A8A4288BF4354F1E703467F2B04
:1089A00037B50846D9B204D803B0BDE83040FFF768
:1089B000E0BF01F03F01B3F5006FC3F3871541F04D
:1089C000800407D245F0C0010190FFF7D2FF019863
:1089D0002146E9E71B0B43F0E0010190FFF7C9FFD7
:1089E00005F03F01019841F08001EEE72DE9FF47D6
:1089F00000244E68DFF8CCA080460F461546A146FD
:108A0000B868B0425ADDD8F80430995D9A19002C44
:108A10004BD0752905D86D2907D862291ED0662943
:108A20001ED02846FFF7A5FF3DE0A1F16E04072CFC
:108A3000F7D80FF2080C5CF824F000BF658A0B0031
:108A4000238A0B00238A0B00238A0B00698A0B0000
:108A5000238A0B006D8A0B00718A0B000821E0E766
:108A60000C21DEE70A21DCE70D21DAE70921D8E74E
:108A7000311D884217DD02A904333344084612F839
:108A8000014F01F8014B9A42F9D101AA51468DF8E4
:108A90000C9004F0EDFA012805D1BDF80400294638
:108AA000FFF77CFF0536002404E05C2904D028464B
:108AB000FFF75FFF0136A3E70124FBE7012004B0C5
:108AC000BDE8F087814F0C007FB50C4606460C4987
:108AD0001046154606F0D7FED4E90131C91A013116
:108AE000284606F045FE00236A4621463046CDE979
:108AF000013300950393FFF779FF04B070BD00BF09
:108B0000E04F0C002DE9F04389B00546884604A8E3
:108B100012491646994606F058FE002700974B4624
:108B200003AA41462846FFF7C4FE044670B10399E4
:108B300004AA2846FFF7C8FF044608B90137EDE745
:108B4000314604A806F007FF0028F7D004A806F075
:108B5000F1FD204609B0BDE8F08300BFE04F0C00F6
:108B600000230122C3604361028380F82A307047EA
:108B700008B50346FFF700FE044A1A604FF0FF32C3
:108B80001846DA62FFF7ECFF08BD00BF20470C0073
:108B9000D0E9022310B593423FBF42685C1CC46019
:108BA000D15424BF012380F82A3010BD10B5436989
:108BB000044643B100EB4303597E09B1FFF7E8FFD8
:108BC0006369013B6361D4E90210636888424FF036
:108BD00000022ABF5B181A5403F8012C10BD70B5AF
:108BE0000446D0E9025066682D1A134630440A46FE
:108BF000294604F04DFA85422DBFE368A368E3607F
:108C0000C01836BF0123E06084F82A3070BD0EB46E
:108C100003B503AA52F8041B0192FFF7E0FF02B06C
:108C20005DF804EB03B070472DE9F84304460E46A7
:108C3000174612B12221FFF7ABFFDFF80C810025A8
:108C4000715D06EB0509002974D0D4E902329A421D
:108C500070D20B0634D501F0F003E02B05F10109C9
:108C60001DD116F8092002F0C003802B39D105F17F
:108C7000020916F8093003F0C000802831D103F052
:108C80003F03920143EA013302F47C621A4392B239
:108C900041462046FFF7BBFF4D460135D0E701F0C6
:108CA000E003C02B1DD116F8093003F0C002802A62
:108CB00017D1890101F4F86203F03F031A43E7E793
:108CC0000D290AD807290CD9A1F10803052B08D8CA
:108CD000DFE803F009231707111D222923D05C299F
:108CE00021D0204604E05C212046FFF751FF62219D
:108CF000FFF74EFFD1E75C212046FFF749FF6621D1
:108D0000F6E75C212046FFF743FF6E21F0E75C2188
:108D10002046FFF73DFF7221EAE75C212046FFF77E
:108D200037FF7421E4E75C212046FFF731FF99F813
:108D30000010DDE72FB120462221BDE8F843FFF700
:108D400027BFBDE8F88300BFE8460C00426900EB8E
:108D500042031A7E12B100221A7670472C21FFF7C7
:108D600017BF73B5436901910133082B16460FD81D
:108D7000FFF7ECFF4369019900EB43045A1C0125FE
:108D80004261A576E676FFF703FF284602B070BD84
:108D90000020FBE737B5044610EE100A07F008FD87
:108DA000E56A002D02460B4608DBCDE900230749A2
:108DB0002A462046FFF72BFF03B030BD044920466A
:108DC00003B0BDE83040FFF722BF00BFEF460C0004
:108DD000F4460C0010B50446FFF7CAFE054B2360AD
:108DE0004FF0FF320023C4E90D232163E3632046E3
:108DF00010BD00BF30470C0070B5436B0133044613
:108E000021D1056B4B684363EB6888681A1AA2632B
:108E1000AE683044C31A002AE36305DD68688968D8
:108E20000144184408F0E2F8226B616B5268E36B6E
:108E30000A445B1A01212046C4E901232174FFF78B
:108E40008FFE084670BD0020FCE770B5436B013310
:108E500004460E4629D18D68016B013D4563CB6800
:108E60005A1B826388682844C31A002AE36304DD1E
:108E700048684119184408F0B9F8226B616B5268D0
:108E8000E36B0A445B1A0125C4E9012320462574DB
:108E9000FFF766FE636903F10C02F368B3FA83F32C
:108EA0005B0904F81230284670BD0020FCE7000082
:108EB0002DE9F04F44684FF0010C4FF0FF36D0F829
:108EC00000E0964580F0B98111F80E80B8F1000FEE
:108ED00000F0B381B8F13A0F00F0988033D8B8F1C0
:108EE000220F00F0A68010D8A8F109085FFA88F8D0
:108EF000B8F1170F0DD89F4D0CFA08F818EA050FB6
:108F000007D0056801350560D9E7B8F12C0F00F0EE
:108F10003381D0F8008042450ED911F808505DB178
:108F20003A2D00F269811F2D00F251810A2D00F2C5
:108F30006081082D40F25681002B40F0628108F1DB
:108F4000FF350560A5E0B8F17B0F37D02ED8B8F11A
:108F50005B0F33D0B8F15D0FDBD1002BD1D04FF0D8
:108F600002094568013D03EB0518002D55DBD8F8D3
:108F7000047001374DD0D8F808A0BAF1FF3F48D1AE
:108F800098F800B0CB454BD10EF1010EC0F808A007
:108F9000C8F808E003EB051EDEF80470013742D084
:108FA000DEF8087001373ED18560AAE7B8F17D0F81
:108FB000AFD1002BA5D04FF00109D2E70134002B2F
:108FC0009FD04568099FAF424AD905F1010EC0F80C
:108FD00004E003EB051ECEE901664FEA051A002501
:108FE000CEF80C5085686F1C1FBF03EB0519D9F82C
:108FF0000C500135C9F80C50B8F17B0F0CBF01259E
:10900000022503F80A500568CEF804504568013D72
:10901000CAE7013DA8F11008A7E701357FF471AF59
:109020006FF001041EE0013D6F1CAEF1100EB3D1D4
:1090300067E70EF10109C0F80090D0F800804245C2
:1090400040F2938011F80850002D00F08E80222D00
:1090500030D1F3B14568099FAF4206D8C0F800E0AF
:109060004FF0FF342046BDE8F08F05F1010E4FEAC6
:10907000051803EB0515C0F804E0C5E901660027F3
:10908000EF60D0F800E04FF0030A03F808A0C5E94C
:10909000019E85686F1C04F101043FF432AF002B80
:1090A0003FF42FAF03EB051EDEF80C500135CEF870
:1090B0000C5026E75C2D11D108F10105AA420DD90B
:1090C00005604D5D752D2BD86D2D0BD8662D27D8DD
:1090D0005B2D1DD8222D01D02F2D21D10568013502
:1090E0000560AAE76E3D072D1AD801A757F825F0AD
:1090F000DD900B0021910B0021910B0021910B00C1
:10910000DD900B0021910B00DD900B0027910B00EF
:109110005C3DEDB20CFA05F540F241473D42DDD130
:10912000C0F800E07CE708F1020505604FF0040A92
:10913000D0F80080424503D80568013D0560CDE7C1
:1091400011F80850002DF7D0A5F1300BBBF1090F35
:1091500004D925F02005413D052DE1D808F1010590
:10916000BAF1010A0560E3D1E6E7C0F800E06FF06C
:10917000020477E713008000002B3FF4C2AE85683D
:109180006F1C3FF4BEAE2D015D5D013D012D7FF6EC
:10919000B8AE456805F1FF3803EB051EB8F1000FC6
:1091A000FFF6AFAE1EF8105C013D012D0AD85EF847
:1091B0000C5C013506D05EF8085C013502D1C0F8C0
:1091C00008809EE608F1FF38AEF1100EE6E7A5F143
:1091D0002009244F5FFA89F90CFA09F919EA070FF7
:1091E0007FF4AAAE203D5E2D9AD808F101050560F6
:1091F0008FE60D2DF6D19FE605F0DF09B9F15D0F81
:10920000F8E74568099FAF427FF628AF05F10108EE
:109210004FEA051903EB0515C0F80480C5E901669E
:109220000027EF60D0F800804FF0040A03F809A08F
:10923000C5E901E80568013D83E6002B3FF412AF64
:109240004268511E03EB02130029FFF60BAF53F8DF
:109250000C2C013203D053F8082C013287D001398D
:10926000103BF1E701100004F7B5C268044612B9DB
:10927000002003B0F0BD436900F12006ABB100212E
:10928000C0E908114FF0FF318162C1690091416866
:109290003046FFF70DFE431C28D1257C002DE7D179
:1092A000606903F0CDFE6561E56100254FF0FF3791
:1092B000C4E90855E2686168A76200952B4630460C
:1092C000FFF7F6FD0028D3DBE06117D0000103F0C3
:1092D000AFFEE269606103460092C4E90855E268A6
:1092E0006168A7623046FFF7E3FD01E00028BFDBBD
:1092F000636903EB0010A0610120BAE76369A36111
:10930000FAE738B5436B5A1C044618D0826B002A22
:1093100008DD016BE5684868E16B2B4401441844A3
:1093200007F064FED4E90C23A16B0B44E1680B4405
:10933000D360206BFFF798FF4FF0FF33636338BDB6
:109340007047704710B508210446FAF7A8FE20467A
:1093500010BD10B510210446FAF7A1FE204610BD3D
:1093600010B5054B044640F81C3B06F0E3F9201D00
:1093700006F0E0F9204610BDA4470C0010B50446E5
:10938000FFF7EEFF20465821FAF789FE204610BD70
:1093900010B5044B044640F8043BFFF7E1FF2046BC
:1093A00010BD00BF74470C0010B50446FFF7F0FF76
:1093B00020466021FAF773FE204610BD20F002031C
:1093C000012B03D0431F584258417047184670473D
:1093D00091F90430037191F90530437191F9063028
:1093E000837191F90730C371704738B504460D4653
:1093F0000430043106F025FA05F1140104F11400DB
:10940000FFF7E6FF05F11C0104F11C0006F019FA54
:1094100005F12C0104F12C00FFF7DAFF95F9383043
:1094200084F8383095F9393084F8393095F93A3084
:1094300084F83A3095F93B3084F83B3005F13C0133
:1094400004F13C00FFF7C4FF95F9483084F8483038
:1094500095F9493084F8493095F94A3084F84A3012
:1094600095F94B3084F84B3005F14C0104F14C0078
:10947000FFF7AEFF95F8543084F8543038BD0B68D0
:1094800003604B68436013B15A6801325A607047F9
:10949000024A02604A684260704700BF84470C007D
:1094A0004A69036862F3160303600B695A1C438818
:1094B00062F3CA134380CA68C3F3072362F3C70386
:1094C000C3707047024A026000224260704700BFCA
:1094D00084470C0030B5002387B0838083710D462C
:1094E00005AB00931349044604AB03AA284603F0D6
:1094F000BFFD032807D1039B2371049B6371059B68
:10950000A37107B030BD0C4904AB03AA284603F091
:10951000AFFD022804D1039B2371049B6371F0E724
:10952000064903AA284603F0A3FD012804BF039BB4
:109530002371E6E738470C003B470C00EF360C0080
:1095400090F9042090F9053090F90610002AB8BF70
:109550000848C3EB03134FEA8303BDBF00FB02308F
:10956000401840424FF46160A4BF00FB0230401835
:10957000704700BFF0F1FFFF08B590F854304BB1D1
:1095800090F93B3043B92C30FFF7DAFFB0FA80F0A6
:10959000400908BD0120FCE70020FAE790F90730F8
:1095A00043B990F904308B6090F905304B6090F925
:1095B00006300B60704790F9073030B5B3B990F9B9
:1095C00004508C682C44D1E900328C6090F905403D
:1095D000002DB5BF121B12194A604A60B5BF90F941
:1095E000062090F906209B1A9B180B6030BD0000E6
:1095F00008B5054A02600022034642600830FFF7C2
:1096000061FF184608BD00BF94470C00002343606B
:10961000838183737047000030B5044687B00D46E0
:1096200011B10B784D2B05D0204607B0BDE8304076
:10963000FFF7ECBF05AB0093114904AB03AA284622
:1096400003F016FD032816D1039B2371049B63715D
:10965000059BA3712F21284607F066FD40B1411CF0
:1096600004F10800FFF736FF0123E37107B030BDB6
:10967000A081A073F8E72046FFF7C8FFF6E700BF18
:1096800053470C00104B114910B5044640F8043BF9
:1096900006F09BF804F11400FFF714FF0B4904F1E6
:1096A0001C0006F092F804F12C00FFF70BFF04F108
:1096B0003400FFF79DFF04F14400FFF799FF0023FA
:1096C00084F85430204610BDA4470C00E04F0C0035
:1096D0002DE9F74F0446084607F050FD00250646E1
:1096E000019004F134083F49019801AA08F04EFCAA
:1096F0000146002862D0012D05F1010353D0022D4F
:1097000056D0002D46D1024692F80090B9F1400F94
:109710001546174602F10102F6D800222A7004F11C
:109720001C0006F0B0F8012285F8009084F854205F
:109730002A786AB397F800A00AF1FF323F2AB946A7
:10974000BB4607F10107F5D9002304F12C0789F87E
:10975000003029463846FFF7BDFE89F800A0BAF16F
:10976000000F15D05D461BF801ABBAF1400FF9D8D8
:1097700000222A704946201D06F085F885F800A0D1
:1097800004F11400BAF1000F06D02946FFF7A2FE3B
:109790000125A8E71D46A6E73946FFF719FE237EF7
:1097A000013B2376F4E74046FFF736FF02259AE7B0
:1097B00004F14400FFF730FF032594E794F93B30B0
:1097C00043B194F94B202AB904F13400FFF71EFF8E
:1097D00084F85420304603F033FC94F8540003B06E
:1097E000BDE8F08F5D470C0038B5134B04460D46BD
:1097F00040F8043B114905F0E8FF04F11400FFF7BD
:1098000061FE0E4904F11C0005F0DFFF04F12C009D
:10981000FFF758FE04F13400FFF7EAFE04F14400BC
:10982000FFF7E6FE002384F8543029462046FFF770
:109830004FFF204638BD00BFA4470C00E04F0C008E
:1098400008B50346FFF73EFE8A681A714A685A71E6
:109850000A689A71184608BD13B5074B03600023C8
:10986000436004466846FFF7EBFF20466946FFF772
:10987000AFFD02B010BD00BF84470C0007B5002348
:10988000014601A80193FFF70BFE019803B05DF8B4
:1098900004FB10B504460846FFF7F0FF206010BD3A
:1098A00010B5044688B00846683001A907F03EFBB1
:1098B00001A807F080FC08AB1844002300F81D3C09
:1098C00001A9204605F081FF204608B010BD000028
:1098D00038B50446081D0D46FFF74EFE28B109496C
:1098E000204605F072FF204638BD2868FFF766FD68
:1098F00028B105F10801204605F0B2FFF3E705F1B4
:109900002001F8E75F470C002DE9F0478046A8B03A
:109910000C4615462AB1474B1046196807F01BFC48
:1099200038B921464046FFF7BBFF404628B0BDE8A6
:10993000F08729463F2218A807F059FC002318A8F1
:109940008DF89F3007F037FC2146054603A8FFF746
:10995000BFFF201DFFF710FE48B3374907A807F0E7
:1099600004FC18AE002705F1FF3ABA454CD933780C
:10997000252B07F1010917D173787A2B36D107A867
:1099800007F019FC18AB05463818AAEB0702B11C02
:10999000184407F01DFB2A4607A9304607F018FBBC
:1099A00018A807F008FC054601364F46DBE720689B
:1099B000FFF704FDB8B104F11800FFF7C1FD3C2228
:1099C00090FBF2F3002BB8BF5B42B3FBF2F102FB5A
:1099D00011330093194A1A4B90FBF3F3102107A897
:1099E00003F04EFBBDE704F13000E6E75A2BDBD174
:1099F000059D18AB7819AAEB0702B11C184407F0B3
:109A0000E7FA03992A46C8E700212E220CA80B91F9
:109A100007F006FB04F1680318AA32210BA803F033
:109A200067FB0BA9404605F0D0FE03A805F082FEB7
:109A30007BE700BF98D603205F470C0061470C000E
:109A4000F0F1FFFF38B5094D2B6863B96020FAF7D4
:109A500022FB044630B1064B40F8043BFFF712FEF0
:109A60006423E3652C60286838BD00BFD4E403207C
:109A700074470C0003F054BB01390B2915D8DFE8FB
:109A800001F01608160616061616061606161E20ED
:109A9000704783070DD1642390FBF3F203FB1200A0
:109AA00000280CBF1C201D207047002070471F207D
:109AB00070471C207047F8B50123CB6090F9043043
:109AC000013B0B610023C1E9003306460C461746F3
:109AD0008B602046FFF7CEFF96F90630A2699A42C6
