:02000002B0004C
:1040000000400B00E4290C00000006000D00050232
:084010000401A50F00000000EF
:04401800A80A0C00E6
:1040200009480A49884208B505D0094A824202D0A7
:10403000121A0CF031FA0748074A0021121A0CF044
:1040400053FA014808BD00BFDCD50320B8270C0097
:10405000DCD70320E0D70320F4E7032070B5074E38
:10406000074C0BF06BFBA41BA4080025AC4200D14D
:1040700070BD56F8043B98470135F7E744270C001C
:1040800088270C0001F0ECB908B501F0E9FABDE8A9
:1040900008400BF00BBB08F0B1BA08F0AFBA08F05B
:1040A000B5BA000008B5034A03490C2008F032F9FC
:1040B000FEE700BFB5BE0B00BC0A0C000078B0FAEA
:1040C00080F040097047012303707047704710B5B6
:1040D00004210446FFF7E3FF204610BD10B5034B53
:1040E0000360044603F078FE204610BD98100C00D3
:1040F00010B50446FFF7F2FF204640F24C71FFF77F
:10410000CEFF204610BD37B51D4601AB044604F076
:104110002DF820B101992A46204603F04BFF03B049
:1041200030BD37B51D4601AB044604F01FF820B181
:1041300001992A46204603F0FBFF03B030BD0EB4C0
:1041400000B58CB00DAA4FF0200C52F8041B03925E
:10415000CDE900120023016804AA1E20CDE904C3A2
:1041600008F0E8F80CB05DF804EB03B0704700000D
:1041700010B5064C236833B90420FFF78CFF08B153
:10418000034B03602060206810BD00BFE4D703200C
:10419000A8100C0010B5064CC0B00DF1030201A927
:1041A000204606F091FE0028F7D140B010BD00BFB8
:1041B0006CD80320014806F074BE00BF6CD8032001
:1041C00037B52A4C01F008FEB4F8031049BA89B299
:1041D00001F0E8FF01F000FEB4F8051049BA89B219
:1041E00001F0E6FF01F0F8FDE17901F06FFF01F069
:1041F000F3FD217A01F04CFF01F0EEFD0546607AF7
:104200000BF086FD41EC100B284601F021FE01F079
:10421000E3FDA17A01F042FF01F0DEFDE17A01F059
:1042200043FF01F0D9FD217B01F044FF01F0D4FDF3
:1042300004460F4805F07DFF81B2204601F0ACFF37
:1042400001F0CAFD01F0CDFE019001F0C5FD01F0C5
:10425000AFFE019A074903460748FFF770FF074B77
:10426000042201201A7003B030BD00BFF0D7032034
:104270006CD80320D10A0C0058E60320E0D70320B5
:1042800010B501F0A9FD134B997801F019FF01F069
:10429000A3FD04460BF0DBF8C3170246204602F0EC
:1042A00001F801F099FD04460B4805F042FF81B288
:1042B000204601F071FF01F08FFD01F079FE074902
:1042C00002460748FFF73BFF064B06221A70012003
:1042D00010BD00BFF0D703206CD80320F80A0C00F3
:1042E00058E60320E0D7032070B588B001F024FD24
:1042F00001F004FF324C000A207001F01DFD01F0B6
:10430000FDFE60700BF0A3F80016A0700BF09FF894
:104310000014E0700BF09BF8001220710BF097F87E
:10432000607101F009FD01F0EEFE000AA07101F0DC
:1043300003FD01F0E8FE234BE0711E8800250121FA
:10434000257230460BF093FA01F046FD01F030FE85
:1043500006220346009221461B48092206F004F972
:10436000044610BB01F038FD01F022FE05460BF0BB
:104370006EF80246C31704A80AF064FF049B039377
:1043800001F0DAFC01F0BFFE039B104900902A46C1
:104390000F48FFF7D4FE04A80AF0A6FC30462146D9
:1043A0000BF065FA012008B070BD0A490848FFF714
:1043B000C6FE304629460BF05AFA2846F3E700BFFE
:1043C000F0D70320BC140C00E8E003201D0B0C0008
:1043D00058E60320600B0C0030B587B0174904463F
:1043E00002A815460AF0CBFC154803F068FD154AF3
:1043F000014601AB124803F0B9FE019910486A1E4C
:1044000003F07FFD014648B90F4920460AF0B7FC8A
:1044100002A80AF069FC204607B030BD08480B4AE4
:1044200002ABFFF77EFE002102A80AF06EFD002815
:10443000EAD102A920460AF0D3FCE9E799230C004F
:104440009CD903207A0B0C00800B0C00850B0C0010
:1044500013B50C480C4603F032FD0B4A014601AB84
:10446000084803F083FE01990648621E03F049FDE7
:1044700030B10146054A03486B46FFF744FE012070
:1044800002B010BD9CD903207A0B0C00890B0C00E4
:1044900013B510480C4603F012FD0F4A014601AB5C
:1044A0000C4803F063FE01990A48621E03F029FDDF
:1044B000014630B909480A49FFF741FEFF2002B022
:1044C00010BD0448074A6B46FFF71DFE9DF800002B
:1044D000F5E700BF9CD903207A0B0C0058E60320B7
:1044E0008E0B0C00880E0C00F0B587B0054601F06D
:1044F00023FC01F003FE404C000A207001F01CFC7C
:1045000001F0FCFD60700AF0A2FF0016A0700AF036
:104510009EFF0014E0700AF09AFF001220710AF06A
:1045200096FF607101F008FC01F0EDFD000AA0713A
:1045300001F002FC01F0E7FDE07101F04DFC01F03B
:1045400037FD207201F048FC01F032FD014628469B
:10455000FFF79EFF6072054601F03EFC01F02DFD65
:1045600006460AF074FF0246C31702A80AF06AFE64
:10457000029F01F0E1FB01F0C6FD2A461F493346C8
:10458000CDE900701E48FFF7DAFD02A80AF0ACFB87
:104590001C4B1D88012128460BF069F901F01CFC19
:1045A00001F00BFD022203460092214616480A2222
:1045B00005F0DAFF0446A8B914491148FFF7BFFD1A
:1045C00001F00AFC064601F007FC01F0F1FC01468F
:1045D000304601F057FD284621460BF048F90120EE
:1045E00007B0F0BD0A490648FFF7A9FD284600219B
:1045F0000BF03DF90020F3E7F0D70320A40B0C00EB
:1046000058E60320BC140C00E8E00320EF0B0C007C
:10461000600B0C002DE9F043B3B03E493E4E3F4FD6
:10462000DFF820810AA80AF0AAFB3D493D48FFF7C0
:1046300086FD394803F043FC3B4A014609AB364846
:1046400003F094FD002509992A46304603F059FCF1
:10465000014650B9354933482A46FFF770FD0AA88C
:104660000AF042FB33B0BDE8F0830AAB3A4605904E
:104670003046FFF756FD059906AB42463046FFF738
:1046800042FD2B4A059907AB3046FFF73CFD0599E3
:10469000284A08AB3046FFF736FD079A069CDDF83E
:1046A0002890D3170EA80AF0CDFD089B02930E9B0D
:1046B000214A8021CDE9009312A8234607F0C6FFC6
:1046C0000EA80AF011FB174812A9FFF738FD07F0F2
:1046D000EDFED8B1194B1A491B788DF8003012AA9B
:1046E0003C230EA808F0D8FA0F9C7CB16368013B0C
:1046F00063605BB9236820469B689847A368013BC9
:10470000A3601BB923682046DB68984701350A2D52
:1047100099D1A4E799230C009CD90320850B0C00A8
:104720000E0C0C0058E603207A0B0C00210C0C0038
:10473000360C0C00880E0C003B0C0C00E1D703205B
:104740006D0C0C00890B0C0070B5054686B03F4817
:104750000E4606F044F9044630B93D493D48FFF79E
:10476000EEFC204606B070BD9FED3B0A3B4806F0CC
:104770002FFC3A480022172106F0A4FD7EB301F079
:10478000DBFA002101F05AFC02A807F097FE029A1A
:1047900033493048FFF7D3FC02A80AF0A5FA01F02C
:1047A00099FB014602A801F0BBFB02990191084662
:1047B0000BF055FF019902462A4803F048FB02A876
:1047C0000AF092FA274804F039F800283CD026492C
:1047D0002048FFF7B4FC2846FFF71CFFC1E701F0B3
:1047E000ABFA01F0C7FBD8B101F0A6FA01F0C2FBA9
:1047F0000A2815D801F0A0FA01F0BCFB01461B48BD
:1048000005F019FC194805F0FCFB019002A807F01F
:1048100055FEDDE9012316490E48FFF790FCBBE782
:1048200001F08AFA0B2101F009FC0B210F4805F079
:1048300002FC0E4805F0E5FB019002A807F03EFEE1
:10484000DDE901230B49E7E70B49C1E7E8E0032075
:10485000760C0C0058E6032000C064446CD803209A
:10486000820C0C009CD903203A0D0C00ECE00320D4
:10487000BC0C0C00F30C0C004E0D0C002DE9F043A9
:104880006B4D6C4C2B6889B001332B6006460AF0E7
:10489000DEFD0016A0700AF0DAFD0014E0700AF0E8
:1048A000D6FD001220710AF0D2FD607101F044FAC9
:1048B00001F029FC000AA07101F03EFA01F023FC8E
:1048C000E07101F089FA01F009FD207201F084FA2B
:1048D00001F06EFB01463046FFF7BAFD00286FD0AD
:1048E00001F07AFA01F064FB534902465348FFF79E
:1048F00026FC0023637201F06FFA01F072FB504F47
:10490000627A504BA072002A08BF1F4601F064FA79
:1049100001F04EFBA47A80460AF099FD0246C317C7
:1049200004A80AF08FFCDDF8109001F005FA01F000
:10493000EAFB3A46444900944346CDE901903F489A
:10494000FFF7FDFB04A80AF0CFF93046FFF762FE3F
:104950003E4B1E88012130460AF089FF01F03CFAE7
:1049600001F026FB042203460092324938480B220C
:1049700005F0FAFD374B04461868002C3BD1013096
:1049800018600BF0D5F98046286889460BF0D0F9FD
:1049900002460B46404649460BF05EFB2E4B00227A
:1049A0000BF030FA02460B4624482C49FFF7C7FBB0
:1049B000304621460AF05BFF012009B0BDE8F083D4
:1049C00001F00AFA01F0F4FA254902461B48FFF704
:1049D000B6FB01F001FA012101F072FB01236372C1
:1049E00001F0FAF907460AF032FD0246C3173846CD
:1049F00001F058FC7FE70BF09BF980462868894658
:104A00000BF096F902460B46404649460BF024FB54
:104A1000114B00220BF0F6F902460B4607481149EC
:104A2000FFF78DFB304600210AF021FF0020C4E78C
:104A3000ECD70320F0D703206B0D0C0058E60320C1
:104A40005C0D0C0099230C00BB0D0C00BC140C0079
:104A5000E8E00320E8D7032000005940050E0C00D1
:104A60008A0D0C00390E0C0010B5134C134B227834
:104A70001349144803EB0212FFF761FB2378042B60
:104A80000CD02378022B04D1FFF772FBFFF72CFD2B
:104A900050B92378062B09D0002006E0FFF768FB09
:104AA000FFF7ECFE0028ECD0012010BDFFF760FB03
:104AB000BDE81040FFF718BCE0D70320DCD5032089
:104AC000680E0C0058E6032037B5044615460191E0
:104AD00003F070FC01990122204603F0D9FB204627
:104AE0003A2103F089FB04492A46204603B0BDE879
:104AF000304003F0C0BB00BFB60E0C0013B5114B25
:104B0000114C01221A703223009304F12C0104F29B
:104B10002C434FF48062204603F0B6F90B4B236020
:104B20000B4A0C4C0C490D4B12780978204606F0C4
:104B300011FA0B480022214602B0BDE8104005F0F2
:104B400009BD00BFE1D703209CD9032098100C00B9
:104B5000C2140C006CD80320C0140C005CE40320C9
:104B6000E8E003202DE9F04796B00E4602A84D4933
:104B7000DFF83481DFF848A10AF001F94A4803F070
:104B80009EF94A4A014601AB474803F0EFFA002577
:104B900001992A46404603F0B4F96C1C0746A14629
:104BA00000285FD1424943482A46FFF7C8FA3E49E8
:104BB00006A803F023FC334622463F493D48FFF751
:104BC000BEFA394803F070F9014606A803F028FC44
:104BD0007D227B2106A803F0F8FB2246374906A870
:104BE000FFF772FF06A803F0E5FB012206A834498F
:104BF00003F04EFB06A83A2103F0FEFA31460122EB
:104C000006A803F045FB0AF022FC054606A803F0BF
:104C1000D1FB012206A82B4903F03AFB06A83A2152
:104C200003F0EAFA2A4606A8274903F024FB0322E8
:104C3000264906A8FFF748FF06A803F0EBFA06A8E6
:104C400003F049FE01F046F9D8F8041001F07AF9B2
:104C500022461F491748FFF772FA06A8E4B203F08C
:104C6000A7F812E0014602AB40465246FFF759FA58
:104C7000314602A80AF049F970B1104A0A486B4659
:104C80003946FFF740FA9DF8004002A80AF02CF8D8
:104C9000204616B0BDE8F087AC1C4D460A2D7FF4C7
:104CA00077AF84E799230C009CD903207A0B0C0082
:104CB0008D0E0C0058E60320B90E0C00890B0C0079
:104CC000850B0C00360C0C00941B0C00880E0C009D
:104CD000FB0E0C00F0B5334B02221A7091B0324B30
:104CE00009AC054603F1180227461868596826469C
:104CF00003C6083393423446F7D11B78337001F072
:104D00006BF8044601F068F801F052F901462046BC
:104D100001F0B8F901F060F801F04AF90A281DD94C
:104D200001F05AF8394604462846FFF71BFF0146B2
:104D3000204601F0A1F901F04FF801F03EF903908F
:104D400001F04AF801F034F9039B00901749184824
:104D50003A46FFF7F4F9012011B0F0BD01F03CF83C
:104D600001F026F901462846FFF792FB114CE07648
:104D7000FFF7FEF90122014605A8FFF72DFB059A72
:104D8000039201F029F801F013F9E17E0091034646
:104D9000039A09490648FFF7D2F905A809F0A4FFCC
:104DA000D9E700BFE0D70320F2D703200E0F0C0095
:104DB00058E60320F0D703205B0F0C0070B588B0D5
:104DC00079238DF81A300DF11F0303930DF11E03A3
:104DD000444E02930DF11D03019307AB009342482B
:104DE0000DF11B030DF11A02314605F0F1FB10B96C
:104DF000002008B070BD9DF81A300024F4543588A6
:104E000000F09AFF01F07AF96DBAADB2A8420ED067
:104E1000328852BA92B2059200F08EFF01F06EF91C
:104E2000059A324903463248FFF789F9E0E700F076
:104E3000D3FF9DF81B102F4C01F01EF99DF81E307A
:104E400003F00F03237000F0C7FF01F0B1F80590E5
:104E5000294805F06EF99DF81F1002919DF81A106F
:104E60000191034625492078059A01EB0011009134
:104E70001F482349FFF763F92378032B0DD1FFF770
:104E800077F9FFF79DF90028B2D01E4B1A7892B936
:104E90001D491748FFF753F91EE0012B04D1FFF716
:104EA00067F9FFF717FFEEE7052BEED1FFF760F983
:104EB000FFF7E6F9E7E700221A7000F03DFF134B19
:104EC000198801F05DF900F037FF01F01CF9104975
:104ED00002460748FFF733F9FFF74AF9FFF7C4FD29
:104EE00087E700BFF0D70320E8E00320AA0F0C00FB
:104EF00058E60320E0D703206CD80320DCD503203C
:104F0000FC0F0C0009E4032071100C00F8D60320FC
:104F10003D100C00014B1A60704700BF54D60320AF
:104F2000014B01221A707047DCE3032030B585B0D5
:104F30000446089860B1406850B1856845B1CDE934
:104F40000241CDE90023C46801AB6A4602A9A0472B
:104F500005B030BD30B585B0006813680193D1E964
:104F600000458368CDE902450BB90AF08BFDC368A3
:104F700001AA02A9984705B030BD012A02D10160FB
:104F800000207047022A04BF0B680360F8E703683B
:104F90001268D1E90001184708B5002007F0A6FA09
:104FA00028B107F083FA80F00100C0B208BD0120EB
:104FB000FCE710B58368044613B103220146984705
:104FC000204610BD10B5044638B1FFF7F2FF204669
:104FD0001021BDE81040FFF762B810BD38B500F0F1
:104FE000ABFE01F090F804460AF014FAF0B1104B51
:104FF0001B78DBB90AF02BFA3C256543B0FBF5F4CE
:1050000004FB15002C1A092C0ED9AC4228BF2C46E3
:1050100000F092FE01F077F8064902462346064862
:10502000FFF78DF8204638BD0A24F1E70A24F9E796
:10503000DBE30320B0100C0058E6032070B51C4ED3
:105040001C4C32781C4D022AC4B028D10AF0E2F977
:1050500032782B7858B904EB02120092174A04EB0D
:1050600003134FF4807104A807F0F0FA0FE004EB8B
:105070000313039304EB0214FFF7B0FF039B104AE2
:10508000CDE900404FF4807104A807F0DFFA3378CF
:105090000C482B7004A9FFF752F844B070BD2B7870
:1050A00004EB0212009204EB0313074AD9E700BF96
:1050B000DAE3032058D60320D9E30320E4100C00E0
:1050C00004110C0058E6032021110C002DE9F04FCB
:1050D0002DED028B0446D3B000286CD0FFF748F8C2
:1050E000224601460EA8FFF777F90E9B0D9300F0BC
:1050F00073FE01F017F8044600F06EFE01F017F899
:10510000054600F069FE00F076FF064600F064FEFA
:1051100000F07EFEB0EE408AF0EE608A00F05CFEA9
:1051200000F055FF4E4A52F820B000F055FE00F056
:1051300049FF074600F050FE00F04EFF804600F0A9
:105140004BFE00F0EAFF814600F046FE00F049FF0A
:1051500082460AF07CF90D9B424A00944FF480711C
:10516000CDE90AA0CDE90889CDE906B78DED048B1C
:10517000CDE9015612A807F069FA0EA809F0B4FDAE
:1051800004F0B2FA384B394A1B78127800211343E5
:1051900002688DF804108DF80030354914683C23FE
:1051A00012AAA047334812A9FEF7C9FF53B0BDECBD
:1051B000028BBDE8F08F0EA807F080F90E9B0D93CF
:1051C00000F0BAFD00F0EFFE054600F005FE00F02D
:1051D0001FFEB0EE408AF0EE608A00F0FDFD00F0A8
:1051E000F6FE1F4A52F820A000F0F6FD00F0EAFE9D
:1051F000064600F0A1FD00F0C2FE074600F09CFD4F
:1052000000F086FF804600F097FD00F0BDFE81466D
:105210000AF01DF90D9B134A00944FF48071CDE9FB
:105220000A90CDE90145CDE90878CDE906A68DEDD6
:10523000048B12A807F00AFA0EA809F055FD04F035
:1052400053FA094B094A1B7812780B491343026839
:105250008DF800308DF8044014683C2312AAA0E7B2
:10526000FCD603202F110C009CE203209DE20320BA
:10527000C6110C0058E60320DB110C0038B50023E2
:1052800083608B6804460D462BB102229847EB6879
:10529000E360AB68A360204638BD00002DE9F04311
:1052A00095B005461C9904A890461F460CAEFFF722
:1052B000E5FF04A908A8FFF7E1FF08A93046FFF7BA
:1052C000DDFF4FF000091020CDF84890FEF7E3FE17
:1052D0000446A0B196E8030001AB83E8030094E81C
:1052E000030086E8030093E803000E9BE268A360D6
:1052F00084E803000F9BCDF838900F92E360244BB5
:105300001393244B1293002200234FF00009C5E9A8
:105310000023214BC5F8089010201094CDE90139E5
:10532000CDF80C90FEF7B7FE0446D8B1129BC0F83A
:10533000089033B1022210A99847139BE360129B97
:10534000A360164B0393164A029401AB40463946BC
:1053500007F02AF8B0B12046FFF72BFE10212046B7
:10536000FEF79DFE10A8FFF724FE3046FFF721FE52
:1053700008A8FFF71EFE04A8FFF71BFE284615B07D
:10538000BDE8F083029BAB60C5E90087EAE700BF98
:10539000554F0B00A5530B0002000C00C54F0B002E
:1053A0002D4F0B00012A37B5044604D10B6803606A
:1053B000002003B030BD022A0CD0032AF8D10468C3
:1053C000002CF5D02046FFF7F4FD10212046FEF713
:1053D00066FEEDE7096801911020FEF75CFE0546C8
:1053E00010B10199FFF74AFF2560E1E7164B10B5B0
:1053F00001241C70154B08221A700AF0D1F9002301
:105400001A4619460AF0DCF90AF0CAF900231A46CE
:105410000D210AF0CDF90E4B1A1D1A600D4A5A6083
:105420000022C3E902221A611C750AF099FA692266
:105430000146094801F02CFD0848062340F8043BCA
:10544000BDE8104003F008BC9CE203209DE203206D
:10545000D0E2032010000300B0E20320E8E20320C2
:10546000F0B500209DB006F03DFD42F210750446F7
:10547000002006F037FD001B61F10001A84271F128
:10548000000307D20AF0CAF80AF0BDF810B906F016
:10549000FDFFEDE70AF0C2F80AF0B5F800F066FF8C
:1054A00000F090FF00F098FC03685A4E1B685A4FBA
:1054B000984700F041FC03681B68984700F00AFD1C
:1054C00003681B68984701F069F8082301213046FA
:1054D000738102F0D9F97C21304601F0D7FD4F4BA2
:1054E00006934F4B099306AD4E4B08934FF4802221
:1054F000002302A80095FFF7D1FE2846FFF759FDCB
:1055000004F0F2F804F0F6FAFEF732FE0121FFF79C
:105510001BF903F081FD44490446284603F04EFC84
:1055200007A904F1080009F066FC0C9BE3610DA9D2
:1055300004F1200009F05FFC129B6363149BE3639A
:10554000169B6364189BE3641A9B63659DF86C303B
:1055500084F85830284603F0EDF909F078FFC317B6
:10556000C7E91803384603F0CFFD09F053FF2F4C6D
:10557000002843D039462E4A284603F0AFFC0123C9
:105580001A4610213046069F01F001FE29492A4B98
:105590003A46002818BF0B4628482949FEF7CFFD98
:1055A000284609F0A1FB274B1E8830460AF078F9FF
:1055B000054650BB24492148FEF7C1FD234B01217C
:1055C0001970234B1F8838460AF051F94FF4FA60DE
:1055D00007F094F8294638460AF049F90423237065
:1055E00000224FF0FF331B490092304607F008FEBF
:1055F00023780BB9022323701DB0F0BD16490F4864
:10560000FEF79DFD05232370CDE714490B48FEF7F7
:1056100096FDE5E7B0E20320E8E20320154F0B001A
:105620008F4F0B007B4F0B00FD110C00DAE30320C2
:1056300024120C00F3110C00F6110C0058E60320A4
:105640002F120C00BE140C009E120C00DBE3032092
:10565000BC140C00214F0B0060120C00BD120C009A
:105660002DE9F0417D4D2B78013B90B0062B17D8EA
:10567000DFE813F05002070033000C01BF013302D2
:10568000A601774B1B78022B01D0FFF7D7FC754B97
:105690001A781AB100221A70042300E003232B7039
:1056A000714802F09FF804F01FF803F00FFF00F0BC
:1056B00093FB00F0A1FB00F03FFB00F065FB00F066
:1056C00009FC00F024FC694B1B68002BC0F25682D9
:1056D00010B0BDE8F04109F0C6BC614B1B78032B4C
:1056E00001D0FFF7ABFC00215F48614C01F0CEFC1C
:1056F000FFF774FC074609F0AAFEC219D31708A8E1
:1057000009F0A0FD089B029309F010FD029B594986
:1057100000903A465848FEF712FD08A809F0E4FA4E
:105720004FF4FA6006F0EAFF237D002B50D00223ED
:105730002372524BB3F800802368DB68F3B19A8878
:10574000012A06D09B68F9E79B68BBB19A88012AB9
:10575000FAD19A894245F7D100229A73237D002B12
:1057600036D023684FF47A78DB6808FB07F8DBB1A2
:105770009A88042A00F0FD819B68F8E740491020D0
:105780000AF076F90646002800F0F6811022002182
:105790000AF0AAFE3B4B33600123B3802369B36058
:1057A000A6F80C802661D9E7354910200AF060F987
:1057B0000646002800F0E081102200210AF094FE45
:1057C000304B33600423B38023692661C6E9023875
:1057D000274905A809F04AFC4FF0FF31224801F0A3
:1057E00055FC002006F07EFB42F2107604460020B5
:1057F00006F078FB001B61F10001B04271F100037B
:1058000007D209F00BFF09F0FEFE10B906F03EFECC
:10581000EDE709F003FF09F0F6FE02232B70114BB0
:1058200001221A7009F013FEC219D31708A809F053
:1058300009FD089A029209F079FC029A124903467E
:105840000D48FEF77CFC08A809F04EFA05980028E0
:105850003FF426AF06F0DAFE22E700BFDAE30320CA
:10586000D9E30320D8E30320B0E2032054D6032079
:10587000D0E20320E7120C0058E60320BE140C000F
:1058800020250C001000030027130C00BD4B1B78D3
:10589000042B62D0072B03D006F014FBBA4B186020
:1058A000FFF7CCFBFEF764FCFEF774FC09F0CFFDBC
:1058B000B64CC317C4E91803204603F025FC04F1D5
:1058C000680105A803F0B2FA9DF9186000F034FAF7
:1058D00000F05FFB86426DDB04F1680108A803F06D
:1058E000A5FA9DF9246000F027FA00F057FB8642E4
:1058F00008A8ACBF0026012603F00CF805A803F0A9
:1059000009F8002E58D000F067FA012100F00FFDD1
:1059100000F062FA00F0E2FC9D4B9E4A9E4900288E
:1059200008BF1A4608A8039203F080FA9DF92430B4
:10593000029300F001FA00F02CFB044600F0FCF9A1
:1059400000F02CFBDDE90232CDE900409349944898
:10595000FEF7F5FB08A802F0DDFFFEF709FCFFF7F4
:105960002DFA38B100F038FA00F040FB01281CBFD6
:1059700007232B708B4B1B78002B7FF491AE06F026
:10598000A1FA814B1B68C01A874B98427FF688AEFC
:10599000FEF7EEFBFEF70EFC09F06AFD044600F090
:1059A000CBF900F022FC09F029FC844200F0B08021
:1059B000052374E60026A1E700F00EFA3146A5E7BC
:1059C000704B1B78072B01D0FFF738FB00F004FA6F
:1059D00000F0EEFAFFF77AFB00F0AEF9044600F0B3
:1059E000ABF900F0D1FA0130C1B2204600F032FB31
:1059F00052E6644B6D4C1B78052B25D0FFF71EFB40
:105A000000F09AF900F0F1FB09F000FC624906464B
:105A100008A803F028FA9DF82330B6EBD30F05D081
:105A200000F016FC62495E48FEF789FB00F084F93D
:105A300000F0A0FAFFF74AFB06F038FD08B906F0BF
:105A40002DFD06F03FFA206006F030FD38B300F07F
:105A500073F9064609F0FBFC0246C317304600F016
:105A6000EDFB00F069F9064606F02CFA2168411AB0
:105A70004FF47A70B1FBF0F1304689B200F07AFB56
:105A800006F014FD38B306F011FD10B1002006F049
:105A900025FDFFF781FA50B906F0F8FCF9E706F0AA
:105AA00011FA2368C01A434B9842D0D8F8E5FFF7A3
:105AB00073FA414908A806F09BFE00F03DF9044640
:105AC00008A806F011FFBCEEC00A204610EE103AFE
:105AD00099B200F05BFB0623E1E52A4B374C1B78BB
:105AE000062B04D0FFF7AAFA06F0ECF9206006F0C6
:105AF000E9F92368C01A324B98427FF6D1AD03F022
:105B0000F3FD90F8B330002B3FF4CAAD00F0DAFF9C
:105B10000223C4E52B4C2C4E2378BFF35B8F13F08C
:105B2000010F09D12046FEF7C9FA28B106F0CAF9DB
:105B300030602046FEF7C7FA124B2A781B789A424B
:105B400001D0FFF77BFA06F0BDF93368C01A47F2BF
:105B5000305398427FF6A4AD1C491148FEF7EFFA86
:105B60004FF4FA6006F0CAFD1E21194801F0E8FB67
:105B700096E5C3F80C802BE6267529E610B0BDE843
:105B8000F08100BFD9E30320A4E20320E8E2032070
:105B9000E0120C00DB120C0050E3032048130C0051
:105BA00058E60320DBE30320F0490200A8E20320CB
:105BB00091130C00C027090084E50320ACE2032008
:105BC000905F010098E20320A0E20320B0130C00D4
:105BD000B0E2032010B5034B0360044603F042FB20
:105BE000204610BDF0130C0010B50446FFF7F2FF7D
:105BF00020461021FEF753FA204610BD10B5036869
:105C000004460BB906F00EF92068BDE8104006F016
:105C100019B938B504460430FFF7F0FF206A616A0D
:105C20000368DD68D4E90223A8476068BDE838400E
:105C300006F010B938B504460430FFF7DFFF206ADC
:105C4000616A03689D68D4E90223A847A2682368B3
:105C5000D1885B692046984718B9236820469B691C
:105C60009847606806F0F6F8012038BD10B5044B7F
:105C700003600446406808B106F0DCF8204610BD19
:105C800014220C0010B5034B03600446FFF7EEFF2F
:105C9000204610BD38140C0010B50446FFF7F2FF83
:105CA00020466821FEF7FBF9204610BD10B5034BD6
:105CB00003600446FFF7DAFF204610BD64140C00B1
:105CC00010B50446FFF7F2FF20467021FEF7E7F912
:105CD000204610BD10B5034B03600446FFF7C6FF16
:105CE000204610BD0C140C0010B50446FFF7F2FF5F
:105CF00020464FF48761FEF7D2F9204610BD000020
:105D000000F12801816009494FF0400CC0E903C14E
:105D1000012181824FF47A71C16105490022C0E9F5
:105D2000081242608261034A02607047759EA92092
:105D3000ECE3032038140C0010B5064C23683BB983
:105D40006820FEF7A8F9034608B1FFF7D9FF2360E2
:105D5000206810BDE4E3032008B5006A03F098FA58
:105D6000FFF7EAFF03685B689847BDE8084000F06A
:105D700061BB10B5006A03F08BFAFFF7DDFF036823
:105D8000BDE810405B68184710B5FFF7D5FF036802
:105D9000BDE81040DB68002118470000002200F138
:105DA0002801426082614FF47A728160C2610749C2
:105DB000074A02624FF0480C3222C0E903C1426236
:105DC0000121044A81820260704700BF749EA920AD
:105DD000ECE3032064140C0010B5064C23683BB9B7
:105DE0007020FEF758F9034608B1FFF7D7FF23608C
:105DF000206810BDE8E3032010B5FFF79DFF03689E
:105E0000BDE81040DB6800211847000000000000DA
:105E100010B504462DED028B0430FFF7EFFEE3686A
:105E2000083B172B0CD9A36893ED068B606806F02E
:105E300011F8B0EE480AF0EE680ABDEC028B10BD16
:105E40009FED018BF2E700BF0000000000000000A2
:105E5000F8B50446043057EC106BFFF7CFFEE3684B
:105E6000083B172B12D9A5683046D5E906233946D9
:105E70000AF030FA50B9C5E906672046A56805F072
:105E8000E1FEA860236820461B6998476068BDE86A
:105E9000F84005F0DFBF0000002200F12801426059
:105EA00082614FF47A728160C2610749074A0262D7
:105EB0004FF4826C9622C0E903C142620221044A77
:105EC00081820260704700BF609EA920ECE303203E
:105ED0000C140C0010B5074C236843B94FF48760CD
:105EE000FEF7D9F8034608B1FFF7D6FF2360206814
:105EF00010BD00BFE0E3032010B5006A03F0C8F94D
:105F0000FFF7E8FF0368BDE810405B68184710B56D
:105F1000FFF7E0FF0368BDE81040DB680021184789
:105F200038B504460D46064908F029FF23464FF4CC
:105F300080621021284605F02CFE204638BD00BFA7
:105F400099230C000B464FF48062102105F092BE9D
:105F500038B5044604300D46FFF750FEE36860682C
:105F6000013BAB4226BFA3685D5D002505F072FFD3
:105F7000284638BD08B51021FFF7EAFF08BD08B56F
:105F80001521FFF7E5FF08BD08B51621FFF7E0FF73
:105F900008BD08B53821FFF7DBFF08BD08B539217A
:105FA000FFF7D6FF08BD08B53B21FFF7D1FF08BDBD
:105FB00008B51021FFF7CCFF08BD08B51121FFF788
:105FC000C7FF08BD08B51221FFF7C2FF08BD08B51D
:105FD0002021FFF7BDFF08BD08B52121FFF7B8FF5D
:105FE00008BD08B52421FFF7B3FF08BD08B534216B
:105FF000FFF7AEFF08BD08B54121FFF7A9FF08BDB7
:1060000070B5044604300D461646FFF7F7FDE36809
:10601000013BAB420DD3A3685A5DB24209D05E5535
:106020002046A56805F00EFEA860236820461B697F
:1060300098476068BDE8704005F00CBF08B50A4697
:106040001021FFF7DDFF08BD08B50A461521FFF74F
:10605000D7FF08BD08B50A461621FFF7D1FF08BDD6
:1060600008B50A463821FFF7CBFF08BD08B50A4638
:106070003921FFF7C5FF08BD08B50A461021FFF713
:10608000BFFF08BD08B50A461121FFF7B9FF08BDDB
:1060900008B50A461221FFF7B3FF08BD08B50A4646
:1060A0002021FFF7ADFF08BD08B50A462121FFF703
:1060B000A7FF08BD08B50A462421FFF7A1FF08BDC8
:1060C00008B50A463421FFF79BFF08BD08B50A460C
:1060D0004121FFF795FF08BD38B5044604300D4651
:1060E000FFF78CFDE3686068023BAB4226BFA36804
:1060F0005D5B002505F0AEFE284638BD08B51221CF
:10610000FFF7EAFF08BD08B52A21FFF7E5FF08BD44
:1061100008B53C21FFF7E0FF08BD08B52221FFF7D5
:10612000DBFF08BD08B53021FFF7D6FF08BD08B575
:106130003221FFF7D1FF08BD70B5044604300D468B
:106140001646FFF75BFDE368023BAB420DD3A36845
:106150005A5BB24209D05E532046A56805F072FD35
:10616000A860236820461B6998476068BDE87040B6
:1061700005F070BE08B50A462821FFF7DDFF08BD0F
:1061800008B50A462A21FFF7D7FF08BD08B50A4619
:106190003C21FFF7D1FF08BD08B50A462221FFF7D1
:1061A000CBFF08BD08B50A463021FFF7C5FF08BD83
:1061B00008B50A463221FFF7BFFF08BDF8B504460F
:1061C00004300D46FFF71AFDE3686068083BAB42F8
:1061D00023BFA1684919D1E90067002638BF00270D
:1061E00005F038FE30463946F8BD08B52021FFF7E6
:1061F000E5FF08BDF8B5044604300D461E461746B7
:10620000FFF7FCFCE368083BAB4212D3A3685A19C2
:1062100058595168B14208BFB8420AD05F51204670
:106220005660A56805F00EFDA860236820461B692E
:1062300098476068BDE8F84005F00CBE08B520211D
:10624000FFF7D8FF08BD08B52821FFF7D3FF08BD29
:1062500010B512491248FDF772FFFFF7BDFD00218E
:10626000FFF7A6FFFFF7B8FD0021FFF79BFFFFF741
:10627000B3FD044609F0EBF80246C3172046FFF7CA
:10628000E2FFFFF759FD0021FFF7DEFEFFF754FDA7
:10629000BDE810400021FFF7DDBE00BFC7130C00B2
:1062A00058E6032008B53821FFF7A4FF08BD38B52C
:1062B000044604300D46FFF7A1FCE3686068013B2B
:1062C000AB4226BFA3685D5D002505F0C3FD2846EF
:1062D00038BD08B53A21FFF7EAFF08BD08B54021EF
:1062E000FFF7E5FF08BD70B5044604300D461646BD
:1062F000FFF784FCE368013BAB420DD3A3685A5D12
:10630000B24209D05E552046A56805F09BFCA86006
:10631000236820461B6998476068BDE8704005F017
:1063200099BD08B50A463A21FFF7DDFF08BD08B55B
:106330000A464021FFF7D7FF08BD0000084B0122A5
:1063400010B51A7009F00CFB064C014600234FF4FF
:106350000052204602F092FF034B236010BD00BFA5
:10636000DDE30320ECE30320F0130C0008B5134930
:106370001348FDF7E4FE0221042009F067FA00212A
:10638000082009F063FA0121072009F05FFA0021D3
:10639000122009F05BFA0121112009F057FA0121BE
:1063A000102009F053FA0021102009F060FA0021B2
:1063B000112009F05CFA012008BD00BF88140C0010
:1063C00058E6032010B51849184890B02024FDF76E
:1063D000B6FE2246002168460AF086F822460021D1
:1063E0000DEB04008DF805400AF07EF800210DEB5E
:1063F00004008DF8254006F01BF841F2D833ADF8C3
:1064000006300B4B029341F27003ADF80C30009B49
:10641000002143F400736846009306F009F8003841
:1064200018BF012010B010BDA1140C0058E60320C5
:106430008403840308B505490548FDF780FEFFF78E
:106440007BFCBDE808400A21FFF79ABEC6140C0089
:1064500058E603207047006A0368DB6818470000AD
:106460001FB50446FFF768FCFFF74DFE064A0346DA
:106470001021684606F0EAF86946204608F07FFCDD
:10648000204604B010BD00BFE5140C0030B585B047
:106490000346144668460D4698470298206006F069
:1064A000ADF8286050B12268009909F0F5FF00248A
:1064B000684608F019FC204605B030BD004CF7E7EF
:1064C000FCFEFFFF0023042205F0D0BF0A4B10B5ED
:1064D0000446036007F07CFA214607F080FC09F0CF
:1064E0009DF809F08DF82046044B40F8043B07F076
:1064F00011FB204610BD00BF6C170C0054170C0098
:1065000010B50446FFF7E2FF20462421FDF7C7FD42
:10651000204610BD07B501230822CDE900234FF422
:106520007A71002341436A46184605F0EFFF03B035
:106530005DF804FB10B5FFF7FFFBFFF72AFD78B904
:10654000FFF7FAFBFFF72AFD182809D10F49104879
:106550000AF05FF8BDE810400C490E480AF059B83F
:10656000FFF7EAFBFFF715FD0B4A03460821084831
:1065700006F06CF8FFF7E0FBFFF710FDBDE81040F8
:106580000346054A0348082106F060B8F0140C00E1
:10659000F0D60320E8D60320F3140C0010B58CB01D
:1065A000374B0493374B0593374B0693374B079381
:1065B000374B0893374B09930024374B37493848FA
:1065C0000A930B94FDF7BBFD36493748FFF77AFF76
:1065D00036493748FFF776FFFFF7FEFBFFF718FC59
:1065E00023460922694633488DED000B05F03EFF36
:1065F000FFF7F2FBFFF7EBFC0CAB03EB800050F86E
:10660000201C2D48FFF75EFF0C23CDE90044ADF8B8
:1066100000302A4B2A49029304226B46294805F090
:1066200025FFFFF789FBFFF754FE274A2749A042C1
:1066300018BF11462648FFF745FF26492648FFF7B1
:1066400041FF26492648FFF73DFF264A26492748AD
:1066500006F011FA264A2749244806F00CFA264A81
:106660002649224806F007FA194A25491F4806F02C
:1066700002FA00F0A5FB0CB0BDE81040FFF75ABFCE
:1066800001150C0009150C000D150C0016150C0059
:106690001E150C002A150C0030150C003C150C00C2
:1066A00058E603204CD603206A150C0028D7032097
:1066B00072150C0079150C0084150C008D640B000C
:1066C00061640B0093150C00F9140C00C8160C0043
:1066D000A7150C00F0D60320B0150C00E8D6032057
:1066E000BA150C00C5150C0031670B004BCA0B0026
:1066F000D3150C00A5670B00E1150C0019680B0001
:106700008D680B0038B5046805467CB16368013BB1
:1067100063605BB9236820469B689847A368013B88
:10672000A3601BB923682046DB689847284638BD1C
:1067300010B5C6B000680A2203A90AF081F87828CB
:1067400021D8124B124A1880124B01241C704FF4AE
:106750008071034606A805F079FF0F4806A9FDF7EA
:10676000EEFC05F0A3FE60B10C4B0D491B788DF8D3
:10677000003004A83C2306AA06F08EFA05A8FFF70D
:10678000C1FF204600E0002046B010BDF8D603202F
:10679000F0150C0009E4032058E6032008E4032068
:1067A000DC150C0010B596B000680A2203A90AF0A7
:1067B00047F81728044624D8FFF7BEFAE1B2FFF7DE
:1067C0004FFCFFF7B9FAFFF7E4FB0F4A03464021FD
:1067D00006A805F03BFF0D4806A9FDF7B0FC05F043
:1067E00065FE60B10A4B0B491B788DF8003004A898
:1067F0003C2306AA06F050FA05A8FFF783FF012004
:1068000000E0002016B010BD30160C0058E6032042
:1068100008E40320DC150C0010B596B000680A22CD
:1068200003A90AF00DF81828044624D8FFF784FAC3
:10683000E1B2FFF71BFCFFF77FFAFFF7AFFB0F4A50
:106840000346402106A805F001FF0D4806A9FDF703
:1068500076FC05F02BFE60B10A4B0B491B788DF8D6
:10686000003004A83C2306AA06F016FA05A8FFF794
:1068700049FF012000E0002016B010BD44160C00B6
:1068800058E6032008E40320DC150C0030B51E494F
:1068900085B0054608F039FB0446D8B1FFF74CFA3D
:1068A0000121FFF73EFD3C20FFF734FE05F0FEFD21
:1068B00010B9012005B030BD144B154A1B788DF876
:1068C00000303C2302A8134906F0E6F903A8FFF7BD
:1068D00019FFEEE71049284608F017FB0028E9D019
:1068E000FFF72AFA2146FFF71CFD40F26450FFF73C
:1068F00011FE05F0DBFD0028DBD0044B074A1B78B6
:106900008DF800303C23DDE7B8170C0008E40320C5
:1069100059160C006C160C00041B0C0071160C00B0
:1069200070B5D0E900531426044606FB0356AE4268
:1069300004D0284608F0D8F91435F8E7206805F0A7
:1069400065FE204670BD8842F8B504460D461646E1
:1069500016D9904215D2A2F11406751AA1F11407A6
:106960002C44B7421CD02CB13146204608F038FAEE
:10697000337C2374304608F0B7F9143E143CF0E73A
:106980000ED0B5420CD02CB12946204608F028FA8A
:106990002B7C2374284608F0A7F914351434F0E74B
:1069A000F8BD2DE9F0410023C0E9003383604F6852
:1069B0009F4204460E4623DD4FF0140808FB07F003
:1069C00005F01CFE0546D8B1D4E9001208FB0212FE
:1069D000FFF7B9FF206805F019FE2560A760D6E92A
:1069E000007308FB0378B84508D03946284608F0FC
:1069F00011FA3B7C2B7414371435F4E77368636029
:106A00002046BDE8F081000070B5274B274A0125DC
:106A10001D70274B00248CB09A60C3E9004402200B
:106A200005F0B2FC2146284605F0C6FC29460420A4
:106A300005F028FACDE90044029408F0EFFD1D4C62
:106A40000546694603A8FFF7ACFF264603A906A83A
:106A5000FFF7A7FF184B46F8043B06A909A8FFF764
:106A6000A0FF09AA1E21304607F09CFA09A8FFF7EB
:106A700057FF06A8FFF754FF104B2360256203A8B9
:106A8000FFF74EFF0E4B236008F0C8FD4FF4165180
:106A900008F0B2FD06F09CFF214607F059F9684660
:106AA000FFF73EFF0CB070BD08E403200000FFFFBD
:106AB000FCE303200CE4032054170C00CC230C004F
:106AC0006C170C002DE9F04385B008F0C0FC434979
:106AD00005464348FDF733FB424B188806F0BAFBE6
:106AE000002401A8CDE90144ADF80C4005F0D4FF25
:106AF000204605F0F7F943F698260446002005F0F5
:106B0000F1F9031B61F10001B34271F1000305D2F9
:106B100005F0CCFC10B105F0B9FCEFE705F0C6FCC0
:106B200005F0D0F9304F386005F0B0FC05F0BEFC40
:106B3000044640B12D492A48FDF701FB00242046B8
:106B400005B0BDE8F08308F082FC2949DFF8A48095
:106B5000421B2348FDF7F3FA08F079FC2246022194
:106B60000646D8F8040005F0F9FCD8F804002346DE
:106B70002246214605F00AFD204605F0B3F947F20A
:106B800030590546002005F0ADF9431B61F10001C5
:106B90004B4571F1000306D2404607F021FD10B9C4
:106BA00005F074FCEEE7134807F01AFD05F08AF9CA
:106BB000386005F06BFC0F4807F00EFD20B10E4960
:106BC0000748FDF7BCFABAE708F041FC0B49821B05
:106BD0000348FDF7B4FA0124B1E700BF85160C00A5
:106BE00058E60320BE140C0010E70320AE160C007C
:106BF000D1160C0084E50320FA160C0020170C00B7
:106C000007EE900A9FED097AF8EEE77A67EE877A49
:106C10009FED077A87EE870ADFED067A70EE677AD6
:106C2000B2EE040A87EE800A704700BF00404E456E
:106C300000F07F450000FA4313B5012101A807F0D9
:106C400064FDFFF7C9F8FFF7BDF9FFF7C5F8FFF7D7
:106C5000B9F9252801A80DD907F0EAFDFFF7BCF81E
:106C60000121FFF71BFA002401A807F05DFD204673
:106C700002B010BD07F0C1FD0124F5E730B5194D94
:106C80000FCD97B00CAC0FC40FCD0FC495E8030027
:106C900084E80300144904A805F0AAFD04A805F03F
:106CA000EAFD044604A805F01FFE04A810EE105AE1
:106CB00005F04AFE16AB10EE100A03EB840409F04F
:106CC00049F8CDE90201284609F044F8CDE9000170
:106CD000064A54F8283C0648402105F0B7FC17B096
:106CE00030BD00BF00180C0084E50320BA170C006B
:106CF00028D7032030B585B00D46002269460092A2
:106D000005F030FB90B9009C0CB1236923B9084A07
:106D100008490A2005F0FEFA0C23CDE901350423C9
:106D2000039301AA236901212046984705B030BD8D
:106D3000B5BE0B00D3170C0013B5FFF74DF801A932
:106D400004460720FFF7D6FF011EA8BF0199204681
:106D5000C9B2FFF7A3F9184806F098F94FF4FA7092
:106D600005F0CCFCFFF738F801A904460320FFF733
:106D7000C1FFE8B9BDF8043007EE903AFBEECC7ADB
:106D800017EE900A08F0E6FF41EC100B2046FFF7E3
:106D90005FF8FFF721F8FFF73BF8084B51EC100BB9
:106DA000002209F0BFFA003818BF012002B010BD60
:106DB000FFEE007AE4E700BF30E4032000004E401D
:106DC00013B5FFF709F8114B0446188808F07BFD4E
:106DD000FFF716FFFDEEC07A2046CDED017A9DF853
:106DE0000410FFF755F9FEF7F7FFFFF7EBF8084A35
:106DF00003461021074805F029FCFFF79DFFFFF728
:106E00001BFFFFF73BFF012002B010BDC4140C00B4
:106E1000F9170C0018D703200148002106F0F2B83A
:106E200030E40320704710B520210446FDF737F900
:106E3000204610BD10B504468AB008464FF0200C1D
:106E40000021CDE90023CDE902C10B4602AA216849
:106E500005F070FA0AB010BD0EB403B503AB3221D1
:106E600053F8042B0193FFF7E5FF02B05DF804EB44
:106E700003B070470EB403B503AB012153F8042BE4
:106E80000193FFF7D7FF02B05DF804EB03B0704742
:106E900010B50272FF2242810022C0E90322426142
:106EA0000276C261024A034C1060C0E9004110BD85
:106EB0003CE40320781A0C002DE9F8439DF820806B
:106EC0000446894616461F46B8F1000F02D04068B6
:106ED00006F082F9217A606806F05BF96068036861
:106EE00049469B6898476068002106F071F905469D
:106EF00000BB0123217A60683A4606F038F98742E0
:106F0000034609D13744BE421CD0606803685B6900
:106F1000984706F8010BF6E70B490C484A46FFF77D
:106F20009BFFB8F1000F02D0606806F05EF92846BA
:106F3000BDE8F8830346064904484A46FFF78CFF3C
:106F40000025EEE70125ECE728180C0038E40320C3
:106F50004D180C0007B500930123FFF7ADFF03B0F8
:106F60005DF804FB73B54389FF2B044610D0194E1E
:106F7000194D04F0A7FFB0F57A7F09D2608908F0B7
:106F80008FFC012804D031462846FDF7D8F8F0E7F9
:106F900001230DF1070228212046FFF7DBFF30B95E
:106FA0000D480E49FDF7CBF8002002B070BD9DF8EA
:106FB0000730182BF4D101230DF1070229212046B7
:106FC000FFF7C8FF0028EBD09DF80730052BE7D16D
:106FD000EBE700BF71180C0038E4032086180C00A2
:106FE00007B5134600228DF807200DF10702FFF7C1
:106FF000B1FF9DF8070003B05DF804FB2DE9F041F7
:107000009DF8188004460F4615461E46B8F1000F3D
:1070100002D0406806F0E0F8217A606806F0B9F81E
:107020006068036839469B6898472E44B54260689B
:1070300005D0036815F8011B9B689847F6E7012106
:1070400006F0C6F8034670B1084909483A46FFF70A
:1070500003FF0025B8F1000F02D0606806F0C5F804
:107060002846BDE8F0810125F4E700BF93180C0025
:1070700038E403201FB58DF80F2000930DF10F02A7
:107080000123FFF7BBFF05B05DF804FBF8B50A4626
:107090000C4605461A491B48FDF751F8002CB8BFAD
:1070A000EC687CB9012322461B212846FFF7E2FF4A
:1070B0001549024606461348FFF7DCFEEC606C619A
:1070C0003046F8BD032C19DDA7101F2FA8BF1F27BE
:1070D000BA0062F07C020123D2B21B212846FFF7DE
:1070E000C9FF3A460346094906460648FFF7C2FE6D
:1070F0004FF4FA635F43EC606F61E1E70127E7E774
:10710000B8180C0038E40320C2180C00DE180C007C
:10711000064B1A684AB1A0F500630B4305D1D3684A
:107120001BB100211046FFF7B1BF70473CE40320BC
:107130002DE9FF419DF82880054616461F46B8F107
:10714000000F04D04068019106F046F801990191C2
:1071500000230DF10F022846FFF7FCFE044660B144
:107160009DF80F3003EA06023A43934205D0019995
:1071700000232846FFF77EFF0446B8F1000F02D037
:10718000686806F032F8204604B0BDE8F08113B517
:1071900014460DF10702FFF7DDFE28B19DF8073018
:1071A0001C420CBF0120002002B010BD13B51446D4
:1071B0000DF10702FFF7CEFE28B19DF807301C4203
:1071C00014BF0120002002B010BD07B5D2430093C8
:1071D000D2B20023FFF7ACFF03B05DF804FB000060
:1071E00037B501230DF107020F210446FFF7B2FE68
:1071F000054638B91E491F48AD22FFF72DFE284627
:1072000003B030BD9DF8073013F0200F4FF001039D
:107210000BD02022E3610F212046FFF7D6FF164A4C
:1072200016491448FCF78BFFE9E70822172120468E
:10723000FFF7BCFF18B10223114AE361F0E79DF8A4
:1072400007301A0709D50323E361082201230F2120
:107250002046FFF7BAFF0B4AE2E75B07CFD50422CF
:10726000E26101230F212046FFF7AFFF064AD7E76F
:1072700031190C0038E4032002190C0050190C00DD
:107280000B190C001B190C002B190C0007B50093EF
:107290001346FF22FFF74CFF03B05DF804FB00002C
:1072A000F8B50F461646012300220F210546FFF7C9
:1072B000E1FE044638B94FF425721F491F48FFF715
:1072C000CBFD2046F8BD0123232218212846FFF7D5
:1072D000D1FE044610B940F29B22EEE7FF2FA8BF73
:1072E000FF27012FB8BF01270123FAB21921284631
:1072F000FFF7C0FE044610B94FF42A72DDE7012300
:10730000082212212846FFF7C1FF044610B940F2B7
:10731000AF22D2E7002E14BF03220222012342F043
:10732000800218212846FFF7A5FE04460028C8D190
:1073300040F2B922C1E700BF61190C0038E4032014
:107340002DE9F7430A4605460F464F484F49FCF7DB
:10735000F6FE00212846FFF799FE044648B940F2A0
:10736000F7124B494848FFF777FD204603B0BDE8C8
:10737000F08301231A4630212846FFF787FF044691
:1073800010B940F20522ECE71022012311462846ED
:10739000FFF71BFF044610B94FF40372E1E7012326
:1073A000262213212846FFF765FE044610B940F255
:1073B0001322D6E7012600963346FC2211212846E7
:1073C000FFF7B6FE044610B940F21B22C9E70022BF
:1073D00039462846FFF764FF044610B940F22222DE
:1073E000BFE700960223772210212846FFF7A0FE70
:1073F000044610B940F22B22B3E7334604221C2185
:107400002846FFF743FF044610B940F23222A8E7AE
:1074100000961823E32211212846FFF789FE04462F
:1074200010B940F239229CE73346C0221721284682
:10743000FFF720FE044610B94FF4107291E704F0F4
:1074400041FDDFF85490DFF840804FF47A71064632
:107450004F4304F037FD801BB8420ED201221721A2
:107460002846FFF7BDFD494602464046FCF767FE49
:107470004FF47A7005F042F9EBE706490248FFF74E
:10748000EBFC07F0F0FD70E738E403208C190C00EA
:1074900081190C00B2190C009D190C002DE9F3475D
:1074A0009DF828A005460C4691461F46BAF1000FEC
:1074B00002D0406805F090FE07B3202F3E4628BF5B
:1074C00020267F2C26D83319802B01D9C4F18006C1
:1074D000012304223F212846FFF777FE002364F0B2
:1074E0007F0100934A463346C9B22846FFF7E4FCC1
:1074F000804628B13444BF1BB144DDE74FF001089A
:10750000BAF1000F02D0686805F06FFE404602B085
:10751000BDE8F087012304223F212846FFF7B6FE8D
:10752000DCE72DE9F3479DF828A005460C46914677
:107530001F46BAF1000F02D0406805F04DFE07B3B8
:107540001F2F3E4628BF1F267F2C26D83319802B9D
:1075500001D9C4F18006012304223F212846FFF708
:1075600034FE002364F07F0100934A463346C9B2DB
:107570002846FFF743FD804628B13444BF1BB14481
:10758000DDE74FF00108BAF1000F02D0686805F09E
:107590002CFE404602B0BDE8F087012304223F21C3
:1075A0002846FFF773FEDCE730B585B00D68D1E9FA
:1075B000043203954D6802958D680195C968009164
:1075C0000133044902F26C72044607F0E5FC2046E0
:1075D00005B030BDC4190C0003090A2200F00F00E9
:1075E00002FB0300704738B5044600781546FFF7E4
:1075F000F3FF08606078FFF7EFFF4860A078FFF7BF
:10760000EBFF8860E078FFF7E7FFC8602079FFF7BD
:10761000E3FF013808612DB9651D2878FFF7DCFF0D
:10762000886138BD6079FFF7D7FF6430A51D4861D8
:10763000F3E7000070B5012388B00D461A4610210B
:107640000446FFF7A4FDF0B108230126204600966A
:107650000DEB03020021FFF72FFC044698B13246E0
:1076600029460DF10900FFF7BEFF04A8FFF79CFFB4
:107670000848049A0849FCF762FD04A807F034FBA7
:10768000204608B070BD24220021284608F02CFFB7
:107690000024F5E738E40320E2190C0030B58BB084
:1076A0000D4601A9FFF7C6FF044620B101A805F069
:1076B0001DF8C5E9000120460BB030BD0A2390FB40
:1076C000F3F103FB110091FBF3F203FB121240EA0A
:1076D0000210C0B2704770B5054600680C461646E9
:1076E000FFF7ECFF20706868FFF7E8FF6070A8689C
:1076F000FFF7E4FFA070E868FFF7E0FFE07028699B
:107700000130FFF7DBFF20712EB9661DA869FFF776
:10771000D5FF307070BD6A69642392FBF3F003FB00
:107720001020FFF7CBFFA61D6071EFE7F0B587B023
:10773000054602A816460C46FFF736FF1E48029A79
:107740001E49FCF7FCFC02A807F0CEFA16B16868E7
:1077500005F042FD204601220DF1090100278DF8B8
:107760000870FFF7B8FF01231A4610212846FFF7DB
:107770008DFD0446E8B1082300970DEB030239465E
:107780002846FFF73BFC044660B101231A4610214E
:107790002846FFF71AFD16B1686805F026FD204659
:1077A00007B0F0BD4FF48D7205490348FFF754FB55
:1077B000F1E74FF48F72F7E738E40320F0190C007B
:1077C000FE190C0013B504466846CDE9002308F005
:1077D0003DFE9DF8102001462046FFF7A7FF02B0AE
:1077E00010BD0000F0B5057E89B0044675BB07F0FA
:1077F00011FE58B30026002704A92846CDE90467E6
:1078000004F07CFE10B30125257607F020FEC31797
:10781000CDE90203024600952046FFF7D3FF02A9F7
:107820002046CDE90267FFF739FF134B13491B6868
:10783000009304A8DDE9022307F0AAFD1048049A8A
:107840001049FCF77CFC04A807F04EFA63698BB181
:1078500004F038FB2369C01A636998420AD304F024
:1078600031FB4FF0FF312061204609B0BDE8F04008
:10787000FFF70CBC09B0F0BD70D70320ACE60320C5
:1078800038E40320191A0C0030B504468BB011B14E
:10789000406805F04FFC2046FFF764FB06AD00286A
:1078A00037D02046FFF79CFC01231A4610212046C2
:1078B000FFF76DFCD8B107F0ADFDC0B902A92046B5
:1078C000FFF7ECFEDDE9020107F0A8FC134B1449B9
:1078D0001B6800932846DDE9022307F059FD114893
:1078E000069A1149FCF72BFC284607F0FDF90F4BCF
:1078F00006930F4B09930F4B08934FF4006200233C
:1079000002A80095FDF7CAFC2846FDF752FB0BB014
:1079100030BD09490348FFF79FFAE8E770D7032015
:10792000ACE6032038E403202F1A0C0011710B0081
:107930008F4F0B007B4F0B004C1A0C00014B024A7F
:107940001A60704738E40320641A0C0010B5012354
:1079500003748368044643B1C06898470123637485
:107960000020BDE8104004F07DBA00680028F5D082
:1079700083680BB908F086F8C368EEE7012A02D1E4
:10798000016000207047022A04BF0B680360F8E71B
:1079900038B50568044635B12846FDF70AFB1021C5
:1079A0002846FCF77CFB20461421BDE83840FCF754
:1079B00076BB10B503680446ABB1586804F002FA10
:1079C00088B923685A7C12B9586804F003FA23680E
:1079D000586804F007FA20680023236018B1BDE856
:1079E0001040FFF7D5BF10BD054A0260002242607B
:1079F000027380F84F24C0F85824C0F86024704700
:107A0000A41A0C0010B5074C236843B940F2644037
:107A1000FCF741FB034608B1FFF7E6FF236020684F
:107A200010BD00BF40E4032038B50446406890B163
:107A300002232373FFF7BDFF656855B12846FFF7A2
:107A4000B8FF286808B1FFF7A3FF04212846FCF718
:107A500026FB0023636038BD10B5054B0360044668
:107A6000FFF7E2FF04F58A60FDF7A3FA204610BD98
:107A7000A41A0C0010B50446FFF7EEFF204640F2B2
:107A80006441FCF70CFB204610BDF0B5044689B0FC
:107A900000F10D0600F14E07237B1BB9012004F015
:107AA0002DFEF9E7237B022B64D0A06804F0AAF92D
:107AB000A06804F0AFF994F84F348DF800303A46DE
:107AC0003C23314606A805F0E7F8069D6B7833B9EC
:107AD000237B022B03D0012004F010FEF5E7D4F83D
:107AE00058341BB3002004F06FFC20B16B7813B93D
:107AF00004F0CCFCFAE72B78D4F860240592591EE8
:107B00004B424B418DF80B30D4F85834CDE9036724
:107B10000BB907F0B7FF05AB0093D4F85C5404AB86
:107B200003AA0DF10B0104F58A60A847A06804F0D0
:107B300069F9237B022B17D0D4F858340025C4F8F8
:107B4000605443B104F58A61032208469847C4F89B
:107B50005854C4F85C540023A068237304F05AF905
:107B600007A8FEF7CFFD97E7A06804F053F907A830
:107B7000FEF7C8FD09B0F0BD0068FFF786BF13B57A
:107B80000B460246D0E900016C4684E8030093E806
:107B9000030082E8030094E8030083E8030002B0D6
:107BA00010BD00002DE9F7430646884614202649FB
:107BB0001746994607F05CFF044630B10020C4E93F
:107BC0000000C4E90200207460743460002C31D0DD
:107BD0001D49102007F04CFF054668B10023836063
:107BE00001463846FFF7CBFFBB68AA68BA60AB60B6
:107BF000EA68FB68EB60FA602768256037B13846B1
:107C0000FDF7D7F910213846FCF749FA30680368C8
:107C100083B10A9B4A46CDE9000341460B4B043031
:107C200004F0C8F830B933681B7C4BB9012004F06C
:107C300039F9F8E730680023336008B1FFF7A8FE90
:107C4000304603B0BDE8F08320250C004D790B00D1
:107C500030B5436887B00446C3B9083004F0CAF8A9
:107C60000B4B059304200B4B02940493FCF713FA7F
:107C7000054638B14FF4406300930749022302AA36
:107C8000FFF790FF656002A8FDF793F907B030BDDC
:107C9000797B0B007D790B00881A0C002DE9F043ED
:107CA000044685B080680C9F98460D46164604F041
:107CB000A9F863681BB1237B03F0FF0933B1A06807
:107CC00004F0A8F8002005B0BDE8F083A06804F037
:107CD000A1F8002D3DD04022294604F10D0008F006
:107CE000DAFC84F84D908EB340F20142314604F143
:107CF0004E0008F0D0FC84F84E9400230293BB6839
:107D000004F58A653BB10222394668469847FB680C
:107D10000393BB68029329466846FFF730FF029B36
:107D2000D4F85824C4F85834039B02926846D4F817
:107D30005C24C4F85C340392FDF73BF90D9BC4F856
:107D40006034012084F84F842073BCE784F84E60CF
:107D5000D3E72846B7E7000010B5054B0360037C66
:107D600004461BB9406808B104F050FC204610BD21
:107D7000BC1A0C0010B50446FFF7EEFF2046142194
:107D8000FCF78DF9204610BD10B5034B0360044687
:107D9000FFF7E2FF204610BDDC1A0C0010B50446C8
:107DA000FFF7F2FF20463021FCF779F9204610BD9D
:107DB00010B5034B03600446FFF7E6FF204610BDF5
:107DC000EC1A0C0010B50446FFF7F2FF20464021E4
:107DD000FCF765F9204610BD10B5074B0360037C26
:107DE00004461BB9406908B104F010FC2046FFF7B7
:107DF000B3FF204610BD00BFCC1A0C0010B50446DE
:107E0000FFF7EAFF20462C21FCF749F9204610BD78
:107E1000034A02600022C0E90122C2600274704776
:107E2000BC1A0C0038B5037C04460D460BB100208B
:107E300038BD406838B104F0F1FB0028F7D0C4E940
:107E400001050120F4E7084604F0D8FBF5E770B51A
:107E5000C3680E461546D1184268044672B182685E
:107E60008A420BD36068E3682A463146184408F01A
:107E700013FBE2682A44E260012070BD2046FFF750
:107E8000D1FF0028EED1F8E710B5C0E901120022B9
:107E9000C260012202744361024A029B0260C36114
:107EA00010BD00BFCC1A0C00D0E90503834204D9F1
:107EB0000278022A02D01030F8E700207047D0E99B
:107EC0000503984204D20378012B18BF00207047A5
:107ED0000020704770B513689D68136803F11004A3
:107EE00014608669B4420AD29B698C68A34201DAA5
:107EF000AB42F2DDA342CCBF0020012000E0002015
:107F000070BD73B501F110030446164601930025B8
:107F10000198A36983420BD982688B689A4207DA79
:107F2000B54206D001AA20460135FFF7D3FFEFE79F
:107F3000002002B070BD2DE9F341089D984601F183
:107F4000100304461746019300260198A369834253
:107F50001AD982688B689A4216DAAE420BD1386021
:107F600001AA2046FFF7B6FF28B1019BC8F80030F0
:107F700002B0BDE8F08101AA2046FFF7ABFF204622
:107F80000136FFF7A7FFE0E70020F1E7F0B5013B7E
:107F90000024D1E90176F61BA64208DDA34206DDE6
:107FA00045683D442D5D02F8015B0134F1E7002393
:107FB0001370F0BD1FB5144610236A46FFF7E6FFA5
:107FC00004492246684604F039FB431E5842584192
:107FD00004B010BDB60E0C0010B5044600680B4688
:107FE00028B106F064FFE3680133E36010BD606808
:107FF0000028F8D0D4E90221013A8A4288BF4354CC
:10800000F1E703467F2B37B50846D9B204D803B051
:10801000BDE83040FFF7E0BF01F03F01B3F5006F6E
:10802000C3F3871541F0800407D245F0C0010190E9
:10803000FFF7D2FF01982146E9E71B0B43F0E0016F
:108040000190FFF7C9FF05F03F01019841F0800161
:10805000EEE700002DE9FF4700244E68DFF8CCA0D2
:1080600080460F461546A146B868B0425ADDD8F89A
:108070000430995D9A19002C4BD0752905D86D29CB
:1080800007D862291ED066291ED02846FFF7A4FF14
:108090003DE0A1F16E04072CF7D80FF2080C5CF854
:1080A00024F000BFCD800B008B800B008B800B0079
:1080B0008B800B00D1800B008B800B00D5800B00D8
:1080C000D9800B000821E0E70C21DEE70A21DCE77C
:1080D0000D21DAE70921D8E7311D884217DD02A911
:1080E00004333344084612F8014F01F8014B9A4219
:1080F000F9D101AA51468DF80C9004F09FFA01289D
:1081000005D1BDF804002946FFF77BFF05360024A2
:1081100004E05C2904D02846FFF75EFF0136A3E7A0
:108120000124FBE7012004B0BDE8F0873D230C00EB
:108130007FB50C4606460C491046154606F07DFEF6
:10814000D4E90131C91A0131284606F0EBFD0023BC
:108150006A4621463046CDE9013300950393FFF787
:1081600079FF04B070BD00BF99230C002DE9F043E6
:1081700089B00546884604A812491646994606F075
:10818000FEFD002700974B4603AA41462846FFF70D
:10819000D2FE044670B1039904AA2846FFF7C8FF2F
:1081A000044608B90137EDE7314604A806F0ADFEF4
:1081B0000028F7D004A806F097FD204609B0BDE8D6
:1081C000F08300BF99230C0000230122C3604361A8
:1081D000028380F82A30704708B50346FFF718FE7F
:1081E000044A1A604FF0FF321846DA62FFF7ECFFDC
:1081F00008BD00BFDC1A0C00D0E9022310B5934281
:108200003FBF42685C1CC460D15424BF012380F886
:108210002A3010BD10B54369044643B100EB430357
:10822000597E09B1FFF7E8FF6369013B6361D4E957
:108230000210636888424FF000022ABF5B181A548C
:1082400003F8012C10BD70B50446D0E902506668F1
:108250002D1A134630440A46294604F0FFF9854298
:108260002DBFE368A368E360C01836BF0123E06058
:1082700084F82A3070BD0EB403B503AA52F8041B6B
:108280000192FFF7E0FF02B05DF804EB03B0704726
:108290002DE9F84304460E46174612B12221FFF796
:1082A000ABFFDFF80C810025715D06EB05090029A5
:1082B00074D0D4E902329A4270D20B0634D501F060
:1082C000F003E02B05F101091DD116F8092002F099
:1082D000C003802B39D105F1020916F8093003F0EB
:1082E000C000802831D103F03F03920143EA0133FB
:1082F00002F47C621A4392B241462046FFF7BBFF6C
:108300004D460135D0E701F0E003C02B1DD116F832
:10831000093003F0C002802A17D1890101F4F86204
:1083200003F03F031A43E7E70D290AD807290CD9C0
:10833000A1F10803052B08D8DFE803F0092317078C
:10834000111D222923D05C2921D0204604E05C2184
:108350002046FFF751FF6221FFF74EFFD1E75C2176
:108360002046FFF749FF6621F6E75C212046FFF72C
:1083700043FF6E21F0E75C212046FFF73DFF7221AD
:10838000EAE75C212046FFF737FF7421E4E75C2130
:108390002046FFF731FF99F80010DDE72FB12046A6
:1083A0002221BDE8F843FFF727BFBDE8F88300BFEF
:1083B000AC1A0C00426900EB42031A7E12B1002293
:1083C0001A7670472C21FFF717BF73B543690191E7
:1083D0000133082B16460FD8FFF7ECFF43690199CC
:1083E00000EB43045A1C01254261A576E676FFF7AF
:1083F00003FF284602B070BD0020FBE710B504461D
:10840000FFF7EAFE054B23604FF0FF320023C4E97B
:108410000D232163E363204610BD00BFEC1A0C005E
:1084200070B5436B013304460E4629D18D68016B4C
:10843000013D4563CB685A1B826388682844C31A90
:10844000002AE36304DD48684119184408F032F853
:10845000226B616B5268E36B0A445B1A0125C4E925
:10846000012320462574FFF7AFFE636903F10C0278
:10847000F368B3FA83F35B0904F81230284670BD41
:108480000020FCE72DE9F04F44684FF0010C4FF05D
:10849000FF36D0F800E0964580F0B98111F80E80E3
:1084A000B8F1000F00F0B381B8F13A0F00F09880F6
:1084B00033D8B8F1220F00F0A68010D8A8F109082F
:1084C0005FFA88F8B8F1170F0DD89F4D0CFA08F82D
:1084D00018EA050F07D0056801350560D9E7B8F13E
:1084E0002C0F00F03381D0F8008042450ED911F8EE
:1084F00008505DB13A2D00F269811F2D00F25181C3
:108500000A2D00F26081082D40F25681002B40F0C8
:10851000628108F1FF350560A5E0B8F17B0F37D027
:108520002ED8B8F15B0F33D0B8F15D0FDBD1002B43
:10853000D1D04FF002094568013D03EB0518002D2D
:1085400055DBD8F8047001374DD0D8F808A0BAF13F
:10855000FF3F48D198F800B0CB454BD10EF1010E4A
:10856000C0F808A0C8F808E003EB051EDEF80470A8
:10857000013742D0DEF8087001373ED18560AAE7A6
:10858000B8F17D0FAFD1002BA5D04FF00109D2E794
:108590000134002B9FD04568099FAF424AD905F1AD
:1085A000010EC0F804E003EB051ECEE901664FEAB8
:1085B000051A0025CEF80C5085686F1C1FBF03EB11
:1085C0000519D9F80C500135C9F80C50B8F17B0FDA
:1085D0000CBF0125022503F80A500568CEF80450A7
:1085E0004568013DCAE7013DA8F11008A7E701353C
:1085F0007FF471AF6FF001041EE0013D6F1CAEF11E
:10860000100EB3D167E70EF10109C0F80090D0F861
:108610000080424540F2938011F80850002D00F090
:108620008E80222D30D1F3B14568099FAF4206D824
:10863000C0F800E04FF0FF342046BDE8F08F05F1B0
:10864000010E4FEA051803EB0515C0F804E0C5E973
:1086500001660027EF60D0F800E04FF0030A03F84E
:1086600008A0C5E9019E85686F1C04F101043FF470
:1086700032AF002B3FF42FAF03EB051EDEF80C509A
:108680000135CEF80C5026E75C2D11D108F101051B
:10869000AA420DD905604D5D752D2BD86D2D0BD8D7
:1086A000662D27D85B2D1DD8222D01D02F2D21D14D
:1086B000056801350560AAE76E3D072D1AD801A7A8
:1086C00057F825F0B1860B00F5860B00F5860B00F8
:1086D000F5860B00B1860B00F5860B00B1860B000A
:1086E000FB860B005C3DEDB20CFA05F540F241470C
:1086F0003D42DDD1C0F800E07CE708F102050560ED
:108700004FF0040AD0F80080424503D80568013DC7
:108710000560CDE711F80850002DF7D0A5F1300B1A
:10872000BBF1090F04D925F02005413D052DE1D805
:1087300008F10105BAF1010A0560E3D1E6E7C0F8E6
:1087400000E06FF0020477E713008000002B3FF495
:10875000C2AE85686F1C3FF4BEAE2D015D5D013D6C
:10876000012D7FF6B8AE456805F1FF3803EB051E15
:10877000B8F1000FFFF6AFAE1EF8105C013D012D01
:108780000AD85EF80C5C013506D05EF8085C01354D
:1087900002D1C0F808809EE608F1FF38AEF1100E55
:1087A000E6E7A5F12009244F5FFA89F90CFA09F9E7
:1087B00019EA070F7FF4AAAE203D5E2D9AD808F182
:1087C000010505608FE60D2DF6D19FE605F0DF0966
:1087D000B9F15D0FF8E74568099FAF427FF628AF12
:1087E00005F101084FEA051903EB0515C0F80480EF
:1087F000C5E901660027EF60D0F800804FF0040A59
:1088000003F809A0C5E901E80568013D83E6002BEE
:108810003FF412AF4268511E03EB02130029FFF62A
:108820000BAF53F80C2C013203D053F8082C013253
:1088300087D00139103BF1E701100004F7B5C26899
:10884000044612B9002003B0F0BD436900F12006D0
:10885000ABB10021C0E908114FF0FF318162C1695D
:10886000009141683046FFF70DFE431C28D1257C5E
:10887000002DE7D1606903F0C9FE6561E56100255F
:108880004FF0FF37C4E90855E2686168A7620095B8
:108890002B463046FFF7F6FD0028D3DBE06117D00A
:1088A000000103F0ABFEE269606103460092C4E997
:1088B0000855E2686168A7623046FFF7E3FD01E012
:1088C0000028BFDB636903EB0010A0610120BAE759
:1088D0006369A361FAE738B5436B5A1C044618D0A4
:1088E000826B002A08DD016BE5684868E16B2B4468
:1088F0000144184407F0DEFDD4E90C23A16B0B44BE
:10890000E1680B44D360206BFFF798FF4FF0FF3313
:10891000636338BD7047704710B508210446FBF704
:10892000BEFB204610BD10B510210446FBF7B7FB77
:10893000204610BD10B5054B044640F81C3B06F020
:10894000D3F9201D06F0D0F9204610BD601B0C00A5
:1089500010B50446FFF7EEFF20465821FBF79FFBBA
:10896000204610BD10B5044B044640F8043BFFF709
:10897000E1FF204610BD00BF301B0C0010B50446BF
:10898000FFF7F0FF20466021FBF789FB204610BD72
:1089900020F00203012B03D0431F58425841704777
:1089A0001846704791F90430037191F9053043710D
:1089B00091F90630837191F90730C371704738B56A
:1089C00004460D460430043106F015FA05F1140191
:1089D00004F11400FFF7E6FF05F11C0104F11C008F
:1089E00006F009FA05F12C0104F12C00FFF7DAFF7B
:1089F00095F9383084F8383095F9393084F83930C1
:108A000095F93A3084F83A3095F93B3084F83B30A8
:108A100005F13C0104F13C00FFF7C4FF95F9483033
:108A200084F8483095F9493084F8493095F94A304E
:108A300084F84A3095F94B3084F84B3005F14C01FD
:108A400004F14C00FFF7AEFF95F8543084F8543031
:108A500038BD0B6803604B68436013B15A6801323C
:108A60005A607047024A02604A684260704700BF1D
:108A7000401B0C004A69036862F3160303600B692C
:108A80005A1C438862F3CA134380CA68C3F307239E
:108A900062F3C703C3707047024A0260002242605B
:108AA000704700BF401B0C0030B5002387B08380A7
:108AB00083710D4605AB00931349044604AB03AA2A
:108AC000284603F0BBFD032807D1039B2371049BB9
:108AD0006371059BA37107B030BD0C4904AB03AAB9
:108AE000284603F0ABFD022804D1039B2371049BAD
:108AF0006371F0E7064903AA284603F09FFD0128A9
:108B000004BF039B2371E6E7F41A0C00F71A0C006C
:108B1000B60E0C0090F9042090F9053090F906107B
:108B2000002AB8BF0848C3EB03134FEA8303BDBF55
:108B300000FB0230401840424FF46160A4BF00FBCC
:108B400002304018704700BFF0F1FFFF08B590F801
:108B500054304BB190F93B3043B92C30FFF7DAFF7A
:108B6000B0FA80F0400908BD0120FCE70020FAE7D8
:108B700090F9073043B990F904308B6090F90530D3
:108B80004B6090F906300B60704790F9073030B5B4
:108B9000B3B990F904508C682C44D1E900328C6050
:108BA00090F90540002DB5BF121B12194A604A60AA
:108BB000B5BF90F9062090F906209B1A9B180B6010
:108BC00030BD000008B5054A02600022034642603D
:108BD0000830FFF761FF184608BD00BF501B0C00AE
:108BE00000234360838183737047000030B50446DF
:108BF00087B00D4611B10B784D2B05D0204607B03C
:108C0000BDE83040FFF7ECBF05AB0093114904AB62
:108C100003AA284603F012FD032816D1039B2371F3
:108C2000049B6371059BA3712F21284607F0D0FC9C
:108C300040B1411C04F10800FFF736FF0123E37146
:108C400007B030BDA081A073F8E72046FFF7C8FF4A
:108C5000F6E700BF0F1B0C00104B114910B504467E
:108C600040F8043B06F08BF804F11400FFF714FF02
:108C70000B4904F11C0006F082F804F12C00FFF708
:108C80000BFF04F13400FFF79DFF04F14400FFF7F0
:108C900099FF002384F85430204610BD601B0C005F
:108CA00099230C002DE9F74F0446084607F0BAFC5B
:108CB00000250646019004F134083F49019801AAB5
:108CC00007F038FD0146002862D0012D05F10103AF
:108CD00053D0022D56D0002D46D1024692F8009076
:108CE000B9F1400F1546174602F10102F6D80022ED
:108CF0002A7004F11C0006F0A0F8012285F800900B
:108D000084F854202A786AB397F800A00AF1FF3259
:108D10003F2AB946BB4607F10107F5D9002304F104
:108D20002C0789F8003029463846FFF7BDFE89F840
:108D300000A0BAF1000F15D05D461BF801ABBAF1E7
:108D4000400FF9D800222A704946201D06F075F818
:108D500085F800A004F11400BAF1000F06D02946EE
:108D6000FFF7A2FE0125A8E71D46A6E73946FFF753
:108D700019FE237E013B2376F4E74046FFF736FFDA
:108D800002259AE704F14400FFF730FF032594E73A
:108D900094F93B3043B194F94B202AB904F13400E3
:108DA000FFF71EFF84F85420304603F02FFC94F8A0
:108DB000540003B0BDE8F08F191B0C0038B5134BFD
:108DC00004460D4640F8043B114905F0D8FF04F174
:108DD0001400FFF761FE0E4904F11C0005F0CFFFFF
:108DE00004F12C00FFF758FE04F13400FFF7EAFE0F
:108DF00004F14400FFF7E6FE002384F854302946CE
:108E00002046FFF74FFF204638BD00BF601B0C0017
:108E100099230C0008B50346FFF73EFE8A681A71D5
:108E20004A685A710A689A71184608BD13B5074B0B
:108E300003600023436004466846FFF7EBFF2046CB
:108E40006946FFF7AFFD02B010BD00BF401B0C002C
:108E500007B50023014601A80193FFF70BFE019817
:108E600003B05DF804FB10B504460846FFF7F0FFB9
:108E7000206010BD10B5044688B00846683001A9CE
:108E800007F0B8FA01A807F0EAFB08AB1844002382
:108E900000F81D3C01A9204605F071FF204608B0EE
:108EA00010BD000038B50446081D0D46FFF74EFE04
:108EB00028B10949204605F062FF204638BD2868E0
:108EC000FFF766FD28B105F10801204605F0A2FF75
:108ED000F3E705F12001F8E71B1B0C002DE9F04733
:108EE0008046A8B00C4615462AB1474B1046196873
:108EF00007F085FB38B921464046FFF7BBFF4046E7
:108F000028B0BDE8F08729463F2218A807F0C3FB28
:108F1000002318A88DF89F3007F0A1FB21460546D5
:108F200003A8FFF7BFFF201DFFF710FE48B3374926
:108F300007A807F06EFB18AE002705F1FF3ABA4507
:108F40004CD93378252B07F1010917D173787A2B87
:108F500036D107A807F083FB18AB05463818AAEBF3
:108F60000702B11C184407F097FA2A4607A93046B1
:108F700007F092FA18A807F072FB054601364F4633
:108F8000DBE72068FFF704FDB8B104F11800FFF734
:108F9000C1FD3C2290FBF2F3002BB8BF5B42B3FB58
:108FA000F2F102FB11330093194A1A4B90FBF3F3D1
:108FB000102107A803F04AFBBDE704F13000E6E703
:108FC0005A2BDBD1059D18AB7819AAEB0702B11C0F
:108FD000184407F061FA03992A46C8E700212E22B7
:108FE0000CA80B9107F080FA04F1680318AA32214B
:108FF0000BA803F063FB0BA9404605F0C0FE03A8D5
:1090000005F072FE7BE700BF70D703201B1B0C002E
:109010001D1B0C00F0F1FFFF38B5094D2B6863B93B
:109020006020FBF738F8044630B1064B40F8043BAB
:10903000FFF712FE6423E3652C60286838BD00BF8B
:1090400044E40320301B0C0003F050BB01390B2912
:1090500015D8DFE801F016081606160616160616CD
:1090600006161E20704783070DD1642390FBF3F290
:1090700003FB120000280CBF1C201D20704700209D
:1090800070471F2070471C207047F8B50123CB6044
:1090900090F90430013B0B610023C1E9003306461F
:1090A0000C4617468B602046FFF7CEFF96F9063038
:1090B000A2699A4203D0E3680133E360F3E796F9CB
:1090C0000550012D13D0E3686069013DC5EBC5056E
:1090D0001D44E56096F9041000F26C70FFF7B6FFCE
:1090E0008542C4BF073DE5602046FFF7ADFF21463E
:1090F00006F10800FFF73CFD3846FFF746FD204625
:10910000BDE8F84003F0F2BAF0B590F8583085B0F9
:1091100004462BB9FFF780FF011D201DFFF74FFC10
:1091200094F93F30002B65D0D4E9182304F1980757
:10913000394602A83E46CDE9022303F0C7FA0FCE16
:1091400004F1C8050FC50FCE0FC533682B6004F1BD
:10915000300102A8FFF786FC02AA394604F1380064
:10916000FFF793FFC4E9240104F1180102A8FFF7F7
:1091700079FC02AA04F1C80104F14800FFF785FF59
:10918000D4E92465864275EB0103C4E93001D4E9D2
:10919000182323DAB24273EB050519DA00232360A2
:1091A0002068FFF7F5FB04F16801D4E91856019136
:1091B00010BB04F13000FFF7ADFC2D1A66EBE07038
:1091C000CDE90250019902A803F080FA05B0F0BD84
:1091D00082428B41B4BF01230223E0E7824273EB5A
:1091E000010101DA0323DAE7B242AB41B4BF042341
:1091F0000523D4E70623D2E704F11800DBE737B5EF
:109200008D6804466846FFF724FC6A4629462046D6
:1092100004F09AF901A8FDF775FA204603B030BDB5
:1092200037B5CD6804466846FFF713FC6A46294601
:10923000204604F065F901A8FDF764FA204603B062
:1092400030BD37B50D6904466846FFF702FC6A4633
:109250002946204604F0FDF801A8FDF753FA204600
:1092600003B030BD704710B510210446FAF717FF60
:10927000204610BD0368C9B29B68184730B5034D3E
:10928000C0E90223C0E9005130BD00BF701B0C00D3
:10929000406803F04FBF10B50446006803F0A5FF17
:1092A000204610BD2DE9F7430446406801900D4665
:1092B00016461F4603F090FFA7B1E168606841F0D1
:1092C000500103F06AFF290A6068FFF7D3FF2946BF
:1092D0006068FFF7CFFF6068002103F079FF48B1B5
:1092E000002400E0012401A8FFF7D5FF204603B0C9
:1092F000BDE8F083202F217B6068B84628BF4FF07F
:1093000020080123424641F0500103F030FF06F0EF
:1093100027FB03681B6998474045E1DB06EB08091A
:1093200006F01EFB03685B69984706F8010B4E4583
:10933000F6D14544A7EB0807BEE72DE9F74F0446F1
:10934000406801900E4690461D4603F045FF4FF0E1
:109350000109B9F1000F2AD04DB3E168606841F00E
:10936000500103F01AFF310A6068FFF783FF60685D
:109370003146FFF77FFFA5F11E0A4746A6EB080B13
:10938000606817F8011B0368013D9B6898475545C5
:109390000BEB0706B84601D0002DF1D16068012122
:1093A00003F016FF0028D7D04FF00009D1E701A83D
:1093B000FFF771FF484603B0BDE8F08F2DE9F04399
:1093C0008BB00E4615468046406801901C4603F05F
:1093D00003FFAE4229D2264425448CB11E2C2746D9
:1093E000D8F8003028BF1E27F61BD3F8089002AA31
:1093F0003B4631464046ED1BC84748B9002400E0D3
:10940000012401A8FFF747FF20460BB0BDE8F08319
:10941000D8F8003002AAD3F80C9029463B464046C3
:10942000C8470028EAD0E41BD7E7E9D9002CE7D0E9
:10943000D8F800301E2C274628BF1E27D3F80890E6
:1094400002AA3B4631464046C8470028D6D0D8F845
:10945000003002AAD3F80C9029463B464046C84744
:109460000028CBD03E443D44E41BDFE703680A7884
:1094700083F8B120012183F8B010704710B442681E
:109480000346541001EB6200D20748BF0A591B681B
:109490005DF8044B48BFD3581847012A02D1016038
:1094A00000207047022A04BFD1E90023C0E900234D
:1094B000F6E7012A02D1016000207047022A04BFAA
:1094C0000B680360F8E7406F02F0BCBCD0F8C8300E
:1094D00001461BB1D0F8CC30C030184770470000AF
:1094E000F8B5124D0846002A18BF15460E461F460D
:1094F00007F0B5F8402816D8284607F0B0F8B0F5C0
:10950000806F10D84330FAF7C8FD044648B13146A1
:1095100000F8017B07F07DF8294604F1420007F0CE
:1095200078F82046F8BD0024FBE700BF99230C0023
:10953000F0B59FB00A4600230E46011D08A802F0B0
:1095400081F80898002107F09FF9054608A805F062
:10955000CBFB002D60D008A9284607F083F90C9BAF
:109560002E492F483246FDF785FC00221146284639
:1095700007F080F9082206A9284607F099F90C9F00
:109580004A2F39DD274B069A9A4235D1264B079A46
:109590009A4231D1A7F1080210460592FAF77DFDF3
:1095A0000446C0B127440146059A284607F080F9D1
:1095B00017F8093CABB9631C1846059307F04FF840
:1095C0003F28059B0DD804F1420200921749144828
:1095D0003246FDF74FFC284607F03CF920461FB005
:1095E000F0BD13490E483246FDF744FC43212046A6
:1095F000FAF755FD0024EEE7BDF81E3002939DF802
:109600001D3001939DF81C3000930A49069B0448C5
:109610003246FDF72FFCEDE72C46DFE7841B0C00FC
:1096200048E403206376B63101084100981B0C0022
:10963000BA1B0C00E81B0C002DE9F8438046284BB0
:1096400048F8043B0446404601F014FF022264231C
:109650000025C4E91B230823E367C4E92055C4E9B6
:109660002255C4E92455C4E92655A5672020FAF7F8
:1096700012FDE66FA067013E760800EB86090746FB
:109680004FF40070FAF707FD00F50073C4E92503F5
:10969000C4F888304FF4FA614FF47A73C4E92D139B
:1096A00047F2305347F82600C4F88400C4F880001D
:1096B000C4F89000C4E92855C4E92A550949C4F8FA
:1096C0008C90C4F89C90C4F8B050C4F8BC30C4F876
:1096D000C850404601F014FF2046BDE8F88300BFA3
:1096E000041E0C002D1C0C0038B5064D2B683BB930
:1096F000D020FAF7D0FC044608B1FFF79DFF2C609C
:10970000286838BD4CE403204269436A9B1A9B10C9
:109710005A1ED0E906315B1A9B1003EBC213026993
:109720008068101A03EBA000704738B50546FFF7B4
:10973000CAFE05F17800FFF7E7FF044650B9281D7F
:1097400002F0D4F9D5F8A03004461BB1D5F8A43006
:1097500003B90134686F02F07DFB204638BD10B5B7
:1097600002698368043A9342044602D00433A3603A
:1097700010BDC0684FF40071FAF791FC63691A1DBF
:1097800062615B68E36003F500722261EFE700004D
:109790002DE9F04F85B00446FFF795FEDFF8A49061
:1097A000DFF8A4A0DFF8A4B0D4F88030D4F890207B
:1097B000934205D1606F05B0BDE8F04F02F04ABB9F
:1097C00004F1780004F104081F68FFF7C8FF404661
:1097D00002F030F90023024641460646684601F091
:1097E00031FF009840F2022107F04EF80546684626
:1097F00005F07AFAC5B1082269462846CDE9009AF3
:1098000007F068F807F1420006F029FF394600F139
:109810004302284607F05EF8284607F01BF8084880
:1098200032465946FDF726FB3146404602F044F9E0
:10983000002FB9D043213846FAF731FCB2E700BF18
:1098400048E403206376B631010841003B1C0C005C
:109850002DE9F0410446FFF736FE04F17800FFF7EA
:1098600053FFE36E984202D92046FFF791FFDFF8DD
:1098700044800F4F261D304602F038F9236F98427E
:1098800004DC606FBDE8F04102F0E4BA012130462B
:1098900002F0DCF805460028EDD0014600223046F3
:1098A00001F00CFF2A4641463846FAF748FCE2E749
:1098B00048E40320581C0C0008B5A0F500630B43D6
:1098C00005D0403850EA01030BD1092A09D10549D6
:1098D0000548FDF7CFFAFFF707FFBDE80840FFF79F
:1098E00057BF08BD6B1C0C0048E4032070B503682B
:1098F000044683B1436A45691E1DAE4206D955F838
:10990000040B4FF40071FAF7CAFBF6E761682068B0
:109910008900FAF7C4FB204670BD00001FB5D1E9ED
:1099200000230021044602910AB9D90705D5CDE9E3
:1099300000230A4B03930A4B029321466846FEF725
:109940001EF9029BA268A360039B02926846E2682C
:10995000E3600392FBF72DFB04B010BD7D940B0078
:109960009B940B0070B586B0044602F09FFD48B989
:10997000434B02A9CDE9023004F1C000FFF7CEFF4E
:1099800006B070BD94F8B2501DB1012384F8B33015
:10999000F6E702F097FAD4F8A830C01AD4F8AC3041
:1099A0009842EDD3261D2946304602F04FF8014675
:1099B000C4F8A400002852D02046FFF7B9FD0546A0
:1099C000C4F8A000002835D002F07CFA02AE0025D1
:1099D0002C4BC4F8A800314604F1C0000293039553
:1099E000FFF79CFFD4E9283003F142020092264998
:1099F000264AA4F8B050A84208BF0A4601332449B9
:109A0000244884F8B350FDF735FAFDF7FBFFD4F88E
:109A1000A020214B0593CDE9006511461F4B029410
:109A2000049311F8013B4232FEF738F93046FBF758
:109A3000C0FAA5E7D4F8A42019491648FAF77FFB25
:109A40000121304602F002F8D4F8A4102A4630462C
:109A500001F034FED4F8A030002BB5D195E7D4F84E
:109A60008030D4F890209A4207D01B68C4F8A03008
:109A700004F17800FFF773FEECE7C4F8A00084E778
:109A8000A59A0B00259E0B009A1C0C008C210C0043
:109A9000BB1C0C0048E403206D940B00B3940B0036
:109AA0009E1C0C0013B5044602F000FD90B102F0BC
:109AB00009FAD4F8B430C4F8AC300D4BC4F8A8009F
:109AC00000936946002304F1C0000193FFF726FFCD
:109AD00002B010BD94F8B2301BB1012384F8B3304A
