:02000002B0004C
:1040000000400B000C270C00000006000D0005020C
:084010000401A50F00000000EF
:04401800A4080C00EC
:1040200009480A49884208B505D0094A824202D0A7
:10403000121A0CF02FF90748074A0021121A0CF047
:1040400051F9014808BD00BF0CD6032018250C000B
:10405000D4D70320D8D70320F4E7032070B5074E48
:10406000074C0BF069FAA41BA4080025AC4200D150
:1040700070BD56F8043B98470135F7E7A8240C00BB
:10408000EC240C0001F010BA08B501F00FFBBDE8FC
:1040900008400BF009BA08F0B1B908F0AFB908F060
:1040A000B5B9000008B5034A03490C2008F03AF8F6
:1040B000FEE700BFC5BC0B00B8080C000078B0FAE2
:1040C00080F040097047012303707047704710B5B6
:1040D00004210446FFF7E3FF204610BD10B5034B53
:1040E0000360044603F080FD204610BD940E0C00D2
:1040F00010B50446FFF7F2FF204640F24C71FFF77F
:10410000CEFF204610BD37B51D4601AB044603F077
:1041100035FF20B101992A46204603F053FE03B033
:1041200030BD37B51D4601AB044603F027FF20B173
:1041300001992A46204603F003FF03B030BD0EB4B8
:1041400000B58CB00DAA4FF0200C52F8041B03925E
:10415000CDE900120023016804AA1E20CDE904C3A2
:1041600007F0F0FF0CB05DF804EB03B070470000FF
:1041700010B5064C236833B90420FFF78CFF08B153
:10418000034B03602060206810BD00BFDCD7032014
:10419000A40E0C0010B5064CC0B00DF1030201A92D
:1041A000204606F099FD0028F7D140B010BD00BFB1
:1041B00064D80320014806F07CBD00BF64D803200A
:1041C00037B52A4C01F044FEB4F8031049BA89B25D
:1041D00002F029F801F03CFEB4F8051049BA89B2A2
:1041E00002F027F801F034FEE17901F09FFF01F0C1
:1041F0002FFE217A01F07CFF01F02AFE0546607A4D
:104200000BF084FC41EC100B284601F05DFE01F040
:104210001FFEA17A01F072FF01F01AFEE17A01F0AF
:1042200073FF01F015FE217B01F074FF01F010FE19
:1042300004460F4805F085FE81B2204601F0EDFFEF
:1042400001F006FE01F009FF019001F001FE01F00E
:10425000EBFE019A074903460748FFF770FF074B3B
:10426000042201201A7003B030BD00BFE8D703203C
:1042700064D80320CD080C0054E60320D8D70320CF
:1042800010B501F0E5FD134B997801F049FF01F0FD
:10429000DFFD04460AF0D9FFC3170246204602F0AC
:1042A00043F801F0D5FD04460B4805F04AFE81B203
:1042B000204601F0B2FF01F0CBFD01F0B5FE074949
:1042C00002460748FFF73BFF064B06221A70012003
:1042D00010BD00BFE8D7032064D80320F4080C0009
:1042E00054E60320D8D7032070B588B001F060FDF4
:1042F00001F034FF324C000A207001F059FD01F04A
:104300002DFF60700AF0A1FF0016A0700AF09DFF5B
:104310000014E0700AF099FF001220710AF095FF76
:10432000607101F045FD01F01EFF000AA07101F06F
:104330003FFD01F018FF234BE0711E88002501218D
:10434000257230460BF091F901F082FD01F06CFE10
:1043500006220346009221461B48092206F00CF86B
:10436000044610BB01F074FD01F05EFE05460AF044
:104370006CFF0246C31704A80AF062FE049B039375
:1043800001F016FD01F0EFFE039B104900902A4654
:104390000F48FFF7D4FE04A80AF0A4FB30462146DC
:1043A0000BF063F9012008B070BD0A490848FFF717
:1043B000C6FE304629460BF058F92846F3E700BF01
:1043C000E8D70320B4140C00E0E0032019090C0026
:1043D00054E603205C090C0030B587B01749044649
:1043E00002A815460AF0C9FB154803F070FC154AEF
:1043F000014601AB124803F0C1FD019910486A1E45
:1044000003F087FC014648B90F4920460AF0B5FB86
:1044100002A80AF067FB204607B030BD08480B4AE7
:1044200002ABFFF77EFE002102A80AF06CFC002818
:10443000EAD102A920460AF0D1FBE9E7FC200C00F2
:1044400094D9032076090C007C090C0081090C002A
:1044500013B50C480C4603F03AFC0B4A014601AB7D
:10446000084803F08BFD01990648621E03F051FCD9
:1044700030B10146054A03486B46FFF744FE012070
:1044800002B010BD94D9032076090C0085090C00F8
:1044900013B510480C4603F01AFC0F4A014601AB55
:1044A0000C4803F06BFD01990A48621E03F031FCD1
:1044B000014630B909480A49FFF741FEFF2002B022
:1044C00010BD0448074A6B46FFF71DFE9DF800002B
:1044D000F5E700BF94D9032076090C0054E60320C9
:1044E0008A090C00840C0C00F0B587B0054601F079
:1044F0005FFC01F033FE404C000A207001F058FCD4
:1045000001F02CFE60700AF0A0FE0016A0700AF008
:104510009CFE0014E0700AF098FE001220710AF070
:1045200094FE607101F044FC01F01DFE000AA071D0
:1045300001F03EFC01F017FEE07101F089FC01F092
:1045400073FD207201F084FC01F06EFD01462846E7
:10455000FFF79EFF6072054601F07AFC01F069FDED
:1045600006460AF072FE0246C31702A80AF068FD6A
:10457000029F01F01DFC01F0F6FD2A461F4933465B
:10458000CDE900701E48FFF7DAFD02A80AF0AAFA8A
:104590001C4B1D88012128460BF067F801F058FCE0
:1045A00001F047FD022203460092214616480A22E6
:1045B00005F0E2FE0446A8B914491148FFF7BFFD13
:1045C00001F046FC064601F043FC01F02DFD0146DA
:1045D000304601F087FD284621460BF046F80120C1
:1045E00007B0F0BD0A490648FFF7A9FD284600219B
:1045F0000BF03BF80020F3E7E8D70320A0090C00FC
:1046000054E60320B4140C00E0E00320EB090C0096
:104610005C090C002DE9F043B3B03E493E4E3F4FDC
:10462000DFF820810AA80AF0A8FA3D493D48FFF7C3
:1046300086FD394803F04BFB3B4A014609AB36483F
:1046400003F09CFC002509992A46304603F061FBE3
:10465000014650B9354933482A46FFF770FD0AA88C
:104660000AF040FA33B0BDE8F0830AAB3A46059051
:104670003046FFF756FD059906AB42463046FFF738
:1046800042FD2B4A059907AB3046FFF73CFD0599E3
:10469000284A08AB3046FFF736FD079A069CDDF83E
:1046A0002890D3170EA80AF0CBFC089B02930E9B10
:1046B000214A8021CDE9009312A8234607F0C6FEC7
:1046C0000EA80AF00FFA174812A9FFF738FD07F0F5
:1046D000F5FDD8B1194B1A491B788DF8003012AA94
:1046E0003C230EA808F0D6F90F9C7CB16368013B0F
:1046F00063605BB9236820469B689847A368013BC9
:10470000A3601BB923682046DB68984701350A2D52
:1047100099D1A4E7FC200C0094D9032081090C0056
:104720000A0A0C0054E6032076090C001D0A0C004E
:10473000320A0C00840C0C00370A0C00D9D7032075
:10474000690A0C0085090C0070B5054686B03F4823
:104750000E4606F04CF8044630B93D493D48FFF797
:10476000EEFC204606B070BD9FED3B0A3B4806F0CC
:1047700037FB3A480022172106F0ACFC7EB301F06B
:1047800017FB002101F096FC02A807F09FFD029A9A
:1047900033493048FFF7D3FC02A80AF0A3F901F02F
:1047A000D5FB014602A801F0F7FB029901910846EA
:1047B0000BF053FE019902462A4803F050FA02A872
:1047C0000AF090F9274803F041FF00283CD0264921
:1047D0002048FFF7B4FC2846FFF71CFFC1E701F0B3
:1047E000E7FA01F003FCD8B101F0E2FA01F0FEFBB8
:1047F0000A2815D801F0DCFA01F0F8FB01461B4845
:1048000005F021FB194805F004FB019002A807F010
:104810005DFDDDE9012316490E48FFF790FCBBE77B
:1048200001F0C6FA0B2101F045FC0B210F4805F001
:104830000AFB0E4805F0EDFA019002A807F046FDCC
:10484000DDE901230B49E7E70B49C1E7E0E003207D
:10485000720A0C0054E6032000C0644464D80320AC
:104860007E0A0C0094D90320360B0C00E4E00320F0
:10487000B80A0C00EF0A0C004A0B0C002DE9F043BB
:104880006B4D6C4C2B6889B001332B6006460AF0E7
:10489000DCFC0016A0700AF0D8FC0014E0700AF0EE
:1048A000D4FC001220710AF0D0FC607101F080FA93
:1048B00001F059FC000AA07101F07AFA01F053FCF2
:1048C000E07101F0C5FA01F046FD207201F0C0FA76
:1048D00001F0AAFB01463046FFF7BAFD00286FD071
:1048E00001F0B6FA01F0A0FB534902465348FFF726
:1048F00026FC0023637201F0ABFA01F0AEFB504FCF
:10490000627A504BA072002A08BF1F4601F0A0FA3D
:1049100001F08AFBA47A80460AF097FC0246C3178E
:1049200004A80AF08DFBDDF8109001F041FA01F0C7
:104930001AFC3A46444900944346CDE901903F4869
:10494000FFF7FDFB04A80AF0CDF83046FFF762FE42
:104950003E4B1E88012130460AF087FE01F078FAAE
:1049600001F062FB042203460092324938480B22D0
:1049700005F002FD374B04461868002C3BD101308E
:1049800018600BF0D3F88046286889460BF0CEF803
:1049900002460B46404649460BF05CFA2E4B00227D
:1049A0000BF02EF902460B4624482C49FFF7C7FBB3
:1049B000304621460AF059FE012009B0BDE8F083D7
:1049C00001F046FA01F030FB254902461B48FFF78B
:1049D000B6FB01F03DFA012101F0A2FB0123637255
:1049E00001F036FA07460AF030FC0246C317384693
:1049F00001F09AFC7FE70BF099F880462868894619
:104A00000BF094F802460B46404649460BF022FA5A
:104A1000114B00220BF0F4F802460B4607481149EF
:104A2000FFF78DFB304600210AF01FFE0020C4E78F
:104A3000E4D70320E8D70320670B0C0054E60320DB
:104A4000580B0C00FC200C00B70B0C00B4140C002D
:104A5000E0E00320E0D7032000005940010C0C00E7
:104A6000860B0C00350C0C0010B5134C134B227840
:104A70001349144803EB0212FFF761FB2378042B60
:104A80000CD02378022B04D1FFF772FBFFF72CFD2B
:104A900050B92378062B09D0002006E0FFF768FB09
:104AA000FFF7ECFE0028ECD0012010BDFFF760FB03
:104AB000BDE81040FFF718BCD8D703200CD6032060
:104AC000640C0C0054E6032037B5044615460191EA
:104AD00003F078FB01990122204603F0E1FA204619
:104AE0003A2103F091FA04492A46204603B0BDE872
:104AF000304003F0C8BA00BFB20C0C0013B5114B24
:104B0000114C01221A703223009304F12C0104F29B
:104B10002C434FF48062204603F0BEF80B4B236019
:104B20000B4A0C4C0C490D4B12780978204606F0C4
:104B300019F90B480022214602B0BDE8104005F0EB
:104B400011BC00BFD9D7032094D90320940E0C00C8
:104B5000BA140C0064D80320B8140C0058E40320E5
:104B6000E0E003202DE9F04796B00E4602A84D493B
:104B7000DFF83481DFF848A109F0FFFF4A4803F06D
:104B8000A6F84A4A014601AB474803F0F7F9002569
:104B900001992A46404603F0BCF86C1C0746A14622
:104BA00000285FD1424943482A46FFF7C8FA3E49E8
:104BB00006A803F02BFB334622463F493D48FFF74A
:104BC000BEFA394803F078F8014606A803F030FB36
:104BD0007D227B2106A803F000FB2246374906A868
:104BE000FFF772FF06A803F0EDFA012206A8344988
:104BF00003F056FA06A83A2103F006FA31460122DC
:104C000006A803F04DFA0AF020FB054606A803F0BB
:104C1000D9FA012206A82B4903F042FA06A83A2144
:104C200003F0F2F92A4606A8274903F02CFA0322DA
:104C3000264906A8FFF748FF06A803F0F3F906A8DF
:104C400003F051FD01F082F9D8F8041001F0B6F933
:104C500022461F491748FFF772FA06A8E4B202F08D
:104C6000AFFF12E0014602AB40465246FFF759FA49
:104C7000314602A80AF047F870B1104A0A486B465C
:104C80003946FFF740FA9DF8004002A809F02AFFD4
:104C9000204616B0BDE8F087AC1C4D460A2D7FF4C7
:104CA00077AF84E7FC200C0094D9032076090C0030
:104CB000890C0C0054E60320B50C0C0085090C008F
:104CC00081090C00320A0C00F4180C00840C0C0052
:104CD000F70C0C00F0B5334B02221A7091B0324B36
:104CE00009AC054603F1180227461868596826469C
:104CF00003C6083393423446F7D11B78337001F072
:104D0000A7F8044601F0A4F801F08EF90146204608
:104D100001F0E8F901F09CF801F086F90A281DD9A4
:104D200001F096F8394604462846FFF71BFF014676
:104D3000204601F0D1F901F08BF801F07AF90390E7
:104D400001F086F801F070F9039B009017491848AC
:104D50003A46FFF7F4F9012011B0F0BD01F078F800
:104D600001F062F901462846FFF792FB114CE0760C
:104D7000FFF7FEF90122014605A8FFF72DFB059A72
:104D8000039201F065F801F04FF9E17E00910346CE
:104D9000039A09490648FFF7D2F905A809F0A2FECF
:104DA000D9E700BFD8D70320EAD703200A0D0C00AB
:104DB00054E60320E8D70320570D0C0070B588B0E7
:104DC00079238DF81A300DF11F0303930DF11E03A3
:104DD000494E02930DF11D03019307AB0093474821
:104DE0000DF11B030DF11A02314605F0F9FA10B965
:104DF000002008B070BD9DF81A300024F4543588A6
:104E000000F0D6FF01F0AAF96DBAADB2A8420ED0FB
:104E1000328852BA92B2059200F0CAFF01F09EF9B0
:104E2000059A374903463748FFF789F9E0E701F06B
:104E30000FF89DF81B10344C01F04EF99DF81E3010
:104E400003F00F03237001F003F801F0EDF8059073
:104E50002E4805F076F89DF81F1002919DF81A1063
:104E6000019103462A492078059A01EB001100912F
:104E700024482849FFF763F92378032B0FD1FFF764
:104E800077F9FFF79DF90028B2D000F091FF01F00B
:104E90006FF990B920491B48FFF751F926E0012B23
:104EA00004D1FFF765F9FFF715FFECE7052BECD10F
:104EB000FFF75EF9FFF7E4F9E5E700F079FF044654
:104EC00000F076FF01F054F90146204601F093F915
:104ED00000F06EFF002101F094F900F069FF01F08D
:104EE00042F90E4902460748FFF729F9FFF740F952
:104EF000FFF7BAFD7DE700BFE8D70320E0E003201D
:104F0000A60D0C0054E60320D8D7032064D8032054
:104F10000CD60320F80D0C006D0E0C00390E0C00A1
:104F2000014B1A60704700BF7CD60320014B012261
:104F30001A707047D4E3032030B585B00446089852
:104F400060B1406850B1856845B1CDE90241CDE915
:104F50000023C46801AB6A4602A9A04705B030BD72
:104F600030B585B0006813680193D1E900458368C6
:104F7000CDE902450BB90AF083FCC36801AA02A976
:104F8000984705B030BD012A02D10160002070476A
:104F9000022A04BF0B680360F8E703681268D1E9CE
:104FA0000001184708B5002007F0A8F928B107F05C
:104FB00085F980F00100C0B208BD0120FCE710B502
:104FC0008368044613B1032201469847204610BD6A
:104FD00010B5044638B1FFF7F2FF20461021BDE8B6
:104FE0001040FFF75CB810BD38B500F0E1FE01F0ED
:104FF000BAF804460AF00CF9F0B1104B1B78DBB993
:105000000AF023F93C256543B0FBF5F404FB1500D9
:105010002C1A092C0ED9AC4228BF2C4600F0C8FE31
:1050200001F0A1F80649024623460648FFF787F833
:10503000204638BD0A24F1E70A24F9E7D3E3032028
:10504000AC0E0C0054E6032070B51C4E1C4C32789C
:105050001C4D022AC4B028D10AF0DAF832782B7835
:1050600058B904EB02120092174A04EB03134FF4F1
:10507000807104A807F0EAF90FE004EB031303932F
:1050800004EB0214FFF7B0FF039B104ACDE9004088
:105090004FF4807104A807F0D9F933780C482B70CD
:1050A00004A9FFF74CF844B070BD2B7804EB021252
:1050B000009204EB0313074AD9E700BFD2E30320B1
:1050C00080D60320D1E30320E00E0C00000F0C007B
:1050D00054E603201D0F0C002DE9F04F2DED028B3F
:1050E000DBB012AC6A4B23606A4B63606A4BA3600F
:1050F0006A4BE3606A4B23616A4B63614FF00008BF
:10510000694BC4F81C80A361054600286CD0FFF7EA
:105110002FF82A4601460EA8FFF75EF90E9B0D9365
:1051200000F096FE01F033F8054600F091FE01F024
:1051300033F8064600F08CFE00F099FF074600F0B9
:1051400087FE00F0A1FEB0EE408AF0EE608A00F02B
:105150007FFE00F078FF54F820200C9200F078FEDB
:1051600000F06CFF044600F073FE00F071FF814612
:1051700000F06EFE01F006F8824600F069FE00F0D5
:105180006CFF83460AF061F80C9A0D9B07944FF46C
:105190008071CDE90AB00692CDE9089A434A00959C
:1051A0008DED048BCDE901671AA807F04FF90EA821
:1051B00009F098FC04F0A0F93D4B3E4A1B781278A8
:1051C0003D49134302688DF800308DF8048014685F
:1051D0003C231AAAA04739481AA9FEF7B0FF5BB0D2
:1051E000BDEC028BBDE8F08F0EA807F06FF80E9BA8
:1051F0000C9300F0DDFD00F012FF064600F028FEE3
:1052000000F042FEB0EE408AF0EE608A00F020FE30
:1052100000F019FF54F820A000F01AFE00F00EFF75
:10522000044600F0C5FD00F0E6FE074600F0C0FDB4
:1052300000F0A3FF804600F0BBFD00F0E1FE8146D8
:105240000AF003F80C9B194A00954FF48071CDE9E0
:105250000A90CDE906A4CDE908788DED048BCDE95F
:1052600001561AA807F0F2F80EA809F03BFC04F06A
:1052700043F90F4B0F4A1B78127811491343026808
:105280008DF800308DF8045014683C231AAAA1E769
:105290002B0F0C00330F0C00370F0C00400F0C00CD
:1052A000480F0C00540F0C005A0F0C00660F0C0036
:1052B00094E2032095E20320FD0F0C0054E6032046
:1052C00012100C0038B5002383608B6804460D462D
:1052D0002BB102229847EB68E360AB68A3602046DD
:1052E00038BD00002DE9F04395B005461C9904A88F
:1052F00090461F460CAEFFF7E5FF04A908A8FFF78C
:10530000E1FF08A93046FFF7DDFF4FF0000910204C
:10531000CDF84890FEF7BFFE0446A0B196E8030022
:1053200001AB83E8030094E8030086E8030093E8F8
:1053300003000E9BE268A36084E803000F9BCDF896
:1053400038900F92E360244B1393244B1293002266
:1053500000234FF00009C5E90023214BC5F8089050
:1053600010201094CDE90139CDF80C90FEF793FE92
:105370000446D8B1129BC0F8089033B1022210A99C
:105380009847139BE360129BA360164B0393164A46
:10539000029401AB4046394606F00EFFB0B12046FC
:1053A000FFF70DFE10212046FEF779FE10A8FFF74B
:1053B00006FE3046FFF703FE08A8FFF700FE04A82C
:1053C000FFF7FDFD284615B0BDE8F083029BAB60FA
:1053D000C5E90087EAE700BF614F0B00ED530B0002
:1053E00002000C00D14F0B00394F0B00012A37B5DA
:1053F000044604D10B680360002003B030BD022ACC
:105400000CD0032AF8D10468002CF5D02046FFF711
:10541000D6FD10212046FEF742FEEDE70968019116
:105420001020FEF738FE054610B10199FFF74AFF3C
:105430002560E1E7164B10B501241C70154B0822BE
:105440001A700AF0ABF800231A4619460AF0B6F8AB
:105450000AF0A4F800231A460D210AF0A7F80E4B13
:105460001A1D1A600D4A5A600022C3E902221A610D
:105470001C750AF073F969220146094801F0FAFB2C
:105480000848062340F8043BBDE8104003F0ECBA9E
:1054900094E2032095E20320C8E2032010000300F9
:1054A000A8E20320E0E20320F0B500209DB006F062
:1054B00021FC42F210750446002006F01BFC001B84
:1054C00061F10001A84271F1000307D209F0A4FFC5
:1054D00009F097FF10B906F0E1FEEDE709F09CFF37
:1054E00009F08FFF01F004FA01F02EFA00F0B0FC91
:1054F00003685B4E1B685B4F984700F059FC0368DC
:105500001B68984700F022FD03681B68984701F06C
:105510001BF801F02BF8082301213046738102F0BB
:10552000A5F87C21304601F0A3FC4F4B06934F4B6E
:10553000099306AD4E4B08934FF48022002302A836
:105540000095FFF7CFFE2846FFF739FD03F0D4FFA3
:1055500004F0D8F9FEF70CFE0121FFF7F5F803F08F
:1055600063FC44490446284603F030FB07A904F1D4
:10557000080009F03EFB0C9BE3610DA904F120003B
:1055800009F037FB129B6363149BE363169B636410
:10559000189BE3641A9B63659DF86C3084F858305F
:1055A000284603F0CFF809F050FEC317C7E91803E7
:1055B000384603F0B1FC09F02BFE2F4C002843D0F5
:1055C00039462E4A284603F091FB01231A46102142
:1055D0003046069F01F0CDFC29492A4B3A46002867
:1055E00018BF0B4628482949FEF7A9FD284609F0AF
:1055F00079FA274B1E8830460AF050F8054650BB12
:1056000024492148FEF79BFD234B01211970234BB0
:105610001F8838460AF029F84FF4FA6006F06EFF4A
:10562000294638460AF021F80423237000224FF05F
:10563000FF331B490092304607F0E0FC23780BB99A
:10564000022323701DB0F0BD16490F48FEF777FD09
:1056500005232370CDE714490B48FEF770FDE5E7FD
:10566000A8E20320E0E20320214F0B009B4F0B0038
:10567000874F0B0034100C00D2E303205B100C00AA
:105680002A100C002D100C0054E6032066100C00AC
:10569000B6140C00D5100C00D3E30320B4140C0096
:1056A0002D4F0B0097100C00F4100C002DE9F04169
:1056B0007D4D2B78013B90B0062B17D8DFE813F017
:1056C0008202070033000C01CD014102AF01774B8C
:1056D0001B78022B01D0FFF7B7FC754B1A781AB173
:1056E00000221A70042300E003232B70714801F09C
:1056F0006BFF03F001FF03F0F1FD00F0A9FB00F0E8
:10570000B7FB00F055FB00F07BFB00F01FFC00F046
:105710003AFC694B1B68002BC0F2888210B0BDE8D0
:10572000F04109F09EBB614B1B78032B01D0FFF7C2
:105730008BFC00215F48614C01F09AFBFFF754FCA1
:10574000074609F082FDC219D31708A809F078FCB2
:10575000089B029309F0E8FB029B594900903A46E6
:105760005848FEF7ECFC08A809F0BCF94FF4FA60C1
:1057700006F0C4FE237D002B50D002232372524B2F
:10578000B3F800802368DB68F3B19A88012A06D059
:105790009B68F9E79B68BBB19A88012AFAD19A897C
:1057A0004245F7D100229A73237D002B36D023681F
:1057B0004FF47A78DB6808FB07F8DBB19A88042A93
:1057C00000F02F829B68F8E7404910200AF04EF85D
:1057D0000646002800F02882102200210AF082FDEF
:1057E0003B4B33600123B3802369B360A6F80C8080
:1057F0002661D9E7354910200AF038F80646002816
:1058000000F01282102200210AF06CFD304B336050
:105810000423B38023692661C6E90238274905A815
:1058200009F022FB4FF0FF31224801F021FB00205C
:1058300006F060FA42F210760446002006F05AFAAA
:10584000001B61F10001B04271F1000307D209F0C1
:10585000E3FD09F0D6FD10B906F020FDEDE709F0F3
:10586000DBFD09F0CEFD02232B70114B01221A70D3
:1058700009F0EBFCC219D31708A809F0E1FB089A5C
:10588000029209F051FB029A124903460D48FEF7B5
:1058900056FC08A809F026F9059800283FF426AF21
:1058A00006F0B4FD22E700BFD2E30320D1E30320DA
:1058B000D0E30320A8E203207CD60320C8E2032023
:1058C0001E110C0054E60320B6140C0084220C00B8
:1058D000100003005E110C00A94B1B78042B62D052
:1058E000072B03D006F0F6F9A64B1860FFF7ACFBC8
:1058F000FEF73EFCFEF74EFC09F0A7FCA24CC317D6
:10590000C4E91803204603F007FB04F1680105A869
:1059100003F094F99DF9186000F04AFA00F075FB65
:10592000864276DB04F1680108A803F087F99DF947
:10593000246000F03DFA00F06DFB864208A8ACBF81
:105940000026012602F0EEFE05A802F0EBFE002E76
:1059500061D000F07DFA012100F020FD00F078FA1E
:1059600000F0F9FC894B8A4A8A49002808BF1A4688
:1059700008A8039203F062F99DF92430029300F025
:1059800017FA00F042FB044600F012FA00F042FB66
:10599000DDE90232CDE900407F498048FEF7CFFBC8
:1059A00008A802F0BFFEFEF7E3FBFFF707FA80B19D
:1059B00000F04EFA00F056FB794902467748FEF7B0
:1059C000BEFB00F045FA00F04DFB01281CBF072389
:1059D0002B70744B1B78002B7FF488AE06F07AF99D
:1059E000684B1B68C01A704B98427FF67FAEFEF77B
:1059F000BFFBFEF7DFFB09F039FC044600F0D8F9E5
:105A000000F034FC09F0F8FA844200F0B780052376
:105A10006BE6002698E700F01BFA31469CE7584BEE
:105A20001B78072B01D0FFF70FFB00F011FA00F0F5
:105A3000FBFAFFF751FB00F00BFA002100F070FBBE
:105A400000F0B6F9044600F0B3F900F0D9FA0130DD
:105A5000C1B2204600F03AFB44E6494B534C1B7858
:105A6000052B25D0FFF7F0FA00F0A2F900F0FEFBBD
:105A700009F0CAFA4749064608A803F0FCF89DF861
:105A80002330B6EBD30F05D000F024FC484943483F
:105A9000FEF755FB00F08CF900F0A8FAFFF71CFBAD
:105AA00006F00CFC08B906F001FC06F013F92060C2
:105AB00006F004FC38B300F07BF9064609F0C5FB9C
:105AC0000246C317304600F0FAFB00F071F90646B3
:105AD00006F000F92168411A4FF47A70B1FBF0F139
:105AE000304689B200F081FB06F0E8FB38B306F0DF
:105AF000E5FB10B1002006F0F9FBFFF753FA50B9AF
:105B000006F0CCFBF9E706F0E5F82368C01A294B4C
:105B10009842D0D8EAE5FFF745FA274908A806F0E9
:105B200067FD00F045F9044608A806F0DDFDBCEE6F
:105B3000C00A204610EE103A99B200F068FB062326
:105B4000D3E50F4B1D4C1B78062B04D0FFF77CFAD6
:105B500006F0C0F8206006F0BDF82368C01A184BA4
:105B600098427FF6C3AD03F0C7FC90F8B330002B2A
:105B70003FF4BCAD00F0E8FC00F01CFE0223B4E5ED
:105B8000D1E303209CE20320E0E2032017110C0084
:105B900012110C0048E303207F110C0054E603208F
:105BA000C8110C00D3E30320F0490200A0E2032057
:105BB000EC110C00C027090080E50320A4E20320BB
:105BC000905F01001B4C1C4E2378BFF35B8F13F0DA
:105BD000010F09D12046FEF771FA28B106F07AF8D4
:105BE00030602046FEF76FFA144B2A781B789A42F1
:105BF00001D0FFF729FA06F06DF83368C01A47F2B2
:105C0000305398427FF672AD0D490E48FEF797FA71
:105C10004FF4FA6006F072FC1E210B4801F082FA84
:105C200064E5C3F80C80F9E52675F7E510B0BDE82A
:105C3000F08100BF90E2032098E20320D1E303202B
:105C40000B120C0054E60320A8E2032010B5034B0E
:105C50000360044603F00EFA204610BD4C120C00FF
:105C600010B50446FFF7F2FF20461021FEF717FAA1
:105C7000204610BD10B5036804460BB905F0DAFFE5
:105C80002068BDE8104005F0E5BF38B50446043093
:105C9000FFF7F0FF206A616A0368DD68D4E9022338
:105CA000A8476068BDE8384005F0DCBF38B5044659
:105CB0000430FFF7DFFF206A616A03689D68D4E95A
:105CC0000223A847A2682368D1885B6920469847C9
:105CD00018B9236820469B699847606805F0C2FFA1
:105CE000012038BD10B5044B03600446406808B17C
:105CF00005F0A8FF204610BD741F0C0010B5034B23
:105D000003600446FFF7EEFF204610BD94120C001E
:105D100010B50446FFF7F2FF20466821FEF7BFF9F1
:105D2000204610BD10B5034B03600446FFF7DAFFB1
:105D3000204610BDC0120C0010B50446FFF7F2FF5C
:105D400020467021FEF7ABF9204610BD10B5034B7D
:105D500003600446FFF7C6FF204610BD68120C0022
:105D600010B50446FFF7F2FF20464FF48761FEF7B7
:105D700096F9204610BD000000F128018160094914
:105D80004FF0400CC0E903C1012181824FF47A71C8
:105D9000C16105490022C0E9081242608261034ADC
:105DA00002607047769EA920E4E3032094120C0061
:105DB00010B5064C23683BB96820FEF76CF9034622
:105DC00008B1FFF7D9FF2360206810BDDCE3032092
:105DD00008B5006A03F064F9FFF7EAFF03685B683F
:105DE0009847BDE8084000F0E7BD10B5006A03F031
:105DF00057F9FFF7DDFF0368BDE810405B681847FF
:105E000010B5FFF7D5FF0368BDE81040DB6800213F
:105E100018470000002200F12801426082614FF41F
:105E20007A728160C2610749074A02624FF0480CEA
:105E30003222C0E903C142620121044A8182026028
:105E4000704700BF749EA920E4E30320C0120C0039
:105E500010B5064C23683BB97020FEF71CF90346C9
:105E600008B1FFF7D7FF2360206810BDE0E30320EF
:105E700010B5FFF79DFF0368BDE81040DB68002107
:105E8000184700000000000010B504462DED028BFD
:105E90000430FFF7EFFEE368083B172B0CD9A3682B
:105EA00093ED068B606805F0DDFEB0EE480AF0EE7B
:105EB000680ABDEC028B10BD9FED018BF2E700BFBD
:105EC0000000000000000000F8B50446043057EC64
:105ED000106BFFF7CFFEE368083B172B12D9A568BC
:105EE0003046D5E9062339460AF0F2F850B9C5E93B
:105EF00006672046A56805F0ADFDA860236820462A
:105F00001B6998476068BDE8F84005F0ABBE00002B
:105F1000002200F12801426082614FF47A728160B0
:105F2000C2610749074A02624FF4826C9622C0E9B7
:105F300003C142620221044A81820260704700BFAD
:105F4000609EA920E4E3032068120C0010B5074C02
:105F5000236843B94FF48760FEF79DF8034608B104
:105F6000FFF7D6FF2360206810BD00BFD8E30320F1
:105F700010B5006A03F094F8FFF7E8FF0368BDE886
:105F800010405B68184710B5FFF7E0FF0368BDE8F5
:105F90001040DB680021184738B504460D46064915
:105FA00008F0EBFD23464FF480621021284605F0EF
:105FB000F8FC204638BD00BFFC200C000B464FF417
:105FC0008062102105F05EBD38B5044604300D46F0
:105FD000FFF750FEE3686068013BAB4226BFA36851
:105FE0005D5D002505F03EFE284638BD08B5102150
:105FF000FFF7EAFF08BD08B51521FFF7E5FF08BD6B
:1060000008B51621FFF7E0FF08BD08B53821FFF7F6
:10601000DBFF08BD08B53921FFF7D6FF08BD08B57D
:106020003B21FFF7D1FF08BD08B51021FFF7CCFFDA
:1060300008BD08B51121FFF7C7FF08BD08B512213B
:10604000FFF7C2FF08BD08B52021FFF7BDFF08BD5F
:1060500008B52121FFF7B8FF08BD08B52421FFF7D7
:10606000B3FF08BD08B53421FFF7AEFF08BD08B582
:106070004121FFF7A9FF08BD70B5044604300D4665
:106080001646FFF7F7FDE368013BAB420DD3A3686B
:106090005A5DB24209D05E552046A56805F0DAFC8B
:1060A000A860236820461B6998476068BDE8704077
:1060B00005F0D8BD08B50A461021FFF7DDFF08BD81
:1060C00008B50A461521FFF7D7FF08BD08B50A46EF
:1060D0001621FFF7D1FF08BD08B50A461021FFF7CA
:1060E000CBFF08BD08B50A461121FFF7C5FF08BD63
:1060F00008B50A461221FFF7BFFF08BD08B50A46DA
:106100002021FFF7B9FF08BD08B50A462121FFF796
:10611000B3FF08BD08B50A462421FFF7ADFF08BD4F
:1061200008B50A463421FFF7A7FF08BD08B50A469F
:106130004121FFF7A1FF08BD38B5044604300D46E4
:10614000FFF798FDE3686068023BAB4226BFA36897
:106150005D5B002505F086FD284638BD08B5122197
:10616000FFF7EAFF08BD08B52A21FFF7E5FF08BDE4
:1061700008B52C21FFF7E0FF08BD08B53C21FFF76B
:10618000DBFF08BD08B52221FFF7D6FF08BD08B523
:106190003021FFF7D1FF08BD08B53221FFF7CCFF52
:1061A00008BD70B5044604300D461646FFF762FD83
:1061B000E368023BAB420DD3A3685A5BB24209D0FD
:1061C0005E532046A56805F045FCA860236820467C
:1061D0001B6998476068BDE8704005F043BD08B58D
:1061E0000A461221FFF7DDFF08BD08B50A4628213F
:1061F000FFF7D7FF08BD08B50A462A21FFF7D1FFF0
:1062000008BD08B50A462C21FFF7CBFF08BD08B52D
:106210000A463C21FFF7C5FF08BD08B50A46222102
:10622000FFF7BFFF08BD08B50A463021FFF7B9FFE9
:1062300008BD08B50A463221FFF7B3FF08BDF8B51F
:10624000044604300D46FFF715FDE3686068083B1F
:10625000AB4223BFA1684919D1E90067002638BFC6
:10626000002705F0FFFC30463946F8BD08B520216F
:10627000FFF7E5FF08BDF8B5044604300D461E469D
:106280001746FFF7F7FCE368083BAB4212D3A3685D
:106290005A1958595168B14208BFB8420AD05F51E3
:1062A00020465660A56805F0D5FBA8602368204607
:1062B0001B6998476068BDE8F84005F0D3BC08B595
:1062C0002021FFF7D8FF08BD08B52821FFF7D3FF2D
:1062D00008BD000010B512491248FDF730FFFFF766
:1062E000B7FD0021FFF7A5FFFFF7B2FD0021FFF783
:1062F0009AFFFFF7ADFD044608F0A7FF0246C3175B
:106300002046FFF7E1FFFFF753FD0021FFF7D8FE1E
:10631000FFF74EFDBDE810400021FFF7D7BE00BFDC
:1063200022120C0054E6032008B53821FFF7A3FF22
:1063300008BD38B5044604300D46FFF79BFCE36802
:106340006068013BAB4226BFA3685D5D002505F098
:1063500089FC284638BD08B54021FFF7EAFF08BD93
:1063600070B5044604300D461646FFF783FCE3681B
:10637000013BAB420DD3A3685A5DB24209D05E55D2
:106380002046A56805F066FBA860236820461B69C7
:1063900098476068BDE8704005F064BC08B50A46DF
:1063A0004021FFF7DDFF08BD084B012210B51A7030
:1063B00009F0D4F9064C014600234FF40052204660
:1063C00002F064FE034B236010BD00BFD5E3032041
:1063D000E4E303204C120C007047006A0368DB689A
:1063E0001847704710B504210446FDF758FE2046B3
:1063F00010BD7FB502685368906814685E1000EBAA
:106400006305DB0748BF8359684648BF1C5908F03D
:10641000E5FB69462846A0470446684608F062FB4B
:10642000204604B070BD012A38B5044602D10B687D
:10643000236003E0022A03D0032A0DD0002038BDD8
:106440000C200D68FDF727FE03460028F0D095E8E4
:10645000070083E80700EBE700680028EED00C2176
:10646000FDF71DFEEAE700000A4B10B50446036085
:1064700007F0ACF9214607F0B0FB08F0CDFF08F0BB
:10648000BDFF2046044B40F8043B07F041FA20468C
:1064900010BD00BF60140C0048140C0010B5044679
:1064A000FFF7E2FF20462421FDF7F9FD204610BD4D
:1064B00010B50B46C6B018680A2203A90AF0BEF848
:1064C0007828044634D8FFF773FCA1B2FFF799FE91
:1064D000FFF76EFCFFF74CFE174A03464FF480713E
:1064E00006A805F0B3FF154806A9FDF728FE05F03C
:1064F000E5FED8B1124B13491B788DF8003006AA7F
:106500003C2304A806F0C6FA059C7CB16368013BF5
:1065100063605BB9236820469B689847A368013B8A
:10652000A3601BB923682046DB689847012000E080
:10653000002046B010BD00BFE4120C0054E603205A
:1065400000E4032024130C0010B5064C236833B973
:106550000420FDF7A0FD08B1034B03602060206814
:1065600010BD00BF04E4032078140C0030B52049AE
:1065700085B004461F48FDF7E2FDFFF719FCFFF761
:10658000F2FD0023009002221B48694605F076FECA
:1065900000250C200295FDF77EFD18B1174B846095
:1065A000C0E90035164B009003931020154B029361
:1065B000FDF771FD044678B100238360029B33B17F
:1065C000022269469847039BE360029BA3600E4A40
:1065D0000E48214606F04DF9029B1BB16946032285
:1065E0000846984705B0BDE8304000F0DBBA00BF70
:1065F00029130C0054E6032057130C00B1640B0060
:10660000F3630B0027640B006B130C004BC80B00EB
:1066100070B5D0E900531426044606FB0356AE427B
:1066200004D0284608F05EFA1435F8E7206805F033
:10663000EDFE204670BD8842F8B504460D4616466C
:1066400016D9904215D2A2F11406751AA1F11407B9
:106650002C44B7421CD02CB13146204608F0BEFA7B
:10666000337C2374304608F03DFA143E143CF0E7C6
:106670000ED0B5420CD02CB12946204608F0AEFA17
:106680002B7C2374284608F02DFA14351434F0E7D7
:10669000F8BD2DE9F0410023C0E9003383604F6865
:1066A0009F4204460E4623DD4FF0140808FB07F016
:1066B00005F0A4FE0546D8B1D4E9001208FB021289
:1066C000FFF7B9FF206805F0A1FE2560A760D6E9B5
:1066D000007308FB0378B84508D03946284608F00F
:1066E00097FA3B7C2B7414371435F4E773686360B6
:1066F0002046BDE8F081000070B5274B274A0125F0
:106700001D70274B00248CB09A60C3E9004402201E
:1067100005F042FD2146284605F056FD2946042095
:1067200005F0B8FACDE90044029408F075FE1D4C5E
:106730000546694603A8FFF7ACFF264603A906A84D
:10674000FFF7A7FF184B46F8043B06A909A8FFF777
:10675000A0FF09AA1E21304607F022FB09A8FFF777
:1067600057FF06A8FFF754FF104B2360256203A8CC
:10677000FFF74EFF0E4B236008F04EFE4FF416510C
:1067800008F038FE07F022F8214607F0DFF96846E6
:10679000FFF73EFF0CB070BD00E403200000FFFFD8
:1067A000F4E3032008E4032048140C0030210C001B
:1067B00060140C002DE9F04385B008F046FD434914
:1067C00005464348FDF7BBFC424B188806F040FCE9
:1067D000002401A8CDE90144ADF80C4006F05AF8B8
:1067E000204605F087FA43F698260446002005F077
:1067F00081FA031B61F10001B34271F1000305D27C
:1068000005F05CFD10B105F049FDEFE705F056FD20
:1068100005F060FA304F386005F040FD05F04EFDA0
:10682000044640B12D492A48FDF789FC0024204642
:1068300005B0BDE8F08308F008FD2949DFF8A48021
:10684000421B2348FDF77BFC08F0FFFC2246022197
:106850000646D8F8040005F081FDD8F80400234668
:106860002246214605F092FD204605F043FA47F204
:1068700030590546002005F03DFA431B61F1000147
:106880004B4571F1000306D2404607F0A7FD10B951
:1068900005F004FDEEE7134807F0A0FD05F01AFA35
:1068A000386005F0FBFC0F4807F094FD20B10E495D
:1068B0000748FDF744FCBAE708F0C7FC0B49821B08
:1068C0000348FDF73CFC0124B1E700BF79130C003D
:1068D00054E60320B6140C0010E70320A2130C00AA
:1068E000C5130C0080E50320EE130C0014140C00FB
:1068F00008B513491348FDF722FC0221042008F0D3
:10690000A3FE0021082008F09FFE0121072008F0C7
:106910009BFE0021122008F097FE0121112008F0B3
:1069200093FE0121102008F08FFE0021102008F0B6
:106930009CFE0021112008F098FE012008BD00BF38
:1069400080140C0054E6032010B51849184890B084
:106950002024FDF7F4FB22460021684609F0C2FC22
:10696000224600210DEB04008DF8054009F0BAFC29
:1069700000210DEB04008DF8254005F061FC41F28B
:10698000D833ADF806300B4B029341F27003ADF8EB
:106990000C30009B002143F400736846009305F01F
:1069A0004FFC003818BF012010B010BD99140C0026
:1069B00054E603208403840308B508490848FDF71A
:1069C000BEFBFFF7F5F90A21FFF715FCFFF7F0F919
:1069D000BDE8084046F6E131FFF701BCBE140C00EB
:1069E00054E6032007EE900A9FED097AF8EEE77A65
:1069F00067EE877A9FED077A87EE870ADFED067AE2
:106A000070EE677AB2EE040A87EE800A704700BF24
:106A100000404E4500F07F450000FA4313B50121C8
:106A200001A807F070FDFFF713FAFFF707FBFFF768
:106A30000FFAFFF703FB252801A80DD907F0F6FD93
:106A4000FFF706FA0121FFF759FB002401A807F020
:106A500069FD204602B010BD07F0CDFD0124F5E729
:106A600030B5194D0FCD97B00CAC0FC40FCD0FC47E
:106A700095E8030084E80300144904A805F0B8FD74
:106A800004A805F0F8FD044604A805F02DFE04A8AE
:106A900010EE105A05F058FE16AB10EE100A03EB7C
:106AA000840409F055F8CDE90201284609F050F8B0
:106AB000CDE90001064A54F8283C0648402105F07B
:106AC000C5FC17B030BD00BF60150C0080E5032089
:106AD0001B150C0020D7032030B585B00D460022D1
:106AE0006946009205F046FB90B9009C0CB1236901
:106AF00023B9084A08490A2005F014FB0C23CDE904
:106B000001350423039301AA2369012120469847F4
:106B100005B030BDC5BC0B0034150C0013B5FFF734
:106B200097F901A904460720FFF7D6FF011EA8BF69
:106B300001992046C9B2FFF7E1FA184806F0A4F916
:106B40004FF4FA7005F0DAFCFFF782F901A9044668
:106B50000320FFF7C1FFE8B9BDF8043007EE903A13
:106B6000FBEECC7A17EE900A08F0F2FF41EC100B26
:106B70002046FFF7A9F9FFF76BF9FFF785F9084BF6
:106B800051EC100B002209F0CBFA003818BF01209D
:106B900002B010BDFFEE007AE4E700BF2CE4032052
:106BA00000004E4013B5FFF753F9114B0446188807
:106BB00008F087FDFFF716FFFDEEC07A2046CDED09
:106BC000017A9DF80410FFF793FAFFF741F9FFF7F8
:106BD00035FA084A03461021074805F037FCFFF74D
:106BE0009DFFFFF71BFFFFF73BFF012002B010BD29
:106BF000BC140C005A150C0010D7032001480021CA
:106C000006F0FEB82CE40320704710B5202104469E
:106C1000FDF745FA204610BD10B504468AB0084677
:106C20004FF0200C0021CDE90023CDE902C10B4635
:106C300002AA216805F086FA0AB010BD0EB403B5A9
:106C400003AB322153F8042B0193FFF7E5FF02B0A9
:106C50005DF804EB03B070470EB403B503AB01213C
:106C600053F8042B0193FFF7D7FF02B05DF804EB54
:106C700003B0704710B50272FF2242810022C0E9C2
:106C8000032242610276C261024A034C1060C0E9ED
:106C9000004110BD38E40320D8170C002DE9F8435B
:106CA0009DF820800446894616461F46B8F1000F1D
:106CB00002D0406806F08EF9217A606806F067F924
:106CC0006068036849469B6898476068002106F041
:106CD0007DF9054600BB0123217A60683A4606F03B
:106CE00044F98742034609D13744BE421CD060684C
:106CF00003685B69984706F8010BF6E70B490C48F7
:106D00004A46FFF79BFFB8F1000F02D0606806F01B
:106D10006AF92846BDE8F8830346064904484A460E
:106D2000FFF78CFF0025EEE70125ECE788150C0046
:106D300034E40320AD150C0007B500930123FFF7E1
:106D4000ADFF03B05DF804FB73B54389FF2B044628
:106D500010D0194E194D04F0BDFFB0F57A7F09D25D
:106D6000608908F09BFC012804D031462846FDF7D5
:106D7000E6F9F0E701230DF1070228212046FFF78D
:106D8000DBFF30B90D480E49FDF7D9F9002002B0FC
:106D900070BD9DF80730182BF4D101230DF10702C7
:106DA00029212046FFF7C8FF0028EBD09DF80730C7
:106DB000052BE7D1EBE700BFD1150C0034E403202D
:106DC000E6150C0007B5134600228DF807200DF1DB
:106DD0000702FFF7B1FF9DF8070003B05DF804FB61
:106DE0002DE9F0419DF8188004460F4615461E46D1
:106DF000B8F1000F02D0406806F0ECF8217A606824
:106E000006F0C5F86068036839469B6898472E44C9
:106E1000B542606805D0036815F8011B9B68984768
:106E2000F6E7012106F0D2F8034670B10849094897
:106E30003A46FFF703FF0025B8F1000F02D0606863
:106E400006F0D1F82846BDE8F0810125F4E700BF3F
:106E5000F3150C0034E403201FB58DF80F200093C8
:106E60000DF10F020123FFF7BBFF05B05DF804FB36
:106E7000F8B50A460C4605461A491B48FDF75FF966
:106E8000002CB8BFEC687CB9012322461B212846A0
:106E9000FFF7E2FF1549024606461348FFF7DCFEFE
:106EA000EC606C613046F8BD032C19DDA7101F2F74
:106EB000A8BF1F27BA0062F07C020123D2B21B21B7
:106EC0002846FFF7C9FF3A460346094906460648E1
:106ED000FFF7C2FE4FF4FA635F43EC606F61E1E7D6
:106EE0000127E7E718160C0034E4032022160C00F3
:106EF0003E160C00064B1A684AB1A0F500630B431E
:106F000005D1D3681BB100211046FFF7B1BF704710
:106F100038E403202DE9FF419DF8288005461646F8
:106F20001F46B8F1000F04D04068019106F052F8F6
:106F30000199019100230DF10F022846FFF7FCFE95
:106F4000044660B19DF80F3003EA06023A439342CB
:106F500005D0019900232846FFF77EFF0446B8F1CB
:106F6000000F02D0686806F03EF8204604B0BDE885
:106F7000F08113B514460DF10702FFF7DDFE28B1CD
:106F80009DF807301C420CBF0120002002B010BD4C
:106F900013B514460DF10702FFF7CEFE28B19DF898
:106FA00007301C4214BF0120002002B010BD07B5FD
:106FB000D2430093D2B20023FFF7ACFF03B05DF8D9
:106FC00004FB000037B501230DF107020F21044631
:106FD000FFF7B2FE054638B91E491F48AD22FFF73C
:106FE0002DFE284603B030BD9DF8073013F0200F6A
:106FF0004FF001030BD02022E3610F212046FFF761
:10700000D6FF164A16491448FDF799F8E9E7082211
:1070100017212046FFF7BCFF18B10223114AE36194
:10702000F0E79DF807301A0709D50323E36108222A
:1070300001230F212046FFF7BAFF0B4AE2E75B0767
:10704000CFD50422E26101230F212046FFF7AFFFD5
:10705000064AD7E791160C0034E4032062160C00B0
:10706000B0160C006B160C007B160C008B160C0077
:1070700007B500931346FF22FFF74CFF03B05DF8FE
:1070800004FB0000F8B50F461646012300220F212D
:107090000546FFF7E1FE044638B94FF425721F4953
:1070A0001F48FFF7CBFD2046F8BD012323221821FE
:1070B0002846FFF7D1FE044610B940F29B22EEE7C6
:1070C000FF2FA8BFFF27012FB8BF01270123FAB266
:1070D00019212846FFF7C0FE044610B94FF42A7262
:1070E000DDE70123082212212846FFF7C1FF0446ED
:1070F00010B940F2AF22D2E7002E14BF03220222C1
:10710000012342F0800218212846FFF7A5FE04461D
:107110000028C8D140F2B922C1E700BFC1160C0057
:1071200034E403202DE9F7430A4605460F464F484D
:107130004F49FDF704F800212846FFF799FE044661
:1071400048B940F2F7124B494848FFF777FD20460F
:1071500003B0BDE8F08301231A4630212846FFF72B
:1071600087FF044610B940F20522ECE71022012304
:1071700011462846FFF71BFF044610B94FF403726F
:10718000E1E70123262213212846FFF765FE044686
:1071900010B940F21322D6E7012600963346FC22AE
:1071A00011212846FFF7B6FE044610B940F21B2213
:1071B000C9E7002239462846FFF764FF044610B9A4
:1071C00040F22222BFE700960223772210212846B0
:1071D000FFF7A0FE044610B940F22B22B3E7334676
:1071E00004221C212846FFF743FF044610B940F251
:1071F0003222A8E700961823E32211212846FFF740
:1072000089FE044610B940F239229CE73346C02279
:1072100017212846FFF720FE044610B94FF41072DC
:1072200091E704F057FDDFF85490DFF840804FF409
:107230007A7106464F4304F04DFD801BB8420ED2D2
:10724000012217212846FFF7BDFD49460246404668
:10725000FCF775FF4FF47A7005F050F9EBE706493B
:107260000248FFF7EBFC07F0FCFD70E734E4032075
:10727000EC160C00E1160C0012170C00FD160C00A9
:107280002DE9F3479DF828A005460C4691461F4678
:10729000BAF1000F02D0406805F09CFE07B3202F22
:1072A0003E4628BF20267F2C26D83319802B01D9B3
:1072B000C4F18006012304223F212846FFF777FE10
:1072C000002364F07F0100934A463346C9B2284642
:1072D000FFF7E4FC804628B13444BF1BB144DDE72E
:1072E0004FF00108BAF1000F02D0686805F07BFE8C
:1072F000404602B0BDE8F087012304223F21284622
:10730000FFF7B6FEDCE72DE9F3479DF828A0054618
:107310000C4691461F46BAF1000F02D0406805F0B6
:1073200059FE07B31F2F3E4628BF1F267F2C26D8A5
:107330003319802B01D9C4F18006012304223F2197
:107340002846FFF734FE002364F07F0100934A468D
:107350003346C9B22846FFF743FD804628B134447E
:10736000BF1BB144DDE74FF00108BAF1000F02D0B6
:10737000686805F038FE404602B0BDE8F08701239A
:1073800004223F212846FFF773FEDCE730B585B0C5
:107390000D68D1E9043203954D6802958D68019519
:1073A000C96800910133044902F26C72044607F087
:1073B000F1FC204605B030BD24170C0003090A2259
:1073C00000F00F0002FB0300704738B50446007858
:1073D0001546FFF7F3FF08606078FFF7EFFF48609E
:1073E000A078FFF7EBFF8860E078FFF7E7FFC86061
:1073F0002079FFF7E3FF013808612DB9651D287872
:10740000FFF7DCFF886138BD6079FFF7D7FF643094
:10741000A51D4861F3E7000070B5012388B00D4653
:107420001A4610210446FFF7A4FDF0B108230126F7
:10743000204600960DEB03020021FFF72FFC0446C7
:1074400098B1324629460DF10900FFF7BEFF04A8A6
:10745000FFF79CFF0848049A0849FCF770FE04A84F
:1074600007F040FB204608B070BD242200212846CA
:1074700008F038FF0024F5E734E4032042170C003D
:1074800030B58BB00D4601A9FFF7C6FF044620B109
:1074900001A805F02BF8C5E9000120460BB030BD6E
:1074A0000A2390FBF3F103FB110091FBF3F203FBC2
:1074B000121240EA0210C0B2704770B5054600686B
:1074C0000C461646FFF7ECFF20706868FFF7E8FFF0
:1074D0006070A868FFF7E4FFA070E868FFF7E0FFBE
:1074E000E07028690130FFF7DBFF20712EB9661DBF
:1074F000A869FFF7D5FF307070BD6A69642392FBFD
:10750000F3F003FB1020FFF7CBFFA61D6071EFE740
:10751000F0B587B0054602A816460C46FFF736FFC1
:107520001E48029A1E49FCF70AFE02A807F0DAFA82
:1075300016B1686805F04EFD204601220DF10901E3
:1075400000278DF80870FFF7B8FF01231A461021B5
:107550002846FFF78DFD0446E8B1082300970DEBA0
:10756000030239462846FFF73BFC044660B101237D
:107570001A4610212846FFF71AFD16B1686805F073
:1075800032FD204607B0F0BD4FF48D720549034827
:10759000FFF754FBF1E74FF48F72F7E734E4032071
:1075A00050170C005E170C0013B504466846CDE971
:1075B000002308F049FE9DF8102001462046FFF701
:1075C000A7FF02B010BD0000F0B5057E89B00446EB
:1075D00075BB07F01DFE58B30026002704A92846F6
:1075E000CDE9046704F092FE10B30125257607F07B
:1075F0002CFEC317CDE90203024600952046FFF793
:10760000D3FF02A92046CDE90267FFF739FF134BEC
:1076100013491B68009304A8DDE9022307F0B6FDB7
:107620001048049A1049FCF78AFD04A807F05AFA9A
:1076300063698BB104F04EFB2369C01A63699842F9
:107640000AD304F047FB4FF0FF312061204609B018
:10765000BDE8F040FFF70CBC09B0F0BD68D70320CF
:10766000A8E6032034E4032079170C0030B5044663
:107670008BB011B1406805F05BFC2046FFF764FB5E
:1076800006AD002837D02046FFF79CFC01231A46A0
:1076900010212046FFF76DFCD8B107F0B9FDC0B945
:1076A00002A92046FFF7ECFEDDE9020107F0B4FC79
:1076B000134B14491B6800932846DDE9022307F0A9
:1076C00065FD1148069A1149FCF739FD284607F077
:1076D00009FA0F4B06930F4B09930F4B08934FF486
:1076E0000062002302A80095FDF7FCFD2846FDF787
:1076F00066FC0BB030BD09490348FFF79FFAE8E785
:1077000068D70320A8E6032034E403208F170C0079
:10771000F56E0B009B4F0B00874F0B00AC170C0056
:10772000014B024A1A60704734E40320C4170C006E
:1077300010B5012303748368044643B1C0689847B9
:10774000012363740020BDE8104004F093BA006880
:107750000028F5D083680BB908F092F8C368EEE70B
:10776000012A02D1016000207047022A04BF0B6881
:107770000360F8E738B50568044635B12846FDF7DB
:107780001EFC10212846FCF78AFC20461421BDE887
:107790003840FCF784BC10B503680446ABB15868A8
:1077A00004F018FA88B923685A7C12B9586804F0B2
:1077B00019FA2368586804F01DFA20680023236032
:1077C00018B1BDE81040FFF7D5BF10BD054A0260F3
:1077D00000224260027380F84F24C0F85824C0F899
:1077E0006024704704180C0010B5074C236843B997
:1077F00040F26440FCF74FFC034608B1FFF7E6FF98
:107800002360206810BD00BF3CE4032038B5044667
:10781000406890B102232373FFF7BDFF656855B13F
:107820002846FFF7B8FF286808B1FFF7A3FF042137
:107830002846FCF734FC0023636038BD10B5054BC7
:1078400003600446FFF7E2FF04F58A60FDF7B7FB2B
:10785000204610BD04180C0010B50446FFF7EEFFDB
:10786000204640F26441FCF71AFC204610BD38B5B2
:10787000046805467CB16368013B63605BB92368BB
:1078800020469B689847A368013BA3601BB9236807
:107890002046DB689847284638BDF0B5044689B0D5
:1078A00000F10D0600F14E07237B1BB9012004F007
:1078B00025FEF9E7237B022B64D0A06804F0AAF927
:1078C000A06804F0AFF994F84F348DF800303A46D0
:1078D0003C23314606A805F0DDF8069D6B7833B9E8
:1078E000237B022B03D0012004F008FEF5E7D4F837
:1078F00058341BB3002004F06FFC20B16B7813B92F
:1079000004F0CCFCFAE72B78D4F860240592591ED9
:107910004B424B418DF80B30D4F85834CDE9036716
:107920000BB907F0ADFF05AB0093D4F85C5404AB82
:1079300003AA0DF10B0104F58A60A847A06804F0C2
:1079400069F9237B022B17D0D4F858340025C4F8EA
:10795000605443B104F58A61032208469847C4F88D
:107960005854C4F85C540023A068237304F05AF9F7
:1079700007A8FFF77CFF97E7A06804F053F907A872
:10798000FFF775FF09B0F0BD0068FFF786BF13B5BC
:107990000B460246D0E900016C4684E8030093E8F8
:1079A000030082E8030094E8030083E8030002B0C8
:1079B00010BD00002DE9F7430646884614202649ED
:1079C0001746994607F052FF044630B10020C4E93B
:1079D0000000C4E90200207460743460002C31D0CF
:1079E0001D49102007F042FF054668B1002383605F
:1079F00001463846FFF7CBFFBB68AA68BA60AB60A8
:107A0000EA68FB68EB60FA602768256037B13846A2
:107A1000FDF7D5FA10213846FCF741FB30680368C2
:107A200083B10A9B4A46CDE9000341460B4B043023
:107A300004F0C8F830B933681B7C4BB9012004F05E
:107A400039F9F8E730680023336008B1FFF792FE98
:107A5000304603B0BDE8F08384220C0031770B0080
:107A600030B5436887B00446C3B9083004F0CAF89B
:107A70000B4B059304200B4B02940493FCF70BFB78
:107A8000054638B14FF4406300930749022302AA28
:107A9000FFF790FF656002A8FDF791FA07B030BDCF
:107AA00089790B0061770B00E8170C002DE9F04392
:107AB000044685B080680C9F98460D46164604F033
:107AC000A9F863681BB1237B03F0FF0933B1A068F9
:107AD00004F0A8F8002005B0BDE8F083A06804F029
:107AE000A1F8002D3DD04022294604F10D0008F0F8
:107AF000D0FC84F84D908EB340F20142314604F13F
:107B00004E0008F0C6FC84F84E9400230293BB6834
:107B100004F58A653BB10222394668469847FB68FE
:107B20000393BB68029329466846FFF730FF029B28
:107B3000D4F85824C4F85834039B02926846D4F809
:107B40005C24C4F85C340392FDF739FA0D9BC4F849
:107B50006034012084F84F842073BCE784F84E60C1
:107B6000D3E72846B7E7000010B5054B0360037C58
:107B700004461BB9406808B104F048FC204610BD1B
:107B80001C180C0010B50446FFF7EEFF2046142128
:107B9000FCF785FA204610BD10B5034B0360044680
:107BA000FFF7E2FF204610BD3C180C0010B504465C
:107BB000FFF7F2FF20463021FCF771FA204610BD96
:107BC00010B5034B03600446FFF7E6FF204610BDE7
:107BD0004C180C0010B50446FFF7F2FF2046402178
:107BE000FCF75DFA204610BD10B5074B0360037C1F
:107BF00004461BB9406908B104F008FC2046FFF7B1
:107C0000B3FF204610BD00BF2C180C0010B5044671
:107C1000FFF7EAFF20462C21FCF741FA204610BD71
:107C2000034A02600022C0E90122C2600274704768
:107C30001C180C0038B5037C04460D460BB100201F
:107C400038BD406838B104F0E9FB0028F7D0C4E93A
:107C500001050120F4E7084604F0D0FBF5E770B514
:107C6000C3680E461546D1184268044672B1826850
:107C70008A420BD36068E3682A463146184408F00C
:107C800009FBE2682A44E260012070BD2046FFF74C
:107C9000D1FF0028EED1F8E710B5C0E901120022AB
:107CA000C260012202744361024A029B0260C36106
:107CB00010BD00BF2C180C00D0E90503834204D985
:107CC0000278022A02D01030F8E700207047D0E98D
:107CD0000503984204D20378012B18BF0020704797
:107CE0000020704770B513689D68136803F1100495
:107CF00014608669B4420AD29B698C68A34201DA97
:107D0000AB42F2DDA342CCBF0020012000E0002006
:107D100070BD73B501F110030446164601930025AA
:107D20000198A36983420BD982688B689A4207DA6B
:107D3000B54206D001AA20460135FFF7D3FFEFE791
:107D4000002002B070BD2DE9F341089D984601F175
:107D5000100304461746019300260198A369834245
:107D60001AD982688B689A4216DAAE420BD1386013
:107D700001AA2046FFF7B6FF28B1019BC8F80030E2
:107D800002B0BDE8F08101AA2046FFF7ABFF204614
:107D90000136FFF7A7FFE0E70020F1E7F0B5013B70
:107DA0000024D1E90176F61BA64208DDA34206DDD8
:107DB00045683D442D5D02F8015B0134F1E7002385
:107DC0001370F0BD1FB5144610236A46FFF7E6FF97
:107DD00004492246684604F031FB431E584258418C
:107DE00004B010BDB20C0C0010B5044600680B4680
:107DF00028B106F05AFFE3680133E36010BD606804
:107E00000028F8D0D4E90221013A8A4288BF4354BD
:107E1000F1E703467F2B37B50846D9B204D803B043
:107E2000BDE83040FFF7E0BF01F03F01B3F5006F60
:107E3000C3F3871541F0800407D245F0C0010190DB
:107E4000FFF7D2FF01982146E9E71B0B43F0E00161
:107E50000190FFF7C9FF05F03F01019841F0800153
:107E6000EEE700002DE9FF4700244E68DFF8CCA0C4
:107E700080460F461546A146B868B0425ADDD8F88C
:107E80000430995D9A19002C4BD0752905D86D29BD
:107E900007D862291ED066291ED02846FFF7A4FF06
:107EA0003DE0A1F16E04072CF7D80FF2080C5CF846
:107EB00024F000BFDD7E0B009B7E0B009B7E0B0041
:107EC0009B7E0B00E17E0B009B7E0B00E57E0B0092
:107ED000E97E0B000821E0E70C21DEE70A21DCE760
:107EE0000D21DAE70921D8E7311D884217DD02A903
:107EF00004333344084612F8014F01F8014B9A420B
:107F0000F9D101AA51468DF80C9004F097FA012896
:107F100005D1BDF804002946FFF77BFF0536002494
:107F200004E05C2904D02846FFF75EFF0136A3E792
:107F30000124FBE7012004B0BDE8F0879D200C0080
:107F40007FB50C4606460C491046154606F073FEF2
:107F5000D4E90131C91A0131284606F0E1FD0023B8
:107F60006A4621463046CDE9013300950393FFF779
:107F700079FF04B070BD00BFFC200C002DE9F04378
:107F800089B00546884604A812491646994606F067
:107F9000F4FD002700974B4603AA41462846FFF709
:107FA000D2FE044670B1039904AA2846FFF7C8FF21
:107FB000044608B90137EDE7314604A806F0A3FEF0
:107FC0000028F7D004A806F08DFD204609B0BDE8D2
:107FD000F08300BFFC200C0000230122C36043613A
:107FE000028380F82A30704708B50346FFF718FE71
:107FF000044A1A604FF0FF321846DA62FFF7ECFFCE
:1080000008BD00BF3C180C00D0E9022310B5934214
:108010003FBF42685C1CC460D15424BF012380F878
:108020002A3010BD10B54369044643B100EB430349
:10803000597E09B1FFF7E8FF6369013B6361D4E949
:108040000210636888424FF000022ABF5B181A547E
:1080500003F8012C10BD70B50446D0E902506668E3
:108060002D1A134630440A46294604F0F7F9854292
:108070002DBFE368A368E360C01836BF0123E0604A
:1080800084F82A3070BD0EB403B503AA52F8041B5D
:108090000192FFF7E0FF02B05DF804EB03B0704718
:1080A0002DE9F84304460E46174612B12221FFF788
:1080B000ABFFDFF80C810025715D06EB0509002997
:1080C00074D0D4E902329A4270D20B0634D501F052
:1080D000F003E02B05F101091DD116F8092002F08B
:1080E000C003802B39D105F1020916F8093003F0DD
:1080F000C000802831D103F03F03920143EA0133ED
:1081000002F47C621A4392B241462046FFF7BBFF5D
:108110004D460135D0E701F0E003C02B1DD116F824
:10812000093003F0C002802A17D1890101F4F862F6
:1081300003F03F031A43E7E70D290AD807290CD9B2
:10814000A1F10803052B08D8DFE803F0092317077E
:10815000111D222923D05C2921D0204604E05C2176
:108160002046FFF751FF6221FFF74EFFD1E75C2168
:108170002046FFF749FF6621F6E75C212046FFF71E
:1081800043FF6E21F0E75C212046FFF73DFF72219F
:10819000EAE75C212046FFF737FF7421E4E75C2122
:1081A0002046FFF731FF99F80010DDE72FB1204698
:1081B0002221BDE8F843FFF727BFBDE8F88300BFE1
:1081C0000C180C00426900EB42031A7E12B1002227
:1081D0001A7670472C21FFF717BF73B543690191D9
:1081E0000133082B16460FD8FFF7ECFF43690199BE
:1081F00000EB43045A1C01254261A576E676FFF7A1
:1082000003FF284602B070BD0020FBE710B504460E
:10821000FFF7EAFE054B23604FF0FF320023C4E96D
:108220000D232163E363204610BD00BF4C180C00F2
:1082300070B5436B013304460E4629D18D68016B3E
:10824000013D4563CB685A1B826388682844C31A82
:10825000002AE36304DD48684119184408F028F84F
:10826000226B616B5268E36B0A445B1A0125C4E917
:10827000012320462574FFF7AFFE636903F10C026A
:10828000F368B3FA83F35B0904F81230284670BD33
:108290000020FCE72DE9F04F44684FF0010C4FF04F
:1082A000FF36D0F800E0964580F0B98111F80E80D5
:1082B000B8F1000F00F0B381B8F13A0F00F09880E8
:1082C00033D8B8F1220F00F0A68010D8A8F1090821
:1082D0005FFA88F8B8F1170F0DD89F4D0CFA08F81F
:1082E00018EA050F07D0056801350560D9E7B8F130
:1082F0002C0F00F03381D0F8008042450ED911F8E0
:1083000008505DB13A2D00F269811F2D00F25181B4
:108310000A2D00F26081082D40F25681002B40F0BA
:10832000628108F1FF350560A5E0B8F17B0F37D019
:108330002ED8B8F15B0F33D0B8F15D0FDBD1002B35
:10834000D1D04FF002094568013D03EB0518002D1F
:1083500055DBD8F8047001374DD0D8F808A0BAF131
:10836000FF3F48D198F800B0CB454BD10EF1010E3C
:10837000C0F808A0C8F808E003EB051EDEF804709A
:10838000013742D0DEF8087001373ED18560AAE798
:10839000B8F17D0FAFD1002BA5D04FF00109D2E786
:1083A0000134002B9FD04568099FAF424AD905F19F
:1083B000010EC0F804E003EB051ECEE901664FEAAA
:1083C000051A0025CEF80C5085686F1C1FBF03EB03
:1083D0000519D9F80C500135C9F80C50B8F17B0FCC
:1083E0000CBF0125022503F80A500568CEF8045099
:1083F0004568013DCAE7013DA8F11008A7E701352E
:108400007FF471AF6FF001041EE0013D6F1CAEF10F
:10841000100EB3D167E70EF10109C0F80090D0F853
:108420000080424540F2938011F80850002D00F082
:108430008E80222D30D1F3B14568099FAF4206D816
:10844000C0F800E04FF0FF342046BDE8F08F05F1A2
:10845000010E4FEA051803EB0515C0F804E0C5E965
:1084600001660027EF60D0F800E04FF0030A03F840
:1084700008A0C5E9019E85686F1C04F101043FF462
:1084800032AF002B3FF42FAF03EB051EDEF80C508C
:108490000135CEF80C5026E75C2D11D108F101050D
:1084A000AA420DD905604D5D752D2BD86D2D0BD8C9
:1084B000662D27D85B2D1DD8222D01D02F2D21D13F
:1084C000056801350560AAE76E3D072D1AD801A79A
:1084D00057F825F0C1840B0005850B0005850B00BE
:1084E00005850B00C1840B0005850B00C1840B00C2
:1084F0000B850B005C3DEDB20CFA05F540F24147EF
:108500003D42DDD1C0F800E07CE708F102050560DE
:108510004FF0040AD0F80080424503D80568013DB9
:108520000560CDE711F80850002DF7D0A5F1300B0C
:10853000BBF1090F04D925F02005413D052DE1D8F7
:1085400008F10105BAF1010A0560E3D1E6E7C0F8D8
:1085500000E06FF0020477E713008000002B3FF487
:10856000C2AE85686F1C3FF4BEAE2D015D5D013D5E
:10857000012D7FF6B8AE456805F1FF3803EB051E07
:10858000B8F1000FFFF6AFAE1EF8105C013D012DF3
:108590000AD85EF80C5C013506D05EF8085C01353F
:1085A00002D1C0F808809EE608F1FF38AEF1100E47
:1085B000E6E7A5F12009244F5FFA89F90CFA09F9D9
:1085C00019EA070F7FF4AAAE203D5E2D9AD808F174
:1085D000010505608FE60D2DF6D19FE605F0DF0958
:1085E000B9F15D0FF8E74568099FAF427FF628AF04
:1085F00005F101084FEA051903EB0515C0F80480E1
:10860000C5E901660027EF60D0F800804FF0040A4A
:1086100003F809A0C5E901E80568013D83E6002BE0
:108620003FF412AF4268511E03EB02130029FFF61C
:108630000BAF53F80C2C013203D053F8082C013245
:1086400087D00139103BF1E701100004F7B5C2688B
:10865000044612B9002003B0F0BD436900F12006C2
:10866000ABB10021C0E908114FF0FF318162C1694F
:10867000009141683046FFF70DFE431C28D1257C50
:10868000002DE7D1606903F0C1FE6561E561002559
:108690004FF0FF37C4E90855E2686168A7620095AA
:1086A0002B463046FFF7F6FD0028D3DBE06117D0FC
:1086B000000103F0A3FEE269606103460092C4E991
:1086C0000855E2686168A7623046FFF7E3FD01E004
:1086D0000028BFDB636903EB0010A0610120BAE74B
:1086E0006369A361FAE738B5436B5A1C044618D096
:1086F000826B002A08DD016BE5684868E16B2B445A
:108700000144184407F0D4FDD4E90C23A16B0B44B9
:10871000E1680B44D360206BFFF798FF4FF0FF3305
:10872000636338BD7047704710B508210446FBF7F6
:10873000B6FC204610BD10B510210446FBF7AFFC77
:10874000204610BD10B5054B044640F81C3B06F012
:10875000C9F9201D06F0C6F9204610BDC0180C004E
:1087600010B50446FFF7EEFF20465821FBF797FCB3
:10877000204610BD10B5044B044640F8043BFFF7FB
:10878000E1FF204610BD00BF90180C0010B5044654
:10879000FFF7F0FF20466021FBF781FC204610BD6B
:1087A00020F00203012B03D0431F58425841704769
:1087B0001846704791F90430037191F905304371FF
:1087C00091F90630837191F90730C371704738B55C
:1087D00004460D460430043106F00BFA05F114018D
:1087E00004F11400FFF7E6FF05F11C0104F11C0081
:1087F00006F0FFF905F12C0104F12C00FFF7DAFF78
:1088000095F9383084F8383095F9393084F83930B2
:1088100095F93A3084F83A3095F93B3084F83B309A
:1088200005F13C0104F13C00FFF7C4FF95F9483025
:1088300084F8483095F9493084F8493095F94A3040
:1088400084F84A3095F94B3084F84B3005F14C01EF
:1088500004F14C00FFF7AEFF95F8543084F8543023
:1088600038BD0B6803604B68436013B15A6801322E
:108870005A607047024A02604A684260704700BF0F
:10888000A0180C004A69036862F3160303600B69C1
:108890005A1C438862F3CA134380CA68C3F3072390
:1088A00062F3C703C3707047024A0260002242604D
:1088B000704700BFA0180C0030B5002387B083803C
:1088C00083710D4605AB00931349044604AB03AA1C
:1088D000284603F0B3FD032807D1039B2371049BB3
:1088E0006371059BA37107B030BD0C4904AB03AAAB
:1088F000284603F0A3FD022804D1039B2371049BA7
:108900006371F0E7064903AA284603F097FD0128A2
:1089100004BF039B2371E6E754180C0057180C00A2
:10892000B20C0C0090F9042090F9053090F9061073
:10893000002AB8BF0848C3EB03134FEA8303BDBF47
:1089400000FB0230401840424FF46160A4BF00FBBE
:1089500002304018704700BFF0F1FFFF08B590F8F3
:1089600054304BB190F93B3043B92C30FFF7DAFF6C
:10897000B0FA80F0400908BD0120FCE70020FAE7CA
:1089800090F9073043B990F904308B6090F90530C5
:108990004B6090F906300B60704790F9073030B5A6
:1089A000B3B990F904508C682C44D1E900328C6042
:1089B00090F90540002DB5BF121B12194A604A609C
:1089C000B5BF90F9062090F906209B1A9B180B6002
:1089D00030BD000008B5054A02600022034642602F
:1089E0000830FFF761FF184608BD00BFB0180C0043
:1089F00000234360838183737047000030B50446D1
:108A000087B00D4611B10B784D2B05D0204607B02D
:108A1000BDE83040FFF7ECBF05AB0093114904AB54
:108A200003AA284603F00AFD032816D1039B2371ED
:108A3000049B6371059BA3712F21284607F0C6FC98
:108A400040B1411C04F10800FFF736FF0123E37138
:108A500007B030BDA081A073F8E72046FFF7C8FF3C
:108A6000F6E700BF6F180C00104B114910B5044613
:108A700040F8043B06F081F804F11400FFF714FFFE
:108A80000B4904F11C0006F078F804F12C00FFF704
:108A90000BFF04F13400FFF79DFF04F14400FFF7E2
:108AA00099FF002384F85430204610BDC0180C00F4
:108AB000FC200C002DE9F74F0446084607F0B0FCF7
:108AC00000250646019004F134083F49019801AAA7
:108AD00007F02EFD0146002862D0012D05F10103AB
:108AE00053D0022D56D0002D46D1024692F8009068
:108AF000B9F1400F1546174602F10102F6D80022DF
:108B00002A7004F11C0006F096F8012285F8009006
:108B100084F854202A786AB397F800A00AF1FF324B
:108B20003F2AB946BB4607F10107F5D9002304F1F6
:108B30002C0789F8003029463846FFF7BDFE89F832
:108B400000A0BAF1000F15D05D461BF801ABBAF1D9
:108B5000400FF9D800222A704946201D06F06BF814
:108B600085F800A004F11400BAF1000F06D02946E0
:108B7000FFF7A2FE0125A8E71D46A6E73946FFF745
:108B800019FE237E013B2376F4E74046FFF736FFCC
:108B900002259AE704F14400FFF730FF032594E72C
:108BA00094F93B3043B194F94B202AB904F13400D5
:108BB000FFF71EFF84F85420304603F027FC94F89A
:108BC000540003B0BDE8F08F79180C0038B5134B92
:108BD00004460D4640F8043B114905F0CEFF04F170
:108BE0001400FFF761FE0E4904F11C0005F0C5FFFB
:108BF00004F12C00FFF758FE04F13400FFF7EAFE01
:108C000004F14400FFF7E6FE002384F854302946BF
:108C10002046FFF74FFF204638BD00BFC0180C00AC
:108C2000FC200C0008B50346FFF73EFE8A681A7167
:108C30004A685A710A689A71184608BD13B5074BFD
:108C400003600023436004466846FFF7EBFF2046BD
:108C50006946FFF7AFFD02B010BD00BFA0180C00C1
:108C600007B50023014601A80193FFF70BFE019809
:108C700003B05DF804FB10B504460846FFF7F0FFAB
:108C8000206010BD10B5044688B00846683001A9C0
:108C900007F0AEFA01A807F0E0FB08AB1844002388
:108CA00000F81D3C01A9204605F067FF204608B0EA
:108CB00010BD000038B50446081D0D46FFF74EFEF6
:108CC00028B10949204605F058FF204638BD2868DC
:108CD000FFF766FD28B105F10801204605F098FF71
:108CE000F3E705F12001F8E77B180C002DE9F047C8
:108CF0008046A8B00C4615462AB1474B1046196865
:108D000007F07BFB38B921464046FFF7BBFF4046E2
:108D100028B0BDE8F08729463F2218A807F0B9FB24
:108D2000002318A88DF89F3007F097FB21460546D1
:108D300003A8FFF7BFFF201DFFF710FE48B3374918
:108D400007A807F064FB18AE002705F1FF3ABA4503
:108D50004CD93378252B07F1010917D173787A2B79
:108D600036D107A807F079FB18AB05463818AAEBEF
:108D70000702B11C184407F08DFA2A4607A93046AD
:108D800007F088FA18A807F068FB054601364F4639
:108D9000DBE72068FFF704FDB8B104F11800FFF726
:108DA000C1FD3C2290FBF2F3002BB8BF5B42B3FB4A
:108DB000F2F102FB11330093194A1A4B90FBF3F3C3
:108DC000102107A803F042FBBDE704F13000E6E7FD
:108DD0005A2BDBD1059D18AB7819AAEB0702B11C01
:108DE000184407F057FA03992A46C8E700212E22B3
:108DF0000CA80B9107F076FA04F1680318AA322147
:108E00000BA803F05BFB0BA9404605F0B6FE03A8D8
:108E100005F068FE7BE700BF68D703207B180C00D5
:108E20007D180C00F0F1FFFF38B5094D2B6863B9D0
:108E30006020FBF730F9044630B1064B40F8043BA4
:108E4000FFF712FE6423E3652C60286838BD00BF7D
:108E500040E4032090180C0003F048BB01390B29B3
:108E600015D8DFE801F016081606160616160616BF
:108E700006161E20704783070DD1642390FBF3F282
:108E800003FB120000280CBF1C201D20704700208F
:108E900070471F2070471C207047F8B50123CB6036
:108EA00090F90430013B0B610023C1E90033064611
:108EB0000C4617468B602046FFF7CEFF96F906302A
:108EC000A2699A4203D0E3680133E360F3E796F9BD
:108ED0000550012D13D0E3686069013DC5EBC50560
:108EE0001D44E56096F9041000F26C70FFF7B6FFC0
:108EF0008542C4BF073DE5602046FFF7ADFF214630
:108F000006F10800FFF73CFD3846FFF746FD204616
:108F1000BDE8F84003F0EABAF0B590F8583085B0F3
:108F200004462BB9FFF780FF011D201DFFF74FFC02
:108F300094F93F30002B65D0D4E9182304F1980749
:108F4000394602A83E46CDE9022303F0BFFA0FCE10
:108F500004F1C8050FC50FCE0FC533682B6004F1AF
:108F6000300102A8FFF786FC02AA394604F1380056
:108F7000FFF793FFC4E9240104F1180102A8FFF7E9
:108F800079FC02AA04F1C80104F14800FFF785FF4B
:108F9000D4E92465864275EB0103C4E93001D4E9C4
:108FA000182323DAB24273EB050519DA0023236094
:108FB0002068FFF7F5FB04F16801D4E91856019128
:108FC00010BB04F13000FFF7ADFC2D1A66EBE0702A
:108FD000CDE90250019902A803F078FA05B0F0BD7E
:108FE00082428B41B4BF01230223E0E7824273EB4C
:108FF000010101DA0323DAE7B242AB41B4BF042333
:109000000523D4E70623D2E704F11800DBE737B5E0
:109010008D6804466846FFF724FC6A4629462046C8
:1090200004F090F901A8FEF722FC204603B030BD01
:1090300037B5CD6804466846FFF713FC6A462946F3
:10904000204604F05BF901A8FEF711FC204603B0AE
:1090500030BD37B50D6904466846FFF702FC6A4625
:109060002946204604F0F3F801A8FEF700FC20464C
:1090700003B030BD704710B510210446FBF70FF860
:10908000204610BD0368C9B29B68184730B5034D30
:10909000C0E90223C0E9005130BD00BFD0180C0068
:1090A000406803F045BF10B50446006803F09BFF1D
:1090B000204610BD2DE9F7430446406801900D4657
:1090C00016461F4603F086FFA7B1E168606841F0CD
:1090D000500103F060FF290A6068FFF7D3FF2946BB
:1090E0006068FFF7CFFF6068002103F06FFF48B1B1
:1090F000002400E0012401A8FFF7D5FF204603B0BB
:10910000BDE8F083202F217B6068B84628BF4FF070
:1091100020080123424641F0500103F026FF06F0EB
:109120001DFB03681B6998474045E1DB06EB080916
:1091300006F014FB03685B69984706F8010B4E457F
:10914000F6D14544A7EB0807BEE72DE9F74F0446E3
:10915000406801900E4690461D4603F03BFF4FF0DD
:109160000109B9F1000F2AD04DB3E168606841F000
:10917000500103F010FF310A6068FFF783FF606859
:109180003146FFF77FFFA5F11E0A4746A6EB080B05
:10919000606817F8011B0368013D9B6898475545B7
:1091A0000BEB0706B84601D0002DF1D16068012114
:1091B00003F00CFF0028D7D04FF00009D1E701A839
:1091C000FFF771FF484603B0BDE8F08F2DE9F0438B
:1091D0008BB00E4615468046406801901C4603F051
:1091E000F9FEAE4229D2264425448CB11E2C2746D6
:1091F000D8F8003028BF1E27F61BD3F8089002AA23
:109200003B4631464046ED1BC84748B9002400E0C4
:10921000012401A8FFF747FF20460BB0BDE8F0830B
:10922000D8F8003002AAD3F80C9029463B464046B5
:10923000C8470028EAD0E41BD7E7E9D9002CE7D0DB
:10924000D8F800301E2C274628BF1E27D3F80890D8
:1092500002AA3B4631464046C8470028D6D0D8F837
:10926000003002AAD3F80C9029463B464046C84736
:109270000028CBD03E443D44E41BDFE703680A7876
:1092800083F8B120012183F8B010704710B4426810
:109290000346541001EB6200D20748BF0A591B680D
:1092A0005DF8044B48BFD3581847012A02D101602A
:1092B00000207047022A04BFD1E90023C0E900233F
:1092C000F6E7012A02D1016000207047022A04BF9C
:1092D0000B680360F8E7406F02F0BCBCD0F8C83000
:1092E00001461BB1D0F8CC30C030184770470000A1
:1092F000F8B5124D0846002A18BF15460E461F46FF
:1093000007F0ABF8402816D8284607F0A6F8B0F5C5
:10931000806F10D84330FAF7C0FE044648B131469A
:1093200000F8017B07F073F8294604F1420007F0CA
:109330006EF82046F8BD0024FBE700BFFC200C00BF
:10934000F0B59FB00A4600230E46011D08A802F0A2
:1093500081F80898002107F095F9054608A805F05E
:10936000C1FB002D60D008A9284607F079F90C9BB5
:109370002E492F483246FDF76FFC00221146284641
:1093800007F076F9082206A9284607F08FF90C9F06
:109390004A2F39DD274B069A9A4235D1264B079A38
:1093A0009A4231D1A7F1080210460592FAF775FEEC
:1093B0000446C0B127440146059A284607F076F9CD
:1093C00017F8093CABB9631C1846059307F045F83C
:1093D0003F28059B0DD804F142020092174914481A
:1093E0003246FDF739FC284607F032F920461FB017
:1093F000F0BD13490E483246FDF72EFC43212046AE
:10940000FAF74DFE0024EEE7BDF81E3002939DF8FA
:109410001D3001939DF81C3000930A49069B0448B7
:109420003246FDF719FCEDE72C46DFE7E4180C00A7
:1094300044E403206376B63101084100F8180C00BB
:109440001A190C0048190C002DE9F8438046284BE6
:1094500048F8043B0446404601F014FF022264230E
:109460000025C4E91B230823E367C4E92055C4E9A8
:109470002255C4E92455C4E92655A5672020FAF7EA
:109480000AFEE66FA067013E760800EB86090746F4
:109490004FF40070FAF7FFFD00F50073C4E92503EF
:1094A000C4F888304FF4FA614FF47A73C4E92D138D
:1094B00047F2305347F82600C4F88400C4F880000F
:1094C000C4F89000C4E92855C4E92A550949C4F8EC
:1094D0008C90C4F89C90C4F8B050C4F8BC30C4F868
:1094E000C850404601F014FF2046BDE8F88300BF95
:1094F000641B0C008D190C0038B5064D2B683BB968
:10950000D020FAF7C8FD044608B1FFF79DFF2C6094
:10951000286838BD48E403204269436A9B1A9B10BF
:109520005A1ED0E906315B1A9B1003EBC213026985
:109530008068101A03EBA000704738B50546FFF7A6
:10954000CAFE05F17800FFF7E7FF044650B9281D71
:1095500002F0D4F9D5F8A03004461BB1D5F8A430F8
:1095600003B90134686F02F07DFB204638BD10B5A9
:1095700002698368043A9342044602D00433A3602C
:1095800010BDC0684FF40071FAF789FD63691A1DB8
:1095900062615B68E36003F500722261EFE700003F
:1095A0002DE9F04F85B00446FFF795FEDFF8A49053
:1095B000DFF8A4A0DFF8A4B0D4F88030D4F890206D
:1095C000934205D1606F05B0BDE8F04F02F04ABB91
:1095D00004F1780004F104081F68FFF7C8FF404653
:1095E00002F030F90023024641460646684601F083
:1095F00031FF009840F2022107F044F80546684622
:1096000005F070FAC5B1082269462846CDE9009AEE
:1096100007F05EF807F1420006F01FFF394600F13F
:109620004302284607F054F8284607F011F8084886
:1096300032465946FDF710FB3146404602F044F9E8
:10964000002FB9D043213846FAF729FDB2E700BF11
:1096500044E403206376B631010841009B190C00F5
:109660002DE9F0410446FFF736FE04F17800FFF7DC
:1096700053FFE36E984202D92046FFF791FFDFF8CF
:1096800044800F4F261D304602F038F9236F984270
:1096900004DC606FBDE8F04102F0E4BA012130461D
:1096A00002F0DCF805460028EDD0014600223046E5
:1096B00001F00CFF2A4641463846FAF740FDE2E742
:1096C00044E40320B8190C0008B5A0F500630B436F
:1096D00005D0403850EA01030BD1092A09D10549C8
:1096E0000548FDF7B9FAFFF707FFBDE80840FFF7A7
:1096F00057BF08BDCB190C0044E4032070B50368C4
:10970000044683B1436A45691E1DAE4206D955F829
:10971000040B4FF40071FAF7C2FCF6E761682068A9
:109720008900FAF7BCFC204670BD00001FB5D1E9E6
:1097300000230021044602910AB9D90705D5CDE9D5
:1097400000230A4B03930A4B029321466846FEF717
:109750001EF9029BA268A360039B02926846E2681E
:10976000E3600392FBF72BFC04B010BD8D920B005D
:10977000AB920B0070B586B0044602F09FFD48B96D
:10978000434B02A9CDE9023004F1C000FFF7CEFF40
:1097900006B070BD94F8B2501DB1012384F8B33007
:1097A000F6E702F097FAD4F8A830C01AD4F8AC3033
:1097B0009842EDD3261D2946304602F04FF8014667
:1097C000C4F8A400002852D02046FFF7B9FD054692
:1097D000C4F8A000002835D002F07CFA02AE0025C3
:1097E0002C4BC4F8A800314604F1C0000293039545
:1097F000FFF79CFFD4E9283003F14202009226498A
:10980000264AA4F8B050A84208BF0A4601332449AA
:10981000244884F8B350FDF71FFAFDF7E5FFD4F8AC
:10982000A020214B0593CDE9006511461F4B029402
:10983000049311F8013B4232FEF738F93046FBF74A
:10984000BEFBA5E7D4F8A42019491648FAF777FC1F
:109850000121304602F002F8D4F8A4102A4630461E
:1098600001F034FED4F8A030002BB5D195E7D4F840
:109870008030D4F890209A4207D01B68C4F8A030FA
:1098800004F17800FFF773FEECE7C4F8A00084E76A
:10989000B5980B00359C0B00FA190C00EC1E0C005F
:1098A0001B1A0C0044E403207D920B00C3920B00B2
:1098B000FE190C0013B5044602F000FD90B102F051
:1098C00009FAD4F8B430C4F8AC300D4BC4F8A80091
:1098D00000936946002304F1C0000193FFF726FFBF
:1098E00002B010BD94F8B2301BB1012384F8B3303C
:1098F000F6E72046FFF721FE0028F6D0F0E700BF8C
:1099000075970B0070B5054698B0002002F074FC06
:10991000012805D03E493F48FDF790F918B070BDC9
:1099200005F1740002F086F93B4B04933B4B07931F
:1099300004A93B4B069308A8FBF7C4FC08A90CA894
:10994000FBF7C0FC0CA910A8FBF7BCFC00261020FC
:109950001696FAF7A0FB044660B18660014610A88F
:10996000FEF715F8129BA2681292A360E268139B9F
:10997000E36013922B4B17932B4B16932B4B1494A2
:1099800000261020CDE901360396FAF784FB044641
:10999000D8B1169B866033B1022214A99847179B51
:1099A000E360169BA360224B0393224A029401AB0F
:1099B0004FF40460002102F0FFFB30B12046FBF7BA
:1099C000FEFA10212046FAF76AFB14A8FBF7F7FA13
:1099D00010A8FBF7F4FA0CA8FBF7F1FA08A8FBF7BC
:1099E000EEFA04A8FBF7EBFAFDF7FEFEFEF738F8F7
:1099F000281D01F0AFFE2846FFF732FE0E4B1493F0
:109A000014A9002305F1C0001593FFF78FFE85E729
:109A10003A1A0C0044E40320C9960B009B4F0B003C
:109A2000874F0B00614F0B00ED530B0002000C0041
:109A3000D14F0B00394F0B00B5980B002DE9F047C3
:109A400006468946406A71697368471A09EBA7059B
:109A50000135B3EB450F144627D95D1B6D083268FD
:109A6000AD000CB14FEA89042C441444031DA142FB
:109A7000A3EB010213D9994202D0204606F018FC4C
:109A800074612368F36003F500733361E319736253
:109A9000E359F36103F500733362BDE8F08799423F
:109AA000EED0381D801A2044E8E703F102084B4548
:109AB0002CBF9844C844B8F1005F01D305F0DAFE2A
:109AC0004FEA8800FAF7E7FAA8EB05056D08824629
:109AD000AD000CB14FEA8904726A716904322C44FA
