:02000002B0004C
:1040000000400B001C2B0C00000006000D000502F8
:084010000401A50F00000000EF
:04401800040C0C0088
:1040200009480A49884208B505D0094A824202D0A7
:10403000121A0CF0DFFA0748074A0021121A0CF096
:1040400001FB014808BD00BF0CD6032028290C0045
:10405000D4D70320D8D70320F4E7032070B5074E48
:10406000074C0BF019FCA41BA4080025AC4200D19E
:1040700070BD56F8043B98470135F7E7B4280C00AB
:10408000F8280C0001F0B8BA08B501F0BBFBBDE898
:1040900008400BF0B9BB08F061BB08F05FBB08F04B
:1040A00065BB000008B5034A03490C2008F0EAF993
:1040B000FEE700BF25C00B00180C0C000078B0FA1A
:1040C00080F040097047012303707047704710B5B6
:1040D00004210446FFF7E3FF204610BD10B5034B53
:1040E0000360044603F006FF204610BD78120C0062
:1040F00010B50446FFF7F2FF204640F24C71FFF77F
:10410000CEFF204610BD37B51D4601AB044604F076
:10411000BBF820B101992A46204603F0D9FF03B02D
:1041200030BD37B51D4601AB044604F0ADF820B1F3
:1041300001992A46204604F089F803B030BD0EB438
:1041400000B58CB00DAA4FF0200C52F8041B03925E
:10415000CDE900120023016804AA1E20CDE904C3A2
:1041600008F0A0F90CB05DF804EB03B07047000054
:1041700010B5064C236833B90420FFF78CFF08B153
:10418000034B03602060206810BD00BFDCD7032014
:1041900088120C007047000010B5064CC0B00DF13D
:1041A000030201A9204606F047FF0028F7D140B0DE
:1041B00010BD00BF64D80320014806F02ABF00BF2D
:1041C00064D8032010B50B4806F0C1FC044628B99A
:1041D00009490A48FFF7B3FF204610BD9FED080AC2
:1041E000084806F0ADFF07480022172107F022F922
:1041F000F2E700BFE0E003202D0C0C0054E60320A2
:1042000000C0644464D8032010B50C4686B0FFF7A4
:10421000D9FF74B301F082FE002101F0F3FF02A880
:1042200008F004FA029A2E492E48FFF788FF02A8E8
:104230000AF008FE01F032FF014602A801F054FF27
:104240000299019108460CF0B8FA019902462648F5
:1042500003F08BFE02A80AF0F5FD234804F0A6FB4C
:1042600000283BD021491F48FFF769FF012006B015
:1042700010BD01F053FE01F061FFD8B101F04EFE18
:1042800001F05CFF0A2815D801F048FE01F056FF46
:104290000146174805F087FF154805F06AFF0190B1
:1042A00002A808F0C3F9DDE9012312490D48FFF720
:1042B00046FFBCE701F032FE0B2101F0A3FF0B210A
:1042C0000B4805F070FF0A4805F053FF019002A863
:1042D00008F0ACF9DDE901230749E7E70749C2E740
:1042E000390C0C0054E6032094D90320F10C0C0087
:1042F000E4E00320730C0C00AA0C0C00050D0C006C
:1043000037B52A4C01F04CFEB4F8031049BA89B213
:1043100002F04FF801F044FEB4F8051049BA89B232
:1043200002F04DF801F03CFEE17901F0C5FF01F02B
:1043300037FE217A01F0A2FF01F032FE0546607AD5
:104340000BF094FD41EC100B284601F065FE01F0E6
:1043500027FEA17A01F098FF01F022FEE17A01F038
:1043600099FF01F01DFE217B01F09AFF01F018FE7C
:1043700004460F4805F095FF81B2204602F013F87D
:1043800001F00EFE01F011FF019001F009FE01F0B5
:10439000F3FE019A074903460748FFF7D0FE074B93
:1043A000042201201A7003B030BD00BFE8D70320FB
:1043B00064D80320130D0C0054E60320D8D7032043
:1043C00010B501F0EDFD134B997801F06FFF01F08E
:1043D000E7FD04460BF0E9F8C3170246204602F059
:1043E00073F801F0DDFD04460B4805F05AFF81B279
:1043F000204601F0D8FF01F0D3FD01F0BDFE0749D2
:1044000002460748FFF79BFE064B06221A70012062
:1044100010BD00BFE8D7032064D803203A0D0C007C
:1044200054E60320D8D7032070B588B001F076FD9C
:1044300001F05AFF324C000A207001F06FFD01F0CC
:1044400053FF60700BF0B1F80016A0700BF0ADF8E0
:104450000014E0700BF0A9F8001220710BF0A5F821
:10446000607101F05BFD01F044FF000AA07101F0F2
:1044700055FD01F03EFF234BE0711E880025012110
:10448000257230460BF0A1FA01F08AFD01F074FEAE
:1044900006220346009221461B48092206F01CF919
:1044A000044610BB01F07CFD01F066FE05460BF0F2
:1044B0007CF80246C31704A80AF072FF049B03931A
:1044C00001F02CFD01F015FF039B104900902A46D6
:1044D0000F48FFF734FE04A80AF0B4FC304621462A
:1044E0000BF073FA012008B070BD0A490848FFF7C5
:1044F00026FE304629460BF068FA2846F3E700BF4F
:10450000E8D70320BC180C00E0E003205F0D0C008E
:1045100054E60320A20D0C0030B587B017490446BD
:1045200002A815460AF0D9FC154803F056FD154AB5
:10453000014601AB124803F0A7FE019910486A1E1C
:1045400003F06DFD014648B90F4920460AF0C5FC4D
:1045500002A80AF077FC204607B030BD08480B4A95
:1045600002ABFFF7DEFD002102A80AF07CFD002867
:10457000EAD102A920460AF0E1FCE9E708250C008F
:1045800094D90320BC0D0C00C20D0C00C70D0C000B
:1045900013B510480C4603F020FD0F4A014601AB4D
:1045A0000C4803F071FE01990A48621E03F037FDC2
:1045B000014630B909480A49FFF7C1FDFF2002B0A2
:1045C00010BD0448074A6B46FFF79DFD9DF80000AB
:1045D000F5E700BF94D90320BC0D0C0054E603207E
:1045E000CB0D0C0083110C00F0B587B0054601F02F
:1045F00095FC01F079FE404C000A207001F08EFC21
:1046000001F072FE60700AF0D0FF0016A0700AF090
:10461000CCFF0014E0700AF0C8FF001220710AF00D
:10462000C4FF607101F07AFC01F063FE000AA07122
:1046300001F074FC01F05DFEE07101F0B1FC01F0ED
:104640009BFD207201F0ACFC01F096FD014628466E
:10465000FFF79EFF6072054601F0A2FC01F091FD9C
:1046600006460AF0A2FF0246C31702A80AF098FE07
:10467000029F01F053FC01F03CFE2A461F493346DD
:10468000CDE900701E48FFF75AFD02A80AF0DAFBD8
:104690001C4B1D88012128460BF097F901F080FC86
:1046A00001F06FFD022203460092214616480A22BD
:1046B00006F012F80446A8B914491148FFF73FFD67
:1046C00001F06EFC064601F06BFC01F055FD014661
:1046D000304601F0CDFD284621460BF076F9012049
:1046E00007B0F0BD0A490648FFF729FD284600211A
:1046F0000BF06BF90020F3E7E8D70320E10D0C0085
:1047000054E60320BC180C00E0E003202C0E0C0043
:10471000A20D0C002DE9F043B3B03E493E4E3F4F91
:10472000DFF820810AA80AF0D8FB3D493D48FFF791
:1047300006FD394803F051FC3B4A014609AB3648B7
:1047400003F0A2FD002509992A46304603F067FCD4
:10475000014650B9354933482A46FFF7F0FC0AA80C
:104760000AF070FB33B0BDE8F0830AAB3A4605901F
:104770003046FFF7D6FC059906AB42463046FFF7B8
:10478000C2FC2B4A059907AB3046FFF7BCFC0599E4
:10479000284A08AB3046FFF7B6FC079A069CDDF8BE
:1047A0002890D3170EA80AF0FBFD089B02930E9BDE
:1047B000214A8021CDE9009312A8234607F0F6FF95
:1047C0000EA80AF03FFB174812A9FFF7B8FC07F044
:1047D00025FFD8B1194B1A491B788DF8003012AA61
:1047E0003C230EA808F006FB0F9C7CB16368013BDC
:1047F00063605BB9236820469B689847A368013BC8
:10480000A3601BB923682046DB68984701350A2D51
:1048100099D1A4E708250C0094D90320C70D0C00FA
:104820004B0E0C0054E60320BC0D0C005E0E0C0079
:10483000780E0C0083110C007D0E0C00D9D70320DC
:10484000AF0E0C00730E0C002DE9F743074601F084
:1048500065FB01F04EFD04462548DFF89480DFF843
:10486000B09003F0BAFB01AB0146224A204803F0A6
:104870000BFD3C236343DE17DC18764100250199CC
:104880002A46404603F0CBFB014678B16B464A46C8
:104890004046FFF738FC0AF088FE009BC01AC31799
:1048A000A042B34121DB01350A2DE8D1124A002490
:1048B00012491348FFF743FC9CB912491048FFF70F
:1048C0003EFC114B1D88214628460BF07EF80A203D
:1048D00007F0C4FF284601210BF077F83846FFF7B0
:1048E00071FC204603B0BDE8F083084A0124DFE7ED
:1048F00094D90320BC0D0C00B80E0C00C20E0C00A5
:1049000054E60320D90E0C00C4180C00BA0E0C009B
:10491000780E0C0037B504461546019103F0D8FD1A
:1049200001990122204603F041FD20463A2103F07F
:10493000F1FC04492A46204603B0BDE8304003F0AC
:1049400028BD00BF310F0C0013B5114B114C0122D3
:104950001A703223009304F12C0104F22C434FF41B
:104960008062204603F01EFB0B4B23600B4A0C4C6D
:104970000C490D4B12780978204606F0A3FB0B4832
:104980000022214602B0BDE8104005F09BBE00BFEA
:10499000D9D7032094D9032078120C00C2180C0038
:1049A00064D80320C0180C0058E40320E0E0032082
:1049B0002DE9F04796B00E4602A84D49DFF8348144
:1049C000DFF848A10AF089FA4A4803F006FB4A4A90
:1049D000014601AB474803F057FC002501992A46E0
:1049E000404603F01CFB6C1C0746A14600285FD123
:1049F000424943482A46FFF7A2FB3E4906A803F076
:104A00008BFD334622463F493D48FFF798FB394826
:104A100003F0D8FA014606A803F0B9FD7D227B21F8
:104A200006A803F060FD2246374906A8FFF772FF8B
:104A300006A803F04DFD012206A8344903F0B6FC98
:104A400006A83A2103F066FC3146012206A803F0CD
:104A5000ADFC0AF0AAFD054606A803F039FD0122C7
:104A600006A82B4903F0A2FC06A83A2103F052FC49
:104A70002A4606A8274903F08CFC0322264906A8EB
:104A8000FFF748FF06A803F053FC06A803F0DBFF7E
:104A900001F004FBD8F8041001F038FB22461F494E
:104AA0001748FFF74CFB06A8E4B203F00FFA12E038
:104AB000014602AB40465246FFF733FB314602A89F
:104AC0000AF0D1FA70B1104A0A486B463946FFF72E
:104AD0001AFB9DF8004002A80AF0B4F9204616B06F
:104AE000BDE8F087AC1C4D460A2D7FF477AF84E714
:104AF00008250C0094D90320BC0D0C00080F0C00F5
:104B000054E60320340F0C00730E0C00C70D0C008C
:104B1000780E0C00001D0C0083110C00760F0C00A9
:104B2000F0B5334B02221A7091B0324B09AC0546F6
:104B300003F11802274618685968264603C6083349
:104B400093423446F7D11B78337001F029FA0446BA
:104B500001F026FA01F010FB0146204601F088FB27
:104B600001F01EFA01F008FB0A281DD901F018FA1D
:104B7000394604462846FFF71BFF0146204601F050
:104B800071FB01F00DFA01F0FCFA039001F008FA54
:104B900001F0F2FA039B0090174918483A46FFF7D4
:104BA000CEFA012011B0F0BD01F0FAF901F0E4FAFB
:104BB00001462846FFF7ECFC114CE076FFF7D8FAE7
:104BC0000122014605A8FFF7A7FC059A039201F010
:104BD000E7F901F0D1FAE17E00910346039A094911
:104BE0000648FFF7ACFA05A80AF02CF9D9E700BF90
:104BF000D8D70320EAD70320890F0C0054E60320FE
:104C0000E8D70320D60F0C0070B5264898B00D46A3
:104C100003F0E3F9244A014606AB224803F034FBD3
:104C2000069920486A1E03F0FAF9044610B90020DC
:104C300018B070BD01461D4A1A4804ABFFF763FA6D
:104C4000049EAE42F3D11A4A1648214605ABFFF73F
:104C50005AFA059B03930AF0A8FC039B15490090A0
:104C600032461548FFF76BFA07AB114A0D4821464B
:104C700003F00AFB0B4908A803F04EFC079908A8AB
:104C800003F05CFC0AF091FC0C49024608A803F012
:104C900080FB08A803F0D7FE08A803F017F901204D
:104CA000C6E700BF94D90320BC0D0C00730E0C00A6
:104CB000780E0C0025100C0054E60320310F0C0078
:104CC0002DE9F0436B4D6C4C2B6889B001332B60A0
:104CD00006460AF06AFC0016A0700AF066FC001492
:104CE000E0700AF062FC001220710AF05EFC607154
:104CF00001F014F901F0FDFA000AA07101F00EF9BB
:104D000001F0F7FAE07101F04BF901F0F4FB2072C9
:104D100001F046F901F030FA01463046FFF774FF22
:104D200000286FD001F03CF901F026FA5349024601
:104D30005348FFF704FA0023637201F031F901F0E0
:104D400034FA504F627A504BA072002A08BF1F46B7
:104D500001F026F901F010FAA47A80460AF025FC49
:104D60000246C31704A80AF01BFBDDF8109001F0FF
:104D7000D5F801F0BEFA3A46444900944346CDE9DD
:104D800001903F48FFF7DBF904A80AF05BF83046D2
:104D9000FFF7C0FC3E4B1E88012130460AF015FE8D
:104DA00001F0FEF801F0E8F90422034600923249CE
:104DB00038480B2205F090FC374B04461868002C4D
:104DC0003BD1013018600BF061F8804628688946B5
:104DD0000BF05CF802460B46404649460BF0EAF9F8
:104DE0002E4B00220BF0BCF802460B4624482C49FF
:104DF000FFF7A5F9304621460AF0E7FD012009B08A
:104E0000BDE8F08301F0CCF801F0B6F9254902467F
:104E10001B48FFF794F901F0C3F8012101F046FAAD
:104E20000123637201F0BCF807460AF0BEFB02469C
:104E3000C317384601F048FB7FE70BF027F88046A0
:104E4000286889460BF022F802460B464046494640
:104E50000BF0B0F9114B00220BF082F802460B4622
:104E600007481149FFF76BF9304600210AF0ADFD04
:104E70000020C4E7E4D70320E8D7032066100C0025
:104E800054E6032057100C0008250C00B6100C0047
:104E9000BC180C00E0E00320E0D7032000005940DC
:104EA00000110C0085100C0034110C0010B5134CCF
:104EB000134B22781349144803EB0212FFF73FF912
:104EC0002378042B0CD02378022B04D1FFF750F960
:104ED000FFF78AFB50B92378062B09D0002006E0A3
:104EE000FFF746F9FFF7ECFE0028ECD0012010BDDB
:104EF000FFF73EF9BDE81040FFF796BAD8D7032078
:104F00000CD6032063110C0054E6032070B588B062
:104F100079238DF81A300DF11F0303930DF11E0351
:104F2000494E02930DF11D03019307AB00934748CF
:104F30000DF11B030DF11A02314605F001FC10B909
:104F4000002008B070BD9DF81A300024F454358854
:104F500000F0E4FF01F0C8F96DBAADB2A8420ED07E
:104F6000328852BA92B2059200F0D8FF01F0BCF933
:104F7000059A374903463748FFF7E1F8E0E701F0C3
:104F80000FF89DF81B10344C01F06CF99DF81E30A1
:104F900003F00F03237001F003F801F0EDF8059022
:104FA0002E4805F07EF99DF81F1002919DF81A1009
:104FB000019103462A492078059A01EB00110091DE
:104FC00024482849FFF7BBF82378032B0FD1FFF7BC
:104FD000CFF8FFF795F90028B2D000F09FFF01F05D
:104FE0008DF990B920491B48FFF7A9F826E0012B5D
:104FF00004D1FFF7BDF8FFF793FDECE7052BECD1EB
:10500000FFF7B6F8FFF7DCF9E5E700F087FF0446A5
:1050100000F084FF01F072F90146204601F0B1F979
:1050200000F07CFF002101F0B2F900F077FF01F001
:1050300060F90E4902460748FFF781F8FFF798F834
:10504000FFF734FF7DE700BFE8D70320E0E003204F
:1050500088110C0054E60320D8D7032064D803201D
:105060000CD60320DA110C004F120C001B120C009E
:10507000014B1A60704700BF7CD60320014B012210
:105080001A707047D4E3032030B585B00446089801
:1050900060B1406850B1856845B1CDE90241CDE9C4
:1050A0000023C46801AB6A4602A9A04705B030BD21
:1050B00030B585B0006813680193D1E90045836875
:1050C000CDE902450BB90AF08BFDC36801AA02A91C
:1050D000984705B030BD012A02D101600020704719
:1050E000022A04BF0B680360F8E703681268D1E97D
:1050F0000001184708B5002007F0B0FA28B107F002
:105100008DFA80F00100C0B208BD0120FCE710B5A7
:105110008368044613B1032201469847204610BD18
:1051200010B5044638B1FFF7F2FF20461021BDE864
:105130001040FEF7B4BF10BD38B500F0EFFE01F02F
:10514000D8F804460AF014FAF0B1104B1B78DBB91A
:105150000AF02BFA3C256543B0FBF5F404FB15007F
:105160002C1A092C0ED9AC4228BF2C4600F0D6FED2
:1051700001F0BFF80649024623460648FEF7DFFF66
:10518000204638BD0A24F1E70A24F9E7D3E30320D7
:1051900090120C0054E6032070B51C4E1C4C327863
:1051A0001C4D022AC4B028D10AF0E2F932782B78DB
:1051B00058B904EB02120092174A04EB03134FF4A0
:1051C000807104A807F0F2FA0FE004EB03130393D5
:1051D00004EB0214FFF7B0FF039B104ACDE9004037
:1051E0004FF4807104A807F0E1FA33780C482B7073
:1051F00004A9FEF7A4FF44B070BD2B7804EB0212A3
:10520000009204EB0313074AD9E700BFD2E303205F
:1052100080D60320D1E30320C4120C00E4120C005A
:1052200054E6032001130C002DE9F04F2DED028B05
:10523000DBB012AC6A4B23606A4B63606A4BA360BD
:105240006A4BE3606A4B23616A4B63614FF000086D
:10525000694BC4F81C80A361054600286CD0FEF79A
:1052600087FF2A4601460EA8FFF756F90E9B0D93BD
:1052700000F096FE01F051F8054600F091FE01F0B5
:1052800051F8064600F08CFE00F099FF074600F04A
:1052900087FE00F0A1FEB0EE408AF0EE608A00F0DA
:1052A0007FFE00F078FF54F820200C9200F078FE8A
:1052B00000F06CFF044600F073FE00F071FF8146C1
:1052C00000F06EFE01F024F8824600F069FE00F066
:1052D0006CFF83460AF069F90C9A0D9B07944FF412
:1052E0008071CDE90AB00692CDE9089A434A00954B
:1052F0008DED048BCDE901671AA807F057FA0EA8C7
:1053000009F0A0FD04F0A8FA3D4B3E4A1B78127844
:105310003D49134302688DF800308DF8048014680D
:105320003C231AAAA04739481AA9FEF708FF5BB028
:10533000BDEC028BBDE8F08F0EA807F077F90E9B4D
:105340000C9300F0EBFD00F012FF064600F028FE83
:1053500000F042FEB0EE408AF0EE608A00F020FEDF
:1053600000F019FF54F820A000F01AFE00F00EFF24
:10537000044600F0D3FD00F0E6FE074600F0CEFD47
:1053800000F0C1FF804600F0C9FD00F0E1FE81465B
:105390000AF00BF90C9B194A00954FF48071CDE986
:1053A0000A90CDE906A4CDE908788DED048BCDE90E
:1053B00001561AA807F0FAF90EA809F043FD04F007
:1053C0004BFA0F4B0F4A1B781278114913430268AE
:1053D0008DF800308DF8045014683C231AAAA1E718
:1053E0000F130C0017130C001B130C0024130C00DC
:1053F0002C130C0038130C003E130C004A130C0045
:1054000094E2032095E20320E1130C0054E603200C
:10541000F6130C0038B5002383608B6804460D46F4
:105420002BB102229847EB68E360AB68A36020468B
:1054300038BD00002DE9F04395B005461C9904A83D
:1054400090461F460CAEFFF7E5FF04A908A8FFF73A
:10545000E1FF08A93046FFF7DDFF4FF000091020FB
:10546000CDF84890FEF717FE0446A0B196E8030079
:1054700001AB83E8030094E8030086E8030093E8A7
:1054800003000E9BE268A36084E803000F9BCDF845
:1054900038900F92E360244B1393244B1293002215
:1054A00000234FF00009C5E90023214BC5F80890FF
:1054B00010201094CDE90139CDF80C90FEF7EBFDEA
:1054C0000446D8B1129BC0F8089033B1022210A94B
:1054D0009847139BE360129BA360164B0393164AF5
:1054E000029401AB4046394607F016F8B0B12046A9
:1054F000FFF70DFE10212046FEF7D1FD10A8FFF7A3
:1055000006FE3046FFF703FE08A8FFF700FE04A8DA
:10551000FFF7FDFD284615B0BDE8F083029BAB60A8
:10552000C5E90087EAE700BFB1500B003D550B000D
:1055300002000C0021510B0089500B00012A37B5E5
:10554000044604D10B680360002003B030BD022A7A
:105550000CD0032AF8D10468002CF5D02046FFF7C0
:10556000D6FD10212046FEF79AFDEDE7096801916E
:105570001020FEF790FD054610B10199FFF74AFF94
:105580002560E1E7164B10B501241C70154B08226D
:105590001A700AF0B3F900231A4619460AF0BEF948
:1055A0000AF0ACF900231A460D210AF0AFF90E4BB0
:1055B0001A1D1A600D4A5A600022C3E902221A61BC
:1055C0001C750AF07BFA69220146094801F0D8FCF3
:1055D0000848062340F8043BBDE8104003F0F4BB44
:1055E00094E2032095E20320C8E2032010000300A8
:1055F000A8E20320E0E20320F0B500209DB006F011
:1056000029FD42F210750446002006F023FD001B20
:1056100061F10001A84271F1000307D20AF0ACF871
:105620000AF09FF810B906F0E9FFEDE70AF0A4F8D8
:105630000AF097F801F0DAFA01F00CFB00F0B0FC88
:1056400003685D4E1B685D4F984700F067FC036878
:105650001B68984700F022FD03681B68984700F01C
:105660005DFC00F0D4FF01F0E9F801F0F9F808233F
:1056700001213046738102F07FF97C21304601F030
:105680007DFD4F4B06934F4B099306AD4E4B089350
:105690004FF48022002302A80095FFF7CBFE284696
:1056A000FFF735FD04F0D8F804F0DCFAFEF760FDF2
:1056B0000121FEF7A9FD03F067FD44490446284691
:1056C00003F034FC07A904F1080009F042FC0C9B2C
:1056D000E3610DA904F1200009F03BFC129B636318
:1056E000149BE363169B6364189BE3641A9B6365D6
:1056F0009DF86C3084F85830284603F0D3F909F04F
:1057000054FFC317C7E91803384603F0B5FD09F085
:105710002FFF2F4C002843D039462E4A284603F04D
:1057200095FC01231A4610213046069F01F0A7FD83
:1057300029492A4B3A46002818BF0B4628482949D0
:10574000FEF7FDFC284609F07DFB274B1E883046FE
:105750000AF054F9054650BB24492148FEF7EFFCF6
:10576000234B01211970234B1F8838460AF02DF96D
:105770004FF4FA6007F072F8294638460AF025F926
:105780000423237000224FF0FF331B490092304660
:1057900007F0E4FD23780BB9022323701DB0F0BDA0
:1057A00016490F48FEF7CBFC05232370CDE71449BB
:1057B0000B48FEF7C4FCE5E7A8E20320E0E2032083
:1057C00071500B00EB500B00D7500B0018140C005D
:1057D000D2E303203F140C000E140C0011140C0033
:1057E00054E603204A140C00BE180C00B9140C0037
:1057F000D3E30320BC180C007D500B007B140C007D
:10580000D8140C002DE9F0417F4D2B78013B90B06E
:10581000062B17D8DFE813F08C02070037001001C1
:10582000D5014B02B701794B1B78022B01D0FFF752
:10583000B3FC774B1A781AB100221A70042300E0E7
:1058400003232B70734802F045F804F005F803F0C9
:10585000F5FE00F0A5FB00F0B3FB00F05FFB00F0ED
:1058600078FB00F01BFC00F036FCFEF781FCFEF735
:1058700091FC694B1B68002BC0F28E8210B0BDE812
:10588000F04109F09EBC614B1B78032B01D0FFF760
:1058900083FC00215F48614C01F070FCFFF74CFC79
:1058A000074609F082FEC219D31708A809F078FD4F
:1058B000089B029309F0E8FC029B594900903A4684
:1058C0005848FEF73CFC08A809F0BCFA4FF4FA600F
:1058D00006F0C4FF237D002B50D002232372524BCD
:1058E000B3F800802368DB68F3B19A88012A06D0F8
:1058F0009B68F9E79B68BBB19A88012AFAD19A891B
:105900004245F7D100229A73237D002B36D02368BD
:105910004FF47A78DB6808FB07F8DBB19A88042A31
:1059200000F035829B68F8E7404910200AF04EF9F4
:105930000646002800F02E82102200210AF082FE86
:105940003B4B33600123B3802369B360A6F80C801E
:105950002661D9E7354910200AF038F906460028B3
:1059600000F01882102200210AF06CFE304B3360E8
:105970000423B38023692661C6E90238274905A8B4
:1059800009F022FC4FF0FF31224801F0F7FB002024
:1059900006F060FB42F210760446002006F05AFB47
:1059A000001B61F10001B04271F1000307D209F060
:1059B000E3FE09F0D6FE10B906F020FEEDE709F08F
:1059C000DBFE09F0CEFE02232B70114B01221A7070
:1059D00009F0EBFDC219D31708A809F0E1FC089AF9
:1059E000029209F051FC029A124903460D48FEF753
:1059F000A6FB08A809F026FA059800283FF422AF74
:105A000006F0B4FE1EE700BFD2E30320D1E303207B
:105A1000D0E30320A8E203207CD60320C8E20320C1
:105A200002150C0054E60320BE180C0090260C0052
:105A30001000030042150C00AC4B1B78042B62D005
:105A4000072B03D006F0F6FAA94B1860FFF7A4FB6A
:105A5000FEF78EFBFEF7A0FB09F0A7FDA54CC317D0
:105A6000C4E91803204603F007FC04F1680105A807
:105A700003F094FA9DF9186000F050FA00F06DFB05
:105A800086427ADB04F1680108A803F087FA9DF9E1
:105A9000246000F043FA00F065FB864208A8ACBF22
:105AA0000026012602F0EEFF05A802F0EBFF002E13
:105AB00065D000F075FA012100F0BDFD00F070FA2C
:105AC00000F019FD8C4B8D4A8D49002808BF1A46FD
:105AD00008A8039203F062FA9DF92430029300F0C3
:105AE0001DFA00F03AFB044600F018FA00F03AFB09
:105AF000DDE90232CDE9004082498348FEF71FFB11
:105B000008A802F0BFFFFEF733FBFFF7FFF980B1F3
:105B100000F046FA00F04EFB7C4902467A48FEF758
:105B20000EFB00F03DFA00F045FB01281CBF0723E7
:105B30002B70774B1B78002B7FF484AE06F07AFA3B
:105B40006B4B1B68C01A734B98427FF67BAEFEF717
:105B50000FFBFEF779FEFEF70BFBFEF72DFB09F0BE
:105B600035FD044600F0DAF900F046FC09F0F4FBDC
:105B7000844200F0B980052363E6002694E700F034
:105B80000FFA314698E7594B1B78072B01D0FFF7E6
:105B900003FB00F005FA00F0EFFAFFF745FB00F019
:105BA000FFF9002100F082FB00F0B8F9044600F094
:105BB000B5F900F0CDFA0130C1B2204600F03AFB51
:105BC0003CE64A4B544C1B78052B27D0FFF7E4FAF0
:105BD00000F0A4F900F010FC09F0C6FB48490646A5
:105BE00008A803F0F8F99DF82330B6EBD30F07D0DF
:105BF00000F0D6F900F03EFC48494348FEF79FFA12
:105C000000F08CF900F09AFAFFF70EFB06F006FDA3
:105C100008B906F0FBFC06F00DFA206006F0FEFC69
:105C200038B300F07BF9064609F0BFFC0246C31703
:105C3000304600F00FFC00F071F9064606F0FAF964
:105C40002168411A4FF47A70B1FBF0F1304689B205
:105C500000F091FB06F0E2FC38B306F0DFFC10B177
:105C6000002006F0F3FCFFF745FA50B906F0C6FC39
:105C7000F9E706F0DFF92368C01A294B9842D0D81B
:105C8000E0E5FFF737FA274908A806F061FE00F0C3
:105C900045F9044608A806F0D7FEBCEEC00A204627
:105CA00010EE103A99B200F078FB0623C9E50F4BCD
:105CB0001D4C1B78062B04D0FFF76EFA06F0BAF9DC
:105CC000206006F0B7F92368C01A184B98427FF697
:105CD000B9AD03F0C1FD90F8B330002B3FF4B2AD85
:105CE00000F0ACFD00F0E4FE0223AAE5D1E30320BE
:105CF0009CE20320E0E20320FB140C00F6140C00ED
:105D000048E3032063150C0054E60320AC150C0097
:105D1000D3E30320F0490200A0E20320D0150C00D9
:105D2000C027090080E50320A4E20320905F010062
:105D30001B4C1C4E2378BFF35B8F13F0010F09D16E
:105D40002046FEF7BBF928B106F074F93060204612
:105D5000FEF7B9F9144B2A781B789A4201D0FFF765
:105D60001BFA06F067F93368C01A47F230539842BD
:105D70007FF668AD0D490E48FEF7E1F94FF4FA6081
:105D800006F06CFD1E210B4801F052FB5AE5C3F8EA
:105D90000C80F3E52675F1E510B0BDE8F08100BF99
:105DA00090E2032098E20320D1E30320EF150C00DA
:105DB00054E60320A8E2032010B5034B0360044619
:105DC00003F008FB204610BD48160C0010B5044631
:105DD000FFF7F2FF20461021FEF761F9204610BDC3
:105DE00010B5036804460BB906F0D4F82068BDE886
:105DF000104006F0DFB838B504460430FFF7F0FF76
:105E0000206A616A0368DD68D4E90223A8476068F4
:105E1000BDE8384006F0D6B838B504460430FFF780
:105E2000DFFF206A616A03689D68D4E90223A847FE
:105E3000A2682368D1885B692046984718B923680F
:105E400020469B699847606806F0BCF8012038BD81
:105E500010B5044B03600446406808B106F0A2F890
:105E6000204610BD80230C0010B5034B0360044690
:105E7000FFF7EEFF204610BD90160C0010B504464B
:105E8000FFF7F2FF20466821FEF709F9204610BD12
:105E900010B5034B03600446FFF7DAFF204610BD40
:105EA000BC160C0010B50446FFF7F2FF2046702127
:105EB000FEF7F5F8204610BD10B5034B036004460D
:105EC000FFF7C6FF204610BD64160C0010B504464F
:105ED000FFF7F2FF20464FF48761FEF7E0F8204617
:105EE00010BD000000F12801816009494FF0400C0D
:105EF000C0E903C1012181824FF47A71C161054972
:105F00000022C0E9081242608261034A02607047C1
:105F1000769EA920E4E3032090160C0010B5064CF1
:105F200023683BB96820FEF7B6F8034608B1FFF7CF
:105F3000D9FF2360206810BDDCE3032010B5006AA0
:105F400003F05EFAFFF7EAFF0368BDE810405B6804
:105F5000184710B5FFF7E2FF0368BDE81040DB68A3
:105F600000211847002200F12801426082614FF4AD
:105F70007A728160C2610749074A02624FF0480C99
:105F80003222C0E903C142620121044A81820260D7
:105F9000704700BF749EA920E4E30320BC160C00E8
:105FA00010B5064C23683BB97020FEF774F8034621
:105FB00008B1FFF7D7FF2360206810BDE0E303209E
:105FC00010B5FFF7ABFF0368BDE81040DB680021A8
:105FD000184700000000000010B504462DED028BAC
:105FE0000430FFF7FDFEE368083B172B0CD9A368CC
:105FF00093ED068B606805F0E5FFB0EE480AF0EE21
:10600000680ABDEC028B10BD9FED018BF2E700BF6B
:106010000000000000000000F8B50446043057EC12
:10602000106BFFF7DDFEE368083B172B12D9A5685C
:106030003046D5E9062339460AF0FAF950B9C5E9E0
:1060400006672046A56805F0B5FEA86023682046CF
:106050001B6998476068BDE8F84005F0B3BF0000D1
:10606000002200F12801426082614FF47A7281605F
:10607000C2610749074A02624FF4826C9622C0E966
:1060800003C142620221044A81820260704700BF5C
:10609000609EA920E4E3032064160C0010B5074CB1
:1060A000236843B94FF48760FDF7F5FF034608B155
:1060B000FFF7D6FF2360206810BD00BFD8E30320A0
:1060C00010B5006A03F09CF9FFF7E8FF0368BDE82C
:1060D00010405B68184710B5FFF7E0FF0368BDE8A4
:1060E0001040DB680021184738B504460D460649C4
:1060F00008F0F3FE23464FF480621021284605F095
:1061000000FE204638BD00BF08250C000B464FF4AA
:106110008062102105F066BE38B5044604300D4695
:10612000FFF75EFEE3686068013BAB4226BFA368F1
:106130005D5D002505F046FF284638BD08B51021F5
:10614000FFF7EAFF08BD08B51521FFF7E5FF08BD19
:1061500008B51621FFF7E0FF08BD08B53821FFF7A5
:10616000DBFF08BD08B53921FFF7D6FF08BD08B52C
:106170003B21FFF7D1FF08BD08B51021FFF7CCFF89
:1061800008BD08B51121FFF7C7FF08BD08B51221EA
:10619000FFF7C2FF08BD08B52021FFF7BDFF08BD0E
:1061A00008B52121FFF7B8FF08BD08B52421FFF786
:1061B000B3FF08BD08B53421FFF7AEFF08BD08B531
:1061C0004121FFF7A9FF08BD70B5044604300D4614
:1061D0001646FFF705FEE368013BAB420DD3A3680B
:1061E0005A5DB24209D05E552046A56805F0E2FD31
:1061F000A860236820461B6998476068BDE8704026
:1062000005F0E0BE08B50A461021FFF7DDFF08BD26
:1062100008B50A461121FFF7D7FF08BD08B50A46A1
:106220001421FFF7D1FF08BD08B50A461521FFF775
:10623000CBFF08BD08B50A461621FFF7C5FF08BD0C
:1062400008B50A462E21FFF7BFFF08BD08B50A466C
:106250003821FFF7B9FF08BD08B50A463921FFF715
:10626000B3FF08BD08B50A461021FFF7ADFF08BD12
:1062700008B50A461121FFF7A7FF08BD08B50A4671
:106280001221FFF7A1FF08BD08B50A462021FFF73C
:106290009BFF08BD08B50A462121FFF795FF08BD01
:1062A00008B50A462421FFF78FFF08BD08B50A4646
:1062B0003421FFF789FF08BD08B50A464121FFF7E1
:1062C00083FF08BD38B5044604300D46FFF788FD4E
:1062D000E3686068023BAB4226BFA3685D5B0025B4
:1062E00005F070FE284638BD08B51221FFF7EAFF19
:1062F00008BD08B52A21FFF7E5FF08BD08B52C2128
:10630000FFF7E0FF08BD08B53C21FFF7DBFF08BD44
:1063100008B52221FFF7D6FF08BD08B53021FFF7E9
:10632000D1FF08BD08B53221FFF7CCFF08BD70B51D
:10633000044604300D461646FFF752FDE368023B63
:10634000AB420DD3A3685A5BB24209D05E532046DC
:10635000A56805F02FFDA860236820461B699847B3
:106360006068BDE8704005F02DBE08B50A461221F0
:10637000FFF7DDFF08BD08B50A462821FFF7D7FF64
:1063800008BD08B50A462A21FFF7D1FF08BD08B5A8
:106390000A462C21FFF7CBFF08BD08B50A463C2171
:1063A000FFF7C5FF08BD08B50A462221FFF7BFFF6A
:1063B00008BD08B50A463021FFF7B9FF08BD08B58A
:1063C0000A463221FFF7B3FF08BDF8B50446043092
:1063D0000D46FFF705FDE3686068083BAB4223BF4D
:1063E000A1684919D1E90067002638BF002705F0E8
:1063F000E9FD30463946F8BD08B52021FFF7E5FF35
:1064000008BDF8B5044604300D461E461746FFF792
:10641000E7FCE368083BAB4212D3A3685A1958590A
:106420005168B14208BFB8420AD05F512046566059
:10643000A56805F0BFFCA860236820461B69984743
:106440006068BDE8F84005F0BDBD08B51821FFF74C
:10645000D8FF08BD08B52021FFF7D3FF08BD08B558
:106460003021FFF7CEFF08BD08B52821FFF7C9FF8F
:1064700008BD000010B512491248FDF760FEFFF795
:106480008FFD0021FFF79BFFFFF78AFD0021FFF73B
:1064900090FFFFF785FD044609F087F80246C31711
:1064A0002046FFF7E1FFFFF739FD0021FFF7BCFEB3
:1064B000FFF734FDBDE810400021FFF7BBBE00BF71
:1064C00006160C0054E6032008B53821FFF799FFA3
:1064D00008BD38B5044604300D46FFF781FCE3687B
:1064E0006068013BAB4226BFA3685D5D002505F0F7
:1064F00069FD284638BD08B54021FFF7EAFF08BD11
:1065000070B5044604300D461646FFF769FCE36893
:10651000013BAB420DD3A3685A5DB24209D05E5530
:106520002046A56805F046FCA860236820461B6944
:1065300098476068BDE8704005F044BD08B50A465C
:106540003A21FFF7DDFF08BD08B526492648FDF7CB
:10655000F6FDFFF7E3FC0021FFF754FEFFF7DEFC3A
:106560000121FFF755FEFFF7D9FC46F6E131FFF7B1
:10657000FCFEFFF7D3FC0121FFF750FEFFF7CEFC36
:106580000021FFF751FEFFF7C9FC0021FFF752FE83
:10659000FFF7C4FC00220023FFF757FFFFF7BEFC04
:1065A0003C21FFF7EEFEFFF7B9FC0021FFF748FEA4
:1065B000FFF7B4FC00230022FFF751FFFFF7AEFC0A
:1065C0000621FFF743FEFFF7A9FC1621FFF744FE63
:1065D000FFF7A4FC0021FFF7B1FFBDE8084000F081
:1065E00071BB00BF27160C0054E6032008B5006AF3
:1065F00002F006FFFFF792FC03685B689847FFF71D
:106600008DFCFFF7A1FFBDE8084000F05BBB10B5B3
:106610000446FFF783FCFFF7A0FD0C2804D92046B1
:10662000BDE81040FFF790BFFFF778FCFFF79AFD39
:106630000B28F4D910BD08B50A464021FFF760FFCA
:1066400008BD000010B509F039FA054C01460023D9
:106650004FF40052204602F0C9FE024B236010BDE9
:10666000E4E3032048160C007047006A0368DB6807
:106670001847704710B504210446FDF710FD204669
:1066800010BD00001FB50446FFF748FCFFF731FEC0
:10669000064A03461021684606F088F869462046F7
:1066A00008F01BFC204604B010BD00BFE0160C0033
:1066B0007FB502685368906814685E1000EB63054C
:1066C000DB0748BF8359684648BF1C5908F036FCB1
:1066D00069462846A0470446684608F0B3FB2046B2
:1066E00004B070BD012A38B5044602D10B6823609E
:1066F00003E0022A03D0032A0DD0002038BD0C206D
:106700000D68FDF7C8FC03460028F0D095E80700A7
:1067100083E80700EBE700680028EED00C21FDF7C6
:10672000BEFCEAE730B585B00346144668460D4620
:1067300098470298206006F011F8286050B122684E
:10674000009909F057FF0024684608F07BFB2046BB
:1067500005B030BD004CF7E7FCFEFFFF0A4B10B55B
:106760000446036007F0E2F9214607F0E6FB09F072
:1067700003F808F0F3FF2046044B40F8043B07F011
:1067800077FA204610BD00BF68180C0050180C00A6
:1067900010B50446FFF7E2FF20462421FDF77FFCF9
:1067A000204610BD10B50B46C6B018680A2203A9D2
:1067B0000AF0F4F87828044634D8FFF7AFFBA1B20A
:1067C000FFF7E5FDFFF7AAFBFFF798FD174A034621
:1067D0004FF4807106A805F0E9FF154806A9FDF7FA
:1067E000AEFC05F01BFFD8B1124B13491B788DF896
:1067F000003006AA3C2304A806F0FCFA059C7CB1F4
:106800006368013B63605BB9236820469B689847D7
:10681000A368013BA3601BB923682046DB68984747
:10682000012000E0002046B010BD00BFEB160C00B8
:1068300054E6032000E403202B170C0010B5064C8F
:10684000236833B90420FDF726FC08B1034B03602D
:106850002060206810BD00BF04E4032080180C00F5
:106860007FB5204905462048FDF769FC1F4B029380
:1068700000240C261E491F486B460422CDE9004423
:10688000ADF8006005F0AAFE30460294FDF703FC67
:1068900018B1194B8560C0E90034184B0090039380
:1068A0001020174B0293FDF7F6FB044678B1002346
:1068B0008360029B33B1022269469847039BE360E1
:1068C000029BA3600F4A1048214606F082F9029B02
:1068D0001BB1694603220846984704B0BDE87040E2
:1068E00000F0E6BA30170C0054E6032025670B00D1
:1068F00085660B005E170C00A5670B00B1660B00E8
:10690000E5660B0072170C00ABCB0B0070B5D0E93D
:1069100000531426044606FB0356AE4204D0284614
:1069200008F090FA1435F8E7206805F01FFF2046BC
:1069300070BD8842F8B504460D46164616D99042F9
:1069400015D2A2F11406751AA1F114072C44B7420E
:106950001CD02CB13146204608F0F0FA337C237469
:10696000304608F06FFA143E143CF0E70ED0B54202
:106970000CD02CB12946204608F0E0FA2B7C237479
:10698000284608F05FFA14351434F0E7F8BD2DE915
:10699000F0410023C0E9003383604F689F42044602
:1069A0000E4623DD4FF0140808FB07F005F0D6FE75
:1069B0000546D8B1D4E9001208FB0212FFF7B9FF6F
:1069C000206805F0D3FE2560A760D6E9007308FBB8
:1069D0000378B84508D03946284608F0C9FA3B7C08
:1069E0002B7414371435F4E7736863602046BDE8F0
:1069F000F081000070B5274B274A01251D70274BF9
:106A000000248CB09A60C3E90044022005F074FDB4
:106A10002146284605F088FD2946042005F0EAFABB
:106A2000CDE90044029408F0A7FE1D4C05466946D6
:106A300003A8FFF7ACFF264603A906A8FFF7A7FFA8
:106A4000184B46F8043B06A909A8FFF7A0FF09AABE
:106A50001E21304607F054FB09A8FFF757FF06A890
:106A6000FFF754FF104B2360256203A8FFF74EFF8A
:106A70000E4B236008F080FE4FF4165108F06AFEBA
:106A800007F054F8214607F011FA6846FFF73EFF79
:106A90000CB070BD00E403200000FFFFF4E303200E
:106AA00008E4032050180C003C250C0068180C006A
:106AB0002DE9F04385B008F078FD43490546434889
:106AC000FDF73DFB424B188806F072FC002401A83C
:106AD000CDE90144ADF80C4006F08CF8204605F0F5
:106AE000B9FA43F698260446002005F0B3FA031BD2
:106AF00061F10001B34271F1000305D205F08EFD92
:106B000010B105F07BFDEFE705F088FD05F092FA86
:106B1000304F386005F072FD05F080FD044640B14D
:106B20002D492A48FDF70BFB0024204605B0BDE89F
:106B3000F08308F03AFD2949DFF8A480421B23487E
:106B4000FDF7FDFA08F031FD224602210646D8F88D
:106B5000040005F0B3FDD8F8040023462246214680
:106B600005F0C4FD204605F075FA47F23059054698
:106B7000002005F06FFA431B61F100014B4571F1F4
:106B8000000306D2404607F0D9FD10B905F036FDE6
:106B9000EEE7134807F0D2FD05F04CFA386005F037
:106BA0002DFD0F4807F0C6FD20B10E490748FDF73F
:106BB000C6FABAE708F0F9FC0B49821B0348FDF757
:106BC000BEFA0124B1E700BF80170C0054E6032091
:106BD000BE180C0010E70320A9170C00CC170C00FE
:106BE00080E50320F5170C001B180C0008B51749A9
:106BF0001748FDF7A4FA0221042008F0D5FE002171
:106C0000082008F0D1FE0121072008F0CDFE002168
:106C1000122008F0C9FE0121112008F0C5FE012153
:106C2000102008F0C1FE0021102008F0CEFE002147
:106C3000112008F0CAFE0121062008F0B5FE01214E
:106C4000062008F0C2FE012008BD00BF88180C0015
:106C500054E6032010B51849184890B02024FDF7D9
:106C60006EFA22460021684609F0ECFC224600211B
:106C70000DEB04008DF8054009F0E4FC00210DEB5C
:106C800004008DF8254005F08BFC41F2D833ADF8B7
:106C900006300B4B029341F27003ADF80C30009BB1
:106CA000002143F400736846009305F079FC003836
:106CB00018BF012010B010BDA1180C0054E603202D
:106CC0008403840308B508490848FDF738FAFFF73C
:106CD00025F90A21FFF755FBFFF720F9BDE8084029
:106CE00046F6E131FFF741BBC8180C0054E603201B
:106CF00007EE900A9FED097AF8EEE77A67EE877A59
:106D00009FED077A87EE870ADFED067A70EE677AE5
:106D1000B2EE040A87EE800A704700BF00404E457D
:106D200000F07F450000FA4313B5012101A807F0E8
:106D30009AFDFFF735F9FFF729FAFFF731F9FFF769
:106D400025FA252801A80DD907F020FEFFF728F91C
:106D50000121FFF799FA002401A807F093FD2046CE
:106D600002B010BD07F0F7FD0124F5E730B5194D6D
:106D70000FCD97B00CAC0FC40FCD0FC495E8030036
:106D800084E80300144904A805F0E2FD04A805F016
:106D900022FE044604A805F057FE04A810EE105A7F
:106DA00005F082FE16AB10EE100A03EB840409F026
:106DB0007FF8CDE90201284609F07AF8CDE9000113
:106DC000064A54F8283C0648402105F0EFFC17B06D
:106DD00030BD00BF6C190C0080E5032025190C00A4
:106DE00020D7032030B585B00D46002269460092B9
:106DF00005F070FB90B9009C0CB1236923B9084AD7
:106E000008490A2005F03EFB0C23CDE90135042397
:106E1000039301AA236901212046984705B030BD9C
:106E200025C00B003E190C0013B5FFF7B9F801A9F6
:106E300004460720FFF7D6FF011EA8BF0199204690
:106E4000C9B2FFF721FA184806F0CEF94FF4FA70EC
:106E500005F004FDFFF7A4F801A904460320FFF79D
:106E6000C1FFE8B9BDF8043007EE903AFBEECC7AEA
:106E700017EE900A09F01CF841EC100B2046FFF7C2
:106E8000CBF8FFF78DF8FFF7A7F8084B51EC100B84
:106E9000002209F0F5FA003818BF012002B010BD39
:106EA000FFEE007AE4E700BF2CE4032000004E4030
:106EB00013B5FFF775F8114B0446188808F0B1FDBB
:106EC000FFF716FFFDEEC07A2046CDED017A9DF862
:106ED0000410FFF7D3F9FFF763F8FFF757F9084AF3
:106EE00003461021074805F061FCFFF79DFFFFF7FF
:106EF0001BFFFFF73BFF012002B010BDC6180C00BE
:106F000064190C0010D703200148002106F028B9AD
:106F10002CE40320704710B520210446FDF7BFF88C
:106F2000204610BD10B504468AB008464FF0200C2C
:106F30000021CDE90023CDE902C10B4602AA216858
:106F400005F0B0FA0AB010BD0EB403B503AB3221A0
:106F500053F8042B0193FFF7E5FF02B05DF804EB53
:106F600003B070470EB403B503AB012153F8042BF3
:106F70000193FFF7D7FF02B05DF804EB03B0704751
:106F800010B50272FF2242810022C0E90322426151
:106F90000276C261024A034C1060C0E9004110BD94
:106FA00038E40320E41B0C002DE9F8439DF8208011
:106FB0000446894616461F46B8F1000F02D04068C5
:106FC00006F0B8F9217A606806F091F96068036804
:106FD00049469B6898476068002106F0A7F9054676
:106FE00000BB0123217A60683A4606F06EF98742B9
:106FF000034609D13744BE421CD0606803685B6910
:10700000984706F8010BF6E70B490C484A46FFF78C
:107010009BFFB8F1000F02D0606806F094F9284693
:10702000BDE8F8830346064904484A46FFF78CFF4B
:107030000025EEE70125ECE794190C0034E4032069
:10704000B9190C0007B500930123FFF7ADFF03B09A
:107050005DF804FB73B54389FF2B044610D0194E2D
:10706000194D04F0E7FFB0F57A7F09D2608908F086
:10707000C5FC012804D031462846FDF760F8F0E74A
:1070800001230DF1070228212046FFF7DBFF30B96D
:107090000D480E49FDF753F8002002B070BD9DF871
:1070A0000730182BF4D101230DF1070229212046C6
:1070B000FFF7C8FF0028EBD09DF80730052BE7D17C
:1070C000EBE700BFDD190C0034E40320F2190C00DB
:1070D00007B5134600228DF807200DF10702FFF7D0
:1070E000B1FF9DF8070003B05DF804FB2DE9F04106
:1070F0009DF8188004460F4615461E46B8F1000F4D
:1071000002D0406806F016F9217A606806F0EFF8C0
:107110006068036839469B6898472E44B5426068AA
:1071200005D0036815F8011B9B689847F6E7012115
:1071300006F0FCF8034670B1084909483A46FFF7E3
:1071400003FF0025B8F1000F02D0606806F0FBF8DD
:107150002846BDE8F0810125F4E700BFFF190C00C7
:1071600034E403201FB58DF80F2000930DF10F02BA
:107170000123FFF7BBFF05B05DF804FBF8B50A4635
:107180000C4605461A491B48FCF7D9FF002CB8BF2E
:10719000EC687CB9012322461B212846FFF7E2FF59
:1071A0001549024606461348FFF7DCFEEC606C61A9
:1071B0003046F8BD032C19DDA7101F2FA8BF1F27CD
:1071C000BA0062F07C020123D2B21B212846FFF7ED
:1071D000C9FF3A460346094906460648FFF7C2FE7C
:1071E0004FF4FA635F43EC606F61E1E70127E7E783
:1071F000241A0C0034E403202E1A0C004A1A0C0046
:10720000064B1A684AB1A0F500630B4305D1D36859
:107210001BB100211046FFF7B1BF704738E40320CF
:107220002DE9FF419DF82880054616461F46B8F116
:10723000000F04D04068019106F07CF8019901919B
:1072400000230DF10F022846FFF7FCFE044660B153
:107250009DF80F3003EA06023A43934205D00199A4
:1072600000232846FFF77EFF0446B8F1000F02D046
:10727000686806F068F8204604B0BDE8F08113B5F0
:1072800014460DF10702FFF7DDFE28B19DF8073027
:107290001C420CBF0120002002B010BD13B51446E3
:1072A0000DF10702FFF7CEFE28B19DF807301C4212
:1072B00014BF0120002002B010BD07B5D2430093D7
:1072C000D2B20023FFF7ACFF03B05DF804FB00006F
:1072D00037B501230DF107020F210446FFF7B2FE77
:1072E000054638B91E491F48AD22FFF72DFE284636
:1072F00003B030BD9DF8073013F0200F4FF00103AD
:107300000BD02022E3610F212046FFF7D6FF164A5B
:1073100016491448FCF713FFE9E708221721204615
:10732000FFF7BCFF18B10223114AE361F0E79DF8B3
:1073300007301A0709D50323E361082201230F212F
:107340002046FFF7BAFF0B4AE2E75B07CFD50422DE
:10735000E26101230F212046FFF7AFFF064AD7E77E
:107360009D1A0C0034E403206E1A0C00BC1A0C00A9
:10737000771A0C00871A0C00971A0C0007B50093B7
:107380001346FF22FFF74CFF03B05DF804FB00003B
:10739000F8B50F461646012300220F210546FFF7D8
:1073A000E1FE044638B94FF425721F491F48FFF724
:1073B000CBFD2046F8BD0123232218212846FFF7E4
:1073C000D1FE044610B940F29B22EEE7FF2FA8BF82
:1073D000FF27012FB8BF01270123FAB21921284640
:1073E000FFF7C0FE044610B94FF42A72DDE701230F
:1073F000082212212846FFF7C1FF044610B940F2C7
:10740000AF22D2E7002E14BF03220222012342F052
:10741000800218212846FFF7A5FE04460028C8D19F
:1074200040F2B922C1E700BFCD1A0C0034E40320BA
:107430002DE9F7430A4605460F464F484F49FCF7EA
:107440007EFE00212846FFF799FE044648B940F227
:10745000F7124B494848FFF777FD204603B0BDE8D7
:10746000F08301231A4630212846FFF787FF0446A0
:1074700010B940F20522ECE71022012311462846FC
:10748000FFF71BFF044610B94FF40372E1E7012335
:10749000262213212846FFF765FE044610B940F264
:1074A0001322D6E7012600963346FC2211212846F6
:1074B000FFF7B6FE044610B940F21B22C9E70022CE
:1074C00039462846FFF764FF044610B940F22222ED
:1074D000BFE700960223772210212846FFF7A0FE7F
:1074E000044610B940F22B22B3E7334604221C2194
:1074F0002846FFF743FF044610B940F23222A8E7BE
:1075000000961823E32211212846FFF789FE04463E
:1075100010B940F239229CE73346C0221721284691
:10752000FFF720FE044610B94FF4107291E704F003
:1075300081FDDFF85490DFF840804FF47A71064601
:107540004F4304F077FD801BB8420ED20122172171
:107550002846FFF7BDFD494602464046FCF7EFFDD1
:107560004FF47A7005F07AF9EBE706490248FFF725
:10757000EBFC07F026FE70E734E40320F81A0C0059
:10758000ED1A0C001E1B0C00091B0C002DE9F34723
:107590009DF828A005460C4691461F46BAF1000FFB
:1075A00002D0406805F0C6FE07B3202F3E4628BF34
:1075B00020267F2C26D83319802B01D9C4F18006D0
:1075C000012304223F212846FFF777FE002364F0C1
:1075D0007F0100934A463346C9B22846FFF7E4FCD0
:1075E000804628B13444BF1BB144DDE74FF00108A9
:1075F000BAF1000F02D0686805F0A5FE404602B05F
:10760000BDE8F087012304223F212846FFF7B6FE9C
:10761000DCE72DE9F3479DF828A005460C46914686
:107620001F46BAF1000F02D0406805F083FE07B391
:107630001F2F3E4628BF1F267F2C26D83319802BAC
:1076400001D9C4F18006012304223F212846FFF717
:1076500034FE002364F07F0100934A463346C9B2EA
:107660002846FFF743FD804628B13444BF1BB14490
:10767000DDE74FF00108BAF1000F02D0686805F0AD
:1076800062FE404602B0BDE8F087012304223F219C
:107690002846FFF773FEDCE730B585B00D68D1E909
:1076A000043203954D6802958D680195C968009173
:1076B0000133044902F26C72044607F01BFD2046B8
:1076C00005B030BD301B0C0003090A2200F00F008A
:1076D00002FB0300704738B5044600781546FFF7F3
:1076E000F3FF08606078FFF7EFFF4860A078FFF7CE
:1076F000EBFF8860E078FFF7E7FFC8602079FFF7CD
:10770000E3FF013808612DB9651D2878FFF7DCFF1C
:10771000886138BD6079FFF7D7FF6430A51D4861E7
:10772000F3E7000070B5012388B00D461A4610211A
:107730000446FFF7A4FDF0B1082301262046009679
:107740000DEB03020021FFF72FFC044698B13246EF
:1077500029460DF10900FFF7BEFF04A8FFF79CFFC3
:107760000848049A0849FCF7EAFC04A807F06AFBF9
:10777000204608B070BD24220021284608F062FF90
:107780000024F5E734E403204E1B0C0030B58BB029
:107790000D4601A9FFF7C6FF044620B101A805F078
:1077A00055F8C5E9000120460BB030BD0A2390FB17
:1077B000F3F103FB110091FBF3F203FB121240EA19
:1077C0000210C0B2704770B5054600680C461646F8
:1077D000FFF7ECFF20706868FFF7E8FF6070A868AB
:1077E000FFF7E4FFA070E868FFF7E0FFE0702869AA
:1077F0000130FFF7DBFF20712EB9661DA869FFF786
:10780000D5FF307070BD6A69642392FBF3F003FB0F
:107810001020FFF7CBFFA61D6071EFE7F0B587B032
:10782000054602A816460C46FFF736FF1E48029A88
:107830001E49FCF784FC02A807F004FB16B1686837
:1078400005F078FD204601220DF1090100278DF891
:107850000870FFF7B8FF01231A4610212846FFF7EA
:107860008DFD0446E8B1082300970DEB030239466D
:107870002846FFF73BFC044660B101231A4610215D
:107880002846FFF71AFD16B1686805F05CFD204632
:1078900007B0F0BD4FF48D7205490348FFF754FB64
:1078A000F1E74FF48F72F7E734E403205C1B0C0020
:1078B0006A1B0C0013B504466846CDE9002308F0A6
:1078C00073FE9DF8102001462046FFF7A7FF02B087
:1078D00010BD0000F0B5057E89B0044675BB07F009
:1078E00047FE58B30026002704A92846CDE90467BF
:1078F00004F0BCFE10B30125257607F056FEC31731
:10790000CDE90203024600952046FFF7D3FF02A906
:107910002046CDE90267FFF739FF134B13491B6877
:10792000009304A8DDE9022307F0E0FD1048049A63
:107930001049FCF704FC04A807F084FA63698BB1D2
:1079400004F078FB2369C01A636998420AD304F0F3
:1079500071FB4FF0FF312061204609B0BDE8F040D7
:10796000FFF70CBC09B0F0BD68D70320A8E60320E0
:1079700034E40320851B0C0030B504468BB011B1F4
:10798000406805F085FC2046FFF764FB06AD002843
:1079900037D02046FFF79CFC01231A4610212046D1
:1079A000FFF76DFCD8B107F0E3FDC0B902A920468E
:1079B000FFF7ECFEDDE9020107F0DEFC134B144992
:1079C0001B6800932846DDE9022307F08FFD11486C
:1079D000069A1149FCF7B3FB284607F033FA0F4B20
:1079E00006930F4B09930F4B08934FF4006200234B
:1079F00002A80095FDF71EFD2846FDF788FB0BB099
:107A000030BD09490348FFF79FFAE8E768D703202C
:107A1000A8E6032034E403209B1B0C0001720B003A
:107A2000EB500B00D7500B00B81B0C00014B024A67
:107A30001A60704734E40320D01B0C0010B50123FA
:107A400003748368044643B1C06898470123637494
:107A50000020BDE8104004F0BDBA00680028F5D051
:107A600083680BB908F0BCF8C368EEE7012A02D1BD
:107A7000016000207047022A04BF0B680360F8E72A
:107A800038B50568044635B12846FDF740FB10219E
:107A90002846FCF704FB20461421BDE83840FCF7DB
:107AA000FEBA10B503680446ABB1586804F042FA58
:107AB00088B923685A7C12B9586804F043FA2368DD
:107AC000586804F047FA20680023236018B1BDE825
:107AD0001040FFF7D5BF10BD054A0260002242608A
:107AE000027380F84F24C0F85824C0F8602470470F
:107AF000101C0C0010B5074C236843B940F26440D9
:107B0000FCF7C9FA034608B1FFF7E6FF23602068D7
:107B100010BD00BF3CE4032038B50446406890B176
:107B200002232373FFF7BDFF656855B12846FFF7B1
:107B3000B8FF286808B1FFF7A3FF04212846FCF727
:107B4000AEFA0023636038BD10B5054B03600446F0
:107B5000FFF7E2FF04F58A60FDF7D9FA204610BD71
:107B6000101C0C0010B50446FFF7EEFF204640F253
:107B70006441FCF794FA204610BD38B50468054608
:107B80007CB16368013B63605BB9236820469B68F6
:107B90009847A368013BA3601BB923682046DB68B4
:107BA0009847284638BDF0B5044689B000F10D0667
:107BB00000F14E07237B1BB9012004F04FFEF9E7CB
:107BC000237B022B64D0A06804F0D4F9A06804F0F1
:107BD000D9F994F84F348DF800303A463C233146B9
:107BE00006A805F007F9069D6B7833B9237B022BB5
:107BF00003D0012004F032FEF5E7D4F858341BB36B
:107C0000002004F099FC20B16B7813B904F0F6FC65
:107C1000FAE72B78D4F860240592591E4B424B4169
:107C20008DF80B30D4F85834CDE903670BB907F061
:107C3000D7FF05AB0093D4F85C5404AB03AA0DF155
:107C40000B0104F58A60A847A06804F093F9237B30
:107C5000022B17D0D4F858340025C4F8605443B12F
:107C600004F58A61032208469847C4F85854C4F8BA
:107C70005C540023A068237304F084F907A8FFF77D
:107C80007CFF97E7A06804F07DF907A8FFF775FF70
:107C900009B0F0BD0068FFF786BF13B50B4602467A
:107CA000D0E900016C4684E8030093E8030082E811
:107CB000030094E8030083E8030002B010BD000055
:107CC0002DE9F7430646884614202649174699466B
:107CD00007F07CFF044630B10020C4E90000C4E98D
:107CE0000200207460743460002C31D01D491020D3
:107CF00007F06CFF054668B10023836001463846F3
:107D0000FFF7CBFFBB68AA68BA60AB60EA68FB68A4
:107D1000EB60FA602768256037B13846FDF7F7F960
:107D200010213846FCF7BBF93068036883B10A9B21
:107D30004A46CDE9000341460B4B043004F0F2F80B
:107D400030B933681B7C4BB9012004F063F9F8E7C4
:107D500030680023336008B1FFF792FE304603B06D
:107D6000BDE8F08390260C003D7A0B0030B54368E7
:107D700087B00446C3B9083004F0F4F80B4B059300
:107D800004200B4B02940493FCF785F9054638B1A7
:107D90004FF4406300930749022302AAFFF790FFC4
:107DA000656002A8FDF7B3F907B030BD957C0B0004
:107DB0006D7A0B00F41B0C002DE9F043044685B0EE
:107DC00080680C9F98460D46164604F0D3F8636809
:107DD0001BB1237B03F0FF0933B1A06804F0D2F894
:107DE000002005B0BDE8F083A06804F0CBF8002DBA
:107DF0003DD04022294604F10D0008F0FAFC84F839
:107E00004D908EB340F20142314604F14E0008F02D
:107E1000F0FC84F84E9400230293BB6804F58A6555
:107E20003BB10222394668469847FB680393BB681A
:107E3000029329466846FFF730FF029BD4F8582486
:107E4000C4F85834039B02926846D4F85C24C4F802
:107E50005C340392FDF75BF90D9BC4F8603401209C
:107E600084F84F842073BCE784F84E60D3E728463B
:107E7000B7E7000010B5054B0360037C04461BB94F
:107E8000406808B104F072FC204610BD281C0C00AC
:107E900010B50446FFF7EEFF20461421FCF7FFF86B
:107EA000204610BD10B5034B03600446FFF7E2FF08
:107EB000204610BD481C0C0010B50446FFF7F2FF29
:107EC00020463021FCF7EBF8204610BD10B5034BDF
:107ED00003600446FFF7E6FF204610BD581C0C0067
:107EE00010B50446FFF7F2FF20464021FCF7D7F813
:107EF000204610BD10B5074B0360037C04461BB938
:107F0000406908B104F032FC2046FFF7B3FF204679
:107F100010BD00BF381C0C0010B50446FFF7EAFF87
:107F200020462C21FCF7BBF8204610BD034A026016
:107F30000022C0E90122C26002747047281C0C00B4
:107F400038B5037C04460D460BB1002038BD4068AF
:107F500038B104F013FC0028F7D0C4E90105012072
:107F6000F4E7084604F0FAFBF5E770B5C3680E467F
:107F70001546D1184268044672B182688A420BD312
:107F80006068E3682A463146184408F033FBE2682B
:107F90002A44E260012070BD2046FFF7D1FF00288F
:107FA000EED1F8E710B5C0E901120022C26001224B
:107FB00002744361024A029B0260C36110BD00BFAC
:107FC000381C0C00D0E90503834204D90278022A48
:107FD00002D01030F8E700207047D0E9050398423E
:107FE00004D20378012B18BF00207047002070478F
:107FF00070B513689D68136803F1100414608669F6
:10800000B4420AD29B698C68A34201DAAB42F2DD2A
:10801000A342CCBF0020012000E0002070BD73B55A
:1080200001F1100304461646019300250198A36947
:1080300083420BD982688B689A4207DAB54206D030
:1080400001AA20460135FFF7D3FFEFE7002002B079
:1080500070BD2DE9F341089D984601F110030446D7
:108060001746019300260198A36983421AD98268B2
:108070008B689A4216DAAE420BD1386001AA2046CC
:10808000FFF7B6FF28B1019BC8F8003002B0BDE889
:10809000F08101AA2046FFF7ABFF20460136FFF72B
:1080A000A7FFE0E70020F1E7F0B5013B0024D1E9AC
:1080B0000176F61BA64208DDA34206DD45683D4475
:1080C0002D5D02F8015B0134F1E700231370F0BD70
:1080D0001FB5144610236A46FFF7E6FF04492246FF
:1080E000684604F05BFB431E5842584104B010BD83
:1080F000310F0C0010B5044600680B4628B106F09D
:1081000084FFE3680133E36010BD60680028F8D0A5
:10811000D4E90221013A8A4288BF4354F1E7034679
:108120007F2B37B50846D9B204D803B0BDE830403C
:10813000FFF7E0BF01F03F01B3F5006FC3F3871510
:1081400041F0800407D245F0C0010190FFF7D2FF53
:1081500001982146E9E71B0B43F0E0010190FFF78E
:10816000C9FF05F03F01019841F08001EEE70000F2
:108170002DE9FF4700244E68DFF8CCA080460F466B
:108180001546A146B868B0425ADDD8F80430995D6A
:108190009A19002C4BD0752905D86D2907D862296A
:1081A0001ED066291ED02846FFF7A4FF3DE0A1F1AE
:1081B0006E04072CF7D80FF2080C5CF824F000BF0F
:1081C000E9810B00A7810B00A7810B00A7810B00A1
:1081D000ED810B00A7810B00F1810B00F5810B00F5
:1081E0000821E0E70C21DEE70A21DCE70D21DAE7D0
:1081F0000921D8E7311D884217DD02A90433334431
:10820000084612F8014F01F8014B9A42F9D101AA30
:1082100051468DF80C9004F0C1FA012805D1BDF843
:1082200004002946FFF77BFF0536002404E05C29A3
:1082300004D02846FFF75EFF0136A3E70124FBE7E1
:10824000012004B0BDE8F087A9240C007FB50C46DE
:1082500006460C491046154606F09DFED4E901314C
:10826000C91A0131284606F00BFE00236A46214652
:108270003046CDE9013300950393FFF779FF04B051
:1082800070BD00BF08250C002DE9F04389B00546FC
:10829000884604A812491646994606F01EFE002795
:1082A00000974B4603AA41462846FFF7D2FE0446F4
:1082B00070B1039904AA2846FFF7C8FF044608B91D
:1082C0000137EDE7314604A806F0CDFE0028F7D0CF
:1082D00004A806F0B7FD204609B0BDE8F08300BF52
:1082E00008250C0000230122C3604361028380F84B
:1082F0002A30704708B50346FFF718FE044A1A6093
:108300004FF0FF321846DA62FFF7ECFF08BD00BFFE
:10831000481C0C00D0E9022310B593423FBF4268CD
:108320005C1CC460D15424BF012380F82A3010BDE6
:1083300010B54369044643B100EB4303597E09B1CC
:10834000FFF7E8FF6369013B6361D4E902106368EA
:1083500088424FF000022ABF5B181A5403F8012C20
:1083600010BD70B50446D0E9025066682D1A134658
:1083700030440A46294604F021FA85422DBFE368BD
:10838000A368E360C01836BF0123E06084F82A3098
:1083900070BD0EB403B503AA52F8041B0192FFF797
:1083A000E0FF02B05DF804EB03B070472DE9F8433D
:1083B00004460E46174612B12221FFF7ABFFDFF845
:1083C0000C810025715D06EB0509002974D0D4E904
:1083D00002329A4270D20B0634D501F0F003E02B42
:1083E00005F101091DD116F8092002F0C003802B08
:1083F00039D105F1020916F8093003F0C0008028D0
:1084000031D103F03F03920143EA013302F47C626D
:108410001A4392B241462046FFF7BBFF4D46013555
:10842000D0E701F0E003C02B1DD116F8093003F0AE
:10843000C002802A17D1890101F4F86203F03F03DA
:108440001A43E7E70D290AD807290CD9A1F1080337
:10845000052B08D8DFE803F009231707111D22298F
:1084600023D05C2921D0204604E05C212046FFF780
:1084700051FF6221FFF74EFFD1E75C212046FFF755
:1084800049FF6621F6E75C212046FFF743FF6E2196
:10849000F0E75C212046FFF73DFF7221EAE75C210F
:1084A0002046FFF737FF7421E4E75C212046FFF701
:1084B00031FF99F80010DDE72FB120462221BDE8F9
:1084C000F843FFF727BFBDE8F88300BF181C0C0076
:1084D000426900EB42031A7E12B100221A767047FD
:1084E0002C21FFF717BF73B5436901910133082BA6
:1084F00016460FD8FFF7ECFF4369019900EB4304E0
:108500005A1C01254261A576E676FFF703FF28464F
:1085100002B070BD0020FBE710B50446FFF7EAFE8D
:10852000054B23604FF0FF320023C4E90D23216384
:10853000E363204610BD00BF581C0C0070B5436BB0
:108540000133044621D1056B4B684363EB688868AF
:108550001A1AA263AE683044C31A002AE36305DD29
:10856000686889680144184408F052F8226B616B0E
:108570005268E36B0A445B1A01212046C4E90123D7
:108580002174FFF7AFFE084670BD0020FCE770B510
:10859000436B013304460E4629D18D68016B013DC2
:1085A0004563CB685A1B826388682844C31A002A33
:1085B000E36304DD48684119184408F029F8226B88
:1085C000616B5268E36B0A445B1A0125C4E901231D
:1085D00020462574FFF786FE636903F10C02F368F9
:1085E000B3FA83F35B0904F81230284670BD00200B
:1085F000FCE700002DE9F04F44684FF0010C4FF00C
:10860000FF36D0F800E0964580F0B98111F80E8071
:10861000B8F1000F00F0B381B8F13A0F00F0988084
:1086200033D8B8F1220F00F0A68010D8A8F10908BD
:108630005FFA88F8B8F1170F0DD89F4D0CFA08F8BB
:1086400018EA050F07D0056801350560D9E7B8F1CC
:108650002C0F00F03381D0F8008042450ED911F87C
:1086600008505DB13A2D00F269811F2D00F2518151
:108670000A2D00F26081082D40F25681002B40F057
:10868000628108F1FF350560A5E0B8F17B0F37D0B6
:108690002ED8B8F15B0F33D0B8F15D0FDBD1002BD2
:1086A000D1D04FF002094568013D03EB0518002DBC
:1086B00055DBD8F8047001374DD0D8F808A0BAF1CE
:1086C000FF3F48D198F800B0CB454BD10EF1010ED9
:1086D000C0F808A0C8F808E003EB051EDEF8047037
:1086E000013742D0DEF8087001373ED18560AAE735
:1086F000B8F17D0FAFD1002BA5D04FF00109D2E723
:108700000134002B9FD04568099FAF424AD905F13B
:10871000010EC0F804E003EB051ECEE901664FEA46
:10872000051A0025CEF80C5085686F1C1FBF03EB9F
:108730000519D9F80C500135C9F80C50B8F17B0F68
:108740000CBF0125022503F80A500568CEF8045035
:108750004568013DCAE7013DA8F11008A7E70135CA
:108760007FF471AF6FF001041EE0013D6F1CAEF1AC
:10877000100EB3D167E70EF10109C0F80090D0F8F0
:108780000080424540F2938011F80850002D00F01F
:108790008E80222D30D1F3B14568099FAF4206D8B3
:1087A000C0F800E04FF0FF342046BDE8F08F05F13F
:1087B000010E4FEA051803EB0515C0F804E0C5E902
:1087C00001660027EF60D0F800E04FF0030A03F8DD
:1087D00008A0C5E9019E85686F1C04F101043FF4FF
:1087E00032AF002B3FF42FAF03EB051EDEF80C5029
:1087F0000135CEF80C5026E75C2D11D108F10105AA
:10880000AA420DD905604D5D752D2BD86D2D0BD865
:10881000662D27D85B2D1DD8222D01D02F2D21D1DB
:10882000056801350560AAE76E3D072D1AD801A736
:1088300057F825F021880B0065880B0065880B0030
:1088400065880B0021880B0065880B0021880B00D0
:108850006B880B005C3DEDB20CFA05F540F2414728
:108860003D42DDD1C0F800E07CE708F1020505607B
:108870004FF0040AD0F80080424503D80568013D56
:108880000560CDE711F80850002DF7D0A5F1300BA9
:10889000BBF1090F04D925F02005413D052DE1D894
:1088A00008F10105BAF1010A0560E3D1E6E7C0F875
:1088B00000E06FF0020477E713008000002B3FF424
:1088C000C2AE85686F1C3FF4BEAE2D015D5D013DFB
:1088D000012D7FF6B8AE456805F1FF3803EB051EA4
:1088E000B8F1000FFFF6AFAE1EF8105C013D012D90
:1088F0000AD85EF80C5C013506D05EF8085C0135DC
:1089000002D1C0F808809EE608F1FF38AEF1100EE3
:10891000E6E7A5F12009244F5FFA89F90CFA09F975
:1089200019EA070F7FF4AAAE203D5E2D9AD808F110
:10893000010505608FE60D2DF6D19FE605F0DF09F4
:10894000B9F15D0FF8E74568099FAF427FF628AFA0
:1089500005F101084FEA051903EB0515C0F804807D
:10896000C5E901660027EF60D0F800804FF0040AE7
:1089700003F809A0C5E901E80568013D83E6002B7D
:108980003FF412AF4268511E03EB02130029FFF6B9
:108990000BAF53F80C2C013203D053F8082C0132E2
:1089A00087D00139103BF1E701100004F7B5C26828
:1089B000044612B9002003B0F0BD436900F120065F
:1089C000ABB10021C0E908114FF0FF318162C169EC
:1089D000009141683046FFF70DFE431C28D1257CED
:1089E000002DE7D1606903F0C1FE6561E5610025F6
:1089F0004FF0FF37C4E90855E2686168A762009547
:108A00002B463046FFF7F6FD0028D3DBE06117D098
:108A1000000103F0A3FEE269606103460092C4E92D
:108A20000855E2686168A7623046FFF7E3FD01E0A0
:108A30000028BFDB636903EB0010A0610120BAE7E7
:108A40006369A361FAE738B5436B5A1C044618D032
:108A5000826B002A08DD016BE5684868E16B2B44F6
:108A60000144184407F0D4FDD4E90C23A16B0B4456
:108A7000E1680B44D360206BFFF798FF4FF0FF33A2
:108A8000636338BD7047704710B508210446FBF793
:108A900006FB204610BD10B510210446FBF7FFFA77
:108AA000204610BD10B5054B044640F81C3B06F0AF
:108AB000C9F9201D06F0C6F9204610BDCC1C0C00DB
:108AC00010B50446FFF7EEFF20465821FBF7E7FA02
:108AD000204610BD10B5044B044640F8043BFFF798
:108AE000E1FF204610BD00BF9C1C0C0010B50446E1
:108AF000FFF7F0FF20466021FBF7D1FA204610BDBA
:108B000020F00203012B03D0431F58425841704705
:108B10001846704791F90430037191F9053043719B
:108B200091F90630837191F90730C371704738B5F8
:108B300004460D460430043106F00BFA05F1140129
:108B400004F11400FFF7E6FF05F11C0104F11C001D
:108B500006F0FFF905F12C0104F12C00FFF7DAFF14
:108B600095F9383084F8383095F9393084F839304F
:108B700095F93A3084F83A3095F93B3084F83B3037
:108B800005F13C0104F13C00FFF7C4FF95F94830C2
:108B900084F8483095F9493084F8493095F94A30DD
:108BA00084F84A3095F94B3084F84B3005F14C018C
:108BB00004F14C00FFF7AEFF95F8543084F85430C0
:108BC00038BD0B6803604B68436013B15A680132CB
:108BD0005A607047024A02604A684260704700BFAC
:108BE000AC1C0C004A69036862F3160303600B694E
:108BF0005A1C438862F3CA134380CA68C3F307232D
:108C000062F3C703C3707047024A026000224260E9
:108C1000704700BFAC1C0C0030B5002387B08380C8
:108C200083710D4605AB00931349044604AB03AAB8
:108C3000284603F0B3FD032807D1039B2371049B4F
:108C40006371059BA37107B030BD0C4904AB03AA47
:108C5000284603F0A3FD022804D1039B2371049B43
:108C60006371F0E7064903AA284603F097FD01283F
:108C700004BF039B2371E6E7601C0C00631C0C001F
:108C8000310F0C0090F9042090F9053090F906108E
:108C9000002AB8BF0848C3EB03134FEA8303BDBFE4
:108CA00000FB0230401840424FF46160A4BF00FB5B
:108CB00002304018704700BFF0F1FFFF08B590F890
:108CC00054304BB190F93B3043B92C30FFF7DAFF09
:108CD000B0FA80F0400908BD0120FCE70020FAE767
:108CE00090F9073043B990F904308B6090F9053062
:108CF0004B6090F906300B60704790F9073030B543
:108D0000B3B990F904508C682C44D1E900328C60DE
:108D100090F90540002DB5BF121B12194A604A6038
:108D2000B5BF90F9062090F906209B1A9B180B609E
:108D300030BD000008B5054A0260002203464260CB
:108D40000830FFF761FF184608BD00BFBC1C0C00CF
:108D500000234360838183737047000030B504466D
:108D600087B00D4611B10B784D2B05D0204607B0CA
:108D7000BDE83040FFF7ECBF05AB0093114904ABF1
:108D800003AA284603F00AFD032816D1039B23718A
:108D9000049B6371059BA3712F21284607F0C6FC35
:108DA00040B1411C04F10800FFF736FF0123E371D5
:108DB00007B030BDA081A073F8E72046FFF7C8FFD9
:108DC000F6E700BF7B1C0C00104B114910B50446A0
:108DD00040F8043B06F081F804F11400FFF714FF9B
:108DE0000B4904F11C0006F078F804F12C00FFF7A1
:108DF0000BFF04F13400FFF79DFF04F14400FFF77F
:108E000099FF002384F85430204610BDCC1C0C0080
:108E100008250C002DE9F74F0446084607F0B0FC82
:108E200000250646019004F134083F49019801AA43
:108E300007F02EFD0146002862D0012D05F1010347
:108E400053D0022D56D0002D46D1024692F8009004
:108E5000B9F1400F1546174602F10102F6D800227B
:108E60002A7004F11C0006F096F8012285F80090A3
:108E700084F854202A786AB397F800A00AF1FF32E8
:108E80003F2AB946BB4607F10107F5D9002304F193
:108E90002C0789F8003029463846FFF7BDFE89F8CF
:108EA00000A0BAF1000F15D05D461BF801ABBAF176
:108EB000400FF9D800222A704946201D06F06BF8B1
:108EC00085F800A004F11400BAF1000F06D029467D
:108ED000FFF7A2FE0125A8E71D46A6E73946FFF7E2
:108EE00019FE237E013B2376F4E74046FFF736FF69
:108EF00002259AE704F14400FFF730FF032594E7C9
:108F000094F93B3043B194F94B202AB904F1340071
:108F1000FFF71EFF84F85420304603F027FC94F836
:108F2000540003B0BDE8F08F851C0C0038B5134B1E
:108F300004460D4640F8043B114905F0CEFF04F10C
:108F40001400FFF761FE0E4904F11C0005F0C5FF97
:108F500004F12C00FFF758FE04F13400FFF7EAFE9D
:108F600004F14400FFF7E6FE002384F8543029465C
:108F70002046FFF74FFF204638BD00BFCC1C0C0039
:108F800008250C0008B50346FFF73EFE8A681A71F3
:108F90004A685A710A689A71184608BD13B5074B9A
:108FA00003600023436004466846FFF7EBFF20465A
:108FB0006946FFF7AFFD02B010BD00BFAC1C0C004E
:108FC00007B50023014601A80193FFF70BFE0198A6
:108FD00003B05DF804FB10B504460846FFF7F0FF48
:108FE000206010BD10B5044688B00846683001A95D
:108FF00007F0AEFA01A807F0E0FB08AB1844002325
:1090000000F81D3C01A9204605F067FF204608B086
:1090100010BD000038B50446081D0D46FFF74EFE92
:1090200028B10949204605F058FF204638BD286878
:10903000FFF766FD28B105F10801204605F098FF0D
:10904000F3E705F12001F8E7871C0C002DE9F04754
:109050008046A8B00C4615462AB1474B1046196801
:1090600007F07BFB38B921464046FFF7BBFF40467F
:1090700028B0BDE8F08729463F2218A807F0B9FBC1
:10908000002318A88DF89F3007F097FB214605466E
:1090900003A8FFF7BFFF201DFFF710FE48B33749B5
:1090A00007A807F064FB18AE002705F1FF3ABA45A0
:1090B0004CD93378252B07F1010917D173787A2B16
:1090C00036D107A807F079FB18AB05463818AAEB8C
:1090D0000702B11C184407F08DFA2A4607A930464A
:1090E00007F088FA18A807F068FB054601364F46D6
:1090F000DBE72068FFF704FDB8B104F11800FFF7C3
:10910000C1FD3C2290FBF2F3002BB8BF5B42B3FBE6
:10911000F2F102FB11330093194A1A4B90FBF3F35F
:10912000102107A803F042FBBDE704F13000E6E799
:109130005A2BDBD1059D18AB7819AAEB0702B11C9D
:10914000184407F057FA03992A46C8E700212E224F
:109150000CA80B9107F076FA04F1680318AA3221E3
:109160000BA803F05BFB0BA9404605F0B6FE03A875
:1091700005F068FE7BE700BF68D70320871C0C0062
:10918000891C0C00F0F1FFFF38B5094D2B6863B95D
:109190006020FAF780FF044630B1064B40F8043BEC
:1091A000FFF712FE6423E3652C60286838BD00BF1A
:1091B00040E403209C1C0C0003F048BB01390B2940
:1091C00015D8DFE801F0160816061606161606165C
:1091D00006161E20704783070DD1642390FBF3F21F
:1091E00003FB120000280CBF1C201D20704700202C
:1091F00070471F2070471C207047F8B50123CB60D3
:1092000090F90430013B0B610023C1E900330646AD
:109210000C4617468B602046FFF7CEFF96F90630C6
:10922000A2699A4203D0E3680133E360F3E796F959
:109230000550012D13D0E3686069013DC5EBC505FC
:109240001D44E56096F9041000F26C70FFF7B6FF5C
:109250008542C4BF073DE5602046FFF7ADFF2146CC
:1092600006F10800FFF73CFD3846FFF746FD2046B3
:10927000BDE8F84003F0EABAF0B590F8583085B090
:1092800004462BB9FFF780FF011D201DFFF74FFC9F
:1092900094F93F30002B65D0D4E9182304F19807E6
:1092A000394602A83E46CDE9022303F0BFFA0FCEAD
:1092B00004F1C8050FC50FCE0FC533682B6004F14C
:1092C000300102A8FFF786FC02AA394604F13800F3
:1092D000FFF793FFC4E9240104F1180102A8FFF786
:1092E00079FC02AA04F1C80104F14800FFF785FFE8
:1092F000D4E92465864275EB0103C4E93001D4E961
:10930000182323DAB24273EB050519DA0023236030
:109310002068FFF7F5FB04F16801D4E918560191C4
:1093200010BB04F13000FFF7ADFC2D1A66EBE070C6
:10933000CDE90250019902A803F078FA05B0F0BD1A
:1093400082428B41B4BF01230223E0E7824273EBE8
:10935000010101DA0323DAE7B242AB41B4BF0423CF
:109360000523D4E70623D2E704F11800DBE737B57D
:109370008D6804466846FFF724FC6A462946204665
:1093800004F090F901A8FEF7F8FB204603B030BDC9
:1093900037B5CD6804466846FFF713FC6A46294690
:1093A000204604F05BF901A8FEF7E7FB204603B076
:1093B00030BD37B50D6904466846FFF702FC6A46C2
:1093C0002946204604F0F3F801A8FEF7D6FB204614
:1093D00003B030BD704710B510210446FAF75FFEA8
:1093E000204610BD0368C9B29B68184730B5034DCD
:1093F000C0E90223C0E9005130BD00BFDC1C0C00F5
:10940000406803F045BF10B50446006803F09BFFB9
:10941000204610BD2DE9F7430446406801900D46F3
:1094200016461F4603F086FFA7B1E168606841F069
:10943000500103F060FF290A6068FFF7D3FF294657
:109440006068FFF7CFFF6068002103F06FFF48B14D
:10945000002400E0012401A8FFF7D5FF204603B057
:10946000BDE8F083202F217B6068B84628BF4FF00D
:1094700020080123424641F0500103F026FF06F088
:109480001DFB03681B6998474045E1DB06EB0809B3
:1094900006F014FB03685B69984706F8010B4E451C
:1094A000F6D14544A7EB0807BEE72DE9F74F044680
:1094B000406801900E4690461D4603F03BFF4FF07A
:1094C0000109B9F1000F2AD04DB3E168606841F09D
:1094D000500103F010FF310A6068FFF783FF6068F6
:1094E0003146FFF77FFFA5F11E0A4746A6EB080BA2
:1094F000606817F8011B0368013D9B689847554554
:109500000BEB0706B84601D0002DF1D160680121B0
:1095100003F00CFF0028D7D04FF00009D1E701A8D5
:10952000FFF771FF484603B0BDE8F08F2DE9F04327
:109530008BB00E4615468046406801901C4603F0ED
:10954000F9FEAE4229D2264425448CB11E2C274672
:10955000D8F8003028BF1E27F61BD3F8089002AABF
:109560003B4631464046ED1BC84748B9002400E061
:10957000012401A8FFF747FF20460BB0BDE8F083A8
:10958000D8F8003002AAD3F80C9029463B46404652
:10959000C8470028EAD0E41BD7E7E9D9002CE7D078
:1095A000D8F800301E2C274628BF1E27D3F8089075
:1095B00002AA3B4631464046C8470028D6D0D8F8D4
:1095C000003002AAD3F80C9029463B464046C847D3
:1095D0000028CBD03E443D44E41BDFE703680A7813
:1095E00083F8B120012183F8B010704710B44268AD
:1095F0000346541001EB6200D20748BF0A591B68AA
:109600005DF8044B48BFD3581847012A02D10160C6
:1096100000207047022A04BFD1E90023C0E90023DB
:10962000F6E7012A02D1016000207047022A04BF38
:109630000B680360F8E7406F02F0BCBCD0F8C8309C
:1096400001461BB1D0F8CC30C0301847704700003D
:10965000F8B5124D0846002A18BF15460E461F469B
:1096600007F0ABF8402816D8284607F0A6F8B0F562
:10967000806F10D84330FAF710FD044648B13146E8
:1096800000F8017B07F073F8294604F1420007F067
:109690006EF82046F8BD0024FBE700BF08250C004B
:1096A000F0B59FB00A4600230E46011D08A802F03F
:1096B00081F80898002107F095F9054608A805F0FB
:1096C000C1FB002D60D008A9284607F079F90C9B52
:1096D0002E492F483246FDF745FC00221146284608
:1096E00007F076F9082206A9284607F08FF90C9FA3
:1096F0004A2F39DD274B069A9A4235D1264B079AD5
:109700009A4231D1A7F1080210460592FAF7C5FC3A
:109710000446C0B127440146059A284607F076F969
:1097200017F8093CABB9631C1846059307F045F8D8
:109730003F28059B0DD804F14202009217491448B6
:109740003246FDF70FFC284607F032F920461FB0DD
:10975000F0BD13490E483246FDF704FC4321204674
:10976000FAF79DFC0024EEE7BDF81E3002939DF849
:109770001D3001939DF81C3000930A49069B044854
:109780003246FDF7EFFBEDE72C46DFE7F01C0C005F
:1097900044E403206376B63101084100041D0C0047
:1097A000261D0C00541D0C002DE9F8438046284B63
:1097B00048F8043B0446404601F014FF02226423AB
:1097C0000025C4E91B230823E367C4E92055C4E945
:1097D0002255C4E92455C4E92655A5672020FAF787
:1097E0005AFCE66FA067013E760800EB8609074643
:1097F0004FF40070FAF74FFC00F50073C4E925033D
:10980000C4F888304FF4FA614FF47A73C4E92D1329
:1098100047F2305347F82600C4F88400C4F88000AB
:10982000C4F89000C4E92855C4E92A550949C4F888
:109830008C90C4F89C90C4F8B050C4F8BC30C4F804
:10984000C850404601F014FF2046BDE8F88300BF31
:10985000701F0C00991D0C0038B5064D2B683BB9E4
:10986000D020FAF718FC044608B1FFF79DFF2C60E2
:10987000286838BD48E403204269436A9B1A9B105C
:109880005A1ED0E906315B1A9B1003EBC213026922
:109890008068101A03EBA000704738B50546FFF743
:1098A000CAFE05F17800FFF7E7FF044650B9281D0E
:1098B00002F0D4F9D5F8A03004461BB1D5F8A43095
:1098C00003B90134686F02F07DFB204638BD10B546
:1098D00002698368043A9342044602D00433A360C9
:1098E00010BDC0684FF40071FAF7D9FB63691A1D07
:1098F00062615B68E36003F500722261EFE70000DC
:109900002DE9F04F85B00446FFF795FEDFF8A490EF
:10991000DFF8A4A0DFF8A4B0D4F88030D4F8902009
:10992000934205D1606F05B0BDE8F04F02F04ABB2D
:1099300004F1780004F104081F68FFF7C8FF4046EF
:1099400002F030F90023024641460646684601F01F
:1099500031FF009840F2022107F044F805466846BE
:1099600005F070FAC5B1082269462846CDE9009A8B
:1099700007F05EF807F1420006F01FFF394600F1DC
:109980004302284607F054F8284607F011F8084823
:1099900032465946FDF7E6FA3146404602F044F9B0
:1099A000002FB9D043213846FAF779FBB2E700BF60
:1099B00044E403206376B63101084100A71D0C0082
:1099C0002DE9F0410446FFF736FE04F17800FFF779
:1099D00053FFE36E984202D92046FFF791FFDFF86C
:1099E00044800F4F261D304602F038F9236F98420D
:1099F00004DC606FBDE8F04102F0E4BA01213046BA
:109A000002F0DCF805460028EDD001460022304681
:109A100001F00CFF2A4641463846FAF790FBE2E790
:109A200044E40320C41D0C0008B5A0F500630B43FB
:109A300005D0403850EA01030BD1092A09D1054964
:109A40000548FDF78FFAFFF707FFBDE80840FFF76D
:109A500057BF08BDD71D0C0044E4032070B5036850
:109A6000044683B1436A45691E1DAE4206D955F8C6
:109A7000040B4FF40071FAF712FBF6E761682068F7
:109A80008900FAF70CFB204670BD00001FB5D1E934
:109A900000230021044602910AB9D90705D5CDE972
:109AA00000230A4B03930A4B029321466846FEF7B4
:109AB000F4F8029BA268A360039B02926846E268E6
:109AC000E3600392FBF723FB04B010BDED950B00A0
:109AD0000B960B0070B586B0044602F09FFD48B9A6
